:100000000C9458060C949F060C949F060C94472E53
:100010000C949F060C949F060C949F060C949F06CC
:100020000C949F060C949F060C94D2220C940E22E2
:100030000C946F260C949F060C949F060C949F06BC
:100040000C949F060C949F060C949F060C949F069C
:100050000C949F060C94F8250C949F060C949F0614
:100060000C949F060C949F060C949F060C949F067C
:100070000C949F060C949F060C949F060C949F066C
:100080000C949F060C949F060C949F060C949F065C
:100090000C949F060C949F060C949F060C949F064C
:1000A0000C949F060C949F060C949F06260D290D18
:1000B000450D520D590D790D7C0DB00DCD0D6B0E0A
:1000C000750ED80DDA0DDE0D020E230E260E290E4A
:1000D0004C0E3F1B3F1B791B791BCC1BE81B7A1D69
:1000E0007A1DF31BD11CE21CE21CBA1DE41DE91DA4
:1000F000EE1DF31DF81DFD1D021E071E0C1E111E18
:10010000181E1D1E201EFD18FD18FD18FD18231EAB
:10011000FD1816203D20F0213D20F0218920AC2043
:10012000F021AD21BD214A294A295D295D295329A4
:100130005D295D295D294A294A2958295D295D29BA
:10014000582900DA02818FD9F1DB40A4A62EAF0036
:10015000A0C000A1C800AED580A81FD300408D1458
:100160002000783C1E1E140A05004C454400005532
:100170006E646566003474680033726400326E64C5
:1001800000317374004C41594552000080818283D4
:100190008485868788898A8B8C8D8E8F90919293A7
:1001A00094A0A1A2A3A4A5A6A7A8A9AAABACADAEF2
:1001B000AFB0B1B2B3B4C0C1C2C3C4C5C6C7C8C969
:1001C000CACBCCCDCECFD0D1D2D3D40000AE00019B
:1001D0000101010101010101020202020202020207
:1001E00002030303030303030304040404040404D9
:1001F000050505050506060606060707070707089D
:10020000080808090909090A0A0A0B0B0B0C0C0C4F
:100210000D0D0D0E0E0E0F0F0F10101111111212E9
:1002200013131414151516161717181819191A1A66
:100230001B1B1C1D1D1E1E1F2020212222232424C7
:10024000252626272829292A2B2C2D2D2E2F303103
:100250003232333435363738393A3B3C3D3E3F4015
:100260004142434445464748494A4C4D4E4F505100
:100270005354555658595A5B5D5E5F6162646566BA
:1002800068696B6C6D6F7072737577787A7B7D7E41
:100290008082838587888A8C8E8F91939596989A91
:1002A0009C9EA0A2A3A5A7A9ABADAFB1B3B5B7BAA9
:1002B000BCBEC0C2C4C6C9CBCDCFD1D4D6D8DBDD7D
:1002C000DFE2E4E7E9EBEEF0F3F5F8FAFDFFFFAA71
:1002D0007F55402223252628292A2C2D2F303233E2
:1002E0003536383A3B3D3E4042434547494A4C4EFD
:1002F0005051535557595A5C5E6062646668696B29
:100300006D6F71737577797B7D7F81838587898A2E
:100310008C8E90929496989A9C9E9FA1A3A5A7A834
:10032000AAACAEAFB1B3B4B6B8B9BBBCBEBFC1C264
:10033000C3C5C6C7C9CACBCCCDCED0D1D2D2D3D4F7
:10034000D5D6D7D7D8D9D9DADADBDBDBDCDCDCDC15
:10035000DCDDDDDDDDDCDCDCDCDCDBDBDBDADAD9E3
:10036000D9D8D7D7D6D5D4D3D2D2D1D0CECDCCCB65
:10037000CAC9C7C6C5C3C2C1BFBEBCBBB9B8B6B483
:10038000B3B1AFAEACAAA8A7A5A3A19F9E9C9A9813
:10039000969492908E8C8A89878583817F7D7B79E4
:1003A000777573716F6D6B6968666462605E5C5AC5
:1003B0005957555351504E4C4A4947454342403E88
:1003C0003D3B3A3836353332302F2D2C2A2928261A
:1003D000252322290014001A000800150017002BFD
:1003E0006104001600070009000A00E1001D001B5F
:1003F0000006001900050000000000000002512C5A
:100400000002511C0018000C00120013002A000BFF
:10041000000D000E000F00330034001100100036F4
:100420000037003800E500015128000151000000AC
:1004300000000001001E001F00200021002200011A
:1004400000010001000100010001000100010001A4
:100450000001000100010000000000000001000197
:100460000001002300240025002600270001005081
:1004700000510052004F0049004C00E60065004A60
:10048000004D004600E700010001000100000000EF
:1004900000000001001E021F0220022102220201B0
:1004A0000001000100010001000100010001000144
:1004B0000001000100010000000000000001000137
:1004C0000001002302240225022602270235020130
:1004D000002D022E022F0230023102010001000124
:1004E0000001000100010001000100010000000006
:1004F00000000001003A003B003C003D003E0001CE
:1005000000010001000100010001000100010001E3
:1005100000010001000100000000000000010001D6
:100520000001003F00400041004200430044000140
:10053000000100010001000100450001000100016F
:100540000001000100A5620100010001000000009F
:1005500000000000AF0000000000000000000000EC
:100560000000000000000000007E0F00D4FFFFFF2D
:10057000C70000007800000000000000002A2B28BF
:10058000000000000000000000000000000000006B
:1005900029000000002C1E34202122243426272587
:1005A0002E362D3738271E1F2021222324252633BF
:1005B00033362E37381F0405060708090A0B0C0DC1
:1005C0000E0F101112131415161718191A1B1C1DD3
:1005D0002F3130232D350405060708090A0B0C0DB1
:1005E0000E0F101112131415161718191A1B1C1DB3
:1005F0002F3130354C05010902A10185020901A105
:1006000000050919012905150025019505750181C8
:100610000295017503810105010930093115812514
:100620007F95027508810609381581257F9501752A
:10063000088106050C0A38021581257F9501750889
:100640008106C0C005010980A101850319012AB7EF
:1006500000150126B700950175108100C0050C0931
:1006600001A101850419012AA002150126A0029505
:100670000175108100C00660FF0961A101096215C2
:100680000026FF009520750881020963150026FFEA
:1006900000952075089102C005010906A101050712
:1006A00019E029E7150025019508750181029501DA
:1006B000750881010507190029FF150026FF00951F
:1006C0000675088100050819012905950575019130
:1006D00002950175039101C009025B00030100A0AE
:1006E000FA090400000103010100092111010001C0
:1006F0002240000705810308000A090401000203E3
:1007000000000009211101000122220007058203D7
:100710002000010705030320000109040200010372
:100720000000000921110100012281000705840356
:1007300020000A120110010000000838393034018D
:1007400000010203010403300000000A03520065A7
:100750000034003000000012036B00750073006865
:100760000069006D00610038000000040309040006
:1007700000000000003E5B4F5B3E003E6B4F6B3E57
:10078000001C3E7C3E1C00183C7E3C18001C577D23
:10079000571C001C5E7F5E1C0000183C180000FF08
:1007A000E7C3E7FF00001824180000FFE7DBE7FFBE
:1007B0000030483A060E00262979292600407F0598
:1007C000050700407F05253F005A3CE73C5A007F63
:1007D0003E1C1C0800081C1C3E7F0014227F2214B3
:1007E000005F5F005F5F0006097F017F0000668990
:1007F000956A0060606060600094A2FFA2940008A7
:10080000047E04080010207E20100008082A1C081E
:1008100000081C2A0808001E10101010000C1E0CE6
:100820001E0C0030383E383000060E3E0E0600002A
:10083000000000000000005F00000000070007004B
:1008400000147F147F1400242A7F2A120023130827
:10085000646200364956205000000807030000007B
:100860001C224100000041221C00002A1C7F1C2A7F
:100870000008083E080800008070300000080808E2
:100880000808000000606000002010080402003E1C
:100890005149453E0000427F4000007249494946A7
:1008A000002141494D33001814127F10002745459F
:1008B0004539003C4A4949310041211109070036B8
:1008C0004949493600464949291E000000140000E4
:1008D00000004034000000000814224100141414E9
:1008E0001414000041221408000201590906003EB8
:1008F000415D594E007C1211127C007F49494936F6
:10090000003E41414122007F4141413E007F494933
:100910004941007F09090901003E41415173007FAF
:100920000808087F0000417F4100002040413F014E
:10093000007F08142241007F40404040007F021C9D
:10094000027F007F0408107F003E4141413E007F4E
:1009500009090906003E4151215E007F0919294617
:100960000026494949320003017F0103003F40400E
:10097000403F001F2040201F003F4038403F0063A1
:1009800014081463000304780403006159494D43BB
:1009900000007F4141410002040810200000414155
:1009A000417F00040201020400404040404000003A
:1009B00003070800002054547840007F284444383E
:1009C00000384444442800384444287F00385454B4
:1009D00054180000087E09020018A4A49C78007F27
:1009E000080404780000447D4000002040403D00A1
:1009F000007F102844000000417F4000007C047804
:100A00000478007C0804047800384444443800FC2E
:100A1000182424180018242418FC007C0804040856
:100A20000048545454240004043F4424003C4040F3
:100A3000207C001C2040201C003C4030403C0044F6
:100A400028102844004C9090907C004464544C44FE
:100A50000000083641000000007700000000413629
:100A60000800000201020402003C2623263C00FF8D
:100A7000FFFFFFFFFFFFFFFFFFFFFFFFFFFFFFFF86
:100A8000FFFFFFFFFFFFFFFFFFFFFFFFFFFFFFFF76
:100A9000FFFFFFFFFFFFFFFFFFFFFFFFFFFFFFFF66
:100AA000FFFFFFFFFFFFFFFFFFFFFFFFFFFFFFFF56
:100AB000FFFFFFFFFFFFFFFFFFFFFFFFFFFFFFFF46
:100AC000FFFFFFFFFFFFFFFFFFFFFFFFFFFFFFFF36
:100AD000FFFFFFFFFFFFFFFFFFFFFFFFFFFFFFFF26
:100AE000FFFFFFFFFFFFFFFFFFFFFFFFFFE0F0F053
:100AF000F0E0ECEEF7F37020007C7C7C7E007E7EE4
:100B00007E7F7F7F000080C0E07E5B4F5BFEC00089
:100B100000C000DCD7DEDEDED7DC00C00000000055
:100B2000000000000000000000000000000000FFC6
:100B3000FFFFFFFFFFFFFFFFFFFFFFFFFFFFFFFFC5
:100B4000FFFFFFFFFFFFFFFFFFFFFFFFFFFFFFFFB5
:100B5000FFFFFFFFFFFFFFFFFFFFFFFFFFFFFFFFA5
:100B6000FFFFFFFFFFFFFFFFFFFFFFFFFFFFFFFF95
:100B7000FFFFFFFFFFFFFFFFFFFFFFFFFFFFFFFF85
:100B8000FFFFFFFFFFFFFFFFFFFFFFFFFFFFFFFF75
:100B9000FFFFFFFFFFFFFFFFFFFFFFFFFFFFFFFF65
:100BA000FFFFFFFFFFFFFFFFFFFFFFFFFF0F1F3FE5
:100BB0007F7F7F7F7F3F1E0C001F1F1F3F003F3F37
:100BC0003F7F7F7F00307B7F7830202030787F3BF5
:100BD0000003000F7F0F0F0F7F0F000300000000C6
:100BE000000000000000000000000000000000FF06
:100BF000FFFFFFFFFFFFFFFFFFFFFFFFFFFFFFFF05
:100C0000FFFFFFFFFFFFFFFFFFFFFFFFFFFFFFFFF4
:100C1000FFFFFFFFFFFFFFFFFFFFFFFFFFFFFFFFE4
:100C2000FFFFFFFFFFFFFFFFFFFFFFFFFFFFFFFFD4
:100C3000FFFFFFFFFFFFFFFFFFFFFFFFFFFFFFFFC4
:100C4000FFFFFFFFFFFFFFFFFFFFFFFFFFFFFFFFB4
:100C5000FFFFFFFFFFFFFFFFFFFFFFFFFFFFFFFFA4
:100C6000FFFFFFFFFFFFFFFFFFFFFFFFFF00000091
:100C70000000000000000000000000000000000074
:100C80000000000000000000000000000000000064
:100C90000000000000000000000000000000000054
:100CA0000000000000000000000000000000000044
:100CB00011241FBECFEFDAE0DEBFCDBF04B603FEC6
:100CC00027C08091780590917905A0917A05B0911F
:100CD0007B058730904BA740B04BD1F4109278053C
:100CE0001092790510927A0510927B0514BE84B794
:100CF000877F84BF0FB6F894A895809160008861C3
:100D000080936000109260000FBEE0E0F8E3099568
:100D100025E0AAECB1E001C01D92A837B207E1F7C7
:100D200011E0A0E0B1E0E0E0F6E602C005900D922F
:100D3000AA3CB107D9F70E94A1060C94FE320C948C
:100D40000000CF93DF93CDB7DEB7AE970FB6F89420
:100D5000DEBF0FBECDBF84B7877F84BF0FB6F894C8
:100D6000A895809160008861809360001092600077
:100D70000FBE90E080E80FB6F894809361009093E6
:100D800061000FBE85B7806885BF85B7806885BF65
:100D90000E9452220E9471228091E200846080931E
:100DA000E20078948091F9028823A1F01091E90083
:100DB0001F709091EC00892F817090FD80E8182BB6
:100DC0001092E9008091E80083FD0E94301F1F709F
:100DD0001093E90082E084BD93E095BD9AEF97BD42
:100DE00080936E002198299A6E9A769805E00A956C
:100DF000F1F7000083B1869581706E98769A10EABB
:100E00001A95F1F78093150180911501882321F03F
:100E10001092000184E103C084E18093000180937B
:100E200001010E947713882331F062E070E085E0D1
:100E300091E00E94F52D8091150180911501882384
:100E400011F090E001C094E09093E20184E0891BEE
:100E50008093E101A1E5B1E041E050E08D91E82F00
:100E6000E295EF70F0E021A18F70BA0102C0660F29
:100E7000771F8A95E2F7CB01962F9095922391A345
:100E800092A1892B82A371E0A535B70739F7A9E5AF
:100E9000B1E04FE551E061E070E08D91E82FE2951F
:100EA000EF70F0E021A18F708B0102C0000F111FC5
:100EB0008A95E2F7C801902F9095922391A392A171
:100EC000892B82A34A175B0741F7E9EDF1E0A6E51C
:100ED000B2E011921D9211E0E13EF107D1F70E94BC
:100EE00047168FE39CE90197F1F700C000000E94CC
:100EF00047168091560280FF0AC080E00E9436119A
:100F00006FEF7FEF80E090E00E94952FFAC680E0BF
:100F100090E00E94712F8C3E9E4F11F00E94C326DC
:100F20000E947713811106C062E070E085E091E0D5
:100F30000E94FE2D82E290E00E94632F813281F4B4
:100F400083E290E00E94632F893051F484E290E0C4
:100F50000E94632F91E0833209F090E0892F01C055
:100F600080E080FFF5C60E947713882311F083E0AC
:100F700001C080E08093330280FD02C080E801C0A0
:100F800080E28093FE020E94B02C6DE070E085E567
:100F900091E00E94071F892B09F043C08091330222
:100FA00063E070E081FD3AC082E591E00E94071F96
:100FB000892BB9F56DE070E082E491E00E94071F93
:100FC000892B79F50E942D26DC01CB01805A9541B1
:100FD000AF4FBF4F8093350290933602A0933702F4
:100FE000B0933802E1E0F3E080E092E0DF018C01B1
:100FF0001D9201501040E1F7F0930805E0930705BA
:101000008FEF9FEF909300038093FF0281E0809326
:101010003A02809339021092340203C08FE491E0C7
:10102000C5CF80E090E00E94712F8C3E9E4F11F062
:101030000E94C32682E090E00E94632F80934802C2
:101040000E94B2269093E4018093E30183E090E054
:101050000E94632F682F70E080E090E00E94B82823
:101060008091E50181113BC080E090E00E94712FEA
:101070008C3E9E4F21F00E94C3260E945F1388E0A1
:1010800090E00E946B2F6093510270935202809304
:101090005302909354028091F50183608093F5018F
:1010A0006E7F71F40E945F1388E090E00E946B2FC6
:1010B00060935102709352028093530290935402B2
:1010C0000E9428120E945A118091510280FF04C090
:1010D00060E086950E94E01581E08093E5018091B3
:1010E0001501811106C086E38093170186E680937F
:1010F000160120911701A22FA295AF70B0E0919632
:101100003C9191972F7081E090E0AC01022E01C0DC
:10111000440F0A94EAF7542F5095352391963C9347
:10112000919792963C919297432B92964C939297DB
:1011300040911601E42FE295EF70F0E031A14F707D
:10114000042E01C0880F0A94EAF7982F90959323F4
:1011500091A392A1892B82A390968C9190E002C0DA
:10116000959587952A95E2F7817020A130E002C01D
:10117000359527954A95E2F720FF02C092E001C01D
:1011800090E0892B8093FA019091150181E09827D6
:101190009093F901891B8093E6018FE191E0909390
:1011A000E8018093E701BE016F5F7F4F7B01CE01B5
:1011B0000B969CA78BA722242394312C8091F902B3
:1011C000853009F03AC08091F902843021F1109203
:1011D000E90120E488E190E00FB6F894A8958093A7
:1011E00060000FBE2093600083B7817F846083BF5F
:1011F00083B7816083BF7894889583B78E7F83BFE0
:101200000FB6F894A8958091600088618093600083
:10121000109260000FBE8091EF02882309F4CECFB8
:101220000E9447168EE592E0E6E5F2E02191211159
:1012300070C58E179F07D1F7C1CF0E944716B82EF1
:101240000E9477138823A1F1E9E4F2E0A6E5B2E079
:1012500000E010E0302F2D919191922721F180E054
:10126000DD24D3944D2D4923D1F089A33AA32D2118
:1012700081E009F480E08BA30E9439268160782FF9
:101280009DA38CA349A15AA16BA18DA10E94990F86
:10129000F801E75BFD4F8081D826D08219C08F5FAF
:1012A000DD0C8630F9F60F5F1F4F0830110591F6FF
:1012B0008FEF8EA38FA318A60E9439268160782F06
:1012C0009AA789A74EA15FA168A58AA50E94990F38
:1012D0008091F401882309F47DC08091F301E091AD
:1012E0005102E695E81BE093EF01823059F4F0E0FB
:1012F000EB59FE4FE4910E2F10E0A5EFCA2EA1E1AD
:10130000DA2E13C0863059F4F0E0EE59FE4FE49126
:101310000E2F10E0F5EECF2EF1E1DF2E06C000ED2E
:1013200017E0EFEBCE2EEEE0DE2E8091F001882369
:1013300089F01092F0010E9439269801209530958D
:10134000820F931F9093EE018093ED011092F201B2
:101350001092F1018091ED019091EE010E941E2604
:1013600080179107B8F18091EC018823B1F01092B9
:10137000EC018091EA019091EB010E941E268033DE
:10138000954758F00E9439269093EB018093EA012B
:101390008091F50188608093F5018090F101909033
:1013A000F201E091ED01F091EE010E0F1F1F10937D
:1013B000EE010093ED018DEE91E0F601099580912B
:1013C000F1019091F201892B29F4892819F081E02B
:1013D0008093EC018091FA01E82FEE0FEE0F8091DF
:1013E0001701A82FA295AF70B0E090962C9130E035
:1013F0008F7002C0359527958A95E2F721703327C3
:1014000080911601A82FA295AF70B0E090964C91F4
:1014100050E08F7002C0559547958A95E2F7CA0152
:101420008170992740FF02C082E090E0822B932BCD
:101430008E2B8093FA011091F9018F70E82FF0E064
:10144000E15AFE4F90818091F801890F8093F80155
:1014500084306CF0E12F012E000CFF0BEA50FE4FA0
:1014600080818F5F808360E0812F0E9423158091AF
:10147000F8018D3F6CF4E12F012E000CFF0BEA50B8
:10148000FE4F80818150808361E0812F0E9423156F
:101490008091F801837887FF03C081508C6F8F5F44
:1014A0008093F80180913A02882309F49CC101E0FD
:1014B00013E010930805009307050E947713882313
:1014C00009F48EC08BE891E00E94E41E85E891E06B
:1014D0000E94E41E6091FA027091FB028091FC026E
:1014E0009091FD020E942627813059F038F0823019
:1014F00069F0833071F485E791E005C081E891E0FF
:1015000002C08DE791E00E94E41E07C089E791E0E8
:10151000FACF8FE691E00E94BE1E8EE691E00E9417
:10152000E41E8AE691E00E94E41E89E691E00E94B2
:10153000E41E0E9420121F928F9325E331E03F9317
:101540002F931F9216E01F936DE072E07F936F93CD
:101550000E9406308DE092E00E94CC1E80915202E3
:101560001F928F93ACE3B1E0BF93AF931F921F9391
:1015700027E032E03F932F930E94063087E092E00D
:101580000E94CC1E809153021F928F9363E471E0FE
:101590007F936F931F921F93A1E0B2E0BF93AF932D
:1015A0000E94063081E092E00E94CC1E809154029D
:1015B0001F928F938AE491E09F938F931F921F93C2
:1015C0008BEF91E09F938F930E9406300FB6F894B3
:1015D000DEBF0FBECDBF8BEF91E00E94CC1E04C0DA
:1015E0008CE891E00E94BE1E2091FF023091000322
:1015F0002115310509F4D7C0809134028111D3C07F
:10160000482E512C6101082E02C0CC0CDD1C0A941E
:10161000E2F7A60142235323452B11F48F5FF0CF4D
:1016200090913302920175E0220F331F7A95E1F712
:1016300090FD12C08295880F807680931A01220F48
:10164000232F221F330B319520931D01815E809340
:101650001B0110921E0112C055E0369527955A9530
:10166000E1F7220F220F220F20931A0110921D0181
:10167000295F20931B0183E080931E0124E630E064
:1016800047E050E068E171E088E70E943D2D892B3A
:1016900009F089C08091330280FD23C0C20145E07A
:1016A000880F991F4A95E1F7AC014F5F5C4F04E644
:1016B00010E020E230E060E488E70E94642D892B8E
:1016C00009F071C00E946D10C094D0948091FF0207
:1016D00090910003C822D922D0920003C092FF0249
:1016E00062C080E2A3E1B2E01D928A95E9F735E09D
:1016F000440C551C3A95E1F7E3E7F1E0FEA7EDA7AE
:101700006FE671E0ADA5BEA58D91BEA7ADA7FB01AB
:101710009191BF01A201490F511D4F5F5C4F90E0B5
:101720008D5E9D4FFC0127E0922E9F01281B390BF7
:10173000722C01C0770C2A95EAF78A01812CD80116
:10174000AD908D01A720292D28192770622E022E19
:10175000000C330BBA2D01C0BB0F6A94EAF76B2E55
:101760003195219531092770332701C0A6942A9518
:10177000EAF76A28A0806A286082839428E08212AF
:10178000DECF9A9431963FEF9312CFCF8DA59EA5D1
:101790008757914009F0B6CF04E610E020E230E030
:1017A00043E152E088CF809139028823E1F00E9422
:1017B0002D2600913502109136022091370230918A
:1017C0003802DC01CB01801B910BA20BB30BB7FDE0
:1017D0000AC062E070E08CEC91E00E94071F892B48
:1017E00011F410923902B1100E946D1086E0E1E40C
:1017F000F2E0D70101900D928A95E1F7C090430283
:10180000D09044020091450210914602109243028A
:10181000109244021092450210924602C11003C079
:10182000DD2009F451C080913F02909140020E9456
:101830001E269C0190913E02992309F496C22333FF
:10184000310508F441C09F3F19F09F5F90933E021D
:10185000CC2061F00E945F251C1414F491E001C0BB
:101860009FEF899F802D112480934302DD2061F03A
:101870000E945F251D1414F491E001C09FEF899F21
:10188000802D112480934402309143023323E1F0F0
:10189000209144022223C1F045EB3403C0011124FE
:1018A000992319F09093430203C081E0809343028F
:1018B00065EB2603C0011124992319F0909344028B
:1018C00003C081E080934402011103C0112309F495
:1018D00051C080913C0290913D020E941E269C01C5
:1018E00090913B02992309F445C22536310508F44D
:1018F00041C09F3F19F09F5F90933B02002361F02E
:101900000E943D25101614F491E001C09FEF899FBD
:10191000802D112480934502112361F00E943D2502
:10192000111614F491E001C09FEF899F802D1124BE
:1019300080934602309145023323E1F02091460224
:101940002223C1F075EB3703C0011124992319F04C
:101950009093450203C081E08093450235EB230359
:10196000C0011124992319F09093460203C081E02D
:10197000809346028091430281110BC08091440202
:10198000811107C080914502811103C080914602F8
:1019900081110E944526CB82DC820D831E8386E066
:1019A000F701A1E4B2E001900D928A95E1F70E945F
:1019B000611090914702891721F00E946110809375
:1019C00047028091F902843009F0F8CB83E08093DC
:1019D000E9008091E80082FFF1CB8091E80085FF6B
:1019E0001FC00E94AB23811119C000E210E0670103
:1019F00008C08091F100D6018D936D01015011094D
:101A000069F08091E80085FDF4CF8091E8008B7744
:101A10008093E8000E94AB23882399F391E001C0F2
:101A200090E08091E8008B778093E800992309F497
:101A3000C5CBE9818E2F90E0FC013197E331F105B0
:101A400008F061C1EA5AFF4F0C94DF2F1A8289E037
:101A50009FC08A81823009F472C1833051F0813095
:101A600009F051C10E942D269B838C837D836E8358
:101A70004CC1FE013396A6E5B2E08D9181930BA592
:101A80001CA5E017F107C9F740C18A81823009F02F
:101A90003AC16B817C818D819E810E94E52F85E218
:101AA00090E024C04C816B818A810E9403119D8348
:101AB0004DC1CD80DE80DC24CD24DC248C810B81E3
:101AC0009A812CE0029F8001112430E6939F000D43
:101AD000111D1124080F111D080F111D6D2DC801B6
:101AE00086960E94772F6C2DC80187960E94772FCB
:101AF0000CC10E94CF1009C18A818138B1F050F425
:101B0000803809F002C120E04B816091530280913E
:101B1000520223C08238E9F0833809F0F6C020E091
:101B2000409154026C818B8118C060E08B810E94CF
:101B3000E0158B81811103C00E940912E6C08091DB
:101B4000510281608093510260E086950E94E01509
:101B5000DCC08B8180935502D8C00E945412D5C03E
:101B60008A81813899F030F4803809F0CEC08091B4
:101B700054020EC0823871F0833809F0C6C08091DB
:101B800052028B83809153028C83BFC00E9420122B
:101B90008B83BBC080915502FBCF60915102709145
:101BA000520280915302909154020E944212ADC0A1
:101BB00080E14DC082E08A838AE5EACF0A811B81F9
:101BC000102701271027AC80B12C6701C8018A5566
:101BD0009E4F96012E193F092A153B0508F095C026
:101BE0000A3542E0140730F40E94632FD6011496A0
:101BF0008C9302C0F60114820F5F1F4FFFEFCF1AC4
:101C0000DF0AE4CF0A811B81102701271027AC804F
:101C1000B12C6701C8018A559E4F96012E193F09C4
:101C20002A153B0508F071C00A3522E0120728F496
:101C3000D60114966C910E94772F0F5F1F4FBFEF54
:101C4000CB1ADB0AE7CF0E94BF105FC084E08A8313
:101C50005CC00A811B81102701271027AC80B12CA2
:101C60006701C801869696012E193F092A153B0582
:101C700008F04BC00038E1E01E0730F40E94632FEB
:101C8000D60114968C9302C0F60114820F5F1F4F89
:101C9000FFEFCF1ADF0AE5CF0A811B81102701274A
:101CA0001027AC80B12C6701C801869696012E19C9
:101CB0003F092A153B0548F5003821E0120728F4B2
:101CC000D60114966C910E94772F0F5F1F4FBFEFC4
:101CD000CB1ADB0AE9CF80E00E9436116FEF7FEF6D
:101CE00080E090E00E94952F10C0C7010E940A2456
:101CF000EFEFF1EE04E0E150F0400040E1F700C00A
:101D000000000E94E7258FEF8983C7010E940A2403
:101D100055CA80E189BD82E189BD09B400FEFDCFCD
:101D20008091D8008F7D8093D8008091E000826000
:101D30008093E0008091E00081FDFCCF3FCA85E206
:101D400090E00E94632F1B821C821D828E83DDCF58
:101D500060E085E290E00E94772F0E94CF100E9401
:101D6000BF1081E00E943611FEC82D32314008F0CC
:101D70006CCDAACD2D32314008F0BDCDFBCD0895FC
:101D8000AF92BF92CF92DF92EF92FF920F931F9389
:101D9000CF93DF93E82EF62EE901E42FF0E06111F6
:101DA00006C0E253FE4FE4914E2F2E2F71C0062F36
:101DB00010E0E253FE4F4491F42FC42ED12C26E0C4
:101DC000829FC00111242FEF30E0B9010E94B72F8C
:101DD0005BEA5603C001579F900D11248E0D911D93
:101DE0008E0D911D582F550F580FD901A01BB10B07
:101DF000AC9DC001AD9D900DBC9D900D1124E92FAF
:101E0000F59ED0011124AB2FBB277901EA1AFB0AFA
:101E1000EC9CD001ED9CB00DFC9CB00D112459013F
:101E2000A51AB108A09E7001A19EF00CB09EF00C06
:101E30001124EF2CFF242E193F092C9D80012D9D8C
:101E4000100D3C9D100D1124212F6230710591F071
:101E500048F461157105E1F061307105B9F4242F82
:101E60004B2F16C06430710569F040F06630710583
:101E700079F00CC0242F492FE12F0AC0492FEF2FF2
:101E80002B2F06C0292FE42F412F02C0292FEB2F23
:101E900049832883EA83DF91CF911F910F91FF90AF
:101EA000EF90DF90CF90BF90AF9008959091E301B5
:101EB00092FF0DC0282F2871283019F4877F846085
:101EC00006C0282F2471243011F48B7F886093FF83
:101ED0000DC0282F2871283119F4877E846106C02F
:101EE000282F2471243111F48B7E88612091E40124
:101EF00020FF0DC0382F3871383019F4877F81608A
:101F000006C0382F3171313011F48E7F886021FF87
:101F10000DC0282F2871283119F4877E816106C0F1
:101F2000282F2171213111F48E7E886194FD877EE6
:101F300008951F93CF93DF93CDB7DEB767970FB6A2
:101F4000F894DEBF0FBECDBF4B8B5C8B6D8B7E8B51
:101F50008F8B86E09E01235F3F4FD901E82F1D92B2
:101F6000EA95E9F795E0FE017396D90101900D928B
:101F70009A95E1F7F901DE01179601900D928A9585
:101F8000E1F7CE0107960E94612981113EC086E0EB
:101F9000FE013796DE01119601900D928A95E1F7C8
:101FA000FF81E8856A857B856115710531F0EF3F1A
:101FB00031F481E0FF3F19F403C081E001C080E00B
:101FC00080FD23C02091170530E0C901019687707C
:101FD00099274091480550E08417950779F1F983D6
:101FE000EA837D836C8396E0929FD001939FB00D2E
:101FF0001124A85EBA4FFE01319601900D929A9578
:10200000E1F7809317050E94C22816E080914805E9
:10201000909117058917F9F0189FC0011124885E67
:102020009A4F0E9461298823B1F08091480590E081
:1020300001968770992780934805E8CF0E942D2B41
:102040001092170510924805E1E1F5E086E0DF0106
:102050001D928A95E9F767960FB6F894DEBF0FBE1A
:10206000CDBFDF91CF911F9108952091DF02309174
:10207000E0022817390771F09093E0028093DF02A5
:10208000E091E701F091E801309721F00084F185BB
:10209000E02D099408952091DD023091DE02281789
:1020A000390771F09093DE028093DD02E091E70141
:1020B000F091E801309721F00680F781E02D099436
:1020C0000895E091E701F091E801309721F0019047
:1020D000F081E02D099480E008950E942D26DC0116
:1020E000CB01805A9541AF4FBF4F809335029093FB
:1020F0003602A0933702B0933802809139028111E1
:102100000BC062E070E083E595E00E94071F892B19
:1021100019F481E080933902809139020895CF93B8
:10212000E82F209107053091080521503340409158
:10213000FE02642F70E0C9010E94B72F481B842F54
:10214000EE2351F066E00E94AB2FC82FC150A8F0DB
:1021500080E20E943E1EFACFA901480F511D411591
:10216000524018F080E020E030E0280F311D2F5F52
:102170003C4F3093080520930705CF910895CF93E6
:10218000DF93C6EAD1E060E0CE010E94772F21966E
:10219000C11584E0D807B9F7DF91CF910895CF92A8
:1021A000DF92EF92FF920F931F93CF93DF93C0E0E4
:1021B000D0E08E01005A1F4F6E018CE0C80ED11C7A
:1021C000FE01ED52FC4FE590F4906F2DCE01869606
:1021D0000E94772F6E2DCE0187960E94772F229630
:1021E000CC15DD0569F70C171D0731F7E80100383C
:1021F0001140F9F6DF91CF911F910F91FF90EF9071
:10220000DF90CF9008950F931F93CF93DF93C42F48
:10221000D0E0CC0FDD1F2CE0629FC00DD11D11243A
:1022200030E6839FC00DD11D1124CE0186960E94F9
:10223000632F082F10E0102F0027CE0187960E94F1
:10224000632F9801282BC901DF91CF911F910F9126
:102250000895462F843038F4783028F4663018F426
:10226000672F0C94031180E090E00895CF93C82F5E
:10227000811102C06FEF01C061E282E290E00E9432
:10228000772FC11102C06FEF01C069E083E290E0D7
:102290000E94772FC11102C06FEF01C063E284E298
:1022A00090E0CF910C94772F882311F0FA0101C0B0
:1022B000FB010994E3EFF1E0118282818460828363
:1022C0000895309101018091510280FF16C0E09184
:1022D000000163E0E69FF0011124ED59FD4F539A90
:1022E0008BB1877F9BB198602FB7F894AF0163E003
:1022F000369F400D511D112414C080910201909110
:102300000301891720F7E82FF0E0AF01440F551FB4
:10231000E40FF51FED59FD4F1182108212828F5F7D
:10232000F0CFE417F50789F0319168E09BB9000020
:1023300000C037FF8BB9330F000000C000C000C0E1
:102340008BB900C06A9591F7ECCF2FBF8FE594E071
:102350000197F1F700C0000008959091510290FF9D
:1023600016C09091020120910301921770F4E92F99
:10237000F0E0DF01AA0FBB1FEA0FFB1FED59FD4F75
:102380008183608342839F5FF0CF0C946111089535
:10239000CF93DF9300D01F92CDB7DEB7909151025B
:1023A00090FF0DC0413708F040E79E012F5F3F4F7F
:1023B0000E94C00E4B8169818A810E94AD110F90ED
:1023C0000F900F90DF91CF910895CF93DF93EC01A1
:1023D000E1E5F2E0438162818C810E94C8118C8129
:1023E0008F5F8C83DF91CF910895CF93DF93EC01C2
:1023F000EC81F0E0ED52FD4F4491E1E5F2E06281C5
:1024000081810E94C8118C818F5F8C83DF91CF9175
:102410000895E1E5F2E080818E7F80830E945A1169
:10242000E3EFF1E08281816082832FEF80E792E029
:10243000215080409040E1F700C000000C946111F1
:102440008091510280FF02C08695089580E0089532
:1024500080915102282F269530E02115310519F47D
:102460008170826005C02331310524F0817084625F
:102470008093510280915402813718F080E7809355
:1024800054020895CF92DF92EF92FF926B017C018C
:102490000E942812B701A60188E090E0FF90EF901B
:1024A000DF90CF900C94892FAF92BF92CF92DF92A2
:1024B000EF92FF920F931F93CF93DF9300D01F9261
:1024C000CDB7DEB7082FF62E142FE22E80915102E1
:1024D00080FF83C0E82FE695AE2FB0E0A958BE4F2D
:1024E0009C919093F3018E7F823081F4413708F004
:1024F00040E79E012F5F3F4F6F2D802F0E94C00E3F
:102500004B8169818A810E94AD1144C0923019F4D7
:10251000109154023FC0963019F4009152023AC013
:102520009930C1F5E9508E2F8170D82EE695F0E0F4
:10253000E253FD4FA590B490C12CBB2460910401DF
:10254000C61630F52C2D30E0A29EC001A39E900D42
:10255000B29E900D112470E00E94B72F802FD110F1
:1025600002C0860F01C0861B90910201290F311D08
:10257000A901440F551F240F351F2D593D4F412FE1
:10258000113708F040E76F2D0E94C00EC394D6CFDC
:102590000E94611180915202081308C08091530279
:1025A000F81204C080915402181729F08091F501A7
:1025B00082608093F50100935202F09253021093CF
:1025C0005402EE2051F060915102709152028091BC
:1025D0005302909154020E9442120F900F900F905C
:1025E000DF91CF911F910F91FF90EF90DF90CF90EF
:1025F000BF90AF900895E1E5F2E0438121E1421BF5
:1026000008F440E021E0628181810C945412E1E5FC
:10261000F2E0438121E1420F08F44FEF21E06281B3
:1026200081810C945412E1E5F2E0628121E1621BA8
:1026300008F460E021E0438181810C945412E1E5CB
:10264000F2E0628121E1620F08F46FEF21E0438143
:1026500081810C945412E1E5F2E0818121E0438113
:10266000628188500C945412E1E5F2E0818121E00E
:1026700043816281885F0C945412809155028823B3
:1026800019F081508093550260915102709152026D
:1026900080915302909154020C9442128091550201
:1026A000833018F48F5F80935502609151027091CE
:1026B000520280915302909154020C944212E1E52F
:1026C000F2E083E0808311828FEF828380E783834F
:1026D0001482A3EFB1E012968C9112978360129648
:1026E0008C9360817181828193810C9442128091DC
:1026F0006202811112C08091D80080618093D8005D
:102700008AE18A95F1F700C08091D90080FD02C06E
:1027100082E001C081E08093620281E090916202D8
:10272000913009F080E00895CF93DF930E94291142
:10273000EC018238910559F1A0F48133910509F437
:1027400073C040F48932910509F467C08A9709F48F
:1027500072C084C08533910509F458C0C997B9F097
:102760007DC0833E910571F138F4803E9105B1F052
:10277000823E910511F172C0863E9105B9F1873E06
:102780009105C9F1843E910509F068C024C080918B
:10279000E30180FD5DC081FD5BC060C08091E3010D
:1027A00080FD50C08091E40180FF49C18091E30128
:1027B00084FD43C1C3EED0E042C18091E30182FFBA
:1027C0003EC1F4CF8091E30182FD3FC08091E401DE
:1027D00080FD3EC0EBCF8091E40181FF30C180914C
:1027E000E30184FD2AC1C7EED0E029C18091E30155
:1027F00083FF25C1F4CF8091E30183FD2CC080913C
:10280000E40181FFECCFC4EED0E019C18091E30177
:1028100085FF15C1C9E2D0E012C18091E30185FFB7
:102820000EC1C5E3D0E00BC18091E30186FF07C173
:10283000CAE2D0E004C18091E30186FF00C1C1E398
:10284000D0E0FDC0C9E3D0E0FAC0C2EED0E0F7C0EE
:10285000C0EED0E0F4C0C6EED0E0F1C0C11581E515
:10286000D80708F066C0C11520E5D207E0F0CE0118
:1028700074E0969587957A95E1F783709C2F937015
:1028800021E030E002C0220F331F9A95E2F73C6846
:10289000382BCF70C695C69540E2C49FE001112445
:1028A000C22BD32BCCC0C83ED10560F5C03ED105AC
:1028B00008F0C5C0C83AD105B0F4C53AD10540F01A
:1028C000C55AD0E0C756DE4FC881D0E0D064B7C04B
:1028D000C130D10509F4B3C008F4AFC0C430D1058C
:1028E00008F4ABC0ACC0CF3BD10508F0A6C0C85AB5
:1028F000D0E0CC0FDD1FC456DE4F0990D881C02D2B
:10290000D4649DC0C11540E2D40758F4C11581E0DC
:10291000D80708F094C0C03FD10508F48EC0D06538
:102920008EC0C11520E4D20708F487C0DF70D06ADA
:1029300086C0C11545E5D40708F042C0C11584E53D
:10294000D80728F0DC2FCC27C46FD06A78C0C11517
:1029500023E5D207B0F0CE018370992721E030E063
:1029600002C0220F331F8A95E2F78C2F8695869539
:1029700040E2849FC0011124E901C82BD92BDA68F9
:102980005EC0C11542E5D40728F4DC2FCC27C16F07
:10299000D06A55C0CE018370992721E030E002C093
:1029A000220F331F8A95E2F78C2F8695869540E299
:1029B000849FC0011124E901C82BD92BDC683FC0DA
:1029C000C11589E5D807B8F4C11528E5D20728F064
:1029D000DC2FCC27C06FD06A32C0C11546E5D407C2
:1029E00060F58C2F0E94560F8F71C82FD0E0DC2F1E
:1029F000CC27D06224C0C1158AE5D80780F48C2F7B
:102A00008F700E94560F94E0D695C7959A95E1F77E
:102A1000CF70D0E0DC2FCC27D069C82B10C0CE01FE
:102A200090568115904248F48D2F8F710E94560F59
:102A3000DD27D0628F71D82B02C0C0E0D0E0CE017C
:102A4000DF91CF910895262F811113C06091FA0272
:102A50007091FB028091FC029091FD02211104C053
:102A60000E94262740E003C00E94262741E063E041
:102A700014C08130B1F46091FA027091FB02809130
:102A8000FC029091FD02211104C00E94262744E01F
:102A900003C00E94262745E067E00E9403110C94C2
:102AA000EB2B08950F931F93CF93DF93C42FD22F57
:102AB000FC0182818823C9F04093E1020E943926FB
:102AC0009093DC028093DB0280E28C0F883008F068
:102AD00057C0C77081E001C0880FCA95EAF7DF913F
:102AE000CF911F910F910C94432B8091E1024813D9
:102AF00030C08091DB029091DC020E941E26883C4F
:102B0000910538F510E21D0FCD17B9F080E28C0F5A
:102B1000883040F4C77081E001C0880FCA95EAF799
:102B20000E94382B183028F581E09D2F977001C046
:102B3000880F9A95EAF70E94432B802F0E94EB2B77
:102B40001830F0F4D77081E001C0880FDA95EAF709
:102B50000AC080E28C0F883098F4C77081E001C011
:102B6000880FCA95EAF7DF91CF911F910F910C94CE
:102B7000382B802FDF91CF911F910F910C94EB2B6D
:102B8000DF91CF911F910F91089560915102669549
:102B900070E04BE050E089E291E00E94EC2F892B3D
:102BA00019F481E08093F4010E9439269093EE019C
:102BB0008093ED018091F50184608093F501089583
:102BC0009091510290FF3BC09170811102C09260C0
:102BD00006C0833110F0946202C0880F982B909346
:102BE00051028091F50181608093F501662351F0D7
:102BF000609151027091520280915302909154025F
:102C00000E94421260915102669570E04BE050E0E4
:102C100089E291E00E94EC2F892B19F00E945A1151
:102C200002C00E94C51581E08093F00120E0409130
:102C3000540260915302809152020C9454120895F0
:102C4000809151028695815009F482E161E00C94F3
:102C5000E0158091510286958F5F833108F081E005
:102C600061E00C94E015CF93DF93C82FD62F0E941C
:102C700020128C1730F08D1720F4DF91CF910C9437
:102C8000291661E08C2FDF91CF910C94E0156F92A3
:102C90007F928F929F92AF92BF92CF92DF92EF92EC
:102CA000FF920F931F93CF93DF9361E571E009EDDE
:102CB00011E02DEDA22E21E0B22E3801C0E0EE246D
:102CC000E394F12CDB018D91BD01E82FE295EF70CB
:102CD000F0E021A18F70A70102C0440F551F8A9513
:102CE000E2F7CA01242B21A322A1942E909429213A
:102CF00022A350EA5A95F1F799E5C92E91E0D92E11
:102D000040E050E0D0E0D6018D906D01282D229555
:102D10002F7030E0D90190962C9130E0B82DBF7023
:102D200002C035952795BA95E2F720FD07C02E2DF4
:102D3000042E01C0220F0A94EAF701C020E0D22B32
:102D40004F5F5F4F46305105F1F691A1992291A254
:102D500092A1892B82A3F3018081D81719F0D08327
:102D600081E001C080E0C82BFFEF6F1A7F0A2DEDD4
:102D7000621621E0720609F0A5CFF090E201CC23A3
:102D800049F081E0809360020E94392690935F02AF
:102D900080935E02809160028823A9F080915E0298
:102DA00090915F020E941E26069768F0EF2DF0E0DA
:102DB000EA5AFD4FD8018D918D018193AA16BB0669
:102DC000C9F7109260020E947713882309F463C048
:102DD0001091E1018091F5018823E9F085E0E1E5BA
:102DE000F2E0AAECB1E001900D928A95E1F78091B2
:102DF000F3019091F401A091F5018093CF0190939C
:102E0000D001A093D10181E090E00E94D72E892BC0
:102E100011F41092F50180E090E00E94D72E892BEA
:102E200009F094C0E12FF0E0EA5AFD4F80E090E015
:102E3000DC01AD52BE4F2C91219301968430910557
:102E4000B9F7D091E6018D2F90E0FC01EA50FE4FDA
:102E50007F011091D7018081181B012F101654F4A7
:102E60000150D7018C918F5F8C9360E08D2F0E9471
:102E70002315F4CF812F17FD80E0181B112309F4CF
:102E800062C01F5FF70180818150808361E08D2FD8
:102E90000E942315F3CFE091E2010E2F10E0809104
:102EA000D2018830C9F58091D10180FF12C0809194
:102EB000CA0180FF0CC08091510281608093510251
:102EC0008091CA0160E086950E94E01502C00E94D0
:102ED00009128091D10181FF09C020E04091CD010C
:102EE0006091CC018091CB010E9454128091D1015C
:102EF00082FF09C08091D001882319F00E94C51576
:102F000002C00E945A118091D10183FF03C081E069
:102F10008093F0011092D201F801EA5AFD4F80E04F
:102F200090E02191DC01AD52BE4F2C93019684308C
:102F30009105B9F7E091F901F0E0EA50FE4F808188
:102F40008093D70113C01092610210C0809161027A
:102F50008F5F80936102863048F0E091E101F0E0FC
:102F6000EA5AFD4F10821182128213828C2FDF9158
:102F7000CF911F910F91FF90EF90DF90CF90BF9076
:102F8000AF909F908F907F906F9008955F926F9217
:102F90007F928F929F92AF92BF92CF92DF92EF92E9
:102FA000FF920F931F93CF93DF93CDB7DEB729978F
:102FB0000FB6F894DEBF0FBECDBFFC0180819181BA
:102FC00023813481232B31F09F3F31F491E08F3FF7
:102FD00019F403C091E001C090E090FD39C67F0173
:102FE00085E0DE01119601900D928A95E1F7F701D7
:102FF000228189819A81222349F00E94A927182FD2
:10300000682F89819A810E94232803C00E94F62795
:10301000182F69817A81812F0E9429118C01F70173
:103020009281992309F4DFC0980122513F45203154
:10303000310508F004C18FEF93E00E94632F8111E6
:10304000DCC0025136EA832E99249394002379F050
:103050008114F4E09F0609F4D0C0C4010E94632FDC
:10306000811101C001501FEF811A910AEFCF1E821A
:103070001F8218861986662463942AE0522E8401E2
:103080000F5F1F4FC4010E94632F8E831F8288230E
:1030900009F4B3C09FEF980F933060F48F836E8272
:1030A00022E0820E911CC8010E94632F8887811143
:1030B00002C0A3C048018E010A5F1F4FF8012081A2
:1030C0002223E9F2213009F04CC08181813049F49A
:1030D0006801F2E0CF0ED11CF80182810E94EB2B37
:1030E0000AC0823051F46801F2E0CF0ED11CF80121
:1030F00082810E948C2B860173C0833049F4680161
:10310000F2E0CF0ED11CF80182810E944D2BF3CF4B
:10311000843019F00F5F1F4F63C0F80122810E5FEA
:103120001F4F80E090E030E0205331092A30310514
:1031300068F4589EA001599E500D1124C901840FB6
:10314000951F0F5F1F4FF8012081EDCF009709F405
:1031500047C0EFE9FFE03197F1F700C000000197A9
:10316000F5CFE22FF0E0EB58FA4F7490822F86955E
:103170008695869590E0FC01EB59FA4FA490277054
:10318000B12C022E02C0B594A7940A94E2F7F1E0A4
:10319000AF22BB24FC01EB5AFA4FC490D12C02C0E1
:1031A000D594C7942A95E2F721E0C222DD24A11428
:1031B000B10419F081EE0E948C2BC114D10419F0D6
:1031C00086EE0E948C2B872D0E94EB2BCD2819F0C8
:1031D00086EE0E944D2BAB2819F081EE0E944D2BFC
:1031E0000F5F1F4F6BCF00313FE5130709F0B5C4E8
:1031F00081E00E9459280E94E91E8091670587702E
:1032000009F426C5F7018281882309F421C582E0EB
:1032100029960FB6F894DEBF0FBECDBFDF91CF91D8
:103220001F910F91FF90EF90DF90CF90BF90AF90E4
:103230009F908F907F906F905F900C947E280031CC
:10324000FFE51F0711F481E005C001312FE51207EA
:1032500021F482E00E949728CECF033FFCE51F07B0
:1032600049F406E221EE40EE63EF7CE5C7010E94DF
:103270005215C3CF043F2CE5120708F04AC1083DA0
:103280003CE5130731F407E225EE45EE68ED7CE5F9
:10329000EDCF093D8CE5180731F408E221E045EE59
:1032A00069ED7CE5E3CF073DECE51E0731F406E26E
:1032B00021EE41EE67ED7CE5D9CF992309F45EC19B
:1032C0001092E10202303CE5130708F441C10631D7
:1032D0008CE5180738F098012A5F3C452930310504
:1032E00008F036C10E94B2269093E4018093E30176
:1032F00000319CE5190709F4C3C008F041C008304B
:10330000FCE51F0709F49AC0F0F404303CE513070C
:1033100009F487C068F402309CE5190709F477C006
:1033200003301C4509F0E5C08091E301826076C05E
:103330000630FCE51F0709F46EC008F07BC08091E1
:10334000E30188606BC00C303CE5130709F485C0CD
:1033500068F40A309CE5190709F474C008F079C0D4
:103360000E942D2B8091E301806858C00E30FCE54F
:103370001F0709F476C008F07FC08091E3018BC07D
:103380000B3F3CE5130709F44FC018F503319CE5EA
:10339000190709F47DC078F40131FCE51F0709F431
:1033A00073C002311C4509F0A4C00E942D2B8091EE
:1033B000E3018F7733C005313CE5130709F472C090
:1033C00008F486C00A3F1C4509F093C08091E401CF
:1033D0003EC00F3FECE51E0709F45FC058F40D3FF7
:1033E0002CE5120709F444C008F43FC08091E401C1
:1033F00082602DC001308DE5180709F475C008F40E
:103400005DC002301D4509F074C060E06EC080915F
:10341000E301816003C08091E30180618093E30157
:1034200068C08091E30111C08091E40182608093C3
:10343000E4015FC08091E3018062F0CF8091E301FD
:103440008064ECCF8091E30188608460E7CF816085
:10345000EECF8091E3018E7FE1CF8091E3018D7FFC
:10346000DDCF8091E301877FD9CF8091E40118C03F
:103470008091E4018D7FDBCF8091E3018F7ECECF01
:103480008091E3018F7DCACF8091E3018F7BC6CF0E
:103490008091E301877F8B7FC1CF8091E4018D7F95
:1034A0008E7FC5CF8091E30182FB222720F991E036
:1034B000922790FB82F990FB83F9B0CF8091E401D1
:1034C000982F909591708E7F892B90FB81F9AFCFCB
:1034D0000E942D2B8091E30187FB222720F991E0A8
:1034E000922790FB87F99ACF61E08EE090E00E94EE
:1034F000772F6091E3011091E40184E090E00E9455
:10350000772F612F81E290E00E94772F0E942D2B70
:1035100074CE053FFCE51F0731F406E221EE42EED2
:1035200065EF7CE5A3CE053F2CE5120730F407E2FA
:1035300025EE44EE64EF7CE599CE063F3CE51307AB
:1035400009F0BBCE07E225EE46EE66EF7CE58ECEB7
:1035500006318CE5180751F580916A058A7A91E069
:1035600009F490E09093E202882311F065E301C032
:1035700069E289E095E00E94982615C00631ECE5E5
:103580001E0759F58091E202882309F4EDC285E314
:10359000E9E0F5E09281891301C01282319605E0DD
:1035A000EF30F007B9F70E947C2727CE01158CE594
:1035B000180731F00E3D1C45D1F40E94C3261DCEE4
:1035C0000E942D2BFFEF04E31CE0F150004010405F
:1035D000E1F700C000000E94E72580916A05827231
:1035E000F801E25CFC45E431F10508F4BFC2F701E3
:1035F00000811181992349F0C8010E94A927D82E82
:10360000682FC8010E94232804C0C8010E94F62721
:10361000D82EB8018D2D0E9494138C01982EF7019D
:10362000A580A2949FE0A922D280D11010926905B2
:1036300080916705877099F0DD2089F0812F807F68
:10364000803421F080E2800F883048F082E00E94D0
:103650007E28809167058770CC24C3948111C12C8A
:10366000B12EB2948FE0B8228B2D90E08C30910572
:1036700008F040C2FC01E759FF4F0C94DF2F812F67
:10368000807F1F70882311F01295107FDD20B9F024
:10369000112309F41AC280E2800F883010F09110D3
:1036A00006C080916A05182B10936A0505C08091A9
:1036B0006905182B109369050E947C2706C2802F8C
:1036C0000E944D2B112309F415C2005E109508309D
:1036D00010F0911006C080916A05182310936A05B6
:1036E00005C0809169051823109369050E947C2705
:1036F00001C2812F807F1F70803211F01295107FE0
:10370000992021F0F1E09F16E1F02AC0DD2081F040
:1037100080916B05AA2051F001E0A01207C0182B80
:10372000181709F4E7C110936B05E4C1812B10C091
:10373000AA2021F021E0A21609F4DCC10E9476271C
:1037400027C0DD2041F035E03A1508F4D3C1812FC0
:103750000E94432BCFC184E08A1508F4CBC118C066
:10376000DD2049F0AA2099F3F701858180FFADC1E2
:103770008F708583ECCFAA2059F0093309F0B7C1C7
:10378000FFEF17EE23E0F15010402040E1F7ADC10C
:10379000812F0E94382BAEC1812F8695869583702C
:1037A00019F0813059F0A6C1DD2019F0C8019370DD
:1037B00002C080E090E00E944B10A2C1DD2019F011
:1037C000C801937002C080E090E00E94351098C15B
:1037D000802FDD2019F00E947F2502C00E94B824AE
:1037E0000E9445268DC1812F837009F069C0D110D8
:1037F00085C1902F929596959770990F990F802F6C
:103800008F70882E912CA12CB12C092E04C0880C0D
:10381000991CAA1CBB1C0A94D2F704FF12C04FE0EB
:1038200050E060E070E004C0440F551F661F771F32
:103830009A95D2F7DB01CA0180959095A095B09535
:1038400003C080E090E0DC0116951695412F43708F
:10385000423019F1C8F400916C0510916D0520916A
:103860006E0530916F05413059F088299929AA29B0
:10387000BB29BC01CD0160237123822393230AC09D
:10388000802A912AA22AB32ABC01CD01682979296C
:103890008A299B290E94B82831C188299929AA29F7
:1038A000BB2900916C0510916D0520916E0530913A
:1038B0006F05BC01CD016027712782279327EACFCE
:1038C000DD2019F0812F817001C08695882309F4CD
:1038D00015C1902F929596959770990F990F802FFB
:1038E0008F70882E912CA12CB12C092E04C0880C2D
:1038F000991CAA1CBB1C0A94D2F704FF12C04FE00B
:1039000050E060E070E004C0440F551F661F771F51
:103910009A95D2F7DB01CA0180959095A095B09554
:1039200003C080E090E0DC0116951695412F4370AE
:103930004230D9F068F50091FA021091FB02209113
:10394000FC023091FD02413059F088299929AA29B9
:10395000BB29BC01CD0160237123822393231EC0A8
:10396000802A912AA22AB32A13C088299929AA2930
:10397000BB290091FA021091FB022091FC023091C8
:10398000FD02BC01CD01602771278227932706C065
:10399000BC01CD01682979298A299B290E944F28D9
:1039A000ADC01F70DD2039F0812F0E949728802F35
:1039B0000E94432BA3C0802F0E94382B812F0E948E
:1039C00059289CC0802F32EF931609F440C0391556
:1039D00038F090EF991661F0E1EF9E1699F170C002
:1039E000F3EF9F16D9F124EF921609F44EC068C088
:1039F000DD2019F134E03A1508F47CC01F7181E034
:103A000090E0A0E0B0E0AC01BD0104C0440F551F40
:103A1000661F771F1A95D2F78091FA029091FB02E8
:103A2000A091FC02B091FD028A019B010827192791
:103A30002A273B27C901B80125C025E02A1508F42B
:103A400059C0DCCFDD2029F0812F8F712CC0DD2003
:103A5000D9F3812F8F710E9459284CC0DD2079F055
:103A60001F7181E090E0A0E0B0E0BC01CD0104C096
:103A7000660F771F881F991F1A95D2F703C060E061
:103A800070E0CB010E944F2835C0DD2079F01F7116
:103A9000812F0E94972838E0139FC0011124836072
:103AA00080936705812F0E94972824C081E00E949F
:103AB0007E2881E08A15F0F482E00E947E281AC0F8
:103AC000DD2039F0AA2009F4BFCF802F0E948C2B73
:103AD00011C0AA2009F4BDCF893349F49FEFE7EE66
:103AE000F3E09150E040F040E1F700C00000802F8B
:103AF0000E944D2B88EF8B0D843010F40E946110D2
:103B0000CC2009F4A5C08091670580FDA1C0F70114
:103B100012828595859585950E949728C7010E94F8
:103B2000C6178091670585958595859529960FB669
:103B3000F894DEBF0FBECDBFDF91CF911F910F91E3
:103B4000FF90EF90DF90CF90BF90AF909F908F90BD
:103B50007F906F905F900C94592801318FE5180782
:103B600009F07BCB82E045CB89E212CDEB58FF4FC9
:103B70000C94DF2F8091510280FF20C08E7F8093B4
:103B800051026091510270915202809153029091C2
:103B900054020E9442120E945A118091F5018160E4
:103BA0008093F5011FEF20E732E0115020403040B4
:103BB000E1F700C000000E9461111FCB816080937B
:103BC000510261E0869536C040E256E169E276E155
:103BD0002CC049E256E160E276E127C04BE253E1B6
:103BE00064E373E122C044E353E16BE273E11DC07F
:103BF00043E153E16FE173E118C04FE153E163E149
:103C000073E113C04BEF52E167E073E10EC047E090
:103C100053E16BEF72E109C04DE353E16EE473E1F0
:103C200004C04EE453E16DE373E10E945411E5CA10
:103C300061E081E00E94E015E0CA65E082E005C035
:103C400068E086E002C062E189E00E943316D5CACE
:103C500029960FB6F894DEBF0FBECDBFDF91CF918E
:103C60001F910F91FF90EF90DF90CF90BF90AF909A
:103C70009F908F907F906F905F900895CF93DF9388
:103C80008A3011F481E003C08D3029F480E0DF91A7
:103C9000CF910C948F10682F8091070590910805A3
:103CA00026E0FC01A1E0B5E001900D922A95E1F734
:103CB000603E30F026E0FC0111922A95E9F70AC037
:103CC000F6E06F9FB00111246159784F46E050E053
:103CD0000E945A2FC0910705D091080546E050E098
:103CE000BE0181E095E00E94F92F892B49F19E01E8
:103CF00021503340A90185E0569547958A95E1F713
:103D000081E090E0BC0102C0660F771F4A95E2F7A0
:103D10004091FF0250910003462B572B2A5F3F4FE3
:103D200065E0369527956A95E1F702C0880F991FDF
:103D30002A95E2F7842B952B909300038093FF0242
:103D40009E012B5F32404091FE02642F70E0C9015A
:103D50000E94B72F481B463010F4240F311D211547
:103D600082E0380710F020E030E02F5F3C4F3093C6
:103D7000080520930705DF91CF910895CF93DF9336
:103D8000EC01FE018491882321F00E943E1E2196C1
:103D9000F8CFDF91CF9108950F931F93CF93DF93C7
:103DA000EC01FC0101900020E9F78F01015011099D
:103DB000C017D10720F489910E943E1EF9CFDF91F0
:103DC000CF911F910F9108950E94BE1E81E00C9427
:103DD0008F100F931F938091FA029091FB02A09194
:103DE000FC02B091FD028C019D0106701127222773
:103DF0003327BC01CD01063011052105310511F431
:103E0000686001C0677F1F910F910C944F28EF925B
:103E1000FF920F931F93CF93DF93EC017B0164E636
:103E200070E088E70E94B62C8C01EC0EFD1ECE15CA
:103E3000DF0561F017FD0AC0FE01849164E670E0C1
:103E40000E940D2D8C012196892B89F30E94912DC2
:103E5000C801DF91CF911F910F91FF90EF900895CE
:103E60001F93CF93DF93CDB7DEB7AA970FB6F89421
:103E7000DEBF0FBECDBFE1EFF2E08091F100819394
:103E800042E0E93FF407C9F78091F202833009F478
:103E900062C030F4813071F0823009F49CC0B3C04C
:103EA0008A3009F488C08B3009F46DC0893009F07C
:103EB000AAC020C08091F102813A09F0A4C080918B
:103EC000E800877F8093E8008091F5029091F602E8
:103ED000892B21F468E086EE92E003C060E080E088
:103EE00090E070E00E94522C8091E8008B778093E4
:103EF000E80089C08091F102813209F084C080918C
:103F0000F5029091F602009719F0029709F07BC034
:103F10008091E800877F8093E8008091E80082FD2F
:103F200005C08091F9028111F8CF6DC02091F30096
:103F30008091F20090E0922B029729F48091F10099
:103F40008B7F813021F48091F1008093E502809194
:103F5000E8008B7754C08091F102813A09F053C098
:103F60008091F5029091F602892B09F04CC0809166
:103F7000E800877F8093E8008091E80080FFFCCF15
:103F80008091340137C08091F1028132E1F5809156
:103F9000F5029091F602892BB1F58091E800877FB8
:103FA0008093E8000E94FE2B8091F30280933401FD
:103FB0000E942D2B28C08091F102813221F5809141
:103FC000E800877F8093E8000E94FE2B8091F40236
:103FD0008093E40218C08091F102813AA1F48091AB
:103FE000E800877F8093E8008091E80080FFFCCFA5
:103FF0008091E4028093F1008091E8008E778093B5
:10400000E8000E94FE2B8091E80083FFE9C18091C7
:10401000F1029091F202492F50E04A30510508F028
:10402000DFC1FA01E757FF4F0C94DF2F803821F0F2
:10403000823809F0D5C108C08091EE029091EF025C
:10404000992389F082600FC08091F5028F708730CC
:1040500008F0C6C18093E9008091EB0085FB8827BA
:1040600080F91092E9009091E800977F9093E80022
:104070008093F1001092F1007CC1282F2D7F09F070
:10408000AFC1882319F0823061F0AAC18091F30298
:10409000813009F0A5C1933009F080E08093EF02F0
:1040A0002EC08091F30281112AC08091F5028F7099
:1040B0002FEF280F263008F093C18093E90020915C
:1040C000EB0020FF1CC0933021F48091EB00806254
:1040D00014C09091EB0090619093EB0021E030E0F0
:1040E000A90102C0440F551F8A95E2F74093EA00E8
:1040F0001092EA008091EB0088608093EB001092B0
:10410000E9008091E800877F8093E8000E94FE2B01
:1041100067C1811165C11091F3021F778091E3009F
:104120008078812B8093E3008091E800877F8093E3
:10413000E8000E94FE2B8091E80080FFFCCF809178
:10414000E30080688093E300111102C082E001C0A7
:1041500083E08093F90244C18058823008F040C166
:104160002091F3023091F4022C3D53E0350779F5AC
:1041700083E08A838AE289834FB7F894DE0113963D
:1041800020E03EE051E2E32FF0E050935700E4914D
:1041900020FF03C0E295EF703F5FEF708E2F90E03D
:1041A000EA3010F0C79601C0C0968D939D932F5FA3
:1041B000243149F74FBF8091E800877F8093E80062
:1041C0006AE270E0CE0101960E94522CC0C080913C
:1041D000F5029091F602432F552743305105B1F077
:1041E00068F44130510509F40AC14230510509F023
:1041F000F7C08BE590E0E8EDF6E057C0413251059D
:1042000089F14232510509F43CC0EAC0C90199273D
:1042100081309105B9F070F082309105D9F00397A3
:1042200009F0DEC0E5E4F7E0E4918E2F90E0E5E4EC
:10423000F7E038C0EBE6F7E0E4918E2F90E0EBE694
:10424000F7E030C0E7E5F7E0E4918E2F90E0E7E596
:10425000F7E028C0EBE4F7E0E4918E2F90E0EBE488
:10426000F7E020C08330910508F0BAC0880F991F8D
:10427000FC01ED56FE4F0190F081E02D89E090E0C9
:1042800014C08330910508F0ABC0FC01EE0FFF1F96
:10429000E357FE4F0190F081E02DDC01A657BE4FA1
:1042A0008C9190E0009709F49BC02091E800277F53
:1042B0002093E8002091F7023091F802281739077F
:1042C00008F4C90140E0009789F12091F902222306
:1042D00009F43DC02530D9F12091E80023FD37C015
:1042E0002091E80022FD2FC02091E80020FFEBCFB5
:1042F0004091F3002091F20030E0342B009759F008
:104300002830310540F444914093F10031960197F3
:104310002F5F3F4FF3CF41E02830310509F040E0F7
:104320002091E8002E772093E800CDCF4111CDCF2A
:104330000AC08091F902882351F0853041F08091C4
:10434000E80083FD04C08091E80082FFF2CF8091F5
:10435000E8008B778093E80043C0803809F040C0C4
:104360008091E800877F8093E8008091F00280933D
:10437000F1008091E8008E77C7CE811131C0809125
:10438000F3029091F4029927029754F58091E80086
:10439000877F8093E8001091F3021093F0020E944F
:1043A000FE2B111106C08091E30087FD02C081E061
:1043B00001C084E08093F90242E061EC81E00E9458
:1043C0001D2C42E261EC84E00E941D2C42E261EC73
:1043D00082E00E941D2C42E260EC83E00E941D2CD2
:1043E0008091E80083FF10C08091E800877F809370
:1043F000E8008091EB0080628093EB0005C082E1D1
:1044000090E0E3E3F7E051CFAA960FB6F894DEBF51
:104410000FBECDBFDF91CF911F9108951F920F92D4
:104420000FB60F9211242F933F934F935F936F9387
:104430007F938F939F93AF93BF93CF93DF93EF932C
:10444000FF93C091E900CF708091EC00D82FD1701C
:1044500080FDD0E81092E9008091F000877F809382
:10446000F00078940E94301F1092E9008091F000D3
:1044700088608093F000CD2BCF70C093E900FF914E
:10448000EF91DF91CF91BF91AF919F918F917F91EC
:104490006F915F914F913F912F910F900FBE0F90B1
:1044A0001F901895E8EDF0E080818E7F8083109258
:1044B000E2001092DA001092E100A0EEB0E08C91E0
:1044C00081608C9380818F77808319BCA7EDB0E0E9
:1044D0008C918E7F8C9380818F7E80831092E302FB
:1044E0000895CF92DF92EF92FF920F931F93CF9395
:1044F000DF93C8EDD0E088818F7E8883E7EDF0E020
:1045000080818160808384E082BF81E08093E302C8
:1045100088818E7F888302EE10E0F801108210926D
:10452000DA0081EEC82ED12CF601108288818F77B7
:10453000888388818068888388818F7D888319BC7F
:104540001092F9021092F0021092EF021092EE0215
:1045500090EEE92EF12CF70180818B7F808388819A
:104560008160888342E060E080E00E941D2CF601BB
:1045700080818E7F8083F80180818160808380814B
:1045800088608083F70180818E7F8083888180614D
:104590008883DF91CF911F910F91FF90EF90DF9073
:1045A000CF9008951F920F920FB60F9211242F9360
:1045B0003F934F935F936F937F938F939F93AF93AB
:1045C000BF93EF93FF938091E10082FF09C0809138
:1045D000E20082FF05C08091E1008B7F8093E100C3
:1045E0008091DA0080FF2AC08091D80080FF26C029
:1045F0008091DA008E7F8093DA008091D90080FF6D
:1046000018C080E189BD82E189BD09B400FEFDCFFB
:1046100081E08093F9028091E30281110FC00E9432
:1046200052220E9471228091E20084608093E20015
:1046300005C019BC1092F9021092E3028091E100CA
:1046400080FF17C08091E20080FF13C08091E200DC
:104650008E7F8093E2008091E20080618093E2008F
:104660008091D80080628093D80019BC85E0809347
:10467000F9028091E10084FF32C08091E20084FF62
:104680002EC080E189BD82E189BD09B400FEFDCF65
:104690008091D8008F7D8093D8008091E1008F7E3B
:1046A0008093E1008091E2008F7E8093E200809110
:1046B000E20081608093E2008091F002882311F093
:1046C00084E007C08091E30087FD02C081E001C063
:1046D00083E08093F9020E942D2B0E94611080914B
:1046E000E10083FF27C08091E20083FF23C0809117
:1046F000E100877F8093E10082E08093F9021092CD
:10470000F0028091E1008E7F8093E1008091E200D1
:104710008E7F8093E2008091E20080618093E200CE
:1047200042E060E080E00E941D2C8091F0008860F3
:104730008093F000FF91EF91BF91AF919F918F9186
:104740007F916F915F914F913F912F910F900FBE8D
:104750000F901F9018952091E4003091E50095E6A8
:104760004091EC00842F817040FF23C08091E800CD
:1047700080FD1DC08091F902882399F0853099F061
:104780008091EB0085FD11C04091E4005091E5005F
:104790002417350729F3915011F09A01E1CF84E0F5
:1047A000089582E0089583E0089581E0089580E00F
:1047B00008954091E80042FFDDCF0895EF92FF9207
:1047C0000F931F93CF93DF937C018B010E94AB2348
:1047D000811119C0E70101151105A1F08091E800D0
:1047E00085FD0AC08091E8008E778093E8000E94E2
:1047F000AB23882381F307C089918093F100015096
:104800001109E9CF80E0DF91CF911F910F91FF90C7
:10481000EF900895CF932091F9022430F9F4C091DC
:10482000E900CF703091EC00232F217030FD20E89B
:10483000C22B22E02093E9002091E80020FF0BC06A
:1048400040E050E060E270E00E94DE238091E800EA
:104850008E778093E800CF70C093E900CF910895E0
:104860008091E5020895CF93DF9300D01F92CDB7DA
:10487000DEB79091F902943011F589837B836A83C6
:104880009093E9008FEF9091E800815095FD06C06C
:1048900095ED9A95F1F700008111F5CF8091E80030
:1048A00085FF0DC040E050E063E070E0CE0101966E
:1048B0000E94DE238091E8008E778093E8000F90BD
:1048C0000F900F90DF91CF910895BC0184E00C947C
:1048D0003324BC0183E00C94332424E02093E900CA
:1048E0002FEF3091E800215035FD06C035ED3A95A7
:1048F000F1F700002111F5CF2091E80025FF0BC052
:1049000040E050E066E070E00E94DE238091E80025
:104910008E778093E8000895CF93DF9321E0209372
:10492000E9002FEF3091E800215035FD06C035ED4C
:104930003A95F1F700002111F5CF2091E80025FF0D
:1049400014C0EC0140E050E068E070E00E94DE231B
:104950008091E8008E778093E80088E0FE01A6EE63
:10496000B2E001900D928A95E1F7DF91CF91089521
:10497000803F39F48091440287FF6AC0109244025C
:1049800067C0813F29F4809144021816BCF360C0CF
:1049900090914302823F29F497FF5AC0109243023C
:1049A00057C0833F19F41916CCF352C090914502B9
:1049B000893F31F419160CF04BC01092450248C0E3
:1049C0008A3F19F497FF44C0F8CF8B3F39F48091A8
:1049D000460287FF3DC0109246023AC08C3F29F440
:1049E000809146021816BCF333C0843F21F48091B5
:1049F00042028E7F17C0853F21F4809142028D7F55
:104A000011C0863F21F4809142028B7F0BC0873F0B
:104A100021F480914202877F05C0883F31F4809164
:104A200042028F7E8093420213C08D3F21F4809119
:104A300074058E7F0BC08E3F21F4809174058D7FAD
:104A400005C08F3F29F4809174058B7F8093740596
:104A500080914302811106C080914402811102C0FD
:104A600010923E0280914502811106C0809146025B
:104A7000811102C010923B0208958091740580FD5F
:104A800016C081FD16C082FD18C080913B028823AC
:104A900091F0883290F428E0829FC001112468E2EE
:104AA00070E00E94CB2F862F672B29F007C082E091
:104AB000089584E0089581E0089588E00895809144
:104AC000740580FD14C081FD14C082FD16C0809164
:104AD0003E02882381F0843180F422E3829FC0016A
:104AE000112464E170E00E94CB2F862F08958CE0A2
:104AF000089589E1089585E0089582E30895803F4F
:104B000021F40E945F25819504C0813F29F40E9411
:104B10005F25809344020895823F21F40E945F251F
:104B2000819504C0833F29F40E945F25809343024E
:104B30000895893F19F40E943D2505C08A3F31F44C
:104B40000E943D2581958093450208958B3F21F475
:104B50000E943D25819504C08C3F29F40E943D258B
:104B6000809346020895843F21F48091420281603F
:104B700017C0853F21F480914202826011C0863FB8
:104B800021F48091420284600BC0873F21F4809120
:104B90004202886005C0883F31F480914202806102
:104BA0008093420208958D3F21F4809174058160C5
:104BB0000BC08E3F21F480917405826005C08F3F49
:104BC00029F480917405846080937405089587E7C3
:104BD00097E790930108809300089AE088E10FB668
:104BE000F894A895809360000FBE90936000FFCF6B
:104BF00078941F920F920FB60F9211248F939F9368
:104C0000AF93BF938091700590917105A09172054B
:104C1000B09173050196A11DB11D8093700590930D
:104C20007105A0937205B0937305BF91AF919F91E9
:104C30008F910F900FBE0F901F9018959C014FB74A
:104C4000F8948091700590917105A0917205B091D2
:104C500073054FBF821B930B08952FB7F894609193
:104C600070057091710580917205909173052FBF49
:104C700008952FB7F8948091700590917105A091D7
:104C80007205B09173052FBF08950E9439262091B7
:104C90004302211104C020914402222321F0909369
:104CA000400280933F0220914502211104C02091CF
:104CB0004602222321F090933D0280933C02E09132
:104CC000E701F091E801309749F082E080934102DA
:104CD0000480F581E02D81E492E0099408951F920B
:104CE0000F920FB60F9211248F939F93AF93BF93A0
:104CF0008091E901811113C0809170059091710537
:104D0000A0917205B09173054196A11DB11D8093CC
:104D1000700590937105A0937205B0937305BF91D0
:104D2000AF919F918F910F900FBE0F901F9018958C
:104D30009C01FC0132969FEF80E04191461789F07B
:104D40009F3F19F4411101C0982F8F5F8630A9F75A
:104D50009F3F39F0F901E90FF11D97FDFA95628344
:104D600008950895CF9384E090E00E94632FC82FA8
:104D700081E290E00E94632F2C2F30E0A901582B94
:104D8000CA01CF9108956CEE7EEF80E090E00E9422
:104D9000952F60E082E090E00E94772F60E083E052
:104DA00090E00E94772F10926C0510926D05109282
:104DB0006E0510926F0560E084E090E00E94772F0E
:104DC00060E081E290E00E94772F60E085E090E073
:104DD0000E94772F60E086E090E00E94772F6FEFCF
:104DE00087E090E00E94772F40E050E0BA0188E031
:104DF00090E00E94892F60E08DE090E00E94772F84
:104E000040E050E0BA0188E190E00E94892F60E024
:104E100087E190E00E94772F40E050E0BA018CE1FA
:104E200090E00E94892F60E080E290E00E94772F5E
:104E300040E050E0BA018FE090E00E94892F40E00E
:104E400050E0BA0183E190E00C94892FCF92DF9279
:104E5000EF92FF926C01EE24FF24C114D104E1040F
:104E6000F10421F0C701B60120E101C020E0C72E06
:104E7000D82EE92EFF24C114D104E104F10419F065
:104E8000285FC701B6016B017C0154E0F694E794FA
:104E9000D794C7945A95D1F7C114D104E104F10411
:104EA00019F02C5FC701B6016B017C0142E0F6945A
:104EB000E794D794C7944A95D1F7C114D104E1047B
:104EC000F10419F02E5FC701B601DC01CB01B695E4
:104ED000A79597958795892B8A2B8B2B09F02F5FA8
:104EE000822FFF90EF90DF90CF90089580916B0517
:104EF000811110926B05089590916A058091690562
:104F0000892B20916805982F922B90930905809109
:104F10006B05882389F0892B80930905EBE0F5E088
:104F200097E080E0915029F021912223D9F38F5FFF
:104F3000F9CF81110E947627E091E701F091E80115
:104F4000309731F00280F381E02D89E095E00994FB
:104F50000895BF92CF92DF92EF92FF920F931F932B
:104F6000CF93DF938C01C090FA02D090FB02E090C7
:104F7000FC02F090FD0280916C0590916D05A0916E
:104F80006E05B0916F05C82AD92AEA2AFB2ACFE11B
:104F9000D0E0D701C6010C2E04C0B695A795979511
:104FA00087950A94D2F780FD04C0219790F7B12C21
:104FB00007C0BC2EB8018C2F0E9494130197A9F34F
:104FC0008B2DDF91CF911F910F91FF90EF90DF908C
:104FD000CF90BF900895CF93DF93EC010E94A92753
:104FE000BE010E949413DF91CF910895292F220FC3
:104FF000920F990F890F682F669566956695982F81
:10500000977085E0689FB001112440E050E080E097
:10501000FB01E40FF51FE75BFA4F208130E0092E1A
:1050200002C0369527950A94E2F721703327042EA3
:1050300001C0220F0A94EAF7822B4F5F5F4F453081
:10504000510531F70895292F220F920F990F890FDB
:10505000E82FE695E695E695877051E001C0550F7B
:105060008A95EAF785E0E89FF0011124E75BFA4FA3
:1050700020E030E070E04081CB01022E02C0969526
:1050800087950A94E2F78170819584278523842788
:1050900081932F5F3F4F2530310569F70895609365
:1050A000FA027093FB028093FC029093FD020C9431
:1050B000102B0F931F9341E050E060E070E004C0BC
:1050C000440F551F661F771F8A95D2F7409550955C
:1050D000609570958091FA029091FB02A091FC027C
:1050E000B091FD028A019B01082319232A233B2347
:1050F000C901B8011F910F910C944F2820916705A9
:105100008095822380936705982F977079F430E01B
:10511000482F082E000C550B2417350739F08595BC
:10512000859585950E9459281092670508950F93DB
:105130001F9341E050E060E070E004C0440F551F51
:10514000661F771F8A95D2F78091FA029091FB0231
:10515000A091FC02B091FD028A019B01082B192B42
:105160002A2B3B2BC901B8011F910F910C944F289A
:1051700060936C0570936D0580936E0590936F0539
:105180000C94102B8091480590911705891719F000
:105190008F5F8770FBCF08950F931F93CF93DF939B
:1051A0008091160582958F7009F05DC0809113057E
:1051B000882309F458C08091480510911705609123
:1051C000110570911205C0911405D091150591E05B
:1051D0006F3F09F090E0292F06E0811709F443C0E2
:1051E000209721F07F3F21F030E003C031E001C083
:1051F000322F90E030FD34C0089FF001099FF00D80
:105200001124DF01A85EBA4F11963C911197371314
:1052100027C03C91361324C012963C91129731114D
:105220001FC013964D915C9114974C1B5D0B483C2D
:105230005105B0F4809116058F708061809316053A
:10524000E35EFA4F80818F708061808381E195E019
:105250000E94C617DF91CF911F910F910C94C22825
:1052600001968770BACFDF91CF911F910F9108956A
:105270000E94EB27292F2F70E92FE295EF704E2F18
:1052800050E0FA013297EE30F105B8F4ED56FF4FD9
:105290000C94DF2F803F99F018F4883E70F40FC013
:1052A000843F59F40CC0883E50F0813F31F407C070
:1052B000822F869586958695089580E0089581E0F1
:1052C00008959F92AF92BF92CF92DF92EF92FF929A
:1052D0000F931F93CF93DF93CDB7DEB761970FB6D0
:1052E000F894DEBF0FBECDBF8C0185E0F801DE0172
:1052F0001D9601900D928A95E1F7F80190818181C8
:10530000E280309111056091120540911405509191
:1053100015054115510531F06F3F31F421E03F3F54
:1053200019F403C021E001C020E0F22FF1709F2E9C
:1053300020FD23C1F801C380D48021E1A22E25E005
:10534000B22EF0901305F601E41BF50BFF2009F4D3
:10535000CEC020911605E83CF10508F099C0422F17
:10536000407F09F051C0681311C039130FC0FE2CE3
:10537000E1100CC02F70206120931605C5010E941A
:10538000C61780911605F801858337C1CD2831F005
:105390008F3F31F421E09F3F19F403C021E001C0A9
:1053A00020E020FD03C021E02E2502C020E030E0F7
:1053B000F22FF170FF2E20FF1DC020914805409173
:1053C000170556E0241709F4F6C030E0529FF001AB
:1053D000539FF00D1124E85EFA4F6181861306C0D9
:1053E0006081961303C06281E61204C02F5F3F4FB5
:1053F0002770E8CFFE2CEE2009F4FFC0809116053F
:1054000081608093160550C0681307C0391305C02A
:10541000E11003C0F80125838DC09D878E878D859F
:105420009E850E943829882369F1EE2059F1209148
:105430001605822F82958F7090E0029774F080910C
:1054400011059091120598878F831986DB86CA868D
:105450002C87CE0107960E94C61786E0F801A1E1CD
:10546000B5E001900D928A95E1F70E94CC280DC01D
:105470006817E1F09D878E878D859E850E9438296B
:1054800081111EC0C8010E94C617FF24F394B5C045
:10549000422F407F69F781E195E00E94C61786E0C0
:1054A000F50111928A95E9F7F12CA7C03913E2CFE3
:1054B000E110E0CFF8012583C8010E94C61757C04C
:1054C000EE2001F320911605822F82958F7090E0D7
:1054D00002971CF280911105909112059A8389839D
:1054E0001B82DD82CC822E83CE010196B4CFE83CB4
:1054F000F105E8F5FE2CEE2029F2681327C03913D8
:1055000025C02091160520FD18C0822F82958F702E
:10551000482F50E04115510581F0F80125834F30A7
:10552000510541F08F5F982F9295907F822F8F7059
:10553000892B8583C8010E94C61786E0F801A1E186
:10554000B5E001900D928A95E1F757C09D878E874F
:105550008D859E850E94382981117FCF8091160507
:10556000816080931605C8010E94C61746C086E078
:10557000F50111928A95E9F740C0EE2009F482CF37
:105580009D878E878D859E850E943829F82E8823D9
:1055900009F478CF86E0F801A1E1B5E001900D9221
:1055A0008A95E1F780911105909112050E94EB27F1
:1055B0000E94CC2822C09D878E878D859E850E9463
:1055C000EB27292F22952F70223028F49F7039F075
:1055D000811105C00BC0243028F49F7049F4805E0F
:1055E000883020F0C8010E94C6179F2CF92C05C0F6
:1055F000F8019581907F99F7F9CF8F2D61960FB6BD
:10560000F894DEBF0FBECDBFDF91CF911F910F91F8
:10561000FF90EF90DF90CF90BF90AF909F90089554
:1056200010926905109268050E947C27E1E4F2E07F
:1056300086E0DF011D928A95E9F710923E021092F2
:105640003B02109274050E94452680E090E00E9483
:105650004B1080E090E00C94351010926A0586E0C3
:10566000EBE0F5E0DF011D928A95E9F70C94102B31
:10567000882341F0809590916A05892380936A057B
:105680000C947C270895882339F090916A05892B22
:1056900080936A050C947C2708958823E1F19CEFA0
:1056A000980F913A60F4E9E0F5E09281891301C026
:1056B0001282319645E0EF30F407B9F714C090E25A
:1056C000980F983090F4877021E030E0A90102C073
:1056D000440F551F8A95E2F7CA01809590916A059B
:1056E000892380936A050C947C279BE5980F93305F
:1056F00020F480E090E00C944B1098E5980F9731DF
:1057000020F480E090E00C943510803F20F00E945F
:10571000B8240C9445260895CF93882309F459C0E2
:10572000C82F8CEF8C0F813AF8F4EBE0F5E081E1C3
:1057300095E02191C21721F08E179F07D1F70EC077
:10574000E9E0F5E08FE095E02281C21301C012820A
:1057500031968E179F07C1F70E947C276C2F89E036
:1057600095E00E94982610C080E28C0F883078F473
:10577000C77081E090E001C0880FCA95EAF7909168
:105780006A05892B80936A05CF910C947C27EBE501
:10579000EC0FE33040F4F0E0E756FE4F808190E0FC
:1057A000CF910C944B10E8E5EC0FE73150F4F0E0AA
:1057B000EE0FFF1FE456FE4F80819181CF910C9434
:1057C0003510C03F30F08C2F0E947F25CF910C9474
:1057D0004526CF910895CF93C82F0E948C2BC933B3
:1057E00049F42FEF87EE93E0215080409040E1F79D
:1057F00000C000008C2FCF910C944D2B8091F102B2
:1058000087FF11C08091E80082FD05C08091F902F8
:105810008111F8CF11C08091E8008B770BC0809187
:10582000F902882349F08091E80080FFF8CF809149
:10583000E8008E778093E8000895982F973068F5F8
:105840009093E900981739F07091EC002091ED00E9
:105850005091F00003C0242F762F50E021FD02C0AC
:105860009F5FECCF3091EB003E7F3093EB003091A7
:10587000ED003D7F3093ED003091EB0031603093CF
:10588000EB007093EC002093ED005093F00020911A
:10589000EE0027FDE5CF80E008958F708093E9004A
:1058A00081E008952091F7023091F802261737071A
:1058B00048F06115710539F42091E8002E772093A6
:1058C000E80001C0B901FC0120E06115710579F122
:1058D0008091F9028823F1F18530F1F18091E8009F
:1058E00083FD3CC08091E80082FD2EC08091E800DD
:1058F00080FFEBCF2091F3008091F20090E0922B9B
:105900006115710551F08830910538F4219120938B
:10591000F100615071090196F3CF21E0089709F079
:1059200020E08091E8008E778093E800CECF2111AF
:10593000CFCF0AC08091F902882361F0853061F0F1
:105940008091E80083FD0AC08091E80082FFF2CFD9
:1059500080E0089582E0089583E0089581E008954D
:105960001092B9008CE08093B8000895EF92FF92F6
:105970000F931F93CF93DF93182FEB011092BC006E
:1059800084EA8093BC000E9439267C018091BC008F
:1059900087FD0EC0CF3F8FEFD807C1F30E94392695
:1059A0008E199F098C179D0788F38EEF9FEF2EC0ED
:1059B0008091B900887F883041F08091B900887F5C
:1059C000803119F08FEF9FEF21C01093BB0084E866
:1059D0008093BC000E9439268C018091BC0087FD19
:1059E0000CC0CF3F8FEFD807C1F30E943926801B30
:1059F000910B8C179D0788F3D8CF8091B900887FD1
:105A0000883111F08034F1F680E090E0DF91CF91A1
:105A10001F910F91FF90EF9008950F931F93CF93D5
:105A2000DF93EB018093BB0084E88093BC000E946D
:105A300039268C018091BC0087FD0EC0CF3F8FEFCF
:105A4000D807C1F30E943926801B910B8C179D0744
:105A500088F38EEF9FEF0CC02091B900287F81E082
:105A600090E0283211F480E090E0919581959109C1
:105A7000DF91CF911F910F910895CF92DF92EF9216
:105A8000FF920F931F93CF93DF936B018A017901EC
:105A9000B9010E94B62CE6010C0D1D1DC017D107DF
:105AA00061F424E92093BC00DF91CF911F910F9105
:105AB000FF90EF90DF90CF90089597FDF2CFB70160
:105AC00089910E940D2DEACFCF92DF92EF92FF9243
:105AD0000F931F93CF93DF93C62F6A017901B8010B
