:100000000C9474030C94BB030C94BB030C9449270D
:100010000C94BB030C94BB030C94BB030C94BB0368
:100020000C94BB030C94BB030C94B11C0C94ED1BFF
:100030000C9442200C94BB030C94BB030C94BB03A4
:100040000C94BB030C94BB030C94BB030C94BB0338
:100050000C94BB030C94D71F0C94BB030C94BB03F0
:100060000C94BB030C94BB030C94BB030C94BB0318
:100070000C94BB030C94BB030C94BB030C94BB0308
:100080000C94BB030C94BB030C94BB030C94BB03F8
:100090000C94BB030C94BB030C94BB030C94BB03E8
:1000A0000C94BB030C94BB030C94BB03DB10DE105D
:1000B000FF100C111311331136116A118C11261215
:1000C000301297119A119D11C011E011E311E61140
:1000D0000812F215F2152C162C167F169B162D18E9
:1000E0002D18A6168417951795176D1897189C1834
:1000F000A118A618AB18B018B518BA18BF18C418AC
:10010000CB18D018D318B013B013B013B013D6183F
:10011000B013F5191C1ACF1B1C1ACF1B681A8B1AA7
:10012000CF1B8C1B9C1B31233123442344233A23B4
:10013000442344234423312331233F2344234423B2
:100140003F2300010101010101010101020202023C
:100150000202020202030303030303030304040471
:10016000040404040505050505060606060607073A
:1001700007070708080808090909090A0A0A0B0BF2
:100180000B0C0C0C0D0D0D0E0E0E0F0F0F10101191
:100190001111121213131414151516161717181817
:1001A00019191A1A1B1B1C1D1D1E1E1F202021227F
:1001B00022232424252626272829292A2B2C2D2DC5
:1001C0002E2F30313232333435363738393A3B3CE2
:1001D0003D3E3F404142434445464748494A4C4DD5
:1001E0004E4F50515354555658595A5B5D5E5F619E
:1001F0006264656668696B6C6D6F70727375777831
:100200007A7B7D7E8082838587888A8C8E8F91938E
:100210009596989A9C9EA0A2A3A5A7A9ABADAFB1B5
:10022000B3B5B7BABCBEC0C2C4C6C9CBCDCFD1D49A
:10023000D6D8DBDDDFE2E4E7E9EBEEF0F3F5F8FA40
:10024000FDFFFFAA7F55402223252628292A2C2D91
:100250002F3032333536383A3B3D3E4042434547F6
:10026000494A4C4E5051535557595A5C5E6062642E
:100270006668696B6D6F71737577797B7D7F81833C
:100280008587898A8C8E90929496989A9C9E9FA13D
:10029000A3A5A7A8AAACAEAFB1B3B4B6B8B9BBBC5E
:1002A000BEBFC1C2C3C5C6C7C9CACBCCCDCED0D1D3
:1002B000D2D2D3D4D5D6D7D7D8D9D9DADADBDBDBCB
:1002C000DCDCDCDCDCDDDDDDDDDCDCDCDCDCDBDB6C
:1002D000DBDADAD9D9D8D7D7D6D5D4D3D2D2D1D0C0
:1002E000CECDCCCBCAC9C7C6C5C3C2C1BFBEBCBBBD
:1002F000B9B8B6B4B3B1AFAEACAAA8A7A5A3A19F35
:100300009E9C9A98969492908E8C8A8987858381F8
:100310007F7D7B79777573716F6D6B6968666462D9
:10032000605E5C5A5957555351504E4C4A494745A7
:100330004342403E3D3B3A3836353332302F2D2C48
:100340002A292826252322290014001A000800152E
:100350000017002B6104001600070009000A00E1E5
:10036000001D001B00060019000500000000000031
:100370000002512C0002511C0018000C0012001346
:10038000002A000B000D000E000F00330034001196
:10039000001000360037003800E500015128000148
:1003A0005100000000000001001E001F002000217D
:1003B0000022000100010001000100010001000114
:1003C0000001000100010001000100000000000028
:1003D0000001000100010023002400250026002761
:1003E0000001005000510052004F0049004C00E64F
:1003F0000065004A004D004600E7000100010001D1
:100400000000000000000001001E021F0220022167
:1004100002220201000100010001000100010001AF
:1004200000010001000100010001000000000000C7
:1004300000010001000100230224022502260227F8
:1004400002350201002D022E022F0230023102017C
:100450000001000100010001000100010001000194
:100460000000000000000001003A003B003C003D9D
:10047000003E000100010001000100010001000137
:100480000001000100010001000100000000000067
:10049000000100010001003F00090041004200434B
:1004A00000440001000100010001000100450001BD
:1004B000000100010001000100A56201000100012E
:1004C00000000000000000783C1E1E140A05000019
:1004D000000000000000000000000000000000001C
:1004E00000007E0F00D4FFFFFFC70000007800006F
:1004F0000000000000002A2B28000000000000007F
:1005000000000000000000000029000000002C1E78
:100510003420212224342627252E362D3738271E35
:100520001F202122232425263333362E37381F045B
:1005300005060708090A0B0C0D0E0F1011121314F3
:1005400015161718191A1B1C1D2F3130232D3504B1
:1005500005060708090A0B0C0D0E0F1011121314D3
:1005600015161718191A1B1C1D2F3130354C050193
:100570000902A10185020901A10005091901290546
:10058000150025019505750181029501750381010D
:100590000501093009311581257F9502750881060D
:1005A00009381581257F950175088106050C0A38E3
:1005B000021581257F950175088106C0C0050109D6
:1005C00080A101850319012AB700150126B70095FE
:1005D0000175108100C0050C0901A10185041901F4
:1005E0002AA002150126A002950175108100C006FF
:1005F00060FF0961A1010962150026FF00952075C1
:100600000881020963150026FF00952075089102F4
:10061000C005010906A101050719E029E715002514
:100620000195087501810295017508810105071979
:100630000029FF150026FF009506750881000508B2
:10064000190129059505750191029501750391011F
:10065000C009025B00030100A0FA090400000103C5
:100660000101000921110100012240000705810359
:1006700008000A0904010002030000000921110119
:100680000001222200070582032000010705030361
:1006900020000109040200010300000009211101EA
:1006A00000012281000705840320000A12011001C5
:1006B000000000083839303401000102030104034E
:1006C000300000000A0372006500340030000000B2
:1006D00012036B0075007300680069006D00610013
:1006E000380000000403090411241FBECFEFDAE034
:1006F000DEBFCDBF04B603FE27C0809103039091F7
:100700000403A0910503B09106038730904BA740E6
:10071000B04BD1F41092030310920403109205031E
:100720001092060314BE84B7877F84BF0FB6F89477
:10073000A8958091600088618093600010926000AD
:100740000FBEE0E0F8E3099523E0A0EAB1E001C0C4
:100750001D92A330B207E1F711E0A0E0B1E0E0EDB7
:10076000F1E502C005900D92A03AB107D9F70E94B9
:10077000550C0C94E6280C9400000895AF92BF929B
:10078000CF92DF92EF92FF920F931F93CF93DF935D
:10079000E82EF62EE901E42FF0E0611106C0EE5BD1
:1007A000FE4FE4914E2F2E2F71C0062F10E0EE5B0E
:1007B000FE4F4491F42FC42ED12C26E0829FC0011D
:1007C00011242FEF30E0B9010E94A4285BEA560300
:1007D000C001579F900D11248E0D911D8E0D911DFE
:1007E000582F550F580FD901A01BB10BAC9DC0015C
:1007F000AD9D900DBC9D900D1124E92FF59ED0016B
:100800001124AB2FBB277901EA1AFB0AEC9CD0011B
:10081000ED9CB00DFC9CB00D11245901A51AB10836
:10082000A09E7001A19EF00CB09EF00C1124EF2C44
:10083000FF242E193F092C9D80012D9D100D3C9DFC
:10084000100D1124212F6230710591F048F46115CB
:100850007105E1F061307105B9F4242F4B2F16C0FA
:100860006430710569F040F06630710579F00CC0B4
:10087000242F492FE12F0AC0492FEF2F2B2F06C01D
:10088000292FE42F412F02C0292FEB2F49832883E2
:10089000EA83DF91CF911F910F91FF90EF90DF904E
:1008A000CF90BF90AF90089590913C0292FF0DC001
:1008B000282F2871283019F4877F846006C0282FDC
:1008C0002471243011F48B7F886093FF0DC0282F92
:1008D0002871283119F4877E846106C0282F24717D
:1008E000243111F48B7E886120913D0220FF0DC0E0
:1008F000382F3871383019F4877F816006C0382F5F
:100900003171313011F48E7F886021FF0DC0282FA6
:100910002871283119F4877E816106C0282F217142
:10092000213111F48E7E886194FD877E0895609157
:100930006A02669570E04BE050E080E091E00E9432
:10094000D928892B19F481E080934D020E940C2054
:10095000909347028093460280914E028460809378
:100960004E0208951F93CF93DF93CDB7DEB76797FD
:100970000FB6F894DEBF0FBECDBF4B8B5C8B6D8B7B
:100980007E8B8F8B86E09E01235F3F4FD901E82F3E
:100990001D92EA95E9F795E0FE017396D901019061
:1009A0000D929A95E1F7F901DE01179601900D92EB
:1009B0008A95E1F7CE0107960E94482381113EC037
:1009C00086E0FE013796DE01119601900D928A9520
:1009D000E1F7FF81E8856A857B856115710531F056
:1009E000EF3F31F481E0FF3F19F403C081E001C023
:1009F00080E080FD23C02091A60230E0C90101966D
:100A0000877099274091D70250E08417950779F1B4
:100A1000F983EA837D836C8396E0929FD001939F54
:100A2000B00D1124A955BD4FFE01319601900D92D4
:100A30009A95E1F78093A6020E94A92216E0809180
:100A4000D7029091A6028917F9F0189FC0011124CE
:100A500089559D4F0E9448238823B1F08091D70289
:100A600090E00196877099278093D702E8CF0E9483
:100A700014251092A6021092D702E0EAF2E086E076
:100A8000DF011D928A95E9F767960FB6F894DEBFED
:100A90000FBECDBFDF91CF911F910895209121020C
:100AA000309122022817390771F090932202809327
:100AB0002102E0914002F0914102309721F0008440
:100AC000F185E02D0994089520911F0230912002B4
:100AD0002817390771F09093200280931F02E0914C
:100AE0004002F0914102309721F00680F781E02D1D
:100AF00009940895E0914002F0914102309721F06D
:100B00000190F081E02D099480E008950F931F93E8
:100B1000CF93DF93C42FD22FFC0182818823C9F0A9
:100B200040937B020E940C2090931E0280931D0232
:100B300080E28C0F883008F057C0C77081E001C098
:100B4000880FCA95EAF7DF91CF911F910F910C940E
:100B50002A2580917B02481330C080911D0290911C
:100B60001E020E94FD1F883C910538F510E21D0F02
:100B7000CD17B9F080E28C0F883040F4C77081E067
:100B800001C0880FCA95EAF70E941F25183028F582
:100B900081E09D2F977001C0880F9A95EAF70E9417
:100BA0002A25802F0E94D2251830F0F4D77081E0DA
:100BB00001C0880FDA95EAF70AC080E28C0F88300E
:100BC00098F4C77081E001C0880FCA95EAF7DF91F9
:100BD000CF911F910F910C941F25802FDF91CF9102
:100BE0001F910F910C94D225DF91CF911F910F91FE
:100BF0000895CF93DF93C6EAD1E060E0CE010E9472
:100C000070282196C11584E0D807B9F7DF91CF91FC
:100C10000895CF92DF92EF92FF920F931F93CF939D
:100C2000DF93C0E0D0E08E01005A1F4F6E018CE0D0
:100C3000C80ED11CFE01E95BFC4FE590F4906F2DCE
:100C4000CE0186960E9470286E2DCE0187960E9456
:100C500070282296CC15DD0569F70C171D0731F7B2
:100C6000E80100381140F9F6DF91CF911F910F9103
:100C7000FF90EF90DF90CF9008950F931F93CF9345
:100C8000DF93C42FD0E0CC0FDD1F2CE0629FC00D9E
:100C9000D11D112430E6839FC00DD11D1124CE013A
:100CA00086960E945C28082F10E0102F0027CE01A6
:100CB00087960E945C289801282BC901DF91CF916B
:100CC0001F910F910895462F843038F4783028F41E
:100CD000663018F4672F0C943D0680E090E008958C
:100CE000CF93C82F811102C06FEF01C060E282E292
:100CF00090E00E947028C11102C06FEF01C069E04E
:100D000083E290E00E947028C11102C06FEF01C021
:100D100062E184E290E0CF910C947028882311F076
:100D2000FA0101C0FB010994ECE4F2E01182828136
:100D300084608283089530910C0180916A0280FF63
:100D400016C0E0910B0163E0E69FF0011124EB5522
:100D5000FE4F539A8BB1877F9BB198602FB7F89461
:100D6000AF0163E0369F400D511D112414C08091E6
:100D70000D0190910E01891720F7E82FF0E0AF01E7
:100D8000440F551FE40FF51FEB55FE4F11821082E3
:100D900012828F5FF0CFE417F50789F0319168E098
:100DA0009BB9000000C037FF8BB9330F000000C0B3
:100DB00000C000C08BB900C06A9591F7ECCF2FBF7F
:100DC0008FE594E00197F1F700C00000089590913D
:100DD0006A0290FF16C090910D0120910E019217AA
:100DE00070F4E92FF0E0DF01AA0FBB1FEA0FFB1F31
:100DF000EB55FE4F8183608342839F5FF0CF0C945D
:100E00009B060895CF93DF9300D01F92CDB7DEB736
:100E100090916A0290FF0DC0473908F046E99E01A3
:100E20002F5F3F4F0E94BE034B8169818A810E94E0
:100E3000E7060F900F900F90DF91CF910895CF9319
:100E4000DF93EC01EAE6F2E0438162818C810E944B
:100E500002078C818F5F8C83DF91CF910895CF93B0
:100E6000DF93EC01EC81F0E0E95BFD4F4491EAE6B1
:100E7000F2E0628181810E9402078C818F5F8C8306
:100E8000DF91CF910895EAE6F2E080818E7F808342
:100E90000E949406ECE4F2E08281816082832FEF6D
:100EA00080E792E0215080409040E1F700C00000D0
:100EB0000C949B0680916A02282F269530E021151C
:100EC000310519F48170826005C02331310524F0A9
:100ED0008170846280936A0280916D02873918F074
:100EE00086E980936D020895CF92DF92EF92FF9290
:100EF0006B017C010E945A07B701A60188E090E0CF
:100F0000FF90EF90DF90CF900C948228AF92BF9229
:100F1000CF92DF92EF92FF920F931F93CF93DF93C5
:100F200000D01F92CDB7DEB7082FF62E142FE22E79
:100F300080916A0280FF83C0E82FE695AE2FB0E073
:100F4000A25DBE4F9C9190934C028E7F823081F4C3
:100F5000473908F046E99E012F5F3F4F6F2D802FE4
:100F60000E94BE034B8169818A810E94E70644C0CA
:100F7000923019F410916D023FC0963019F400912F
:100F80006B023AC09930C1F5E9508E2F8170D82E8E
:100F9000E695F0E0EE5BFD4FA590B490C12CBB242C
:100FA00060910F01C61630F52C2D30E0A29EC001D5
:100FB000A39E900DB29E900D112470E00E94A42873
:100FC000802FD11002C0860F01C0861B90910D01A9
:100FD000290F311DA901440F551F240F351F2B5513
:100FE0003E4F412F173908F046E96F2D0E94BE038E
:100FF000C394D6CF0E949B0680916B02081308C051
:1010000080916C02F81204C080916D02181729F0CB
:1010100080914E02826080934E0200936B02F092A8
:101020006C0210936D02EE2051F060916A02709193
:101030006B0280916C0290916D020E9474070F9078
:101040000F900F90DF91CF911F910F91FF90EF9034
:10105000DF90CF90BF90AF900895EAE6F2E0438131
:1010600021E1421B08F440E021E0628181810C947F
:101070008607EAE6F2E0438121E1420F08F44FEFF0
:1010800021E0628181810C948607EAE6F2E06281C8
:1010900021E1621B08F460E021E0438181810C942E
:1010A0008607EAE6F2E0628121E1620F08F46FEF61
:1010B00021E0438181810C948607EAE6F2E0818198
:1010C00021E04381628188500C948607EAE6F2E0D1
:1010D000818121E043816281885F0C948607809141
:1010E0006E02882319F0815080936E0260916A022B
:1010F00070916B0280916C0290916D020C94740758
:1011000080916E02833018F48F5F80936E0260913D
:101110006A0270916B0280916C0290916D020C9446
:10112000740790916A0290FF3BC09170811102C0D8
:10113000926006C0833110F0946202C0880F982B31
:1011400090936A0280914E02816080934E026623E2
:1011500051F060916A0270916B0280916C029091E3
:101160006D020E94740760916A02669570E04BE020
:1011700050E080E091E00E94D928892B19F00E946C
:10118000940602C00E94970481E08093490220E007
:1011900040916D0260916C0280916B020C94860705
:1011A000089580916A028695815009F482E161E098
:1011B0000C94910880916A0286958F5F833108F0C4
:1011C00081E061E00C94910890916A0290FF04C064
:1011D0009695981740F003C0811105C090E09617CE
:1011E00010F40C94DA0861E00C949108EAE6F2E05D
:1011F00083E0808311828FEF828386E98383148268
:10120000ACE4B2E012968C911297836012968C93A4
:1012100060817181828193810C9474078091A40113
:10122000811112C08091D80080618093D8008AE13A
:101230008A95F1F700C08091D90080FD02C082E05C
:1012400001C081E08093A40181E09091A4019130DC
:1012500009F080E00895CF93DF930E946306EC01CC
:101260008238910559F1A0F48133910509F473C0D6
:1012700040F48932910509F467C08A9709F472C075
:1012800084C08533910509F458C0C997B9F07DC071
:10129000833E910571F138F4803E9105B1F0823EB4
:1012A000910511F172C0863E9105B9F1873E910515
:1012B000C9F1843E910509F068C024C080913C02C8
:1012C00080FD5DC081FD5BC060C080913C0280FDFF
:1012D00050C080913D0280FF49C180913C0284FD55
:1012E00043C1C3EED0E042C180913C0282FF3EC1C7
:1012F000F4CF80913C0282FD3FC080913D0280FD91
:101300003EC0EBCF80913D0281FF30C180913C0215
:1013100084FD2AC1C7EED0E029C180913C0283FF41
:1013200025C1F4CF80913C0283FD2CC080913D0209
:1013300081FFECCFC4EED0E019C180913C0285FF63
:1013400015C1C9E2D0E012C180913C0285FF0EC1F7
:10135000C5E3D0E00BC180913C0286FF07C1CAE221
:10136000D0E004C180913C0286FF00C1C1E3D0E01F
:10137000FDC0C9E3D0E0FAC0C2EED0E0F7C0C0EED5
:10138000D0E0F4C0C6EED0E0F1C0C11581E5D807C9
:1013900008F066C0C11520E5D207E0F0CE0174E088
:1013A000969587957A95E1F783709C2F937021E04D
:1013B00030E002C0220F331F9A95E2F73C68382BC9
:1013C000CF70C695C69540E2C49FE0011124C22BA0
:1013D000D32BCCC0C83ED10560F5C03ED10508F086
:1013E000C5C0C83AD105B0F4C53AD10540F0C55AD8
:1013F000D0E0C259DE4FC881D0E0D064B7C0C13060
:10140000D10509F4B3C008F4AFC0C430D10508F465
:10141000ABC0ACC0CF3BD10508F0A6C0C85AD0E0E5
:10142000CC0FDD1FCF58DE4F0990D881C02DD4647A
:101430009DC0C11540E2D40758F4C11581E0D8071A
:1014400008F094C0C03FD10508F48EC0D0658EC0AE
:10145000C11520E4D20708F487C0DF70D06A86C0C7
:10146000C11545E5D40708F042C0C11584E5D80789
:1014700028F0DC2FCC27C46FD06A78C0C11523E5D3
:10148000D207B0F0CE018370992721E030E002C08E
:10149000220F331F8A95E2F78C2F8695869540E2BE
:1014A000849FC0011124E901C82BD92BDA685EC0E2
:1014B000C11542E5D40728F4DC2FCC27C16FD06AD0
:1014C00055C0CE018370992721E030E002C0220F81
:1014D000331F8A95E2F78C2F8695869540E2849F8C
:1014E000C0011124E901C82BD92BDC683FC0C1150C
:1014F00089E5D807B8F4C11528E5D20728F0DC2F14
:10150000CC27C06FD06A32C0C11546E5D40760F55C
:101510008C2F0E9454048F71C82FD0E0DC2FCC2771
:10152000D06224C0C1158AE5D80780F48C2F8F7053
:101530000E94540494E0D695C7959A95E1F7CF7030
:10154000D0E0DC2FCC27D069C82B10C0CE0190563C
:101550008115904248F48D2F8F710E945404DD272D
:10156000D0628F71D82B02C0C0E0D0E0CE01DF91F5
:10157000CF910895CF93C62F882311F08130A1F425
:1015800060919402709195028091960290919702D9
:101590000E94F920843040F4C11102C08AEF01C0DA
:1015A00089EFCF910C94D225CF9108956F927F92BD
:1015B0008F929F92AF92BF92CF92DF92EF92FF9263
:1015C0000F931F93CF93DF9361E471E002E312E086
:1015D00026E3A22E22E0B22E3801C0E0EE24E394EE
:1015E000F12CDB018D91BD01E82FE295EF70F0E069
:1015F00021A18F70A70102C0440F551F8A95E2F701
:10160000CA01242B21A322A1942E9094292122A344
:1016100050EA5A95F1F799E4C92E91E0D92E40E0AD
:1016200050E0D0E0D6018D906D01282D22952F70CD
:1016300030E0D90190962C9130E0B82DBF7002C0F7
:1016400035952795BA95E2F720FD07C02E2D042E7B
:1016500001C0220F0A94EAF701C020E0D22B4F5FAD
:101660005F4F46305105F1F691A1992291A292A1C6
:10167000892B82A3F3018081D81719F0D08381E0F0
:1016800001C080E0C82BFFEF6F1A7F0A26E36216C5
:1016900022E0720609F0A5CFF0903B02CC2349F07E
:1016A00081E08093A2010E940C209093A10180937D
:1016B000A0018091A2018823A9F08091A0019091BE
:1016C000A1010E94FD1F069768F0EF2DF0E0E1599F
:1016D000FD4FD8018D918D018193AA16BB06C9F7E4
:1016E0001092A2010E940E09882309F463C0109190
:1016F0003A0280914E028823E9F085E0EAE6F2E0C2
:10170000A3E2B2E001900D928A95E1F780914C023C
:1017100090914D02A0914E0280932802909329024D
:10172000A0932A0281E090E00E94D927892B11F42E
:1017300010924E0280E090E00E94D927892B09F098
:1017400094C0E12FF0E0E159FD4F80E090E0DC0132
:10175000A45DBD4F2C912193019684309105B9F77A
:10176000D0913F028D2F90E0FC01E15BFD4F7F01A6
:10177000109130028081181B012F101654F4015073
:10178000D7018C918F5F8C9360E08D2F0E94BA0AF5
:10179000F4CF812F17FD80E0181B112309F462C0DC
:1017A0001F5FF70180818150808361E08D2F0E944F
:1017B000BA0AF3CFE0913B020E2F10E080912B028A
:1017C0008830C9F580912A0280FF12C080912302DF
:1017D00080FF0CC080916A02816080936A028091D0
:1017E000230260E086950E94910802C00E94430790
:1017F00080912A0281FF09C020E040912602609179
:101800002502809124020E94860780912A0282FF8D
:1018100009C080912902882319F00E94970402C010
:101820000E94940680912A0283FF03C081E0809386
:10183000490210922B02F801E159FD4F80E090E03F
:101840002191DC01A45DBD4F2C930196843091055C
:10185000B9F7E0915202F0E0E15BFD4F80818093A7
:10186000300213C01092A30110C08091A3018F5FBA
:101870008093A301863048F0E0913A02F0E0E1590C
:10188000FD4F10821182128213828C2FDF91CF9133
:101890001F910F91FF90EF90DF90CF90BF90AF908E
:1018A0009F908F907F906F900895CF93DF93CDB7E7
:1018B000DEB7AA970FB6F894DEBF0FBECDBF84B7D0
:1018C000877F84BF0FB6F894A895809160008861E7
:1018D00080936000109260000FBE90E080E80FB629
:1018E000F89480936100909361000FBE85B7806883
:1018F00085BF85B7806885BF0E94311C0E94501C3F
:101900008091E20084608093E20078948091930259
:101910008823A1F01091E9001F709091EC00892FAD
:10192000817090FD80E8182B1092E9008091E8000A
:1019300083FD0E940F191F701093E90082E084BD9F
:1019400093E095BD9AEF97BD80936E0084988C9A32
:10195000229A2A9825E02A95F1F700008FB1829506
:10196000817022982A9A30EA3A95F1F78093200103
:1019700080912001882321F010920B0184E103C0A3
:1019800084E180930B0180930C010E940E0988234F
:1019900031F062E070E080E191E00E94F7268091F2
:1019A000200180912001882311F090E001C094E093
:1019B00090933B0284E0891B80933A02A1E4B1E05A
:1019C00041E050E08D91E82FE295EF70F0E021A129
:1019D0008F70BA0102C0660F771F8A95E2F7CB01BC
:1019E000962F9095922391A392A1892B82A371E0C7
:1019F000A534B70739F7A9E4B1E041E050E08D9193
:101A0000E82FE295EF70F0E021A18F70BA0102C0DB
:101A1000660F771F8A95E2F7CB01962F9095922358
:101A200091A392A1892B82A371E0AF34B70739F754
:101A3000E2E3F2E0AFE6B2E011921D9282E0EA3317
:101A4000F807D1F70E94D60AEFE3FCE93197F1F7E6
:101A500000C000000E94D60A80916F0280FF0AC079
:101A600080E00E9470066FEF7FEF80E090E00E94C0
:101A70008E2802C580E090E00E946A288C3E9E4F2E
:101A800011F00E9496200E940E09811106C062E0AA
:101A900070E080E191E00E94002782E290E00E94E5
:101AA0005C28803281F483E290E00E945C288930D7
:101AB00051F484E290E00E945C2891E0823109F0C8
:101AC00090E0892F01C080E080FFFCC480E090E0BE
:101AD0000E946A288C3E9E4F11F00E94962082E060
:101AE00090E00E945C28809361020E948520909380
:101AF0003D0280933C0283E090E00E945C28682FC6
:101B000070E080E090E00E949F2280913E0281116F
:101B10003BC080E090E00E946A288C3E9E4F21F0FE
:101B20000E9496200E94F60888E090E00E946428B7
:101B300060936A0270936B0280936C0290936D02C3
:101B400080914E02836080934E026E7F71F40E94FA
:101B5000F60888E090E00E94642860936A0270931F
:101B60006B0280936C0290936D020E945A070E9450
:101B7000940680916A0280FF04C060E086950E940E
:101B8000910881E080933E0280912001811106C07E
:101B900086E38093220186E6809321012091220131
:101BA000A22FA295AF70B0E091963C9191972F70C3
:101BB00081E090E0AC01022E01C0440F0A94EAF7E4
:101BC000542F5095352391963C93919792963C9142
:101BD0009297432B92964C93929740912101E42F38
:101BE000E295EF70F0E031A14F70042E01C0880F34
:101BF0000A94EAF7982F9095932391A392A1892BA9
:101C000082A390968C9190E002C0959587952A9535
:101C1000E2F7817020A130E002C0359527954A9502
:101C2000E2F720FF02C092E001C090E0892B809390
:101C300053029091200181E0982790935202891BD2
:101C400080933F0283E291E09093410280934002AF
:101C5000BE016F5F7F4F7B0177247A9442E0642E50
:101C60001E017BE0270E311C57E7452E52E0552E12
:101C700068E1C62ED12C80919302853009F036C0E0
:101C800080919302843011F11092420280E40FB6E9
:101C9000F894A895C09260000FBE8093600083B74F
:101CA000817F846083BF83B7816083BF7894889588
:101CB00083B78E7F83BF0FB6F894A895809160009C
:101CC000886180936000109260000FBE809189024D
:101CD000882309F4D0CF0E94D60AEFE6F2E0819182
:101CE0008111D1C34E165F06D1F7C5CF0E94D60A27
:101CF0000E940E098823A1F1A2E6B2E0EFE6F2E02D
:101D000000E010E0302F21919D91922721F180E099
:101D1000BB24B3944B2D4923D1F089A33AA32B21A3
:101D200081E009F480E08BA30E940C208160782F71
:101D30009DA38CA349A15AA16BA18DA10E94B204BD
:101D4000F801EE59FD4F8081B826B08218C08F5F30
:101D5000BB0C8630F9F60F5F1F4F0830110591F666
:101D60007EA27FA218A60E940C208160782F9AA7DD
:101D700089A74EA15FA168A58AA50E94B20480919F
:101D80004D02882309F47DC080914C02E0916A02E3
:101D9000E695E81BE0934802823059F4F0E0E65300
:101DA000FB4FE4910E2F10E03FE2A32E37E0B32E5D
:101DB00013C0863059F4F0E0E953FB4FE4910E2F45
:101DC00010E02FE1A22E27E0B22E06C000ED17E0B2
:101DD0009DEBA92E93E0B92E80914902882389F0CA
:101DE000109249020E940C20980120953095820F94
:101DF000931F909347028093460210924B021092D9
:101E00004A0280914602909147020E94FD1F80176E
:101E10009107B8F1809145028823B1F010924502F4
:101E200080914302909144020E94FD1F80339547A8
:101E300058F00E940C2090934402809343028091BA
:101E40004E02886080934E0280904A0290904B022E
:101E5000E0914602F09147020E0F1F1F10934702B8
:101E60000093460286E492E0F501099580914A02CA
:101E700090914B02892B29F4892819F081E08093F5
:101E8000450280915302E82FEE0FEE0F8091220160
:101E9000A82FA295AF70B0E090962C9130E08F7093
:101EA00002C0359527958A95E2F7217033278091F6
:101EB0002101A82FA295AF70B0E090964C9150E010
:101EC0008F7002C0559547958A95E2F7CA018170D7
:101ED000992740FF02C082E090E0822B932B8E2B4B
:101EE00080935302109152028F70E82FF0E0E15B73
:101EF000FE4F908180915102890F8093510284306E
:101F00006CF0E12F012E000CFF0BE15BFD4F808197
:101F10008F5F808360E0812F0E94BA0A8091510216
:101F20008D3F6CF4E12F012E000CFF0BE15BFD4FA8
:101F300080818150808361E0812F0E94BA0A809164
:101F40005102837887FF03C081508C6F8F5F80932D
:101F5000510286E0EAE5F2E0D70101900D928A9500
:101F6000E1F7A0905C02B0905D0200915E021091DA
:101F70005F0210925C0210925D0210925E0210925B
:101F80005F02A11003C0BB2009F451C08091580228
:101F9000909159020E94FD1F9C0190915702992334
:101FA00009F49DC22333310508F441C09F3F19F065
:101FB0009F5F90935702AA2061F00E943E1F1A145F
:101FC00014F491E001C09FEF899F802D112480932C
:101FD0005C02BB2061F00E943E1F1B1414F491E0D0
:101FE00001C09FEF899F802D112480935D02309165
:101FF0005C023323E1F020915D022223C1F045EB26
:102000003403C0011124992319F090935C0203C09A
:1020100081E080935C0265EB2603C00111249923C3
:1020200019F090935D0203C081E080935D0201117D
:1020300003C0112309F451C08091550290915602BA
:102040000E94FD1F9C0190915402992309F44CC2F7
:102050002536310508F441C09F3F19F09F5F9093EA
:102060005402002361F00E941C1F101614F491E02A
:1020700001C09FEF899F802D112480935E02112360
:1020800061F00E941C1F111614F491E001C09FEF33
:10209000899F802D112480935F0230915E0233234B
:1020A000E1F020915F022223C1F075EB3703C001FC
:1020B0001124992319F090935E0203C081E080936C
:1020C0005E0235EB2303C0011124992319F090938C
:1020D0005F0203C081E080935F0280915C02811106
:1020E0000BC080915D02811107C080915E02811159
:1020F00003C080915F0281110E941820AB82BC82D4
:102100000D831E8386E0F701AAE5B2E001900D92EF
:102110008A95E1F70E947A0590916002891721F073
:102120000E947A058093600280919302843009F0C6
:10213000A2CD43E04093E9008091E80082FF9BCD6F
:102140008091E80085FF21C00E948A1D81111BC07B
:1021500080E2A82EB12C870109C08091F100F8011E
:1021600081938F01F1E0AF1AB10869F08091E80026
:1021700085FDF3CF8091E8008B778093E8000E9483
:102180008A1D882399F391E001C090E08091E800D6
:102190008B778093E800992309F46DCDE9818E2F28
:1021A00090E0FC013197E331F10508F067C1EA5A8C
:1021B000FF4F0C94CC281A8289E0A7C08A81823014
:1021C00009F477C1833089F0813009F057C12FB706
:1021D000F8948091770290917802A0917902B09161
:1021E0007A022FBFBB83AC831CC0FE013396AFE6DF
:1021F000B2E08D918193E215F305D9F740C18A8150
:10220000823009F03BC16B817C818D819E810E946F
:10221000D22885E290E024C04C816B818A810E94A3
:102220003D069D834DC10D811E811027012710277A
:102230008C81AB809A812CE0A29E5001112430E663
:10224000939FA00CB11C1124A80EB11CA80EB11CA8
:10225000612FC50186960E947028602FC501879660
:102260000E9470280CC10E94090609C18A81813828
:10227000B1F050F4803809F002C120E04B81609148
:102280006C0280916B0223C08238E9F0833809F038
:10229000F6C020E040916D026C818B8118C060E037
:1022A0008B810E9491088B81811103C00E9443079A
:1022B000E6C080916A02816080936A0260E0869540
:1022C0000E949108DCC08B8180936E02D8C00E946E
:1022D0008607D5C08A81813899F030F4803809F0BA
:1022E000CEC080916D0211C0823899F0833809F018
:1022F000C6C080916B028B8380916C028C83BFC0BF
:1023000080916A0280FF03C086958B83B8C080E00D
:10231000FCCF80916E02F9CF60916A0270916B02DE
:1023200080916C0290916D020E947407A8C080E1B8
:102330008A83A5C06A828AE5E8CF0A811B811027BB
:1023400001271027AC80B12C4701C8018A559E4F48
:1023500094012E193F092A153B0508F090C00A3553
:1023600042E0140728F40E945C28F401848302C030
:10237000F40114820F5F1F4FFFEF8F1A9F0AE5CF02
:102380000A811B81102701271027AC80B12C47013F
:10239000C8018A559E4F94012E193F092A153B0505
:1023A00008F06DC00A3522E0120720F4F4016481C0
:1023B0000E9470280F5F1F4FFFEF8F1A9F0AE8CF10
:1023C0000E94F9055CC024E02A8359C00A811B8160
:1023D000102701271027AC80B12C4701C801869631
:1023E00094012E193F092A153B0508F048C0003812
:1023F00031E0130728F40E945C28F401848302C0B2
:10240000F40114820F5F1F4FFFEF8F1A9F0AE6CF70
:102410000A811B81102701271027AC80B12C4701AE
:10242000C801869694012E193F092A153B0538F5F7
:10243000003821E0120720F4F40164810E94702822
:102440000F5F1F4FFFEF8F1A9F0AEACF80E00E94B5
:1024500070066FEF7FEF80E090E00E948E280FC043
:10246000C7010E94E91D2FEF31EE44E021503040BA
:102470004040E1F700C000000E94C61F7982C701FA
:102480000E94E91DF8CB80E189BD82E189BD09B4D4
:1024900000FEFDCF8091D8008F7D8093D800809181
:1024A000E00082608093E0008091E00081FDFCCF3D
:1024B000E2CB85E290E00E945C281B821C821D8298
:1024C0008E83DDCF60E085E290E00E9470280E945C
:1024D00009060E94F90581E00E947006F7CA2D32B4
:1024E000314008F065CDA3CD2D32314008F0B6CD96
:1024F000F4CD5F926F927F928F929F92AF92BF9234
:10250000CF92DF92EF92FF920F931F93CF93DF93BF
:10251000CDB7DEB729970FB6F894DEBF0FBECDBF9B
:10252000FC018081918123813481232B31F09F3FF5
:1025300031F491E08F3F19F403C091E001C090E0C5
:1025400090FD39C67F0185E0DE01119601900D9264
:102550008A95E1F7F701228189819A81222349F046
:102560000E947C21182F682F89819A810E94F62170
:1025700003C00E94C921182F69817A81812F0E948E
:1025800063068C01F7019281992309F4DFC0980159
:1025900022513F452031310508F004C18FEF93E00F
:1025A0000E945C288111DCC0025136EA832E9924F6
:1025B0009394002379F08114F4E09F0609F4D0C0CD
:1025C000C4010E945C28811101C001501FEF811AD3
:1025D000910AEFCF1E821F821886198666246394A3
:1025E0002AE0522E84010F5F1F4FC4010E945C2815
:1025F0008E831F82882309F4B3C09FEF980F933016
:1026000060F48F836E8222E0820E911CC8010E94CA
:102610005C288887811102C0A3C048018E010A5F2F
:102620001F4FF80120812223E9F2213009F04CC02C
:102630008181813049F46801F2E0CF0ED11CF801AC
:1026400082810E94D2250AC0823051F46801F2E0F2
:10265000CF0ED11CF80182810E947325860173C0C0
:10266000833049F46801F2E0CF0ED11CF801828179
:102670000E943425F3CF843019F00F5F1F4F63C0E1
:10268000F80122810E5F1F4F80E090E030E0205380
:1026900031092A30310568F4589EA001599E500D29
:1026A0001124C901840F951F0F5F1F4FF80120816E
:1026B000EDCF009709F447C0EFE9FFE03197F1F75C
:1026C00000C000000197F5CFE22FF0E0E251FB4F90
:1026D0007490822F86958695869590E0FC01E25253
:1026E000FB4FA4902770B12C022E02C0B594A79482
:1026F0000A94E2F7F1E0AF22BB24FC01E253FB4F66
:10270000C490D12C02C0D594C7942A95E2F721E059
:10271000C222DD24A114B10419F081EE0E947325B8
:10272000C114D10419F086EE0E947325872D0E94F2
:10273000D225CD2819F086EE0E943425AB2819F059
:1027400081EE0E9434250F5F1F4F6BCF00313FE5B4
:10275000130709F0B5C481E00E9440220E94F118DD
:102760008091F602877009F426C5F70182818823DB
:1027700009F421C582E029960FB6F894DEBF0FBE9A
:10278000CDBFDF91CF911F910F91FF90EF90DF9020
:10279000CF90BF90AF909F908F907F906F905F9001
:1027A0000C9465220031FFE51F0711F481E005C09C
:1027B00001312FE5120721F482E00E947E22CECF64
:1027C000033FFCE51F0749F406E221EE40EE63EF0C
:1027D0007CE5C7010E948605C3CF043F2CE51207A4
:1027E00008F04AC1083D3CE5130731F407E225EE45
:1027F00045EE68ED7CE5EDCF093D8CE5180731F439
:1028000008E221E045EE69ED7CE5E3CF073DECE52C
:102810001E0731F406E221EE41EE67ED7CE5D9CFEB
:10282000992309F45EC110927B0202303CE5130744
:1028300008F441C106318CE5180738F098012A5F89
:102840003C452930310508F036C10E94852090931F
:102850003D0280933C0200319CE5190709F4C3C096
:1028600008F041C00830FCE51F0709F49AC0F0F4F5
:1028700004303CE5130709F487C068F402309CE596
:10288000190709F477C003301C4509F0E5C08091B1
:102890003C02826076C00630FCE51F0709F46EC07A
:1028A00008F07BC080913C0288606BC00C303CE536
:1028B000130709F485C068F40A309CE5190709F488
:1028C00074C008F079C00E94142580913C02806891
:1028D00058C00E30FCE51F0709F476C008F07FC031
:1028E00080913C028BC00B3F3CE5130709F44FC0BD
:1028F00018F503319CE5190709F47DC078F401311E
:10290000FCE51F0709F473C002311C4509F0A4C09F
:102910000E94142580913C028F7733C005313CE53D
:10292000130709F472C008F486C00A3F1C4509F079
:1029300093C080913D023EC00F3FECE51E0709F4B5
:102940005FC058F40D3F2CE5120709F444C008F4A9
:102950003FC080913D0282602DC001308DE5180797
:1029600009F475C008F45DC002301D4509F074C05B
:1029700060E06EC080913C02816003C080913C02A7
:10298000806180933C0268C080913C0211C08091BC
:102990003D02826080933D025FC080913C02806274
:1029A000F0CF80913C028064ECCF80913C02886043
:1029B0008460E7CF8160EECF80913C028E7FE1CFD3
:1029C00080913C028D7FDDCF80913C02877FD9CF03
:1029D00080913D0218C080913D028D7FDBCF8091B8
:1029E0003C028F7ECECF80913C028F7DCACF8091FA
:1029F0003C028F7BC6CF80913C02877F8B7FC1CF0B
:102A000080913D028D7F8E7FC5CF80913C0282FBFD
:102A1000222720F991E0922790FB82F990FB83F91D
:102A2000B0CF80913D02982F909591708E7F892B29
:102A300090FB81F9AFCF0E94142580913C0287FB67
:102A4000222720F991E0922790FB87F99ACF61E045
:102A50008EE090E00E94702860913C0210913D024F
:102A600084E090E00E947028612F81E290E00E9453
:102A700070280E94142574CE053FFCE51F0731F431
:102A800006E221EE42EE65EF7CE5A3CE053F2CE5A4
:102A9000120730F407E225EE44EE64EF7CE599CEB0
:102AA000063F3CE5130709F0BBCE07E225EE46EEF4
:102AB00066EF7CE58ECE06318CE5180751F58091E6
:102AC000F9028A7A91E009F490E090937C028823DD
:102AD00011F065E301C069E288E992E00E946B2091
:102AE00015C00631ECE51E0759F580917C0288235C
:102AF00009F4EDC285E3E8E9F2E09281891301C0AF
:102B00001282319602E0EE39F007B9F70E944F21A8
:102B100027CE01158CE5180731F00E3D1C45D1F488
:102B20000E9496201DCE0E941425FFEF04E31CE0B6
:102B3000F15000401040E1F700C000000E94C61FA5
:102B40008091F9028272F801E25CFC45E431F10502
:102B500008F4BFC2F70100811181992349F0C8012F
:102B60000E947C21D82E682FC8010E94F62104C043
:102B7000C8010E94C921D82EB8018D2D0E942B09B1
:102B80008C01982EF701A580A2949FE0A922D28003
:102B9000D1101092F8028091F602877099F0DD2032
:102BA00089F0812F807F803421F080E2800F88308F
:102BB00048F082E00E9465228091F6028770CC2462
:102BC000C3948111C12CB12EB2948FE0B8228B2D09
:102BD00090E08C30910508F040C2FC01E759FF4FAE
:102BE0000C94CC28812F807F1F70882311F01295C0
:102BF000107FDD20B9F0112309F41AC280E2800FA2
:102C0000883010F0911006C08091F902182B1093B3
:102C1000F90205C08091F802182B1093F8020E9467
:102C20004F2106C2802F0E943425112309F415C2BA
:102C3000005E1095083010F0911006C08091F902E6
:102C400018231093F90205C08091F80218231093FD
:102C5000F8020E944F2101C2812F807F1F708032B5
:102C600011F01295107F992021F0F1E09F16E1F00C
:102C70002AC0DD2081F08091FA02AA2051F001E003
:102C8000A01207C0182B181709F4E7C11093FA0215
:102C9000E4C1812B10C0AA2021F021E0A21609F482
:102CA000DCC10E94492127C0DD2041F035E03A1502
:102CB00008F4D3C1812F0E942A25CFC184E08A1550
:102CC00008F4CBC118C0DD2049F0AA2099F3F70120
:102CD000858180FFADC18F708583ECCFAA2059F02C
:102CE000093309F0B7C1FFEF17EE23E0F1501040B0
:102CF0002040E1F7ADC1812F0E941F25AEC1812F79
:102D000086958695837019F0813059F0A6C1DD2033
:102D100019F0C801937002C080E090E00E94640541
:102D2000A2C1DD2019F0C801937002C080E090E0DC
:102D30000E944E0598C1802FDD2019F00E945E1F71
:102D400002C00E94971E0E9418208DC1812F83709F
:102D500009F069C0D11085C1902F92959695977012
:102D6000990F990F802F8F70882E912CA12CB12C48
:102D7000092E04C0880C991CAA1CBB1C0A94D2F70B
:102D800004FF12C04FE050E060E070E004C0440F68
:102D9000551F661F771F9A95D2F7DB01CA018095F0
:102DA0009095A095B09503C080E090E0DC01169569
:102DB0001695412F4370423019F1C8F40091FB027F
:102DC0001091FC022091FD023091FE02413059F039
:102DD00088299929AA29BB29BC01CD016023712327
:102DE000822393230AC0802A912AA22AB32ABC01F3
:102DF000CD01682979298A299B290E949F2231C106
:102E000088299929AA29BB290091FB021091FC026B
:102E10002091FD023091FE02BC01CD016027712797
:102E200082279327EACFDD2019F0812F817001C01E
:102E30008695882309F415C1902F929596959770E1
:102E4000990F990F802F8F70882E912CA12CB12C67
:102E5000092E04C0880C991CAA1CBB1C0A94D2F72A
:102E600004FF12C04FE050E060E070E004C0440F87
:102E7000551F661F771F9A95D2F7DB01CA0180950F
:102E80009095A095B09503C080E090E0DC01169588
:102E90001695412F43704230D9F068F500919402A5
:102EA000109195022091960230919702413059F08D
:102EB00088299929AA29BB29BC01CD016023712346
:102EC000822393231EC0802A912AA22AB32A13C0E8
:102ED00088299929AA29BB29009194021091950269
:102EE0002091960230919702BC01CD016027712795
:102EF0008227932706C0BC01CD01682979298A2938
:102F00009B290E942222ADC01F70DD2039F0812F45
:102F10000E947E22802F0E942A25A3C0802F0E941B
:102F20001F25812F0E9440229CC0802F32EF9316D4
:102F300009F440C0391538F090EF991661F0E1EFCF
:102F40009E1699F170C0F3EF9F16D9F124EF9216F7
:102F500009F44EC068C0DD2019F134E03A1508F4D8
:102F60007CC01F7181E090E0A0E0B0E0AC01BD0149
:102F700004C0440F551F661F771F1A95D2F7809122
:102F8000940290919502A0919602B09197028A01C5
:102F90009B01082719272A273B27C901B80125C00B
:102FA00025E02A1508F459C0DCCFDD2029F0812F57
:102FB0008F712CC0DD20D9F3812F8F710E944022A8
:102FC0004CC0DD2079F01F7181E090E0A0E0B0E01E
:102FD000BC01CD0104C0660F771F881F991F1A9589
:102FE000D2F703C060E070E0CB010E94222235C01E
:102FF000DD2079F01F71812F0E947E2238E0139F1F
:10300000C001112483608093F602812F0E947E22EA
:1030100024C081E00E94652281E08A15F0F482E0FC
:103020000E9465221AC0DD2039F0AA2009F4BFCF22
:10303000802F0E94732511C0AA2009F4BDCF8933C7
:1030400049F49FEFE7EEF3E09150E040F040E1F704
:1030500000C00000802F0E94342588EF8B0D843043
:1030600010F40E947A05CC2009F4A5C08091F602E4
:1030700080FDA1C0F70112828595859585950E94F6
:103080007E22C7010E9479128091F602859585956E
:10309000859529960FB6F894DEBF0FBECDBFDF91A0
:1030A000CF911F910F91FF90EF90DF90CF90BF9045
:1030B000AF909F908F907F906F905F900C94402284
:1030C00001318FE5180709F07BCB82E045CB89E21F
:1030D00012CDEB58FF4F0C94CC2880916A0280FFF0
:1030E00020C08E7F80936A0260916A0270916B02A9
:1030F00080916C0290916D020E9474070E94940668
:1031000080914E02816080934E021FEF20E732E0F3
:10311000115020403040E1F700C000000E949B06A3
:103120001FCB816080936A0261E0869536C041EDD5
:1031300058E06AED78E02CC04AED58E061ED78E0A7
:1031400027C04DE558E066E678E022C046E658E044
:103150006DE578E01DC045E458E061E578E018C011
:1031600041E558E065E478E013C04DE258E069E3DA
:1031700078E00EC049E358E06DE278E009C04FE620
:1031800058E060E878E004C040E858E06FE678E096
:103190000E948E06E5CA61E081E00E949108E0CAC3
:1031A00065E082E005C068E086E002C062E189E097
:1031B0000E94E408D5CA29960FB6F894DEBF0FBE68
:1031C000CDBFDF91CF911F910F91FF90EF90DF90D6
:1031D000CF90BF90AF909F908F907F906F905F90B7
:1031E00008950F931F938091940290919502A0915E
:1031F0009602B09197028C019D010670112722273B
:103200003327BC01CD01063011052105310511F42C
:10321000686001C0677F1F910F910C9422221F9359
:10322000CF93DF93CDB7DEB7AA970FB6F894DEBF82
:103230000FBECDBFEBE8F2E08091F100819342E058
:10324000E339F407C9F780918C02833009F462C036
:1032500030F4813071F0823009F49CC0B3C08A3000
:1032600009F488C08B3009F46DC0893009F0AAC018
:1032700020C080918B02813A09F0A4C08091E800BF
:10328000877F8093E80080918F0290919002892B34
:1032900021F468E080E892E003C060E080E090E024
:1032A00070E00E9439268091E8008B778093E800D7
:1032B00089C080918B02813209F084C080918F0295
:1032C00090919002009719F0029709F07BC08091CD
:1032D000E800877F8093E8008091E80082FD05C0C8
:1032E000809193028111F8CF6DC02091F3008091FD
:1032F000F20090E0922B029729F48091F1008B7FED
:10330000813021F48091F10080937F028091E80068
:103310008B7754C080918B02813A09F053C0809121
:103320008F0290919002892B09F04CC08091E800A7
:10333000877F8093E8008091E80080FFFCCF809138
:103340002D0137C080918B028132E1F580918F028F
:1033500090919002892BB1F58091E800877F80934E
:10336000E8000E94E52580918D0280932D010E9446
:10337000142528C080918B02813221F58091E800CC
:10338000877F8093E8000E94E52580918E028093DC
:103390007E0218C080918B02813AA1F48091E800EE
:1033A000877F8093E8008091E80080FFFCCF8091C8
:1033B0007E028093F1008091E8008E778093E80090
:1033C0000E94E5258091E80083FFE9C180918B028E
:1033D00090918C02492F50E04A30510508F0DFC12E
:1033E000FA01E757FF4F0C94CC28803821F082383F
:1033F00009F0D5C108C08091880290918902992373
:1034000089F082600FC080918F028F70873008F042
:10341000C6C18093E9008091EB0085FB882780F985
:103420001092E9009091E800977F9093E8008093D4
:10343000F1001092F1007CC1282F2D7F09F0AFC15F
:10344000882319F0823061F0AAC180918D02813009
:1034500009F0A5C1933009F080E0809389022EC065
:1034600080918D0281112AC080918F028F702FEF81
:10347000280F263008F093C18093E9002091EB00DB
:1034800020FF1CC0933021F48091EB00806214C0B7
:103490009091EB0090619093EB0021E030E0A90166
:1034A00002C0440F551F8A95E2F74093EA0010923C
:1034B000EA008091EB0088608093EB001092E900B5
:1034C0008091E800877F8093E8000E94E52567C12E
:1034D000811165C110918D021F778091E300807882
:1034E000812B8093E3008091E800877F8093E80040
:1034F0000E94E5258091E80080FFFCCF8091E300E9
:1035000080688093E300111102C082E001C083E073
:103510008093930244C18058823008F040C12091CA
:103520008D0230918E022C3D53E0350779F583E012
:103530008A838AE289834FB7F894DE01139620E0EC
:103540003EE051E2E32FF0E050935700E49120FF7A
:1035500003C0E295EF703F5FEF708E2F90E0EA308E
:1035600010F0C79601C0C0968D939D932F5F2431B4
:1035700049F74FBF8091E800877F8093E8006AE2B7
:1035800070E0CE0101960E943926C0C080918F0262
:1035900090919002432F552743305105B1F068F4C4
:1035A0004130510509F40AC14230510509F0F7C014
:1035B0008BE590E0E1E5F6E057C04132510589F135
:1035C0004232510509F43CC0EAC0C9019927813053
:1035D0009105B9F070F082309105D9F0039709F0A8
:1035E000DEC0EEEBF6E0E4918E2F90E0EEEBF6E03D
:1035F00038C0E4EEF6E0E4918E2F90E0E4EEF6E0E1
:1036000030C0E0EDF6E0E4918E2F90E0E0EDF6E0E2
:1036100028C0E4ECF6E0E4918E2F90E0E4ECF6E0D4
:1036200020C08330910508F0BAC0880F991FFC01B3
:10363000E859FE4F0190F081E02D89E090E014C040
:103640008330910508F0ABC0FC01EE0FFF1FEE596F
:10365000FE4F0190F081E02DDC01A15ABE4F8C910C
:1036600090E0009709F49BC02091E800277F209309
:10367000E80020919102309192022817390708F44E
:10368000C90140E0009789F120919302222309F4B7
:103690003DC02530D9F12091E80023FD37C02091AD
:1036A000E80022FD2FC02091E80020FFEBCF4091E1
:1036B000F3002091F20030E0342B009759F02830CD
:1036C000310540F444914093F100319601972F5F0A
:1036D0003F4FF3CF41E02830310509F040E0209121
:1036E000E8002E772093E800CDCF4111CDCF0AC05E
:1036F00080919302882351F0853041F08091E80059
:1037000083FD04C08091E80082FFF2CF8091E80041
:103710008B778093E80043C0803809F040C08091E7
:10372000E800877F8093E80080918A028093F1000F
:103730008091E8008E77C7CE811131C080918D02D3
:1037400090918E029927029754F58091E800877F27
:103750008093E80010918D0210938A020E94E52563
:10376000111106C08091E30087FD02C081E001C015
:1037700084E08093930242E061EC81E00E940426A1
:1037800042E261EC84E00E94042642E261EC82E0C5
:103790000E94042642E260EC83E00E9404268091AD
:1037A000E80083FF10C08091E800877F8093E800E5
:1037B0008091EB0080628093EB0005C082E190E095
:1037C000ECEAF6E051CFAA960FB6F894DEBF0FBE32
:1037D000CDBFDF91CF911F9108951F920F920FB629
:1037E0000F9211242F933F934F935F936F937F9387
:1037F0008F939F93AF93BF93CF93DF93EF93FF93F9
:10380000C091E900CF708091EC00D82FD17080FD7D
:10381000D0E81092E9008091F000877F8093F0005B
:1038200078940E940F191092E9008091F00088604E
:103830008093F000CD2BCF70C093E900FF91EF9102
:10384000DF91CF91BF91AF919F918F917F916F91B8
:103850005F914F913F912F910F900FBE0F901F904E
:103860001895E8EDF0E080818E7F80831092E20071
:103870001092DA001092E100A0EEB0E08C9181602D
:103880008C9380818F77808319BCA7EDB0E08C91F9
:103890008E7F8C9380818F7E808310927D0208952D
:1038A000CF92DF92EF92FF920F931F93CF93DF930C
:1038B000C8EDD0E088818F7E8883E7EDF0E08081DD
:1038C0008160808384E082BF81E080937D02888173
:1038D0008E7F888302EE10E0F80110821092DA00E9
:1038E00081EEC82ED12CF601108288818F778883D3
:1038F00088818068888388818F7D888319BC109235
:10390000930210928A02109289021092880290EE1D
:10391000E92EF12CF70180818B7F80838881816083
:10392000888342E060E080E00E940426F601808106
:103930008E7F8083F80180818160808380818860B0
:103940008083F70180818E7F808388818061888376
:10395000DF91CF911F910F91FF90EF90DF90CF906B
:1039600008951F920F920FB60F9211242F933F9339
:103970004F935F936F937F938F939F93AF93BF9377
:10398000EF93FF938091E10082FF09C08091E200F4
:1039900082FF05C08091E1008B7F8093E1008091E0
:1039A000DA0080FF2AC08091D80080FF26C0809175
:1039B000DA008E7F8093DA008091D90080FF18C0F2
:1039C00080E189BD82E189BD09B400FEFDCF81E0BF
:1039D0008093930280917D0281110FC00E94311C5F
:1039E0000E94501C8091E20084608093E20005C038
:1039F00019BC1092930210927D028091E10080FF29
:103A000017C08091E20080FF13C08091E2008E7F9A
:103A10008093E2008091E20080618093E2008091D7
:103A2000D80080628093D80019BC85E0809393020F
:103A30008091E10084FF32C08091E20084FF2EC0BB
:103A400080E189BD82E189BD09B400FEFDCF80918E
:103A5000D8008F7D8093D8008091E1008F7E809385
:103A6000E1008091E2008F7E8093E2008091E2008D
:103A700081608093E20080918A02882311F084E0C3
:103A800007C08091E30087FD02C081E001C083E0B0
:103A9000809393020E9414250E947A058091E10090
:103AA00083FF27C08091E20083FF23C08091E10063
:103AB000877F8093E10082E08093930210928A02D4
:103AC0008091E1008E7F8093E1008091E2008E7F03
:103AD0008093E2008091E20080618093E20042E006
:103AE00060E080E00E9404268091F000886080936E
:103AF000F000FF91EF91BF91AF919F918F917F91D6
:103B00006F915F914F913F912F910F900FBE0F904A
:103B10001F9018952091E4003091E50095E64091C2
:103B2000EC00842F817040FF23C08091E80080FD6D
:103B30001DC080919302882399F0853099F080917F
:103B4000EB0085FD11C04091E4005091E500241781
:103B5000350729F3915011F09A01E1CF84E00895DF
:103B600082E0089583E0089581E0089580E008955B
:103B70004091E80042FFDDCF0895EF92FF920F934E
:103B80001F93CF93DF937C018B010E948A1D8111CB
:103B900019C0E70101151105A1F08091E80085FD2C
:103BA0000AC08091E8008E778093E8000E948A1D09
:103BB000882381F307C089918093F1000150110996
:103BC000E9CF80E0DF91CF911F910F91FF90EF90AF
:103BD0000895CF93209193022430F9F4C091E90025
:103BE000CF703091EC00232F217030FD20E8C22BE4
:103BF00022E02093E9002091E80020FF0BC040E084
:103C000050E060E270E00E94BD1D8091E8008E7778
:103C10008093E800CF70C093E900CF910895809120
:103C20007F020895CF93DF9300D01F92CDB7DEB708
:103C300090919302943011F589837B836A839093EA
:103C4000E9008FEF9091E800815095FD06C095ED59
:103C50009A95F1F700008111F5CF8091E80085FF7A
:103C60000DC040E050E063E070E0CE0101960E949C
:103C7000BD1D8091E8008E778093E8000F900F9033
:103C80000F90DF91CF910895BC0184E00C94121E37
:103C9000BC0183E00C94121E24E02093E9002FEF76
:103CA0003091E800215035FD06C035ED3A95F1F729
:103CB00000002111F5CF2091E80025FF0BC040E066
:103CC00050E066E070E00E94BD1D8091E8008E77B4
:103CD0008093E8000895CF93DF9321E02093E900DB
:103CE0002FEF3091E800215035FD06C035ED3A95B3
:103CF000F1F700002111F5CF2091E80025FF14C055
:103D0000EC0140E050E068E070E00E94BD1D809151
:103D1000E8008E778093E80088E0FE01A0E8B2E03A
:103D200001900D928A95E1F7DF91CF910895803F40
:103D300039F480915D0287FF6AC010925D0267C00E
:103D4000813F29F480915D021816BCF360C0909108
:103D50005C02823F29F497FF5AC010925C0257C060
:103D6000833F19F41916CCF352C090915E02893F3B
:103D700031F419160CF04BC010925E0248C08A3F15
:103D800019F497FF44C0F8CF8B3F39F480915F025C
:103D900087FF3DC010925F023AC08C3F29F48091AA
:103DA0005F021816BCF333C0843F21F480915B029C
:103DB0008E7F17C0853F21F480915B028D7F11C0FB
:103DC000863F21F480915B028B7F0BC0873F21F4FB
:103DD00080915B02877F05C0883F31F480915B0250
:103DE0008F7E80935B0213C08D3F21F48091FF0290
:103DF0008E7F0BC08E3F21F48091FF028D7F05C026
:103E00008F3F29F48091FF028B7F8093FF02809186
:103E10005C02811106C080915D02811102C0109286
:103E2000570280915E02811106C080915F0281116C
:103E300002C01092540208958091FF0280FD16C0C6
:103E400081FD16C082FD18C080915402882391F034
:103E5000883290F428E0829FC001112468E270E06B
:103E60000E94B828862F672B29F007C082E00895AA
:103E700084E0089581E0089588E008958091FF022C
:103E800080FD14C081FD14C082FD16C080915702D0
:103E9000882381F0843180F422E3829FC0011124C1
:103EA00064E170E00E94B828862F08958CE00895A0
:103EB00089E1089585E0089582E30895803F21F423
:103EC0000E943E1F819504C0813F29F40E943E1F3D
:103ED00080935D020895823F21F40E943E1F8195E8
:103EE00004C0833F29F40E943E1F80935C02089522
:103EF000893F19F40E941C1F05C08A3F31F40E94BB
:103F00001C1F819580935E0208958B3F21F40E94CF
:103F10001C1F819504C08C3F29F40E941C1F8093B4
:103F20005F020895843F21F480915B02816017C095
:103F3000853F21F480915B02826011C0863F21F4AD
:103F400080915B0284600BC0873F21F480915B020B
:103F5000886005C0883F31F480915B028061809366
:103F60005B0208958D3F21F48091FF0281600BC0B8
:103F70008E3F21F48091FF02826005C08F3F29F4BB
:103F80008091FF0284608093FF02089587E797E79E
:103F900090930108809300089AE088E10FB6F894A6
:103FA000A895809360000FBE90936000FFCF789437
:103FB0001F920F920FB60F9211248F939F93AF937E
:103FC000BF938091770290917802A0917902B0918D
:103FD0007A020196A11DB11D809377029093780219
:103FE000A0937902B0937A02BF91AF919F918F9184
:103FF0000F900FBE0F901F9018959C014FB7F8942B
:104000008091770290917802A0917902B0917A0222
:104010004FBF821B930B08952FB7F89480917702BE
:1040200090917802A0917902B0917A022FBF089501
:104030000E940C2020915C02211104C020915D029D
:10404000222321F0909359028093580220915E021E
:10405000211104C020915F02222321F09093560287
:1040600080935502E0914002F0914102309749F06F
:1040700082E080935A020480F581E02D8AE592E087
:10408000099408951F920F920FB60F9211248F93E7
:104090009F93AF93BF9380914202811113C080918F
:1040A000770290917802A0917902B0917A024196BC
:1040B000A11DB11D8093770290937802A09379029D
:1040C000B0937A02BF91AF919F918F910F900FBEE5
:1040D0000F901F9018959C01FC0132969FEF80E095
:1040E0004191461789F09F3F19F4411101C0982F63
:1040F0008F5F8630A9F79F3F39F0F901E90FF11D75
:1041000097FDFA95628308950895CF9384E090E037
:104110000E945C28C82F81E290E00E945C282C2F2E
:1041200030E0A901582BCA01CF9108956CEE7EEFC3
:1041300080E090E00E948E2860E082E090E00E94A3
:10414000702860E083E090E00E9470281092FB02EB
:104150001092FC021092FD021092FE0260E084E0D8
:1041600090E00E94702860E081E290E00E94702858
:1041700060E085E090E00E94702860E086E090E0DA
:104180000E9470286FEF87E090E00E94702840E066
:1041900050E0BA0188E090E00E94822860E08DE063
:1041A00090E00E94702840E050E0BA0188E190E081
:1041B0000E94822860E087E190E00E94702840E041
:1041C00050E0BA018CE190E00E94822860E080E239
:1041D00090E00E94702840E050E0BA018FE090E04B
:1041E0000E94822840E050E0BA0183E190E00C9404
:1041F0008228CF92DF92EF92FF926C01EE24FF248F
:10420000C114D104E104F10421F0C701B60120E199
:1042100001C020E0C72ED82EE92EFF24C114D104FE
:10422000E104F10419F0285FC701B6016B017C01BC
:1042300054E0F694E794D794C7945A95D1F7C114F3
:10424000D104E104F10419F02C5FC701B6016B0140
:104250007C0142E0F694E794D794C7944A95D1F74D
:10426000C114D104E104F10419F02E5FC701B601B5
:10427000DC01CB01B695A79597958795892B8A2B5D
:104280008B2B09F02F5F822FFF90EF90DF90CF9064
:1042900008958091FA0281111092FA020895909186
:1042A000F9028091F802892B2091F702982F922B26
:1042B000909398028091FA02882389F0892B809349
:1042C0009802EAE9F2E097E080E0915029F021912C
:1042D0002223D9F38F5FF9CF81110E944921E09108
:1042E0004002F0914102309731F00280F381E02DDD
:1042F00088E992E009940895BF92CF92DF92EF92FD
:10430000FF920F931F93CF93DF938C01C090940281
:10431000D0909502E0909602F09097028091FB0277
:104320009091FC02A091FD02B091FE02C82AD92A08
:10433000EA2AFB2ACFE1D0E0D701C6010C2E04C047
:10434000B695A795979587950A94D2F780FD04C0F6
:10435000219790F7B12C07C0BC2EB8018C2F0E947A
:104360002B090197A9F38B2DDF91CF911F910F910D
:10437000FF90EF90DF90CF90BF900895CF93DF93A1
:10438000EC010E947C21BE010E942B09DF91CF919C
:104390000895292F220F920F990F890F682F669584
:1043A00066956695982F977085E0689FB0011124F7
:1043B00040E050E080E0FB01E40FF51FE852FD4FC4
:1043C000208130E0092E02C0369527950A94E2F745
:1043D00021703327042E01C0220F0A94EAF7822BA2
:1043E0004F5F5F4F4530510531F70895292F220F58
:1043F000920F990F890FE82FE695E695E69587705D
:1044000051E001C0550F8A95EAF785E0E89FF00179
:104410001124E852FD4F20E030E070E04081CB01F4
:10442000022E02C0969587950A94E2F781708195D5
:1044300084278523842781932F5F3F4F25303105C3
:1044400069F708950F931F938B019C010670112744
:1044500022273327DC01CB01063011052105310568
:1044600011F4886001C0877F809394029093950235
:10447000A0939602B09397021F910F910C94F7248A
:104480000F931F9341E050E060E070E004C0440FE0
:10449000551F661F771F8A95D2F7409550956095F6
:1044A00070958091940290919502A0919602B0919E
:1044B00097028A019B01082319232A233B23C90160
:1044C000B8011F910F910C9422222091F602809541
:1044D00082238093F602982F977079F430E0482F6A
:1044E000082E000C550B2417350739F08595859556
:1044F00085950E9440221092F60208950F931F9313
:1045000041E050E060E070E004C0440F551F661FBA
:10451000771F8A95D2F78091940290919502A0918D
:104520009602B09197028A019B01082B192B2A2B26
:104530003B2BC901B8011F910F910C94222260936B
:10454000FB027093FC028093FD029093FE020C9498
:10455000F7248091D7029091A602891719F08F5FF6
:104560008770FBCF08950F931F93CF93DF938091B4
:10457000A50282958F7009F05DC08091A202882308
:1045800009F458C08091D7021091A6026091A00250
:104590007091A102C091A302D091A40291E06F3F5B
:1045A00009F090E0292F06E0811709F443C0209715
:1045B00021F07F3F21F030E003C031E001C0322F15
:1045C00090E030FD34C0089FF001099FF00D1124E8
:1045D000DF01A955BD4F11963C911197371327C0A4
:1045E0003C91361324C012963C91129731111FC092
:1045F00013964D915C9114974C1B5D0B483C5105F3
:10460000B0F48091A5028F7080618093A502E4557B
:10461000FD4F80818F708061808380EA92E00E94EC
:104620007912DF91CF911F910F910C94A9220196DD
:104630008770BACFDF91CF911F910F9108950E949B
:10464000BE21292F2F70E92FE295EF704E2F50E0F9
:10465000FA013297EE30F105B8F4ED56FF4F0C94A5
:10466000CC28803F99F018F4883E70F40FC0843F46
:1046700059F40CC0883E50F0813F31F407C0822FBE
:10468000869586958695089580E0089581E0089541
:104690009F92AF92BF92CF92DF92EF92FF920F93D1
:1046A0001F93CF93DF93CDB7DEB761970FB6F89422
:1046B000DEBF0FBECDBF8C0185E0F801DE011D9687
:1046C00001900D928A95E1F7F80190818181E28055
:1046D0003091A0026091A1024091A3025091A402E6
:1046E0004115510531F06F3F31F421E03F3F19F49E
:1046F00003C021E001C020E0F22FF1709F2E20FDC9
:1047000023C1F801C380D48020EAA22E22E0B22E79
:10471000F090A202F601E41BF50BFF2009F4CEC0D5
:104720002091A502E83CF10508F099C0422F407F96
:1047300009F051C0681311C039130FC0FE2CE110ED
:104740000CC02F7020612093A502C5010E94791230
:104750008091A502F801858337C1CD2831F08F3FC4
:1047600031F421E09F3F19F403C021E001C020E0B3
:1047700020FD03C021E02E2502C020E030E0F22F12
:10478000F170FF2E20FF1DC02091D7024091A6029C
:1047900056E0241709F4F6C030E0529FF001539F11
:1047A000F00D1124E955FD4F6181861306C060812B
:1047B000961303C06281E61204C02F5F3F4F27703B
:1047C000E8CFFE2CEE2009F4FFC08091A5028160A5
:1047D0008093A50250C0681307C0391305C0E110CB
:1047E00003C0F80125838DC09D878E878D859E85AA
:1047F0000E941F23882369F1EE2059F12091A50220
:10480000822F82958F7090E0029774F08091A002C1
:104810009091A10298878F831986DB86CA862C87A0
:10482000CE0107960E94791286E0F801A0EAB2E074
:1048300001900D928A95E1F70E94B3220DC068178E
:10484000E1F09D878E878D859E850E941F238111B3
:104850001EC0C8010E947912FF24F394B5C0422FF4
:10486000407F69F780EA92E00E94791286E0F501C4
:1048700011928A95E9F7F12CA7C03913E2CFE11024
:10488000E0CFF8012583C8010E94791257C0EE20BD
:1048900001F32091A502822F82958F7090E00297FC
:1048A0001CF28091A0029091A1029A8389831B82BD
:1048B000DD82CC822E83CE010196B4CFE83CF10597
:1048C000E8F5FE2CEE2029F2681327C0391325C025
:1048D0002091A50220FD18C0822F82958F70482F4D
:1048E00050E04115510581F0F80125834F30510505
:1048F00041F08F5F982F9295907F822F8F70892B38
:104900008583C8010E94791286E0F801A0EAB2E02E
:1049100001900D928A95E1F757C09D878E878D850E
:104920009E850E941F2381117FCF8091A502816007
:104930008093A502C8010E94791246C086E0F50165
:1049400011928A95E9F740C0EE2009F482CF9D8745
:104950008E878D859E850E941F23F82E882309F45B
:1049600078CF86E0F801A0EAB2E001900D928A9536
:10497000E1F78091A0029091A1020E94BE210E94C5
:10498000B32222C09D878E878D859E850E94BE2181
:10499000292F22952F70223028F49F7039F0811131
:1049A00005C00BC0243028F49F7049F4805E883025
:1049B00020F0C8010E9479129F2CF92C05C0F80143
:1049C0009581907F99F7F9CF8F2D61960FB6F89466
:1049D000DEBF0FBECDBFDF91CF911F910F91FF9032
:1049E000EF90DF90CF90BF90AF909F90089510927E
:1049F000F8021092F7020E944F21EAE5F2E086E009
:104A0000DF011D928A95E9F7109257021092540225
:104A10001092FF020E94182080E090E00E9464053E
:104A200080E090E00C944E051092F90286E0EAE9ED
:104A3000F2E0DF011D928A95E9F70C94F7248823B0
:104A400041F080959091F90289238093F9020C94AA
:104A50004F210895882339F09091F902892B809392
:104A6000F9020C944F2108958823E1F19CEF980FEF
:104A7000913A60F4E8E9F2E09281891301C0128270
:104A8000319642E0EE39F407B9F714C090E2980F7E
:104A9000983090F4877021E030E0A90102C0440F03
:104AA000551F8A95E2F7CA0180959091F9028923F2
:104AB0008093F9020C944F219BE5980F933020F4DA
:104AC00080E090E00C94640598E5980F973120F40D
:104AD00080E090E00C944E05803F20F00E94971EED
:104AE0000C9418200895CF93882309F459C0C82F37
:104AF0008CEF8C0F813AF8F4EAE9F2E080EA92E078
:104B00002191C21721F08E179F07D1F70EC0E8E957
:104B1000F2E08EE992E02281C21301C01282319646
:104B20008E179F07C1F70E944F216C2F88E992E0F2
:104B30000E946B2010C080E28C0F883078F4C77020
:104B400081E090E001C0880FCA95EAF79091F902E0
:104B5000892B8093F902CF910C944F21EBE5EC0F58
:104B6000E33040F4F0E0E259FE4F808190E0CF91D5
:104B70000C946405E8E5EC0FE73150F4F0E0EE0F3B
:104B8000FF1FEF58FE4F80819181CF910C944E050D
:104B9000C03F30F08C2F0E945E1FCF910C941820E4
:104BA000CF910895CF93C82F0E947325C93349F43C
:104BB0002FEF87EE93E0215080409040E1F700C056
:104BC00000008C2FCF910C94342580918B0287FFAD
:104BD00011C08091E80082FD05C08091930281118F
:104BE000F8CF11C08091E8008B770BC080919302C1
:104BF000882349F08091E80080FFF8CF8091E80099
:104C00008E778093E8000895982F973068F59093F9
:104C1000E900981739F07091EC002091ED00509167
:104C2000F00003C0242F762F50E021FD02C09F5FCB
:104C3000ECCF3091EB003E7F3093EB003091ED00F4
:104C40003D7F3093ED003091EB0031603093EB000D
:104C50007093EC002093ED005093F0002091EE0053
:104C600027FDE5CF80E008958F708093E90081E013
:104C7000089520919102309192022617370748F04B
:104C80006115710539F42091E8002E772093E80032
:104C900001C0B901FC0120E06115710579F1809135
:104CA00093028823F1F18530F1F18091E80083FDD2
:104CB0003CC08091E80082FD2EC08091E80080FF1A
:104CC000EBCF2091F3008091F20090E0922B6115E0
:104CD000710551F08830910538F421912093F1004D
:104CE000615071090196F3CF21E0089709F020E0A7
:104CF0008091E8008E778093E800CECF2111CFCF4E
:104D00000AC080919302882361F0853061F0809120
:104D1000E80083FD0AC08091E80082FFF2CF80E0C6
:104D2000089582E0089583E0089581E008958EE17A
:104D30004A9B02C08150E1F74A9BFECF08955A98E2
:104D400080E28A95F1F75A9A0895FC012AE02A95A3
:104D5000F1F790E020E080E031E0261779F040E1C3
:104D60004A95F1F7880F4A9B02C08160932700C0E3
:104D7000000040E14A95F1F72F5FEFCF20E12A953F
:104D8000F1F729B100C0000030E13A95F1F722FBBC
:104D9000222720F992272081920F90830895EF9285
:104DA000FF920F931F93CF93DF931F92CDB7DEB780
:104DB00019828C017C01E60EF11C0E151F0559F0BD
:104DC0000E94972668E0CE0101960E94A526F80170
:104DD00081938F01F2CF81E09981911180E00F9052
:104DE000DF91CF911F910F91FF90EF9008959093D5
:104DF00002038093010360930003529A5A9A089524
:104E000090930203809301036093000352985A9A8F
:104E1000EA9AE9E6F0E080818F7C80830895615012
:104E200091E001C0990F6A95EAF720E031E09923FB
:104E300061F0492F482319F05A9A232701C05A9844
:104E400040E24A95F1F79695F2CF222311F05A9A53
:104E500001C05A9880E28A95F1F75A980895FF9216
:104E60000F931F93CF93DF93EC018C01060F111D5D
:104E7000C017D10741F0F9900E949F2668E08F2D5E
:104E80000E940F27F5CFDF91CF911F910F91FF90D7
:104E900008951F920F920FB60F9211240F931F9334
:104EA0002F933F934F935F936F937F938F939F9332
:104EB000AF93BF93EF93FF93CF93DF931F92CDB741
:104EC000DEB719820E94972667E0CE0101960E9404
:104ED000A526382F369536953695932F969595704D
:104EE000232F2570920F292F237096959695877002
:104EF000920F891348C08981811145C080910003B8
:104F0000831708F440C080E18A95F1F75A9A529AC3
:104F1000A2E0AA95F1F700C00091010310910203ED
:104F2000B8E03B9F000D111D11245A98F8016581CE
:104F3000662321F0868197810E942F270E949F2659
:104F4000F0E1FA95F1F75A9852985A9A80E18A95C9
:104F5000F1F7D80112966C911297662369F01396B7
:104F60008D919C9114970E94CF26D801ED91FC91D0
:104F7000811105C082E004C0D801ED91FC9188E068
:104F800080830E9497260F90DF91CF91FF91EF9140
:104F9000BF91AF919F918F917F916F915F914F9151
:104FA0003F912F911F910F910F900FBE0F901F9067
:104FB00018950F931F93CF93DF932091000330E058
:104FC000281739070CF471C09C0193E0220F331F9E
:104FD0009A95E1F7C0910103D0910203C20FD31F4C
:104FE000F894529A5A9845E04A95F1F70000982FA4
:104FF000969595708570890F982F937086958695F4
:10500000890F8901082B0E949F2684E08A95F1F779
:1050100000C067E0802F0E940F2740E14A95F1F71A
:1050200052985A9A4A9902C000C0FCCF87E090E09B
:105030004A9B0EC0019751F4529A5A9AE881F9811D
:1050400081E08083789481E090E031C000C0F0CFAF
:105050006D81662381F08E819F810E94CF26811110
:105060000AC0529A5A9AE881F98182E08083789442
:1050700082E090E01CC00E94972680E28A95F1F7BA
:105080005A98529A40E14A95F1F76A81662321F0D5
:105090008B819C810E942F270E949F26E881F981A5
:1050A0001082789480E090E002C084E090E0DF918C
:1050B000CF911F910F910895F999FECF92BD81BDB7
:1050C000F89A992780B50895A6E1B0E044E050E051
:1050D0000C949628A8E1B0E042E050E00C949628A9
:1050E000262FF999FECF92BD81BDF89A019700B4A1
:1050F000021639F01FBA20BD0FB6F894FA9AF99A41
:105100000FBE08950396272F0E9471280E947028D1
:10511000252F0E947128242F0C9471280196272F87
:105120000E9471280C947028DC01CB01FC01F999D4
:10513000FECF06C0F2BDE1BDF89A319600B40D92E3
:1051400041505040B8F70895AA1BBB1B51E107C05E
:10515000AA1FBB1FA617B70710F0A61BB70B881F07
:10516000991F5A95A9F780959095BC01CD01089596
:1051700097FB072E16F4009407D077FD09D00E9404
:10518000A42807FC05D03EF4909581959F4F089583
:10519000709561957F4F0895EE0FFF1F0590F49174
:1051A000E02D09946927962769277827872778278C
:1051B0000895FC014150504030F001900616D1F79F
:1051C0003197CF010895882799270895F894FFCF44
:1051D00001090A0B0C0D0E0F1011120028002828CF
:1051E0003102003102052C022B02082302000000CC
:1051F0000136660F1E6B1E4C1E481E441E01000128
:105200000202020206060609090909090909090933
:1052100009C63433320000000094F4F5F6F731008B
:10522000FF0100010000FFFF0000010001FF00403E
:1052300022811106EF056E0563067C069C068182BD
:1052400083E200E900EA00B500B600B700CD0083B4
:1052500001CC008A0192019401210223022402253B
:1052600002260227022A02B300B4006F0070000079
:00000001FF
