:100000000C9480030C94C7030C94C7030C94C01188
:100010000C94C7030C94C7030C94C7030C94C70338
:100020000C94C7030C94C7030C9469260C943B27CB
:100030000C94D11E0C94C7030C94C7030C94C703F3
:100040000C94C7030C94C7030C94C7030C94C70308
:100050000C94C7030C941E1F0C94C7030C94C70385
:100060000C94C7030C94C7030C94C7030C94C703E8
:100070000C94C7030C94C7030C94C7030C94C703D8
:100080000C94C7030C94C7030C94C7030C94C703C8
:100090000C94C7030C94C7030C94C7030C94C703B8
:1000A0000C94C7030C94C7030C94C703810D840DF3
:1000B000890D900D950D9A0D9F0DA40DA90DAE0DF6
:1000C000B30DB80DBC0DBF0DC60DC60DC60DC60DCA
:1000D000C20DC60D021502153415341581159F1574
:1000E000B316B316AA1543165416541653175317BE
:1000F000651765175C17651765176517531753174D
:100100006117651765176117A827CF27C728CF275D
:10011000C7281B283E28C7289528A4282900140092
:100120001A000800150017002B61040016000700D4
:1001300009000A00E1001D001B000600190005006F
:1001400000000000000005512C0012501C00180097
:100150000C00120013002A000B000D000E000F000F
:100160003300340011001000360037003800E5007D
:100170001150280004510000000000002900140064
:100180001A000800150017002B6104001600070074
:1001900009000A00E1001D001B000600190005000F
:1001A00000000000000005512C0012501C00180037
:1001B0000C00120013002A000B000D000E000F00AF
:1001C0003300340011001000360037003800E5001D
:1001D0001050280004510000000000000000000042
:1001E00052000000000000000000500051004F00CD
:1001F00000000000000000000000000000000000FF
:1002000000000000000005510000105024002500EF
:1002100026002D0038002A0021002200230057006C
:1002200055002B001E001F0020003700360028005C
:1002300013502700045100000000000001000100DD
:10024000010001000100010001000100C25CC55C69
:10025000C75CC95C01000100C35CC65CC85CCA5CC9
:100260000000000000000100010001000100010089
:100270000100010001000100010001000100010076
:100280000100010001000100010001000100010066
:1002900012500100010000000000000001001E00DB
:1002A0001F002000210022000100010001000100C8
:1002B0000100010001000100010001000100010036
:1002C00000000000000001000100010023002400E4
:1002D00025002600270001005000510052004F0069
:1002E00049004C00E60065004A004D004600E7006A
:1002F00001000100010000000000000001001E02DA
:100300001F0220022102220201000100010001005F
:1003100001000100010001000100010001000100D5
:10032000000000000000010001000100230224027F
:10033000250226022702350201002D022E022F027D
:100340003002310201000100010001000100010042
:1003500001000100010000000000000001003A005F
:100360003B003C003D003E00010001000100010097
:100370000100010001000100010001000100010075
:100380000000000000000100010001003F00240007
:10039000410042004300440001000100010001004F
:1003A0000100450001000100010001000100A562FB
:1003B000010001000100000000000000783C1E1E4A
:1003C000140A052223252628292A2C2D2F303233E2
:1003D0003536383A3B3D3E4042434547494A4C4E0C
:1003E0005051535557595A5C5E6062646668696B38
:1003F0006D6F71737577797B7D7F81838587898A3E
:100400008C8E90929496989A9C9E9FA1A3A5A7A843
:10041000AAACAEAFB1B3B4B6B8B9BBBCBEBFC1C273
:10042000C3C5C6C7C9CACBCCCDCED0D1D2D2D3D406
:10043000D5D6D7D7D8D9D9DADADBDBDBDCDCDCDC24
:10044000DCDDDDDDDDDCDCDCDCDCDBDBDBDADAD9F2
:10045000D9D8D7D7D6D5D4D3D2D2D1D0CECDCCCB74
:10046000CAC9C7C6C5C3C2C1BFBEBCBBB9B8B6B492
:10047000B3B1AFAEACAAA8A7A5A3A19F9E9C9A9822
:10048000969492908E8C8A89878583817F7D7B79F3
:10049000777573716F6D6B6968666462605E5C5AD4
:1004A0005957555351504E4C4A4947454342403E97
:1004B0003D3B3A3836353332302F2D2C2A29282629
:1004C000252322FFAA7F55400001010101010101FE
:1004D00001010202020202020202020303030303F9
:1004E00003030304040404040404050505050506C8
:1004F0000606060607070707070808080809090986
:10050000090A0A0A0B0B0B0C0C0C0D0D0D0E0E0E2E
:100510000F0F0F10101111111212131314141515BF
:1005200016161717181819191A1A1B1B1C1D1D1E31
:100530001E1F202021222223242425262627282985
:10054000292A2B2C2D2D2E2F3031323233343536B3
:100550003738393A3B3C3D3E3F40414243444546B3
:100560004748494A4C4D4E4F50515354555658598F
:100570005A5B5D5E5F616264656668696B6C6D6F36
:100580007072737577787A7B7D7E808283858788A9
:100590008A8C8E8F91939596989A9C9EA0A2A3A5E3
:1005A000A7A9ABADAFB1B3B5B7BABCBEC0C2C4C6E4
:1005B000C9CBCDCFD1D4D6D8DBDDDFE2E4E7E9EBA0
:1005C000EEF0F3F5F8FAFDFF0403300000000A0333
:1005D0007200650034003000000012036B007500EB
:1005E0007300680069006D006100380000000403BA
:1005F000090409023B00020100A0FA0904000001FD
:1006000003010100092111010001224000070581B9
:100610000308000A09040100010300000009211178
:100620000100012281000705820320000A12011047
:1006300001000000083839303401000102030105CF
:10064000010902A10185020901A100050919012979
:100650000515002501950575018102950175038138
:10066000010501093009311581257F950275088141
:100670000609381581257F950175088106050C0A44
:1006800038021581257F950175088106C0C00501D6
:100690000980A101850319012AB700150126B700B9
:1006A000950175108100C0050C0901A1018504198F
:1006B000012AA002150126A002950175108100C033
:1006C00005010906A101050719E029E71500250123
:1006D00095087501810295017508810105071900CA
:1006E00029FF150026FF00950675088100050819E9
:1006F000012905950575019102950175039101C0C8
:1007000011241FBECFEFDAE0DEBFCDBF04B603FE7B
:1007100027C08091320390913303A0913403B091AC
:1007200035038730904BA740B04BD1F41092320381
:1007300010923303109234031092350314BE84B721
:10074000877F84BF0FB6F894A89580916000886178
:1007500080936000109260000FBEE0E0F8E309951E
:1007600011E0A0E0B1E0E0E0F3E502C005900D92F9
:10077000AC3CB107D9F723E0ACECB1E001C01D926D
:10078000A233B207E1F70E9498230C947E290C94BF
:1007900000000F9306E025E044E00E943D040F9125
:1007A0000895CF93C62F882311F08130A1F4609172
:1007B00060027091610280916202909163020E94D6
:1007C000361D823040F4C11102C08AEF01C089EFAA
:1007D000CF910C94A714CF91089581E0089581E002
:1007E00008950C94EF0308950C94F3031F93CF9393
:1007F000DF9300D000D01F92CDB7DEB749835A8374
:100800006B833091090289819A81311114C066236A
:1008100059F0222349F00E94111C182F682F89815A
:100820009A810E94B81B03C00E94E41B182F6981A3
:100830007A81812F04C00E94111C69817A810F90F6
:100840000F900F900F900F90DF91CF911F910C940C
:10085000FE04FC01262F40815181628173818481D5
:100860000C94F603CF93DF93EC0160E00E9429041F
:10087000BE01DF91CF910C94F4038F929F92AF92BF
:10088000BF92CF92DF92EF92FF920F931F936B0173
:100890007C0181E090E0A0E0B0E04C015D0104C08B
:1008A000880C991CAA1CBB1C4A95D2F7AC01BD014F
:1008B00004C0440F551F661F771F2A95D2F7482999
:1008C00059296A297B2904C0880F991FAA1FBB1FB9
:1008D0000A95D2F78A019B010C211D212E213F216F
:1008E000401751076207730739F4BC01CD016C2929
:1008F0007D298E299F290AC080959095A095B09555
:10090000BC01CD016C217D218E219F211F910F9172
:10091000FF90EF90DF90CF90BF90AF909F908F901F
:1009200008950E94861D811102C00E94261E0C940B
:10093000FC060C94F80608950C949B0481E008953D
:100940000C949E04CF93C82F0E949C048C2F0E946D
:10095000A004CF91089508950E9441170E94AB040E
:100960002FEF84E39CE0215080409040E1F700C0ED
:1009700000000C94441F0F931F93CF93DF93EC015F
:1009800061E00E9429048C01BE010E94F1038823CA
:1009900079F1BE01C8010E94710F882349F1BE019F
:1009A000C8010E94B20F882319F1BE01C8010E943C
:1009B000DD108823E9F0BE01C8010E946A0D88237A
:1009C000B9F08A81882369F001158CE5180731F0A8
:1009D0000E3D1C4531F40E94261E0AC00E94AC0444
:1009E00007C0CE01DF91CF911F910F910C94ED03C1
:1009F00080E0DF91CF911F910F91089520E3829FB6
:100A0000C0011124FC0126E0729FE00DF11D1124AC
:100A1000E60FF11DEE0FFF1FE45EFE4F85919491EE
:100A20000895CF93DF930E94FE040E941306EC0109
:100A3000811521E5920708F043C0811540E5940730
:100A400008F08AC0883E910520F5803E910508F0A7
:100A5000E6C0883A910570F4853A910508F074C0B3
:100A60008130910509F4DBC008F4D7C0049708F081
:100A7000D6C0D3C08F3B910508F0CFC0C85AD0E094
:100A8000CC0FDD1FC85CDE4F0990D881C02DD46427
:100A9000C6C0C11580E2D80758F4C11521E0D207BD
:100AA00008F0BDC0C03FD10508F4B7C0D065B7C0DD
:100AB000C11540E4D40708F4B0C0DF70D06AAFC0FD
:100AC000C11585E5D807A0F4C11524E5D20708F0C3
:100AD0008AC0C11543E5D40708F06FC0C11582E58F
:100AE000D80708F054C0DC2FCC27C16FD06A97C05C
:100AF000C11529E5D207A0F4C11548E5D40708F0CF
:100B000077C0C11586E5D80708F087C08C2F0E94F2
:100B1000A7068F71C82FD0E0DC2FCC27D0627FC012
:100B2000C1152AE5D20708F468C0CE019056811598
:100B3000904208F072C08D2F8F710E94A706DD27AA
:100B4000D0628F71D82B6BC0C55AD0E0CA59DE4F26
:100B5000C881D0E0D06463C074E0969587957A959B
:100B6000E1F783709C2F937021E030E002C0220FE8
:100B7000331F9A95E2F73C68382BCF70C695C6951F
:100B800080E2C89FE0011124C22BD32B48C0CE01C4
:100B90008370992721E030E002C0220F331F8A952D
:100BA000E2F78C2F8695869540E2849FC001112440
:100BB000E901C82BD92BDC6832C0CE01837099279C
:100BC00021E030E002C0220F331F8A95E2F78C2F1C
:100BD0008695869540E2849FC0011124E901C82BC7
:100BE000D92BDA681CC0DC2FCC27C46FD06A17C0A1
:100BF000DC2FCC27C06FD06A12C08C2F8F700E9460
:100C0000A70694E0D695C7959A95E1F7CF70D0E006
:100C1000DC2FCC27D069C82B02C0C0E0D0E0CE01C9
:100C2000DF91CF9108958238910569F1B0F4813355
:100C3000910509F46DC048F48932910509F463C047
:100C40008A32910509F469C008958533910509F444
:100C500055C089339105B9F00895833E910569F136
:100C600038F4803E9105B1F0823E910509F1089576
:100C7000863E9105A9F1873E9105B9F1843E910523
:100C800009F064C023C02091230320FD4FC021FD43
:100C90004DC008958091230380FD44C080912403BA
:100CA00080FF44C08091230384FD42C083EE4DC089
:100CB0008091230382FF38C0F5CF8091230382FD0A
:100CC00033C08091240380FD31C0ECCF8091240398
:100CD00081FF32C08091230384FD2AC087EE35C096
:100CE0008091230383FF26C0F5CF8091230383FDEA
:100CF00021C08091240381FD1FC0ECCF809123038C
:100D000085FD1CC01DC08091230385FD19C016C040
:100D10008091230386FD16C017C08091230386FDB2
:100D200013C010C089E311C082EE0FC080EE0DC069
:100D300080E00BC086EE09C084EE07C089E205C0E2
:100D400085E303C08AE201C081E390E008959091B9
:100D5000230392FF0DC0282F2871283019F4877FB4
:100D6000846006C0282F2471243011F48B7F8860A2
:100D700093FF0DC0282F2871283119F4877E8461D4
:100D800006C0282F2471243111F48B7E88612091B4
:100D9000240320FF0DC0382F3871383019F4877FB5
:100DA000816006C0382F3171313011F48E7F886038
:100DB00021FF0DC0282F2871283119F4877E816109
:100DC00006C0282F2171213111F48E7E886194FD97
:100DD000877E0895E82FF0E0E856FD4F8081089562
:100DE000089580EA8A95F1F7089508950C94F50620
:100DF0000C94F6060C94F5060C94FA060895CF931D
:100E0000DF930E946C0880910001809100018111A4
:100E100002C094E001C090E09093A10284E0891B9D
:100E20008093A002AFE6B1E043E751E061E070E0FB
:100E30008D91E82FE295EF70F0E021A18F70EB012A
:100E400002C0CC0FDD1F8A95E2F7CE019C2F909552
:100E5000922391A392A1892B82A34A175B0741F7A2
:100E6000A9E6B1E04FE651E061E070E08D91E82F36
:100E7000E295EF70F0E021A18F70EB0102C0CC0F82
:100E8000DD1F8A95E2F7CE019C2F9095922391A3C6
:100E900092A1892B82A34A175B0741F7E0E9F2E0B0
:100EA000A8E9B2E088E992E011921D928E179F079F
:100EB000D9F784E00E9416080E949104DF91CF9137
:100EC0000C9480080E944D088823F1F08091A002C4
:100ED00090E088569D4F0E94B008811111C080910A
:100EE000CC018F5F8093CC01863060F0E091A0024E
:100EF000F0E0E856FD4F108211821282138202C088
:100F00001092CC010C9499048091A10290E0885633
:100F10009D4F0E94D3080C94FE066F927F928F9291
:100F20009F92AF92BF92CF92DF92EF92FF920F9378
:100F30001F93CF93DF938FE6882E81E0982E00E9F0
:100F400012E094E9A92E92E0B92E712CCC24C3941E
:100F5000D12CF40181914F01C82FC295CF70D0E000
:100F600099A18F70760101C0EE0C8A95EAF7892F5E
:100F70008E2989A38AA16E2C609486218AA30E945F
:100F8000F106E9E6F1E040E050E020E03191A32FE6
:100F9000A295AF70B0E090968C9190E03F7002C047
:100FA000959587953A95E2F780FD07C08C2D042E24
:100FB00001C0880F0A94EAF701C080E0282B4F5F38
:100FC0005F4F4630510511F789A1682269A28AA1B5
:100FD000E82AEAA2F8018081281719F0208381E02D
:100FE00001C080E0782A0F5F1F4FA016B10609F0FC
:100FF000B0CF6091A10270E068567D4F272D44E08C
:1010000080E992E00E9417080E946207872DDF9115
:10101000CF911F910F91FF90EF90DF90CF90BF90F5
:10102000AF909F908F907F906F9008950895FF925A
:101030000F931F93CF93DF938C01F62ED72FC42FDE
:10104000222349F081E08093CF010E94031F9093F7
:10105000CE018093CD018091CF018823C1F0809192
:10106000CD019091CE010E940F1F069780F0EF2DC9
:10107000FD2FD8014C2F50E0CD01801B910B841720
:1010800095071CF48D918193F7CF1092CF01DF91DA
:10109000CF911F910F91FF9008958091D001811100
:1010A00012C08091D80080618093D8008AE18A952F
:1010B000F1F700C08091D90080FD02C082E001C03C
:1010C00081E08093D00181E09091D001913009F0CE
:1010D00080E008950C944D080E946A0880930001F6
:1010E0008091000164E1882311F080E001C084E177
:1010F0000E9478090E944D0881110C948708089578
:101100000E944D08811102C00C948D08089562E080
:1011100070E081E091E00C946E1162E070E081E09B
:1011200091E00C9477110E947B0B882361F088ED8D
:1011300091E00E94810B81E090E00E945012892B87
:1011400011F40C947E0B08958091D701883039F406
:1011500060E088ED91E00E94590C1092D70108954B
:10116000CF93DF93D82FC92F0E94930880E090E09F
:101170000E945012892B99F4ED2FFC2F80E090E013
:10118000DC01AE52BE4F2C91219301968430910523
:10119000B9F786ED91E00E94CA0E81E001C080E0BF
:1011A000DF91CF910895CF93DF93D82FC92F0E945D
:1011B000A408ED2FFC2F80E090E02191DC01AE52DD
:1011C000BE4F2C93019684309105B9F786ED91E0DE
:1011D000DF91CF910C94C10EEF92FF920F931F936A
:1011E000CF93DF93F62E472FE82FF0E0711106C062
:1011F000E853FB4F6491762F862F72C0272F30E083
:10120000E853FB4FE4910E2F10E056E0659FC001BC
:101210001124CFEFD0E0BE010E94FB285BEA560309
:10122000C001579F900D11248F0D911D8F0D911DA1
:10123000982F990F890F7E01E21AF30AE09ED001E0
:10124000E19EB00DF09EB00D1124489FA001112425
:10125000452F55277E01E41AF50AE09EA001E19E84
:10126000500DF09E500D11247E01E81AF108E29E07
:10127000C001E39E900DF29E900D1124892F9927B5
:10128000C81BD90BC09FC001C19F900DD09F900D6E
:1012900011246230710591F048F461157105E1F097
:1012A00061307105A9F48B2F752F19C06430710559
:1012B00061F038F06630710579F00AC0892F7B2F14
:1012C0000EC08E2F7B2FE52F0AC08E2F792F02C0E4
:1012D000852F7E2FEB2F03C08B2F7E2FE92F6E2FB4
:1012E000DF91CF911F910F91FF90EF900895089596
:1012F000E1E1F1E0808361830895CF93DF93762F5E
:10130000E901682F842F0E94EC08798368838A831F
:10131000DF91CF910895453608F044E60C947D099D
:101320008091A202282F269530E02115310519F46D
:101330008170826005C02331310524F081708462A0
:101340008093A2028091A502853618F084E68093EE
:10135000A502089588E090E00C943E29CF92DF9298
:10136000EF92FF926B017C010E949009B701A601E8
:1013700088E090E0FF90EF90DF90CF900C945C2994
:10138000E2EAF2E083E0808311828FEF828384E6D9
:1013900083831482AAEEB1E012968C911297836037
:1013A00012968C9360817181828193810C94AE0935
:1013B0008091A20280FF02C08695089580E0089582
:1013C0008091A602833018F48F5F8093A60260910B
:1013D000A2027091A3028091A4029091A5020C94A4
:1013E000AE098091A602882319F081508093A6024D
:1013F0006091A2027091A3028091A4029091A50233
:101400000C94AE0970E00C94CB0D609112018091A8
:10141000A20280FF0AC08091110123E0829FC001D7
:10142000112489559D4F0C94020A809113019091CB
:101430001401891780F7E82FF0E09F01220F331F76
:10144000E20FF31FE955FD4F1182108212828F5F68
:10145000F0CF9091A20290FF16C0909113012091BD
:101460001401921770F4E92FF0E0DF01AA0FBB1FFF
:10147000EA0FFB1FE955FD4F8183608342839F5F25
:10148000F0CF0C94050A0895CF93DF9300D01F92FC
:10149000CDB7DEB79091A20290FF0AC09E012F5FE8
:1014A0003F4F0E948B094B8169818A810E94290AE2
:1014B0000F900F900F90DF91CF910895CF93DF930E
:1014C000EC01EC81F0E0ED53FC4F4491E2EAF2E0F4
:1014D000628181810E94440A8C818F5F8C83DF91BD
:1014E000CF910895CF93DF93EC01E2EAF2E04381DC
:1014F00062818C810E94440A8C818F5F8C83DF9192
:10150000CF910895AF92BF92CF92DF92EF92FF9268
:101510000F931F93CF93DF9300D01F92CDB7DEB709
:10152000182FF62E042FE22E8091A20280FF7CC09D
:10153000E82FE695AE2FB0E0A958BE4F9C9190934E
:10154000EA018E7F823061F49E012F5F3F4F812F31
:101550000E948B094B8169818A810E94290A41C0BE
:10156000923019F40091A5023CC0963019F4109104
:10157000A30237C09930A9F5E9508E2F8170D82E7B
:10158000E695F0E0ED53FB4FA590B490C12CBB2441
:1015900060911501C61618F52C2D30E0A29EC001F1
:1015A000A39E900DB29E900D112470E00E94FB2826
:1015B000812FD11002C0860F01C0861B90911301AC
:1015C000290F311DA901440F551F240F351F29551F
:1015D0003D4F402F6F2D0E948B09C394D9CF0E949D
:1015E000050A8091A302181308C08091A402F81282
:1015F00004C08091A502081729F08091EC01826057
:101600008093EC011093A302F092A4020093A50230
:10161000EE2051F06091A2027091A3028091A40289
:101620009091A5020E94AE090F900F900F90DF914C
:10163000CF911F910F91FF90EF90DF90CF90BF90CF
:10164000AF900895E2EAF2E09181282F4381628110
:1016500088E0890F0C94820A81E00C94220BE2EA64
:10166000F2E09181282F4381628188EF890F0C94E9
:10167000820A81E00C942F0BE2EAF2E0628121E120
:10168000620F08F46FEF282F438181810C94820A46
:1016900081E00C943C0BE2EAF2E0628121E1621B02
:1016A00008F460E0282F438181810C94820A81E054
:1016B0000C944B0BE2EAF2E0438121E1420F08F483
:1016C0004FEF282F628181810C94820A81E00C9473
:1016D0005A0BE2EAF2E0438121E1421B08F440E0C8
:1016E000282F628181810C94820A81E00C94690B1D
:1016F00020E00C94820A8091EC0108951092EC0194
:10170000089525E0E2EAF2E0DC0101900D922A95CD
:10171000E1F72091EA013091EB014091EC01FC01ED
:1017200025833683478308956091A202669570E011
:101730004BE050E086E191E00E942929892B19F4C1
:1017400081E08093EB010E94031F9093E40180935A
:10175000E3018091EC0184608093EC010895EAEE4E
:10176000F1E0118282818460828308959091A202C7
:1017700090FF3AC09170811102C0926006C083311F
:1017800010F0946202C0880F982B9093A20280916F
:10179000EC0181608093EC01662351F06091A2021C
:1017A0007091A3028091A4029091A5020E94AE09BB
:1017B0006091A202669570E04BE050E086E191E016
:1017C0000E942929892B19F00E94AF0B02C00E94A8
:1017D000940B81E08093E6014091A5026091A40200
:1017E0008091A3020C94780B0895682F9091A20227
:1017F000969581E0890F833108F081E00C94B60B57
:1018000081E00C94F50B682F9091A20296958FEFD2
:10181000890F09F482E10C94B60B81E00C94030C5F
:1018200061E00C94B60BE2EAF2E080818160808393
:1018300086950C94100C60E00C94B60BE2EAF2E092
:1018400080818E7F808360817181828193810E94FB
:10185000AE090E94AF0BEAEEF1E0828181608283E3
:101860002FEF80E792E0215080409040E1F700C0E8
:1018700000000C94050A8091A20280FD0C941E0CBD
:101880000C94130CE2EAF2E080818E7F80830E9448
:10189000AF0BEAEEF1E08281816082832FEF80E777
:1018A00092E0215080409040E1F700C000000C948D
:1018B000050A1F93CF93DF93EC01162F8F8180FFD2
:1018C0000FC0888180FF0AC08091A202816080934E
:1018D000A202888186950E94B60B02C00E94420C2B
:1018E0008F8181FF06C0212F4B816A8189810E94EF
:1018F000820A8F8182FF08C08E81882319F00E949E
:10190000940B02C00E94AF0B8F8183FF03C081E064
:101910008093E601DF91CF911F9108958091E901B5
:10192000811133C00E94861D811104C00E94261EB1
:101930000E94C0090E94AA096093A2027093A302A8
:101940008093A4029093A5028091EC018360809320
:10195000EC016E7F61F40E94C0090E94AA096093A5
:10196000A2027093A3028093A4029093A5020E9406
:1019700090090E94AF0B8091A20280FF03C0869560
:101980000E941B0C81E08093E9010895EF92FF9281
:101990000F931F93CF93DF938091EB01882309F47A
:1019A00077C08091EA01E091A202E695E81BE093FE
:1019B000E501823049F4F0E0E154FC4FE491CE2F90
:1019C000D0E00EE51AE00FC0863049F4F0E0E454B0
:1019D000FC4FE491CE2FD0E002E71AE004C0C0ED46
:1019E000D7E007E719E08091E601882389F010929B
:1019F000E6010E94031F9E0120953095820F931FE0
:101A00009093E4018093E3011092E8011092E701C2
:101A10008091E3019091E4010E940F1F8C179D07B4
:101A2000B8F18091E2018823B1F01092E201809137
:101A3000E0019091E1010E940F1F8033954758F01B
:101A40000E94031F9093E1018093E0018091EC01DB
:101A500088608093EC01E090E701F090E801E0916C
:101A6000E301F091E401CE0FDF1FD093E401C093B6
:101A7000E30183EE91E0F80109958091E7019091EF
:101A8000E801892B29F4EF2819F081E08093E20125
:101A9000DF91CF911F910F91FF90EF9008958823D0
:101AA00011F0FA0101C0FB010994CF93DF93C82F15
:101AB000D62F0E94D8098C1740F00E94D8098D17A4
:101AC00020F4DF91CF910C94000C8C2FDF91CF91FB
:101AD0000C94100C1F93CF93DF93FB011281111113
:101AE00055C0EC010E94921C8272FE01E25CFC4532
:101AF000E431F10520F4EA5AFF4F0C94232911E058
:101B000045C00E943B0C42C04DE05CE060E07CE0E0
:101B100004C040E05CE06DE07CE00E944F0D36C008
:101B200049E35BE06CE27BE0F8CF4CE25BE069E329
:101B30007BE0F3CF47E55BE068E47BE0EECF48E491
:101B40005BE067E57BE0E9CF45E75BE066E67BE0ED
:101B5000E4CF46E65BE065E77BE0DFCF41EF59E0AD
:101B600060EE79E0DACF40EE59E061EF79E0D5CF71
:101B700081E00E94100C0AC065E082E005C068E0C8
:101B800086E002C062E189E00E94550D812FDF915D
:101B9000CF911F910895539A2BB1277F3BB13860A5
:101BA0004FB7F894FC01CB01880F991F680F791F7C
:101BB0006E0F7F1FE617F70789F0819198E03BB918
:101BC000000000C087FF2BB9880F000000C000C0D4
:101BD00000C02BB900C09A9591F7ECCF4FBF8FE5AD
:101BE00094E00197F1F700C0000008950C94D10330
:101BF00080910001882309F447C020912201A22F7F
:101C0000A295AF70B0E091963C9191972F7081E0D2
:101C100090E0AC01022E01C0440F0A94EAF7542F61
:101C20005095352391963C93919792963C9192973B
:101C3000432B92964C93929740912101E42FE29589
:101C4000EF70F0E031A14F70042E01C0880F0A94AC
:101C5000EAF7982F9095932391A392A1892B82A3C1
:101C600090968C9190E002C0959587952A95E2F721
:101C7000817020A130E002C0359527954A95E2F7A2
:101C800020FD09C090E008C086E38093220186E62B
:101C900080932101B2CF92E0892B8093F201909141
:101CA000000181E098279093EE01891B8093ED015C
:101CB0000895CF93E091F2015E2F550F550F2091BB
:101CC0002201E22FE295EF70F0E080A190E02F700A
:101CD00002C0959587952A95E2F7817099274091E2
:101CE0002101E42FE295EF70F0E020A130E04F7089
:101CF00002C0359527954A95E2F7F901E170FF2773
:101D000020FF02C0E2E0F0E0E82BF92BE52BE093A6
:101D1000F201C091EE01EF70F0E0E657FE4F9081C6
:101D20008091F101890F8093F10184306CF0EC2FE8
:101D30000C2E000CFF0BE151FE4F80818F5F8083E2
:101D400060E08C2F0E94F60D8091F1018D3F6CF4C4
:101D5000EC2F0C2E000CFF0BE151FE4F80818150C7
:101D6000808361E08C2F0E94F60D8091F1018378D1
:101D700087FF03C081508C6F8F5F8093F101CF91FB
:101D80000895E091EE01F0E0E151FE4F2081FC0169
:101D900020830895FF920F931F93CF93DF93D091E9
:101DA000ED010D2F10E001511E4FFC01C081F80123
:101DB0008081C81BFC2E1F1454F4FA94F801808112
:101DC0008F5F808360E08D2F0E94F60DF4CF8C2F03
:101DD000C7FD80E0C81BCC2351F0CF5FF8018081A4
:101DE0008150808361E08D2F0E94F60DF4CFDF914A
:101DF000CF911F910F91FF9008950F931F93CF9351
:101E0000DF93C62FD42F122FFC0182818823C9F0C3
:101E10006093F5010E94031F9093F4018093F301F6
:101E200080E28C0F883008F057C0C77081E001C095
:101E3000880FCA95EAF7DF91CF911F910F910C940B
:101E4000BA148091F501681330C08091F30190912C
:101E5000F4010E940F1F883C910538F500E20D0F38
:101E6000CD17B9F080E28C0F883040F4C77081E064
:101E700001C0880FCA95EAF70E94C114083028F5FE
:101E800081E09D2F977001C0880F9A95EAF70E9414
:101E9000BA14812F0E94A7140830F0F4D77081E0A3
:101EA00001C0880FDA95EAF70AC080E28C0F88300B
:101EB00098F4C77081E001C0880FCA95EAF7DF91F6
:101EC000CF911F910F910C94C114812FDF91CF916D
:101ED0001F910F910C94A714DF91CF911F910F9137
:101EE00008959C01CB01233F4CE53407F9F078F4C9
:101EF000283DFCE53F07B9F0293D4CE5340711F1D9
:101F0000273D3C4531F526E241EE61EE1EC0253FFE
:101F1000FCE53F0799F070F0263F3C45D1F427E2FD
:101F200045EE66EE12C027E245EE0EC026E241EE17
:101F300060EE0BC027E245EE64EE07C026E241EEFC
:101F400062EE03C028E241E065EE0E94FD0E80E0F3
:101F50000895FC018281882319F01092F5010895FB
:101F600081E00895CF93DF93EC01FB018281882308
:101F700009F41FC1C230FCE5DF0708F41BC1C631FC
:101F80009CE5D90738F09E012A5F3C452930310590
:101F900008F010C10E94991D90932403809323039D
:101FA000C031ECE5DE0709F4C3C008F041C0C83019
:101FB0008CE5D80709F49AC0F0F4C430ECE5DE07EC
:101FC00009F487C068F4C2308CE5D80709F477C0FB
:101FD000C330DC4509F0E3C080912303826076C002
:101FE000C630ECE5DE0709F46EC008F07BC08091D6
:101FF000230388606BC0CC308CE5D80709F485C01A
:1020000068F4CA30ECE5DE0709F474C008F079C062
:102010000E94411780912303806858C0CE308CE520
:10202000D80709F476C008F07FC0809123038BC0E5
:10203000CB3FECE5DE0709F44FC018F5C3318CE562
:10204000D80709F47DC078F4C131ECE5DE0709F466
:1020500073C0C231DC4509F0A2C00E9441178091D3
:1020600023038F7733C0C5318CE5D80709F472C0DC
:1020700008F486C0CA3FDC4509F091C08091240372
:102080003EC0CF3FFCE5DF0709F45FC058F4CD3F09
:102090009CE5D90709F444C008F43FC080912403AB
:1020A00082602DC0C130FDE5DF0709F475C008F47A
:1020B0005DC0C230DD4509F072C080E06EC0809125
:1020C0002303816003C080912303806180932303F5
:1020D00066C08091230311C08091240382608093A5
:1020E00024035DC0809123038062F0CF809123039D
:1020F0008064ECCF8091230388608460E7CF8160A7
:10210000EECF809123038E7FE1CF809123038D7FDB
:10211000DDCF80912303877FD9CF8091240318C01E
:10212000809124038D7FDBCF809123038F7ECECFE0
:10213000809123038F7DCACF809123038F7BC6CFED
:1021400080912303877F8B7FC1CF809124038D7F74
:102150008E7FC5CF8091230382FB222720F991E057
:10216000922790FB82F990FB83F9B0CF80912403F2
:10217000982F909591708E7F892B90FB81F9AFCF2E
:102180000E9441178091230387FB222720F991E0C9
:10219000922790FB87F99ACF81E00E94281E8091B8
:1021A0002303909124030E94AA1D0E94411780E0FE
:1021B00001C081E0DF91CF910895CF93DF93863105
:1021C0009C4541F5EB010E94921C982F8A81209139
:1021D000230130912401882379F09A7A81E009F46F
:1021E00080E08093F601911102C069E201C065E3CD
:1021F000C9010E946F1E0AC08091F601811102C0C0
:1022000069E201C065E3C9010E94711E0E94D31CEE
:1022100080E001C081E0DF91CF9108958EE14A9B7B
:1022200002C08150E1F74A9BFECF08955A9880E2A0
:102230008A95F1F75A9A0895FC012AE02A95F1F758
:1022400090E020E080E031E0261779F040E14A9507
:10225000F1F7880F4A9B02C08160932700C00000FD
:1022600040E14A95F1F72F5FEFCF20E12A95F1F792
:1022700029B100C0000030E13A95F1F722FB222796
:1022800020F992272081920F90830895EF92FF9278
:102290000F931F93CF93DF931F92CDB7DEB71982B1
:1022A0008C017C01E60EF11C0E151F0559F00E94F1
:1022B0000E1168E0CE0101960E941C11F801819375
:1022C0008F01F2CF81E09981911180E00F90DF9131
:1022D000CF911F910F91FF90EF9008959093F90186
:1022E0008093F8016093F701529A5A9A0895909357
:1022F000F9018093F8016093F70152985A9AEA9A8B
:10230000E9E6F0E080818F7C80830895615091E060
:1023100001C0990F6A95EAF720E031E0992361F056
:10232000492F482319F05A9A232701C05A9840E2AE
:102330004A95F1F79695F2CF222311F05A9A01C0EF
:102340005A9880E28A95F1F75A980895FF920F9370
:102350001F93CF93DF93EC018C01060F111DC01763
:10236000D10741F0F9900E94161168E08F2D0E946C
:102370008611F5CFDF91CF911F910F91FF900895B6
:102380001F920F920FB60F9211240F931F932F934A
:102390003F934F935F936F937F938F939F93AF93ED
:1023A000BF93EF93FF93CF93DF931F92CDB7DEB729
:1023B00019820E940E1167E0CE0101960E941C1145
:1023C000382F369536953695932F96959570232F01
:1023D0002570920F292F2370969596958770920FEE
:1023E000891348C08981811145C08091F701831705
:1023F00008F440C080E18A95F1F75A9A529AA2E017
:10240000AA95F1F700C00091F8011091F901B8E028
:102410003B9F000D111D11245A98F8016581662318
:1024200021F0868197810E94A6110E941611F0E189
:10243000FA95F1F75A9852985A9A80E18A95F1F7ED
:10244000D80112966C911297662369F013968D91BC
:102450009C9114970E944611D801ED91FC91811135
:1024600005C082E004C0D801ED91FC9188E0808332
:102470000E940E110F90DF91CF91FF91EF91BF91CC
:10248000AF919F918F917F916F915F914F913F910C
:102490002F911F910F910F900FBE0F901F901895C5
:1024A0000F931F93CF93DF932091F70130E028170C
:1024B00039070CF471C09C0193E0220F331F9A95E9
:1024C000E1F7C091F801D091F901C20FD31FF89440
:1024D000529A5A9845E04A95F1F70000982F969540
:1024E00095708570890F982F937086958695890FC2
:1024F0008901082B0E94161184E08A95F1F700C02B
:1025000067E0802F0E94861140E14A95F1F75298CA
:102510005A9A4A9902C000C0FCCF87E090E04A9BDB
:102520000EC0019751F4529A5A9AE881F98181E0DC
:102530008083789481E090E031C000C0F0CF6D815D
:10254000662381F08E819F810E94461181110AC00D
:10255000529A5A9AE881F98182E08083789482E0E5
:1025600090E01CC00E940E1180E28A95F1F75A9803
:10257000529A40E14A95F1F76A81662321F08B81F6
:102580009C810E94A6110E941611E881F981108297
:10259000789480E090E002C084E090E0DF91CF91F9
:1025A0001F910F9108959093FF018093FE0108956C
:1025B000E091FE01F091FF01309721F00190F08150
:1025C000E02D099480E00895E091FE01F091FF0173
:1025D000309721F00280F381E02D09940895E09175
:1025E000FE01F091FF01309739F022E0DC012C93DD
:1025F0000480F581E02D099408952091FC0130912B
:10260000FD012817390771F09093FD018093FC01BB
:10261000E091FE01F091FF01309721F00680F781F3
:10262000E02D099408952091FA013091FB012817BB
:10263000390771F09093FB018093FA01E091FE015C
:10264000F091FF01309721F00084F185E02D09948D
:10265000089585B7806885BF85B7806885BF089570
:1026600008950C9430130C9431130C9430130C9483
:1026700030130E9429130E9435130C9433130C94C9
:102680004D080E94FA1E0E94FF060E94551F0E94DC
:102690008E0C0E94F80D0C943713AF92BF92CF921C
:1026A000DF92EF92FF920F931F93CF93DF93CDB7FB
:1026B000DEB72A970FB6F894DEBF0FBECDBF0E94DB
:1026C0008D070E943F13811111C08FEF89838A8388
:1026D0001B820E94031F8160782F9D838C83498118
:1026E0005A816B818D810E94E91340C081E0A82E40
:1026F00082E0B82E00E010E0C02E802F0E94EA0693
:10270000E82EF501D1905F01D82631F40F5F1F4FFD
:102710000830110589F7D9CF8091750281FD0E949B
:10272000F00680E0FF24F3949D2D9F21D1F08E834D
:10273000CF82EF2081E009F480E088870E94031FA8
:102740008160782F9A8789874E815F8168858A8525
:102750000E94E913F801EF5FFD4F8081F826F082B7
:1027600005C08F5FFF0C8630F9F6D0CF0E94C60CF3
:102770000E94590E0E94E7200E94D81290910002F8
:102780008917B1F00E94D812809300022A960FB6E2
:10279000F894DEBF0FBECDBFDF91CF911F910F9197
:1027A000FF90EF90DF90CF90BF90AF900C94A20479
:1027B0002A960FB6F894DEBF0FBECDBFDF91CF9142
:1027C0001F910F91FF90EF90DF90CF90BF90AF904F
:1027D0000895CF93DF93CDB7DEB72B970FB6F8945C
:1027E000DEBF0FBECDBF4F83588769877A878B873F
:1027F000DE01119686E0FD0111928A95E9F785E0E8
:10280000FE01379601900D928A95E1F749815A8130
:102810006B817C818D819E810E94FA192B960FB667
:10282000F894DEBF0FBECDBFDF91CF910895FC01BC
:10283000808191810E94531C0895CF93882309F4CD
:1028400050C0C82F8CEF8C0F813AD0F46C2F809140
:102850002301909124010E94391E882349F06C2F96
:1028600080912301909124010E94711E0E94D31C2B
:102870006C2F80912301909124010E946F1E0CC047
:1028800080E28C0F883058F4C77081E001C0880F57
:10289000CA95EAF70E94951CCF910C94D31CEBE5E6
:1028A000EC0FE33040F4F0E0E853FE4F808190E01D
:1028B000CF910C94FD12E8E5EC0FE73150F4F0E015
:1028C000EE0FFF1FE656FE4F80819181CF910C9451
:1028D0001313C03F30F08C2F0E94EF1FCF910C9448
:1028E000DC20CF910895882389F19CEF980F913ACD
:1028F00040F4682F80912301909124010E94711E61
:102900000DC090E2980F983058F4877091E001C0A4
:10291000990F8A95EAF7892F0E949B1C0C94D31C6F
:102920009BE5980F933020F480E090E00C94FD122A
:1029300098E5980F973120F480E090E00C94131301
:10294000803F20F00E9457200C94DC200895CF9304
:10295000C82F0E941D14C93349F42FEF87EE93E06E
:10296000215080409040E1F700C000008C2FCF91B3
:102970000C947314882321F00E94951C0C94D31C92
:102980000895882321F00E949B1C0C94D31C089569
:10299000CF92DF92EF92FF920F931F93CF93DF932B
:1029A0007C01D62FC72FFC01058102950F70128183
:1029B00011110E94B21C0E948B1C882399F01123D4
:1029C00089F08C2F807F803421F080E28D0F883059
:1029D00048F082E00E941D1D0E948B1C91E0D82EC1
:1029E000D92601C0D12CCC2EC2948FE0C8228C2DC8
:1029F00090E08C30910508F0B6C1FC01E659FF4F1C
:102A00000C9423298C2F807FCF70882311F0C295DE
:102A1000C07F112399F0CC2309F491C180E28D0F7E
:102A2000883010F0D11104C08C2F0E94951C03C077
:102A30008C2F0E94A51C0E94D31C81C18D2F0E9447
:102A40007314CC2309F48FC180E28D0F883010F00D
:102A5000D11104C08C2F0E949B1C03C08C2F0E949C
:102A6000AB1C0E94D31C7FC18C2F807FCF70803223
:102A700011F0C295C07FDD2319F0D130C9F022C01A
:102A8000112371F0002341F0013031F40E94B81C91
:102A90008C2B0E94C01C67C10E94B81C8C2B1DC0CF
:102AA000002319F0013009F45EC10E94C91C25C041
:102AB000112321F0063008F056C10EC0053008F091
:102AC00052C11BC0112361F0002331F0F701858151
:102AD00080FF35C18F7085838C2F0E94BA1443C14B
:102AE000002359F0D93309F03BC1FFEF07EE13E0A3
:102AF000F15000401040E1F731C18C2F0E94C11409
:102B000032C18C2F86958695837019F0813061F0E3
:102B10002AC1112321F08D2F9C2F937002C080E0D9
:102B200090E00E94FD1227C1112321F08D2F9C2FD0
:102B3000937002C080E090E00E9413131CC18D2F9F
:102B4000112319F00E94EF1F02C00E9457200E941B
:102B5000DC2011C18C2F837009F047C0111107C10F
:102B60002D2F229526952770220F220F6D2F6F7023
:102B7000862F90E0A0E0B0E0022E04C0880F991FDD
:102B8000AA1FBB1F0A94D2F7D4FF10C04FE050E039
:102B900060E070E004C0440F551F661F771F2A9540
:102BA000D2F7409550956095709503C040E050E095
:102BB000BA01C695C695C3708A019B01082B192BD3
:102BC0002A2B3B2BC901B801C23049F058F4C1305F
:102BD00019F00E94CE1ACBC00E94BC1AC8C00E9435
:102BE000E01AC5C00E94BA1AC2C0112319F08C2F76
:102BF000817001C08695882309F4B9C02D2F2295D4
:102C000026952770220F220F6D2F6F70862F90E070
:102C1000A0E0B0E0022E04C0880F991FAA1FBB1FBE
:102C20000A94D2F7D4FF10C04FE050E060E070E0AB
:102C300004C0440F551F661F771F2A95D2F7409591
:102C400050956095709503C040E050E0BA01C6957C
:102C5000C695C3708A019B01082B192B2A2B3B2B8D
:102C6000C901B801C23049F058F4C13019F00E94CE
:102C7000931B7DC00E94811B7AC00E94A51B77C058
:102C80000E94F41A74C0CF70112339F08C2F0E9467
:102C90001A1B8D2F0E94BA146AC08D2F0E94C11476
:102CA0008C2F0E943B1B63C0D23F01F128F4D03F20
:102CB00041F0D13FA1F03FC0D33FF9F0D43F39F10B
:102CC0003AC0112341F0053008F04DC08C2F8F71B0
:102CD0000E94601B48C0063008F045C0F7CF1123A2
:102CE00039F08C2F8F710E941A1B3DC01123C9F33C
:102CF0008C2F8F710E943B1B36C0112329F08C2F23
:102D00008F710E94051B2FC00E94001B2CC0112335
:102D100049F0CF718C2F0E941A1B63E08C2F0E9408
:102D2000081D21C081E00E941D1D0230E0F082E0FC
:102D30000E941D1D18C0112331F0002391F28D2F28
:102D40000E941D1410C0002399F2D93349F41FEFDB
:102D500027EE33E0115020403040E1F700C0000082
:102D60008D2F0E94731488EF8C0D843020F40E9404
:102D7000D8120E94A204DD20C9F00E94871C80FDA9
:102D800015C0F70112820E94811C0E941A1BC70104
:102D90000E94F7160E94811CDF91CF911F910F9125
:102DA000FF90EF90DF90CF900C943B1BDF91CF9181
:102DB0001F910F91FF90EF90DF90CF9008950F93A8
:102DC0001F93CF93DF93EC01688179818A810E9400
:102DD0005E1C8C010E94B71B0E94A81AB801CE018C
:102DE0000E94C814DF91CF911F910F910895CF9346
:102DF000DF93EC01988189812B813C81232B31F079
:102E00008F3F31F481E09F3F19F403C081E001C09E
:102E100080E080FD19C0CE010E94BB0481110CC06E
:102E20000E948B1C882381F08A81882369F082E0CC
:102E3000DF91CF910C941D1DCE010E94DF16CE01B3
:102E4000DF91CF910C943204DF91CF9108950E94CD
:102E5000B21C0E94B51C0E94D31C0E9406220E9434
:102E6000DC2080E090E00E94FD1280E090E00C9475
:102E7000131380912301909124010E94731E0C94DE
:102E800027170E94A21C0C943917E92FE295EF70C6
:102E90004E2F50E0FA013297EE30F105B0F4EA58C7
:102EA000FF4F0C942329803F91F018F4883E68F47A
:102EB0000EC0843F51F40BC0883E48F0813F29F496
:102EC00006C093FB882780F9089580E0089581E08B
:102ED00008950E94531C0E9445170895CF93DF93D5
:102EE00000D000D01F92CDB7DEB70F900F900F909B
:102EF0000F900F90DF91CF910895CF93DF9300D083
:102F000000D000D0CDB7DEB726960FB6F894DEBF5E
:102F10000FBECDBFDF91CF9108951F93CF93DF9365
:102F2000C0910A0216E080910B02C81799F0D0E018
:102F30001C9FF0011D9FF00D1124E45FFD4F4081A7
:102F4000518162817381848195810E947D172196D0
:102F5000C770E9CFDF91CF911F91089540913C0256
:102F600050913D0260913E0270913F02809140027B
:102F7000909141020C947D170F931F93CF93DF9391
:102F80008091410282958F7009F05DC080913E0270
:102F9000882309F458C080910A0210910B026091B5
:102FA0003C0270913D02C0913F02D091400291E0FD
:102FB0006F3F09F090E0292F06E0811709F443C024
:102FC000209721F07F3F21F030E003C031E001C0C5
:102FD000322F90E030FD34C0089FF001099FF00DC2
:102FE0001124DF01A45FBD4F11963C911197371357
:102FF00027C03C91361324C012963C911297311190
:103000001FC013964D915C9114974C1B5D0B483C6F
:103010005105B0F4809141028F708061809341022C
:10302000EF5EFD4F80818F70806180838CE392E042
:103030000E94F716DF91CF911F910F910C948D177D
:1030400001968770BACFDF91CF911F910F910895AC
:103050009F92AF92BF92CF92DF92EF92FF920F9327
:103060001F93CF93DF93CDB7DEB761970FB6F89478
:10307000DEBF0FBECDBF8C0185E0F801DE011D96DD
:1030800001900D928A95E1F7F80140815181E2802B
:1030900090913C0260913D0220913F0230914002AC
:1030A0002115310531F06F3F31F481E09F3F19F474
:1030B00003C081E001C080E0F82FF1709F2E80FDF9
:1030C00046C1F801A380B4808CE3C82E82E0D82EDC
:1030D000F0903E02F501E21BF30BFF2009F4DFC084
:1030E00080914102E83CF10508F09BC0282F207F29
:1030F00009F052C0561313C0491311C0FE2CE11041
:103100000EC08F708061809341020E94AE17C6018D
:103110000E94F71680914102F801858358C1AB28BF
:1031200031F05F3F31F481E04F3F19F403C081E09B
:1031300001C080E080FD03C081E08E2502C080E0F8
:1031400090E0F82FF170FF2E80FF1CC080910A02E2
:1031500020910B0236E0821709F417C190E0389FE6
:10316000F001399FF00D1124E45FFD4F618156138A
:1031700006C06081461303C06281E61203C0019657
:103180008770E9CFFE2CEE2009F421C18091410225
:103190008160809341025AC0561306C0491304C08F
:1031A000E11002C0F8019FC04D875E878D859E8526
:1031B0000E946917882379F1EE2069F1209141027C
:1031C000822F82958F7090E0029774F080913C027C
:1031D00090913D0298878F831986BB86AA862C879B
:1031E000CE0107960E94F71686E0F801ACE3B2E044
:1031F00001900D928A95E1F70E94BC170E94AE17CC
:103200000DC0561729F14D875E878D859E850E94DA
:10321000691781112CC0C8010E94F716FF24F3948E
:10322000D6C0282F207F69F77A2DB98AA88A6E2DFB
:1032300089890E946E178CE392E00E94F71686E05F
:10324000F60111928A95E9F70E94AE17F12CBFC0E2
:103250004913D9CFE110D7CFF8018583C8010E9467
:10326000F71686E0F60111928A95E9F7B0C0EE20D4
:1032700091F220914102822F82958F7090E0029707
:103280000CF4B2CF80913C0290913D029A838983E5
:103290001B82BD82AC822E83CE010196A3CFE83C77
:1032A000F10508F047C0FE2CEE2009F4B4CF561308
:1032B00030C049132EC02091410220FD21C0822F31
:1032C00082958F70482F50E041155105C9F0F801E3
:1032D00025834F30510541F08F5F982F9295907F55
:1032E000822F8F70892B8583C8010E94F71686E094
:1032F000F801ACE3B2E001900D928A95E1F742C08B
:1033000086E0F801ACE3B2E001900D928A95E1F716
:103310005EC04D875E878D859E850E9469178111ED
:1033200063CF80914102816080934102C8010E9475
:10333000F7164DC07A2DB98AA88A6E2D89890E9408
:103340006E1786E0F60111928A95E9F71BC0EE2010
:1033500009F461CF4D875E878D859E850E94691730
:10336000F82E882309F457CF86E0F801ACE3B2E0E9
:1033700001900D928A95E1F78CE392E00E94171478
:103380000E94BC170E94AE1722C04D875E878D85B4
:103390009E850E94531C292F22952F70223028F4DD
:1033A0009F7039F0811105C00BC0243028F49F7044
:1033B00049F4805E883020F0C8010E94F7169F2CE7
:1033C000F92C05C0F8019581907F99F7F9CF8F2DE1
:1033D00061960FB6F894DEBF0FBECDBFDF91CF91DF
:1033E0001F910F91FF90EF90DF90CF90BF90AF9023
:1033F0009F9008951F93CF93DF93CDB7DEB72C979F
:103400000FB6F894DEBF0FBECDBF4F8358876987D4
:103410007A878B879C87CE0107960E94281888237D
:10342000D1F09F8188852A853B85232B31F08F3F02
:1034300031F481E09F3F19F403C081E001C080E0D6
:1034400080FD47C04F81588569857A858B859C852D
:103450000E947D173EC086E0FE013796DE01119680
:1034600001900D928A95E1F7FF81E8856A857B8559
:103470006115710531F0EF3F31F481E0FF3F19F440
:1034800003C081E001C080E080FD23C020910B02D9
:1034900030E0C90101968770992740910A0250E0F7
:1034A00084179507F1F1F983EA837D836C8396E0B5
:1034B000929FD001939FB00D1124A45FBD4FFE01D8
:1034C000319601900D929A95E1F780930B020E943C
:1034D0008D1716E080910A0290910B02891771F105
:1034E000189FC0011124845F9D4F0E9428188823D3
:1034F00029F1E0910A021E9FF0011124E45FFD4FC3
:103500004081518162817381848195810E947D1700
:1035100080910A0290E001968770992780930A02B1
:10352000D9CF0E94411710920B0210920A02ECE3CD
:10353000F2E086E0DF011D928A95E9F72C960FB63E
:10354000F894DEBF0FBECDBFDF91CF911F910895DC
:10355000089508950C94A91A0C94AA1A0E94AC1A02
:103560006093640270936502809366029093670291
:103570000C9427170C94AE1A0F931F9300916402BA
:10358000109165022091660230916702602B712BC9
:10359000822B932B1F910F910C94AE1A0F931F93B4
:1035A00000916402109165022091660230916702D9
:1035B00060237123822393231F910F910C94AE1AE1
:1035C0000F931F930091640210916502209166028F
:1035D0003091670260277127822793271F910F91EF
:1035E0000C94AE1A0C94C9030E94F21A6093600204
:1035F0007093610280936202909363020C94271788
:1036000060E070E0CB010C94F41A0F931F9341E03B
:1036100050E060E070E08A019B0104C0000F111FC0
:10362000221F331F8A95D2F7C901B8011F910F914C
:103630000C94F41A0F931F9341E050E060E070E0A7
:1036400004C0440F551F661F771F8A95D2F78091DB
:10365000600290916102A0916202B09163028A01BE
:103660009B01082B192B2A2B3B2BC901B8011F9159
:103670000F910C94F41A0F931F9341E050E060E017
:1036800070E004C0440F551F661F771F8A95D2F75C
:10369000409550956095709580916002909161027F
:1036A000A0916202B09163028A019B010823192351
:1036B0002A233B23C901B8011F910F910C94F41ADE
:1036C0000F931F9341E050E060E070E004C0440FAE
:1036D000551F661F771F8A95D2F7809160029091DF
:1036E0006102A0916202B09163028A019B010827E6
:1036F00019272A273B27C901B8011F910F910C9464
:10370000F41A0F931F9300916002109161022091AF
:10371000620230916302602B712B822B932B1F91DD
:103720000F910C94F41A0F931F9300916002109163
:10373000610220916202309163026023712382232F
:1037400093231F910F910C94F41A0F931F930091E0
:103750006002109161022091620230916302602741
:103760007127822793271F910F910C94F41A0895C3
:10377000292F220F920F990F890FE82FE695E695D2
:10378000E695877051E001C0550F8A95EAF785E00C
:10379000E89FF0011124EE5BFD4F20E030E070E087
:1037A0004081CB01022E02C0969587950A94E2F7DC
:1037B0008170819584278523842781932F5F3F4FD4
:1037C0002530310569F70895292F220F920F990F9F
:1037D000890F682F669566956695982F977085E096
:1037E000689FB001112440E050E080E0FB01E40F4D
:1037F000F51FEE5BFD4F208130E0092E02C03695AB
:1038000027950A94E2F721703327042E01C0220F76
:103810000A94EAF7822B4F5F5F4F4530510531F72D
:103820000895BF92CF92DF92EF92FF920F931F9372
:10383000CF93DF938C01C0906002D0906102E09042
:103840006202F09063028091640290916502A091FF
:103850006602B0916702C82AD92AEA2AFB2ACFE178
:10386000D0E0D701C6010C2E04C0B695A795979558
:1038700087950A94D2F780FD04C0219790F7B12C68
:1038800007C0BC2EB8018C2F0E9411050197A9F327
:103890008B2DDF91CF911F910F91FF90EF90DF90D3
:1038A000CF90BF900895CF93DF93EC010E94111C3D
:1038B000BE010E941105DF91CF9108951F93CF9310
:1038C000DF93EB0190910902992321F0CB010E9433
:1038D000531C13C0882349F0CB010E94111C182FE0
:1038E000682FCE010E94B81B04C0CB010E94E41BCC
:1038F000182FBE01812F0E941105DF91CF911F91DA
:1039000008958091680285958595859508958091A3
:1039100068028770089590916802977081E009F4B9
:1039200080E0089580917402089590917402892B2B
:1039300080937402089580959091740289238093F6
:103940007402089510927402089590917302892B65
:1039500080937302089580959091730289238093D8
:1039600073020895109273020895109272020895DE
:1039700080916902089508950C94BB1C0C94BC1CA2
:1039800090916902981721F0809369020C94BE1CF3
:10399000089580916902882329F01092690280E0DD
:1039A0000C94BE1C0895E0912301F09124018091B4
:1039B00074028083E0912301F09124019081809131
:1039C0007302892B8083E0912301F091240190817F
:1039D00080917202892B808380916902882381F013
:1039E000E0912301F09124019081892B80838091C3
:1039F0002301909124010E942D1E81110E94C91C57
:103A000080912301909124010C94E4120C94BB1C2E
:103A100098E0899F90011124262B209368020E9430
:103A20001A1B809168028595859585950C94061DD5
:103A30001092680280E00C94061D20916802809527
:103A4000822380936802982F977079F430E0482F92
:103A5000082E000C550B2417350739F085958595F0
:103A600085950E943B1B0C94181D0895CF92DF9200
:103A7000EF92FF926C01EE24FF24C114D104E10403
:103A8000F10421F0C701B60120E101C020E0C72EFA
:103A9000D82EE92EFF24C114D104E104F10419F059
:103AA000285FC701B6016B017C0154E0F694E794EE
:103AB000D794C7945A95D1F7C114D104E104F10405
:103AC00019F02C5FC701B6016B017C0142E0F6944E
:103AD000E794D794C7944A95D1F7C114D104E1046F
:103AE000F10419F02E5FC701B601DC01CB01B695D8
:103AF000A79597958795892B8A2B8B2B09F02F5F9C
:103B0000822FFF90EF90DF90CF90089580E090E0BB
:103B10000E94442921E08C3E9E4F09F020E0822F34
:103B2000089582E090E00C94362983E090E00C94B4
:103B30003629CF9384E090E00E943629C82F81E295
:103B400090E00E9436292C2F30E0A901582BCA01A1
:103B5000CF910895CF93C92F682F84E090E00E9401
:103B60004A296C2F81E290E0CF910C944A29AB0155
:103B7000BC018FE090E00C945C29AB01BC0183E1B7
:103B800090E00C945C2960E070E0CB010C94BD1DCA
:103B900060E070E0CB010E94B71D0C94C31D6CEE79
:103BA0007EEF80E090E00E94682960E082E090E093
:103BB0000E944A2960E083E090E00E944A29109226
:103BC000640210926502109266021092670260E031
:103BD00084E090E00E944A2960E081E290E00E9447
:103BE0004A2960E085E090E00E944A2960E086E092
:103BF00090E00E944A296FEF87E090E00E944A29F6
:103C000040E050E0BA0188E090E00E945C2960E06A
:103C10008DE090E00E944A2940E050E0BA0188E13E
:103C200090E00E945C2960E087E190E00E944A29D0
:103C300040E050E0BA018CE190E00E945C2960E035
:103C400080E290E00E944A290C94C81D0C94CF1D7C
:103C5000682F8EE090E00C944A29FC01329697E0A0
:103C600080E0915029F021912223D9F38F5FF9CF81
:103C70000895662349F0FC01329608962191621757
:103C800029F0E817F907D1F780E0089581E0089559
:103C90009C01FC0132969FEF80E04191461789F02C
:103CA0009F3F19F4411101C0982F8F5F8630A9F70B
:103CB0009F3F39F0F901E90FF11D97FDFA956283F5
:103CC000089508959C012A5F3F4FFC0142814613ED
:103CD00001C01282019682179307B9F708950C94D8
:103CE000481E0C94621E029626E0FC0111922A9551
:103CF000E9F7089508950C947A1E0C947A1ECF93D8
:103D00000E947D1E0E948D070E947B1EC0E08C2FAA
:103D10000E94EA06811104C0CF5FC830C1F701C01C
:103D200081E0CF9108950C947A1E0C94931E0E940A
:103D3000951E80912903843049F11092760220E487
:103D400088E190E00FB6F894A895809360000FBECC
:103D50002093600080E00E94A2040E94951E83B719
:103D6000817F846083BF83B7816083BF78948895A7
:103D700083B78E7F83BF0FB6F894A89580916000BB
:103D8000886180936000109260000FBE08950C94CB
:103D90007A1E0E9441170E94D8120E94A2040C941D
:103DA000C71E1F920F920FB60F9211248F939F93ED
:103DB000AF93BF9380917602811113C080911F034E
:103DC00090912003A0912103B09122034196A11D5F
:103DD000B11D80931F0390932003A0932103B09300
:103DE0002203BF91AF919F918F910F900FBE0F90C3
:103DF0001F90189582E084BD93E095BD9AEF97BD22
:103E000080936E0008952FB7F89480911F039091CE
:103E10002003A0912103B09122032FBF08959C019C
:103E20004FB7F89480911F0390912003A091210334
:103E3000B09122034FBF821B930B089578941F9279
:103E40000F920FB60F9211248F939F93AF93BF934E
:103E500080911F0390912003A0912103B091220330
:103E60000196A11DB11D80931F0390932003A09381
:103E70002103B0932203BF91AF919F918F910F9037
:103E80000FBE0F901F90189587E797E79093010852
:103E9000809300089AE088E10FB6F894A895809383
:103EA00060000FBE90936000FFCF0E94861D8111BD
:103EB00002C00E94261E0E94911D809375020E94DE
:103EC000991D90932403809323030E94951D682FCE
:103ED00070E080E090E00C94BA1A80917E0280FF3E
:103EE0000BC060912A0185E0689FB001112475958F
:103EF0006795759567952BC081FF09C060912A0170
:103F000085E0689FB00111247595679520C082FFF8
:103F100007C060912A0185E0689FB001112417C095
:103F200090917D029923D1F060912901961788F72D
:103F300020912A0185E0289F90011124929FA001E1
:103F4000939F500D112470E0CA010E940F29603820
:103F5000710540F46115710519F406C065E070E063
:103F6000862F08958FE7089581E0089580917E025D
:103F700080FF08C06091260170E075956795759582
:103F8000679521C081FF06C06091260170E075959C
:103F9000679519C082FF04C06091260170E010C0CF
:103FA00090917D02992399F0609125019617A0F7D1
:103FB00080912601899FC001112470E00E940F2981
:103FC0006038710540F46115710519F406C061E0AF
:103FD00070E0862F08958FE7089581E00895803F6F
:103FE00021F40E946D1F819504C0813F29F40E9435
:103FF0006D1F809382020895823F21F40E946D1FFD
:10400000819504C0833F29F40E946D1F8093810233
:104010000895893F19F40E94B61F05C08A3F31F404
:104020000E94B61F81958093830208958B3F21F4EF
:104030000E94B61F819504C08C3F29F40E94B61FD0
:10404000809384020895843F21F4809180028160EE
:1040500017C0853F21F480918002826011C0863FA5
:1040600021F48091800284600BC0873F21F480910D
:104070008002886005C0883F31F4809180028061B1
:104080008093800208958D3F21F480917E028160AB
:104090000BC08E3F21F480917E02826005C08F3F6D
:1040A00029F480917E02846080937E020895803F8F
:1040B00039F48091820287FF6CC01092820269C03D
:1040C000813F29F4809182021816BCF362C090915E
:1040D0008102823F29F497FF5CC01092810259C08F
:1040E000833F19F41916CCF354C0893F41F48091F1
:1040F000830218160CF04DC0109283024AC08A3F0A
:1041000029F48091830287FF44C0F6CF8B3F39F4B6
:104110008091840287FF3DC0109284023AC08C3F98
:1041200029F4809184021816BCF333C0843F21F433
:10413000809180028E7F17C0853F21F4809180029C
:104140008D7F11C0863F21F4809180028B7F0BC050
:10415000873F21F480918002877F05C0883F31F43A
:10416000809180028F7E8093800213C08D3F21F466
:1041700080917E028E7F0BC08E3F21F480917E0263
:104180008D7F05C08F3F29F480917E028B7F8093C5
:104190007E028091810281110EC080918202811184
:1041A0000AC080918302811106C08091840281112E
:1041B00002C010927D0208958FE792E00E94EF12F4
:1041C0000E94031F90937C0280937B020895CF93FB
:1041D000DF9300D000D000D0CDB7DEB786E0EFE7A8
:1041E000F2E0DE01119601900D928A95E1F780913F
:1041F0008102811105C080918202882309F47AC06E
:104200008091790290917A020E940F1FAC019091E7
:104210007D02992339F020912B0130E024173507D6
:1042200058F068C020912C018AE0289F9001112449
:104230002417350718F05EC09F3F19F09F5F9093D9
:104240007D021092830210928402809181021816DE
:1042500024F40E946D1F809381028091810287FF68
:1042600005C00E946D1F819580938102809182021A
:10427000181624F40E946D1F80938202809182029E
:1042800087FF05C00E946D1F819580938202309147
:1042900081023323E1F0209182022223C1F045EB19
:1042A0003403C0011124992319F09093810203C0B3
:1042B00081E08093810235EB2303C001112499230F
:1042C00019F09093820203C081E0809382020E94E1
:1042D000DC2080917B0290917C0290937A02809303
:1042E000790286E0FE013196AFE7B2E001900D92CF
:1042F0008A95E1F780918302811105C08091840243
:10430000882309F47AC080917702909178020E9404
:104310000F1FAC0190917D02992339F02091270164
:1043200030E02417350758F068C0209128018AE052
:10433000289F900111242417350718F05EC09F3F75
:1043400019F09F5F90937D02109281021092820279
:1043500080918302181624F40E94B61F8093830272
:104360008091830287FF05C00E94B61F81958093CC
:10437000830280918402181624F40E94B61F809351
:1043800084028091840287FF05C00E94B61F819538
:1043900080938402309183023323E1F020918402E0
:1043A0002223C1F045EB3403C0011124992319F0F5
:1043B0009093830203C081E08093830235EB230353
:1043C000C0011124992319F09093840203C081E065
:1043D000809384020E94DC2080917B0290917C0279
:1043E000909378028093770286E0FE013196AFE7E2
:1043F000B2E001900D928A95E1F726960FB6F894F7
:10440000DEBF0FBECDBFDF91CF910895EFE7F2E0A1
:1044100086E0DF011D928A95E9F710927D021092E5
:104420007E02089580918D020895CF93DF9300D08E
:104430001F92CDB7DEB790912903943019F5898387
:104440007B836A8382E08093E9008FEF9091E8009C
:10445000815095FD06C095ED9A95F1F70000811108
:10446000F5CF8091E80085FF0DC040E050E063E0AB
:1044700070E0CE0101960E945D248091E8008E7765
:104480008093E8000F900F900F90DF91CF910895E7
:10449000CF93DF93EC010E944024823011F08430EE
:1044A00031F4BE0184E0DF91CF910C941522DF91AD
:1044B000CF910895BC0183E00C941522CF93DF9334
:1044C000EC010E944024823011F08430F9F482E043
:1044D0008093E9008FEF9091E800815095FD06C030
:1044E00095ED9A95F1F700008111F5CF8091E800E4
:1044F00085FF0CC040E050E066E070E0CE010E9415
:104500005D248091E8008E778093E800DF91CF9161
:104510000895CF93DF93EC010E944024823011F084
:10452000843039F581E08093E9008FEF9091E800C5
:10453000815095FD06C095ED9A95F1F70000811127
:10454000F5CF8091E80085FF14C040E050E068E0BE
:1045500070E0CE010E945D248091E8008E77809308
:10456000E80088E0FE01A5E8B2E001900D928A958E
:10457000E1F7DF91CF91089580912803811109C05F
:104580000E94EE250E944B268091E2008460809379
:10459000E2000895109228030895089508950C9458
:1045A000C91E42E061EC81E00E94672542E261ECB5
:1045B00082E00C94672580912B03833009F460C05E
:1045C00030F4813071F0823009F499C008958A3056
:1045D00009F485C08B3009F46BC0893009F0A7C09D
:1045E00020C080912A03813A09F0A1C08091E8009F
:1045F000877F8093E80080912E0390912F03892B71
:1046000021F468E085E892E003C060E080E090E09B
:1046100070E00E94A8248091E8008B778093E800E6
:10462000089580912A03813209F081C080912E0380
:1046300090912F03029708F07AC08091E800877F5D
:104640008093E8008091E80082FD05C080912903F5
:104650008111F8CF6CC02091F3008091F20090E0BE
:10466000922B029729F48091F1008B7F813021F405
:104670008091F10080938D028091E8008B7753C088
:1046800080912A03813A09F052C080912E039091C3
:104690002F03892B09F04BC08091E800877F80931E
:1046A000E8008091E80080FFFCCF8091370136C0A0
:1046B00080912A038132D9F580912E0390912F03A6
:1046C000892BA9F58091E800877F8093E8000E94FC
:1046D0009C2580912C03809337010C944117809185
:1046E0002A03813221F58091E800877F8093E800DA
:1046F0000E949C2580912D0380938E0208958091C5
:104700002A03813AA1F48091E800877F8093E80032
:104710008091E80080FFFCCF80918E028093F100B1
:104720008091E8008E778093E8000C949C25089592
:1047300084B7877F84BF0FB6F894A89580916000F6
:10474000886180936000109260000FBE90E080E866
:104750000FB6F89480936100909361000FBE0E94A1
:1047600039130E94EE250E944B268091E20084605E
:104770008093E20078940E94E0280E9441138DE229
:1047800091E00E94D31280912903853069F40E9440
:10479000971E809127038823B1F30E947F1E8823F0
:1047A00091F30E944724EFCF0E944D13ECCF0C945D
:1047B000D923292F332723303105C9F060F4213064
:1047C000310581F02230310509F04AC08BE390E0D9
:1047D00022EF35E049C02132310511F12232310595
:1047E00079F13EC082E190E02DE236E03DC09927AC
:1047F0008130910561F040F08230910559F00397C6
:1048000079F5E8ECF5E008C0EEEEF5E005C0EAED7C
:10481000F5E002C0EEECF5E0849190E09F0124C049
:104820006115710541F061307105D1F489E090E0C6
:104830002DE136E019C089E090E024E036E014C0B4
:104840006115710541F06130710551F481E890E026
:104850002FE336E009C080E490E020EC36E004C0AD
:1048600080E090E020E030E0FA0131832083089579
:1048700080912903843011F081E0089582E0089549
:1048800080918F02811102C00C943824089580E138
:1048900089BD82E189BD09B400FEFDCF8091D800B9
:1048A0008F7D8093D8008091E00082608093E0004B
:1048B0008091E00081FDFCCF0895CF92DF92EF92CE
:1048C000FF920F931F93CF93DF93EC018B017A013B
:1048D0000E94BB25811133C0E114F10439F0F701C6
:1048E00080819181081B190BC80FD91FC12CD12CB5
:1048F0000115110519F18091E80085FD16C0809120
:10490000E8008E778093E800E114F10449F0F701A4
:1049100080819181C80ED91ED182C08285E00FC0EE
:104920000E94BB25882321F30AC089918093F1005E
:1049300001501109FFEFCF1ADF0ADACF80E0DF91D3
:10494000CF911F910F91FF90EF90DF90CF9008953E
:1049500020913003309131032617370748F0611555
:10496000710539F42091E8002E772093E80001C00A
:10497000B901FC0120E06115710579F180912903ED
:104980008823F1F18530F1F18091E80083FD3CC08E
:104990008091E80082FD2EC08091E80080FFEBCF7F
:1049A0002091F3008091F20090E0922B6115710547
:1049B00051F08830910538F421912093F100615035
:1049C00071090196F3CF21E0089709F020E080916A
:1049D000E8008E778093E800CECF2111CFCF0AC0B8
:1049E00080912903882361F0853061F08091E8008F
:1049F00083FD0AC08091E80082FFF2CF80E0089535
:104A000082E0089583E0089581E0089520913003C5
:104A1000309131032617370748F06115710539F4D5
:104A20002091E8002E772093E80001C0B901FC0135
:104A300020E06115710591F180912903882309F423
:104A400040C0853009F43FC08091E80083FD3DC03F
:104A50008091E80082FD2FC08091E80080FFE9CFBF
:104A60002091F3008091F20090E0922B6115710586
:104A700059F08830910540F424912093F10031964B
:104A8000615071090196F2CF21E0089709F020E00A
:104A90008091E8008E778093E800CBCF2111CCCFB6
:104AA0000AC080912903882361F0853061F08091EC
:104AB000E80083FD0AC08091E80082FFF2CF80E029
:104AC000089582E0089583E0089581E00895982F85
:104AD000973068F59093E900981739F07091EC00E1
:104AE0002091ED005091F00003C0242F762F50E06C
:104AF00021FD02C09F5FECCF3091EB003E7F3093F1
:104B0000EB003091ED003D7F3093ED003091EB00F4
:104B100031603093EB007093EC002093ED005093E4
:104B2000F0002091EE0027FDE5CF80E008958F7022
:104B30008093E90081E0089580912A0387FF11C0E6
:104B40008091E80082FD05C0809129038111F8CF92
:104B500011C08091E8008B770BC0809129038823D6
:104B600049F08091E80080FFF8CF8091E8008E77CF
:104B70008093E80008952091E4003091E50095E6E7
:104B80004091EC00842F817040FF23C08091E800A9
:104B900080FD1DC080912903882399F0853099F00C
:104BA0008091EB0085FD11C04091E4005091E5003B
:104BB0002417350729F3915011F09A01E1CF84E0D1
:104BC000089582E0089583E0089581E0089580E0EB
:104BD00008954091E80042FFDDCF08950E945C26D1
:104BE0000E946426E0EEF0E0808181608083E8ED41
:104BF000F0E080818F77808319BCA7EDB0E08C91C5
:104C00008E7F8C9380818F7E8083109228030895FD
:104C10000F931F93CF93DF930E945C260E9464261C
:104C2000C8EDD0E088818F77888388818068888309
:104C300088818F7D888319BC1092290310922503E7
:104C4000109227031092260300EE10E0F8018081F5
:104C50008B7F808388818160888342E060E080E090
:104C60000E946725E1EEF0E080818E7F8083E2EE96
:104C7000F0E0808181608083808188608083F8019A
:104C800080818E7F8083888180618883DF91CF914E
:104C90001F910F910895E8EDF0E080818F7E808371
:104CA000E7EDF0E080818160808384E082BF81E075
:104CB000809328030C940826E8EDF0E080818E7F35
:104CC00080831092E20008951092DA001092E100C1
:104CD00008951F920F920FB60F9211242F933F93B6
:104CE0004F935F936F937F938F939F93AF93BF93F4
:104CF000EF93FF938091E10082FF0BC08091E2006F
:104D000082FF07C08091E1008B7F8093E1000E94C9
:104D1000DF288091DA0080FF1FC08091D80080FFDB
:104D20001BC08091DA008E7F8093DA008091D900D9
:104D300080FF0DC080E189BD82E189BD09B400FE1C
:104D4000FDCF81E0809329030E94BC2205C019BCDD
:104D5000109229030E94CA228091E10080FF19C0AD
:104D60008091E20080FF15C08091E2008E7F8093E9
:104D7000E2008091E20080618093E2008091D8009F
:104D800080628093D80019BC85E0809329030E943B
:104D9000CE228091E10084FF30C08091E20084FF48
:104DA0002CC080E189BD82E189BD09B400FEFDCF40
:104DB0008091D8008F7D8093D8008091E1008F7E14
:104DC0008093E1008091E2008F7E8093E2008091E9
:104DD000E20081608093E20080912503882311F036
:104DE00084E007C08091E30087FD02C081E001C03C
:104DF00083E0809329030E94CF228091E10083FF0A
:104E000029C08091E20083FF25C08091E100877F67
:104E10008093E10082E08093290310922503809122
:104E2000E1008E7F8093E1008091E2008E7F80938D
:104E3000E2008091E20080618093E20042E060E065
:104E400080E00E9467258091F00088608093F000E8
:104E50000E94CD22FF91EF91BF91AF919F918F91D1
:104E60007F916F915F914F913F912F910F900FBE66
:104E70000F901F9018951F920F920FB60F9211244A
:104E80002F933F934F935F936F937F938F939F9352
:104E9000AF93BF93CF93DF93EF93FF93C091E9005C
:104EA000CF708091EC00D82FD17080FDD0E81092A7
:104EB000E9008091F000877F8093F00078940E9451
:104EC0007F271092E9008091F00088608093F000C5
:104ED000CD2BCF70C093E900FF91EF91DF91CF917F
:104EE000BF91AF919F918F917F916F915F914F9102
:104EF0003F912F910F900FBE0F901F9018951F9309
:104F0000CF93DF93CDB7DEB7AA970FB6F894DEBF85
:104F10000FBECDBFEAE2F3E08091F100819323E080
:104F2000E233F207C9F70E94DB228091E80083FF99
:104F30002EC180912A0390912B03492F50E04A30D3
:104F4000510508F024C1FA01EC57FF4F0C942329B6
:104F5000803821F0823809F01AC108C080912603F8
:104F600090912703992389F082600FC080912E03CE
:104F70008F70873008F00BC18093E9008091EB00BF
:104F800085FB882780F91092E9009091E800977FCF
:104F90009093E8008093F1001092F100D1C0282F87
:104FA0002D7F09F0F4C0882319F0823061F0EFC042
:104FB00080912C03813009F0EAC0933009F080E041
:104FC000809327032EC080912C0381112AC08091E9
:104FD0002E038F702FEF280F263008F0D8C0809353
:104FE000E9002091EB0020FF1CC0933021F4809158
:104FF000EB00806214C09091EB0090619093EB0005
:1050000021E030E0A90102C0440F551F8A95E2F764
:105010004093EA001092EA008091EB008860809350
:10502000EB001092E9008091E800877F8093E80010
:105030000E949C25ACC08111AAC010912C031F773F
:105040008091E3008078812B8093E3008091E800D9
:10505000877F8093E8000E949C258091E80080FF74
:10506000FCCF8091E30080688093E300111102C0BF
:1050700082E001C083E08093290389C08058823098
:1050800008F085C080912C0390912D038C3D53E056
:10509000950779F583E08A838AE289834FB7F8948C
:1050A000DE01139620E03EE051E2E32FF0E0509362
:1050B0005700E49120FF03C0E295EF703F5FEF706F
:1050C0008E2F90E0EA3010F0C79601C0C0968D9305
:1050D0009D932F5F243149F74FBF8091E800877F70
:1050E0008093E8006AE270E0CE0101960E94A82455
:1050F00016C060912E0370912F03AE014F5F5F4F7A
:105100000E94D723BC01892B09F441C09091E8008B
:10511000977F9093E80089819A810E94062580916B
:10512000E8008B778093E80032C0803881F5809169
:10513000E800877F8093E800809125038093F10049
:105140008091E8008E7772CF811121C080912C036D
:1051500090912D0399270297D4F48091E800877FDE
:105160008093E80080912C03809325030E949C2566
:1051700080912503811106C08091E30087FD02C064
:1051800081E001C084E0809329030E94D1228091B4
:10519000E80083FF0AC08091E800877F8093E800E1
:1051A0008091EB0080628093EB00AA960FB6F89492
:1051B000DEBF0FBECDBFDF91CF911F91089508953F
:1051C000CF93809129038823A1F0C091E900CF708B
:1051D0009091EC00892F817090FD80E8C82B10928F
:1051E000E9008091E80083FD0E947F27CF70C09383
:1051F000E900CF910895AA1BBB1B51E107C0AA1F6C
:10520000BB1FA617B70710F0A61BB70B881F991F67
:105210005A95A9F780959095BC01CD01089597FB0B
:10522000072E16F4009407D077FD09D00E94FB28C2
:1052300007FC05D03EF4909581959F4F0895709599
:1052400061957F4F0895EE0FFF1F0590F491E02DBB
:105250000994FC014150504030F001900616D1F7FE
:105260003197CF010895882799270895F999FECF9E
:1052700092BD81BDF89A992780B50895A6E1B0E066
:1052800044E050E00C947029A8E1B0E042E050E026
:105290000C947029262FF999FECF92BD81BDF89A02
:1052A000019700B4021639F01FBA20BD0FB6F8946A
:1052B000FA9AF99A0FBE08950396272F0E944B2958
:1052C0000E944A29252F0E944B29242F0C944B29F8
:1052D0000196272F0E944B290C944A29DC01CB010F
:1052E000FC01F999FECF06C0F2BDE1BDF89A3196F6
:1052F00000B40D9241505040B8F70895F894FFCF94
:1053000001D10100D20105D201D70108D801000066
:1053100000002800282801090A0B0C0D0E0F10119F
:105320001236666A022808641E140A321E12228986
:10533000225E225A22482201E200E900EA00B5007A
:10534000B600B700CD008301CC008A019201940120
:105350002102230224022502260227022A02B30088
:10536000B4006F00700081828394F4F5F6F731C6C3
:105370003433320000000000010202020206060679
:105380000909090909090909090900FF01000100C2
:1053900000FFFF0000010001FF00E200E900EA0059
:1053A000B500B600B700CD008301CC008A019201A0
:1053B00094012102230224022502260227022A0246
:0C53C000B300B4006F0070008182830015
:00000001FF
