:100000000C9480030C94C7030C94C7030C949A239C
:100010000C94C7030C94C7030C94C7030C94C70338
:100020000C94C7030C94C7030C94DF1E0C941B1E86
:100030000C94A9180C94C7030C94C7030C94C70321
:100040000C94C7030C94C7030C94C7030C94C70308
:100050000C94C7030C9452180C94C7030C94C70358
:100060000C94C7030C94C7030C94C7030C94C703E8
:100070000C94C7030C94C7030C94C7030C94C703D8
:100080000C94C7030C94C7030C94C7030C94C703C8
:100090000C94C7030C94C7030C94C7030C94C703B8
:1000A0000C94C7030C94C7030C94C703840E840EEE
:1000B000BE0EBE0E110F2D0FBF10BF10380F161041
:1000C00027102710F00D08110D11121117111C1116
:1000D000211126112B11301135113C114111441100
:1000E000130E130E130E130E4711130E2A1C511C60
:1000F000F31D511CF31D991CBC1CF31DB71DCA1D1B
:1001000036203620492049203F20492049204920D7
:100110003620362044204920492044200001010196
:1001200001010101010102020202020202020203B4
:100130000303030303030304040404040404050584
:100140000505050606060606070707070708080847
:1001500008090909090A0A0A0B0B0B0C0C0C0D0DF6
:100160000D0E0E0E0F0F0F1010111111121213138E
:100170001414151516161717181819191A1A1B1B07
:100180001C1D1D1E1E1F2020212222232424252663
:1001900026272829292A2B2C2D2D2E2F303132329B
:1001A000333435363738393A3B3C3D3E3F404142A7
:1001B000434445464748494A4C4D4E4F505153548D
:1001C000555658595A5B5D5E5F6162646566686941
:1001D0006B6C6D6F7072737577787A7B7D7E8082C1
:1001E000838587888A8C8E8F91939596989A9C9E0A
:1001F000A0A2A3A5A7A9ABADAFB1B3B5B7BABCBE1A
:10020000C0C2C4C6C9CBCDCFD1D4D6D8DBDDDFE2E6
:10021000E4E7E9EBEEF0F3F5F8FAFDFFFFAA7F550E
:10022000402223252628292A2C2D2F3032333536FB
:10023000383A3B3D3E4042434547494A4C4E505177
:10024000535557595A5C5E6062646668696B6D6F9E
:1002500071737577797B7D7F81838587898A8C8EA1
:1002600090929496989A9C9E9FA1A3A5A7A8AAACA9
:10027000AEAFB1B3B4B6B8B9BBBCBEBFC1C2C3C5E3
:10028000C6C7C9CACBCCCDCED0D1D2D2D3D4D5D685
:10029000D7D7D8D9D9DADADBDBDBDCDCDCDCDCDDB8
:1002A000DDDDDDDCDCDCDCDCDBDBDBDADAD9D9D89C
:1002B000D7D7D6D5D4D3D2D2D1D0CECDCCCBCAC934
:1002C000C7C6C5C3C2C1BFBEBCBBB9B8B6B4B3B163
:1002D000AFAEACAAA8A7A5A3A19F9E9C9A989694FE
:1002E00092908E8C8A89878583817F7D7B797775D3
:1002F00073716F6D6B6968666462605E5C5A5957B2
:10030000555351504E4C4A4947454342403E3D3B70
:100310003A3836353332302F2D2C2A2928262523FA
:1003200022290014001A000800150017002B610490
:10033000001600070009000A00E1001D001B00066E
:10034000001900050000000000000005512C0012FB
:10035000501C0018000C00120013002A000B000DA6
:10036000000E000F0033003400110010003600377B
:10037000003800E500115028000451000000000082
:1003800000290014001A000800150017002B610452
:10039000001600070009000A00E1001D001B00060E
:1003A000001900050000000000000005512C00129B
:1003B000501C0018000C00120013002A000B000D46
:1003C000000E000F0033003400110010003600371B
:1003D000003800E500105028000451000000000023
:1003E000000000000052000000000000000000506B
:1003F0000051004F0000000000000000000000005D
:100400000000000000000000000000055100001086
:10041000502400250026002D0038002A002100224B
:10042000002300570055002B001E001F002000373E
:10043000003600280013502700045100000000007F
:1004400000010001000100010001000100010001A4
:1004500000C25CC55CC75CC95C01000100C35CC62E
:100460005CC85CCA5C0000000000000100010001E3
:100470000001000100010001000100010001000174
:100480000001000100010001000100010001000164
:1004900000010001001250010001000000000000F6
:1004A0000001001E001F00200021002200010001A9
:1004B0000001000100010001000100010001000134
:1004C0000001000100000000000000010001000127
:1004D00000230024002500260027000100500051C1
:1004E0000052004F0049004C00E60065004A004DF4
:1004F000004600E7000100010001000000000000CC
:100500000001001E021F022002210222020100013E
:1005100000010001000100010001000100010001D3
:1005200000010001000000000000000100010001C6
:100530000023022402250226022702350201002D93
:10054000022E022F023002310201000100010001DF
:100550000001000100010001000100000000000096
:100560000001003A003B003C003D003E000100015C
:100570000001000100010001000100010001000173
:100580000001000100000000000000010001000166
:10059000003F0024004100420043004400010001EC
:1005A00000010001000100450001000100010001FF
:1005B000000100A562010001000100000000000030
:1005C00000783C1E1E140A0505010902A1018502DE
:1005D0000901A10005091901290515002501950545
:1005E0007501810295017503810105010930093109
:1005F0001581257F95027508810609381581257FAB
:10060000950175088106050C0A38021581257F952C
:100610000175088106C0C005010980A10185031983
:10062000012AB700150126B700950175108100C099
:10063000050C0901A101850419012AA00215012652
:10064000A002950175108100C005010906A10105F0
:100650000719E029E7150025019508750181029524
:1006600001750881010507190029FF150026FF0003
:10067000950675088100050819012905950575017C
:100680009102950175039101C009023B000201002E
:10069000A0FA090400000103010100092111010071
:1006A000012240000705810308000A090401000136
:1006B00003000000092111010001228100070582C9
:1006C0000320000A120110010000000838393034FC
:1006D0000100010203010403300000000A0372005C
:1006E000650034003000000012036B0075007300D9
:1006F000680069006D00610038000000040309040F
:1007000011241FBECFEFDAE0DEBFCDBF04B603FE7B
:1007100027C08091F4029091F502A091F602B09169
:10072000F7028730904BA740B04BD1F41092F402FF
:100730001092F5021092F6021092F70214BE84B7DE
:10074000877F84BF0FB6F894A89580916000886178
:1007500080936000109260000FBEE0E0F8E309951E
:1007600022E0A0E9B1E001C01D92A43FB207E1F789
:1007700011E0A0E0B1E0E4E6FAE402C005900D92D9
:10078000A039B107D9F70E944C120C9430250C9473
:1007900000000895BF92CF92DF92EF92FF920F93E5
:1007A0001F93CF93DF93E82EF62EE901E42FF0E0BC
:1007B000611106C0E45EFE4F8491B82EE82F71C02F
:1007C000262F30E0E45EFE4FE491FE2FCE2ED12C9A
:1007D00046E0849FC00111240FEF10E0B8010E9491
:1007E000F5244BEA4603C001479F900D11248E0D5E
:1007F000911D8E0D911D982F990F890FD801A21B65
:10080000B30BAC9DA001AD9D500DBC9D500D1124AE
:10081000B52EF89ED0011124AB2FBB277801EA1A20
:10082000FB0AEC9CD001ED9CB00DFC9CB00D11249A
:100830007801E81AF108E29EC001E39E900DF29E55
:10084000900D1124892F9927081B190B0C9D9001DD
:100850000D9D300D1C9D300D1124832F62307105CC
:1008600091F048F461157105E1F061307105B9F45A
:100870008E2FEB2F16C06430710569F040F06630A2
:10088000710579F00CC08E2FE52FB32E0AC0E52F2D
:10089000BF2E8B2F06C0852FBE2EE32F02C0852FC3
:1008A000BB2EE9838883BA82DF91CF911F910F918C
:1008B000FF90EF90DF90CF90BF90089590912E021F
:1008C00092FF0DC0282F2871283019F4877F84608B
:1008D00006C0282F2471243011F48B7F886093FF89
:1008E0000DC0282F2871283119F4877E846106C035
:1008F000282F2471243111F48B7E886120912F02DE
:1009000020FF0DC0382F3871383019F4877F81608F
:1009100006C0382F3171313011F48E7F886021FF8D
:100920000DC0282F2871283119F4877E816106C0F7
:10093000282F2171213111F48E7E886194FD877EEC
:10094000089560914602669570E04BE050E080E0CB
:1009500091E00E942325892B19F481E080934C02B9
:100960000E948718909341028093400280914D022B
:10097000846080934D0208951F93CF93DF93CDB78A
:10098000DEB767970FB6F894DEBF0FBECDBF4B8BB7
:100990005C8B6D8B7E8B8F8B86E09E01235F3F4F40
:1009A000D901E82F1D92EA95E9F795E0FE017396CB
:1009B000D90101900D929A95E1F7F901DE011796A0
:1009C00001900D928A95E1F7CE0107960E944D2085
:1009D00081113EC086E0FE013796DE01119601903E
:1009E0000D928A95E1F7FF81E8856A857B8561151F
:1009F000710531F0EF3F31F481E0FF3F19F403C09E
:100A000081E001C080E080FD23C02091780230E0C9
:100A1000C9010196877099274091A90250E0841777
:100A2000950779F1F983EA837D836C8396E0929F41
:100A3000D001939FB00D1124A758BD4FFE013196F0
:100A400001900D929A95E1F7809378020E94101B15
:100A500016E08091A902909178028917F9F0189F09
:100A6000C001112487589D4F0E944D208823B1F06A
:100A70008091A90290E00196877099278093A9023E
:100A8000E8CF0E941722109278021092A902E2E7A2
:100A9000F2E086E0DF011D928A95E9F767960FB6CE
:100AA000F894DEBF0FBECDBFDF91CF911F910895A7
:100AB00020911102309112022817390771F090939A
:100AC000120280931102E0913202F09133023097CA
:100AD00021F00084F185E02D0994089520910F0202
:100AE000309110022817390771F09093100280930B
:100AF0000F02E0913202F0913302309721F006802C
:100B0000F781E02D09940895E0913202F0913302CB
:100B1000309721F00190F081E02D099480E0089554
:100B20000F931F93CF93DF93C62FD42F122FFC0167
:100B300082818823C9F0609313020E9487189093E2
:100B40000E0280930D0280E28C0F883008F057C0AF
:100B5000C77081E001C0880FCA95EAF7DF91CF9195
:100B60001F910F910C942D2280911302681330C0B5
:100B700080910D0290910E020E947818883C910598
:100B800038F500E20D0FCD17B9F080E28C0F8830F8
:100B900040F4C77081E001C0880FCA95EAF70E944F
:100BA0002222083028F581E09D2F977001C0880F20
:100BB0009A95EAF70E942D22812F0E94D5220830B3
:100BC000F0F4D77081E001C0880FDA95EAF70AC027
:100BD00080E28C0F883098F4C77081E001C0880FE4
:100BE000CA95EAF7DF91CF911F910F910C942222C1
:100BF000812FDF91CF911F910F910C94D522DF911E
:100C0000CF911F910F910895882311F0FA0101C02F
:100C1000FB010994EBE4F2E011828281846082831B
:100C2000089530910C018091460280FF16C0E0913A
:100C30000B0163E0E69FF0011124EB56FE4F539A3F
:100C40008BB1877F9BB198602FB7F894AF0163E0B9
:100C5000369F400D511D112414C080910D019091BB
:100C60000E01891720F7E82FF0E0AF01440F551F60
:100C7000E40FF51FEB56FE4F1182108212828F5F38
:100C8000F0CFE417F50789F0319168E09BB90000D7
:100C900000C037FF8BB9330F000000C000C000C098
:100CA0008BB900C06A9591F7ECCF2FBF8FE594E028
:100CB0000197F1F700C0000008959091460290FF5F
:100CC00016C090910D0120910E01921770F4E92F3A
:100CD000F0E0DF01AA0FBB1FEA0FFB1FEB56FE4F30
:100CE0008183608342839F5FF0CF0C941106089547
:100CF000CF93DF9300D01F92CDB7DEB7909146021D
:100D000090FF0DC0453608F044E69E012F5F3F4F2F
:100D10000E94CA034B8169818A810E945D060F90FF
:100D20000F900F90DF91CF910895CF93DF93EC0157
:100D3000E6E4F2E0438162818C810E9478068C8136
:100D40008F5F8C83DF91CF910895CF93DF93EC0178
:100D5000EC81F0E0EF5DFD4F4491E6E4F2E062816A
:100D600081810E9478068C818F5F8C83DF91CF9187
:100D7000089580914602282F269530E021153105EF
:100D800019F48170826005C02331310524F081702F
:100D900084628093460280914902853618F084E689
:100DA000809349020895CF92DF92EF92FF926B01F8
:100DB0007C010E94B906B701A60188E090E0FF908F
:100DC000EF90DF90CF900C94D324AF92BF92CF924C
:100DD000DF92EF92FF920F931F93CF93DF9300D098
:100DE0001F92CDB7DEB7082FF62E142FE22E80917A
:100DF000460280FF83C0E82FE695AE2FB0E0A25DEB
:100E0000BE4F9C9190934B028E7F823081F4453689
:100E100008F044E69E012F5F3F4F6F2D802F0E9408
:100E2000CA034B8169818A810E945D0644C0923069
:100E300019F4109149023FC0963019F4009147020D
:100E40003AC09930C1F5E9508E2F8170D82EE695C1
:100E5000F0E0E45EFD4FA590B490C12CBB246091FE
:100E60000F01C61630F52C2D30E0A29EC001A39EC6
:100E7000900DB29E900D112470E00E94F524802FF9
:100E8000D11002C0860F01C0861B90910D01290F61
:100E9000311DA901440F551F240F351F2B563E4FFE
:100EA000412F153608F044E66F2D0E94CA03C39403
:100EB000D6CF0E94110680914702081308C0809186
:100EC0004802F81204C080914902181729F0809155
:100ED0004D02826080934D0200934702F0924802D7
:100EE00010934902EE2051F0609146027091470242
:100EF00080914802909149020E94D3060F900F9072
:100F00000F90DF91CF911F910F91FF90EF90DF90A5
:100F1000CF90BF90AF900895E6E4F2E0438121E1E5
:100F2000421B08F440E021E0628181810C94E506D7
:100F3000E6E4F2E0438121E1420F08F44FEF21E0C3
:100F4000628181810C94E506E6E4F2E0628121E1B0
:100F5000621B08F460E021E0438181810C94E50686
:100F6000E6E4F2E0628121E1620F08F46FEF21E034
:100F7000438181810C94E506E6E4F2E0818121E081
:100F80004381628188500C94E506E6E4F2E08181B9
:100F900021E043816281885F0C94E50680914A02DA
:100FA000882319F0815080934A0260914602709123
:100FB000470280914802909149020C94D306809197
:100FC0004A02833018F48F5F80934A026091460290
:100FD0007091470280914802909149020C94D30687
:100FE0009091460290FF3BC09170811102C09260C7
:100FF00006C0833110F0946202C0880F982B909342
:10100000460280914D02816080934D02662351F02B
:101010006091460270914702809148029091490286
:101020000E94D30660914602669570E04BE050E066
:1010300080E091E00E942325892B19F00E940A0686
:1010400002C00E94A10481E08093430220E040910D
:10105000490260914802809147020C94E506089588
:10106000809146028695815009F482E161E00C94FA
:10107000F0078091460286958F5F833108F081E00A
:1010800061E00C94F0079091460290FF04C09695A1
:10109000981740F003C0811105C090E0961710F436
:1010A0000C94390861E00C94F007E6E4F2E083E088
:1010B000808311828FEF828384E683831482ABE482
:1010C000B2E012968C911297836012968C93608195
:1010D0007181828193810C94D30680919401811156
:1010E00012C08091D80080618093D8008AE18A95EF
:1010F000F1F700C08091D90080FD02C082E001C0FC
:1011000081E08093940181E090919401913009F005
:1011100080E00895CF93DF9320E3829FC0011124E4
:10112000FC0146E0749FE00DF11D1124E60FF11D56
:10113000EE0FFF1FEF5DFC4FC591D491CE01C23879
:10114000D10569F1B0F4C133D10509F475C048F493
:10115000C932D10509F469C0CA32D10509F473C096
:1011600085C0C533D10509F459C0C933D105B9F0DB
:101170007DC0C33ED10571F138F4C03ED105B1F058
:10118000C23ED10511F172C0C63ED105B9F1C73ECC
:10119000D105C9F1C43ED10509F068C024C0209131
:1011A0002E0220FD5DC021FD5BC060C020912E029B
:1011B00020FD50C020912F0220FF51C180912E02AE
:1011C00084FD4BC183EE90E04AC120912E0222FFA4
:1011D00046C1F4CF80912E0282FD3FC080912F0244
:1011E00080FD3EC0EBCF20912F0221FF38C18091BE
:1011F0002E0284FD32C187EE90E031C120912E0293
:1012000023FF2DC1F4CF80912E0283FD2CC080914D
:101210002F0281FFECCF84EE90E021C120912E02BD
:1012200025FF1DC189E290E01AC120912E0225FF01
:1012300016C185E390E013C120912E0226FF0FC155
:101240008AE290E00CC120912E0226FF08C181E3C2
:1012500090E005C189E390E002C182EE90E0FFC01A
:1012600080EE90E0FCC086EE90E0F9C0C11551E53B
:10127000D50708F06CC0C11520E5D207F0F0CE010B
:10128000F4E096958795FA95E1F7282F23703C2F87
:10129000337081E090E002C0880F991F3A95E2F721
:1012A0009C68922B2C2F2F702695269550E2259F17
:1012B00090011124822B932BD2C0C83ED10570F52A
:1012C000C03ED10508F0CBC0C83AD105B8F4C53A44
:1012D000D10550F02C2F255AC22FD0E0C15ADE4F35
:1012E000888190E09064BBC0C130D10509F4B7C0DB
:1012F00008F4B3C0249708F4B0C0B1C0CF3BD10507
:1013000008F0ABC02C2F285AC22FD0E0CC0FDD1F25
:10131000CE59DE4F888199819464A1C0C11540E205
:10132000D40760F4C11551E0D50708F098C0C03F5C
:10133000D10508F492C0CE01906591C0C11580E43A
:10134000D80708F48AC0CE019F70906A88C0C11582
:1013500025E5D20708F040C0C11544E5D40728F0C0
:101360009C2F8827846F906A7AC0C11553E5D507F2
:10137000A8F09E012370332781E090E002C0880F1F
:10138000991F2A95E2F72C2F2695269550E2259F46
:1013900090011124822B932B9A6861C0C11582E5BC
:1013A000D80728F49C2F8827816F906A58C09E0127
:1013B0002370332781E090E002C0880F991F2A959F
:1013C000E2F72C2F2695269540E2249F90011124C8
:1013D000822B932B9C6843C0C11529E5D207B0F43A
:1013E000C11548E5D40728F09C2F8827806F906AA4
:1013F00036C0C11556E5D50780F58C2F0E945E04D6
:101400008F7190E0982F8827906229C0C1158AE5D6
:10141000D80790F48C2F8F700E945E049E0194E098
:10142000369527959A95E1F72F7030E0322F2227D5
:101430003069A901482B0FC0CE019056811590420A
:1014400060F48D2F8F710E945E049E0133273062FD
:101450008F71A901582BCA0102C080E090E0DF9192
:10146000CF910895CF93C62F882311F08130A1F436
:101470006091C8027091C9028091CA029091CB021A
:101480000E946019823040F4C11102C08AEF01C08D
:1014900089EFCF910C94D522CF9108956F927F92CE
:1014A0008F929F92AF92BF92CF92DF92EF92FF9274
:1014B0000F931F93CF93DF9361E471E004E212E096
:1014C00028E2A22E22E0B22E3801C0E0EE24E394FE
:1014D000F12CDB018D91BD01E82FE295EF70F0E07A
:1014E00021A18F70A70102C0440F551F8A95E2F712
:1014F000CA01242B21A322A1942E9094292122A356
:1015000050EA5A95F1F799E4C92E91E0D92E40E0BE
:1015100050E0D0E0D6018D906D01282D22952F70DE
:1015200030E0D90190962C9130E0B82DBF7002C008
:1015300035952795BA95E2F720FD07C02E2D042E8C
:1015400001C0220F0A94EAF701C020E0D22B4F5FBE
:101550005F4F46305105F1F691A1992291A292A1D7
:10156000892B82A3F3018081D81719F0D08381E001
:1015700001C080E0C82BFFEF6F1A7F0A28E26216D5
:1015800022E0720609F0A5CFF0902D02CC2349F09D
:1015900081E0809392010E9487189093910180933B
:1015A0009001809192018823A9F0809190019091FF
:1015B00091010E947818069768F0EF2DF0E0EB5C3F
:1015C000FD4FD8018D918D018193AA16BB06C9F7F5
:1015D000109292010E946D08882309F463C0109153
:1015E0002C0280914D028823E9F085E0E6E4F2E0E8
:1015F000A5E1B2E001900D928A95E1F780914B024E
:1016000090914C02A0914D0280931A0290931B027C
:10161000A0931C0281E090E00E942A24892B11F4FF
:1016200010924D0280E090E00E942A24892B09F05C
:10163000A8C0E12FF0E0EB5CFD4F80E090E0DC0122
:10164000A25EBD4F2C912193019684309105B9F78C
:10165000D09131028D2F90E0FC01E25BFD4F7F01C4
:10166000109122028081181B012F101654F4015092
:10167000D7018C918F5F8C9360E08D2F0E94320A8E
:10168000F4CF812F17FD80E0181B112309F476C0D9
:101690001F5FF70180818150808361E08D2F0E9460
:1016A000320AF3CFE0912D020E2F10E080911D023F
:1016B000883009F04CC080911C0280FF25C09091B9
:1016C00015028091460290FF0AC081608093460215
:1016D0008091150260E086950E94F00715C08E7F0C
:1016E000809346020E940A0680914D028160809399
:1016F0004D02FFEF20E732E0F15020403040E1F7AB
:1017000000C000000E94110680911C0281FF09C0E8
:1017100020E04091180260911702809116020E9409
:10172000E50680911C0282FF09C080911B0288237C
:1017300019F00E94A10402C00E940A0680911C02B6
:1017400083FF03C081E08093430210921D02F801E1
:10175000EB5CFD4F80E090E02191DC01A25EBD4F8B
:101760002C93019684309105B9F7E0915102F0E095
:10177000E25BFD4F80818093220213C0109293019F
:1017800010C0809193018F5F80939301863048F061
:10179000E0912C02F0E0EB5CFD4F1082118212828E
:1017A00013828C2FDF91CF911F910F91FF90EF90BB
:1017B000DF90CF90BF90AF909F908F907F906F9071
:1017C00008958F929F92AF92BF92CF92DF92EF9245
:1017D000FF920F931F93CF93DF93CDB7DEB72A9776
:1017E0000FB6F894DEBF0FBECDBFFC010081D180E3
:1017F00083819481892B39F01FEFD11206C091E0CB
:101800000F3F19F403C091E001C090E090FD44C582
:101810007F0185E0DE01169601900D928A95E1F731
:10182000F70122818E819F81222349F00E94E319D2
:10183000182F682F8E819F810E945D1A03C00E941D
:10184000301A182F20E3129FF001112436E0D39EA6
:10185000E00DF11D1124E00FF11DEE0FFF1FEF5DF4
:10186000FC4F05911491033F8CE5180729F180F492
:10187000083DECE51E07C9F0093DFCE51F0741F1F5
:10188000073D2CE5120739F526E241EE61EE10C066
:10189000053F3CE51307C1F098F0063F9CE51907AA
:1018A000D1F427E245EE66EE03C027E245EE65EE91
:1018B000C7010E949005B7C126E241EE60EEF8CF65
:1018C00027E245EE64EEF4CF26E241EE62EEF0CF81
:1018D00028E241E0ECCFF7019281992309F43FC15E
:1018E000109213020230FCE51F0708F422C10631F2
:1018F0002CE5120738F098012A5F3C452930310564
:1019000008F017C10E94EC1890932F0280932E02CA
:1019100000313CE5130709F4C3C008F041C00830AA
:101920009CE5190709F49AC0F0F40430FCE51F07A0
:1019300009F487C068F402303CE5130709F477C066
:1019400003301C4509F0E5C080912E02826076C00C
:1019500006309CE5190709F46EC008F07BC0809141
:101960002E0288606BC00C30FCE51F0709F485C0AF
:1019700068F40A303CE5130709F474C008F079C034
:101980000E94172280912E02806858C00E309CE57C
:10199000190709F476C008F07FC080912E028BC031
:1019A0000B3FFCE51F0709F44FC018F503313CE578
:1019B000130709F47DC078F401319CE5190709F497
:1019C00073C002311C4509F0A4C00E941722809107
:1019D0002E028F7733C00531FCE51F0709F472C072
:1019E00008F486C00A3F1C4509F093C080912F027D
:1019F0003EC00F3F8CE5180709F45FC058F40D3F57
:101A0000ECE51E0709F444C008F43FC080912F02A2
:101A100082602DC001302DE5120709F475C008F46D
:101A20005DC002301D4509F074C060E06EC0809159
:101A30002E02816003C080912E02806180932E026D
:101A400068C080912E0211C080912F028260809325
:101A50002F025FC080912E028062F0CF80912E0213
:101A60008064ECCF80912E0288608460E7CF816033
:101A7000EECF80912E028E7FE1CF80912E028D7F5E
:101A8000DDCF80912E02877FD9CF80912F0218C0A1
:101A900080912F028D7FDBCF80912E028F7ECECF63
:101AA00080912E028F7DCACF80912E028F7BC6CF70
:101AB00080912E02877F8B7FC1CF80912F028D7FF7
:101AC0008E7FC5CF80912E0282FB222720F991E0E4
:101AD000922790FB82F990FB83F9B0CF80912F027F
:101AE000982F909591708E7F892B90FB81F9AFCFC5
:101AF0000E94172280912E0287FB222720F991E075
:101B0000922790FB87F99ACF61E08EE090E00E94E7
:101B1000C12460912E0210912F0284E090E00E9477
:101B2000C124612F81E290E00E94C1240E9417220B
:101B30007AC006312CE5120761F58091CF028A7ACE
:101B400091E009F490E090931402882311F065E38A
:101B500001C069E28AE692E00E94D21817C00631FD
:101B6000FCE51F0709F07EC080911402882309F468
:101B700043C385E3EAE6F2E020E732E0928189138D
:101B800001C0128231962E173F07C1F70E94B61985
:101B90004AC001152CE5120739F00E3D1C4509F02D
:101BA0006BC00E94FD183FC00E9417228FEF94E384
:101BB000ECE081509040E040E1F700C0000087E792
:101BC00097E790930108809300089AE088E10FB6A8
:101BD000F894A895809360000FBE90936000FFCFAB
:101BE0008091460280FF0EC38E7F809346026091F3
:101BF00046027091470280914802909149020E94EA
:101C0000D3060E940A0680914D02816080934D02A6
:101C10009FEFE0E7F2E09150E040F040E1F700C0D4
:101C200000000E9411068091CC02877009F434C331
:101C3000F7018281882309F42FC382E02A960FB628
:101C4000F894DEBF0FBECDBFDF91CF911F910F91F2
:101C5000FF90EF90DF90CF90BF90AF909F908F90CC
:101C60000C94CC1A8091CF028272F801E25CFC45A0
:101C7000E431F10508F4C2C2F70100811181992312
:101C800049F0C8010E94E319D82E682FC8010E94AC
:101C90005D1A04C0C8010E94301AD82EB8018D2DDB
:101CA0000E948A088C01982EF701A580A2942FE04B
:101CB000A222D280D1101092CE028091CC028770E5
:101CC00099F0DD2089F0812F807F803421F080E23F
:101CD000800F883048F082E00E94CC1A8091CC02BC
:101CE0008770CC24C3948111C12CB12EB2949FE093
:101CF000B9228B2D90E08C30910508F040C2FC0198
:101D0000EA5AFF4F0C941D25812F807F1F70882376
:101D100011F01295107FDD20B9F0112309F41AC2D9
:101D200080E2800F883010F0911006C08091CF02C1
:101D3000182B1093CF0205C08091CE02182B109360
:101D4000CE020E94B61906C2802F0E9437221123AC
:101D500009F415C2005E1095083010F0911006C00D
:101D60008091CF0218231093CF0205C08091CE023C
:101D700018231093CE020E94B61901C2812F807FD2
:101D80001F70803211F01295107F992021F0F1E040
:101D90009F16E1F02AC0DD2081F08091D002AA20B8
:101DA00051F001E0A01207C0182B181709F4E7C181
:101DB0001093D002E4C1812B10C0AA2021F021E0B1
:101DC000A21609F4DCC10E94B01927C0DD2041F041
:101DD00035E03A1508F4D3C1812F0E942D22CFC1DE
:101DE00084E08A1508F4CBC118C0DD2049F0AA2090
:101DF00099F3F701858180FFADC18F708583ECCFAA
:101E0000AA2059F0093309F0B7C1FFEF17EE23E01C
:101E1000F15010402040E1F7ADC1812F0E942222F5
:101E2000AEC1812F86958695837019F0813059F067
:101E3000A6C1DD2019F0C801937002C080E090E0D7
:101E40000E946E05A2C1DD2019F0C801937002C086
:101E500080E090E00E94580598C1802FDD2019F0A5
:101E60000E94EA1702C00E9423170E9493188DC196
:101E7000812F837009F069C0D11085C1902F929590
:101E800096959770990F990F802F8F70882E912CAF
:101E9000A12CB12C092E04C0880C991CAA1CBB1CB7
:101EA0000A94D2F704FF12C04FE050E060E070E007
:101EB00004C0440F551F661F771F9A95D2F7DB01A8
:101EC000CA0180959095A095B09503C080E090E000
:101ED000DC0116951695412F4370423019F1C8F474
:101EE0000091D1021091D2022091D3023091D402FC
:101EF000413059F088299929AA29BB29BC01CD0173
:101F000060237123822393230AC0802A912AA22A64
:101F1000B32ABC01CD01682979298A299B290E940D
:101F2000061B31C188299929AA29BB290091D10210
:101F30001091D2022091D3023091D402BC01CD0184
:101F40006027712782279327EACFDD2019F0812FA0
:101F5000817001C08695882309F415C1902F929550
:101F600096959770990F990F802F8F70882E912CCE
:101F7000A12CB12C092E04C0880C991CAA1CBB1CD6
:101F80000A94D2F704FF12C04FE050E060E070E026
:101F900004C0440F551F661F771F9A95D2F7DB01C7
:101FA000CA0180959095A095B09503C080E090E01F
:101FB000DC0116951695412F43704230D9F068F533
:101FC0000091C8021091C9022091CA023091CB023F
:101FD000413059F088299929AA29BB29BC01CD0192
:101FE00060237123822393231EC0802A912AA22A70
:101FF000B32A13C088299929AA29BB290091C802AC
:102000001091C9022091CA023091CB02BC01CD01CE
:10201000602771278227932706C0BC01CD0168295C
:1020200079298A299B290E94891AADC01F70DD2059
:1020300039F0812F0E94E51A802F0E942D22A3C023
:10204000802F0E942222812F0E94A71A9CC0802FDD
:1020500032EF931609F440C0391538F090EF991615
:1020600061F0E1EF9E1699F170C0F3EF9F16D9F180
:1020700024EF921609F44EC068C0DD2019F134E057
:102080003A1508F47CC01F7181E090E0A0E0B0E058
:10209000AC01BD0104C0440F551F661F771F1A9580
:1020A000D2F78091C8029091C902A091CA02B09162
:1020B000CB028A019B01082719272A273B27C90140
:1020C000B80125C025E02A1508F459C0DCCFDD2071
:1020D00029F0812F8F712CC0DD20D9F3812F8F71D2
:1020E0000E94A71A4CC0DD2079F01F7181E090E0BA
:1020F000A0E0B0E0BC01CD0104C0660F771F881FCF
:10210000991F1A95D2F703C060E070E0CB010E94DE
:10211000891A35C0DD2079F01F71812F0E94E51AE0
:1021200038E0139FC001112483608093CC02812F7B
:102130000E94E51A24C081E00E94CC1A81E08A1531
:10214000F0F482E00E94CC1A1AC0DD2039F0AA20F7
:1021500009F4BFCF802F0E94762211C0AA2009F473
:10216000BDCF893349F49FEFE7EEF3E09150E040B3
:10217000F040E1F700C00000802F0E94372288EF76
:102180008B0D843010F40E948405CC20A9F080913E
:10219000CC0280FD11C0F701128285958595859549
:1021A0000E94E51AC7010E94E10B8091CC0285953F
:1021B000859585950E94A71A85E0F701DE011196A5
:1021C00001900D928A95E1F789819A810E94301AD7
:1021D0009A8100E3809FF001112416E0919FE00DA9
:1021E000F11D11248981E80FF11DEE0FFF1FEF5D36
:1021F000FC4F8591949150C089E2BCCCEE59FF4FC1
:102200000C941D2581608093460261E0869536C05E
:1022100040E358E069E378E02CC049E358E060E32C
:1022200078E027C04CEB57E065EC77E022C045EC46
:1022300057E06CEB77E01DC044EA57E060EB77E0D5
:1022400018C040EB57E064EA77E013C04CE857E071
:1022500068E977E00EC048E957E06CE877E009C02C
:102260004EEC57E06FED77E004C04FED57E06EECB9
:1022700077E00E940406D7CC61E081E00E94F0077D
:10228000D2CC65E082E005C068E086E002C062E191
:1022900089E00E944308C7CC2A960FB6F894DEBFA7
:1022A0000FBECDBFDF91CF911F910F91FF90EF90A7
:1022B000DF90CF90BF90AF909F908F900895209126
:1022C000E4003091E50095E64091EC00842F8170A8
:1022D00040FF23C08091E80080FD1DC08091E7028F
:1022E000882399F0853099F08091EB0085FD11C02D
:1022F0004091E4005091E5002417350729F39150EF
:1023000011F09A01E1CF84E0089582E0089583E01E
:10231000089581E0089580E008954091E80042FF2B
:10232000DDCF08958091E90287FF11C08091E80018
:1023300082FD05C08091E7028111F8CF11C0809124
:10234000E8008B770BC08091E702882349F08091E9
:10235000E80080FFF8CF8091E8008E778093E80056
:102360000895982F973068F59093E900981739F001
:102370007091EC002091ED005091F00003C0242FEB
:10238000762F50E021FD02C09F5FECCF3091EB0033
:102390003E7F3093EB003091ED003D7F3093ED00B8
:1023A0003091EB0031603093EB007093EC002093A0
:1023B000ED005093F0002091EE0027FDE5CF80E086
:1023C00008958F708093E90081E008952091EF02D5
:1023D0003091F0022617370748F06115710539F47E
:1023E0002091E8002E772093E80001C0B901FC019C
:1023F00020E06115710579F18091E7028823F1F100
:102400008530F1F18091E80083FD3CC08091E800C7
:1024100082FD2EC08091E80080FFEBCF2091F30079
:102420008091F20090E0922B6115710551F0883097
:10243000910538F421912093F100615071090196C2
:10244000F3CF21E0089709F020E08091E8008E7733
:102450008093E800CECF2111CFCF0AC08091E70250
:10246000882361F0853061F08091E80083FD0AC027
:102470008091E80082FFF2CF80E0089582E0089525
:1024800083E0089581E008958091E702843011F09F
:1024900081E0089582E00895CF93DF93CDB7DEB752
:1024A00060970FB6F894DEBF0FBECDBF84B7877FAD
:1024B00084BF0FB6F894A8958091600088618093DE
:1024C0006000109260000FBE90E080E80FB6F894B4
:1024D00080936100909361000FBE85B7806885BFCF
:1024E00085B7806885BF0E945F1E0E947E1E809116
:1024F000E20084608093E20078948091E702882370
:10250000A1F01091E9001F709091EC00892F81706B
:1025100090FD80E8182B1092E9008091E80083FD7F
:102520000E94461B1F701093E90082E084BD93E077
:1025300095BD9AEF97BD80936E000E946D088093C1
:10254000200180912001882321F010920B0184E169
:1025500003C084E180930B0180930C010E946D08FD
:10256000882331F062E070E080E191E00E9448232E
:102570008091200180912001811102C094E001C06E
:1025800090E090932D0284E0891B80932C02A1E4BB
:10259000B1E045E451E061E070E08D91E82FE29513
:1025A000EF70F0E021A18F708B0102C0000F111FAE
:1025B0008A95E2F7C801902F9095922391A392A15A
:1025C000892B82A34A175B0741F7A9E4B1E04FE4E6
:1025D00051E061E070E08D91E82FE295EF70F0E05E
:1025E00021A18F708B0102C0000F111F8A95E2F7A5
:1025F000C801902F9095922391A392A1892B82A339
:102600004A175B0741F7E4E2F2E08CE292E0A5E3CF
:10261000B2E011921D928E179F07D9F780E090E0EB
:102620000E94BB248C3E9E4F11F00E94FD180E9418
:102630006D08811106C062E070E080E191E00E94C7
:10264000512380E090E00E94BB248C3E9E4F11F00D
:102650000E94FD1882E090E00E94AD248093610208
:102660000E94EC1890932F0280932E0283E090E05A
:102670000E94AD24682F70E080E090E00E94061B6D
:102680008091300281113BC080E090E00E94BB2429
:102690008C3E9E4F21F00E94FD180E94550888E054
:1026A00090E00E94B52460934602709347028093A5
:1026B00048029093490280914D02836080934D02BD
:1026C0006E7F71F40E94550888E090E00E94B52466
:1026D00060934602709347028093480290934902A8
:1026E0000E94B9060E940A068091460280FF04C03B
:1026F00060E086950E94F00781E08093300280912F
:102700002001811106C086E38093220186E6809332
:10271000210120912201E22FE295EF70F0E031A13A
:102720002F7081E090E0AC01022E01C0440F0A94AA
:10273000EAF7542F5095352331A332A1432B42A3FE
:1027400040912101A42FA295AF70B0E091963C91E9
:1027500091974F70042E01C0880F0A94EAF7982FC2
:102760009095932391969C93919792969C91929792
:10277000892B92968C93929780A190E002C09595B8
:1027800087952A95E2F7817090962C9130E002C0EF
:10279000359527954A95E2F720FD02C090E001C0EB
:1027A00092E0892B809352029091200181E098273A
:1027B00090935102891B8093310283E291E09093C0
:1027C0003302809332027724739466246A943DE343
:1027D000C32E32E0D32E40E1442E52E1552E68E163
:1027E000A62EB12C8091E702853009F036C0809189
:1027F000E702843011F11092340280E40FB6F894AD
:10280000A895A09260000FBE8093600083B7817F7F
:10281000846083BF83B7816083BF7894889583B7D2
:102820008E7F83BF0FB6F894A89580916000886171
:1028300080936000109260000FBE8091E6028823B2
:1028400009F4D0CF0E944E0AE5E3F2E081918111B4
:1028500032C2CE16DF06D1F7C5CF0E944E0A0E94C3
:102860006D088823A1F1E2E6F2E0A5E3B2E000E022
:1028700010E0302F2D919191922721F180E0FF24DB
:10288000F3944F2D4923D1F08F8338872F2181E096
:1028900009F480E089870E9487188160782F9B87E0
:1028A0008A874F81588569858B850E94BC04F80111
:1028B000EE59FD4F8081F826F08218C08F5FFF0C23
:1028C0008630F9F60F5F1F4F0830110591F66C86C0
:1028D0006D861E860E9487188160782F988B8F875F
:1028E0004C855D856E8588890E94BC0480914C0270
:1028F000882309F47CC080914B02E0914602E69562
:10290000E81BE0934202823059F4F0E0EC53FA4FB6
:10291000E4910E2F10E025EAE22E26E0F22E13C0FD
:10292000863059F4F0E0EF53FA4FE4910E2F10E0A7
:1029300095E9E92E96E0F92E06C000ED17E089EC46
:10294000E82E83E0F82E80914302882389F01092CC
:1029500043020E948718980120953095820F931F9B
:1029600090934102809340021092450210924402DB
:1029700080914002909141020E947818801791073F
:10298000B0F180913F028823B1F010923F02809114
:102990003D0290913E020E9478188033954758F08E
:1029A0000E94871890933E0280933D0280914D02D1
:1029B000886080934D028090440290904502E0919F
:1029C0004002F09141020E0F1F1F1093410200932D
:1029D000400280E492E0F7010995809144029091D1
:1029E0004502892B21F4892811F070923F02E09171
:1029F00052025E2F550F550F20912201E22FE295D2
:102A0000EF70F0E080A190E02F7002C0959587955F
:102A10002A95E2F78170992740912101E42FE295F0
:102A2000EF70F0E020A130E04F7002C0359527959F
:102A30004A95E2F7F901E170FF2720FF02C0E2E0CA
:102A4000F0E0E82BF92BE52BE093520210915102B4
:102A5000EF70F0E0E15BFE4F908180915002890FB2
:102A60008093500284306CF0E12F012E000CFF0B9C
:102A7000E25BFD4F80818F5F808360E0812F0E9449
:102A8000320A809150028D3F6CF4E12F012E000C30
:102A9000FF0BE25BFD4F80818150808361E0812FDD
:102AA0000E94320A80915002837887FF03C08150D0
:102AB0008C6F8F5F8093500286E0EAE5F2E0DE01E2
:102AC000119601900D928A95E1F780915C02811137
:102AD00005C080915D02882309F46CC08091580282
:102AE000909159020E9478189C0190915702992365
:102AF00009F4F5C02333310508F45CC09F3F19F099
:102B00009F5F9093570210925E0210925F02809135
:102B10005C02181624F40E94CA1780935C0280910C
:102B20005C0287FF05C00E94CA17819580935C02F2
:102B300080915D02181624F40E94CA1780935D02EA
:102B400080915D0287FF05C00E94CA17819580931E
:102B50005D0230915C023323D1F020915D0222238B
:102B6000B1F005EB3003C0011124992319F09093C3
:102B70005C0202C070925C0215EB2103C0011124BB
:102B8000992319F090935D0202C070925D020E9439
:102B90009318809155029091560290935902809318
:102BA000580286E0FE013196AAE5B2E001900D924E
:102BB0008A95E1F780915E02811105C080915F02E4
:102BC000882309F46CC080915302909154020E94B2
:102BD00078189C0190915702992309F485C02536F5
:102BE000310508F45CC09F3F19F09F5F9093570236
:102BF00010925C0210925D0280915E02181624F41D
:102C00000E94A81780935E0280915E0287FF05C034
:102C10000E94A817819580935E0280915F0218162A
:102C200024F40E94A81780935F0280915F0287FFBF
:102C300005C00E94A817819580935F0230915E02C3
:102C40003323D1F020915F022223B1F045EB34030E
:102C5000C0011124992319F090935E0202C0709272
:102C60005E0205EB2003C0011124992319F0909313
:102C70005F0202C070925F020E9493188091550219
:102C800090915602909354028093530286E0FE0185
:102C90003196AAE5B2E001900D928A95E1F70E9483
:102CA000840590916002891709F49CCD0E948405E7
:102CB0008093600297CD49BC59BC09B400FEFDCF9A
:102CC0008091D8008F7D8093D8008091E000826051
:102CD0008093E0008091E00081FDFCCF83CD2D3218
:102CE000314008F00DCF66CF2D32314008F07DCF56
:102CF000D6CF8091DC020895CF93DF9300D01F924E
:102D0000CDB7DEB79091E702943019F589837B83C4
:102D10006A8382E08093E9008FEF9091E800815010
:102D200095FD06C095ED9A95F1F700008111F5CF5C
:102D30008091E80085FF0DC040E050E063E070E066
:102D4000CE0101960E941A1B8091E8008E77809335
:102D5000E8000F900F900F90DF91CF910895CF93DF
:102D6000DF93EC010E944412823011F0843031F480
:102D7000BE0184E0DF91CF910C947C16DF91CF915E
:102D80000895BC0183E00C947C16CF93DF93EC0193
:102D90000E944412823011F08430F9F482E0809372
:102DA000E9008FEF9091E800815095FD06C095ED08
:102DB0009A95F1F700008111F5CF8091E80085FF29
:102DC0000CC040E050E066E070E0CE010E941A1BAB
:102DD0008091E8008E778093E800DF91CF9108958D
:102DE000CF93DF93EC010E944412823011F08430C3
:102DF00039F581E08093E9008FEF9091E8008150F0
:102E000095FD06C095ED9A95F1F700008111F5CF7B
:102E10008091E80085FF14C040E050E068E070E079
:102E2000CE010E941A1B8091E8008E778093E80003
:102E300088E0FE01ADEDB2E001900D928A95E1F7D8
:102E4000DF91CF910895803F39F480915D0287FF33
:102E50006CC010925D0269C0813F29F480915D02CF
:102E60001816BCF362C090915C02823F29F497FF70
:102E70005CC010925C0259C0833F19F41916CCF360
:102E800054C0893F41F480915E0218160CF04DC089
:102E900010925E024AC08A3F29F480915E0287FF49
:102EA00044C0F6CF8B3F39F480915F0287FF3DC06D
:102EB00010925F023AC08C3F29F480915F0218168D
:102EC000BCF333C0843F21F480915B028E7F17C036
:102ED000853F21F480915B028D7F11C0863F21F4F4
:102EE00080915B028B7F0BC0873F21F480915B0256
:102EF000877F05C0883F31F480915B028F7E80938D
:102F00005B0213C08D3F21F48091D9028E7F0BC0EC
:102F10008E3F21F48091D9028D7F05C08F3F29F427
:102F20008091D9028B7F8093D90280915C028111BC
:102F30000EC080915D0281110AC080915E028111F4
:102F400006C080915F02811102C01092570208955D
:102F50008091D90280FD16C081FD16C082FD18C087
:102F600080915702882391F0883290F428E0829F64
:102F7000C001112468E270E00E940925862F672BAA
:102F800029F007C082E0089584E0089581E0089563
:102F900088E008958091D90280FD14C081FD14C09D
:102FA00082FD16C080915702882381F0843180F41D
:102FB00022E3829FC001112464E170E00E94092590
:102FC000862F08958CE0089589E1089585E008959D
:102FD00082E30895803F21F40E94CA17819504C0BE
:102FE000813F29F40E94CA1780935D020895823FB1
:102FF00021F40E94CA17819504C0833F29F40E94DE
:10300000CA1780935C020895893F19F40E94A8179B
:1030100005C08A3F31F40E94A817819580935E0213
:1030200008958B3F21F40E94A817819504C08C3F1E
:1030300029F40E94A81780935F020895843F21F429
:1030400080915B02816017C0853F21F480915B0213
:10305000826011C0863F21F480915B0284600BC0C6
:10306000873F21F480915B02886005C0883F31F47E
:1030700080915B02806180935B0208958D3F21F413
:103080008091D90281600BC08E3F21F48091D902DA
:10309000826005C08F3F29F48091D90284608093BB
:1030A000D902089578941F920F920FB60F921124AF
:1030B0008F939F93AF93BF938091D5029091D60247
:1030C000A091D702B091D8020196A11DB11D8093A5
:1030D000D5029093D602A093D702B093D802BF91A5
:1030E000AF919F918F910F900FBE0F901F901895E9
:1030F0009C014FB7F8948091D5029091D602A0918F
:10310000D702B091D8024FBF821B930B08952FB7FF
:10311000F8948091D5029091D602A091D702B091F7
:10312000D8022FBF0895E0913202F0913302309718
:1031300049F082E080935A020480F581E02D8AE50F
:1031400092E009950E948718909356028093550249
:1031500008951F920F920FB60F9211248F939F9391
:10316000AF93BF9380913402811113C08091D50237
:103170009091D602A091D702B091D8024196A11D9C
:10318000B11D8093D5029093D602A093D702B0933D
:10319000D802BF91AF919F918F910F900FBE0F906A
:1031A0001F9018959C01FC0132969FEF80E04191A1
:1031B000461789F09F3F19F4411101C0982F8F5F86
:1031C0008630A9F79F3F39F0F901E90FF11D97FD0E
:1031D000FA95628308950895CF9384E090E00E9469
:1031E000AD24C82F81E290E00E94AD242C2F30E066
:1031F000A901582BCA01CF9108956CEE7EEF80E0B3
:1032000090E00E94DF2460E082E090E00E94C12410
:1032100060E083E090E00E94C1241092D1021092FD
:10322000D2021092D3021092D40260E084E090E0C7
:103230000E94C12460E081E290E00E94C12460E02D
:1032400085E090E00E94C12460E086E090E00E946A
:10325000C1246FEF87E090E00E94C12440E050E07D
:10326000BA0188E090E00E94D32460E08DE090E015
:103270000E94C12440E050E0BA0188E190E00E9441
:10328000D32460E087E190E00E94C12440E050E058
:10329000BA018CE190E00E94D32460E080E290E0EB
:1032A0000E94C12440E050E0BA018FE090E00E940B
:1032B000D32440E050E0BA0183E190E00C94D324A1
:1032C000CF92DF92EF92FF926C01EE24FF24C114A3
:1032D000D104E104F10421F0C701B60120E101C0ED
:1032E00020E0C72ED82EE92EFF24C114D104E1041A
:1032F000F10419F0285FC701B6016B017C0154E0AD
:10330000F694E794D794C7945A95D1F7C114D10491
:10331000E104F10419F02C5FC701B6016B017C01D7
:1033200042E0F694E794D794C7944A95D1F7C11434
:10333000D104E104F10419F02E5FC701B601DC01EC
:10334000CB01B695A79597958795892B8A2B8B2BC3
:1033500009F02F5F822FFF90EF90DF90CF900895BC
:103360008091D00281111092D00208959091CF02E5
:103370008091CE02892B2091CD02982F922B909391
:103380006A028091D002882389F0892B80936A0297
:10339000ECE6F2E097E080E0915029F021912223C1
:1033A000D9F38F5FF9CF81110E94B019E0913202F9
:1033B000F0913302309731F00280F381E02D8AE6FC
:1033C00092E009940895BF92CF92DF92EF92FF921C
:1033D0000F931F93CF93DF938C01C090C802D090BE
:1033E000C902E090CA02F090CB028091D102909184
:1033F000D202A091D302B091D402C82AD92AEA2AD3
:10340000FB2ACFE1D0E0D701C6010C2E04C0B6954F
:10341000A795979587950A94D2F780FD04C02197C8
:1034200090F7B12C07C0BC2EB8018C2F0E948A08DF
:103430000197A9F38B2DDF91CF911F910F91FF90F1
:10344000EF90DF90CF90BF900895CF93DF93EC0182
:103450000E94E319BE010E948A08DF91CF9108956E
:10346000292F220F920F990F890F682F6695669565
:103470006695982F977085E0689FB001112440E011
:1034800050E080E0FB01E40FF51FE655FD4F208181
:1034900030E0092E02C0369527950A94E2F7217094
:1034A0003327042E01C0220F0A94EAF7822B4F5FC4
:1034B0005F4F4530510531F70895292F220F920FA4
:1034C000990F890FE82FE695E695E695877051E00C
:1034D00001C0550F8A95EAF785E0E89FF0011124B5
:1034E000E655FD4F20E030E070E04081CB01022E38
:1034F00002C0969587950A94E2F78170819584279A
:103500008523842781932F5F3F4F2530310569F74D
:1035100008950F931F938B019C010073112722279D
:103520003327DC01CB01003311052105310511F4EE
:10353000806401C08F7B8093C8029093C902A093DE
:10354000CA02B093CB021F910F910C94FC210F93F0
:103550001F9341E050E060E070E004C0440F551F4D
:10356000661F771F8A95D2F74095509560957095A4
:103570008091C8029091C902A091CA02B091CB0279
:103580008A019B01082319232A233B23C901B8017F
:103590001F910F910C94891A2091CC02809582235F
:1035A0008093CC02982F977079F430E0482F082E42
:1035B000000C550B2417350739F0859585958595B1
:1035C0000E94A71A1092CC0208950F931F9341E016
:1035D00050E060E070E004C0440F551F661F771F85
:1035E0008A95D2F78091C8029091C902A091CA022F
:1035F000B091CB028A019B01082B192B2A2B3B2B64
:10360000C901B8011F910F910C94891A6093D102DE
:103610007093D2028093D3029093D4020C94FC2135
:103620008091A90290917802891719F08F5F8770B5
:10363000FBCF0895EF92FF920F931F93CF93DF93E9
:103640007C018B010E945F11811119C0E7010115F6
:103650001105A1F08091E80085FD0AC08091E80085
:103660008E778093E8000E945F11882381F307C062
:1036700089918093F10001501109E9CF80E0DF9139
:10368000CF911F910F91FF90EF9008951F93CF93CB
:10369000DF93CDB7DEB7AA970FB6F894DEBF0FBEA3
:1036A000CDBFE9EEF2E08091F100819322E0E13FAD
:1036B000F207C9F78091EA02833009F460C030F460
:1036C000813071F0823009F49AC0B1C08A3009F4B7
:1036D00086C08B3009F46BC0893009F0A8C020C0C7
:1036E0008091E902813A09F0A2C08091E800877FC9
:1036F0008093E8008091ED029091EE02892B21F4F5
:1037000068E08DED92E003C060E080E090E070E062
:103710000E94E6118091E8008B778093E80087C0D3
:103720008091E902813209F082C08091ED0290918E
:10373000EE02029708F07BC08091E800877F8093BB
:10374000E8008091E80082FD05C08091E7028111C8
:10375000F8CF6DC02091F3008091F20090E0922BA1
:10376000029729F48091F1008B7F813021F48091C0
:10377000F1008093DC028091E8008B7754C0809147
:10378000E902813A09F053C08091ED029091EE0276
:10379000892B09F04CC08091E800877F8093E80076
:1037A0008091E80080FFFCCF80912D0137C080918F
:1037B000E9028132E1F58091ED029091EE02892BD0
:1037C000B1F58091E800877F8093E8000E94921114
:1037D0008091EB0280932D010E94172228C08091D6
:1037E000E902813221F58091E800877F8093E8002B
:1037F0000E9492118091EC028093DB0218C08091AC
:10380000E902813AA1F48091E800877F8093E80083
:103810008091E80080FFFCCF8091DB028093F10073
:103820008091E8008E778093E8000E949211809149
:10383000E80083FFD8C18091E9029091EA02492F04
:1038400050E04A30510508F0CEC1FA01EA58FF4F66
:103850000C941D25803821F0823809F0C4C108C0BD
:103860008091E5029091E602992389F082600FC071
:103870008091ED028F70873008F0B5C18093E90028
:103880008091EB0085FB882780F91092E9009091E8
:10389000E800977F9093E8008093F1001092F10088
:1038A00071C1282F2D7F09F09EC1882319F0823025
:1038B00061F099C18091EB02813009F094C193309D
:1038C00009F080E08093E6022EC08091EB02811126
:1038D0002AC08091ED028F702FEF280F263008F05C
:1038E00082C18093E9002091EB0020FF1CC093303F
:1038F00021F48091EB00806214C09091EB00906104
:103900009093EB0021E030E0A90102C0440F551F65
:103910008A95E2F74093EA001092EA008091EB006A
:1039200088608093EB001092E9008091E800877F27
:103930002CC1811158C11091EB021F778091E300D7
:103940008078812B8093E3008091E800877F8093CB
:10395000E8000E9492118091E80080FFFCCF8091E6
:10396000E30080688093E300111102C082E001C08F
:1039700083E08093E70237C18058823008F033C17A
:103980008091EB029091EC028C3D53E0950779F524
:1039900083E08A838AE289834FB7F894DE01139625
:1039A00020E03EE051E2E32FF0E050935700E49135
:1039B00020FF03C0E295EF703F5FEF708E2F90E025
:1039C000EA3010F0C79601C0C0968D939D932F5F8B
:1039D000243149F74FBF8091E800877F8093E8004A
:1039E0006AE270E0CE0101960E94E611BAC04091F1
:1039F000ED025091EE02292F332723303105B1F02B
:103A000068F42130310509F4FDC02230310509F098
:103A1000EAC08BE390E0E9E8F6E050C021323105DE
:103A200081F12232310509F439C0DDC09927813096
:103A30009105B9F070F082309105D9F0039709F043
:103A4000D2C0E6EDF6E0E4918E2F90E0E6EDF6E0F0
:103A500032C0ECEFF6E0E4918E2F90E0ECEFF6E070
:103A60002AC0E8EEF6E0E4918E2F90E0E8EEF6E072
:103A700022C0ECEDF6E0E4918E2F90E0ECEDF6E064
:103A80001AC04115510509F4C2C04130510509F071
:103A9000AAC089E090E0E4EBF6E010C041155105C2
:103AA00009F4BAC04130510509F09DC081E890E0A9
:103AB000E8ECF5E003C0009709F495C02091E80018
:103AC000277F2093E8002091EF023091F0028217C7
:103AD000930708F49C0140E02115310589F180919C
:103AE000E702882309F43DC08530D9F18091E800D0
:103AF00083FD37C08091E80082FD2FC08091E800EF
:103B000080FFEACF4091F3008091F20090E0942B87
:103B10002115310559F08830910540F444914093C6
:103B2000F1003196215031090196F2CF41E008971A
:103B300009F040E08091E8008E778093E800CCCFD8
:103B40004111CDCF0AC08091E702882351F0853022
:103B500041F08091E80083FD04C08091E80082FF7D
:103B6000F2CF8091E8008B778093E8003CC08038EA
:103B7000D1F58091E800877F8093E8008091E8028A
:103B80008093F1008091E8008E778093E8000E9496
:103B9000921129C0811127C08091EB029091EC0213
:103BA0009927029704F58091E800877F8093E800C9
:103BB0001091EB021093E8020E949211111106C0BD
:103BC0008091E30087FD02C081E001C084E0809322
:103BD000E70242E061EC81E00E94B11142E261EC57
:103BE00082E00E94B1118091E80083FF1AC08091A9
:103BF000E800877F8093E8008091EB0080628093EB
:103C0000EB000FC082E190E0E4ECF6E057CF89E0F2
:103C100090E0EBE9F6E052CF80E490E0E9E4F6E0F2
:103C20004DCFAA960FB6F894DEBF0FBECDBFDF9181
:103C3000CF911F9108951F920F920FB60F921124EA
:103C40002F933F934F935F936F937F938F939F93A4
:103C5000AF93BF93CF93DF93EF93FF93C091E900AE
:103C6000CF708091EC00D82FD17080FDD0E81092F9
:103C7000E9008091F000877F8093F00078940E94A3
:103C8000461B1092E9008091F00088608093F0005C
:103C9000CD2BCF70C093E900FF91EF91DF91CF91D1
:103CA000BF91AF919F918F917F916F915F914F9154
:103CB0003F912F910F900FBE0F901F901895E8ED38
:103CC000F0E080818E7F80831092E2001092DA0013
:103CD0001092E100A0EEB0E08C9181608C93808125
:103CE0008F77808319BCA7EDB0E08C918E7F8C9389
:103CF00080818F7E80831092DA020895CF92DF92C6
:103D0000EF92FF920F931F93CF93DF93C8EDD0E014
:103D100088818F7E8883E7EDF0E0808181608083F9
:103D200084E082BF81E08093DA0288818E7F88837D
:103D300002EE10E0F80110821092DA0081EEC82E37
:103D4000D12CF601108288818F77888388818068E2
:103D5000888388818F7D888319BC1092E702109236
:103D6000E8021092E6021092E50290EEE92EF12CA4
:103D7000F70180818B7F808388818160888342E026
:103D800060E080E00E94B111F60180818E7F808327
:103D9000F801808181608083808188608083F70161
:103DA00080818E7F8083888180618883DF91CF913D
:103DB0001F910F91FF90EF90DF90CF9008951F9289
:103DC0000F920FB60F9211242F933F934F935F934F
:103DD0006F937F938F939F93AF93BF93EF93FF93D3
:103DE0008091E10082FF09C08091E20082FF05C05E
:103DF0008091E1008B7F8093E1008091DA0080FF69
:103E00002AC08091D80080FF26C08091DA008E7F82
:103E10008093DA008091D90080FF18C080E189BDCD
:103E200082E189BD09B400FEFDCF81E08093E70205
:103E30008091DA0281110FC00E945F1E0E947E1ED7
:103E40008091E20084608093E20005C019BC10926A
:103E5000E7021092DA028091E10080FF17C08091A2
:103E6000E20080FF13C08091E2008E7F8093E20029
:103E70008091E20080618093E2008091D8008062AE
:103E80008093D80019BC85E08093E7028091E1001F
:103E900084FF32C08091E20084FF2EC080E189BDA2
:103EA00082E189BD09B400FEFDCF8091D8008F7DED
:103EB0008093D8008091E1008F7E8093E100809113
:103EC000E2008F7E8093E2008091E2008160809327
:103ED000E2008091E802882311F084E007C080911D
:103EE000E30087FD02C081E001C083E08093E70228
:103EF0000E9417220E9484058091E10083FF27C061
:103F00008091E20083FF23C08091E100877F80934E
:103F1000E10082E08093E7021092E8028091E100E4
:103F20008E7F8093E1008091E2008E7F8093E2009B
:103F30008091E20080618093E20042E060E080E0F6
:103F40000E94B1118091F00088608093F000FF9191
:103F5000EF91BF91AF919F918F917F916F915F9101
:103F60004F913F912F910F900FBE0F901F9018957A
:103F70000F931F93CF93DF938091770282958F7079
:103F800009F05DC080917402882309F458C08091C3
:103F9000A902109178026091720270917302C0912F
:103FA0007502D091760291E06F3F09F090E0292FE1
:103FB00006E0811709F443C0209721F07F3F21F0EC
:103FC00030E003C031E001C0322F90E030FD34C05A
:103FD000089FF001099FF00D1124DF01A758BD4F84
:103FE00011963C911197371327C03C91361324C08A
:103FF00012963C91129731111FC013964D915C910E
:1040000014974C1B5D0B483C5105B0F4809177022E
:104010008F70806180937702E258FD4F80818F70AE
:104020008061808382E792E00E94E10BDF91CF9173
:104030001F910F910C94101B01968770BACFDF91DE
:10404000CF911F910F9108950E94251A292F2F704B
:10405000E92FE295EF704E2F50E0FA013297EE30E3
:10406000F105B8F4E058FF4F0C941D25803F99F0FE
:1040700018F4883E70F40FC0843F59F40CC0883E99
:1040800050F0813F31F407C0822F86958695869542
:10409000089580E0089581E008959F92AF92BF92C5
:1040A000CF92DF92EF92FF920F931F93CF93DF9304
:1040B000CDB7DEB761970FB6F894DEBF0FBECDBFA8
:1040C0008C0185E0F801DE011D9601900D928A9524
:1040D000E1F7F80190818181E28030917202609174
:1040E000730240917502509176024115510531F0ED
:1040F0006F3F31F421E03F3F19F403C021E001C0DC
:1041000020E0F22FF1709F2E20FD23C1F801C38023
:10411000D48022E7A22E22E0B22EF0907402F601A3
:10412000E41BF50BFF2009F4CEC020917702E83C98
:10413000F10508F099C0422F407F09F051C0681383
:1041400011C039130FC0FE2CE1100CC02F7020617C
:1041500020937702C5010E94E10B80917702F8015C
:10416000858337C1CD2831F08F3F31F421E09F3F67
:1041700019F403C021E001C020E020FD03C021E0CC
:104180002E2502C020E030E0F22FF170FF2E20FF3C
:104190001DC02091A9024091780256E0241709F42D
:1041A000F6C030E0529FF001539FF00D1124E75804
:1041B000FD4F6181861306C06081961303C0628142
:1041C000E61204C02F5F3F4F2770E8CFFE2CEE2091
:1041D00009F4FFC08091770281608093770250C01C
:1041E000681307C0391305C0E11003C0F801258327
:1041F0008DC09D878E878D859E850E942420882373
:1042000069F1EE2059F120917702822F82958F700B
:1042100090E0029774F080917202909173029887F7
:104220008F831986DB86CA862C87CE0107960E946B
:10423000E10B86E0F801A2E7B2E001900D928A95C9
:10424000E1F70E94B81F0DC06817E1F09D878E87C7
:104250008D859E850E94242081111EC0C8010E9468
:10426000E10BFF24F394B5C0422F407F69F782E74A
:1042700092E00E94E10B86E0F50111928A95E9F740
:10428000F12CA7C03913E2CFE110E0CFF80125836C
:10429000C8010E94E10B57C0EE2001F32091770284
:1042A000822F82958F7090E002971CF280917202AB
:1042B000909173029A8389831B82DD82CC822E8344
:1042C000CE010196B4CFE83CF105E8F5FE2CEE20D6
:1042D00029F2681327C0391325C02091770220FDE9
:1042E00018C0822F82958F70482F50E041155105DC
:1042F00081F0F80125834F30510541F08F5F982FF1
:104300009295907F822F8F70892B8583C8010E94A0
:10431000E10B86E0F801A2E7B2E001900D928A95E8
:10432000E1F757C09D878E878D859E850E9424204A
:1043300081117FCF80917702816080937702C801DD
:104340000E94E10B46C086E0F50111928A95E9F7DB
:1043500040C0EE2009F482CF9D878E878D859E8593
:104360000E942420F82E882309F478CF86E0F801F3
:10437000A2E7B2E001900D928A95E1F78091720276
:10438000909173020E94251A0E94B81F22C09D8737
:104390008E878D859E850E94251A292F22952F7044
:1043A000223028F49F7039F0811105C00BC02430F1
:1043B00028F49F7049F4805E883020F0C8010E9484
:1043C000E10B9F2CF92C05C0F8019581907F99F79E
:1043D000F9CF8F2D61960FB6F894DEBF0FBECDBF1B
:1043E000DF91CF911F910F91FF90EF90DF90CF90D1
:1043F000BF90AF909F9008951092CE021092CD0280
:104400000E94B619EAE5F2E086E0DF011D928A9586
:10441000E9F7109257021092D9020E94931880E097
:1044200090E00E946E0580E090E00C945805109298
:10443000CF0286E0ECE6F2E0DF011D928A95E9F713
:104440000C94FC21882341F080959091CF02892320
:104450008093CF020C94B6190895882339F0909177
:10446000CF02892B8093CF020C94B619089588232C
:10447000E1F19CEF980F913A60F4EAE6F2E0928164
:10448000891301C01282319642E0E037F407B9F790
:1044900014C090E2980F983090F4877021E030E0DB
:1044A000A90102C0440F551F8A95E2F7CA01809501
:1044B0009091CF0289238093CF020C94B6199BE58B
:1044C000980F933020F480E090E00C946E0598E50E
:1044D000980F973120F480E090E00C945805803FCD
:1044E00020F00E9423170C9493180895CF938823EB
:1044F00009F459C0C82F8CEF8C0F813AF8F4ECE620
:10450000F2E082E792E02191C21721F08E179F0717
:10451000D1F70EC0EAE6F2E080E792E02281C21312
:1045200001C0128231968E179F07C1F70E94B619FB
:104530006C2F8AE692E00E94D21810C080E28C0FA5
:10454000883078F4C77081E090E001C0880FCA9588
:10455000EAF79091CF02892B8093CF02CF910C94F0
:10456000B619EBE5EC0FE33040F4F0E0E15AFE4F12
:10457000808190E0CF910C946E05E8E5EC0FE73177
:1045800050F4F0E0EE0FFF1FEE59FE4F8081918155
:10459000CF910C945805C03F30F08C2F0E94EA1741
:1045A000CF910C949318CF910895CF93C82F0E9468
:1045B0007622C93349F42FEF87EE93E021508040F3
:1045C0009040E1F700C000008C2FCF910C9437226F
:1045D0008EE14A9B02C08150E1F74A9BFECF0895CD
:1045E0005A9880E28A95F1F75A9A0895FC012AE0D8
:1045F0002A95F1F790E020E080E031E0261779F08D
:1046000040E14A95F1F7880F4A9B02C081609327E9
:1046100000C0000040E14A95F1F72F5FEFCF20E1A5
:104620002A95F1F729B100C0000030E13A95F1F781
:1046300022FB222720F992272081920F9083089550
:10464000EF92FF920F931F93CF93DF931F92CDB7FB
:10465000DEB719828C017C01E60EF11C0E151F05D8
:1046600059F00E94E82268E0CE0101960E94F622ED
:10467000F80181938F01F2CF81E09981911180E05F
:104680000F90DF91CF911F910F91FF90EF900895C0
:104690009093F3028093F2026093F102529A5A9A35
:1046A00008959093F3028093F2026093F10252987E
:1046B0005A9AEA9AE9E6F0E080818F7C8083089537
:1046C000615091E001C0990F6A95EAF720E031E06E
:1046D000992361F0492F482319F05A9A232701C0E2
:1046E0005A9840E24A95F1F79695F2CF222311F0BD
:1046F0005A9A01C05A9880E28A95F1F75A9808951B
:10470000FF920F931F93CF93DF93EC018C01060F61
:10471000111DC017D10741F0F9900E94F02268E006
:104720008F2D0E946023F5CFDF91CF911F910F91C4
:10473000FF9008951F920F920FB60F9211240F93BE
:104740001F932F933F934F935F936F937F938F9319
:104750009F93AF93BF93EF93FF93CF93DF931F92FA
:10476000CDB7DEB719820E94E82267E0CE0101963C
:104770000E94F622382F369536953695932F9695CA
:104780009570232F2570920F292F2370969596955B
:104790008770920F891348C08981811145C080912B
:1047A000F102831708F440C080E18A95F1F75A9A24
:1047B000529AA2E0AA95F1F700C00091F20210917E
:1047C000F302B8E03B9F000D111D11245A98F80127
:1047D0006581662321F0868197810E9480230E9453
:1047E000F022F0E1FA95F1F75A9852985A9A80E13E
:1047F0008A95F1F7D80112966C911297662369F0A9
:1048000013968D919C9114970E942023D801ED91CD
:10481000FC91811105C082E004C0D801ED91FC91AA
:1048200088E080830E94E8220F90DF91CF91FF9172
:10483000EF91BF91AF919F918F917F916F915F9118
:104840004F913F912F911F910F910F900FBE0F909D
:104850001F9018950F931F93CF93DF932091F10230
:1048600030E0281739070CF471C09C0193E0220F47
:10487000331F9A95E1F7C091F202D091F302C20F73
:10488000D31FF894529A5A9845E04A95F1F70000E0
:10489000982F969595708570890F982F93708695AF
:1048A0008695890F8901082B0E94F02284E08A9561
:1048B000F1F700C067E0802F0E94602340E14A9535
:1048C000F1F752985A9A4A9902C000C0FCCF87E08B
:1048D00090E04A9B0EC0019751F4529A5A9AE8818F
:1048E000F98181E08083789481E090E031C000C05C
:1048F000F0CF6D81662381F08E819F810E942023FD
:1049000081110AC0529A5A9AE881F98182E0808323
:10491000789482E090E01CC00E94E82280E28A95B0
:10492000F1F75A98529A40E14A95F1F76A81662365
:1049300021F08B819C810E9480230E94F022E881DB
:10494000F9811082789480E090E002C084E090E0E9
:10495000DF91CF911F910F910895F999FECF92BDEC
:1049600081BDF89A992780B50895A6E1B0E044E0AA
:1049700050E00C94E724A8E1B0E042E050E00C9451
:10498000E724262FF999FECF92BD81BDF89A0197B1
:1049900000B4021639F01FBA20BD0FB6F894FA9A87
:1049A000F99A0FBE08950396272F0E94C2240E94F1
:1049B000C124252F0E94C224242F0C94C2240196C6
:1049C000272F0E94C2240C94C124DC01CB01FC01DE
:1049D000F999FECF06C0F2BDE1BDF89A319600B458
:1049E0000D9241505040B8F70895AA1BBB1B51E1EE
:1049F00007C0AA1FBB1FA617B70710F0A61BB70B4F
:104A0000881F991F5A95A9F780959095BC01CD01F3
:104A1000089597FB072E16F4009407D077FD09D070
:104A20000E94F52407FC05D03EF4909581959F4F98
:104A30000895709561957F4F0895EE0FFF1F0590C3
:104A4000F491E02D0994FC014150504030F0019068
:104A50000616D1F73197CF01089588279927089531
:044A6000F894FFCFF8
:104A640001090A0B0C0D0E0F101112002800282842
:104A74002302002302051E021D0208150200000085
:104A84000136667916F016C516C116AF1601000177
:104A940002020202060606090909090909090909A7
:104AA40009C63433320000000094F4F5F6F73100FF
:104AB400FF0100010000FFFF0000010001FF008171
:104AC4008283E200E900EA00B500B600B700CD0039
:104AD4008301CC008A019201940121022302240261
:104AE4002502260227022A02B300B4006F007000D8
:00000001FF
