:100000000C947B060C94C2060C94C2060C941D1B27
:100010000C94C2060C94C2060C94C2060C94C20640
:100020000C94C2060C94C2060C9433300C94053127
:100030000C948F280C94C2060C94C2060C94C20631
:100040000C94C2060C94C2060C94C2060C94C20610
:100050000C94C2060C94E8280C94C2060C94C206B8
:100060000C94C2060C94C2060C94C2060C94C206F0
:100070000C94C2060C94C2060C94C2060C94C206E0
:100080000C94C2060C94C2060C94C2060C94C206D0
:100090000C94C2060C94C2060C94C2060C94C206C0
:1000A0000C94C2060C94C2060C94C206750878081B
:1000B000860889087D088008830807130A130F1330
:1000C00016131B13201325132A132F13341339135C
:1000D0003E13421345134C134C134C134C1348134B
:1000E0004C13781E781EAA1EAA1EF71E151F292063
:1000F0002920201FB91FCA1FCA1FD720D720E920D7
:10010000E920E020E920E920E920D720D720E520D8
:10011000E920E920E520723199319132993191320B
:10012000E531083291325F326E328081828384857C
:10013000868788898A8B8C8D8E8F9091929394A0DC
:10014000A1A2A3A4A5A6A7A8A9AAABACADAEAFB027
:10015000B1B2B3B4C0C1C2C3C4C5C6C7C8C9CACB93
:10016000CCCDCECFD0D1D2D3D400004350534C4BC2
:100170000000556E64656600436F6E660031304B5B
:1001800065790041646A00526169004C6F77003202
:100190006E6400317374004C415945520000574958
:1001A0004E004D414300004D4F4445000029681466
:1001B000001A000800150017002B64040016000741
:1001C0000009000A00E0001D001B000600190005E0
:1001D000000000000000000A5D095D13501C0018BB
:1001E000000C00120013002A000B000D000E000F7F
:1001F0000033002402110010003600370038002DB3
:10020000621150085D0B5D000000000000105001FD
:1002100000010001000100010001000100010001D6
:1002200000010001000100010001000100010001C6
:100230000000000000000001000100010014001A8D
:10024000000800150017001C000400160007000934
:10025000000A000B001D001B000600190005002805
:10026000002900E000E10000000000000010500044
:100270000052000000000000002B64500051004FAD
:10028000000000000000000000000000000000006E
:10029000000000000000000451095D00002400255A
:1002A0000026002D0038002A0021002200230057DC
:1002B0000055002B001E001F0020003700360028CC
:1002C00000105027000451000000000000105001F1
:1002D00000010001000100010001000100C25CC535
:1002E0005CC75CC95C01000100C35CC65CC85CCA39
:1002F0005C0000000000000100010010500100013E
:1003000000010001000100010001000100010001E5
:1003100000010001000100010001000100010001D5
:100320000001000100010000000000000035681E0F
:10033000001F002000210022002B0001003B0001D3
:10034000003D043E00010001000100010001000128
:100350000000000000000001000100010023002453
:100360000025002600270001005000510052004FD8
:100370000049004C00010065004A004D00460001A4
:1003800000010001000100000000000000E3001E69
:10039000022F002002210222022B00010001000195
:1003A0000001000100010001000100010001000145
:1003B000000000000000000100010001002E0023E9
:1003C000023402250226022F02870233022D023058
:1003D0000032008900300232023602370238020150
:1003E0000001000100010000000000000001003ACF
:1003F000003B003C003D003E000100A900AA00A80F
:1004000000C25C01000100010001000100010001C7
:100410000000000000000001000100A8003F0009EA
:1004200000410042004300440001000100010001BE
:10043000000100450012501150010001000100A50B
:1004400062010001000100000000000000783C1E75
:100450001E140A052223252628292A2C2D2F303266
:10046000333536383A3B3D3E4042434547494A4C96
:100470004E5051535557595A5C5E606264666869C4
:100480006B6D6F71737577797B7D7F8183858789CC
:100490008A8C8E90929496989A9C9E9FA1A3A5A7D1
:1004A000A8AAACAEAFB1B3B4B6B8B9BBBCBEBFC1FD
:1004B000C2C3C5C6C7C9CACBCCCDCED0D1D2D2D388
:1004C000D4D5D6D7D7D8D9D9DADADBDBDBDCDCDC9C
:1004D000DCDCDDDDDDDDDCDCDCDCDCDBDBDBDADA5F
:1004E000D9D9D8D7D7D6D5D4D3D2D2D1D0CECDCCD6
:1004F000CBCAC9C7C6C5C3C2C1BFBEBCBBB9B8B6EB
:10050000B4B3B1AFAEACAAA8A7A5A3A19F9E9C9A75
:1005100098969492908E8C8A89878583817F7D7B43
:1005200079777573716F6D6B6968666462605E5C24
:100530005A5957555351504E4C4A494745434240EA
:100540003E3D3B3A3836353332302F2D2C2A292880
:1005500026252322FFAA7F55400001010101010148
:10056000010101020202020202020202030303036A
:10057000030303030404040404040405050505053A
:1005800006060606060707070707080808080909F8
:1005900009090A0A0A0B0B0B0C0C0C0D0D0D0E0EA3
:1005A0000E0F0F0F10101111111212131314141536
:1005B0001516161717181819191A1A1B1B1C1D1DAA
:1005C0001E1E1F2020212222232424252626272800
:1005D00029292A2B2C2D2D2E2F3031323233343530
:1005E000363738393A3B3C3D3E3F40414243444533
:1005F000464748494A4C4D4E4F5051535455565812
:10060000595A5B5D5E5F616264656668696B6C6DBB
:100610006F7072737577787A7B7D7E808283858731
:10062000888A8C8E8F91939596989A9C9EA0A2A36F
:10063000A5A7A9ABADAFB1B3B5B7BABCBEC0C2C474
:10064000C6C9CBCDCFD1D4D6D8DBDDDFE2E4E7E934
:10065000EBEEF0F3F5F8FAFDFF00AE00AF00DA02C2
:10066000818FD9F1DB40A4A62EAF00A0C000A1C8A5
:1006700000AED580A81FD300408D142000000000DC
:100680000000003E5B4F5B3E003E6B4F6B3E001C2C
:100690003E7C3E1C00183C7E3C18001C577D571CBD
:1006A000001C5E7F5E1C0000183C180000FFE7C3C2
:1006B000E7FF00001824180000FFE7DBE7FF003029
:1006C000483A060E00262979292600407F050507AD
:1006D00000407F05253F005A3CE73C5A007F3E1C06
:1006E0001C0800081C1C3E7F0014227F2214005F9F
:1006F0005F005F5F0006097F017F00006689956AE1
:100700000060606060600094A2FFA2940008047E14
:1007100004080010207E20100008082A1C08000889
:100720001C2A0808001E10101010000C1E0C1E0CB5
:100730000030383E383000060E3E0E060000000045
:1007400000000000005F0000000007000700001428
:100750007F147F1400242A7F2A1200231308646266
:1007600000364956205000000807030000001C22F4
:100770004100000041221C00002A1C7F1C2A0008A6
:10078000083E0808000080703000000808080808CB
:10079000000000606000002010080402003E514983
:1007A000453E0000427F4000007249494946002111
:1007B00041494D33001814127F1000274545453933
:1007C000003C4A4949310041211109070036494995
:1007D000493600464949291E000000140000000067
:1007E00040340000000008142241001414141414B2
:1007F000000041221408000201590906003E415D33
:10080000594E007C1211127C007F49494936003E46
:1008100041414122007F4141413E007F49494941D8
:10082000007F09090901003E41415173007F08081A
:10083000087F0000417F4100002040413F01007FD0
:1008400008142241007F40404040007F021C027F8C
:10085000007F0408107F003E4141413E007F0909AE
:100860000906003E4151215E007F091929460026F4
:10087000494949320003017F0103003F4040403FA6
:10088000001F2040201F003F4038403F00631408F5
:100890001463000304780403006159494D430000C8
:1008A0007F41414100020408102000004141417F86
:1008B00000040201020400404040404000000307E1
:1008C0000800002054547840007F28444438003801
:1008D0004444442800384444287F00385454541871
:1008E0000000087E09020018A4A49C78007F080478
:1008F00004780000447D4000002040403D00007F1F
:10090000102844000000417F4000007C04780478F7
:10091000007C0804047800384444443800FC18245F
:1009200024180018242418FC007C0804040800483B
:10093000545454240004043F4424003C4040207C90
:10094000001C2040201C003C4030403C004428104B
:100950002844004C9090907C004464544C44000027
:100960000836410000000077000000004136080012
:10097000000201020402003C2623263C00FFFFFF88
:10098000FFFFFFFFFFFFFFFFFFFFFFFFFFFFFFFF77
:10099000FFFFFFFFFFFFFFFFFFFFFFFFFFFFFFFF67
:1009A000FFFFFFFFFFFFFFFFFFFFFFFFFFFFFFFF57
:1009B000FFFFFFFFFFFFFFFFFFFFFFFFFFFFFFFF47
:1009C000FFFFFFFFFFFFFFFFFFFFFFFFFFFFFFFF37
:1009D000FFFFFFFFFFFFFFFFFFFFFFFFFFFFFFFF27
:1009E000FFFFFFFFFFFFFFFFFFFFFFFFFFFFFFFF17
:1009F000FFFFFFFFFFFFFFFFFFFFFFE0F0F0F0E072
:100A0000ECEEF7F37020007C7C7C7E007E7E7E7FA7
:100A10007F7F000080C0E07E5B4F5BFEC00000C0B7
:100A200000DCD7DEDEDED7DC00C000000000000006
:100A300000000000000000000000000000FFFFFFB9
:100A4000FFFFFFFFFFFFFFFFFFFFFFFFFFFFFFFFB6
:100A5000FFFFFFFFFFFFFFFFFFFFFFFFFFFFFFFFA6
:100A6000FFFFFFFFFFFFFFFFFFFFFFFFFFFFFFFF96
:100A7000FFFFFFFFFFFFFFFFFFFFFFFFFFFFFFFF86
:100A8000FFFFFFFFFFFFFFFFFFFFFFFFFFFFFFFF76
:100A9000FFFFFFFFFFFFFFFFFFFFFFFFFFFFFFFF66
:100AA000FFFFFFFFFFFFFFFFFFFFFFFFFFFFFFFF56
:100AB000FFFFFFFFFFFFFFFFFFFFFF0F1F3F7F7FD6
:100AC0007F7F7F3F1E0C001F1F1F3F003F3F3F7F68
:100AD0007F7F00307B7F7830202030787F3B0003A1
:100AE000000F7F0F0F0F7F0F0003000000000000BA
:100AF00000000000000000000000000000FFFFFFF9
:100B0000FFFFFFFFFFFFFFFFFFFFFFFFFFFFFFFFF5
:100B1000FFFFFFFFFFFFFFFFFFFFFFFFFFFFFFFFE5
:100B2000FFFFFFFFFFFFFFFFFFFFFFFFFFFFFFFFD5
:100B3000FFFFFFFFFFFFFFFFFFFFFFFFFFFFFFFFC5
:100B4000FFFFFFFFFFFFFFFFFFFFFFFFFFFFFFFFB5
:100B5000FFFFFFFFFFFFFFFFFFFFFFFFFFFFFFFFA5
:100B6000FFFFFFFFFFFFFFFFFFFFFFFFFFFFFFFF95
:100B7000FFFFFFFFFFFFFFFFFFFFFF000000000080
:100B80000000000000000000000000000000000065
:100B90000000000000000000000000000000000055
:100BA0000000000000000000000000000000000045
:100BB00000000000000000000000000000040330FE
:100BC0000000000A037200650034003000000012CB
:100BD000036B0075007300680069006D00610038E8
:100BE0000000000403090409023B00020100A0FA0E
:100BF0000904000001030101000921110100012283
:100C000040000705810308000A09040100010300F0
:100C10000000092111010001228100070582032043
:100C2000000A1201100100000008383930340100B8
:100C30000102030105010902A10185020901A100C8
:100C40000509190129051500250195057501810280
:100C50009501750381010501093009311581257F51
:100C600095027508810609381581257F950175085B
:100C70008106050C0A38021581257F9501750881CA
:100C800006C0C005010980A101850319012AB7002A
:100C9000150126B700950175108100C0050C0901EA
:100CA000A101850419012AA002150126A0029501BF
:100CB00075108100C005010906A101050719E02989
:100CC000E7150025019508750181029501750881D8
:100CD000010507190029FF150026FF009506750874
:100CE00081000508190129059505750191029501F5
:100CF00075039101C00011241FBECFEFDAE0DEBF03
:100D0000CDBF04B603FE27C0809183059091840572
:100D1000A0918505B09186058730904BA740B04BD8
:100D2000D1F41092830510928405109285051092DB
:100D3000860514BE84B7877F84BF0FB6F894A89544
:100D400080916000886180936000109260000FBE07
:100D5000E0E0F8E3099511E0A0E0B1E0E8EDF6E6A7
:100D600002C005900D92A03EB107D9F725E0A0EE94
:100D7000B1E001C01D92A338B207E1F70E94622DD5
:100D80000C946A330C9400000F9306E025E044E0D5
:100D90000E94B8090F910895CF93DF93E09130013D
:100DA000F0913101208121FF0CC0EC0181EE0E9405
:100DB000E91DCE010E94600981EE0E94931D80E032
:100DC00001C081E0DF91CF9108950F931F93CF93DE
:100DD000DF93EC01FB011281112309F4FDC0209186
:100DE000E4013091E501838194812C173D0759F48A
:100DF0002091E6013091E701AC01421B530B21E049
:100E0000483C510508F020E0D093E501C093E4018F
:100E10009093E7018093E601A5E0B1E084E090E0E3
:100E200040E33E91393320F04C930197D0F705C051
:100E3000DC01A050BF4F3F5F3C93C632D10591F11A
:100E400098F4C332D10541F130F4CF31D105D9F551
:100E50008FE290E032C0C432D10509F1C532D1052C
:100E600091F584E392E029C0C333D10521F148F420
:100E7000C732D105D1F0CD32D10529F587E892E00E
:100E80001CC0C43282E0D80799F0CF3232E0D307D9
:100E9000D1F48EE292E011C08EE290E00EC083E2C7
:100EA00092E00BC085E292E008C086E292E005C0C5
:100EB0008FE192E002C084E390E0DF91CF911F9137
:100EC0000F910C94CC06C8308DE5D80709F48AC080
:100ED00060F4C43081E5D807D1F1C53031E5D307DE
:100EE00009F476C0AB9761F0B1C0C9308DE5D80781
:100EF00009F482C0CC303DE5D30708F0A7C027C075
:100F00008281882309F4A2C09091E101992329F0FC
:100F10008BE291E00E94600929C0C091E201CC23DC
:100F200009F483C01091E301111190C082EE0E9478
:100F3000931D81E08093E3011C2F88C0C9303DE5FB
:100F4000D30708F054C0C43081E5D807F1F5128109
:100F50001093E20184E0112359F00E949E2491E055
:100F600089278093E00184E00E94BE2410E06EC0D7
:100F70000E94DF248091E301882329F082EE0E9401
:100F8000E91D1092E3018091E4019091E501C817F9
:100F9000D90761F7E0913001F0913101808180FF44
:100FA00008C08091E001882309F384E00E94BE24F8
:100FB0004DC0CA308DE5D80731F0CB30DD4509F0A2
:100FC00045C08AE82FC08BE82DC0C530D145A1F5BA
:100FD00082818093E10130C0C8308DE5D80709F0E7
:100FE000ADCF20E082818093E10108E209C0C930E1
:100FF0008DE5D807E1F420E082818093E1010CE2E5
:10100000128111111BC085E00E94DF24802F0E94F5
:10101000E91D8091E4019091E501C817D90709F015
:10102000A5CF802F0E941D1E11C0182F0FC0CC30DD
:101030003DE5D30708F48BCF11E008C0222321F04F
:10104000802F0E94931D92CF85E08ECF812FDF915C
:10105000CF911F910F910895CF93C82F0E94C80D73
:10106000811102C08C2F01C083E0CF9108950E94AE
:10107000C80D60E0882309F46CC08CEA91E00E94FE
:10108000141660E087EA91E00E94141660E086EA98
:1010900091E00E9414168091750560E080FF03C006
:1010A00082EA91E002C08EE991E00E94141660E0AD
:1010B0008DE991E00E94141660E087E991E00E94BA
:1010C00014166091A9027091AA028091AB029091CE
:1010D000AC020E94DA2690E087309105E8F4FC012A
:1010E000EA5AFF4F60E00C94F93283E991E002C0C4
:1010F0008FE891E00E94141614C08BE891E0FACFBB
:1011000087E891E0F7CF83E891E0F4CF8DE791E0B5
:1011100006C088E791E0EECF60E082E791E00E94B0
:10112000021660E081E791E00E9414160E94411CC3
:1011300081FB662760F98BE691E00E94021660E071
:101140008AE691E00E94141660E080E091E00C9441
:10115000E6158AE291E00C940216CF93C62F109206
:10116000E5011092E40181112AC06091A9027091F9
:10117000AA028091AB029091AC020E94DA268430E0
:1011800039F08630B1F0811140C0CC2371F12BC011
:101190008091E301811106C082EE0E94931D81E0DF
:1011A0008093E3018091E4019091E501CF910C944B
:1011B0006009C11102C08AEA25C089EA23C08130D2
:1011C00021F56091A9027091AA028091AB029091E1
:1011D000AC020E94DA26813051F018F0853069F0B7
:1011E00014C0C11102C08AEF0DC089EF0BC0C1113C
:1011F00002C08DE407C08CE405C0C11102C08EE4BA
:1012000001C08BE4CF910C941D1ECF9108959C01D9
:101210003A9521153F4138F5DC01AA27B270AC019F
:10122000442754709C012227387094FF0FC090FF10
:1012300002C080E101C080E0AB2B09F08062452B49
:1012400009F08064232B69F080680BC0892F8170BE
:10125000AB2B09F08260452B09F08460232B09F049
:101260008860FB0109940895CF93DF93EC01805EC1
:101270009109089710F0209719F460E37EE102C00D
:101280006DE970E2CE010E9407098C2FDF91CF91AA
:101290000C94931DCF93DF93EC010E94E91DCE01C6
:1012A000805E9109089710F0209719F467E37EE1BA
:1012B00002C064EA70E2CE01DF91CF910C9407097D
:1012C000CF93DF93EC010E943409CE01DF91CF91DF
:1012D0000C944A0981E008950C94E50608950C9455
:1012E0006E091F93CF93DF9300D000D01F92CDB72C
:1012F000DEB749835A836B833091520289819A8188
:10130000311114C0662359F0222349F00E94B525FB
:10131000182F682F89819A810E945C2503C00E9442
:101320008825182F69817A81812F04C00E94B525F4
:1013300069817A810F900F900F900F900F90DF913D
:10134000CF911F910C94790AFC01262F4081518185
:101350006281738184810C947109CF93DF93EC01D6
:1013600060E00E94A409BE01DF91CF910C946F0947
:101370008F929F92AF92BF92CF92DF92EF92FF92A5
:101380000F931F936B017C0181E090E0A0E0B0E03F
:101390004C015D0104C0880C991CAA1CBB1C4A9519
:1013A000D2F7AC01BD0104C0440F551F661F771F63
:1013B0002A95D2F7482959296A297B2904C0880F20
:1013C000991FAA1FBB1F0A95D2F78A019B010C2106
:1013D0001D212E213F21401751076207730739F461
:1013E000BC01CD016C297D298E299F290AC08095D9
:1013F0009095A095B095BC01CD016C217D218E21E9
:101400009F211F910F91FF90EF90DF90CF90BF90A1
:10141000AF909F908F9008950E942A27811102C05B
:101420000E94CA270C94770C0C94730C08950C94AA
:10143000160A81E008950C94190ACF93C82F0E94D0
:10144000170A8C2F0E941B0ACF91089508950E94BD
:10145000C5200E94260A2FEF84E39CE021508040A3
:101460009040E1F700C000000C940E290F931F93E9
:10147000CF93DF93EC0161E00E94A4098C01BE01CF
:101480000E946C09882379F1BE01C8010E94E91706
:10149000882349F1BE01C8010E942A18882319F146
:1014A000BE01C8010E9455198823E9F0BE01C80198
:1014B0000E94F0128823B9F08A81882369F001150F
:1014C0008CE5180731F00E3D1C4531F40E94CA2707
:1014D0000AC00E94270A07C0CE01DF91CF911F9159
:1014E0000F910C946A0980E0DF91CF911F910F91C9
:1014F000089520E3829FC0011124FC0126E0729F21
:10150000E00DF11D1124E60FF11DEE0FFF1FE35555
:10151000FE4F859194910895CF93DF930E94790AAD
:101520000E948E0BEC01811521E5920708F043C063
:10153000811540E5940708F08AC0883E910520F5A2
:10154000803E910508F0E6C0883A910570F4853A2E
:10155000910508F074C08130910509F4DBC008F4EE
:10156000D7C0049708F0D6C0D3C08F3B910508F0D0
:10157000CFC0C85AD0E0CC0FDD1FCB5BDE4F099047
:10158000D881C02DD464C6C0C11580E2D80758F4F4
:10159000C11521E0D20708F0BDC0C03FD10508F455
:1015A000B7C0D065B7C0C11540E4D40708F4B0C0D7
:1015B000DF70D06AAFC0C11585E5D807A0F4C115AA
:1015C00024E5D20708F08AC0C11543E5D40708F026
:1015D0006FC0C11582E5D80708F054C0DC2FCC27B6
:1015E000C16FD06A97C0C11529E5D207A0F4C11513
:1015F00048E5D40708F077C0C11586E5D80708F09C
:1016000087C08C2F0E94220C8F71C82FD0E0DC2F56
:10161000CC27D0627FC0C1152AE5D20708F468C084
:10162000CE0190568115904208F072C08D2F8F71B7
:101630000E94220CDD27D0628F71D82B6BC0C55A57
:10164000D0E0CD58DE4FC881D0E0D06463C074E0F4
:10165000969587957A95E1F783709C2F937021E09A
:1016600030E002C0220F331F9A95E2F73C68382B16
:10167000CF70C695C69580E2C89FE0011124C22BA9
:10168000D32B48C0CE018370992721E030E002C0FF
:10169000220F331F8A95E2F78C2F8695869540E2BC
:1016A000849FC0011124E901C82BD92BDC6832C00A
:1016B000CE018370992721E030E002C0220F331F52
:1016C0008A95E2F78C2F8695869540E2849FC0012B
:1016D0001124E901C82BD92BDA681CC0DC2FCC27D8
:1016E000C46FD06A17C0DC2FCC27C06FD06A12C07D
:1016F0008C2F8F700E94220C94E0D695C7959A95F6
:10170000E1F7CF70D0E0DC2FCC27D069C82B02C026
:10171000C0E0D0E0CE01DF91CF91089582389105ED
:1017200069F1B0F48133910509F46DC048F4893250
:10173000910509F463C08A32910509F469C00895DE
:101740008533910509F455C089339105B9F00895A1
:10175000833E910569F138F4803E9105B1F0823EF7
:10176000910509F10895863E9105A9F1873E9105FD
:10177000B9F1843E910509F064C023C0209174053D
:1017800020FD4FC021FD4DC008958091740580FD5E
:1017900044C08091750580FF44C08091740584FD2C
:1017A00042C083EE4DC08091740582FF38C0F5CFF2
:1017B0008091740582FD33C08091750580FD31C034
:1017C000ECCF8091750581FF32C08091740584FD56
:1017D0002AC087EE35C08091740583FF26C0F5CFFF
:1017E0008091740583FD21C08091750581FD1FC026
:1017F000ECCF8091740585FD1CC01DC080917405DF
:1018000085FD19C016C08091740586FD16C017C0ED
:101810008091740586FD13C010C089E311C082EE6B
:101820000FC080EE0DC080E00BC086EE09C084EED4
:1018300007C089E205C085E303C08AE201C081E3F5
:1018400090E008959091740592FF0DC0282F2871A3
:10185000283019F4877F846006C0282F2471243033
:1018600011F48B7F886093FF0DC0282F28712831D9
:1018700019F4877E846106C0282F2471243111F465
:101880008B7E88612091750520FF0DC0382F38713F
:10189000383019F4877F816006C0382F31713130BC
:1018A00011F48E7F886021FF0DC0282F2871283108
:1018B00019F4877E816106C0282F2171213111F42E
:1018C0008E7E886194FD877E0895E82FF0E0ED51CB
:1018D000FD4F80810895089580EA8A95F1F7089573
:1018E00008950C94700C0C94710C0C94700C0C9466
:1018F000750C0895CF93DF930E94EA0D8091060145
:1019000080910601811102C094E001C090E09093A3
:10191000EC0284E0891B8093EB02ACE7B1E040E885
:1019200051E061E070E08D91E82FE295EF70F0E01A
:1019300021A18F70EB0102C0CC0FDD1F8A95E2F769
:10194000CE019C2F9095922391A392A1892B82A3E3
:101950004A175B0741F7A6E7B1E04CE751E061E0C9
:1019600070E08D91E82FE295EF70F0E021A18F708B
:10197000EB0102C0CC0FDD1F8A95E2F7CE019C2F50
:101980009095922391A392A1892B82A34A175B077A
:1019900041F7EBEDF2E0A3EEB2E083EE92E01192BC
:1019A0001D928E179F07D9F784E00E94910D0E9427
:1019B0000C0ADF91CF910C94FE0D0E94C80D882374
:1019C000F1F08091EB0290E08D519D4F0E942E0E20
:1019D000811111C08091E8018F5F8093E80186300A
:1019E00060F0E091EB02F0E0ED51FD4F10821182CA
:1019F0001282138202C01092E8010C94140A8091A2
:101A0000EC0290E08D519D4F0E94510E0C94790C88
:101A10006F927F928F929F92AF92BF92CF92DF92FE
:101A2000EF92FF920F931F93CF93DF938CE7882E53
:101A300081E0982E0BED12E09FEDA92E92E0B92ED9
:101A4000712CCC24C394D12CF40181914F01C82F67
:101A5000C295CF70D0E099A18F70760101C0EE0CD5
:101A60008A95EAF7892F8E2989A38AA16E2C609422
:101A700086218AA30E946C0CE6E7F1E040E050E08A
:101A800020E03191A32FA295AF70B0E090968C9199
:101A900090E03F7002C0959587953A95E2F780FDFA
:101AA00007C08C2D042E01C0880F0A94EAF701C0EC
:101AB00080E0282B4F5F5F4F4630510511F789A119
:101AC000682269A28AA1E82AEAA2F801808128177F
:101AD00019F0208381E001C080E0782A0F5F1F4F5A
:101AE000A016B10609F0B0CF6091EC0270E06D5124
:101AF0007D4F272D44E08BED92E00E94920D0E94D5
:101B0000DD0C872DDF91CF911F910F91FF90EF900A
:101B1000DF90CF90BF90AF909F908F907F906F900D
:101B200008950895FF920F931F93CF93DF938C0135
:101B3000F62ED72FC42F222349F081E08093EB01AA
:101B40000E94C1289093EA018093E9018091EB0102
:101B50008823C1F08091E9019091EA010E94D9287F
:101B6000069780F0EF2DFD2FD8014C2F50E0CD01CE
:101B7000801B910B841795071CF48D918193F7CFEF
:101B80001092EB01DF91CF911F910F91FF9008957B
:101B90008091EC01811112C08091D8008061809306
:101BA000D8008AE18A95F1F700C08091D90080FDC4
:101BB00002C082E001C081E08093EC0181E090915D
:101BC000EC01913009F080E008950E94C80D91E089
:101BD000892708950E94E50D8093060180910601F2
:101BE00064E1882311F080E001C084E10E94F60ED8
:101BF0000E94C80D81110C94050E08950E94C80D15
:101C0000811102C00C940B0E089562E070E087E031
:101C100091E00C94CB1A62E070E087E091E00C94C4
:101C2000D41A0E94F910882361F084EF91E00E9499
:101C3000FF1081E090E00E94AD1B892B11F40C9401
:101C4000FC1008958091F301883039F460E084EF4E
:101C500091E00E94DF111092F3010895CF93DF937A
:101C6000D82FC92F0E94110E80E090E00E94AD1B7A
:101C7000892B99F4ED2FFC2F80E090E0DC01A2513C
:101C8000BE4F2C912193019684309105B9F782EFD4
:101C900091E00E94501481E001C080E0DF91CF917B
:101CA0000895CF93DF93D82FC92F0E94220EED2FD6
:101CB000FC2F80E090E02191DC01A251BE4F2C93DB
:101CC000019684309105B9F782EF91E0DF91CF91D1
:101CD0000C944714EF92FF920F931F93CF93DF93CF
:101CE000F62E472FE82FF0E0711106C0E75AFA4FA1
:101CF0006491762F862F72C0272F30E0E75AFA4F73
:101D0000E4910E2F10E056E0659FC0011124CFEF43
:101D1000D0E0BE010E94D1325BEA5603C001579F5A
:101D2000900D11248F0D911D8F0D911D982F990FDE
:101D3000890F7E01E21AF30AE09ED001E19EB00D08
:101D4000F09EB00D1124489FA0011124452F552766
:101D50007E01E41AF50AE09EA001E19E500DF09E7E
:101D6000500D11247E01E81AF108E29EC001E39EA5
:101D7000900DF29E900D1124892F9927C81BD90B25
:101D8000C09FC001C19F900DD09F900D1124623063
:101D9000710591F048F461157105E1F0613071054C
:101DA000A9F48B2F752F19C06430710561F038F0DC
:101DB0006630710579F00AC0892F7B2F0EC08E2FF7
:101DC0007B2FE52F0AC08E2F792F02C0852F7E2F03
:101DD000EB2F03C08B2F7E2FE92F6E2FDF91CF913A
:101DE0001F910F91FF90EF9008950895E7E1F1E0C2
:101DF000808361830895CF93DF93762FE901682F65
:101E0000842F0E946A0E798368838A83DF91CF9141
:101E10000895473908F046E90C94FB0E8091ED02D5
:101E2000282F269530E02115310519F48170826044
:101E300005C02331310524F0817084628093ED0266
:101E40008091F002873918F086E98093F0020895B6
:101E500088E090E00C942A33CF92DF92EF92FF92C9
:101E60006B017C010E940E0FB701A60188E090E093
:101E7000FF90EF90DF90CF900C944833EDEEF2E0BE
:101E800083E0808311828FEF828386E983831482CB
:101E9000A6E0B2E012968C911297836012968C9312
:101EA00060817181828193810C942C0F8091ED026D
:101EB00080FF02C08695089580E008958091F10228
:101EC000833018F48F5F8093F1026091ED0270917E
:101ED000EE028091EF029091F0020C942C0F809111
:101EE000F102882319F081508093F1026091ED0294
:101EF0007091EE028091EF029091F0020C942C0F01
:101F000070E00C945113609118018091ED0280FFF4
:101F10000AC08091170123E0829FC00111248E50D6
:101F20009D4F0C94800F8091190190911A0189178F
:101F300080F7E82FF0E09F01220F331FE20FF31F1D
:101F4000EE50FD4F1182108212828F5FF0CF909180
:101F5000ED0290FF16C09091190120911A0192177D
:101F600070F4E92FF0E0DF01AA0FBB1FEA0FFB1F9F
:101F7000EE50FD4F8183608342839F5FF0CF0C94CE
:101F8000830F0895CF93DF9300D01F92CDB7DEB7B4
:101F90009091ED0290FF0AC09E012F5F3F4F0E947B
:101FA000090F4B8169818A810E94A70F0F900F90C2
:101FB0000F90DF91CF910895CF93DF93EC01EC81E7
:101FC000F0E0EC5AFB4F4491EDEEF2E0628181814A
:101FD0000E94C20F8C818F5F8C83DF91CF91089517
:101FE000CF93DF93EC01EDEEF2E0438162818C81CF
:101FF0000E94C20F8C818F5F8C83DF91CF910895F7
:10200000AF92BF92CF92DF92EF92FF920F931F9306
:10201000CF93DF9300D01F92CDB7DEB7182FF62EE7
:10202000042FE22E8091ED0280FF7CC0E82FE69520
:10203000AE2FB0E0AC57BE4F9C91909306028E7FBE
:10204000823061F49E012F5F3F4F812F0E94090F64
:102050004B8169818A810E94A70F41C0923019F497
:102060000091F0023CC0963019F41091EE0237C096
:102070009930A9F5E9508E2F8170D82EE695F0E0C1
:10208000EC5AFA4FA590B490C12CBB2460911B016F
:10209000C61618F52C2D30E0A29EC001A39E900D0F
:1020A000B29E900D112470E00E94D132812FD11088
:1020B00002C0860F01C0861B90911901290F311DA6
:1020C000A901440F551F240F351F2E503D4F402F9F
:1020D0006F2D0E94090FC394D9CF0E94830F809166
:1020E000EE02181308C08091EF02F81204C080912C
:1020F000F002081729F0809108028260809308029C
:102100001093EE02F092EF020093F002EE2051F0F5
:102110006091ED027091EE028091EF029091F002D9
:102120000E942C0F0F900F900F90DF91CF911F9175
:102130000F91FF90EF90DF90CF90BF90AF900895F8
:10214000EDEEF2E09181282F4381628188E0890FD2
:102150000C94001081E00C94A010EDEEF2E091815F
:10216000282F4381628188EF890F0C94001081E051
:102170000C94AD10EDEEF2E0628121E1620F08F403
:102180006FEF282F438181810C94001081E00C9423
:10219000BA10EDEEF2E0628121E1621B08F460E02A
:1021A000282F438181810C94001081E00C94C91088
:1021B000EDEEF2E0438121E1420F08F44FEF282FCA
:1021C000628181810C94001081E00C94D810EDEEB6
:1021D000F2E0438121E1421B08F440E0282F6281B4
:1021E00081810C94001081E00C94E71020E00C94A5
:1021F000001080910802089510920802089525E0C9
:10220000EDEEF2E0DC0101900D922A95E1F72091CC
:1022100006023091070240910802FC0125833683B3
:10222000478308956091ED02669570E04BE050E0C1
:102230008CE191E00E940833892B19F481E08093AE
:1022400007020E94C128909300028093FF018091B1
:1022500008028460809308020895E6E0F2E01182AB
:1022600082818460828308959091ED0290FF3AC04C
:102270009170811102C0926006C0833110F09462A7
:1022800002C0880F982B9093ED0280910802816024
:1022900080930802662351F06091ED027091EE0286
:1022A0008091EF029091F0020E942C0F6091ED025C
:1022B000669570E04BE050E08CE191E00E940833BD
:1022C000892B19F00E942D1102C00E94121181E089
:1022D000809302024091F0026091EF028091EE0241
:1022E0000C94F6100895682F9091ED02969581E078
:1022F000890F833108F081E00C94341181E00C9453
:102300007311682F9091ED0296958FEF890F09F464
:1023100082E10C94341181E00C94811161E00C9401
:102320003411EDEEF2E080818160808386950C941B
:102330008E1160E00C943411EDEEF2E0808181604A
:10234000808386950C949911EDEEF2E080818E7F6A
:10235000808360817181828193810E942C0F0E9411
:102360002D11E6E0F2E08281816082832FEF80E729
:1023700092E0215080409040E1F700C000000C94B2
:10238000830F8091ED0280FD0C94A4110C949111A7
:10239000EDEEF2E080818E7F80830E942D11E6E0D9
:1023A000F2E08281816082832FEF80E792E021500A
:1023B00080409040E1F700C000000C94830F1F9311
:1023C000CF93DF93EC01162F8F8180FF0FC08881A0
:1023D00080FF0AC08091ED0281608093ED028881C8
:1023E00086950E94341102C00E94C8118F8181FF1E
:1023F00006C0212F4B816A8189810E9400108F8144
:1024000082FF08C08E81882319F00E94121102C039
:102410000E942D118F8183FF03C081E0809302020F
:10242000DF91CF911F91089580910502811133C0F2
:102430000E942A27811104C00E94CA270E943E0FD1
:102440000E94280F6093ED027093EE028093EF02DA
:102450009093F002809108028360809308026E7F5F
:1024600061F40E943E0F0E94280F6093ED0270936A
:10247000EE028093EF029093F0020E940E0F0E94F2
:102480002D118091ED0280FF03C086950E94991165
:1024900081E0809305020895EF92FF920F931F93BE
:1024A000CF93DF9380910702882309F477C080914E
:1024B0000602E091ED02E695E81BE093010282300E
:1024C00049F4F0E0E05BFB4FE491CE2FD0E00CED5F
:1024D0001FE00FC0863049F4F0E0E35BFB4FE4916E
:1024E000CE2FD0E000EF1FE004C0C0EDD7E005EF35
:1024F0001EE080910202882389F0109202020E945D
:10250000C1289E0120953095820F931F9093000261
:102510008093FF0110920402109203028091FF0148
:10252000909100020E94D9288C179D07B8F18091E4
:10253000FE018823B1F01092FE018091FC01909180
:10254000FD010E94D9288033954758F00E94C12888
:102550009093FD018093FC01809108028860809334
:102560000802E0900302F0900402E091FF01F09174
:102570000002CE0FDF1FD0930002C093FF018FEF48
:1025800091E0F80109958091030290910402892B52
:1025900029F4EF2819F081E08093FE01DF91CF91BB
:1025A0001F910F91FF90EF900895882311F0FA0189
:1025B00001C0FB010994CF93DF93C82FD62F0E944F
:1025C000560F8C1740F00E94560F8D1720F4DF91A4
:1025D000CF910C947E118C2FDF91CF910C948E11A2
:1025E0001F93CF93DF93FB011281111155C0EC01B2
:1025F0000E9436268272FE01E25CFC45E431F10560
:1026000020F4E35AFF4F0C94F93211E045C00E94C8
:10261000C11142C04BE851E16EE771E104C04EE7E1
:1026200051E16BE871E10E94D51236C047EB50E1F1
:102630006AEA70E1F8CF4AEA50E167EB70E1F3CF64
:1026400045ED50E166EC70E1EECF46EC50E165ED12
:1026500070E1E9CF43EF50E164EE70E1E4CF44EE86
:1026600050E163EF70E1DFCF4FE65FE06EE57FE0C2
:10267000DACF4EE55FE06FE67FE0D5CF81E00E94E4
:102680008E110AC065E082E005C068E086E002C005
:1026900062E189E00E94DB12812FDF91CF911F91CF
:1026A0000895539A2BB1277F3BB138604FB7F89408
:1026B000FC01CB01880F991F680F791F6E0F7F1FD8
:1026C000E617F70789F0819198E03BB9000000C058
:1026D00087FF2BB9880F000000C000C000C02BB9D5
:1026E00000C09A9591F7ECCF4FBF8FE594E001972A
:1026F000F1F700C0000008950C94AD088091060128
:10270000882309F447C020912801A22FA295AF7019
:10271000B0E091963C9191972F7081E090E0AC01F0
:10272000022E01C0440F0A94EAF7542F5095352326
:1027300091963C93919792963C919297432B9296C7
:102740004C93929740912701E42FE295EF70F0E0CF
:1027500031A14F70042E01C0880F0A94EAF7982F18
:102760009095932391A392A1892B82A390968C910B
:1027700090E002C0959587952A95E2F7817020A197
:1027800030E002C0359527954A95E2F720FD09C053
:1027900090E008C086E38093280186E680932701B5
:1027A000B2CF92E0892B80930E029091060181E0D6
:1027B000982790930A02891B809309020895CF936A
:1027C000E0910E025E2F550F550F20912801E22F48
:1027D000E295EF70F0E080A190E02F7002C0959537
:1027E00087952A95E2F78170992740912701E42F78
:1027F000E295EF70F0E020A130E04F7002C0359517
:1028000027954A95E2F7F901E170FF2720FF02C002
:10281000E2E0F0E0E82BF92BE52BE0930E02C0910B
:102820000A02EF70F0E0E956FE4F908180910D02B0
:10283000890F80930D0284306CF0EC2F0C2E000C6D
:10284000FF0BE55FFD4F80818F5F808360E08C2F01
:102850000E947C1380910D028D3F6CF4EC2F0C2EA6
:10286000000CFF0BE55FFD4F80818150808361E0AC
:102870008C2F0E947C1380910D02837887FF03C008
:1028800081508C6F8F5F80930D02CF910895E091FE
:102890000A02F0E0E55FFD4F2081FC0120830895EE
:1028A000FF920F931F93CF93DF93D09109020D2FC7
:1028B00010E0055F1D4FFC01C081F8018081C81B3D
:1028C000FC2E1F1454F4FA94F80180818F5F8083EA
:1028D00060E08D2F0E947C13F4CF8C2FC7FD80E029
:1028E000C81BCC2351F0CF5FF801808181508083D9
:1028F00061E08D2F0E947C13F4CFDF91CF911F9167
:102900000F91FF900895EF92FF920F931F93CF9333
:10291000DF93EC017B0164E670E088E70E948C198C
:102920008C01EC0EFD1ECE15DF0561F017FD0AC00F
:10293000FE01849164E670E00E94E3198C01219607
:10294000892B89F30E94671AC801DF91CF911F91EB
:102950000F91FF90EF900895EAE6F3E080E092E0B7
:10296000DF019C011D9221503040E1F7F0936F058B
:10297000E0936E058FEF9FEF90933B0280933A02B6
:1029800008950E942C088093360280FD02C080E8E2
:1029900001C080E2809335020E9486196DE070E0EC
:1029A00080E796E00E948314892B11F080E008955F
:1029B0008091360263E070E081FD03C08DE696E011
:1029C00002C08AE696E00E948314892B79F76DE0B5
:1029D00070E08DE596E00E948314892B39F70E9400
:1029E000CD28DC01CB01805A9541AF4FBF4F80937A
:1029F0006A0590936B05A0936C05B0936D050E94DA
:102A0000AC1481E08093390280933802109237022F
:102A100008952091350236E0839FC0011124629F02
:102A2000800D911D1124811522E0920714F080E0A1
:102A300090E086599C4F90936F0580936E050895A2
:102A400020916E0530916F05245633404091350238
:102A5000642F70E0C9010E94D132481B463010F447
:102A6000240F311D211582E0380710F020E030E0FE
:102A700026593C4F30936F0520936E050895CF93F0
:102A8000DF938A3011F481E003C08D3029F480E0B7
:102A9000DF91CF910C94B515C62F682F80916E05EC
:102AA00090916F0526E0FC01AFE0B2E001900D923D
:102AB0002A95E1F7603E30F026E0FC0111922A955C
:102AC000E9F70AC0F6E06F9FB00111246358794F0F
:102AD00046E050E00E94FF32C11135C0C0916E0542
:102AE000D0916F0546E050E0BE018FE092E00E9479
:102AF0001533892BB1F1CA56D3409E0185E0369536
:102B000027958A95E1F781E090E0AC0102C0440F7F
:102B1000551F2A95E2F720913A0230913B02242B6F
:102B2000352B269645E0D695C7954A95E1F702C024
:102B3000880F991FCA95E2F7822B932B90933B0243
:102B400080933A020EC0E0916E05F0916F059F01EF
:102B50002A5F3F4F2E173F0709F2808180958193AE
:102B6000F9CFDF91CF910C942015CF93E82F2091CE
:102B70006E0530916F052A56334040913502642F1F
:102B800070E0C9010E94D132481B842FEE2359F016
:102B900066E00E94C532C82FC150B0F060E080E20C
:102BA0000E943F15F9CFA901480F511D4115524010
:102BB00018F080E020E030E0280F311D26593C4F0E
:102BC00030936F0520936E05CF910895FF920F9378
:102BD0001F93CF93DF93EC01F62EFC0101900020B0
:102BE000E9F78F0101501109C017D10728F46F2DA3
:102BF00089910E943F15F8CFDF91CF911F910F91DE
:102C0000FF9008951F93CF93DF93EC01162FFE01E1
:102C10008491882329F0612F0E943F152196F7CFD8
:102C2000DF91CF911F9108950E94021681E00C94CC
:102C3000B5150E94CD28DC01CB01805A9541AF4FDC
:102C4000BF4F80936A0590936B05A0936C05B0937A
:102C50006D058091380281110BC062E070E08BE558
:102C600096E00E948314892B19F481E08093380246
:102C70008091380208956F927F928F929F92AF92C7
:102C8000BF92CF92DF92EF92FF920F931F93CF9359
:102C9000DF9320913A0230913B022115310509F46E
:102CA000D4C0809137028111D0C061E070E0082F5C
:102CB00010E03B01082E02C0660C771C0A94E2F774
:102CC000A30142235323452B11F48F5FF0CF909142
:102CD0003602980165E0220F331F6A95E1F790FDF7
:102CE00012C08295880F807680932B01220F232FAC
:102CF000221F330B319520932E01815E80932C018E
:102D000010922F0112C045E0369527954A95E1F7BC
:102D1000220F220F220F20932B0110922E01295FE8
:102D200020932C0183E080932F0124E630E047E0DC
:102D300050E069E271E088E70E94131A892B09F0DC
:102D400084C08091360280FD23C0A80195E0440F25
:102D5000551F9A95E1F746595C4F04E610E020E2D2
:102D600030E060E488E70E943A1A892B09F06DC0D0
:102D70000E941916E301C095D09580913A02909176
:102D80003B02C823D923D0933B02C0933A025DC0D3
:102D900080E2E5E1F2E0DF011D928A95E9F785E046
:102DA000000F111F8A95E1F7ABEAB1E047EA51E065
:102DB000992493942D91EA018991AE01B801680F8D
:102DC000711D66597C4F30E02B5E3D4FF90197E055
:102DD0007F01E21AF30AA92C01C0AA0CEA94EAF7CF
:102DE0007B01B12CE70189917E018A21892E8B1804
:102DF000D82DD770CD2E0D2E000CDD08C82F01C0A8
:102E0000CC0FDA95EAF7D194C194D108D7E0CD225E
:102E1000DD2401C08695CA94EAF78C2BD0808D29D9
:102E20008083B39488E0B812DDCF915031969F3FF4
:102E300079F6C1E0AF3ABC0709F0BCCF04E610E078
:102E400020E230E045E152E08CCFDF91CF911F913D
:102E50000F91FF90EF90DF90CF90BF90AF909F9039
:102E60008F907F906F90089580913802882369F049
:102E700062E070E089E596E00E948314892B19F0E6
:102E8000809138020895109238029091380281E0C2
:102E9000892708950F931F9380913902882311F198
:102EA00060E080E00E9409150E9437080E943B16EE
:102EB000809138028823B1F00E94CD2800916A05E4
:102EC00010916B0520916C0530916D05DC01CB01F3
:102ED000801B910BA20BB30BB7FD04C01F910F9188
:102EE0000C9434171F910F9108950F931F93CF9354
:102EF000DF93C62FD42F122FFC0182818823C9F0C3
:102F000060933E020E94C12890933D0280933C0250
:102F100080E28C0F883008F057C0C77081E001C094
:102F2000880FCA95EAF7DF91CF911F910F910C940A
:102F3000301E80913E02681330C080913C02909117
:102F40003D020E94D928883C910538F500E20D0F1A
:102F5000CD17B9F080E28C0F883040F4C77081E063
:102F600001C0880FCA95EAF70E94371E083028F57D
:102F700081E09D2F977001C0880F9A95EAF70E9413
:102F8000301E812F0E941D1E0830F0F4D77081E0A2
:102F900001C0880FDA95EAF70AC080E28C0F88300A
:102FA00098F4C77081E001C0880FCA95EAF7DF91F5
:102FB000CF911F910F910C94371E812FDF91CF91EC
:102FC0001F910F910C941D1EDF91CF911F910F91B6
:102FD00008959C01CB01233F4CE53407F9F078F4C8
:102FE000283DFCE53F07B9F0293D4CE5340711F1D8
:102FF000273D3C4531F526E241EE61EE1EC0253FFE
:10300000FCE53F0799F070F0263F3C45D1F427E2FC
:1030100045EE66EE12C027E245EE0EC026E241EE16
:1030200060EE0BC027E245EE64EE07C026E241EEFB
:1030300062EE03C028E241E065EE0E94751780E071
:103040000895FC018281882319F010923E020895B0
:1030500081E00895CF93DF93EC01FB018281882307
:1030600009F41FC1C230FCE5DF0708F41BC1C631FB
:103070009CE5D90738F09E012A5F3C45293031058F
:1030800008F010C10E943D27909375058093740548
:10309000C031ECE5DE0709F4C3C008F041C0C83018
:1030A0008CE5D80709F49AC0F0F4C430ECE5DE07EB
:1030B00009F487C068F4C2308CE5D80709F477C0FA
:1030C000C330DC4509F0E3C080917405826076C0AE
:1030D000C630ECE5DE0709F46EC008F07BC08091D5
:1030E000740588606BC0CC308CE5D80709F485C0C6
:1030F00068F4CA30ECE5DE0709F474C008F079C062
:103100000E94C52080917405806858C0CE308CE53F
:10311000D80709F476C008F07FC0809174058BC091
:10312000CB3FECE5DE0709F44FC018F5C3318CE561
:10313000D80709F47DC078F4C131ECE5DE0709F465
:1031400073C0C231DC4509F0A2C00E94C520809145
:1031500074058F7733C0C5318CE5D80709F472C088
:1031600008F486C0CA3FDC4509F091C0809175051E
:103170003EC0CF3FFCE5DF0709F45FC058F4CD3F08
:103180009CE5D90709F444C008F43FC08091750557
:1031900082602DC0C130FDE5DF0709F475C008F479
:1031A0005DC0C230DD4509F072C080E06EC0809124
:1031B0007405816003C080917405806180937405FB
:1031C00066C08091740511C08091750582608093FE
:1031D00075055DC0809174058062F0CF80917405A3
:1031E0008064ECCF8091740588608460E7CF816053
:1031F000EECF809174058E7FE1CF809174058D7F35
:10320000DDCF80917405877FD9CF8091750518C077
:10321000809175058D7FDBCF809174058F7ECECF39
:10322000809174058F7DCACF809174058F7BC6CF46
:1032300080917405877F8B7FC1CF809175058D7FCD
:103240008E7FC5CF8091740582FB222720F991E003
:10325000922790FB82F990FB83F9B0CF809175059E
:10326000982F909591708E7F892B90FB81F9AFCF2D
:103270000E94C5208091740587FB222720F991E0E8
:10328000922790FB87F99ACF81E00E94CC2780910A
:103290007405909175050E944E270E94C52080E01C
:1032A00001C081E0DF91CF910895CF93DF93863104
:1032B0009C4541F5EB010E943626982F8A8120918A
:1032C000300130913101882379F09A7A81E009F454
:1032D00080E080933F02911102C069E201C065E382
:1032E000C9010E9413280AC080913F02811102C0C7
:1032F00069E201C065E3C9010E9415280E94772692
:1033000080E001C081E0DF91CF9108951092B90073
:103310008CE08093B8000895EF92FF920F931F9373
:10332000CF93DF93182FEB011092BC0084EA8093B7
:10333000BC000E94C1287C018091BC0087FD0EC0AA
:10334000CF3F8FEFD807C1F30E94C1288E199F0984
:103350008C179D0788F38EEF9FEF2EC08091B900E8
:10336000887F883041F08091B900887F803119F0E2
:103370008FEF9FEF21C01093BB0084E88093BC00C7
:103380000E94C1288C018091BC0087FD0CC0CF3FFA
:103390008FEFD807C1F30E94C128801B910B8C17B7
:1033A0009D0788F3D8CF8091B900887F883111F0CC
:1033B0008034F1F680E090E0DF91CF911F910F9182
:1033C000FF90EF9008950F931F93CF93DF93EB013E
:1033D0008093BB0084E88093BC000E94C1288C01CC
:1033E0008091BC0087FD0EC0CF3F8FEFD807C1F39F
:1033F0000E94C128801B910B8C179D0788F38EEFCC
:103400009FEF0CC02091B900287F81E090E0283226
:1034100011F480E090E0919581959109DF91CF9131
:103420001F910F910895CF92DF92EF92FF920F9329
:103430001F93CF93DF936B018A017901B9010E9439
:103440008C19E6010C0D1D1DC017D10761F424E98C
:103450002093BC00DF91CF911F910F91FF90EF90CF
:10346000DF90CF90089597FDF2CFB70189910E9428
:10347000E319EACFCF92DF92EF92FF920F931F935F
:10348000CF93DF93C62F6A017901B8010E948C198E
:1034900097FD11C0B8018C2F0E94E319E601EC0CD6
:1034A000FD1CCE15DF0539F097FD05C0B8018991E7
:1034B0000E94E319F6CF24E92093BC00DF91CF915D
:1034C0001F910F91FF90EF90DF90CF90089584E9C6
:1034D0008093BC0008958EE14A9B02C08150E1F7C1
:1034E0004A9BFECF08955A9880E28A95F1F75A9A3E
:1034F0000895FC012AE02A95F1F790E020E080E0B1
:1035000031E0261779F040E14A95F1F7880F4A9BA0
:1035100002C08160932700C0000040E14A95F1F7A6
:103520002F5FEFCF20E12A95F1F729B100C000000D
:1035300030E13A95F1F722FB222720F992272081EA
:10354000920F90830895EF92FF920F931F93CF9362
:10355000DF931F92CDB7DEB719828C017C01E60E96
:10356000F11C0E151F0559F00E946B1A68E0CE0180
:1035700001960E94791AF80181938F01F2CF81E0C0
:103580009981911180E00F90DF91CF911F910F9160
:10359000FF90EF90089590934202809341026093D0
:1035A0004002529A5A9A089590934202809341029F
:1035B0006093400252985A9AEA9AE9E6F0E08081D4
:1035C0008F7C80830895615091E001C0990F6A95C6
:1035D000EAF720E031E0992361F0492F482319F000
:1035E0005A9A232701C05A9840E24A95F1F79695D6
:1035F000F2CF222311F05A9A01C05A9880E28A959C
:10360000F1F75A980895FF920F931F93CF93DF938A
:10361000EC018C01060F111DC017D10741F0F99084
:103620000E94731A68E08F2D0E94E31AF5CFDF9194
:10363000CF911F910F91FF9008951F920F920FB697
:103640000F9211240F931F932F933F934F935F93E8
:103650006F937F938F939F93AF93BF93EF93FF935A
:10366000CF93DF931F92CDB7DEB719820E946B1AFA
:1036700067E0CE0101960E94791A382F369536956B
:103680003695932F96959570232F2570920F292F9D
:103690002370969596958770920F891348C08981FB
:1036A000811145C080914002831708F440C080E139
:1036B0008A95F1F75A9A529AA2E0AA95F1F700C0BA
:1036C0000091410210914202B8E03B9F000D111D94
:1036D00011245A98F8016581662321F0868197812B
:1036E0000E94031B0E94731AF0E1FA95F1F75A98B1
:1036F00052985A9A80E18A95F1F7D80112966C9106
:103700001297662369F013968D919C9114970E94ED
:10371000A31AD801ED91FC91811105C082E004C08B
:10372000D801ED91FC9188E080830E946B1A0F9084
:10373000DF91CF91FF91EF91BF91AF919F918F91C9
:103740007F916F915F914F913F912F911F910F91B9
:103750000F900FBE0F901F9018950F931F93CF934C
:10376000DF932091400230E0281739070CF471C034
:103770009C0193E0220F331F9A95E1F7C09141021B
:10378000D0914202C20FD31FF894529A5A9845E042
:103790004A95F1F70000982F969595708570890FDE
:1037A000982F937086958695890F8901082B0E9422
:1037B000731A84E08A95F1F700C067E0802F0E94B9
:1037C000E31A40E14A95F1F752985A9A4A9902C091
:1037D00000C0FCCF87E090E04A9B0EC0019751F4F7
:1037E000529A5A9AE881F98181E08083789481E045
:1037F00090E031C000C0F0CF6D81662381F08E81F2
:103800009F810E94A31A81110AC0529A5A9AE88194
:10381000F98182E08083789482E090E01CC00E946D
:103820006B1A80E28A95F1F75A98529A40E14A95CC
:10383000F1F76A81662321F08B819C810E94031B32
:103840000E94731AE881F9811082789480E090E0F8
:1038500002C084E090E0DF91CF911F910F91089515
:1038600090934802809347020895E0914702F091B7
:103870004802309721F00190F081E02D099480E01A
:103880000895E0914702F0914802309711F480E0EA
:1038900008950190F081E02D09950895E091470287
:1038A000F0914802309721F00280F381E02D0994D5
:1038B0000895E0914702F0914802309739F022E0F4
:1038C000DC012C930480F581E02D0994089520916A
:1038D0004502309146022817390771F0909346024D
:1038E00080934502E0914702F0914802309721F021
:1038F0000680F781E02D09940895209143023091CC
:1039000044022817390771F09093440280934302D0
:10391000E0914702F0914802309721F00084F18550
:10392000E02D0994089585B7806885BF85B78068C4
:1039300085BF089508950C949A1C0C949B1C0C94BC
:103940009A1C0C949A1C0E94931C0E949F1C0C941D
:103950009D1C0C94C80D0E94B8280E947A0C80E02F
:103960000E94C1140E941F290E9414120E947E13FB
:103970000C94A11C9F92AF92BF92CF92DF92EF92D4
:10398000FF920F931F93CF93DF93CDB7DEB72A97A4
:103990000FB6F894DEBF0FBECDBF0E94080DC82E33
:1039A0000E94A91C811111C08FEF89838A831B8219
:1039B0000E94C1288160782F9D838C8349815A8120
:1039C0006B818D810E945F1D40C08AE4A82E82E039
:1039D000B82E00E010E0902E802F0E94650CE82E9B
:1039E000F501D1905F01D82631F40F5F1F4F0830E9
:1039F000110589F7D9CF8091BE0281FD0E946B0C21
:103A000080E0FF24F3949D2D9F21D1F08E839F822F
:103A1000EF2081E009F480E088870E94C12881605E
:103A2000782F9A8789874E815F8168858A850E9471
:103A30005F1DF801E65BFD4F8081F826F08205C02E
:103A40008F5FFF0C8630F9F6D0CF0E944C120E9497
:103A5000DF130E944A17C1100E9419160E94B12A52
:103A60000E94351C909149028917B9F00E94351CBB
:103A7000809349022A960FB6F894DEBF0FBECDBFE1
:103A8000DF91CF911F910F91FF90EF90DF90CF903A
:103A9000BF90AF909F900C941D0A2A960FB6F89491
:103AA000DEBF0FBECDBFDF91CF911F910F91FF9071
:103AB000EF90DF90CF90BF90AF909F900895CF93FD
:103AC000DF93CDB7DEB72B970FB6F894DEBF0FBEEE
:103AD000CDBF4F83588769877A878B87DE01119620
:103AE00086E0FD0111928A95E9F785E0FE0137969F
:103AF00001900D928A95E1F749815A816B817C8111
:103B00008D819E810E947E232B960FB6F894DEBF96
:103B10000FBECDBFDF91CF910895FC0180819181CF
:103B20000E94F7250895CF93882309F450C0C82F29
:103B30008CEF8C0F813AD0F46C2F809130019091F2
:103B400031010E94DD27882349F06C2F80913001DC
:103B5000909131010E9415280E9477266C2F809148
:103B60003001909131010E9413280CC080E28C0F2B
:103B7000883058F4C77081E001C0880FCA95EAF711
:103B80000E943926CF910C947726EBE5EC0FE330B9
:103B900040F4F0E0E352FE4F808190E0CF910C942E
:103BA000671CE8E5EC0FE73150F4F0E0EE0FFF1F83
:103BB000E155FE4F80819181CF910C947D1CC03FD7
:103BC00030F08C2F0E94B929CF910C94A62ACF9166
:103BD0000895882389F19CEF980F913A40F4682F5B
:103BE00080913001909131010E9415280DC090E222
:103BF000980F983058F4877091E001C0990F8A951A
:103C0000EAF7892F0E943F260C9477269BE5980FB0
:103C1000933020F480E090E00C94671C98E5980FB6
:103C2000973120F480E090E00C947D1C803F20F0E0
:103C30000E94212A0C94A62A0895CF93C82F0E948F
:103C4000931DC93349F42FEF87EE93E02150804054
:103C50009040E1F700C000008C2FCF910C94E91D3B
:103C6000882321F00E9439260C9477260895882312
:103C700021F00E943F260C9477260895CF92DF9280
:103C8000EF92FF920F931F93CF93DF937C01D62F78
:103C9000C72FFC01058102950F70128111110E943E
:103CA00056260E942F26882399F0112389F08C2F05
:103CB000807F803421F080E28D0F883048F082E0F0
:103CC0000E94C1260E942F2691E0D82ED92601C03D
:103CD000D12CCC2EC2948FE0C8228C2D90E08C3059
:103CE000910508F0B6C1FC01EF58FF4F0C94F93272
:103CF0008C2F807FCF70882311F0C295C07F112355
:103D000099F0CC2309F491C180E28D0F883010F036
:103D1000D11104C08C2F0E94392603C08C2F0E9421
:103D200049260E94772681C18D2F0E94E91DCC2350
:103D300009F48FC180E28D0F883010F0D11104C0DA
:103D40008C2F0E943F2603C08C2F0E944F260E947A
:103D500077267FC18C2F807FCF70803211F0C29583
:103D6000C07FDD2319F0D130C9F022C0112371F0DA
:103D7000002341F0013031F40E945C268C2B0E941C
:103D8000642667C10E945C268C2B1DC0002319F09D
:103D9000013009F45EC10E946D2625C0112321F077
:103DA000063008F056C10EC0053008F052C11BC0E5
:103DB000112361F0002331F0F701858180FF35C1C7
:103DC0008F7085838C2F0E94301E43C1002359F0D1
:103DD000D93309F03BC1FFEF07EE13E0F15000408B
:103DE0001040E1F731C18C2F0E94371E32C18C2F59
:103DF00086958695837019F0813061F02AC1112370
:103E000021F08D2F9C2F937002C080E090E00E94E3
:103E1000671C27C1112321F08D2F9C2F937002C0A6
:103E200080E090E00E947D1C1CC18D2F112319F0B1
:103E30000E94B92902C00E94212A0E94A62A11C10B
:103E40008C2F837009F047C0111107C12D2F2295C7
:103E500026952770220F220F6D2F6F70862F90E00E
:103E6000A0E0B0E0022E04C0880F991FAA1FBB1F5C
:103E70000A94D2F7D4FF10C04FE050E060E070E049
:103E800004C0440F551F661F771F2A95D2F740952F
:103E900050956095709503C040E050E0BA01C6951A
:103EA000C695C3708A019B01082B192B2A2B3B2B2B
:103EB000C901B801C23049F058F4C13019F00E946C
:103EC0005224CBC00E944024C8C00E946424C5C0B4
:103ED0000E943E24C2C0112319F08C2F817001C0B2
:103EE0008695882309F4B9C02D2F22952695277031
:103EF000220F220F6D2F6F70862F90E0A0E0B0E0B0
:103F0000022E04C0880F991FAA1FBB1F0A94D2F764
:103F1000D4FF10C04FE050E060E070E004C0440FF8
:103F2000551F661F771F2A95D2F7409550956095CB
:103F3000709503C040E050E0BA01C695C695C370C5
:103F40008A019B01082B192B2A2B3B2BC901B80195
:103F5000C23049F058F4C13019F00E9437257DC0B5
:103F60000E9425257AC00E94492577C00E947824A6
:103F700074C0CF70112339F08C2F0E94BE248D2F76
:103F80000E94301E6AC08D2F0E94371E8C2F0E9407
:103F9000DF2463C0D23F01F128F4D03F41F0D13F8C
:103FA000A1F03FC0D33FF9F0D43F39F13AC011231B
:103FB00041F0053008F04DC08C2F8F710E94042510
:103FC00048C0063008F045C0F7CF112339F08C2FD8
:103FD0008F710E94BE243DC01123C9F38C2F8F71B5
:103FE0000E94DF2436C0112329F08C2F8F710E948C
:103FF000A9242FC00E9484242CC0112349F0CF7122
:104000008C2F0E94BE2463E08C2F0E94AC2621C01E
:1040100081E00E94C1260230E0F082E00E94C126C9
:1040200018C0112331F0002391F28D2F0E94931DAF
:1040300010C0002399F2D93349F41FEF27EE33E083
:10404000115020403040E1F700C000008D2F0E9449
:10405000E91D88EF8C0D843020F40E94351C0E94ED
:104060001D0ADD20C9F00E942B2680FD15C0F70136
:1040700012820E9425260E94BE24C7010E946D2044
:104080000E942526DF91CF911F910F91FF90EF9015
:10409000DF90CF900C94DF24DF91CF911F910F918F
:1040A000FF90EF90DF90CF9008950F931F93CF93E1
:1040B000DF93EC01688179818A810E9402268C015C
:1040C0000E945B250E942C24B801CE010E943E1E56
:1040D000DF91CF911F910F910895CF93DF93EC0162
:1040E000988189812B813C81232B31F08F3F31F4E2
:1040F00081E09F3F19F403C081E001C080E080FDB2
:1041000019C0CE010E94360A81110CC00E942F26D0
:10411000882381F08A81882369F082E0DF91CF9142
:104120000C94C126CE010E945520CE01DF91CF9183
:104130000C94AD09DF91CF910895882321F00E945E
:1041400049260C9477260895882321F00E944F2653
:104150000C94772608950E9456260E9459260E94A4
:1041600077260E94D02B0E94A62A80E090E00E9431
:10417000671C80E090E00C947D1C80913001909150
:1041800031010E9417280C94AB200E9446260C9403
:10419000BD20E92FE295EF704E2F50E0FA013297E3
:1041A000EE30F105B0F4E358FF4F0C94F932803F44
:1041B00091F018F4883E68F40EC0843F51F40BC0AF
:1041C000883E48F0813F29F406C093FB882780F998
:1041D000089580E0089581E008950E94F7250E94E7
:1041E000C9200895CF93DF9300D000D01F92CDB7A0
:1041F000DEB70F900F900F900F900F90DF91CF913F
:104200000895CF93DF9300D000D000D0CDB7DEB7B4
:1042100026960FB6F894DEBF0FBECDBFDF91CF91CB
:1042200008951F93CF93DF93C091530216E08091BE
:104230005402C81799F0D0E01C9FF0011D9FF00DAB
:104240001124EB5AFD4F4081518162817381848139
:1042500095810E9401212196C770E9CFDF91CF910E
:104260001F910895409185025091860260918702C6
:10427000709188028091890290918A020C940121A8
:104280000F931F93CF93DF9380918A0282958F7053
:1042900009F05DC080918702882309F458C080919D
:1042A0005302109154026091850270918602C09170
:1042B0008802D091890291E06F3F09F090E0292FA8
:1042C00006E0811709F443C0209721F07F3F21F0D9
:1042D00030E003C031E001C0322F90E030FD34C047
:1042E000089FF001099FF00D1124DF01AB5ABD4F6B
:1042F00011963C911197371327C03C91361324C077
:1043000012963C91129731111FC013964D915C91FA
:1043100014974C1B5D0B483C5105B0F480918A0208
:104320008F70806180938A02E65AFD4F80818F7082
:104330008061808385E892E00E946D20DF91CF91BB
:104340001F910F910C94112101968770BACFDF91C4
:10435000CF911F910F9108959F92AF92BF92CF92EC
:10436000DF92EF92FF920F931F93CF93DF93CDB71E
:10437000DEB761970FB6F894DEBF0FBECDBF8C01DC
:1043800085E0F801DE011D9601900D928A95E1F716
:10439000F80140815181E28090918502609186020E
:1043A00020918802309189022115310531F06F3F4B
:1043B00031F481E09F3F19F403C081E001C080E047
:1043C000F82FF1709F2E80FD46C1F801A380B480C4
:1043D00085E8C82E82E0D82EF0908702F501E21B16
:1043E000F30BFF2009F4DFC080918A02E83CF1055D
:1043F00008F09BC0282F207F09F052C0561313C02D
:10440000491311C0FE2CE1100EC08F7080618093A3
:104410008A020E943221C6010E946D2080918A0288
:10442000F801858358C1AB2831F05F3F31F481E05A
:104430004F3F19F403C081E001C080E080FD03C05C
:1044400081E08E2502C080E090E0F82FF170FF2E11
:1044500080FF1CC0809153022091540236E08217E5
:1044600009F417C190E0389FF001399FF00D112435
:10447000EB5AFD4F6181561306C06081461303C09D
:104480006281E61203C001968770E9CFFE2CEE2010
:1044900009F421C180918A02816080938A025AC006
:1044A000561306C0491304C0E11002C0F8019FC0B2
:1044B0004D875E878D859E850E94ED20882379F14A
:1044C000EE2069F120918A02822F82958F7090E010
:1044D000029774F0809185029091860298878F836D
:1044E0001986BB86AA862C87CE0107960E946D206E
:1044F00086E0F801A5E8B2E001900D928A95E1F717
:104500000E9440210E9432210DC0561729F14D878B
:104510005E878D859E850E94ED2081112CC0C8018B
:104520000E946D20FF24F394D6C0282F207F69F7C6
:104530007A2DB98AA88A6E2D89890E94F22085E891
:1045400092E00E946D2086E0F60111928A95E9F7CB
:104550000E943221F12CBFC04913D9CFE110D7CF2F
:10456000F8018583C8010E946D2086E0F601119252
:104570008A95E9F7B0C0EE2091F220918A02822F4D
:1045800082958F7090E002970CF4B2CF80918502F3
:10459000909186029A8389831B82BD82AC822E838E
:1045A000CE010196A3CFE83CF10508F047C0FE2CF0
:1045B000EE2009F4B4CF561330C049132EC0209119
:1045C0008A0220FD21C0822F82958F70482F50E0F3
:1045D00041155105C9F0F80125834F30510541F0CF
:1045E0008F5F982F9295907F822F8F70892B858374
:1045F000C8010E946D2086E0F801A5E8B2E00190B4
:104600000D928A95E1F742C086E0F801A5E8B2E094
:1046100001900D928A95E1F75EC04D875E878D858A
:104620009E850E94ED20811163CF80918A02816076
:1046300080938A02C8010E946D204DC07A2DB98AEC
:10464000A88A6E2D89890E94F22086E0F6011192D7
:104650008A95E9F71BC0EE2009F461CF4D875E878C
:104660008D859E850E94ED20F82E882309F457CF72
:1046700086E0F801A5E8B2E001900D928A95E1F795
:1046800085E892E00E948D1D0E9440210E94322107
:1046900022C04D875E878D859E850E94F725292F34
:1046A00022952F70223028F49F7039F0811105C0B7
:1046B0000BC0243028F49F7049F4805E883020F0CD
:1046C000C8010E946D209F2CF92C05C0F80195812E
:1046D000907F99F7F9CF8F2D61960FB6F894DEBFD2
:1046E0000FBECDBFDF91CF911F910F91FF90EF9043
:1046F000DF90CF90BF90AF909F9008951F93CF937E
:10470000DF93CDB7DEB72C970FB6F894DEBF0FBEA0
:10471000CDBF4F83588769877A878B879C87CE0167
:1047200007960E94AC218823D1F09F8188852A8535
:104730003B85232B31F08F3F31F481E09F3F19F40B
:1047400003C081E001C080E080FD47C04F815885F3
:1047500069857A858B859C850E9401213EC086E013
:10476000FE013796DE01119601900D928A95E1F7D0
:10477000FF81E8856A857B856115710531F0EF3F22
:1047800031F481E0FF3F19F403C081E001C080E013
:1047900080FD23C02091540230E0C901019687704A
:1047A00099274091530250E084179507F1F1F9835E
:1047B000EA837D836C8396E0929FD001939FB00D36
:1047C0001124AB5ABD4FFE01319601900D929A957E
:1047D000E1F7809354020E94112116E08091530268
:1047E00090915402891771F1189FC00111248B5ABE
:1047F0009D4F0E94AC21882329F1E09153021E9F16
:10480000F0011124EB5AFD4F408151816281738187
:10481000848195810E9401218091530290E001964C
:104820008770992780935302D9CF0E94C520109298
:10483000540210925302E5E8F2E086E0DF011D9297
:104840008A95E9F72C960FB6F894DEBF0FBECDBF60
:10485000DF91CF911F910895089508950C942D2410
:104860000C942E240E9430246093AD027093AE020B
:104870008093AF029093B0020C94AB200C9432243E
:104880000F931F930091AD021091AE022091AF02E1
:104890003091B002602B712B822B932B1F910F91C3
:1048A0000C9432240F931F930091AD021091AE022D
:1048B0002091AF023091B0026023712382239323B1
:1048C0001F910F910C9432240F931F930091AD020E
:1048D0001091AE022091AF023091B0026027712793
:1048E000822793271F910F910C9432240C94C406B5
:1048F0000E9476246093A9027093AA028093AB026F
:104900009093AC020C94AB2060E070E0CB010C946F
:104910007824611571058105910529F481E044230E
:1049200061F080E00895DC01CB0104C0B695A79545
:10493000979587954A95D2F781700895482F609191
:10494000A9027091AA028091AB029091AC020C94E2
:1049500089240F931F9341E050E060E070E08A01EA
:104960009B0104C0000F111F221F331F8A95D2F72D
:10497000C901B8011F910F910C9478240F931F93D4
:1049800041E050E060E070E004C0440F551F661F36
:10499000771F8A95D2F78091A9029091AA02A091DF
:1049A000AB02B091AC028A019B01082B192B2A2B78
:1049B0003B2BC901B8011F910F910C9478240F93E0
:1049C0001F9341E050E060E070E004C0440F551FC9
:1049D000661F771F8A95D2F7409550956095709520
:1049E0008091A9029091AA02A091AB02B091AC0271
:1049F0008A019B01082319232A233B23C901B801FB
:104A00001F910F910C9478240F931F9341E050E075
:104A100060E070E004C0440F551F661F771F8A9541
:104A2000D2F78091A9029091AA02A091AB02B09115
:104A3000AC028A019B01082719272A273B27C901B5
:104A4000B8011F910F910C9478240F931F9300913C
:104A5000A9021091AA022091AB023091AC02602B06
:104A6000712B822B932B1F910F910C9478240F9311
:104A70001F930091A9021091AA022091AB023091DC
:104A8000AC0260237123822393231F910F910C9416
:104A900078240F931F930091A9021091AA022091EC
:104AA000AB023091AC0260277127822793271F91B8
:104AB0000F910C9478240895292F220F920F990FAB
:104AC000890FE82FE695E695E695877051E001C0DD
:104AD000550F8A95EAF785E0E89FF0011124E55724
:104AE000FD4F20E030E070E04081CB01022E02C09B
:104AF000969587950A94E2F781708195842785239E
:104B0000842781932F5F3F4F2530310569F7089542
:104B1000292F220F920F990F890F682F669566959E
:104B20006695982F977085E0689FB001112440E04A
:104B300050E080E0FB01E40FF51FE557FD4F2081B9
:104B400030E0092E02C0369527950A94E2F72170CD
:104B50003327042E01C0220F0A94EAF7822B4F5FFD
:104B60005F4F4530510531F70895BF92CF92DF92E4
:104B7000EF92FF920F931F93CF93DF938C01C0901E
:104B8000A902D090AA02E090AB02F090AC02809112
:104B9000AD029091AE02A091AF02B091B002C82ACE
:104BA000D92AEA2AFB2ACFE1D0E0D701C6010C2E90
:104BB00004C0B695A795979587950A94D2F780FD7E
:104BC00004C0219790F7B12C07C0BC2EB8018C2FE0
:104BD0000E948C0A0197A9F38B2DDF91CF911F9131
:104BE0000F91FF90EF90DF90CF90BF900895CF93FB
:104BF000DF93EC010E94B525BE010E948C0ADF9173
:104C0000CF9108951F93CF93DF93EB0190915202C0
:104C1000992321F0CB010E94F72513C0882349F086
:104C2000CB010E94B525182F682FCE010E945C256C
:104C300004C0CB010E948825182FBE01812F0E943D
:104C40008C0ADF91CF911F9108958091B1028595D3
:104C50008595859508958091B1028770089590910A
:104C6000B102977081E009F480E008958091BD025F
:104C700008959091BD02892B8093BD02089580957F
:104C80009091BD0289238093BD0208951092BD02C8
:104C900008959091BC02892B8093BC020895809561
:104CA0009091BC0289238093BC0208951092BC02AB
:104CB00008951092BB0208958091B202089508955C
:104CC0000C945F260C9460269091B202981721F004
:104CD0008093B2020C94622608958091B2028823D8
:104CE00029F01092B20280E00C9462260895E091BF
:104CF0003001F09131018091BD028083E09130015B
:104D0000F091310190818091BC02892B8083E091E8
:104D10003001F091310190818091BB02892B808319
:104D20008091B202882381F0E0913001F09131014D
:104D30009081892B808380913001909131010E9474
:104D4000D12781110E946D2680913001909131010F
:104D50000C944E1C0C945F2698E0899F90011124BE
:104D6000262B2093B1020E94BE248091B10285952A
:104D7000859585950C94AA261092B10280E00C943A
:104D8000AA262091B102809582238093B102982FA8
:104D9000977079F430E0482F082E000C550B24173B
:104DA000350739F08595859585950E94DF240C940B
:104DB000BC260895CF92DF92EF92FF926C01EE2411
:104DC000FF24C114D104E104F10421F0C701B601AC
:104DD00020E101C020E0C72ED82EE92EFF24C11407
:104DE000D104E104F10419F0285FC701B6016B0199
:104DF0007C0154E0F694E794D794C7945A95D1F780
:104E0000C114D104E104F10419F02C5FC701B6010B
:104E10006B017C0142E0F694E794D794C7944A95DD
:104E2000D1F7C114D104E104F10419F02E5FC701D8
:104E3000B601DC01CB01B695A79597958795892B8F
:104E40008A2B8B2B09F02F5F822FFF90EF90DF9042
:104E5000CF90089580E090E00E94303321E08C3EB6
:104E60009E4F09F020E0822F089582E090E00C949C
:104E7000223383E090E00C942233CF9384E090E0DF
:104E80000E942233C82F81E290E00E9422332C2F0F
:104E900030E0A901582BCA01CF910895CF93C92FB3
:104EA000682F84E090E00E9436336C2F81E290E01E
:104EB000CF910C943633AB01BC018FE090E00C94A1
:104EC0004833AB01BC0183E190E00C94483360E0CF
:104ED00070E0CB010C94612760E070E0CB010E9490
:104EE0005B270C9467276CEE7EEF80E090E00E94D9
:104EF000543360E082E090E00E94363360E083E06B
:104F000090E00E9436331092AD021092AE021092E1
:104F1000AF021092B00260E084E090E00E9436336D
:104F200060E081E290E00E94363360E085E090E04E
:104F30000E94363360E086E090E00E9436336FEFE7
:104F400087E090E00E94363340E050E0BA0188E00C
:104F500090E00E94483360E08DE090E00E9436339C
:104F600040E050E0BA0188E190E00E94483360E000
:104F700087E190E00E94363340E050E0BA018CE1D6
:104F800090E00E94483360E080E290E00E94363377
:104F90000C946C270C947327682F8EE090E00C948F
:104FA0003633FC01329697E080E0915029F0219150
:104FB0002223D9F38F5FF9CF0895662349F0FC01CE
:104FC000329608962191621729F0E817F907D1F770
:104FD00080E0089581E008959C01FC0132969FEFE6
:104FE00080E04191461789F09F3F19F4411101C0BB
:104FF000982F8F5F8630A9F79F3F39F0F901E90FAD
:10500000F11D97FDFA956283089508959C012A5F2A
:105010003F4FFC014281461301C012820196821764
:105020009307B9F708950C94EC270C940628029680
:1050300026E0FC0111922A95E9F7089508950C9451
:105040001E280C941E28CF930E9421280E94080D30
:105050000E941F28C0E08C2F0E94650C811104C0A3
:10506000CF5FC830C1F701C081E0CF9108950C94A3
:105070001E280C9437280E94392880917A058430A4
:1050800009F439C01092BF0220E488E190E00FB625
:10509000F894A895809360000FBE2093600080E094
:1050A0000E941D0A0E942D118091C00281110AC028
:1050B00081E08093C0028091ED0281708093C102F3
:1050C0000E94C8110E94392883B7817F846083BF02
:1050D00083B7816083BF7894889583B78E7F83BFC1
:1050E0000FB6F894A8958091600088618093600065
:1050F000109260000FBE08950C941E280E94C520D7
:105100000E94351C0E941D0A1092C0028091C102AB
:1051100081110E949C110E9412110C947C281F92F4
:105120000F920FB60F9211248F939F93AF93BF935B
:105130008091BF02811113C080917005909171051B
:10514000A0917205B09173054196A11DB11D809388
:10515000700590937105A0937205B0937305BF918C
:10516000AF919F918F910F900FBE0F901F90189548
:1051700082E084BD93E095BD9AEF97BD80936E0069
:1051800008952FB7F8948091700590917105A091C2
:105190007205B09173052FBF08952FB7F8946091F1
:1051A00070057091710580917205909173052FBF04
:1051B00008959C014FB7F894809170059091710506
:1051C000A0917205B09173054FBF821B930B089598
:1051D00078941F920F920FB60F9211248F939F9382
:1051E000AF93BF938091700590917105A091720566
:1051F000B09173050196A11DB11D80937005909328
:105200007105A0937205B0937305BF91AF919F9103
:105210008F910F900FBE0F901F90189587E797E71B
:1052200090930108809300089AE088E10FB6F89403
:10523000A895809360000FBE90936000FFCF0E94FE
:105240002A27811102C00E94CA270E943527809315
:10525000BE020E943D2790937505809374050E94BD
:105260003927682F70E080E090E00C943E24809114
:10527000C90280FF0BC06091370185E0689FB001D3
:10528000112475956795759567952BC081FF09C0A9
:105290006091370185E0689FB0011124759567958D
:1052A00020C082FF07C06091370185E0689FB00190
:1052B000112417C09091C8029923D1F06091360152
:1052C000961788F72091370185E0289F90011124D7
:1052D000929FA001939F500D112470E0CA010E947B
:1052E000E5326038710540F46115710519F406C0A6
:1052F00065E070E0862F08958FE7089581E00895B6
:105300008091C90280FF08C06091330170E07595FB
:1053100067957595679521C081FF06C0609133013F
:1053200070E07595679519C082FF04C060913301E4
:1053300070E010C09091C802992399F060913201F9
:105340009617A0F780913301899FC001112470E066
:105350000E94E5326038710540F46115710519F459
:1053600006C061E070E0862F08958FE7089581E020
:105370000895803F21F40E943729819504C0813F20
:1053800029F40E9437298093CD020895823F21F4A9
:105390000E943729819504C0833F29F40E94372950
:1053A0008093CC020895893F19F40E94802905C09A
:1053B0008A3F31F40E94802981958093CE0208951E
:1053C0008B3F21F40E948029819504C08C3F29F4F1
:1053D0000E9480298093CF020895843F21F4809118
:1053E000CB02816017C0853F21F48091CB0282609F
:1053F00011C0863F21F48091CB0284600BC0873FAF
:1054000021F48091CB02886005C0883F31F48091FF
:10541000CB0280618093CB0208958D3F21F480916F
:10542000C90281600BC08E3F21F48091C902826065
:1054300005C08F3F29F48091C90284608093C9021E
:105440000895803F39F48091CD0287FF6CC010929F
:10545000CD0269C0813F29F48091CD021816BCF3BA
:1054600062C09091CC02823F29F497FF5CC01092F9
:10547000CC0259C0833F19F41916CCF354C0893FAC
:1054800041F48091CE0218160CF04DC01092CE025D
:105490004AC08A3F29F48091CE0287FF44C0F6CFEC
:1054A0008B3F39F48091CF0287FF3DC01092CF022D
:1054B0003AC08C3F29F48091CF021816BCF333C058
:1054C000843F21F48091CB028E7F17C0853F21F469
:1054D0008091CB028D7F11C0863F21F48091CB0259
:1054E0008B7F0BC0873F21F48091CB02877F05C063
:1054F000883F31F48091CB028F7E8093CB0213C022
:105500008D3F21F48091C9028E7F0BC08E3F21F424
:105510008091C9028D7F05C08F3F29F48091C90217
:105520008B7F8093C9028091CC0281110EC0809143
:10553000CD0281110AC08091CE02811106C08091F6
:10554000CF02811102C01092C80208958AEC92E045
:105550000E94591C0E94C1289093C7028093C602E2
:105560000895CF93DF9300D000D000D0CDB7DEB741
:1055700086E0EAECF2E0DE01119601900D928A9548
:10558000E1F78091CC02811105C08091CD02882382
:1055900009F47AC08091C4029091C5020E94D92872
:1055A000AC019091C802992339F02091380130E084
:1055B0002417350758F068C0209139018AE0289FE8
:1055C000900111242417350718F05EC09F3F19F091
:1055D0009F5F9093C8021092CE021092CF028091EA
:1055E000CC02181624F40E9437298093CC028091B3
:1055F000CC0287FF05C00E94372981958093CC0299
:105600008091CD02181624F40E9437298093CD0290
:105610008091CD0287FF05C00E9437298195809334
:10562000CD023091CC023323E1F02091CD02222330
:10563000C1F045EB3403C0011124992319F0909374
:10564000CC0203C081E08093CC0235EB2303C00180
:105650001124992319F09093CD0203C081E0809327
:10566000CD020E94A62A8091C6029091C702909313
:10567000C5028093C40286E0FE013196AAECB2E036
:1056800001900D928A95E1F78091CE02811105C0BB
:105690008091CF02882309F47AC08091C202909150
:1056A000C3020E94D928AC019091C802992339F015
:1056B0002091340130E02417350758F068C020915C
:1056C00035018AE0289F900111242417350718F02E
:1056D0005EC09F3F19F09F5F9093C8021092CC026A
:1056E0001092CD028091CE02181624F40E948029D7
:1056F0008093CE028091CE0287FF05C00E94802950
:1057000081958093CE028091CF02181624F40E94D6
:1057100080298093CF028091CF0287FF05C00E942D
:10572000802981958093CF023091CE023323E1F01E
:105730002091CF022223C1F045EB3403C001112494
:10574000992319F09093CE0203C081E08093CE029A
:1057500035EB2303C0011124992319F09093CF0254
:1057600003C081E08093CF020E94A62A8091C602E6
:105770009091C7029093C3028093C20286E0FE011B
:105780003196AAECB2E001900D928A95E1F7269647
:105790000FB6F894DEBF0FBECDBFDF91CF91089555
:1057A000EAECF2E086E0DF011D928A95E9F71092BB
:1057B000C8021092C90208958091D8020895CF932B
:1057C000DF9300D01F92CDB7DEB790917A05943069
:1057D00019F589837B836A8382E08093E9008FEFE8
:1057E0009091E800815095FD06C095ED9A95F1F7EE
:1057F00000008111F5CF8091E80085FF0DC040E0E9
:1058000050E063E070E0CE0101960E94272E809167
:10581000E8008E778093E8000F900F900F90DF9153
:10582000CF910895CF93DF93EC010E940A2E82302E
:1058300011F0843031F4BE0184E0DF91CF910C94FB
:10584000DF2BDF91CF910895BC0183E00C94DF2B17
:10585000CF93DF93EC010E940A2E823011F0843046
:10586000F9F482E08093E9008FEF9091E800815095
:1058700095FD06C095ED9A95F1F700008111F5CFE1
:105880008091E80085FF0CC040E050E066E070E0E9
:10589000CE010E94272E8091E8008E778093E80049
:1058A000DF91CF910895CF93DF93EC010E940A2EF0
:1058B000823011F0843039F581E08093E9008FEF78
:1058C0009091E800815095FD06C095ED9A95F1F70D
:1058D00000008111F5CF8091E80085FF14C040E001
:1058E00050E068E070E0CE010E94272E8091E80031
:1058F0008E778093E80088E0FE01A0EDB2E0019091
:105900000D928A95E1F7DF91CF9108958091790505
:10591000811109C00E94B82F0E9415308091E200C9
:1059200084608093E20008951092790508950895A7
:1059300008950C947E2842E061EC81E00E94312FB2
:1059400042E261EC82E00C94312F80917C0583303F
:1059500009F460C030F4813071F0823009F499C0EC
:1059600008958A3009F485C08B3009F46BC0893002
:1059700009F0A7C020C080917B05813A09F0A1C041
:105980008091E800877F8093E80080917F05909167
:105990008005892B21F468E080ED92E003C060E08F
:1059A00080E090E070E00E94722E8091E8008B779A
:1059B0008093E800089580917B05813209F081C0D1
:1059C00080917F0590918005029708F07AC08091C0
:1059D000E800877F8093E8008091E80082FD05C0A1
:1059E00080917A058111F8CF6CC02091F3008091ED
:1059F000F20090E0922B029729F48091F1008B7FC6
:105A0000813021F48091F1008093D8028091E800E8
:105A10008B7753C080917B05813A09F052C0809109
:105A20007F0590918005892B09F04BC08091E8009B
:105A3000877F8093E8008091E80080FFFCCF809111
:105A4000440136C080917B058132D9F580917F0574
:105A500090918005892BA9F58091E800877F80933C
:105A6000E8000E94662F80917D05809344010C948C
:105A7000C52080917B05813221F58091E800877FE8
:105A80008093E8000E94662F80917E058093D90262
:105A9000089580917B05813AA1F48091E800877F89
:105AA0008093E8008091E80080FFFCCF8091D902CC
:105AB0008093F1008091E8008E778093E8000C9449
:105AC000662F089584B7877F84BF0FB6F894A89592
:105AD00080916000886180936000109260000FBE2A
