:100000000C947A060C94C1060C94C1060C94EB185F
:100010000C94C1060C94C1060C94C1060C94C10644
:100020000C94C1060C94C1060C94B92D0C948B2E23
:100030000C9415260C94C1060C94C1060C94C106B0
:100040000C94C1060C94C1060C94C1060C94C10614
:100050000C94C1060C946E260C94C1060C94C10637
:100060000C94C1060C94C1060C94C1060C94C106F4
:100070000C94C1060C94C1060C94C1060C94C106E4
:100080000C94C1060C94C1060C94C1060C94C106D4
:100090000C94C1060C94C1060C94C1060C94C106C4
:1000A0000C94C1060C94C1060C94C10614071707E2
:1000B000250728071C071F072207F110F410F91065
:1000C000001105110A110F11141119111E1123111C
:1000D00028112C112F11361136113611361132110B
:1000E0003611461C461C781C781CC51CE31CF71DE9
:1000F000F71DEE1C871D981D981D971E971EA91EA3
:10010000A91EA01EA91EA91EA91E971E971EA51EE8
:10011000A91EA91EA51EF82E1F2F17301F2F17303E
:100120006B2F8E2F1730E52FF42F808182838485EB
:10013000868788898A8B8C8D8E8F9091929394A0DC
:10014000A1A2A3A4A5A6A7A8A9AAABACADAEAFB027
:10015000B1B2B3B4C0C1C2C3C4C5C6C7C8C9CACB93
:10016000CCCDCECFD0D1D2D3D4004350534C4B00C2
:1001700000556E64656600436F6E660031304B65F6
:10018000790041646A00526169004C6F7700326EF9
:100190006400317374004C41594552000057494E78
:1001A000004D414300004D4F44450000290014001C
:1001B0001A000800150017002B6104001600070044
:1001C00009000A00E1001D001B00060019000500DF
:1001D00000000000000005512C0012501C00180007
:1001E0000C00120013002A000B000D000E000F007F
:1001F0003300340011001000360037003800E500ED
:1002000011502800045100000000000029001400D3
:100210001A000800150017002B61040016000700E3
:1002200009000A00E1001D001B000600190005007E
:1002300000000000000005512C0012501C001800A6
:100240000C00120013002A000B000D000E000F001E
:100250003300340011001000360037003800E5008C
:1002600010502800045100000000000000000000B1
:1002700052000000000000000000500051004F003C
:10028000000000000000000000000000000000006E
:10029000000000000000055100001050240025005F
:1002A00026002D0038002A002100220023005700DC
:1002B00055002B001E001F002000370036002800CC
:1002C000135027000451000000000000010001004D
:1002D000010001000100010001000100C25CC55CD9
:1002E000C75CC95C01000100C35CC65CC85CCA5C39
:1002F00000000000000001000100010001000100F9
:1003000001000100010001000100010001000100E5
:1003100001000100010001000100010001000100D5
:1003200012500100010000000000000001001E004A
:100330001F00200021002200010001000100010037
:1003400001000100010001000100010001000100A5
:100350000000000000000100010001002300240053
:1003600025002600270001005000510052004F00D8
:1003700049004C00E60065004A004D004600E700D9
:1003800001000100010000000000000001001E0249
:100390001F022002210222020100010001000100CF
:1003A0000100010001000100010001000100010045
:1003B00000000000000001000100010023022402EF
:1003C000250226022702350201002D022E022F02ED
:1003D00030023102010001000100010001000100B2
:1003E00001000100010000000000000001003A00CF
:1003F0003B003C003D003E00010001000100010007
:1004000001000100010001000100010001000100E4
:100410000000000000000100010001003F00090091
:1004200041004200430044000100010001000100BE
:100430000100450001000100010001000100A5626A
:10044000010001000100000000000000783C1E1EB9
:10045000140A052223252628292A2C2D2F30323351
:100460003536383A3B3D3E4042434547494A4C4E7B
:100470005051535557595A5C5E6062646668696BA7
:100480006D6F71737577797B7D7F81838587898AAD
:100490008C8E90929496989A9C9E9FA1A3A5A7A8B3
:1004A000AAACAEAFB1B3B4B6B8B9BBBCBEBFC1C2E3
:1004B000C3C5C6C7C9CACBCCCDCED0D1D2D2D3D476
:1004C000D5D6D7D7D8D9D9DADADBDBDBDCDCDCDC94
:1004D000DCDDDDDDDDDCDCDCDCDCDBDBDBDADAD962
:1004E000D9D8D7D7D6D5D4D3D2D2D1D0CECDCCCBE4
:1004F000CAC9C7C6C5C3C2C1BFBEBCBBB9B8B6B402
:10050000B3B1AFAEACAAA8A7A5A3A19F9E9C9A9891
:10051000969492908E8C8A89878583817F7D7B7962
:10052000777573716F6D6B6968666462605E5C5A43
:100530005957555351504E4C4A4947454342403E06
:100540003D3B3A3836353332302F2D2C2A29282698
:10055000252322FFAA7F554000010101010101016D
:100560000101020202020202020202030303030368
:100570000303030404040404040405050505050637
:1005800006060606070707070708080808090909F5
:10059000090A0A0A0B0B0B0C0C0C0D0D0D0E0E0E9E
:1005A0000F0F0F101011111112121313141415152F
:1005B00016161717181819191A1A1B1B1C1D1D1EA1
:1005C0001E1F2020212222232424252626272829F5
:1005D000292A2B2C2D2D2E2F303132323334353623
:1005E0003738393A3B3C3D3E3F4041424344454623
:1005F0004748494A4C4D4E4F5051535455565859FF
:100600005A5B5D5E5F616264656668696B6C6D6FA5
:100610007072737577787A7B7D7E80828385878818
:100620008A8C8E8F91939596989A9C9EA0A2A3A552
:10063000A7A9ABADAFB1B3B5B7BABCBEC0C2C4C653
:10064000C9CBCDCFD1D4D6D8DBDDDFE2E4E7E9EB0F
:10065000EEF0F3F5F8FAFDFF00AE00AF00DA02812C
:100660008FD9F1DB40A4A62EAF00A0C000A1C80026
:10067000AED580A81FD300408D14200000000000DC
:1006800000003E5B4F5B3E003E6B4F6B3E001C3EEE
:100690007C3E1C00183C7E3C18001C577D571C00FB
:1006A0001C5E7F5E1C0000183C180000FFE7C3E7DB
:1006B000FF00001824180000FFE7DBE7FF003048C8
:1006C0003A060E00262979292600407F05050700F5
:1006D000407F05253F005A3CE73C5A007F3E1C1CEA
:1006E0000800081C1C3E7F0014227F2214005F5F5C
:1006F000005F5F0006097F017F00006689956A0040
:1007000060606060600094A2FFA2940008047E0410
:10071000080010207E20100008082A1C0800081C71
:100720002A0808001E10101010000C1E0C1E0C00D1
:1007300030383E383000060E3E0E06000000000045
:10074000000000005F000000000700070000147FA9
:10075000147F1400242A7F2A1200231308646200E5
:10076000364956205000000807030000001C2241B3
:1007700000000041221C00002A1C7F1C2A000808DF
:100780003E080800008070300000080808080800D3
:100790000000606000002010080402003E5149453E
:1007A0003E0000427F400000724949494600214115
:1007B000494D33001814127F100027454545390074
:1007C0003C4A49493100412111090700364949494C
:1007D0003600464949291E00000014000000004070
:1007E00034000000000814224100141414141400F2
:1007F0000041221408000201590906003E415D59DA
:100800004E007C1211127C007F49494936003E415E
:10081000414122007F4141413E007F494949410019
:100820007F09090901003E41415173007F08080812
:100830007F0000417F4100002040413F01007F08D0
:10084000142241007F40404040007F021C027F0094
:100850007F0408107F003E4141413E007F090909A5
:1008600006003E4151215E007F09192946002649B4
:100870004949320003017F0103003F4040403F00EF
:100880001F2040201F003F4038403F0063140814E1
:1008900063000304780403006159494D4300007F5D
:1008A00041414100020408102000004141417F0005
:1008B00004020102040040404040400000030708D9
:1008C00000002054547840007F28444438003844C5
:1008D00044442800384444287F00385454541800B5
:1008E00000087E09020018A4A49C78007F08040474
:1008F000780000447D4000002040403D00007F1013
:100900002844000000417F4000007C047804780007
:100910007C0804047800384444443800FC1824243B
:10092000180018242418FC007C080404080048540B
:100930005454240004043F4424003C4040207C00E4
:100940001C2040201C003C4030403C004428102823
:1009500044004C9090907C004464544C4400000847
:10096000364100000000770000000041360800001A
:100970000201020402003C2623263C00FFFFFFFF89
:10098000FFFFFFFFFFFFFFFFFFFFFFFFFFFFFFFF77
:10099000FFFFFFFFFFFFFFFFFFFFFFFFFFFFFFFF67
:1009A000FFFFFFFFFFFFFFFFFFFFFFFFFFFFFFFF57
:1009B000FFFFFFFFFFFFFFFFFFFFFFFFFFFFFFFF47
:1009C000FFFFFFFFFFFFFFFFFFFFFFFFFFFFFFFF37
:1009D000FFFFFFFFFFFFFFFFFFFFFFFFFFFFFFFF27
:1009E000FFFFFFFFFFFFFFFFFFFFFFFFFFFFFFFF17
:1009F000FFFFFFFFFFFFFFFFFFFFE0F0F0F0E0EC85
:100A0000EEF7F37020007C7C7C7E007E7E7E7F7F14
:100A10007F000080C0E07E5B4F5BFEC00000C00036
:100A2000DCD7DEDEDED7DC00C00000000000000006
:100A3000000000000000000000000000FFFFFFFFBA
:100A4000FFFFFFFFFFFFFFFFFFFFFFFFFFFFFFFFB6
:100A5000FFFFFFFFFFFFFFFFFFFFFFFFFFFFFFFFA6
:100A6000FFFFFFFFFFFFFFFFFFFFFFFFFFFFFFFF96
:100A7000FFFFFFFFFFFFFFFFFFFFFFFFFFFFFFFF86
:100A8000FFFFFFFFFFFFFFFFFFFFFFFFFFFFFFFF76
:100A9000FFFFFFFFFFFFFFFFFFFFFFFFFFFFFFFF66
:100AA000FFFFFFFFFFFFFFFFFFFFFFFFFFFFFFFF56
:100AB000FFFFFFFFFFFFFFFFFFFF0F1F3F7F7F7F56
:100AC0007F7F3F1E0C001F1F1F3F003F3F3F7F7F68
:100AD0007F00307B7F7830202030787F3B00030020
:100AE0000F7F0F0F0F7F0F000300000000000000BA
:100AF000000000000000000000000000FFFFFFFFFA
:100B0000FFFFFFFFFFFFFFFFFFFFFFFFFFFFFFFFF5
:100B1000FFFFFFFFFFFFFFFFFFFFFFFFFFFFFFFFE5
:100B2000FFFFFFFFFFFFFFFFFFFFFFFFFFFFFFFFD5
:100B3000FFFFFFFFFFFFFFFFFFFFFFFFFFFFFFFFC5
:100B4000FFFFFFFFFFFFFFFFFFFFFFFFFFFFFFFFB5
:100B5000FFFFFFFFFFFFFFFFFFFFFFFFFFFFFFFFA5
:100B6000FFFFFFFFFFFFFFFFFFFFFFFFFFFFFFFF95
:100B7000FFFFFFFFFFFFFFFFFFFF0000000000007F
:100B80000000000000000000000000000000000065
:100B90000000000000000000000000000000000055
:100BA0000000000000000000000000000000000045
:100BB00000000000000000000000000004033000FE
:100BC00000000A03720065003400300000001203C8
:100BD0006B0075007300680069006D0061003800EB
:100BE00000000403090409023B00020100A0FA0905
:100BF000040000010301010009211101000122404C
:100C0000000705810308000A090401000103000030
:100C10000009211101000122810007058203200043
:100C20000A120110010000000838393034010001B7
:100C300002030105010902A10185020901A10005C4
:100C400009190129051500250195057501810295F0
:100C500001750381010501093009311581257F9551
:100C6000027508810609381581257F95017508816F
:100C700006050C0A38021581257F95017508810645
:100C8000C0C005010980A101850319012AB700151B
:100C90000126B700950175108100C0050C0901A15E
:100CA00001850419012AA002150126A002950175EB
:100CB000108100C005010906A101050719E029E717
:100CC00015002501950875018102950175088101BE
:100CD0000507190029FF150026FF009506750881F4
:100CE0000005081901290595057501910295017501
:100CF000039101C011241FBECFEFDAE0DEBFCDBFEC
:100D000004B603FE27C08091730590917405A091ED
:100D10007505B09176058730904BA740B04BD1F464
:100D20001092730510927405109275051092760555
:100D300014BE84B7877F84BF0FB6F894A8958091BE
:100D40006000886180936000109260000FBEE0E058
:100D5000F8E3099511E0A0E0B1E0E4EEF1E602C0AD
:100D600005900D92AA3DB107D9F725E0AAEDB1E0B3
:100D700001C01D92A337B207E1F70E94E82A0C9444
:100D8000F0300C9400000F9306E025E044E00E9450
:100D9000AD070F910895CF93C82F0E94BD0B81110D
:100DA00002C08C2F01C083E0CF9108950E94BD0B3B
:100DB00060E0882309F461C08BEA91E00E94E213AD
:100DC00060E086EA91E00E94E21360E085EA91E04B
:100DD0000E94E2138091650560E080FF03C081EA14
:100DE00091E002C08DE991E00E94E21360E08CE99D
:100DF00091E00E94E21360E086E991E00E94E21334
:100E000060919B0270919C0280919D0290919E0244
:100E10000E947A2490E087309105E8F4FC01EA5AB8
:100E2000FF4F60E00C947F3082E991E002C08EE8D1
:100E300091E00E94E21314C08AE891E0FACF86E8BC
:100E400091E0F7CF82E891E0F4CF8CE791E006C023
:100E500087E791E0EECF60E081E791E00E94D01358
:100E600060E080E791E00E94E2130E940F1A81FB8C
:100E7000662760F98AE691E002C08AE291E00C946C
:100E8000D013CF93C62F882311F08130A1F4609145
:100E90009B0270919C0280919D0290919E020E9403
:100EA0007A24823040F4C11102C08AEF01C089EF78
:100EB000CF910C94EB1BCF91089581E0089581E0D0
:100EC00008950C945F0708950C9463071F93CF93C4
:100ED000DF9300D000D01F92CDB7DEB749835A838D
:100EE0006B833091440289819A81311114C0662349
:100EF00059F0222349F00E945523182F682F898129
:100F00009A810E94FC2203C00E942823182F698125
:100F10007A81812F04C00E94552369817A810F90C4
:100F20000F900F900F900F90DF91CF911F910C9425
:100F30006E08FC01262F408151816281738184817A
:100F40000C946607CF93DF93EC0160E00E94990751
:100F5000BE01DF91CF910C9464078F929F92AF9264
:100F6000BF92CF92DF92EF92FF920F931F936B018C
:100F70007C0181E090E0A0E0B0E04C015D0104C0A4
:100F8000880C991CAA1CBB1C4A95D2F7AC01BD0168
:100F900004C0440F551F661F771F2A95D2F74829B2
:100FA00059296A297B2904C0880F991FAA1FBB1FD2
:100FB0000A95D2F78A019B010C211D212E213F2188
:100FC000401751076207730739F4BC01CD016C2942
:100FD0007D298E299F290AC080959095A095B0956E
:100FE000BC01CD016C217D218E219F211F910F918C
:100FF000FF90EF90DF90CF90BF90AF909F908F9039
:1010000008950E94CA24811102C00E946A250C948E
:101010006C0A0C94680A08950C940B0881E00895FA
:101020000C940E08CF93C82F0E940C088C2F0E949E
:101030001008CF91089508950E94851E0E941B08F4
:101040002FEF84E39CE0215080409040E1F700C006
:1010500000000C9494260F931F93CF93DF93EC0121
:1010600061E00E9499078C01BE010E9461078823FC
:1010700079F1BE01C8010E94B715882349F1BE016C
:10108000C8010E94F815882319F1BE01C8010E9409
:1010900023178823E9F0BE01C8010E94DA108823D3
:1010A000B9F08A81882369F001158CE5180731F0C1
:1010B0000E3D1C4531F40E946A250AC00E941C089E
:1010C00007C0CE01DF91CF911F910F910C945D0766
:1010D00080E0DF91CF911F910F91089520E3829FCF
:1010E000C0011124FC0126E0729FE00DF11D1124C6
:1010F000E60FF11DEE0FFF1FE455FE4F8591949111
:101100000895CF93DF930E946E080E948309EC013B
:10111000811521E5920708F043C0811540E5940749
:1011200008F08AC0883E910520F5803E910508F0C0
:10113000E6C0883A910570F4853A910508F074C0CC
:101140008130910509F4DBC008F4D7C0049708F09A
:10115000D6C0D3C08F3B910508F0CFC0C85AD0E0AD
:10116000CC0FDD1FC15CDE4F0990D881C02DD46447
:10117000C6C0C11580E2D80758F4C11521E0D207D6
:1011800008F0BDC0C03FD10508F4B7C0D065B7C0F6
:10119000C11540E4D40708F4B0C0DF70D06AAFC016
:1011A000C11585E5D807A0F4C11524E5D20708F0DC
:1011B0008AC0C11543E5D40708F06FC0C11582E5A8
:1011C000D80708F054C0DC2FCC27C16FD06A97C075
:1011D000C11529E5D207A0F4C11548E5D40708F0E8
:1011E00077C0C11586E5D80708F087C08C2F0E940C
:1011F000170A8F71C82FD0E0DC2FCC27D0627FC0B8
:10120000C1152AE5D20708F468C0CE0190568115B1
:10121000904208F072C08D2F8F710E94170ADD274F
:10122000D0628F71D82B6BC0C55AD0E0C359DE4F46
:10123000C881D0E0D06463C074E0969587957A95B4
:10124000E1F783709C2F937021E030E002C0220F01
:10125000331F9A95E2F73C68382BCF70C695C69538
:1012600080E2C89FE0011124C22BD32B48C0CE01DD
:101270008370992721E030E002C0220F331F8A9546
:10128000E2F78C2F8695869540E2849FC001112459
:10129000E901C82BD92BDC6832C0CE0183709927B5
:1012A00021E030E002C0220F331F8A95E2F78C2F35
:1012B0008695869540E2849FC0011124E901C82BE0
:1012C000D92BDA681CC0DC2FCC27C46FD06A17C0BA
:1012D000DC2FCC27C06FD06A12C08C2F8F700E9479
:1012E000170A94E0D695C7959A95E1F7CF70D0E0AC
:1012F000DC2FCC27D069C82B02C0C0E0D0E0CE01E3
:10130000DF91CF9108958238910569F1B0F481336E
:10131000910509F46DC048F48932910509F463C060
:101320008A32910509F469C008958533910509F45D
:1013300055C089339105B9F00895833E910569F14F
:1013400038F4803E9105B1F0823E910509F108958F
:10135000863E9105A9F1873E9105B9F1843E91053C
:1013600009F064C023C02091640520FD4FC021FD19
:101370004DC008958091640580FD44C0809165054D
:1013800080FF44C08091640584FD42C083EE4DC05F
:101390008091640582FF38C0F5CF8091640582FD9D
:1013A00033C08091650580FD31C0ECCF809165052B
:1013B00081FF32C08091640584FD2AC087EE35C06C
:1013C0008091640583FF26C0F5CF8091640583FD7D
:1013D00021C08091650581FD1FC0ECCF809164051F
:1013E00085FD1CC01DC08091640585FD19C016C017
:1013F0008091640586FD16C017C08091640586FD46
:1014000013C010C089E311C082EE0FC080EE0DC082
:1014100080E00BC086EE09C084EE07C089E205C0FB
:1014200085E303C08AE201C081E390E008959091D2
:10143000640592FF0DC0282F2871283019F4877F8A
:10144000846006C0282F2471243011F48B7F8860BB
:1014500093FF0DC0282F2871283119F4877E8461ED
:1014600006C0282F2471243111F48B7E88612091CD
:10147000650520FF0DC0382F3871383019F4877F8B
:10148000816006C0382F3171313011F48E7F886051
:1014900021FF0DC0282F2871283119F4877E816122
:1014A00006C0282F2171213111F48E7E886194FDB0
:1014B000877E0895E82FF0E0ED52FD4F808108957A
:1014C000089580EA8A95F1F7089508950C94650AC5
:1014D0000C94660A0C94650A0C946A0A0895CF93DA
:1014E000DF930E94DC0B809100018091000181114B
:1014F00002C094E001C090E09093DC0284E0891B7C
:101500008093DB02A6E7B1E04AE751E061E070E0DA
:101510008D91E82FE295EF70F0E021A18F70EB0143
:1015200002C0CC0FDD1F8A95E2F7CE019C2F90956B
:10153000922391A392A1892B82A34A175B0741F7BB
:10154000A0E7B1E046E751E061E070E08D91E82F5F
:10155000E295EF70F0E021A18F70EB0102C0CC0F9B
:10156000DD1F8A95E2F7CE019C2F9095922391A3DF
:1015700092A1892B82A34A175B0741F7EBECF2E0BB
:10158000A3EDB2E083ED92E011921D928E179F07BA
:10159000D9F784E00E94860B0E940108DF91CF9169
:1015A0000C94F00B0E94BD0B8823F1F08091DB02BC
:1015B00090E08D529D4F0E94200C811111C08091AE
:1015C000DA018F5F8093DA01863060F0E091DB0210
:1015D000F0E0ED52FD4F108211821282138202C0A0
:1015E0001092DA010C9409088091DC0290E08D528F
:1015F0009D4F0E94430C0C946E0A6F927F928F92C3
:101600009F92AF92BF92CF92DF92EF92FF920F9391
:101610001F93CF93DF9386E7882E81E0982E0BEC03
:1016200012E09FECA92E92E0B92E712CCC24C39429
:10163000D12CF40181914F01C82FC295CF70D0E019
:1016400099A18F70760101C0EE0C8A95EAF7892F77
:101650008E2989A38AA16E2C609486218AA30E9478
:10166000610AE0E7F1E040E050E020E03191A32F93
:10167000A295AF70B0E090968C9190E03F7002C060
:10168000959587953A95E2F780FD07C08C2D042E3D
:1016900001C0880F0A94EAF701C080E0282B4F5F51
:1016A0005F4F4630510511F789A1682269A28AA1CE
:1016B000E82AEAA2F8018081281719F0208381E046
:1016C00001C080E0782A0F5F1F4FA016B10609F015
:1016D000B0CF6091DC0270E06D527D4F272D44E069
:1016E0008BEC92E00E94870B0E94D20A872DDF913B
:1016F000CF911F910F91FF90EF90DF90CF90BF900F
:10170000AF909F908F907F906F9008950895FF9273
:101710000F931F93CF93DF938C01F62ED72FC42FF7
:10172000222349F081E08093DD010E9447269093B7
:10173000DC018093DB018091DD018823C1F0809181
:10174000DB019091DC010E945F26069780F0EF2D6F
:10175000FD2FD8014C2F50E0CD01801B910B841739
:1017600095071CF48D918193F7CF1092DD01DF91E5
:10177000CF911F910F91FF9008958091DE0181110B
:1017800012C08091D80080618093D8008AE18A9548
:10179000F1F700C08091D90080FD02C082E001C055
:1017A00081E08093DE0181E09091DE01913009F0CB
:1017B00080E008950C94BD0B0E94DA0B8093000129
:1017C0008091000164E1882311F080E001C084E190
:1017D0000E94E80C0E94BD0B81110C94F70B089538
:1017E0000E94BD0B811102C00C94FD0B089562E0B4
:1017F00070E081E091E00C94991862E070E081E083
:1018000091E00C94A2180E94EB0E882361F086EE02
:1018100091E00E94F10E81E090E00E947B19892BFB
:1018200011F40C94EE0E08958091E501883039F49E
:1018300060E086EE91E00E94C90F1092E5010895E4
:10184000CF93DF93D82FC92F0E94030C80E090E044
:101850000E947B19892B99F4ED2FFC2F80E090E0FA
:10186000DC01A052BE4F2C9121930196843091054A
:10187000B9F784EE91E00E943A1281E001C080E065
:10188000DF91CF910895CF93DF93D82FC92F0E9476
:10189000140CED2FFC2F80E090E02191DC01A05290
:1018A000BE4F2C93019684309105B9F784EE91E0F8
:1018B000DF91CF910C943112EF92FF920F931F930F
:1018C000CF93DF93F62E472FE82FF0E0711106C07B
:1018D000E85AFA4F6491762F862F72C0272F30E096
:1018E000E85AFA4FE4910E2F10E056E0659FC001D0
:1018F0001124CFEFD0E0BE010E9457305BEA5603BF
:10190000C001579F900D11248F0D911D8F0D911DBA
:10191000982F990F890F7E01E21AF30AE09ED001F9
:10192000E19EB00DF09EB00D1124489FA00111243E
:10193000452F55277E01E41AF50AE09EA001E19E9D
:10194000500DF09E500D11247E01E81AF108E29E20
:10195000C001E39E900DF29E900D1124892F9927CE
:10196000C81BD90BC09FC001C19F900DD09F900D87
:1019700011246230710591F048F461157105E1F0B0
:1019800061307105A9F48B2F752F19C06430710572
:1019900061F038F06630710579F00AC0892F7B2F2D
:1019A0000EC08E2F7B2FE52F0AC08E2F792F02C0FD
:1019B000852F7E2FEB2F03C08B2F7E2FE92F6E2FCD
:1019C000DF91CF911F910F91FF90EF9008950895AF
:1019D000E1E1F1E0808361830895CF93DF93762F77
:1019E000E901682F842F0E945C0C798368838A83C5
:1019F000DF91CF910895473908F046E90C94ED0C3A
:101A00008091DD02282F269530E02115310519F44B
:101A10008170826005C02331310524F081708462B9
:101A20008093DD028091E002873918F086E9809387
:101A3000E002089588E090E00C94B030CF92DF92FD
:101A4000EF92FF926B017C010E94000DB701A6018D
:101A500088E090E0FF90EF90DF90CF900C94CE3034
:101A6000EDEDF2E083E0808311828FEF828386E9DF
:101A700083831482A8EFB1E012968C911297836051
:101A800012968C9360817181828193810C941E0DDA
:101A90008091DD0280FF02C08695089580E0089560
:101AA0008091E102833018F48F5F8093E1026091AE
:101AB000DD027091DE028091DF029091E0020C94D1
:101AC0001E0D8091E102882319F081508093E1027C
:101AD0006091DD027091DE028091DF029091E00260
:101AE0000C941E0D70E00C943B11609112018091DA
:101AF000DD0280FF0AC08091110123E0829FC001B6
:101B000011248E519D4F0C94720D80911301909170
:101B10001401891780F7E82FF0E09F01220F331F8F
:101B2000E20FF31FEE51FD4F1182108212828F5F80
:101B3000F0CF9091DD0290FF16C09091130120919B
:101B40001401921770F4E92FF0E0DF01AA0FBB1F18
:101B5000EA0FFB1FEE51FD4F8183608342839F5F3D
:101B6000F0CF0C94750D0895CF93DF9300D01F92A2
:101B7000CDB7DEB79091DD0290FF0AC09E012F5FC6
:101B80003F4F0E94FB0C4B8169818A810E94990D15
:101B90000F900F900F90DF91CF910895CF93DF9327
:101BA000EC01EC81F0E0ED5AFB4F4491EDEDF2E0F9
:101BB000628181810E94B40D8C818F5F8C83DF9163
:101BC000CF910895CF93DF93EC01EDEDF2E04381E7
:101BD00062818C810E94B40D8C818F5F8C83DF9138
:101BE000CF910895AF92BF92CF92DF92EF92FF9282
:101BF0000F931F93CF93DF9300D01F92CDB7DEB723
:101C0000182FF62E042FE22E8091DD0280FF7CC07B
:101C1000E82FE695AE2FB0E0A258BE4F9C9190936E
:101C2000F8018E7F823061F49E012F5F3F4F812F3C
:101C30000E94FB0C4B8169818A810E94990D41C0F1
:101C4000923019F40091E0023CC0963019F41091E2
:101C5000DE0237C09930A9F5E9508E2F8170D82E59
:101C6000E695F0E0ED5AFA4FA590B490C12CBB2454
:101C700060911501C61618F52C2D30E0A29EC0010A
:101C8000A39E900DB29E900D112470E00E945730DB
:101C9000812FD11002C0860F01C0861B90911301C5
:101CA000290F311DA901440F551F240F351F2E5137
:101CB0003D4F402F6F2D0E94FB0CC394D9CF0E9443
:101CC000750D8091DE02181308C08091DF02F812B2
:101CD00004C08091E002081729F08091FA01826027
:101CE0008093FA011093DE02F092DF020093E0028B
:101CF000EE2051F06091DD027091DE028091DF02F2
:101D00009091E0020E941E0D0F900F900F90DF91B6
:101D1000CF911F910F91FF90EF90DF90CF90BF90E8
:101D2000AF900895EDEDF2E09181282F438162811B
:101D300088E0890F0C94F20D81E00C94920EEDED89
:101D4000F2E09181282F4381628188EF890F0C9402
:101D5000F20D81E00C949F0EEDEDF2E0628121E145
:101D6000620F08F46FEF282F438181810C94F20DEC
:101D700081E00C94AC0EEDEDF2E0628121E1621B9A
:101D800008F460E0282F438181810C94F20D81E0FA
:101D90000C94BB0EEDEDF2E0438121E1420F08F41B
:101DA0004FEF282F628181810C94F20D81E00C9419
:101DB000CA0EEDEDF2E0438121E1421B08F440E060
:101DC000282F628181810C94F20D81E00C94D90E50
:101DD00020E00C94F20D8091FA0108951092FA011E
:101DE000089525E0EDEDF2E0DC0101900D922A95D9
:101DF000E1F72091F8013091F9014091FA01FC01DD
:101E000025833683478308956091DD02669570E0EF
:101E10004BE050E086E191E00E948E30892B19F46E
:101E200081E08093F9010E9447269093F20180930C
:101E3000F1018091FA0184608093FA010895E8EF3E
:101E4000F1E0118282818460828308959091DD02A5
:101E500090FF3AC09170811102C0926006C0833138
:101E600010F0946202C0880F982B9093DD0280914D
:101E7000FA0181608093FA01662351F06091DD02DE
:101E80007091DE028091DF029091E0020E941E0DAF
:101E90006091DD02669570E04BE050E086E191E0F4
:101EA0000E948E30892B19F00E941F0F02C00E94E1
:101EB000040F81E08093F4014091E0026091DF0221
:101EC0008091DE020C94E80E0895682F9091DD0257
:101ED000969581E0890F833108F081E00C94260FFC
:101EE00081E00C94650F682F9091DD0296958FEF3D
:101EF000890F09F482E10C94260F81E00C94730F92
:101F000061E00C94260FEDEDF2E08081816080832A
:101F100086950C94800F60E00C94260FEDEDF2E0B6
:101F200080818E7F808360817181828193810E9414
:101F30001E0D0E941F0FE8EFF1E082818160828315
:101F40002FEF80E792E0215080409040E1F700C001
:101F500000000C94750D8091DD0280FD0C948E0FB5
:101F60000C94830FEDEDF2E080818E7F80830E94E0
:101F70001F0FE8EFF1E08281816082832FEF80E71D
:101F800092E0215080409040E1F700C000000C94A6
:101F9000750D1F93CF93DF93EC01162F8F8180FF78
:101FA0000FC0888180FF0AC08091DD02816080932C
:101FB000DD02888186950E94260F02C00E94B20F22
:101FC0008F8181FF06C0212F4B816A8189810E9408
:101FD000F20D8F8182FF08C08E81882319F00E9444
:101FE000040F02C00E941F0F8F8183FF03C081E096
:101FF0008093F401DF91CF911F9108958091F701B3
:10200000811133C00E94CA24811104C00E946A2534
:102010000E94300D0E941A0D6093DD027093DE0263
:102020008093DF029093E0028091FA0183608093B5
:10203000FA016E7F61F40E94300D0E941A0D6093C8
:10204000DD027093DE028093DF029093E0020E9433
:10205000000D0E941F0F8091DD0280FF03C0869556
:102060000E948B0F81E08093F7010895EF92FF9219
:102070000F931F93CF93DF938091F901882309F485
:1020800077C08091F801E091DD02E695E81BE093CE
:10209000F301823049F4F0E0E15BFB4FE491CE2F95
:1020A000D0E00EEC1DE00FC0863049F4F0E0E45BB8
:1020B000FB4FE491CE2FD0E002EE1DE004C0C0ED56
:1020C000D7E007EE1CE08091F401882389F010929C
:1020D000F4010E9447269E0120953095820F931FA0
:1020E0009093F2018093F1011092F6011092F501A4
:1020F0008091F1019091F2010E945F268C179D075B
:10210000B8F18091F0018823B1F01092F001809134
:10211000EE019091EF010E945F268033954758F0C1
:102120000E9447269093EF018093EE018091FA017F
:1021300088608093FA01E090F501F090F601E0915B
:10214000F101F091F201CE0FDF1FD093F201C093A5
:10215000F10181EF91E0F80109958091F5019091ED
:10216000F601892B29F4EF2819F081E08093F00122
:10217000DF91CF911F910F91FF90EF9008958823E9
:1021800011F0FA0101C0FB010994CF93DF93C82F2E
:10219000D62F0E94480D8C1740F00E94480D8D17D5
:1021A00020F4DF91CF910C94700F8C2FDF91CF91A1
:1021B0000C94800F1F93CF93DF93FB0112811111B9
:1021C00055C0EC010E94D6238272FE01E25CFC4500
:1021D000E431F10520F4E35AFF4F0C947F3011E015
:1021E00045C00E94AB0F42C04DE75FE060E77FE073
:1021F00004C040E75FE06DE77FE00E94BF1036C09B
:1022000049EA5EE06CE97EE0F8CF4CE95EE069EA1D
:102210007EE0F3CF47EC5EE068EB7EE0EECF48EB8C
:102220005EE067EC7EE0E9CF45EE5EE066ED7EE0E5
:10223000E4CF46ED5EE065EE7EE0DFCF41E65DE0B7
:1022400060E57DE0DACF40E55DE061E67DE0D5CF99
:1022500081E00E94800F0AC065E082E005C068E06E
:1022600086E002C062E189E00E94C510812FDF9103
:10227000CF911F910895539A2BB1277F3BB13860BE
:102280004FB7F894FC01CB01880F991F680F791F95
:102290006E0F7F1FE617F70789F0819198E03BB931
:1022A000000000C087FF2BB9880F000000C000C0ED
:1022B00000C02BB900C09A9591F7ECCF4FBF8FE5C6
:1022C00094E00197F1F700C0000008950C944107D5
:1022D00080910001882309F447C020912201A22F98
:1022E000A295AF70B0E091963C9191972F7081E0EC
:1022F00090E0AC01022E01C0440F0A94EAF7542F7B
:102300005095352391963C93919792963C91929754
:10231000432B92964C93929740912101E42FE295A2
:10232000EF70F0E031A14F70042E01C0880F0A94C5
:10233000EAF7982F9095932391A392A1892B82A3DA
:1023400090968C9190E002C0959587952A95E2F73A
:10235000817020A130E002C0359527954A95E2F7BB
:1023600020FD09C090E008C086E38093220186E644
:1023700080932101B2CF92E0892B8093000290914B
:10238000000181E098279093FC01891B8093FB0159
:102390000895CF93E09100025E2F550F550F2091C5
:1023A0002201E22FE295EF70F0E080A190E02F7023
:1023B00002C0959587952A95E2F7817099274091FB
:1023C0002101E42FE295EF70F0E020A130E04F70A2
:1023D00002C0359527954A95E2F7F901E170FF278C
:1023E00020FF02C0E2E0F0E0E82BF92BE52BE093C0
:1023F0000002C091FC01EF70F0E0EF56FE4F9081BB
:102400008091FF01890F8093FF0184306CF0EC2FE5
:102410000C2E000CFF0BE350FE4F80818F5F8083FA
:1024200060E08C2F0E9466118091FF018D3F6CF45B
:10243000EC2F0C2E000CFF0BE350FE4F80818150DF
:10244000808361E08C2F0E9466118091FF01837868
:1024500087FF03C081508C6F8F5F8093FF01CF9106
:102460000895E091FC01F0E0E350FE4F2081FC0173
:1024700020830895FF920F931F93CF93DF93D09102
:10248000FB010D2F10E003501E4FFC01C081F8012D
:102490008081C81BFC2E1F1454F4FA94F80180812B
:1024A0008F5F808360E08D2F0E946611F4CF8C2FA8
:1024B000C7FD80E0C81BCC2351F0CF5FF8018081BD
:1024C0008150808361E08D2F0E946611F4CFDF91EF
:1024D000CF911F910F91FF900895EF92FF920F936C
:1024E0001F93CF93DF93EC017B0164E670E088E7F4
:1024F0000E945A178C01EC0EFD1ECE15DF0561F00F
:1025000017FD0AC0FE01849164E670E00E94B117D5
:102510008C012196892B89F30E943518C801DF911F
:10252000CF911F910F91FF90EF900895EAE5F3E0AE
:1025300080E092E0DF019C011D9221503040E1F7E4
:10254000F0935F05E0935E058FEF9FEF90932D0270
:1025500080932C0208950E94CB068093280280FD70
:1025600002C080E801C080E2809327020E945417D5
:102570006DE070E08FE696E00E946D12892B11F0FD
:1025800080E008958091280263E070E081FD03C03F
:102590008CE696E002C089E696E00E946D12892BD7
:1025A00079F76DE070E08CE596E00E946D12892B62
:1025B00039F70E945326DC01CB01805A9541AF4F79
:1025C000BF4F80935A0590935B05A0935C05B09331
:1025D0005D050E94961281E080932B0280932A026F
:1025E0001092290208952091270236E0839FC001AE
:1025F0001124629F800D911D1124811522E0920704
:1026000014F080E090E0865A9C4F90935F05809391
:102610005E05089520915E0530915F052455334095
:1026200040912702642F70E0C9010E945730481B77
:10263000463010F4240F311D211582E0380710F0C8
:1026400020E030E0265A3C4F30935F0520935E0532
:102650000895CF93DF938A3011F481E003C08D3069
:1026600029F480E0DF91CF910C949F13C62F682F3F
:1026700080915E0590915F0526E0FC01A1E0B2E04B
:1026800001900D922A95E1F7603E30F026E0FC01C2
:1026900011922A95E9F70AC0F6E06F9FB001112464
:1026A0006458794F46E050E00E948530C11135C032
:1026B000C0915E05D0915F0546E050E0BE0181E02B
:1026C00092E00E949B30892BB1F1CA55D3409E0104
:1026D00085E0369527958A95E1F781E090E0AC0199
:1026E00002C0440F551F2A95E2F720912C02309129
:1026F0002D02242B352B269645E0D695C7954A9575
:10270000E1F702C0880F991FCA95E2F7822B932B3D
:1027100090932D0280932C020EC0E0915E05F09103
:102720005F059F012A5F3F4F2E173F0709F2808107
:1027300080958193F9CFDF91CF910C940A13CF93B9
:10274000E82F20915E0530915F052A553340409176
:102750002702642F70E0C9010E945730481B842F64
:10276000EE2359F066E00E944B30C82FC150B0F004
:1027700060E080E20E942913F9CFA901480F511DA2
:102780004115524018F080E020E030E0280F311D64
:10279000265A3C4F30935F0520935E05CF910895F4
:1027A0001F93CF93DF93EC01162FFE0184918823B2
:1027B00029F0612F0E9429132196F7CFDF91CF9145
:1027C0001F9108950E94D01381E00C949F130E94E2
:1027D0005326DC01CB01805A9541AF4FBF4F809308
:1027E0005A0590935B05A0935C05B0935D058091BD
:1027F0002A0281110BC062E070E08AE596E00E9437
:102800006D12892B19F481E080932A0280912A02AB
:1028100008956F927F928F929F92AF92BF92CF92C4
:10282000DF92EF92FF920F931F93CF93DF9320914C
:102830002C0230912D022115310509F4D4C080916C
:1028400029028111D0C061E070E0082F10E03B0147
:10285000082E02C0660C771C0A94E2F7A3014223FB
:102860005323452B11F48F5FF0CF909128029801EC
:1028700065E0220F331F6A95E1F790FD12C0829543
:10288000880F807680932501220F232F221F330B80
:10289000319520932801815E8093260110922901B1
:1028A00012C045E0369527954A95E1F7220F220F91
:1028B000220F2093250110922801295F20932601E1
:1028C00083E08093290124E630E047E050E063E2B2
:1028D00071E088E70E94E117892B09F084C080919C
:1028E000280280FD23C0A80195E0440F551F9A954A
:1028F000E1F7465A5C4F04E610E020E230E060E485
:1029000088E70E940818892B09F06DC00E94E71320
:10291000E301C095D09580912C0290912D02C8239F
:10292000D923D0932D02C0932C025DC080E2E7E052
:10293000F2E0DF011D928A95E9F785E0000F111F93
:102940008A95E1F7A5EAB1E041EA51E09924939430
:102950002D91EA018991AE01B801680F711D665A87
:102960007C4F30E0295F3D4FF90197E07F01E21A8B
:10297000F30AA92C01C0AA0CEA94EAF77B01B12C56
:10298000E70189917E018A21892E8B18D82DD77075
:10299000CD2E0D2E000CDD08C82F01C0CC0FDA950E
:1029A000EAF7D194C194D108D7E0CD22DD2401C04B
:1029B0008695CA94EAF78C2BD0808D298083B394B6
:1029C00088E0B812DDCF915031969F3F79F6C1E093
:1029D000A93ABC0709F0BCCF04E610E020E230E0E1
:1029E00047E052E08CCFDF91CF911F910F91FF9084
:1029F000EF90DF90CF90BF90AF909F908F907F909F
:102A00006F90089580912A02882369F062E070E057
:102A100088E596E00E946D12892B19F080912A02B8
:102A2000089510922A0290912A0281E08927089540
:102A30000F931F9380912B02882311F160E080E0B7
:102A40000E94F3120E94D6060E94091480912A0265
:102A50008823B1F00E94532600915A0510915B051E
:102A600020915C0530915D05DC01CB01801B910B51
:102A7000A20BB30BB7FD04C01F910F910C9402156C
:102A80001F910F9108950F931F93CF93DF93C62F3C
:102A9000D42F122FFC0182818823C9F06093300269
:102AA0000E94472690932F0280932E0280E28C0F83
:102AB000883008F057C0C77081E001C0880FCA9500
:102AC000EAF7DF91CF911F910F910C94FE1B80913B
:102AD0003002681330C080912E0290912F020E9424
:102AE0005F26883C910538F500E20D0FCD17B9F04F
:102AF00080E28C0F883040F4C77081E001C0880FFD
:102B0000CA95EAF70E94051C083028F581E09D2F40
:102B1000977001C0880F9A95EAF70E94FE1B812FDB
:102B20000E94EB1B0830F0F4D77081E001C0880FE1
:102B3000DA95EAF70AC080E28C0F883098F4C77003
:102B400081E001C0880FCA95EAF7DF91CF911F910C
:102B50000F910C94051C812FDF91CF911F910F9144
:102B60000C94EB1BDF91CF911F910F9108959C0165
:102B7000CB01233F4CE53407F9F078F4283DFCE520
:102B80003F07B9F0293D4CE5340711F1273D3C459D
:102B900031F526E241EE61EE1EC0253FFCE53F0720
:102BA00099F070F0263F3C45D1F427E245EE66EE01
:102BB00012C027E245EE0EC026E241EE60EE0BC0E9
:102BC00027E245EE64EE07C026E241EE62EE03C066
:102BD00028E241E065EE0E94431580E00895FC0183
:102BE0008281882319F010923002089581E00895BF
:102BF000CF93DF93EC01FB018281882309F41FC18D
:102C0000C230FCE5DF0708F41BC1C6319CE5D907DB
:102C100038F09E012A5F3C452930310508F010C18B
:102C20000E94DD249093650580936405C031ECE536
:102C3000DE0709F4C3C008F041C0C8308CE5D807EE
:102C400009F49AC0F0F4C430ECE5DE0709F487C05B
:102C500068F4C2308CE5D80709F477C0C330DC458E
:102C600009F0E3C080916405826076C0C630ECE56F
:102C7000DE0709F46EC008F07BC0809164058860AF
:102C80006BC0CC308CE5D80709F485C068F4CA3035
:102C9000ECE5DE0709F474C008F079C00E94851ED7
:102CA00080916405806858C0CE308CE5D80709F45F
:102CB00076C008F07FC0809164058BC0CB3FECE507
:102CC000DE0709F44FC018F5C3318CE5D80709F4C5
:102CD0007DC078F4C131ECE5DE0709F473C0C23180
:102CE000DC4509F0A2C00E94851E809164058F77A3
:102CF00033C0C5318CE5D80709F472C008F486C02A
:102D0000CA3FDC4509F091C0809165053EC0CF3FC8
:102D1000FCE5DF0709F45FC058F4CD3F9CE5D90717
:102D200009F444C008F43FC08091650582602DC05D
:102D3000C130FDE5DF0709F475C008F45DC0C2309D
:102D4000DD4509F072C080E06EC08091640581604D
:102D500003C08091640580618093640566C08091A2
:102D6000640511C0809165058260809365055DC032
:102D7000809164058062F0CF809164058064ECCF1F
:102D80008091640588608460E7CF8160EECF809198
:102D900064058E7FE1CF809164058D7FDDCF8091CA
:102DA0006405877FD9CF8091650518C0809165053E
:102DB0008D7FDBCF809164058F7ECECF80916405BF
:102DC0008F7DCACF809164058F7BC6CF80916405CB
:102DD000877F8B7FC1CF809165058D7F8E7FC5CF2B
:102DE0008091640582FB222720F991E0922790FBD5
:102DF00082F990FB83F9B0CF80916505982F90956B
:102E000091708E7F892B90FB81F9AFCF0E94851E38
:102E10008091640587FB222720F991E0922790FB9F
:102E200087F99ACF81E00E946C258091640590918A
:102E300065050E94EE240E94851E80E001C081E0AD
:102E4000DF91CF910895CF93DF9386319C4541F573
:102E5000EB010E94D623982F8A8120912A0130917C
:102E60002B01882379F09A7A81E009F480E080933D
:102E70003102911102C069E201C065E3C9010E94FB
:102E8000B3250AC080913102811102C069E201C0FC
:102E900065E3C9010E94B5250E94172480E001C0A6
:102EA00081E0DF91CF9108951092B9008CE080937A
:102EB000B8000895EF92FF920F931F93CF93DF9383
:102EC000182FEB011092BC0084EA8093BC000E9492
:102ED00047267C018091BC0087FD0EC0CF3F8FEF5D
:102EE000D807C1F30E9447268E199F098C179D07AA
:102EF00088F38EEF9FEF2EC08091B900887F8830D5
:102F000041F08091B900887F803119F08FEF9FEFF9
:102F100021C01093BB0084E88093BC000E94472628
:102F20008C018091BC0087FD0CC0CF3F8FEFD8078C
:102F3000C1F30E944726801B910B8C179D0788F3D5
:102F4000D8CF8091B900887F883111F08034F1F6B4
:102F500080E090E0DF91CF911F910F91FF90EF9073
:102F600008950F931F93CF93DF93EB018093BB00E2
:102F700084E88093BC000E9447268C018091BC00AD
:102F800087FD0EC0CF3F8FEFD807C1F30E944726C1
:102F9000801B910B8C179D0788F38EEF9FEF0CC061
:102FA0002091B900287F81E090E0283211F480E080
:102FB00090E0919581959109DF91CF911F910F91AB
:102FC0000895CF92DF92EF92FF920F931F93CF93CA
:102FD000DF936B018A017901B9010E945A17E6015A
:102FE0000C0D1D1DC017D10761F424E92093BC000E
:102FF000DF91CF911F910F91FF90EF90DF90CF90D5
:10300000089597FDF2CFB70189910E94B117EACFD9
:10301000CF92DF92EF92FF920F931F93CF93DF93A4
:10302000C62F6A017901B8010E945A1797FD11C095
:10303000B8018C2F0E94B117E601EC0CFD1CCE15D7
:10304000DF0539F097FD05C0B80189910E94B117DD
:10305000F6CF24E92093BC00DF91CF911F910F910F
:10306000FF90EF90DF90CF90089584E98093BC00AB
:1030700008958EE14A9B02C08150E1F74A9BFECF42
:1030800008955A9880E28A95F1F75A9A0895FC01BA
:103090002AE02A95F1F790E020E080E031E0261761
:1030A00079F040E14A95F1F7880F4A9B02C08160B0
:1030B000932700C0000040E14A95F1F72F5FEFCF62
:1030C00020E12A95F1F729B100C0000030E13A95DE
:1030D000F1F722FB222720F992272081920F90837B
:1030E0000895EF92FF920F931F93CF93DF931F9258
:1030F000CDB7DEB719828C017C01E60EF11C0E15EE
:103100001F0559F00E94391868E0CE0101960E940F
:103110004718F80181938F01F2CF81E099819111D5
:1031200080E00F90DF91CF911F910F91FF90EF9072
:103130000895909334028093330260933202529A3E
:103140005A9A089590933402809333026093320226
:1031500052985A9AEA9AE9E6F0E080818F7C80835F
:103160000895615091E001C0990F6A95EAF720E057
:1031700031E0992361F0492F482319F05A9A232707
:1031800001C05A9840E24A95F1F79695F2CF222372
:1031900011F05A9A01C05A9880E28A95F1F75A982C
:1031A0000895FF920F931F93CF93DF93EC018C014F
:1031B000060F111DC017D10741F0F9900E94411868
:1031C00068E08F2D0E94B118F5CFDF91CF911F914C
:1031D0000F91FF9008951F920F920FB60F92112436
:1031E0000F931F932F933F934F935F936F937F930F
:1031F0008F939F93AF93BF93EF93FF93CF93DF93FF
:103200001F92CDB7DEB719820E94391867E0CE0150
:1032100001960E944718382F369536953695932F8C
:1032200096959570232F2570920F292F23709695D0
:1032300096958770920F891348C08981811145C086
:1032400080913202831708F440C080E18A95F1F73B
:103250005A9A529AA2E0AA95F1F700C0009133025F
:1032600010913402B8E03B9F000D111D11245A98B3
:10327000F8016581662321F0868197810E94D1182B
:103280000E944118F0E1FA95F1F75A9852985A9A2B
:1032900080E18A95F1F7D80112966C911297662316
:1032A00069F013968D919C9114970E947118D80122
:1032B000ED91FC91811105C082E004C0D801ED912F
:1032C000FC9188E080830E9439180F90DF91CF91A4
:1032D000FF91EF91BF91AF919F918F917F916F91EE
:1032E0005F914F913F912F911F910F910F900FBEC2
:1032F0000F901F9018950F931F93CF93DF932091FA
:10330000320230E0281739070CF471C09C0193E0B9
:10331000220F331F9A95E1F7C0913302D091340206
:10332000C20FD31FF894529A5A9845E04A95F1F784
:103330000000982F969595708570890F982F93703F
:1033400086958695890F8901082B0E94411884E093
:103350008A95F1F700C067E0802F0E94B11840E124
:103360004A95F1F752985A9A4A9902C000C0FCCF88
:1033700087E090E04A9B0EC0019751F4529A5A9A06
:10338000E881F98181E08083789481E090E031C028
:1033900000C0F0CF6D81662381F08E819F810E94F5
:1033A000711881110AC0529A5A9AE881F98182E013
:1033B0008083789482E090E01CC00E94391880E2FB
:1033C0008A95F1F75A98529A40E14A95F1F76A8145
:1033D000662321F08B819C810E94D1180E944118A4
:1033E000E881F9811082789480E090E002C084E066
:1033F00090E0DF91CF911F910F91089590933A0241
:10340000809339020895E0913902F0913A023097A1
:1034100021F00190F081E02D099480E00895E09181
:103420003902F0913A02309711F480E0089501904A
:10343000F081E02D09950895E0913902F0913A026A
:10344000309721F00280F381E02D09940895E091F6
:103450003902F0913A02309739F022E0DC012C93E6
:103460000480F581E02D0994089520913702309170
:1034700038022817390771F0909338028093370289
:10348000E0913902F0913A02309721F00680F781FD
:10349000E02D0994089520913502309136022817C5
:1034A000390771F09093360280933502E09139022A
:1034B000F0913A02309721F00084F185E02D0994D3
:1034C000089585B7806885BF85B7806885BF0895F2
:1034D00008950C94681A0C94691A0C94681A0C9448
:1034E000681A0E94611A0E946D1A0C946B1A0C944F
:1034F000BD0B0E943E260E946F0A80E00E94AB1224
:103500000E94A5260E94FE0F0E9468110C946F1A5B
:103510009F92AF92BF92CF92DF92EF92FF920F9362
:103520001F93CF93DF93CDB7DEB72A970FB6F894EA
:10353000DEBF0FBECDBF0E94FD0AC82E0E94771AC3
:10354000811111C08FEF89838A831B820E944726D5
:103550008160782F9D838C8349815A816B818D8115
:103560000E942D1B40C08CE3A82E82E0B82E00E004
:1035700010E0902E802F0E945A0AE82EF501D1907B
:103580005F01D82631F40F5F1F4F0830110589F70E
:10359000D9CF8091B00281FD0E94600A80E0FF24B3
:1035A000F3949D2D9F21D1F08E839F82EF2081E0A7
:1035B00009F480E088870E9447268160782F9A87E7
:1035C00089874E815F8168858A850E942D1BF8015D
:1035D000E45CFD4F8081F826F08205C08F5FFF0C10
:1035E0008630F9F6D0CF0E9436100E94C9110E9491
:1035F0001815C1100E94E7130E9437280E94031A71
:1036000090913B028917B9F00E94031A80933B0204
:103610002A960FB6F894DEBF0FBECDBFDF91CF91D3
:103620001F910F91FF90EF90DF90CF90BF90AF90E0
:103630009F900C9412082A960FB6F894DEBF0FBE26
:10364000CDBFDF91CF911F910F91FF90EF90DF9051
:10365000CF90BF90AF909F900895CF93DF93CDB759
:10366000DEB72B970FB6F894DEBF0FBECDBF4F83EA
:10367000588769877A878B87DE01119686E0FD017E
:1036800011928A95E9F785E0FE01379601900D9237
:103690008A95E1F749815A816B817C818D819E8178
:1036A0000E943E212B960FB6F894DEBF0FBECDBF11
:1036B000DF91CF910895FC01808191810E94972331
:1036C0000895CF93882309F450C0C82F8CEF8C0F36
:1036D000813AD0F46C2F80912A0190912B010E94A5
:1036E0007D25882349F06C2F80912A0190912B0130
:1036F0000E94B5250E9417246C2F80912A01909179
:103700002B010E94B3250CC080E28C0F883058F446
:10371000C77081E001C0880FCA95EAF70E94D923DB
:10372000CF910C941724EBE5EC0FE33040F4F0E07C
:10373000E952FE4F808190E0CF910C94351AE8E574
:10374000EC0FE73150F4F0E0EE0FFF1FE755FE4FAE
:1037500080819181CF910C944B1AC03F30F08C2F17
:103760000E943F27CF910C942C28CF910895882355
:1037700089F19CEF980F913A40F4682F80912A01CB
:1037800090912B010E94B5250DC090E2980F9830C2
:1037900058F4877091E001C0990F8A95EAF7892F54
:1037A0000E94DF230C9417249BE5980F933020F49C
:1037B00080E090E00C94351A98E5980F973120F44A
:1037C00080E090E00C944B1A803F20F00E94A727E5
:1037D0000C942C280895CF93C82F0E94611BC933E5
:1037E00049F42FEF87EE93E0215080409040E1F7BD
:1037F00000C000008C2FCF910C94B71B882321F0C0
:103800000E94D9230C9417240895882321F00E9444
:10381000DF230C9417240895CF92DF92EF92FF924A
:103820000F931F93CF93DF937C01D62FC72FFC01FB
:10383000058102950F70128111110E94F6230E94DA
:10384000CF23882399F0112389F08C2F807F803437
:1038500021F080E28D0F883048F082E00E946124E0
:103860000E94CF2391E0D82ED92601C0D12CCC2E96
:10387000C2948FE0C8228C2D90E08C30910508F026
:10388000B6C1FC01EF58FF4F0C947F308C2F807F26
:10389000CF70882311F0C295C07F112399F0CC23FB
:1038A00009F491C180E28D0F883010F0D11104C06D
:1038B0008C2F0E94D92303C08C2F0E94E9230E94E1
:1038C000172481C18D2F0E94B71BCC2309F48FC10F
:1038D00080E28D0F883010F0D11104C08C2F0E942F
:1038E000DF2303C08C2F0E94EF230E9417247FC187
:1038F0008C2F807FCF70803211F0C295C07FDD2386
:1039000019F0D130C9F022C0112371F0002341F029
:10391000013031F40E94FC238C2B0E94042467C1E7
:103920000E94FC238C2B1DC0002319F0013009F4E8
:103930005EC10E940D2425C0112321F0063008F03D
:1039400056C10EC0053008F052C11BC0112361F0F2
:10395000002331F0F701858180FF35C18F708583A9
:103960008C2F0E94FE1B43C1002359F0D93309F06C
:103970003BC1FFEF07EE13E0F15000401040E1F7CC
:1039800031C18C2F0E94051C32C18C2F86958695E3
:10399000837019F0813061F02AC1112321F08D2F3D
:1039A0009C2F937002C080E090E00E94351A27C1DE
:1039B000112321F08D2F9C2F937002C080E090E0A6
:1039C0000E944B1A1CC18D2F112319F00E943F2712
:1039D00002C00E94A7270E942C2811C18C2F83703F
:1039E00009F047C0111107C12D2F22952695277088
:1039F000220F220F6D2F6F70862F90E0A0E0B0E0B5
:103A0000022E04C0880F991FAA1FBB1F0A94D2F769
:103A1000D4FF10C04FE050E060E070E004C0440FFD
:103A2000551F661F771F2A95D2F7409550956095D0
:103A3000709503C040E050E0BA01C695C695C370CA
:103A40008A019B01082B192B2A2B3B2BC901B8019A
:103A5000C23049F058F4C13019F00E941222CBC094
:103A60000E940022C8C00E942422C5C00E94FE21DC
:103A7000C2C0112319F08C2F817001C08695882354
:103A800009F4B9C02D2F229526952770220F220FF9
:103A90006D2F6F70862F90E0A0E0B0E0022E04C082
:103AA000880F991FAA1FBB1F0A94D2F7D4FF10C01A
:103AB0004FE050E060E070E004C0440F551F661F07
:103AC000771F2A95D2F7409550956095709503C061
:103AD00040E050E0BA01C695C695C3708A019B01CB
:103AE000082B192B2A2B3B2BC901B801C23049F0F6
:103AF00058F4C13019F00E94D7227DC00E94C5221F
:103B00007AC00E94E92277C00E94382274C0CF7028
:103B1000112339F08C2F0E945E228D2F0E94FE1BF4
:103B20006AC08D2F0E94051C8C2F0E947F2263C0CB
:103B3000D23F01F128F4D03F41F0D13FA1F03FC086
:103B4000D33FF9F0D43F39F13AC0112341F00530A9
:103B500008F04DC08C2F8F710E94A42248C00630FF
:103B600008F045C0F7CF112339F08C2F8F710E94D8
:103B70005E223DC01123C9F38C2F8F710E947F22DA
:103B800036C0112329F08C2F8F710E9449222FC03B
:103B90000E9444222CC0112349F0CF718C2F0E9427
:103BA0005E2263E08C2F0E944C2421C081E00E94A1
:103BB00061240230E0F082E00E94612418C01123E9
:103BC00031F0002391F28D2F0E94611B10C0002361
:103BD00099F2D93349F41FEF27EE33E0115020401A
:103BE0003040E1F700C000008D2F0E94B71B88EF26
:103BF0008C0D843020F40E94031A0E941208DD20EC
:103C0000C9F00E94CB2380FD15C0F70112820E94EB
:103C1000C5230E945E22C7010E943B1E0E94C5234D
:103C2000DF91CF911F910F91FF90EF90DF90CF9098
:103C30000C947F22DF91CF911F910F91FF90EF9015
:103C4000DF90CF9008950F931F93CF93DF93EC01F4
:103C5000688179818A810E94A2238C010E94FB22C3
:103C60000E94EC21B801CE010E940C1CDF91CF9183
:103C70001F910F910895CF93DF93EC019881898173
:103C80002B813C81232B31F08F3F31F481E09F3F2A
:103C900019F403C081E001C080E080FD19C0CE01AD
:103CA0000E942B0881110CC00E94CF23882381F031
:103CB0008A81882369F082E0DF91CF910C9461249E
:103CC000CE010E94231ECE01DF91CF910C94A2075A
:103CD000DF91CF9108950E94F6230E94F9230E945C
:103CE00017240E9456290E942C2880E090E00E9410
:103CF000351A80E090E00C944B1A80912A01909143
:103D00002B010E94B7250C946B1E0E94E6230C9495
:103D10007D1EE92FE295EF704E2F50E0FA013297A9
:103D2000EE30F105B0F4E358FF4F0C947F30803F44
:103D300091F018F4883E68F40EC0843F51F40BC033
:103D4000883E48F0813F29F406C093FB882780F91C
:103D5000089580E0089581E008950E9497230E94CD
:103D6000891E0895CF93DF9300D000D01F92CDB766
:103D7000DEB70F900F900F900F900F90DF91CF91C3
:103D80000895CF93DF9300D000D000D0CDB7DEB739
:103D900026960FB6F894DEBF0FBECDBFDF91CF9150
:103DA00008951F93CF93DF93C091450216E0809151
:103DB0004602C81799F0D0E01C9FF0011D9FF00D3E
:103DC0001124E95BFD4F40815181628173818481BF
:103DD00095810E94C11E2196C770E9CFDF91CF91D6
:103DE0001F91089540917702509178026091790275
:103DF00070917A0280917B0290917C020C94C11E9A
:103E00000F931F93CF93DF9380917C0282958F70E5
:103E100009F05DC080917902882309F458C080912F
:103E20004502109146026091770270917802C0912C
:103E30007A02D0917B0291E06F3F09F090E0292F48
:103E400006E0811709F443C0209721F07F3F21F05D
:103E500030E003C031E001C0322F90E030FD34C0CB
:103E6000089FF001099FF00D1124DF01A95BBD4FF0
:103E700011963C911197371327C03C91361324C0FB
:103E800012963C91129731111FC013964D915C917F
:103E900014974C1B5D0B483C5105B0F480917C029B
:103EA0008F70806180937C02E45BFD4F80818F7016
:103EB0008061808387E792E00E943B1EDF91CF9173
:103EC0001F910F910C94D11E01968770BACFDF918C
:103ED000CF911F910F9108959F92AF92BF92CF9271
:103EE000DF92EF92FF920F931F93CF93DF93CDB7A3
:103EF000DEB761970FB6F894DEBF0FBECDBF8C0161
:103F000085E0F801DE011D9601900D928A95E1F79A
:103F1000F80140815181E2809091770260917802AE
:103F200020917A0230917B022115310531F06F3FEB
:103F300031F481E09F3F19F403C081E001C080E0CB
:103F4000F82FF1709F2E80FD46C1F801A380B48048
:103F500087E7C82E82E0D82EF0907902F501E21BA7
:103F6000F30BFF2009F4DFC080917C02E83CF105EF
:103F700008F09BC0282F207F09F052C0561313C0B1
:103F8000491311C0FE2CE1100EC08F708061809328
:103F90007C020E94F21EC6010E943B1E80917C02A0
:103FA000F801858358C1AB2831F05F3F31F481E0DF
:103FB0004F3F19F403C081E001C080E080FD03C0E1
:103FC00081E08E2502C080E090E0F82FF170FF2E96
:103FD00080FF1CC0809145022091460236E0821786
:103FE00009F417C190E0389FF001399FF00D1124BA
:103FF000E95BFD4F6181561306C06081461303C023
:104000006281E61203C001968770E9CFFE2CEE2094
:1040100009F421C180917C02816080937C025AC0A6
:10402000561306C0491304C0E11002C0F8019FC036
:104030004D875E878D859E850E94AD1E882379F110
:10404000EE2069F120917C02822F82958F7090E0A2
:10405000029774F0809177029091780298878F830D
:104060001986BB86AA862C87CE0107960E943B1E26
:1040700086E0F801A7E7B2E001900D928A95E1F79A
:104080000E94001F0E94F21E0DC0561729F14D8795
:104090005E878D859E850E94AD1E81112CC0C80152
:1040A0000E943B1EFF24F394D6C0282F207F69F77F
:1040B0007A2DB98AA88A6E2D89890E94B21E87E757
:1040C00092E00E943B1E86E0F60111928A95E9F784
:1040D0000E94F21EF12CBFC04913D9CFE110D7CFF7
:1040E000F8018583C8010E943B1E86E0F60111920B
:1040F0008A95E9F7B0C0EE2091F220917C02822FE0
:1041000082958F7090E002970CF4B2CF8091770285
:10411000909178029A8389831B82BD82AC822E8320
:10412000CE010196A3CFE83CF10508F047C0FE2C74
:10413000EE2009F4B4CF561330C049132EC020919D
:104140007C0220FD21C0822F82958F70482F50E085
:1041500041155105C9F0F80125834F30510541F053
:104160008F5F982F9295907F822F8F70892B8583F8
:10417000C8010E943B1E86E0F801A7E7B2E001906B
:104180000D928A95E1F742C086E0F801A7E7B2E018
:1041900001900D928A95E1F75EC04D875E878D850F
:1041A0009E850E94AD1E811163CF80917C0281604B
:1041B00080937C02C8010E943B1E4DC07A2DB98AB3
:1041C000A88A6E2D89890E94B21E86E0F60111929E
:1041D0008A95E9F71BC0EE2009F461CF4D875E8711
:1041E0008D859E850E94AD1EF82E882309F457CF39
:1041F00086E0F801A7E7B2E001900D928A95E1F719
:1042000087E792E00E945B1B0E94001F0E94F21E43
:1042100022C04D875E878D859E850E949723292F1A
:1042200022952F70223028F49F7039F0811105C03B
:104230000BC0243028F49F7049F4805E883020F051
:10424000C8010E943B1E9F2CF92C05C0F8019581E6
:10425000907F99F7F9CF8F2D61960FB6F894DEBF56
:104260000FBECDBFDF91CF911F910F91FF90EF90C7
:10427000DF90CF90BF90AF909F9008951F93CF9302
:10428000DF93CDB7DEB72C970FB6F894DEBF0FBE25
:10429000CDBF4F83588769877A878B879C87CE01EC
:1042A00007960E946C1F8823D1F09F8188852A85FC
:1042B0003B85232B31F08F3F31F481E09F3F19F490
:1042C00003C081E001C080E080FD47C04F81588578
:1042D00069857A858B859C850E94C11E3EC086E0DB
:1042E000FE013796DE01119601900D928A95E1F755
:1042F000FF81E8856A857B856115710531F0EF3FA7
:1043000031F481E0FF3F19F403C081E001C080E097
:1043100080FD23C02091460230E0C90101968770DC
:1043200099274091450250E084179507F1F1F983F0
:10433000EA837D836C8396E0929FD001939FB00DBA
:104340001124A95BBD4FFE01319601900D929A9503
:10435000E1F7809346020E94D11E16E0809145024B
:1043600090914602891771F1189FC0011124895B51
:104370009D4F0E946C1F882329F1E09145021E9FEA
:10438000F0011124E95BFD4F40815181628173810D
:10439000848195810E94C11E8091450290E0019622
:1043A0008770992780934502D9CF0E94851E10926D
:1043B000460210924502E7E7F2E086E0DF011D9237
:1043C0008A95E9F72C960FB6F894DEBF0FBECDBFE5
:1043D000DF91CF911F910895089508950C94ED21D8
:1043E0000C94EE210E94F02160939F027093A00232
:1043F0008093A1029093A2020C946B1E0C94F22164
:104400000F931F9300919F021091A0022091A1028F
:104410003091A202602B712B822B932B1F910F9155
:104420000C94F2210F931F9300919F021091A00210
:104430002091A1023091A202602371238223932351
:104440001F910F910C94F2210F931F9300919F02E3
:104450001091A0022091A1023091A2026027712741
:10446000822793271F910F910C94F2210C94C3067D
:104470000E94362260939B0270939C0280939D025F
:1044800090939E020C946B1E60E070E0CB010C9444
:1044900038220F931F9341E050E060E070E08A0102
:1044A0009B0104C0000F111F221F331F8A95D2F7F2
:1044B000C901B8011F910F910C9438220F931F93DB
:1044C00041E050E060E070E004C0440F551F661FFB
:1044D000771F8A95D2F780919B0290919C02A091C0
:1044E0009D02B0919E028A019B01082B192B2A2B59
:1044F0003B2BC901B8011F910F910C9438220F93E7
:104500001F9341E050E060E070E004C0440F551F8D
:10451000661F771F8A95D2F74095509560957095E4
:1045200080919B0290919C02A0919D02B0919E026D
:104530008A019B01082319232A233B23C901B801BF
:104540001F910F910C9438220F931F9341E050E07C
:1045500060E070E004C0440F551F661F771F8A9506
:10456000D2F780919B0290919C02A0919D02B09104
:104570009E028A019B01082719272A273B27C90188
:10458000B8011F910F910C9438220F931F93009143
:104590009B0210919C0220919D0230919E02602B03
:1045A000712B822B932B1F910F910C9438220F9318
:1045B0001F9300919B0210919C0220919D023091CB
:1045C0009E0260237123822393231F910F910C94E9
:1045D00038220F931F9300919B0210919C0220910F
:1045E0009D0230919E0260277127822793271F9199
:1045F0000F910C9438220895292F220F920F990FB2
:10460000890FE82FE695E695E695877051E001C0A1
:10461000550F8A95EAF785E0E89FF0011124E358E9
:10462000FD4F20E030E070E04081CB01022E02C05F
:10463000969587950A94E2F7817081958427852362
:10464000842781932F5F3F4F2530310569F7089507
:10465000292F220F920F990F890F682F6695669563
:104660006695982F977085E0689FB001112440E00F
:1046700050E080E0FB01E40FF51FE358FD4F20817F
:1046800030E0092E02C0369527950A94E2F7217092
:104690003327042E01C0220F0A94EAF7822B4F5FC2
:1046A0005F4F4530510531F70895BF92CF92DF92A9
:1046B000EF92FF920F931F93CF93DF938C01C090E3
:1046C0009B02D0909C02E0909D02F0909E0280910F
:1046D0009F029091A002A091A102B091A202C82ACB
:1046E000D92AEA2AFB2ACFE1D0E0D701C6010C2E55
:1046F00004C0B695A795979587950A94D2F780FD43
:1047000004C0219790F7B12C07C0BC2EB8018C2FA4
:104710000E9481080197A9F38B2DDF91CF911F9102
:104720000F91FF90EF90DF90CF90BF900895CF93BF
:10473000DF93EC010E945523BE010E948108DF91A6
:10474000CF9108951F93CF93DF93EB019091440293
:10475000992321F0CB010E94972313C0882349F0AD
:10476000CB010E945523182F682FCE010E94FC22F6
:1047700004C0CB010E942823182FBE01812F0E9464
:104780008108DF91CF911F9108958091A3028595B3
:104790008595859508958091A302877008959091DD
:1047A000A302977081E009F480E008958091AF0240
:1047B00008959091AF02892B8093AF020895809560
:1047C0009091AF0289238093AF0208951092AF02B7
:1047D00008959091AE02892B8093AE020895809542
:1047E0009091AE0289238093AE0208951092AE029A
:1047F00008951092AD0208958091A402089508953D
:104800000C94FF230C9400249091A402981721F09B
:104810008093A4020C94022408958091A40288231A
:1048200029F01092A40280E00C9402240895E091F3
:104830002A01F0912B018091AF028083E0912A013F
:10484000F0912B0190818091AE02892B8083E091C1
:104850002A01F0912B0190818091AD02892B8083F8
:104860008091A402882381F0E0912A01F0912B012C
:104870009081892B808380912A0190912B010E9445
:10488000712581110E940D2480912A0190912B01A4
:104890000C941C1A0C94FF2398E0899F900111241A
:1048A000262B2093A3020E945E228091A30285956D
:1048B000859585950C944A241092A30280E00C946F
:1048C0004A242091A302809582238093A302982FEB
:1048D000977079F430E0482F082E000C550B241700
:1048E000350739F08595859585950E947F220C9432
:1048F0005C240895CF92DF92EF92FF926C01EE2438
:10490000FF24C114D104E104F10421F0C701B60170
:1049100020E101C020E0C72ED82EE92EFF24C114CB
:10492000D104E104F10419F0285FC701B6016B015D
:104930007C0154E0F694E794D794C7945A95D1F744
:10494000C114D104E104F10419F02C5FC701B601D0
:104950006B017C0142E0F694E794D794C7944A95A2
:10496000D1F7C114D104E104F10419F02E5FC7019D
:10497000B601DC01CB01B695A79597958795892B54
:104980008A2B8B2B09F02F5F822FFF90EF90DF9007
:10499000CF90089580E090E00E94B63021E08C3EF8
:1049A0009E4F09F020E0822F089582E090E00C9461
:1049B000A83083E090E00C94A830CF9384E090E09E
:1049C0000E94A830C82F81E290E00E94A8302C2FCE
:1049D00030E0A901582BCA01CF910895CF93C92F78
:1049E000682F84E090E00E94BC306C2F81E290E060
:1049F000CF910C94BC30AB01BC018FE090E00C94E3
:104A0000CE30AB01BC0183E190E00C94CE3060E08D
:104A100070E0CB010C94012560E070E0CB010E94B6
:104A2000FB240C9407256CEE7EEF80E090E00E9462
:104A3000DA3060E082E090E00E94BC3060E083E029
:104A400090E00E94BC3010929F021092A00210923F
:104A5000A1021092A20260E084E090E00E94BC30CB
:104A600060E081E290E00E94BC3060E085E090E090
:104A70000E94BC3060E086E090E00E94BC306FEFA6
:104A800087E090E00E94BC3040E050E0BA0188E04E
:104A900090E00E94CE3060E08DE090E00E94BC305B
:104AA00040E050E0BA0188E190E00E94CE3060E042
:104AB00087E190E00E94BC3040E050E0BA018CE118
:104AC00090E00E94CE3060E080E290E00E94BC3036
:104AD0000C940C250C941325682F8EE090E00C9418
:104AE000BC30FC01329697E080E0915029F0219192
:104AF0002223D9F38F5FF9CF0895662349F0FC0193
:104B0000329608962191621729F0E817F907D1F734
:104B100080E0089581E008959C01FC0132969FEFAA
:104B200080E04191461789F09F3F19F4411101C07F
:104B3000982F8F5F8630A9F79F3F39F0F901E90F71
:104B4000F11D97FDFA956283089508959C012A5FEF
:104B50003F4FFC014281461301C012820196821729
:104B60009307B9F708950C948C250C94A62502960A
:104B700026E0FC0111922A95E9F7089508950C9416
:104B8000BE250C94BE25CF930E94C1250E94FD0A2C
:104B90000E94BF25C0E08C2F0E945A0A811104C0D8
:104BA000CF5FC830C1F701C081E0CF9108950C9468
:104BB000BE250C94D7250E94D92580916A058430A2
:104BC00049F11092B10220E488E190E00FB6F89428
:104BD000A895809360000FBE2093600080E00E9443
:104BE00012080E94D92583B7817F846083BF83B771
:104BF000816083BF7894889583B78E7F83BF0FB61B
:104C0000F894A8958091600088618093600010926C
:104C100060000FBE08950C94BE250E94851E0E9460
:104C2000031A0E9412080C940B261F920F920FB6C3
:104C30000F9211248F939F93AF93BF938091B102F2
:104C4000811113C08091600590916105A09162056A
:104C5000B09163054196A11DB11D809360059093AD
:104C60006105A0936205B0936305BF91AF919F91D9
:104C70008F910F900FBE0F901F90189582E084BD0A
:104C800093E095BD9AEF97BD80936E0008952FB77E
:104C9000F8948091600590916105A0916205B091B2
:104CA00063052FBF08952FB7F89460916005709148
:104CB000610580916205909163052FBF08959C0165
:104CC0004FB7F8948091600590916105A0916205BD
:104CD000B09163054FBF821B930B089578941F9288
:104CE0000F920FB60F9211248F939F93AF93BF93A0
:104CF0008091600590916105A0916205B091630576
:104D00000196A11DB11D8093600590936105A0934C
:104D10006205B0936305BF91AF919F918F910F9002
:104D20000FBE0F901F90189587E797E790930108A3
:104D3000809300089AE088E10FB6F894A8958093D4
:104D400060000FBE90936000FFCF0E94CA248111C3
:104D500002C00E946A250E94D5248093B0020E945E
:104D6000DD2490936505809364050E94D924682F03
:104D700070E080E090E00C94FE218091B90280FF09
:104D80000BC06091310185E0689FB00111247595D9
:104D90006795759567952BC081FF09C060913101BA
:104DA00085E0689FB00111247595679520C082FF4A
:104DB00007C06091310185E0689FB001112417C0E0
:104DC0009091B8029923D1F060913001961788F73D
:104DD0002091310185E0289F90011124929FA0012C
:104DE000939F500D112470E0CA010E946B3060380F
:104DF000710540F46115710519F406C065E070E0B5
:104E0000862F08958FE7089581E008958091B90273
:104E100080FF08C060912D0170E0759567957595CC
:104E2000679521C081FF06C060912D0170E07595E6
:104E3000679519C082FF04C060912D0170E010C019
:104E40009091B802992399F060912C019617A0F7E0
:104E500080912D01899FC001112470E00E946B3068
:104E60006038710540F46115710519F406C061E000
:104E700070E0862F08958FE7089581E00895803FC0
:104E800021F40E94BD26819504C0813F29F40E942F
:104E9000BD268093BD020895823F21F40E94BD2665
:104EA000819504C0833F29F40E94BD268093BC02F3
:104EB0000895893F19F40E94062705C08A3F31F4FE
:104EC0000E94062781958093BE0208958B3F21F4AE
:104ED0000E940627819504C08C3F29F40E94062772
:104EE0008093BF020895843F21F48091BB028160CA
:104EF00017C0853F21F48091BB02826011C0863FBC
:104F000021F48091BB0284600BC0873F21F4809123
:104F1000BB02886005C0883F31F48091BB0280618C
:104F20008093BB0208958D3F21F48091B902816086
:104F30000BC08E3F21F48091B902826005C08F3F83
:104F400029F48091B90284608093B9020895803F6A
:104F500039F48091BD0287FF6CC01092BD0269C018
:104F6000813F29F48091BD021816BCF362C0909174
:104F7000BC02823F29F497FF5CC01092BC0259C06A
:104F8000833F19F41916CCF354C0893F41F4809142
:104F9000BE0218160CF04DC01092BE024AC08A3FE5
:104FA00029F48091BE0287FF44C0F6CF8B3F39F4CD
:104FB0008091BF0287FF3DC01092BF023AC08C3F74
:104FC00029F48091BF021816BCF333C0843F21F44A
:104FD0008091BB028E7F17C0853F21F48091BB0278
:104FE0008D7F11C0863F21F48091BB028B7F0BC067
:104FF000873F21F48091BB02877F05C0883F31F451
:105000008091BB028F7E8093BB0213C08D3F21F441
:105010008091B9028E7F0BC08E3F21F48091B9023E
:105020008D7F05C08F3F29F48091B9028B7F8093DB
:10503000B9028091BC0281110EC08091BD02811124
:105040000AC08091BE02811106C08091BF02811109
:1050500002C01092B80208958AEB92E00E94271ACB
:105060000E9447269093B7028093B6020895CF938B
:10507000DF9300D000D000D0CDB7DEB786E0EAEBFA
:10508000F2E0DE01119601900D928A95E1F7809190
:10509000BC02811105C08091BD02882309F47AC049
:1050A0008091B4029091B5020E945F26AC0190916C
:1050B000B802992339F02091320130E024173507E6
:1050C00058F068C0209133018AE0289F9001112494
:1050D0002417350718F05EC09F3F19F09F5F90932B
:1050E000B8021092BE021092BF028091BC02181644
:1050F00024F40E94BD268093BC028091BC0287FFED
:1051000005C00E94BD2681958093BC028091BD029E
:10511000181624F40E94BD268093BD028091BD0222
:1051200087FF05C00E94BD2681958093BD02309106
:10513000BC023323E1F02091BD022223C1F045EBF4
:105140003403C0011124992319F09093BC0203C0C9
:1051500081E08093BC0235EB2303C0011124992325
:1051600019F09093BD0203C081E08093BD020E94BC
:105170002C288091B6029091B7029093B50280934B
:10518000B40286E0FE013196AAEBB2E001900D92E6
:105190008A95E1F78091BE02811105C08091BF021E
:1051A000882309F47AC08091B2029091B3020E94E0
:1051B0005F26AC019091B802992339F020912E011D
:1051C00030E02417350758F068C020912F018AE09D
:1051D000289F900111242417350718F05EC09F3FC7
:1051E00019F09F5F9093B8021092BC021092BD021A
:1051F0008091BE02181624F40E9406278093BE02F6
:105200008091BE0287FF05C00E940627819580938A
:10521000BE028091BF02181624F40E9406278093D4
:10522000BF028091BF0287FF05C00E9406278195BB
:105230008093BF023091BE023323E1F02091BF0280
:105240002223C1F045EB3403C0011124992319F046
:105250009093BE0203C081E08093BE0235EB23032E
:10526000C0011124992319F09093BF0203C081E07B
:105270008093BF020E942C288091B6029091B702C1
:105280009093B3028093B20286E0FE013196AAEBBE
:10529000B2E001900D928A95E1F726960FB6F89448
:1052A000DEBF0FBECDBFDF91CF910895EAEBF2E0F4
:1052B00086E0DF011D928A95E9F71092B8021092FC
:1052C000B90208958091C8020895CF93DF9300D06A
:1052D0001F92CDB7DEB790916A05943019F5898396
:1052E0007B836A8382E08093E9008FEF9091E800EE
:1052F000815095FD06C095ED9A95F1F7000081115A
:10530000F5CF8091E80085FF0DC040E050E063E0FC
:1053100070E0CE0101960E94AD2B8091E8008E775F
:105320008093E8000F900F900F90DF91CF91089538
:10533000CF93DF93EC010E94902B823011F08430E8
:1053400031F4BE0184E0DF91CF910C946529DF91A7
:10535000CF910895BC0183E00C946529CF93DF932E
:10536000EC010E94902B823011F08430F9F482E03D
:105370008093E9008FEF9091E800815095FD06C081
:1053800095ED9A95F1F700008111F5CF8091E80035
:1053900085FF0CC040E050E066E070E0CE010E9466
:1053A000AD2B8091E8008E778093E800DF91CF915C
:1053B0000895CF93DF93EC010E94902B823011F07F
:1053C000843039F581E08093E9008FEF9091E80017
:1053D000815095FD06C095ED9A95F1F70000811179
:1053E000F5CF8091E80085FF14C040E050E068E010
:1053F00070E0CE010E94AD2B8091E8008E77809303
:10540000E80088E0FE01A0ECB2E001900D928A95E0
:10541000E1F7DF91CF91089580916905811109C06D
:105420000E943E2D0E949B2D8091E200846080931B
:10543000E2000895109269050895089508950C9466
:105440000D2642E061EC81E00E94B72C42E261EC63
:1054500082E00C94B72C80916C05833009F460C015
:1054600030F4813071F0823009F499C008958A30A7
:1054700009F485C08B3009F46BC0893009F0A7C0EE
:1054800020C080916B05813A09F0A1C08091E800AD
:10549000877F8093E80080916F0590917005892B3C
:1054A00021F468E080EC92E003C060E080E090E0EE
:1054B00070E00E94F82B8091E8008B778093E800E1
:1054C000089580916B05813209F081C080916F054C
:1054D00090917005029708F07AC08091E800877F6C
:1054E0008093E8008091E80082FD05C080916A0504
:1054F0008111F8CF6CC02091F3008091F20090E010
:10550000922B029729F48091F1008B7F813021F456
:105510008091F1008093C8028091E8008B7753C09E
:1055200080916B05813A09F052C080916F0590918E
:105530007005892B09F04BC08091E800877F80932C
:10554000E8008091E80080FFFCCF80913E0136C0EA
:1055500080916B058132D9F580916F05909170052E
:10556000892BA9F58091E800877F8093E8000E944D
:10557000EC2C80916D0580933E010C94851E8091EA
:105580006B05813221F58091E800877F8093E800E8
:105590000E94EC2C80916E058093C9020895809141
:1055A0006B05813AA1F48091E800877F8093E80041
:1055B0008091E80080FFFCCF8091C9028093F100C8
:1055C0008091E8008E778093E8000C94EC2C08958D
:1055D00084B7877F84BF0FB6F894A8958091600048
:1055E000886180936000109260000FBE90E080E8B8
:1055F0000FB6F89480936100909361000FBE0E94F3
:10560000711A0E943E2D0E949B2D8091E2008460C1
:105610008093E20078940E9430300E94791A84E3EB
:1056200091E00E94FE1980916A05853069F40E941C
:10563000DB25809168058823B1F30E94C325882368
:1056400091F30E94972BEFCF0E94881AECCF0C9415
:10565000292B292F332723303105C9F060F421305D
:10566000310581F02230310509F04AC08BE390E02A
:1056700026EE3BE049C02132310511F122323105DD
:1056800079F13EC082E190E021E23CE03DC0992703
:105690008130910561F040F08230910559F0039717
:1056A00079F5ECEBFBE008C0E2EEFBE005C0EEECC8
:1056B000FBE002C0E2ECFBE0849190E09F0124C09B
:1056C0006115710541F061307105D1F489E090E018
:1056D00021E13CE019C089E090E028EF3BE014C0F4
:1056E0006115710541F06130710551F481E890E078
:1056F00023E33CE009C080E490E024EB3CE004C0FC
:1057000080E090E020E030E0FA01318320830895CA
:1057100080916A05843011F081E0089582E0089557
:105720008091CA02811102C00C94882B089580E1F7
:1057300089BD82E189BD09B400FEFDCF8091D8000A
:105740008F7D8093D8008091E00082608093E0009C
:105750008091E00081FDFCCF0895CF92DF92EF921F
:10576000FF920F931F93CF93DF93EC018B017A018C
:105770000E940B2D811133C0E114F10439F0F701BF
:1057800080819181081B190BC80FD91FC12CD12C06
:105790000115110519F18091E80085FD16C0809171
:1057A000E8008E778093E800E114F10449F0F701F6
:1057B00080819181C80ED91ED182C08285E00FC040
:1057C0000E940B2D882321F30AC089918093F10058
:1057D00001501109FFEFCF1ADF0ADACF80E0DF9125
:1057E000CF911F910F91FF90EF90DF90CF90089590
:1057F00020917105309172052617370748F0611521
:10580000710539F42091E8002E772093E80001C05B
:10581000B901FC0120E06115710579F180916A05FB
:105820008823F1F18530F1F18091E80083FD3CC0DF
:105830008091E80082FD2EC08091E80080FFEBCFD0
:105840002091F3008091F20090E0922B6115710598
:1058500051F08830910538F421912093F100615086
:1058600071090196F3CF21E0089709F020E08091BB
:10587000E8008E778093E800CECF2111CFCF0AC009
:1058800080916A05882361F0853061F08091E8009D
:1058900083FD0AC08091E80082FFF2CF80E0089586
:1058A00082E0089583E0089581E0089520917105D4
:1058B000309172052617370748F06115710539F4E4
:1058C0002091E8002E772093E80001C0B901FC0187
:1058D00020E06115710591F180916A05882309F432
:1058E00040C0853009F43FC08091E80083FD3DC091
:1058F0008091E80082FD2FC08091E80080FFE9CF11
:105900002091F3008091F20090E0922B61157105D7
:1059100059F08830910540F424912093F10031969C
:10592000615071090196F2CF21E0089709F020E05B
:105930008091E8008E778093E800CBCF2111CCCF07
:105940000AC080916A05882361F0853061F08091FA
:10595000E80083FD0AC08091E80082FFF2CF80E07A
:10596000089582E0089583E0089581E00895982FD6
:10597000973068F59093E900981739F07091EC0032
:105980002091ED005091F00003C0242F762F50E0BD
:1059900021FD02C09F5FECCF3091EB003E7F309342
:1059A000EB003091ED003D7F3093ED003091EB0046
:1059B00031603093EB007093EC002093ED00509336
:1059C000F0002091EE0027FDE5CF80E008958F7074
:1059D0008093E90081E0089580916B0587FF11C0F5
:1059E0008091E80082FD05C080916A058111F8CFA1
:1059F00011C08091E8008B770BC080916A058823E5
:105A000049F08091E80080FFF8CF8091E8008E7720
:105A10008093E80008952091E4003091E50095E638
:105A20004091EC00842F817040FF23C08091E800FA
:105A300080FD1DC080916A05882399F0853099F01A
:105A40008091EB0085FD11C04091E4005091E5008C
:105A50002417350729F3915011F09A01E1CF84E022
:105A6000089582E0089583E0089581E0089580E03C
:105A700008954091E80042FFDDCF08950E94AC2DCB
:105A80000E94B42DE0EEF0E0808181608083E8ED3B
:105A9000F0E080818F77808319BCA7EDB0E08C9116
:105AA0008E7F8C9380818F7E80831092690508950C
:105AB0000F931F93CF93DF930E94AC2D0E94B42DC0
:105AC000C8EDD0E088818F7788838881806888835B
:105AD00088818F7D888319BC10926A0510926605B3
