:100000000C9459030C94A0030C94A0030C94891332
:100010000C94A0030C94A0030C94A0030C94A003D4
:100020000C94A0030C94A0030C947C250C944E26F5
:100030000C94B3200C94A0030C94A0030C94A00384
:100040000C94A0030C94A0030C94A0030C94A003A4
:100050000C94A0030C9400210C94A0030C94A00316
:100060000C94A0030C94A0030C94A0030C94A00384
:100070000C94A0030C94A0030C94A0030C94A00374
:100080000C94A0030C94A0030C94A0030C94A00364
:100090000C94A0030C94A0030C94A0030C94A00354
:1000A0000C94A0030C94A0030C94A0034A0F4D0FD2
:1000B000520F590F5E0F630F680F6D0F720F770F9E
:1000C0007C0F810F850F880F8F0F8F0F8F0F8F0F72
:1000D0008B0F8F0FAB16AB16DD16DD162A175118D6
:1000E000511851184817E117F217F217FB18FB18AF
:1000F0000D190D1904190D190D190D19FB18FB18FF
:1001000009190D190D190919BB26E226DA27E2266D
:10011000DA272E275127DA27A827B72729681400BE
:100120001A000800150017002B64040016000700D1
:1001300009000A00E0001D001B0006001900050070
:100140000000000000000A5D095D13501C0018004B
:100150000C00120013002A000B000D000E000F000F
:1001600033002402110010003600370038002D62E1
:100170001150085D0B5D00000000000010500100F0
:100180000100010001000100010001000100010067
:100190000100010001000100010001000100010057
:1001A00000000000000001000100010014001A001E
:1001B0000800150017001C000400160007000900C5
:1001C0000A000B001D001B00060019000500280096
:1001D0002900E000E10000000000000010500000D5
:1001E00052000000000000002B64500051004F003E
:1001F00000000000000000000000000000000000FF
:100200000000000000000451095D000024002500EA
:1002100026002D0038002A0021002200230057006C
:1002200055002B001E001F0020003700360028005C
:100230001050270004510000000000001050010081
:10024000010001000100010001000100C25CC55C69
:10025000C75CC95C01000100C35CC65CC85CCA5CC9
:10026000000000000000010001001050010001002A
:100270000100010001000100010001000100010076
:100280000100010001000100010001000100010066
:1002900001000100010000000000000035681E00A0
:1002A0001F002000210022002B0001003B00010064
:1002B0003D043E00010001000100010001000100B9
:1002C00000000000000001000100010023002400E4
:1002D00025002600270001005000510052004F0069
:1002E00049004C00010065004A004D004600010035
:1002F000010001000100000000000000E3001E02F8
:100300002F002002210222022B0001000100010027
:1003100001000100010001000100010001000100D5
:100320000000000000000100010001002E00230277
:100330003402250226022F02870233022D023000EA
:1003400032008900300232023602370238020100E0
:1003500001000100010000000000000001003A005F
:100360003B003C003D003E000100A900AA00A8009F
:10037000C25C010001000100010001000100010058
:1003800000000000000001000100A8003F0009007B
:10039000410042004300440001000100010001004F
:1003A0000100450012501150010001000100A5623A
:1003B000010001000100000000000000783C1E1E4A
:1003C000140A052223252628292A2C2D2F303233E2
:1003D0003536383A3B3D3E4042434547494A4C4E0C
:1003E0005051535557595A5C5E6062646668696B38
:1003F0006D6F71737577797B7D7F81838587898A3E
:100400008C8E90929496989A9C9E9FA1A3A5A7A843
:10041000AAACAEAFB1B3B4B6B8B9BBBCBEBFC1C273
:10042000C3C5C6C7C9CACBCCCDCED0D1D2D2D3D406
:10043000D5D6D7D7D8D9D9DADADBDBDBDCDCDCDC24
:10044000DCDDDDDDDDDCDCDCDCDCDBDBDBDADAD9F2
:10045000D9D8D7D7D6D5D4D3D2D2D1D0CECDCCCB74
:10046000CAC9C7C6C5C3C2C1BFBEBCBBB9B8B6B492
:10047000B3B1AFAEACAAA8A7A5A3A19F9E9C9A9822
:10048000969492908E8C8A89878583817F7D7B79F3
:10049000777573716F6D6B6968666462605E5C5AD4
:1004A0005957555351504E4C4A4947454342403E97
:1004B0003D3B3A3836353332302F2D2C2A29282629
:1004C000252322FFAA7F55400001010101010101FE
:1004D00001010202020202020202020303030303F9
:1004E00003030304040404040404050505050506C8
:1004F0000606060607070707070808080809090986
:10050000090A0A0A0B0B0B0C0C0C0D0D0D0E0E0E2E
:100510000F0F0F10101111111212131314141515BF
:1005200016161717181819191A1A1B1B1C1D1D1E31
:100530001E1F202021222223242425262627282985
:10054000292A2B2C2D2D2E2F3031323233343536B3
:100550003738393A3B3C3D3E3F40414243444546B3
:100560004748494A4C4D4E4F50515354555658598F
:100570005A5B5D5E5F616264656668696B6C6D6F36
:100580007072737577787A7B7D7E808283858788A9
:100590008A8C8E8F91939596989A9C9EA0A2A3A5E3
:1005A000A7A9ABADAFB1B3B5B7BABCBEC0C2C4C6E4
:1005B000C9CBCDCFD1D4D6D8DBDDDFE2E4E7E9EBA0
:1005C000EEF0F3F5F8FAFDFF0403300000000A0333
:1005D0007200650034003000000012036B007500EB
:1005E0007300680069006D006100380000000403BA
:1005F000090409023B00020100A0FA0904000001FD
:1006000003010100092111010001224000070581B9
:100610000308000A09040100010300000009211178
:100620000100012232000705820320000A12011096
:1006300001000000083839303401000102030105CF
:10064000010980A101850319012AB700150126B708
:1006500000950175108100C0050C0901A1018504F8
:1006600019012AA002150126A0029501751081002A
:10067000C005010906A101050719E029E7150025B4
:100680000195087501810295017508810105071919
:100690000029FF150026FF00950675088100050852
:1006A00019012905950575019102950175039101BF
:1006B000C00011241FBECFEFDAE0DEBFCDBF04B60D
:1006C00003FE27C080912C0390912D03A0912E034F
:1006D000B0912F038730904BA740B04BD1F41092CC
:1006E0002C0310922D0310922E0310922F0314BE90
:1006F00084B7877F84BF0FB6F894A8958091600077
:10070000886180936000109260000FBEE0E0F8E323
:10071000099511E0A0E0B1E0EEEFF0E502C0059030
:100720000D92AA3CB107D9F723E0AAECB1E001C0D1
:100730001D92AC32B207E1F70E94AB220C947D28E7
:100740000C9400000F9306E025E044E00E940C06A4
:100750000F910895CF93DF93E0912901F0912A0141
:10076000208121FF0CC0EC0181EE0E942416CE01F5
:100770000E94B40581EE0E94D61580E001C081E0A0
:10078000DF91CF9108950F931F93CF93DF93EC01E7
:10079000FB011281112309F4F4C02091CE013091A4
:1007A000CF01838194812C173D0759F42091D0010A
:1007B0003091D101AC01421B530B21E0483C510563
:1007C00008F020E0D093CF01C093CE019093D101E7
:1007D0008093D001E5E0F1E084E090E040E33291E5
:1007E000393320F040830197D0F705C0FC01E05079
:1007F000FF4F3F5F3083C632D10591F198F4C33289
:10080000D10541F130F4CF31D105D9F58FE290E037
:1008100032C0C432D10509F1C532D10591F584E366
:1008200092E029C0C333D10521F148F4C732D10584
:10083000D1F0CD32D10529F587E892E01CC0C43251
:1008400082E0D80799F0CF32E2E0DE07D1F48EE201
:1008500092E011C08EE290E00EC083E292E00BC005
:1008600085E292E008C086E292E005C08FE192E066
:1008700002C084E390E0DF91CF911F910F910C941F
:10088000AA03C830FDE5DF0709F481C060F4C43075
:1008900081E5D807B1F1C530E1E5DE0709F46EC0A6
:1008A000AB9761F0A5C0C930FDE5DF0709F478C05A
:1008B000CC303DE5D30708F09BC023C08091CB012D
:1008C000882329F08BE291E00E94B40570C0C091AA
:1008D000CC01CC2309F48CC01091CD01111188C03A
:1008E00082EE0E94D61581E08093CD011C2F80C03E
:1008F00089303DE5930708F04EC0C43081E5D80744
:10090000D1F51093CC0184E0112341F00E94C21C68
:1009100091E089278093CA0184E047C00E94031DAB
:100920008091CD01882329F082EE0E942416109236
:10093000CD018091CE019091CF01C817D907B9F5AB
:10094000E0912901F0912A01808180FF08C0809107
:10095000CA01882361F184E00E94E21C49C0CA30C8
:100960008DE5D80731F0CB30DD4509F041C08AE88C
:1009700030C08BE82EC0C530D14591F51093CB0126
:100980002FC08830FDE59F0709F0B2CF20E010931B
:10099000CB0108E20EC08930FDE59F07E9F420E0B5
:1009A0001093CB010CE205C085E00E94E21C10E030
:1009B0001FC0111117C085E00E94031D802F0E94E7
:1009C00024168091CE019091CF01C817D90779F7ED
:1009D000802F0E9450160CC08C309D4508F491CF9A
:1009E00011E006C0222301F3802F0E94D615DFCF2D
:1009F000812FDF91CF911F910F910895CF93C62F33
:100A00001092CF011092CE0181112DC0609166022B
:100A10007091670280916802909169020E94FE1EA7
:100A2000843039F08630C9F0811143C0CC2389F17C
:100A30002EC08091CD01811106C082EE0E94D61594
:100A400081E08093CD01C11103C08BE292E002C02E
:100A50008BE290E0CF910C94B405C11102C08AEAF8
:100A600025C089EA23C0813021F56091660270912A
:100A7000670280916802909169020E94FE1E813097
:100A800051F018F0853069F014C0C11102C08AEF2E
:100A90000DC089EF0BC0C11102C08DE407C08CE40A
:100AA00005C0C11102C08EE401C08BE4CF910C944B
:100AB0005016CF9108959C013A9521153F4138F584
:100AC000DC01AA27B270AC01442754709C01222794
:100AD000387094FF0FC090FF02C080E101C080E039
:100AE000AB2B09F08062452B09F08064232B69F061
:100AF00080680BC0892F8170AB2B09F08260452B79
:100B000009F08460232B09F08860FB0109940895A3
:100B1000CF93DF93EC01805E9109089710F0209746
:100B200019F463E676E102C065EC78E1CE010E943B
:100B30005B058C2FDF91CF910C94D615CF93DF936B
:100B4000EC010E942416CE01805E9109089710F0F6
:100B5000209719F46AE676E102C06CEC78E1CE01E8
:100B6000DF91CF910C945B05CF93DF93EC010E9452
:100B70008805CE01DF91CF910C949E0581E0089508
:100B80000C94C30308950C94C2051F93CF93DF9375
:100B900000D000D01F92CDB7DEB749835A836B8354
:100BA00030910F0289819A81311114C0662359F066
:100BB000222349F00E94D91D182F682F89819A811C
:100BC0000E94801D03C00E94AC1D182F69817A818C
:100BD000812F04C00E94D91D69817A810F900F90E6
:100BE0000F900F900F90DF91CF911F910C94CD0635
:100BF000FC01262F408151816281738184810C9494
:100C0000C505CF93DF93EC0160E00E94F805BE01BB
:100C1000DF91CF910C94C3058F929F92AF92BF92B8
:100C2000CF92DF92EF92FF920F931F936B017C01A3
:100C300081E090E0A0E0B0E04C015D0104C0880CD0
:100C4000991CAA1CBB1C4A95D2F7AC01BD0104C07B
:100C5000440F551F661F771F2A95D2F74829592937
:100C60006A297B2904C0880F991FAA1FBB1F0A95F8
:100C7000D2F78A019B010C211D212E213F21401713
:100C800051076207730739F4BC01CD016C297D2936
:100C90008E299F290AC080959095A095B095BC019A
:100CA000CD016C217D218E219F211F910F91FF90FD
:100CB000EF90DF90CF90BF90AF909F908F9008956E
:100CC0000E944E1F811102C00E94EE1F0C94BA08B0
:100CD0000C94B60808950C946A0681E008950C946B
:100CE0006D06CF93C82F0E946B068C2F0E946F0653
:100CF000CF91089508950E94E9180E947A062FEF77
:100D000084E39CE0215080409040E1F700C0000067
:100D10000C9426210F931F93CF93DF93EC0161E096
:100D20000E94F8058C01BE010E94C005882379F15C
:100D3000BE01C8010E943A11882349F1BE01C801D1
:100D40000E947B11882319F1BE01C8010E94A612DE
:100D50008823E9F0BE01C8010E94330F8823B9F04F
:100D60008A81882369F001158CE5180731F00E3D62
:100D70001C4531F40E94EE1F0AC00E947B0607C08A
:100D8000CE01DF91CF911F910F910C94BE0580E0B1
:100D9000DF91CF911F910F91089520E3829FC001B1
:100DA0001124FC0126E0729FE00DF11D1124E60FD5
:100DB000F11DEE0FFF1FE45EFE4F859194910895A3
:100DC000CF93DF930E94CD060E94D107EC018115DD
:100DD0009245F0F5C11581E5D80708F0A9C0C83ED5
:100DE000D10528F5C03ED10508F0D7C0C83AD105D5
:100DF00078F4C53AD10508F074C0C130D10509F4C2
:100E0000CCC008F4C8C0C430D10508F0C6C0C3C007
:100E1000CF3BD10508F0BFC0C85AD0E0CC0FDD1FD2
:100E2000CA5CDE4F0990D881C02DD464B6C0C1150C
:100E300090E5D90708F060C0C11520E4D20708F09A
:100E400058C0CE019A9581159F4108F4A6C0A3C051
:100E5000C11586E5D80718F5C11595E5D90708F03D
:100E600080C0C11524E5D20708F076C09E0123702A
:100E700033278C2F86958695C115D34508F05DC024
:100E8000C1E0D0E002C0CC0FDD1F2A95E2F720E2DE
:100E9000829FC0011124C82BD92BDC687EC0C115EC
:100EA0002AE5D20778F4C11589E5D80708F063C0B0
:100EB000C11598E5D90708F46EC0DC2FCC27C06FA8
:100EC000D06A6BC0CE0190568115904208F063C085
:100ED0008D2F8F710E946508DD27D0628F71D82B0E
:100EE0005CC0C55AD0E0CC59DE4FC881D0E0D06498
:100EF00054C0DF70D06A51C0CE0174E096958795DA
:100F00007A95E1F783709C2F937021E030E002C066
:100F1000220F331F9A95E2F73C68382BCF70C695A5
:100F2000C69580E2C89FE0011124C22BD32B35C0A7
:100F3000DC2FCC27C16FD06A30C0C1E0D0E002C046
:100F4000CC0FDD1F2A95E2F720E2829FC001112419
:100F5000C82BD92BDA6821C0DC2FCC27C46FD06A0C
:100F60001CC08C2F0E9465088F71C82FD0E0DC2F29
:100F7000CC27D06212C08C2F8F700E94650894E03D
:100F8000D695C7959A95E1F7CF70D0E0DC2FCC27A6
:100F9000D069C82B02C0C0E0D0E0CE01DF91CF9174
:100FA00008958238910569F1B0F48133910509F40F
:100FB0006DC048F48932910509F463C08A32910505
:100FC00009F469C008958533910509F455C0893342
:100FD0009105B9F00895833E910569F138F4803E9A
:100FE0009105B1F0823E910509F10895863E910583
:100FF000A9F1873E9105B9F1843E910509F064C0DD
:1010000023C020911D0320FD4FC021FD4DC0089538
:1010100080911D0380FD44C080911E0380FF44C069
:1010200080911D0384FD42C083EE4DC080911D035D
:1010300082FF38C0F5CF80911D0382FD33C08091BF
:101040001E0380FD31C0ECCF80911E0381FF32C0B2
:1010500080911D0384FD2AC087EE35C080911D0359
:1010600083FF26C0F5CF80911D0383FD21C08091B1
:101070001E0381FD1FC0ECCF80911D0385FD1CC0A8
:101080001DC080911D0385FD19C016C080911D03F0
:1010900086FD16C017C080911D0386FD13C010C0C9
:1010A00089E311C082EE0FC080EE0DC080E00BC05E
:1010B00086EE09C084EE07C089E205C085E303C05F
:1010C0008AE201C081E390E0089590911D0392FFB0
:1010D0000DC0282F2871283019F4877F846006C03E
:1010E000282F2471243011F48B7F886093FF0DC06A
:1010F000282F2871283119F4877E846106C0282F93
:101100002471243111F48B7E886120911E0320FF0D
:101110000DC0382F3871383019F4877F816006C0D0
:10112000382F3171313011F48E7F886021FF0DC06E
:10113000282F2871283119F4877E816106C0282F55
:101140002171213111F48E7E886194FD877E08958E
:10115000E82FF0E0EE56FD4F80810895089580EA73
:101160008A95F1F7089508950C94B3080C94B40887
:101170000C94B3080C94B8080895CF93DF930E94A1
:101180002D0A8091060180910601811102C094E030
:1011900001C090E090939B0284E0891B80939A02A7
:1011A000ADE6B1E041E751E061E070E08D91E82FFC
:1011B000E295EF70F0E021A18F70EB0102C0CC0F3F
:1011C000DD1F8A95E2F7CE019C2F9095922391A383
:1011D00092A1892B82A34A175B0741F7A7E6B1E0EA
:1011E0004DE651E061E070E08D91E82FE295EF70FF
:1011F000F0E021A18F70EB0102C0CC0FDD1F8A95BA
:10120000E2F7CE019C2F9095922391A392A1892B76
:1012100082A34A175B0741F7EAE8F2E0A2E9B2E0ED
:1012200082E992E011921D928E179F07D9F784E010
:101230000E94D4090E946006DF91CF910C94410A6C
:101240000E940B0A8823F1F080919A0290E08E565A
:101250009D4F0E94710A811111C08091D2018F5F50
:101260008093D201863060F0E0919A02F0E0EE5671
:10127000FD4F108211821282138202C01092D2019D
:101280000C94680680919B0290E08E569D4F0E94C0
:10129000940A0C94BC086F927F928F929F92AF92A7
:1012A000BF92CF92DF92EF92FF920F931F93CF9353
:1012B000DF938DE6882E81E0982E0AE812E09EE802
:1012C000A92E92E0B92E712CCC24C394D12CF40118
:1012D00081914F01C82FC295CF70D0E099A18F7036
:1012E000760101C0EE0C8A95EAF7892F8E2989A331
:1012F0008AA16E2C609486218AA30E94AF08E7E63B
:10130000F1E040E050E020E03191A32FA295AF70D2
:10131000B0E090968C9190E03F7002C095958795D3
:101320003A95E2F780FD07C08C2D042E01C0880F8E
:101330000A94EAF701C080E0282B4F5F5F4F4630E8
:10134000510511F789A1682269A28AA1E82AEAA2B7
:10135000F8018081281719F0208381E001C080E026
:10136000782A0F5F1F4FA016B10609F0B0CF609129
:101370009B0270E06E567D4F272D44E08AE892E094
:101380000E94D5090E942009872DDF91CF911F91DE
:101390000F91FF90EF90DF90CF90BF90AF909F9014
:1013A0008F907F906F9008950895FF920F931F93F1
:1013B000CF93DF938C01F62ED72FC42F222349F031
:1013C00081E08093D5010E94E5209093D401809321
:1013D000D3018091D5018823C1F08091D3019091F0
:1013E000D4010E94F120069780F0EF2DFD2FD80147
:1013F0004C2F50E0CD01801B910B841795071CF4F6
:101400008D918193F7CF1092D501DF91CF911F91EC
:101410000F91FF9008958091D601811112C08091A3
:10142000D80080618093D8008AE18A95F1F700C0E6
:101430008091D90080FD02C082E001C081E08093EC
:10144000D60181E09091D601913009F080E00895B5
:101450000E940B0A91E0892708950E94280A809330
:1014600006018091060164E1882311F080E001C04B
:1014700084E10E94390B0E940B0A81110C94480AE6
:1014800008950E940B0A811102C00C944E0A08951F
:1014900062E070E087E091E00C94371362E070E066
:1014A00087E091E00C9440130E943C0D882361F08A
:1014B0008EED91E00E94420D81E090E00E941914AF
:1014C000892B11F40C943F0D08958091DD01883033
:1014D00039F460E08EED91E00E94220E1092DD0161
:1014E0000895CF93DF93D82FC92F0E94540A80E02C
:1014F00090E00E941914892B99F4ED2FFC2F80E0C5
:1015000090E0DC01A852BE4F2C91219301968430CB
:101510009105B9F78CED91E00E94931081E001C034
:1015200080E0DF91CF910895CF93DF93D82FC92F1B
:101530000E94650AED2FFC2F80E090E02191DC01F4
:10154000A852BE4F2C93019684309105B9F78CEDCB
:1015500091E0DF91CF910C948A10EF92FF920F935C
:101560001F93CF93DF93F62E472FE82FF0E07111F2
:1015700006C0E853FB4F6491762F862F72C0272F49
:1015800030E0E853FB4FE4910E2F10E056E0659FEA
:10159000C0011124CFEFD0E0BE010E940E285BEA0B
:1015A0005603C001579F900D11248F0D911D8F0D73
:1015B000911D982F990F890F7E01E21AF30AE09E80
:1015C000D001E19EB00DF09EB00D1124489FA00106
:1015D0001124452F55277E01E41AF50AE09EA0014B
:1015E000E19E500DF09E500D11247E01E81AF10885
:1015F000E29EC001E39E900DF29E900D1124892F72
:101600009927C81BD90BC09FC001C19F900DD09FC7
:10161000900D11246230710591F048F46115710547
:10162000E1F061307105A9F48B2F752F19C064307A
:10163000710561F038F06630710579F00AC0892FC4
:101640007B2F0EC08E2F7B2FE52F0AC08E2F792F78
:1016500002C0852F7E2FEB2F03C08B2F7E2FE92F0B
:101660006E2FDF91CF911F910F91FF90EF90089512
:101670000895E7E1F1E0808361830895CF93DF93DC
:10168000762FE901682F842F0E94AD0A7983688341
:101690008A83DF91CF910895413508F040E50C949D
:1016A0003E0B80919C02282F269530E021153105B4
:1016B00019F48170826005C02331310524F08170F6
:1016C000846280939C0280919F02813518F080E5AE
:1016D00080939F02089588E090E00C943D28CF927B
:1016E000DF92EF92FF926B017C010E94510BB701D8
:1016F000A60188E090E0FF90EF90DF90CF900C94EF
:101700005B28ECE9F2E083E0808311828FEF828333
:1017100080E583831482A0EFB1E012968C9112973A
:10172000836012968C9360817181828193810C9485
:101730006F0B80919C0280FF02C08695089580E027
:1017400008958091A002833018F48F5F8093A002E7
:1017500060919C0270919D0280919E0290919F02E7
:101760000C946F0B8091A002882319F08150809314
:10177000A00260919C0270919D0280919E029091C6
:101780009F020C946F0B70E00C94940F6091180101
:1017900080919C0280FF0AC08091170123E0829F04
:1017A000C00111248F559D4F0C94C30B80911901DA
:1017B00090911A01891780F7E82FF0E09F01220F1E
:1017C000331FE20FF31FEF55FD4F1182108212827B
:1017D0008F5FF0CF90919C0290FF16C090911901FD
:1017E00020911A01921770F4E92FF0E0DF01AA0F9F
:1017F000BB1FEA0FFB1FEF55FD4F818360834283C0
:101800009F5FF0CF0C94C60B0895CF93DF9300D069
:101810001F92CDB7DEB790919C0290FF0AC09E0147
:101820002F5F3F4F0E944C0B4B8169818A810E9440
:10183000EA0B0F900F900F90DF91CF910895CF9307
:10184000DF93EC01EC81F0E0ED53FC4F4491ECE9C7
:10185000F2E0628181810E94050C8C818F5F8C8314
:10186000DF91CF910895CF93DF93EC01ECE9F2E0A3
:10187000438162818C810E94050C8C818F5F8C83F7
:10188000DF91CF910895AF92BF92CF92DF92EF9206
:10189000FF920F931F93CF93DF9300D01F92CDB78A
:1018A000DEB7182FF62E042FE22E80919C0280FFC7
:1018B0007CC0E82FE695AE2FB0E0AB58BE4F9C91B0
:1018C0009093F0018E7F823061F49E012F5F3F4F35
:1018D000812F0E944C0B4B8169818A810E94EA0B07
:1018E00041C0923019F400919F023CC0963019F427
:1018F00010919D0237C09930A9F5E9508E2F817063
:10190000D82EE695F0E0ED53FB4FA590B490C12C96
:10191000BB2460911B01C61618F52C2D30E0A29E49
:10192000C001A39E900DB29E900D112470E00E9404
:101930000E28812FD11002C0860F01C0861B909106
:101940001901290F311DA901440F551F240F351FFF
:101950002F553D4F402F6F2D0E944C0BC394D9CF74
:101960000E94C60B80919D02181308C080919E02B0
:10197000F81204C080919F02081729F08091F201AB
:1019800082608093F20110939D02F0929E02009378
:101990009F02EE2051F060919C0270919D02809117
:1019A0009E0290919F020E946F0B0F900F900F90DC
:1019B000DF91CF911F910F91FF90EF90DF90CF902B
:1019C000BF90AF900895ECE9F2E09181282F438118
:1019D000628188E0890F0C94430C81E00C94E30C45
:1019E000ECE9F2E09181282F4381628188EF890F31
:1019F0000C94430C81E00C94F00CECE9F2E0628171
:101A000021E1620F08F46FEF282F438181810C944C
:101A1000430C81E00C94FD0CECE9F2E0628121E1E1
:101A2000621B08F460E0282F438181810C94430CF1
:101A300081E00C940C0DECE9F2E0438121E1420FCE
:101A400008F44FEF282F628181810C94430C81E0D0
:101A50000C941B0DECE9F2E0438121E1421B08F4F8
:101A600040E0282F628181810C94430C81E00C942A
:101A70002A0D20E00C94430C8091F20108951092FD
:101A8000F201089525E0ECE9F2E0DC0101900D920D
:101A90002A95E1F72091F0013091F1014091F20196
:101AA000FC01258336834783089560919C026695E7
:101AB00070E04BE050E08CE191E00E942828892BF7
:101AC00019F481E08093F1010E94E5209093EA01EE
:101AD0008093E9018091F20184608093F20108957E
:101AE000E0EFF1E011828281846082830895909119
:101AF0009C0290FF3AC09170811102C0926006C0B2
:101B0000833110F0946202C0880F982B90939C024E
:101B10008091F20181608093F201662351F060911F
:101B20009C0270919D0280919E0290919F020E9462
:101B30006F0B60919C02669570E04BE050E08CE189
:101B400091E00E942828892B19F00E94700D02C094
:101B50000E94550D81E08093EC0140919F026091BD
:101B60009E0280919D020C94390D0895682F9091EA
:101B70009C02969581E0890F833108F081E00C94F6
:101B8000770D81E00C94B60D682F90919C0296958C
:101B90008FEF890F09F482E10C94770D81E00C94AA
:101BA000C40D61E00C94770DECE9F2E08081816076
:101BB000808386950C94D10D60E00C94770DECE950
:101BC000F2E080818160808386950C94DC0DECE9E5
:101BD000F2E080818E7F8083608171818281938138
:101BE0000E946F0B0E94700DE0EFF1E08281816036
:101BF00082832FEF80E792E0215080409040E1F710
:101C000000C000000C94C60B80919C0280FD0C94D7
:101C1000E70D0C94D40DECE9F2E080818E7F808397
:101C20000E94700DE0EFF1E08281816082832FEFEE
:101C300080E792E0215080409040E1F700C0000032
:101C40000C94C60B1F93CF93DF93EC01162F8F815B
:101C500080FF0FC0888180FF0AC080919C02816054
:101C600080939C02888186950E94770D02C00E9415
:101C70000B0E8F8181FF06C0212F4B816A818981E4
:101C80000E94430C8F8182FF08C08E81882319F047
:101C90000E94550D02C00E94700D8F8183FF03C00A
:101CA00081E08093EC01DF91CF911F9108958091A5
:101CB000EF01811133C00E944E1F811104C00E94A8
:101CC000EE1F0E94810B0E946B0B60939C0270932D
:101CD0009D0280939E0290939F028091F201836007
:101CE0008093F2016E7F61F40E94810B0E946B0B66
:101CF00060939C0270939D0280939E0290939F023A
:101D00000E94510B0E94700D80919C0280FF03C0C5
:101D100086950E94DC0D81E08093EF010895EF929B
:101D2000FF920F931F93CF93DF938091F10188234C
:101D300009F477C08091F001E0919C02E695E81BE0
:101D4000E093EB01823049F4F0E0E154FC4FE49180
:101D5000CE2FD0E00FE11CE00FC0863049F4F0E058
:101D6000E454FC4FE491CE2FD0E003E31CE004C028
:101D7000C0EDD7E008E31BE08091EC01882389F0F7
:101D80001092EC010E94E5209E0120953095820F73
:101D9000931F9093EA018093E9011092EE01109253
:101DA000ED018091E9019091EA010E94F1208C17E8
:101DB0009D07B8F18091E8018823B1F01092E80105
:101DC0008091E6019091E7010E94F12080339547D0
:101DD00058F00E94E5209093E7018093E6018091FE
:101DE000F20188608093F201E090ED01F090EE0145
:101DF000E091E901F091EA01CE0FDF1FD093EA01F3
:101E0000C093E90189EE91E0F80109958091ED0117
:101E10009091EE01892B29F4EF2819F081E080934D
:101E2000E801DF91CF911F910F91FF90EF900895FE
:101E3000882311F0FA0101C0FB010994CF93DF93CD
:101E4000C82FD62F0E94990B8C1740F00E94990B37
:101E50008D1720F4DF91CF910C94C10D8C2FDF9161
:101E6000CF910C94D10D1F93CF93DF93FB0112817F
:101E7000111155C0EC010E945A1E8272FE01E25CF3
:101E8000FC45E431F10520F4EA5AFF4F0C94222876
:101E900011E045C00E94040E42C04EEC5DE061ECD2
:101EA0007DE004C041EC5DE06EEC7DE00E94180F27
:101EB00036C04AEF5CE06DEE7CE0F8CF4DEE5CE0C2
:101EC0006AEF7CE0F3CF48E15DE069E07DE0EECFD2
:101ED00049E05DE068E17DE0E9CF46E35DE067E28F
:101EE0007DE0E4CF47E25DE066E37DE0DFCF42EBFB
:101EF0005BE061EA7BE0DACF41EA5BE062EB7BE04A
:101F0000D5CF81E00E94D10D0AC065E082E005C016
:101F100068E086E002C062E189E00E941E0F812F26
:101F2000DF91CF911F910895539A2BB1277F3BB139
:101F300038604FB7F894FC01CB01880F991F680FE8
:101F4000791F6E0F7F1FE617F70789F0819198E0E0
:101F50003BB9000000C087FF2BB9880F000000C00C
:101F600000C000C02BB900C09A9591F7ECCF4FBFCD
:101F70008FE594E00197F1F700C0000008950C94FC
:101F8000FE0480910601882309F447C020912801AE
:101F9000A22FA295AF70B0E091963C9191972F70CF
:101FA00081E090E0AC01022E01C0440F0A94EAF7F0
:101FB000542F5095352391963C93919792963C914E
:101FC0009297432B92964C93929740912701E42F3E
:101FD000E295EF70F0E031A14F70042E01C0880F40
:101FE0000A94EAF7982F9095932391A392A1892BB5
:101FF00082A390968C9190E002C0959587952A9542
:10200000E2F7817020A130E002C0359527954A950E
:10201000E2F720FD09C090E008C086E38093280124
:1020200086E680932701B2CF92E0892B8093F80156
:102030009091060181E098279093F401891B809389
:10204000F3010895CF93E091F8015E2F550F550FDE
:1020500020912801E22FE295EF70F0E080A190E05E
:102060002F7002C0959587952A95E2F78170992780
:1020700040912701E42FE295EF70F0E020A130E0DD
:102080004F7002C0359527954A95E2F7F901E17046
:10209000FF2720FF02C0E2E0F0E0E82BF92BE52B60
:1020A000E093F801C091F401EF70F0E0E857FE4FC3
:1020B00090818091F701890F8093F70184306CF053
:1020C000EC2F0C2E000CFF0BEB50FE4F80818F5F2E
:1020D000808360E08C2F0E94BF0F8091F7018D3FBD
:1020E0006CF4EC2F0C2E000CFF0BEB50FE4F80819C
:1020F0008150808361E08C2F0E94BF0F8091F70197
:10210000837887FF03C081508C6F8F5F8093F701C6
:10211000CF910895E091F401F0E0EB50FE4F208163
:10212000FC0120830895FF920F931F93CF93DF93B9
:10213000D091F3010D2F10E00B501E4FFC01C08118
:10214000F8018081C81BFC2E1F1454F4FA94F80186
:1021500080818F5F808360E08D2F0E94BF0FF4CF5E
:102160008C2FC7FD80E0C81BCC2351F0CF5FF80156
:1021700080818150808361E08D2F0E94BF0FF4CF5A
:10218000DF91CF911F910F91FF9008950F931F93AF
:10219000CF93DF93C62FD42F122FFC018281882387
:1021A000C9F06093FB010E94E5209093FA018093AF
:1021B000F90180E28C0F883008F057C0C77081E0C9
:1021C00001C0880FCA95EAF7DF91CF911F910F9157
:1021D0000C9463168091FB01681330C08091F90163
:1021E0009091FA010E94F120883C910538F500E2B7
:1021F0000D0FCD17B9F080E28C0F883040F4C77016
:1022000081E001C0880FCA95EAF70E946A1608307B
:1022100028F581E09D2F977001C0880F9A95EAF705
:102220000E946316812F0E9450160830F0F4D77078
:1022300081E001C0880FDA95EAF70AC080E28C0FCE
:10224000883098F4C77081E001C0880FCA95EAF71A
:10225000DF91CF911F910F910C946A16812FDF911E
:10226000CF911F910F910C945016DF91CF911F9138
:102270000F9108959C01CB01233F4CE53407F9F001
:1022800078F4283DFCE53F07B9F0293D4CE53407DB
:1022900011F1273D3C4531F526E241EE61EE1EC0CD
:1022A000253FFCE53F0799F070F0263F3C45D1F40F
:1022B00027E245EE66EE12C027E245EE0EC026E2AA
:1022C00041EE60EE0BC027E245EE64EE07C026E269
:1022D00041EE62EE03C028E241E065EE0E94C610C6
:1022E00080E00895FC018281882319F01092FB019F
:1022F000089581E00895CF93DF93EC01FB01828183
:10230000882309F41FC1C230FCE5DF0708F41BC1B4
:10231000C6319CE5D90738F09E012A5F3C4529303B
:10232000310508F010C10E94611F90931E03809335
:102330001D03C031ECE5DE0709F4C3C008F041C05D
:10234000C8308CE5D80709F49AC0F0F4C430ECE545
:10235000DE0709F487C068F4C2308CE5D80709F4B9
:1023600077C0C330DC4509F0E3C080911D03826073
:1023700076C0C630ECE5DE0709F46EC008F07BC01D
:1023800080911D0388606BC0CC308CE5D80709F4C0
:1023900085C068F4CA30ECE5DE0709F474C008F0C3
:1023A00079C00E94E91880911D03806858C0CE3022
:1023B0008CE5D80709F476C008F07FC080911D0332
:1023C0008BC0CB3FECE5DE0709F44FC018F5C331F5
:1023D0008CE5D80709F47DC078F4C131ECE5DE075F
:1023E00009F473C0C231DC4509F0A2C00E94E918AB
:1023F00080911D038F7733C0C5318CE5D80709F470
:1024000072C008F486C0CA3FDC4509F091C08091D3
:102410001E033EC0CF3FFCE5DF0709F45FC058F460
:10242000CD3F9CE5D90709F444C008F43FC0809132
:102430001E0382602DC0C130FDE5DF0709F475C0C1
:1024400008F45DC0C230DD4509F072C080E06EC0A6
:1024500080911D03816003C080911D038061809382
:102460001D0366C080911D0311C080911E03826010
:1024700080931E035DC080911D038062F0CF809128
:102480001D038064ECCF80911D0388608460E7CFDA
:102490008160EECF80911D038E7FE1CF80911D037F
:1024A0008D7FDDCF80911D03877FD9CF80911E0363
:1024B00018C080911E038D7FDBCF80911D038F7E1E
:1024C000CECF80911D038F7DCACF80911D038F7B5E
:1024D000C6CF80911D03877F8B7FC1CF80911E0364
:1024E0008D7F8E7FC5CF80911D0382FB222720F92F
:1024F00091E0922790FB82F990FB83F9B0CF809115
:102500001E03982F909591708E7F892B90FB81F9F7
:10251000AFCF0E94E91880911D0387FB222720F985
:1025200091E0922790FB87F99ACF81E00E94F01FFB
:1025300080911D0390911E030E94721F0E94E91852
:1025400080E001C081E0DF91CF910895CF93DF93C8
:1025500086319C4541F5EB010E945A1E982F8A81D5
:102560002091290130912A01882379F09A7A81E01B
:1025700009F480E08093FC01911102C069E201C07E
:1025800065E3C9010E9437200AC08091FC018111D6
:1025900002C069E201C065E3C9010E9439200E94BE
:1025A0009B1E80E001C081E0DF91CF9108958EE114
:1025B0004A9B02C08150E1F74A9BFECF08955A988A
:1025C00080E28A95F1F75A9A0895FC012AE02A954B
:1025D000F1F790E020E080E031E0261779F040E16B
:1025E0004A95F1F7880F4A9B02C08160932700C08B
:1025F000000040E14A95F1F72F5FEFCF20E12A95E7
:10260000F1F729B100C0000030E13A95F1F722FB63
:10261000222720F992272081920F90830895EF922C
:10262000FF920F931F93CF93DF931F92CDB7DEB727
:1026300019828C017C01E60EF11C0E151F0559F064
:102640000E94D71268E0CE0101960E94E512F801BF
:1026500081938F01F2CF81E09981911180E00F90F9
:10266000DF91CF911F910F91FF90EF90089590937C
:10267000FF018093FE016093FD01529A5A9A0895DA
:102680009093FF018093FE016093FD0152985A9A46
:10269000EA9AE9E6F0E080818F7C808308956150BA
:1026A00091E001C0990F6A95EAF720E031E09923A3
:1026B00061F0492F482319F05A9A232701C05A98EC
:1026C00040E24A95F1F79695F2CF222311F05A9AFB
:1026D00001C05A9880E28A95F1F75A980895FF92BE
:1026E0000F931F93CF93DF93EC018C01060F111D05
:1026F000C017D10741F0F9900E94DF1268E08F2DDA
:102700000E944F13F5CFDF91CF911F910F91FF9052
:1027100008951F920F920FB60F9211240F931F93DB
:102720002F933F934F935F936F937F938F939F93D9
:10273000AF93BF93EF93FF93CF93DF931F92CDB7E8
:10274000DEB719820E94D71267E0CE0101960E947F
:10275000E512382F369536953695932F96959570C8
:10276000232F2570920F292F2370969596958770A9
:10277000920F891348C08981811145C08091FD0164
:10278000831708F440C080E18A95F1F75A9A529A6B
:10279000A2E0AA95F1F700C00091FE011091FF019F
:1027A000B8E03B9F000D111D11245A98F801658176
:1027B000662321F0868197810E946F130E94DF12A9
:1027C000F0E1FA95F1F75A9852985A9A80E18A9571
:1027D000F1F7D80112966C911297662369F013965F
:1027E0008D919C9114970E940F13D801ED91FC914B
:1027F000811105C082E004C0D801ED91FC9188E010
:1028000080830E94D7120F90DF91CF91FF91EF91BB
:10281000BF91AF919F918F917F916F915F914F91F8
:102820003F912F911F910F910F900FBE0F901F900E
:1028300018950F931F93CF93DF932091FD0130E004
:10284000281739070CF471C09C0193E0220F331F45
:102850009A95E1F7C091FE01D091FF01C20FD31FFD
:10286000F894529A5A9845E04A95F1F70000982F4B
:10287000969595708570890F982F9370869586959B
:10288000890F8901082B0E94DF1284E08A95F1F7F5
:1028900000C067E0802F0E944F1340E14A95F1F796
:1028A00052985A9A4A9902C000C0FCCF87E090E043
:1028B0004A9B0EC0019751F4529A5A9AE881F981C5
:1028C00081E08083789481E090E031C000C0F0CF57
:1028D0006D81662381F08E819F810E940F1381118B
:1028E0000AC0529A5A9AE881F98182E080837894EA
:1028F00082E090E01CC00E94D71280E28A95F1F736
:102900005A98529A40E14A95F1F76A81662321F07C
:102910008B819C810E946F130E94DF12E881F981F4
:102920001082789480E090E002C084E090E0DF9133
:10293000CF911F910F910895909305028093040207
:102940000895E0910402F0910502309721F0019082
:10295000F081E02D099480E00895E0910402F09167
:102960000502309721F00280F381E02D099408954B
:1029700020910202309103022817390771F09093D9
:10298000030280930202E0910402F0910502309765
:1029900021F00680F781E02D09940895209100022E
:1029A000309101022817390771F09093010280934A
:1029B0000002E0910402F0910502309721F00084BA
:1029C000F185E02D0994089585B7806885BF85B7A6
:1029D000806885BF089508950C94EB140C94EC1452
:1029E0000C94EB140C94EB140E94E4140E94F01469
:1029F0000C94EE140C940B0A0E94DC200E94BD087B
:102A00000E9437210E94570E0E94C10F0C94F214AD
:102A1000AF92BF92CF92DF92EF92FF920F931F93EC
:102A2000CF93DF93CDB7DEB72A970FB6F894DEBF0A
:102A30000FBECDBF0E944B090E94FA14811111C034
:102A40008FEF89838A831B820E94E5208160782F23
:102A50009D838C8349815A816B818D810E94A2154F
:102A600040C087E0A82E82E0B82E00E010E0C02E23
:102A7000802F0E94A808E82EF501D1905F01D8268A
:102A800031F40F5F1F4F0830110589F7D9CF8091BE
:102A90007B0281FD0E94AE0880E0FF24F3949D2D0F
:102AA0009F21D1F08E83CF82EF2081E009F480E076
:102AB00088870E94E5208160782F9A8789874E81D8
:102AC0005F8168858A850E94A215F801E95FFD4F44
:102AD0008081F826F08205C08F5FFF0C8630F9F602
:102AE000D0CF0E948F0E0E9422100E94A1149091BC
:102AF00006028917B1F00E94A114809306022A965B
:102B00000FB6F894DEBF0FBECDBFDF91CF911F91FE
:102B10000F91FF90EF90DF90CF90BF90AF900C940B
:102B200071062A960FB6F894DEBF0FBECDBFDF91B7
:102B3000CF911F910F91FF90EF90DF90CF90BF90BA
:102B4000AF900895CF93DF93CDB7DEB72B970FB635
:102B5000F894DEBF0FBECDBF4F83588769877A8751
:102B60008B87DE01119686E0FD0111928A95E9F7C7
:102B700085E0FE01379601900D928A95E1F7498133
:102B80005A816B817C818D819E810E94A21B2B9634
:102B90000FB6F894DEBF0FBECDBFDF91CF91089581
:102BA000FC01808191810E941B1E0895CF93882390
:102BB00009F448C0C82F8CEF8C0F813AD0F46C2FE9
:102BC0008091290190912A010E940120882349F0D7
:102BD0006C2F8091290190912A010E9439200E9436
:102BE0009B1E6C2F8091290190912A010E94372011
:102BF0000CC080E28C0F883058F4C77081E001C0AF
:102C0000880FCA95EAF70E945D1ECF910C949B1E17
:102C1000EBE5EC0FE33040F4F0E0EA53FE4F808147
:102C200090E0CF910C94B814C85AC73158F4EC2FE7
:102C3000F0E0EE0FFF1FE856FE4F80819181CF91AB
:102C40000C94CE14CF910895882349F1682F8CEF0E
:102C5000860F813A38F48091290190912A010E94CF
:102C600039200CC080E2860F883050F4677081E014
:102C700001C0880F6A95EAF70E94631E0C949B1EA0
:102C80008BE5860F833020F480E090E00C94B8143C
:102C9000685A673120F480E090E00C94CE140895D7
:102CA000CF93C82F0E94D615C93349F42FEF87EE72
:102CB00093E0215080409040E1F700C000008C2F4D
:102CC000CF910C942416882321F00E945D1E0C9451
:102CD0009B1E0895882321F00E94631E0C949B1E66
:102CE0000895CF92DF92EF92FF920F931F93CF93AD
:102CF000DF937C01D62FC72FFC01058102950F7051
:102D0000128111110E947A1E0E94531E882399F08D
:102D1000112389F08C2F807F803421F080E28D0F89
:102D2000883048F082E00E94E51E0E94531E91E028
:102D3000D82ED92601C0D12CCC2EC2948FE0C82227
:102D40008C2D90E08C30910508F0ABC1FC01E65968
:102D5000FF4F0C9422288C2F807FCF70882311F096
:102D6000C295C07F112399F0CC2309F486C180E27B
:102D70008D0F883010F0D11104C08C2F0E945D1E81
:102D800003C08C2F0E946D1E0E949B1E76C18D2F4A
:102D90000E942416CC2309F484C180E28D0F883070
:102DA00010F0D11104C08C2F0E94631E03C08C2F21
:102DB0000E94731E0E949B1E74C18C2F807FCF7057
:102DC000803211F0C295C07FDD2319F0D130C9F0F7
:102DD00022C0112371F0002341F0013031F40E9430
:102DE000801E8C2B0E94881E5CC10E94801E8C2B32
:102DF0001DC0002319F0013009F453C10E94911E37
:102E000025C0112321F0063008F04BC10EC005305B
:102E100008F047C11BC0112361F0002331F0F70116
:102E2000858180FF2AC18F7085838C2F0E94631655
:102E300038C1002359F0D93309F030C1FFEF07EE54
:102E400013E0F15000401040E1F726C18C2F0E94A2
:102E50006A1627C18C2F86958695837019F081306C
:102E600061F01FC1112321F08D2F9C2F937002C0A0
:102E700080E090E00E94B8141CC1112321F08D2F36
:102E80009C2F937002C080E090E00E94CE1411C18C
:102E90008C2F837009F047C0111107C12D2F229587
:102EA00026952770220F220F6D2F6F70862F90E0CE
:102EB000A0E0B0E0022E04C0880F991FAA1FBB1F1C
:102EC0000A94D2F7D4FF10C04FE050E060E070E009
:102ED00004C0440F551F661F771F2A95D2F74095EF
:102EE00050956095709503C040E050E0BA01C695DA
:102EF000C695C3708A019B01082B192B2A2B3B2BEB
:102F0000C901B801C23049F058F4C13019F00E942B
:102F1000761CCBC00E94641CC8C00E94881CC5C01F
:102F20000E94621CC2C0112319F08C2F817001C055
:102F30008695882309F4B9C02D2F229526952770F0
:102F4000220F220F6D2F6F70862F90E0A0E0B0E06F
:102F5000022E04C0880F991FAA1FBB1F0A94D2F724
:102F6000D4FF10C04FE050E060E070E004C0440FB8
:102F7000551F661F771F2A95D2F74095509560958B
:102F8000709503C040E050E0BA01C695C695C37085
:102F90008A019B01082B192B2A2B3B2BC901B80155
:102FA000C23049F058F4C13019F00E945B1D7DC059
:102FB0000E94491D7AC00E946D1D77C00E949C1C12
:102FC00074C0CF70112339F08C2F0E94E21C8D2F1A
:102FD0000E9463166AC08D2F0E946A168C2F0E9471
:102FE000031D63C0D23F01F128F4D03F41F0D13F2F
:102FF000A1F03FC0D33FF9F0D43F39F13AC01123DB
:1030000041F0053008F04DC08C2F8F710E94281DB3
:1030100048C0063008F045C0F7CF112339F08C2F97
:103020008F710E94E21C3DC01123C9F38C2F8F7158
:103030000E94031D36C0112329F08C2F8F710E942E
:10304000CD1C2FC00E94A81C2CC0112349F0CF71A9
:103050008C2F0E94E21C63E08C2F0E94D01E21C0A6
:1030600081E00E94E51E0230E0F082E00E94E51E51
:1030700018C0112331F0002391F28D2F0E94D61534
:1030800010C0002399F2D93349F41FEF27EE33E043
:10309000115020403040E1F700C000008D2F0E9409
:1030A000241688EF8C0D843020F40E94A1140E9415
:1030B0007106DD20C9F00E944F1E80FD15C0F7018A
:1030C00012820E94491E0E94E21CC7010E949518AC
:1030D0000E94491EDF91CF911F910F91FF90EF90B9
:1030E000DF90CF900C94031DDF91CF911F910F9132
:1030F000FF90EF90DF90CF9008950F931F93CF93A1
:10310000DF93EC01688179818A810E94261E8C01FF
:103110000E947F1D0E94501CB801CE010E947116B2
:10312000DF91CF911F910F910895CF93DF93EC0121
:10313000988189812B813C81232B31F08F3F31F4A1
:1031400081E09F3F19F403C081E001C080E080FD71
:1031500019C0CE010E948A0681110CC00E94531E24
:10316000882381F08A81882369F082E0DF91CF9102
:103170000C94E51ECE010E947D18CE01DF91CF9107
:103180000C940106DF91CF910895882321F00E94CD
:103190006D1E0C949B1E0895882321F00E94731EBF
:1031A0000C949B1E08950E947A1E0E947D1E0E9410
:1031B0009B1E80E090E00E94B81480E090E00C94A8
:1031C000CE148091290190912A010E943B200C94F9
:1031D000D3180E946A1E0C94E118E92FE295EF7053
:1031E0004E2F50E0FA013297EE30F105B0F4EA5874
:1031F000FF4F0C942228803F91F018F4883E68F429
:103200000EC0843F51F40BC0883E48F0813F29F442
:1032100006C093FB882780F9089580E0089581E037
:1032200008950E941B1E0E94ED180895CF93DF930E
:1032300000D000D01F92CDB7DEB70F900F900F9047
:103240000F900F90DF91CF910895CF93DF9300D02F
:1032500000D000D0CDB7DEB726960FB6F894DEBF0B
:103260000FBECDBFDF91CF9108951F93CF93DF9312
:10327000C091100216E080911102C81799F0D0E0B9
:103280001C9FF0011D9FF00D1124EE5EFD4F40814B
:10329000518162817381848195810E9425192196D3
:1032A000C770E9CFDF91CF911F91089540914202FD
:1032B0005091430260914402709145028091460210
:1032C000909147020C9425190F931F93CF93DF938E
:1032D0008091470282958F7009F05DC08091440211
:1032E000882309F458C08091100210911102609156
:1032F000420270914302C0914502D091460291E092
:103300006F3F09F090E0292F06E0811709F443C0D0
:10331000209721F07F3F21F030E003C031E001C071
:10332000322F90E030FD34C0089FF001099FF00D6E
:103330001124DF01AE5EBD4F11963C9111973713FA
:1033400027C03C91361324C012963C91129731113C
:103350001FC013964D915C9114974C1B5D0B483C1C
:103360005105B0F4809147028F70806180934702CD
:10337000E95EFD4F80818F708061808382E492E0FE
:103380000E949518DF91CF911F910F910C943519E0
:1033900001968770BACFDF91CF911F910F91089559
:1033A0009F92AF92BF92CF92DF92EF92FF920F93D4
:1033B0001F93CF93DF93CDB7DEB761970FB6F89425
:1033C000DEBF0FBECDBF8C0185E0F801DE011D968A
:1033D00001900D928A95E1F7F80140815181E280D8
:1033E0009091420260914302209145023091460241
:1033F0002115310531F06F3F31F481E09F3F19F421
:1034000003C081E001C080E0F82FF1709F2E80FDA5
:1034100046C1F801A380B48082E4C82E82E0D82E91
:10342000F0904402F501E21BF30BFF2009F4DFC02A
:1034300080914702E83CF10508F09BC0282F207FCF
:1034400009F052C0561313C0491311C0FE2CE110ED
:103450000EC08F708061809347020E945619C6018A
:103460000E94951880914702F801858358C1AB28C6
:1034700031F05F3F31F481E04F3F19F403C081E048
:1034800001C080E080FD03C081E08E2502C080E0A5
:1034900090E0F82FF170FF2E80FF1CC08091100289
:1034A0002091110236E0821709F417C190E0389F8D
:1034B000F001399FF00D1124EE5EFD4F618156132E
:1034C00006C06081461303C06281E61203C0019604
:1034D0008770E9CFFE2CEE2009F421C180914702CC
:1034E0008160809347025AC0561306C0491304C036
:1034F000E11002C0F8019FC04D875E878D859E85D3
:103500000E941119882379F1EE2069F12091470278
:10351000822F82958F7090E0029774F08091420222
:103520009091430298878F831986BB86AA862C8741
:10353000CE0107960E94951886E0F801A2E4B2E059
:1035400001900D928A95E1F70E9464190E94561924
:103550000DC0561729F14D875E878D859E850E9487
:10356000111981112CC0C8010E949518FF24F394F1
:10357000D6C0282F207F69F77A2DB98AA88A6E2DA8
:1035800089890E94161982E492E00E94951886E0CB
:10359000F60111928A95E9F70E945619F12CBFC0E5
:1035A0004913D9CFE110D7CFF8018583C8010E9414
:1035B000951886E0F60111928A95E9F7B0C0EE20E1
:1035C00091F220914702822F82958F7090E00297AE
:1035D0000CF4B2CF80914202909143029A83898386
:1035E0001B82BD82AC822E83CE010196A3CFE83C24
:1035F000F10508F047C0FE2CEE2009F4B4CF5613B5
:1036000030C049132EC02091470220FD21C0822FD7
:1036100082958F70482F50E041155105C9F0F8018F
:1036200025834F30510541F08F5F982F9295907F01
:10363000822F8F70892B8583C8010E94951886E0A0
:10364000F801A2E4B2E001900D928A95E1F742C040
:1036500086E0F801A2E4B2E001900D928A95E1F7CC
:103660005EC04D875E878D859E850E9411198111F0
:1036700063CF80914702816080934702C8010E9416
:1036800095184DC07A2DB98AA88A6E2D89890E9415
:10369000161986E0F60111928A95E9F71BC0EE2013
:1036A00009F461CF4D875E878D859E850E94111933
:1036B000F82E882309F457CF86E0F801A2E4B2E09F
:1036C00001900D928A95E1F782E492E00E94D01574
:1036D0000E9464190E94561922C04D875E878D850D
:1036E0009E850E941B1E292F22952F70223028F4C0
:1036F0009F7039F0811105C00BC0243028F49F70F1
:1037000049F4805E883020F0C8010E9495189F2CF3
:10371000F92C05C0F8019581907F99F7F9CF8F2D8D
:1037200061960FB6F894DEBF0FBECDBFDF91CF918B
:103730001F910F91FF90EF90DF90CF90BF90AF90CF
:103740009F9008951F93CF93DF93CDB7DEB72C974B
:103750000FB6F894DEBF0FBECDBF4F835887698781
:103760007A878B879C87CE0107960E94D019882381
:10377000D1F09F8188852A853B85232B31F08F3FAF
:1037800031F481E09F3F19F403C081E001C080E083
:1037900080FD47C04F81588569857A858B859C85DA
:1037A0000E9425193EC086E0FE013796DE01119683
:1037B00001900D928A95E1F7FF81E8856A857B8506
:1037C0006115710531F0EF3F31F481E0FF3F19F4ED
:1037D00003C081E001C080E080FD23C02091110280
:1037E00030E0C9010196877099274091100250E09E
:1037F00084179507F1F1F983EA837D836C8396E062
:10380000929FD001939FB00D1124AE5EBD4FFE017B
:10381000319601900D929A95E1F7809311020E94E2
:10382000351916E08091100290911102891771F1FB
:10383000189FC00111248E5E9D4F0E94D0198823CD
:1038400029F1E09110021E9FF0011124EE5EFD4F60
:103850004081518162817381848195810E94251903
:103860008091100290E00196877099278093100252
:10387000D9CF0E94E9181092110210921002E2E4CE
:10388000F2E086E0DF011D928A95E9F72C960FB6EB
:10389000F894DEBF0FBECDBFDF91CF911F91089589
:1038A000089508950C94511C0C94521C0E94541CB1
:1038B00060936A0270936B0280936C0290936D0226
:1038C0000C94D3180C94561C0F931F9300916A020A
:1038D00010916B0220916C0230916D02602B712B64
:1038E000822B932B1F910F910C94561C0F931F93B7
:1038F00000916A0210916B0220916C0230916D026E
:1039000060237123822393231F910F910C94561CE3
:103910000F931F9300916A0210916B0220916C0229
:1039200030916D0260277127822793271F910F9195
:103930000C94561C0C94A2030E949A1C609366027D
:103940007093670280936802909369020C94D31875
:1039500060E070E0CB010C949C1C61157105810541
:10396000910529F481E0442361F080E00895DC01B1
:10397000CB0104C0B695A795979587954A95D2F740
:1039800081700895482F609166027091670280915E
:103990006802909169020C94AD1C0F931F9341E053
:1039A00050E060E070E08A019B0104C0000F111F2D
:1039B000221F331F8A95D2F7C901B8011F910F91B9
:1039C0000C949C1C0F931F9341E050E060E070E06A
:1039D00004C0440F551F661F771F8A95D2F7809148
:1039E000660290916702A0916802B09169028A0113
:1039F0009B01082B192B2A2B3B2BC901B8011F91C6
:103A00000F910C949C1C0F931F9341E050E060E0D9
:103A100070E004C0440F551F661F771F8A95D2F7C8
:103A200040955095609570958091660290916702DF
:103A3000A0916802B09169028A019B0108231923B1
:103A40002A233B23C901B8011F910F910C949C1CA0
:103A50000F931F9341E050E060E070E004C0440F1A
:103A6000551F661F771F8A95D2F780916602909145
:103A70006702A0916802B09169028A019B01082740
:103A800019272A273B27C901B8011F910F910C94D0
:103A90009C1C0F931F930091660210916702209166
:103AA000680230916902602B712B822B932B1F913E
:103AB0000F910C949C1C0F931F9300916602109120
:103AC000670220916802309169026023712382238A
:103AD00093231F910F910C949C1C0F931F930091A3
:103AE0006602109167022091680230916902602796
:103AF0007127822793271F910F910C949C1C089586
:103B0000292F220F920F990F890FE82FE695E6953E
:103B1000E695877051E001C0550F8A95EAF785E078
:103B2000E89FF0011124E85BFD4F20E030E070E0F9
:103B30004081CB01022E02C0969587950A94E2F748
:103B40008170819584278523842781932F5F3F4F40
:103B50002530310569F70895292F220F920F990F0B
:103B6000890F682F669566956695982F977085E002
:103B7000689FB001112440E050E080E0FB01E40FB9
:103B8000F51FE85BFD4F208130E0092E02C036951D
:103B900027950A94E2F721703327042E01C0220FE3
:103BA0000A94EAF7822B4F5F5F4F4530510531F79A
:103BB0000895BF92CF92DF92EF92FF920F931F93DF
:103BC000CF93DF938C01C0906602D0906702E090A3
:103BD0006802F090690280916A0290916B02A09154
:103BE0006C02B0916D02C82AD92AEA2AFB2ACFE1D9
:103BF000D0E0D701C6010C2E04C0B695A7959795C5
:103C000087950A94D2F780FD04C0219790F7B12CD4
:103C100007C0BC2EB8018C2F0E94E0060197A9F3C3
:103C20008B2DDF91CF911F910F91FF90EF90DF903F
:103C3000CF90BF900895CF93DF93EC010E94D91DE0
:103C4000BE010E94E006DF91CF9108951F93CF93AC
:103C5000DF93EB0190910F02992321F0CB010E9499
:103C60001B1E13C0882349F0CB010E94D91D182FB9
:103C7000682FCE010E94801D04C0CB010E94AC1DA4
:103C8000182FBE01812F0E94E006DF91CF911F9176
:103C9000089580916E02859585958595089580910A
:103CA0006E028770089590916E02977081E009F41A
:103CB00080E0089580917A02089590917A02892B8C
:103CC00080937A020895809590917A028923809357
:103CD0007A02089510927A02089590917902892BC0
:103CE0008093790208958095909179028923809339
:103CF0007902089510927902089510927802089539
:103D000080916F02089508950C94831E0C94841E74
:103D100090916F02981721F080936F020C94861E89
:103D2000089580916F02882329F010926F0280E03D
:103D30000C94861E0895E0912901F0912A0180914A
:103D40007A028083E0912901F0912A01908180918B
:103D50007902892B8083E0912901F0912A019081D9
:103D600080917802892B808380916F02882381F073
:103D7000E0912901F0912A019081892B8083809123
:103D8000290190912A010E94F51F81110E94911E24
:103D90008091290190912A010C94AD140C94831EFA
:103DA00098E0899F90011124262B20936E020E9497
:103DB000E21C80916E028595859585950C94CE1EAA
:103DC00010926E0280E00C94CE1E20916E028095BF
:103DD000822380936E02982F977079F430E0482FF9
:103DE000082E000C550B2417350739F0859585955D
:103DF00085950E94031D0C94E01E0895CF92DF92DA
:103E0000EF92FF926C01EE24FF24C114D104E1046F
:103E1000F10421F0C701B60120E101C020E0C72E66
:103E2000D82EE92EFF24C114D104E104F10419F0C5
:103E3000285FC701B6016B017C0154E0F694E7945A
:103E4000D794C7945A95D1F7C114D104E104F10471
:103E500019F02C5FC701B6016B017C0142E0F694BA
:103E6000E794D794C7944A95D1F7C114D104E104DB
:103E7000F10419F02E5FC701B601DC01CB01B69544
:103E8000A79597958795892B8A2B8B2B09F02F5F08
:103E9000822FFF90EF90DF90CF90089580E090E028
:103EA0000E94432821E08C3E9E4F09F020E0822FA3
:103EB000089582E090E00C94352883E090E00C9423
:103EC0003528CF9384E090E00E943528C82F81E206
:103ED00090E00E9435282C2F30E0A901582BCA0110
:103EE000CF910895CF93C92F682F84E090E00E946E
:103EF00049286C2F81E290E0CF910C944928AB01C6
:103F0000BC018FE090E00C945B28AB01BC0183E125
:103F100090E00C945B2860E070E0CB010C94851F6E
:103F200060E070E0CB010E947F1F0C948B1F6CEE51
:103F30007EEF80E090E00E94672860E082E090E001
:103F40000E94492860E083E090E00E944928109296
:103F50006A0210926B0210926C0210926D0260E085
:103F600084E090E00E94492860E081E290E00E94B5
:103F7000492860E085E090E00E94492860E086E002
:103F800090E00E9449286FEF87E090E00E94492866
:103F900040E050E0BA0188E090E00E945B2860E0D9
:103FA0008DE090E00E94492840E050E0BA0188E1AD
:103FB00090E00E945B2860E087E190E00E94492841
:103FC00040E050E0BA018CE190E00E945B2860E0A4
:103FD00080E290E00E9449280C94901F0C94971F57
:103FE000682F8EE090E00C944928FC01329697E00F
:103FF00080E0915029F021912223D9F38F5FF9CFEE
:104000000895662349F0FC013296089621916217C3
:1040100029F0E817F907D1F780E0089581E00895C5
:104020009C01FC0132969FEF80E04191461789F098
:104030009F3F19F4411101C0982F8F5F8630A9F777
:104040009F3F39F0F901E90FF11D97FDFA95628361
:10405000089508959C012A5F3F4FFC014281461359
:1040600001C01282019682179307B9F708950C9444
:1040700010200C942A20029626E0FC0111922A9529
:10408000E9F7089508950C9442200C944220CF93B0
:104090000E9445200E944B090E944320C0E08C2FC3
:1040A0000E94A808811104C0CF5FC830C1F701C0C9
:1040B00081E0CF9108950C9442200C945B200E94E3
:1040C0005D2080912303843009F439C010927C0272
:1040D00020E488E190E00FB6F894A8958093600002
:1040E0000FBE2093600080E00E9471060E94700D58
:1040F00080917D0281110AC081E080937D028091D0
:104100009C02817080937E020E940B0E0E945D20B3
:1041100083B7817F846083BF83B7816083BF7894D6
:10412000889583B78E7F83BF0FB6F894A89580914A
:104130006000886180936000109260000FBE089557
:104140000C9442200E94E9180E94A1140E9471065A
:1041500010927D0280917E0281110E94DF0D0E94EB
:10416000550D0C94A0201F920F920FB60F921124A0
:104170008F939F93AF93BF9380917C02811113C063
:104180008091190390911A03A0911B03B0911C0315
:104190004196A11DB11D8093190390931A03A0931A
:1041A0001B03B0931C03BF91AF919F918F910F9010
:1041B0000FBE0F901F90189582E084BD93E095BDCF
:1041C0009AEF97BD80936E0008952FB7F894809171
:1041D000190390911A03A0911B03B0911C032FBFE8
:1041E00008959C014FB7F8948091190390911A0398
:1041F000A0911B03B0911C034FBF821B930B08952A
:1042000078941F920F920FB60F9211248F939F9361
:10421000AF93BF938091190390911A03A0911B0350
:10422000B0911C030196A11DB11D809319039093B9
:104230001A03A0931B03B0931C03BF91AF919F91EE
:104240008F910F900FBE0F901F90189587E797E7FB
:1042500090930108809300089AE088E10FB6F894E3
:10426000A895809360000FBE90936000FFCF0E94DE
:104270004E1F811102C00E94EE1F0E94591F8093A1
:104280007B020E94611F90931E0380931D030E9476
:104290005D1F682F70E080E090E00C94621C8091BC
:1042A000870208950895CF93DF9300D01F92CDB772
:1042B000DEB790912303943019F589837B836A8359
:1042C00082E08093E9008FEF9091E800815095FDA6
:1042D00006C095ED9A95F1F700008111F5CF809118
:1042E000E80085FF0DC040E050E063E070E0CE01E3
:1042F00001960E9470238091E8008E778093E800F9
:104300000F900F900F90DF91CF910895CF93DF938F
:10431000EC010E945323823011F0843031F4BE014D
:1043200084E0DF91CF910C945321DF91CF910895D8
:10433000BC0183E00C945321CF93DF93EC010E94E6
:104340005323823011F0843039F581E08093E90005
:104350008FEF9091E800815095FD06C095ED9A95FC
:10436000F1F700008111F5CF8091E80085FF14C0BE
:1043700040E050E068E070E0CE010E947023809140
:10438000E8008E778093E80088E0FE01AFE7B2E0B6
:1043900001900D928A95E1F7DF91CF910895809178
:1043A0002203811109C00E9401250E945E2580918F
:1043B000E20084608093E200089510922203089541
:1043C000089508950C94A22042E061EC81E00E94DF
:1043D0007A2442E261EC82E00C947A2480912503F5
:1043E000833009F460C030F4813071F0823009F418
:1043F00099C008958A3009F485C08B3009F46BC0E8
:10440000893009F0A7C020C080912403813A09F0C7
:10441000A1C08091E800877F8093E8008091280305
:1044200090912903892B21F468E08FE792E003C083
:1044300060E080E090E070E00E94BB238091E800A3
:104440008B778093E800089580912403813209F0EE
:1044500081C08091280390912903029708F07AC0C7
:104460008091E800877F8093E8008091E80082FDDA
:1044700005C0809123038111F8CF6CC02091F30017
:104480008091F20090E0922B029729F48091F10044
:104490008B7F813021F48091F1008093870280919D
:1044A000E8008B7753C080912403813A09F052C011
:1044B0008091280390912903892B09F04BC08091AA
:1044C000E800877F8093E8008091E80080FFFCCFC0
:1044D0008091350136C0809124038132D9F58091D5
:1044E000280390912903892BA9F58091E800877F03
:1044F0008093E8000E94AF248091260380933501C9
:104500000C94E91880912403813221F58091E80010
:10451000877F8093E8000E94AF24809127038093D7
:104520008802089580912403813AA1F48091E800E3
:10453000877F8093E8008091E80080FFFCCF809126
:1045400088028093F1008091E8008E778093E800E4
:104550000C94AF24089584B7877F84BF0FB6F89476
:10456000A89580916000886180936000109260003F
:104570000FBE90E080E80FB6F894809361009093AE
:1045800061000FBE0E94F4140E9401250E945E2566
:104590008091E20084608093E20078940E94F32787
:1045A0000E94FC148BE291E00E949C1480912303F2
:1045B000853069F40E945F20809121038823B1F344
:1045C0000E944720882391F30E945A23EFCF0E9434
:1045D0000815ECCF0C94EC22292F3327233031051A
:1045E000C9F060F42130310581F02230310509F045
:1045F0004AC08BE390E022EF35E049C0213231051B
:1046000011F12232310579F13EC082E190E02DE2D4
:1046100036E03DC099278130910561F040F082304D
:10462000910559F0039779F5E8ECF5E008C0EEEE56
:10463000F5E005C0EAEDF5E002C0EEECF5E08491AE
:1046400090E09F0124C06115710541F06130710552
:10465000D1F489E090E02DE136E019C089E090E0E6
:1046600024E036E014C06115710541F06130710538
:1046700051F482E390E02FE336E009C080E490E05B
:1046800021E736E004C080E090E020E030E0FA016D
:1046900031832083089580912303843011F081E0D9
:1046A000089582E0089580918902811102C00C94DE
:1046B0004B23089580E189BD82E189BD09B400FEE4
:1046C000FDCF8091D8008F7D8093D8008091E0004D
:1046D00082608093E0008091E00081FDFCCF08952E
:1046E000CF92DF92EF92FF920F931F93CF93DF93BE
:1046F000EC018B017A010E94CE24811133C0E114B8
:10470000F10439F0F70180819181081B190BC80F62
:10471000D91FC12CD12C0115110519F18091E80088
:1047200085FD16C08091E8008E778093E800E11443
:10473000F10449F0F70180819181C80ED91ED18220
:10474000C08285E00FC00E94CE24882321F30AC0D6
:1047500089918093F10001501109FFEFCF1ADF0A10
:10476000DACF80E0DF91CF911F910F91FF90EF9012
:10477000DF90CF90089520912A0330912B032617C4
:10478000370748F06115710539F42091E8002E775C
:104790002093E80001C0B901FC0120E0611571051A
:1047A00079F1809123038823F1F18530F1F1809133
:1047B000E80083FD3CC08091E80082FD2EC080911E
:1047C000E80080FFEBCF2091F3008091F20090E0B1
:1047D000922B6115710551F08830910538F42191C3
:1047E0002093F100615071090196F3CF21E0089701
:1047F00009F020E08091E8008E778093E800CECF2A
:104800002111CFCF0AC080912303882361F0853026
:1048100061F08091E80083FD0AC08091E80082FF8A
:10482000F2CF80E0089582E0089583E0089581E06A
:10483000089520912A0330912B032617370748F05B
:104840006115710539F42091E8002E772093E80076
:1048500001C0B901FC0120E06115710591F1809161
:104860002303882309F440C0853009F43FC08091B8
:10487000E80083FD3DC08091E80082FD2FC080915B
:10488000E80080FFE9CF2091F3008091F20090E0F2
:10489000922B6115710559F08830910540F42491EF
:1048A0002093F1003196615071090196F2CF21E019
:1048B000089709F020E08091E8008E778093E80067
:1048C000CBCF2111CCCF0AC080912303882361F084
:1048D000853061F08091E80083FD0AC08091E80096
:1048E00082FFF2CF80E0089582E0089583E008958A
:1048F00081E00895982F973068F59093E900981714
:1049000039F07091EC002091ED005091F00003C05F
:10491000242F762F50E021FD02C09F5FECCF309115
:10492000EB003E7F3093EB003091ED003D7F309304
:10493000ED003091EB0031603093EB007093EC00B0
:104940002093ED005093F0002091EE0027FDE5CF7D
:1049500080E008958F708093E90081E00895809150
:10496000240387FF11C08091E80082FD05C080917B
:1049700023038111F8CF11C08091E8008B770BC021
:1049800080912303882349F08091E80080FFF8CFCD
:104990008091E8008E778093E80008952091E400EC
:1049A0003091E50095E64091EC00842F817040FF46
:1049B00023C08091E80080FD1DC0809123038823DF
:1049C00099F0853099F08091EB0085FD11C0409100
:1049D000E4005091E5002417350729F3915011F0B8
:1049E0009A01E1CF84E0089582E0089583E008957C
:1049F00081E0089580E008954091E80042FFDDCF16
:104A000008950E946F250E947725E0EEF0E08081F6
:104A100081608083E8EDF0E080818F77808319BC2E
:104A2000A7EDB0E08C918E7F8C9380818F7E808308
:104A30001092220308950F931F93CF93DF930E9448
:104A40006F250E947725C8EDD0E088818F77888315
:104A500088818068888388818F7D888319BC1092C3
:104A6000230310921F03109221031092200300EEE3
:104A700010E0F80180818B7F80838881816088834A
:104A800042E060E080E00E947A24E1EEF0E0808184
:104A90008E7F8083E2EEF0E0808181608083808180
:104AA00088608083F80180818E7F80838881806127
:104AB0008883DF91CF911F910F910895E8EDF0E089
:104AC00080818F7E8083E7EDF0E08081816080834C
:104AD00084E082BF81E0809322030C941B25E8EDE3
:104AE000F0E080818E7F80831092E2000895109222
:104AF000DA001092E10008951F920F920FB60F9204
:104B000011242F933F934F935F936F937F938F93D2
:104B10009F93AF93BF93EF93FF938091E10082FF48
:104B20000BC08091E20082FF07C08091E1008B7F83
:104B30008093E1000E94F2278091DA0080FF1FC07D
:104B40008091D80080FF1BC08091DA008E7F809317
:104B5000DA008091D90080FF0DC080E189BD82E13B
:104B600089BD09B400FEFDCF81E0809323030E943C
:104B7000CF2105C019BC109223030E94DD21809132
:104B8000E10080FF19C08091E20080FF15C0809194
:104B9000E2008E7F8093E2008091E200806180934A
:104BA000E2008091D80080628093D80019BC85E033
:104BB000809323030E94E1218091E10084FF30C0B3
:104BC0008091E20084FF2CC080E189BD82E189BD33
:104BD00009B400FEFDCF8091D8008F7D8093D8006E
:104BE0008091E1008F7E8093E1008091E2008F7ED2
:104BF0008093E2008091E20081608093E2008091E6
:104C00001F03882311F084E007C08091E30087FD33
:104C100002C081E001C083E0809323030E94E2216F
:104C20008091E10083FF29C08091E20083FF25C0CD
:104C30008091E100877F8093E10082E080932303ED
:104C400010921F038091E1008E7F8093E10080919C
:104C5000E2008E7F8093E2008091E2008061809389
:104C6000E20042E060E080E00E947A248091F0005F
:104C700088608093F0000E94E021FF91EF91BF9146
:104C8000AF919F918F917F916F915F914F913F91E4
:104C90002F910F900FBE0F901F9018951F920F929B
:104CA0000FB60F9211242F933F934F935F936F93FF
:104CB0007F938F939F93AF93BF93CF93DF93EF93A4
:104CC000FF93C091E900CF708091EC00D82FD17094
:104CD00080FDD0E81092E9008091F000877F8093FA
:104CE000F00078940E9492261092E9008091F000E2
:104CF00088608093F000CD2BCF70C093E900FF91C6
:104D0000EF91DF91CF91BF91AF919F918F917F9163
:104D10006F915F914F913F912F910F900FBE0F9028
:104D20001F9018951F93CF93DF93CDB7DEB7AA9747
:104D30000FB6F894DEBF0FBECDBFE4E2F3E0809182
:104D4000F100819323E0EC32F207C9F70E94EE21D3
:104D50008091E80083FF2EC1809124039091250368
:104D6000492F50E04A30510508F024C1FA01EC57B0
:104D7000FF4F0C942228803821F0823809F01AC1A4
:104D800008C08091200390912103992389F08260CB
:104D90000FC0809128038F70873008F00BC180937B
:104DA000E9008091EB0085FB882780F91092E900EB
:104DB0009091E800977F9093E8008093F100109223
:104DC000F100D1C0282F2D7F09F0F4C0882319F0FD
:104DD000823061F0EFC080912603813009F0EAC093
:104DE000933009F080E0809321032EC08091260348
:104DF00081112AC0809128038F702FEF280F263051
:104E000008F0D8C08093E9002091EB0020FF1CC07F
:104E1000933021F48091EB00806214C09091EB00FC
:104E200090619093EB0021E030E0A90102C0440FB3
:104E3000551F8A95E2F74093EA001092EA008091AC
:104E4000EB0088608093EB001092E9008091E8000D
:104E5000877F8093E8000E94AF24ACC08111AAC074
:104E6000109126031F778091E3008078812B809337
:104E7000E3008091E800877F8093E8000E94AF24E0
:104E80008091E80080FFFCCF8091E30080688093F0
:104E9000E300111102C082E001C083E0809323038C
:104EA00089C08058823008F085C080912603909197
:104EB00027038C3D53E0950779F583E08A838AE2E6
:104EC00089834FB7F894DE01139620E03EE051E26B
:104ED000E32FF0E050935700E49120FF03C0E295E8
:104EE000EF703F5FEF708E2F90E0EA3010F0C796C2
:104EF00001C0C0968D939D932F5F243149F74FBF1A
:104F00008091E800877F8093E8006AE270E0CE013C
:104F100001960E94BB2316C060912803709129035B
:104F2000AE014F5F5F4F0E94EA22BC01892B09F45A
:104F300041C09091E800977F9093E80089819A8121
:104F40000E9419248091E8008B778093E80032C09A
:104F5000803881F58091E800877F8093E800809118
:104F60001F038093F1008091E8008E7772CF81114A
:104F700021C0809126039091270399270297D4F4AA
:104F80008091E800877F8093E800809126038093DA
:104F90001F030E94AF2480911F03811106C08091DE
:104FA000E30087FD02C081E001C084E08093230319
:104FB0000E94E4218091E80083FF0AC08091E8000C
:104FC000877F8093E8008091EB0080628093EB0004
:104FD000AA960FB6F894DEBF0FBECDBFDF91CF917A
:104FE0001F9108950895CF93809123038823A1F002
:104FF000C091E900CF709091EC00892F817090FDF5
:1050000080E8C82B1092E9008091E80083FD0E949F
:105010009226CF70C093E900CF910895AA1BBB1BC5
:1050200051E107C0AA1FBB1FA617B70710F0A61BA8
:10503000B70B881F991F5A95A9F780959095BC01C9
:10504000CD010895EE0FFF1F0590F491E02D099416
:10505000FC014150504030F001900616D1F73197D5
:10506000CF010895882799270895F999FECF92BD19
:1050700081BDF89A992780B50895A6E1B0E044E093
:1050800050E00C946F28A8E1B0E042E050E00C94AE
:105090006F28262FF999FECF92BD81BDF89A01970E
:1050A00000B4021639F01FBA20BD0FB6F894FA9A70
:1050B000F99A0FBE08950396272F0E944A280E944E
:1050C0004928252F0E944A28242F0C944A2801960B
:1050D000272F0E944A280C944928DC01CB01FC01AF
:1050E000F999FECF06C0F2BDE1BDF89A319600B441
:0E50F0000D9241505040B8F70895F894FFCF4C
:1050FE0030303030300001D70100D80105D801DD45
:10510E000108DE01000000002800282801090A0B12
:10511E000C0D0E0F101112366670024F219C21528B
:10512E00219821862101E200E900EA00B500B600CF
:10513E00B700CD008301CC008A01920194012102B7
:10514E00230224022502260227022A02B300B400FB
:10515E006F00700081828394F4F5F6F731C6343314
:10516E0032000000000001020202020606060909D2
:10517E00090909090909090900FF0100010000FFD9
:10518E00FF0000010001FF00E200E900EA00B500A7
:10519E00B600B700CD008301CC008A0192019401C4
:1051AE002102230224022502260227022A02B3002C
:0A51BE00B4006F00700081828300CE
:00000001FF
