:100000000C9435060C947C060C947C060C943519E3
:100010000C947C060C947C060C947C060C947C0658
:100020000C947C060C947C060C94012E0C94D32E1C
:100030000C945D260C947C060C947C060C947C0637
:100040000C947C060C947C060C947C060C947C0628
:100050000C947C060C94B6260C947C060C947C06BE
:100060000C947C060C947C060C947C060C947C0608
:100070000C947C060C947C060C947C060C947C06F8
:100080000C947C060C947C060C947C060C947C06E8
:100090000C947C060C947C060C947C060C947C06D8
:1000A0000C947C060C947C060C947C063B113E114F
:1000B00043114A114F11541159115E116311681106
:1000C0006D117211761179118011801180118011DA
:1000D0007C118011901C901CC21CC21C0F1D2D1D78
:1000E000411E411E381DD11DE21DE21DE11EE11E13
:1000F000F31EF31EEA1EF31EF31EF31EE11EE11EA5
:10010000EF1EF31EF31EEF1E402F672F5F30672F89
:100110005F30B32FD62F5F302D303C30808182830B
:100120008485868788898A8B8C8D8E8F9091929317
:1001300094A0A1A2A3A4A5A6A7A8A9AAABACADAE62
:10014000AFB0B1B2B3B4C0C1C2C3C4C5C6C7C8C9D9
:10015000CACBCCCDCECFD0D1D2D3D4004350534C88
:100160004B0000556E6465660033726400326E6445
:1001700000464E00317374004C41594552000057FF
:10018000494E004D414300004D4F444500002900B9
:100190001E001F0020002100220023002B0014005D
:1001A0001A000800150017000000E0000400160007
:1001B000070009000A000000E1001D001B00060006
:1001C000190005000000E0000151E30000002C00D0
:1001D0002C00125024002500260027002D002E00A0
:1001E00031001C0018000C00120013002F0030001A
:1001F0000B000D000E000F003300340028000B0030
:100200000D000E000F0033003400015112502C007D
:100210002C00E700E60035002A0001003A003B0010
:100220003C003D003E003F0039000100C25CC55C5F
:10023000C75CC95C000001000100C35CC65CC85C0F
:10024000CA5C000001000100010001000100010082
:100250000000010001000100000001000100010098
:1002600040004100420043004400450049000100B5
:100270000100460047004800520001000100010053
:100280004A004B0050004F000100010001004A00ED
:100290004B0050004F00010001000100010001006F
:1002A00001004C00010029001E001F002000210059
:1002B000220023002B0014001A000800150017006C
:1002C0000000E00004001600070009000A0000001A
:1002D000E1001D001B000600190005000000E00001
:1002E000E200E30000002C002C0013502400250045
:1002F000260027002D002E0031001C0018000C00E5
:10030000120013002F0030000B000D000E000F0034
:100310003300340028000B000D000E000F003300E6
:100320003400270013502C002C00E700E6003500B5
:100330002A0029001E001F002000210022002300A7
:100340002B0014001A000800150017000000E00040
:1003500004001600070009000A000000E1001D006B
:100360001B000600190005000000E000E200E300A9
:1003700000002C002C00105024002500260027002F
:100380002D002E0031001C0018000C00120013007C
:100390002F0030000B000D000E000F003300340062
:1003A00028000B000D000E000F0033003400270062
:1003B00010502C002C00E700E60035002A0032190E
:1003C0000A783C1E1E140A052223252628292A2CD9
:1003D0002D2F3032333536383A3B3D3E404243458F
:1003E00047494A4C4E5051535557595A5C5E6062CA
:1003F000646668696B6D6F71737577797B7D7F81DA
:10040000838587898A8C8E90929496989A9C9E9FD9
:10041000A1A3A5A7A8AAACAEAFB1B3B4B6B8B9BBF7
:10042000BCBEBFC1C2C3C5C6C7C9CACBCCCDCED066
:10043000D1D2D2D3D4D5D6D7D7D8D9D9DADADBDB53
:10044000DBDCDCDCDCDCDDDDDDDDDCDCDCDCDCDBEA
:10045000DBDBDADAD9D9D8D7D7D6D5D4D3D2D2D133
:10046000D0CECDCCCBCAC9C7C6C5C3C2C1BFBEBC26
:10047000BBB9B8B6B4B3B1AFAEACAAA8A7A5A3A197
:100480009F9E9C9A98969492908E8C8A8987858359
:10049000817F7D7B79777573716F6D6B6968666439
:1004A00062605E5C5A5957555351504E4C4A494709
:1004B000454342403E3D3B3A3836353332302F2DAE
:1004C0002C2A292826252322FFAA7F554000010136
:1004D0000101010101010102020202020202020203
:1004E00003030303030303030404040404040405D3
:1004F0000505050506060606060707070707080897
:100500000808090909090A0A0A0B0B0B0C0C0C0D47
:100510000D0D0E0E0E0F0F0F1010111111121213E0
:10052000131414151516161717181819191A1A1B5B
:100530001B1C1D1D1E1E1F202021222223242425BA
:100540002626272829292A2B2C2D2D2E2F303132F3
:1005500032333435363738393A3B3C3D3E3F404103
:1005600042434445464748494A4C4D4E4F505153EB
:1005700054555658595A5B5D5E5F616264656668A2
:10058000696B6C6D6F7072737577787A7B7D7E8026
:1005900082838587888A8C8E8F91939596989A9C72
:1005A0009EA0A2A3A5A7A9ABADAFB1B3B5B7BABC86
:1005B000BEC0C2C4C6C9CBCDCFD1D4D6D8DBDDDF57
:1005C000E2E4E7E9EBEEF0F3F5F8FAFDFF00AE0048
:1005D000AF00DA02818FD9F1DB40A4A62EAF00A0D4
:1005E000C000A1C800AED580A81FD300408D142044
:1005F000000000000000003E5B4F5B3E003E6B4F82
:100600006B3E001C3E7C3E1C00183C7E3C18001CCF
:10061000577D571C001C5E7F5E1C0000183C1800B4
:1006200000FFE7C3E7FF00001824180000FFE7DB26
:10063000E7FF0030483A060E0026297929260040B7
:100640007F05050700407F05253F005A3CE73C5ADF
:10065000007F3E1C1C0800081C1C3E7F0014227FEB
:100660002214005F5F005F5F0006097F017F0000CA
:100670006689956A0060606060600094A2FFA29441
:100680000008047E04080010207E20100008082ABC
:100690001C0800081C2A0808001E10101010000C6E
:1006A0001E0C1E0C0030383E383000060E3E0E0682
:1006B0000000000000000000005F000000000700D4
:1006C000070000147F147F1400242A7F2A120023BD
:1006D00013086462003649562050000008070300E2
:1006E00000001C224100000041221C00002A1C7F47
:1006F0001C2A0008083E080800008070300000082E
:1007000008080808000000606000002010080402CB
:10071000003E5149453E0000427F40000072494979
:100720004946002141494D33001814127F1000271B
:1007300045454539003C4A494931004121110907E5
:1007400000364949493600464949291E000000142F
:100750000000000040340000000008142241001492
:10076000141414140000412214080002015909064F
:10077000003E415D594E007C1211127C007F4949B8
:100780004936003E41414122007F4141413E007FC8
:1007900049494941007F09090901003E414151731E
:1007A000007F0808087F0000417F41000020404191
:1007B0003F01007F08142241007F40404040007FFD
:1007C000021C027F007F0408107F003E4141413E31
:1007D000007F09090906003E4151215E007F091989
:1007E00029460026494949320003017F0103003FA1
:1007F0004040403F001F2040201F003F4038403F06
:100800000063140814630003047804030061594969
:100810004D4300007F4141410002040810200000C8
:100820004141417F00040201020400404040404039
:10083000000003070800002054547840007F28443B
:10084000443800384444442800384444287F003861
:10085000545454180000087E09020018A4A49C787F
:10086000007F080404780000447D400000204040E0
:100870003D00007F102844000000417F4000007CC4
:1008800004780478007C0804047800384444443830
:1008900000FC182424180018242418FC007C0804E8
:1008A00004080048545454240004043F4424003CE9
:1008B0004040207C001C2040201C003C4030403C3C
:1008C000004428102844004C9090907C00446454CC
:1008D0004C44000008364100000000770000000092
:1008E00041360800000201020402003C2623263C97
:1008F00000FFFFFFFFFFFFFFFFFFFFFFFFFFFFFF07
:10090000FFFFFFFFFFFFFFFFFFFFFFFFFFFFFFFFF7
:10091000FFFFFFFFFFFFFFFFFFFFFFFFFFFFFFFFE7
:10092000FFFFFFFFFFFFFFFFFFFFFFFFFFFFFFFFD7
:10093000FFFFFFFFFFFFFFFFFFFFFFFFFFFFFFFFC7
:10094000FFFFFFFFFFFFFFFFFFFFFFFFFFFFFFFFB7
:10095000FFFFFFFFFFFFFFFFFFFFFFFFFFFFFFFFA7
:10096000FFFFFFFFFFFFFFFFFFFFFFFFFFFFFFE0B6
:10097000F0F0F0E0ECEEF7F37020007C7C7C7E0081
:100980007E7E7E7F7F7F000080C0E07E5B4F5BFECF
:10099000C00000C000DCD7DEDEDED7DC00C0000017
:1009A0000000000000000000000000000000000047
:1009B00000FFFFFFFFFFFFFFFFFFFFFFFFFFFFFF46
:1009C000FFFFFFFFFFFFFFFFFFFFFFFFFFFFFFFF37
:1009D000FFFFFFFFFFFFFFFFFFFFFFFFFFFFFFFF27
:1009E000FFFFFFFFFFFFFFFFFFFFFFFFFFFFFFFF17
:1009F000FFFFFFFFFFFFFFFFFFFFFFFFFFFFFFFF07
:100A0000FFFFFFFFFFFFFFFFFFFFFFFFFFFFFFFFF6
:100A1000FFFFFFFFFFFFFFFFFFFFFFFFFFFFFFFFE6
:100A2000FFFFFFFFFFFFFFFFFFFFFFFFFFFFFF0FC6
:100A30001F3F7F7F7F7F7F3F1E0C001F1F1F3F00D8
:100A40003F3F3F7F7F7F00307B7F783020203078B2
:100A50007F3B0003000F7F0F0F0F7F0F000300008D
:100A60000000000000000000000000000000000086
:100A700000FFFFFFFFFFFFFFFFFFFFFFFFFFFFFF85
:100A8000FFFFFFFFFFFFFFFFFFFFFFFFFFFFFFFF76
:100A9000FFFFFFFFFFFFFFFFFFFFFFFFFFFFFFFF66
:100AA000FFFFFFFFFFFFFFFFFFFFFFFFFFFFFFFF56
:100AB000FFFFFFFFFFFFFFFFFFFFFFFFFFFFFFFF46
:100AC000FFFFFFFFFFFFFFFFFFFFFFFFFFFFFFFF36
:100AD000FFFFFFFFFFFFFFFFFFFFFFFFFFFFFFFF26
:100AE000FFFFFFFFFFFFFFFFFFFFFFFFFFFFFF0015
:100AF00000000000000000000000000000000000F6
:100B000000000000000000000000000000000000E5
:100B100000000000000000000000000000000000D5
:100B200000000000000000000000000000000000C5
:100B3000000403300000000A037200650036003430
:100B400000000012036B0075007300680069006DFF
:100B5000006100380000000403090409023B0002A0
:100B60000100A0FA0904000001030101000921119C
:100B70000100012240000705810308000A09040161
:100B8000000103000000092111010001228100077A
:100B900005820320000A1201100100000008383904
:100BA000343601000102030105010902A101850299
:100BB0000901A1000509190129051500250195055F
:100BC0007501810295017503810105010930093123
:100BD0001581257F95027508810609381581257FC5
:100BE000950175088106050C0A38021581257F9547
:100BF0000175088106C0C005010980A1018503199E
:100C0000012AB700150126B700950175108100C0B3
:100C1000050C0901A101850419012AA0021501266C
:100C2000A002950175108100C005010906A101050A
:100C30000719E029E715002501950875018102953E
:100C400001750881010507190029FF150026FF001D
:100C50009506750881000508190129059505750196
:100C60009102950175039101C00011241FBECFEFC1
:100C7000DAE0DEBFCDBF04B603FE27C080911F07B8
:100C800090912007A0912107B09122078730904BC7
:100C9000A740B04BD1F410921F071092200710927A
:100CA00021071092220714BE84B7877F84BF0FB636
:100CB000F894A895809160008861809360001092FC
:100CC00060000FBEE0E0F8E3099511E0A0E0B1E0BC
:100CD000E2EFF3E602C005900D92A83EB107D9F706
:100CE00027E0A8EEB1E001C01D92AF31B207E1F7F5
:100CF0000E94302B0C94F7310C940000CF93C82F36
:100D00000E94350B811102C08C2F01C083E0CF916E
:100D100008950E94350B60E0882309F459C08DE8DE
:100D200091E00E942C1460E088E891E00E942C146D
:100D300060E087E891E00E942C148091110760E048
:100D400080FF03C083E891E002C08FE791E00E943A
:100D50002C1460E08EE791E00E942C1460E088E79C
:100D600091E00E942C146091FB037091FC03809130
:100D7000FD039091FE030E94C224813069F040F08F
:100D8000823081F0833091F460E089E691E007C021
:100D900060E084E791E003C060E081E791E00E94B9
:100DA0002C1409C060E08DE691E0F9CF60E083E6A5
:100DB00091E00E941A1460E082E691E00E942C14F7
:100DC0000E94591A81FB662760F98CE591E002C008
:100DD0008CE191E00C941A14CF93C62F811115C0A9
:100DE0006091FB037091FC038091FD039091FE03E1
:100DF0000E94C224813031F010F0843028F5CC23D9
:100E0000C9F016C0CC23E1F019C08130E9F460913B
:100E1000FB037091FC038091FD039091FE030E94FF
:100E2000C224813049F010F0843070F4C11102C046
:100E30008AEF07C089EF05C0C11102C081E501C07A
:100E400082E5CF910C94351CCF91089581E00895EF
:100E500081E008950C94280708950C942C071F93A3
:100E6000CF93DF9300D000D01F92CDB7DEB7498378
:100E70005A836B833091950389819A81311114C013
:100E8000662359F0222349F00E949D23182F682FD2
:100E900089819A810E94462303C00E947123182FE2
:100EA00069817A81812F04C00E949D2369817A81A2
:100EB0000F900F900F900F900F90DF91CF911F9197
:100EC0000C94E307FC01262F4081518162817381DC
:100ED00084810C942F07CF93DF93EC0160E00E9494
:100EE0006207BE01DF91CF910C942D070E9412255D
:100EF000811102C00E94B2250C94E1090C94DD0915
:100F000008950C94800781E008950C948307CF9393
:100F1000C82F0E9481078C2F0E948507CF910895CA
:100F200008950E94CF1E0E9490072FEF84E39CE05B
:100F3000215080409040E1F700C000000C94DC2676
:100F40000F931F93CF93DF93EC0161E00E94620740
:100F50008C01BE010E942A07882379F1BE01C801D5
:100F60000E940116882349F1BE01C8010E94421661
:100F7000882319F1BE01C8010E946D178823E9F08A
:100F8000BE01C8010E9424118823B9F08A818823F8
:100F900069F001158CE5180731F00E3D1C4531F460
:100FA0000E94B2250AC00E94910707C0CE01DF91BE
:100FB000CF911F910F910C94260780E0DF91CF9184
:100FC0001F910F91089526E4829FC0011124FC0116
:100FD00027E0729FE00DF11D1124E60FF11DEE0FC9
:100FE000FF1FE257FE4F859194910895CF93DF93B1
:100FF0000E94E3070E94F808EC01811521E59207A1
:1010000008F043C0811540E5940708F08AC0883E87
:10101000910520F5803E910508F0E6C0883A9105DB
:1010200070F4853A910508F074C08130910509F497
:10103000DBC008F4D7C0049708F0D6C0D3C08F3BFC
:10104000910508F0CFC0C85AD0E0CC0FDD1FCD5BB2
:10105000DE4F0990D881C02DD464C6C0C11580E28E
:10106000D80758F4C11521E0D20708F0BDC0C03F31
:10107000D10508F4B7C0D065B7C0C11540E4D407A6
:1010800008F4B0C0DF70D06AAFC0C11585E5D807DD
:10109000A0F4C11524E5D20708F08AC0C11543E5C4
:1010A000D40708F06FC0C11582E5D80708F054C016
:1010B000DC2FCC27C16FD06A97C0C11529E5D207B4
:1010C000A0F4C11548E5D40708F077C0C11586E53E
:1010D000D80708F087C08C2F0E948C098F71C82F09
:1010E000D0E0DC2FCC27D0627FC0C1152AE5D20723
:1010F00008F468C0CE0190568115904208F072C085
:101100008D2F8F710E948C09DD27D0628F71D82BB3
:101110006BC0C55AD0E0CF58DE4FC881D0E0D06454
:1011200063C074E0969587957A95E1F783709C2F5C
:10113000937021E030E002C0220F331F9A95E2F74E
:101140003C68382BCF70C695C69580E2C89FE001F9
:101150001124C22BD32B48C0CE018370992721E0E4
:1011600030E002C0220F331F8A95E2F78C2F86955C
:10117000869540E2849FC0011124E901C82BD92B38
:10118000DC6832C0CE018370992721E030E002C0D4
:10119000220F331F8A95E2F78C2F8695869540E2C1
:1011A000849FC0011124E901C82BD92BDA681CC027
:1011B000DC2FCC27C46FD06A17C0DC2FCC27C06FC0
:1011C000D06A12C08C2F8F700E948C0994E0D69543
:1011D000C7959A95E1F7CF70D0E0DC2FCC27D06986
:1011E000C82B02C0C0E0D0E0CE01DF91CF910895BE
:1011F0008238910569F1B0F48133910509F46DC02D
:1012000048F48932910509F463C08A32910509F4E2
:1012100069C008958533910509F455C08933910556
:10122000B9F00895833E910569F138F4803E910547
:10123000B1F0823E910509F10895863E9105A9F12C
:10124000873E9105B9F1843E910509F064C023C041
:101250002091100720FD4FC021FD4DC008958091C1
:10126000100780FD44C08091110780FF44C0809129
:10127000100784FD42C083EE4DC08091100782FFAD
:1012800038C0F5CF8091100782FD33C080911107DF
:1012900080FD31C0ECCF8091110781FF32C0809179
:1012A000100784FD2AC087EE35C08091100783FFA8
:1012B00026C0F5CF8091100783FD21C080911107D2
:1012C00081FD1FC0ECCF8091100785FD1CC01DC0A3
:1012D0008091100785FD19C016C08091100786FD0A
:1012E00016C017C08091100786FD13C010C089E397
:1012F00011C082EE0FC080EE0DC080E00BC086EE04
:1013000009C084EE07C089E205C085E303C08AE214
:1013100001C081E390E008959091100792FF0DC005
:10132000282F2871283019F4877F846006C0282F61
:101330002471243011F48B7F886093FF0DC0282F17
:101340002871283119F4877E846106C0282F247102
:10135000243111F48B7E88612091110720FF0DC08C
:10136000382F3871383019F4877F816006C0382FE4
:101370003171313011F48E7F886021FF0DC0282F2C
:101380002871283119F4877E816106C0282F2171C8
:10139000213111F48E7E886194FD877E0895E82FB7
:1013A000F0E0EB5CFB4F80810895089580EA8A9518
:1013B000F1F7089508950C94DA090C94DB090C9464
:1013C000DA090C94DF090895CF93DF930E94540B40
:1013D0008091040180910401811102C095E001C057
:1013E00090E09093400485E0891B80933F04ABE735
:1013F000B1E040E851E061E070E08D91E82FE295C6
:10140000EF70F0E021A18F70EB0102C0CC0FDD1F67
:101410008A95E2F7CE019C2F9095922391A392A1F9
:10142000892B82A34A175B0741F7A4E7B1E04BE79A
:1014300051E061E070E08D91E82FE295EF70F0E00F
:1014400021A18F70EB0102C0CC0FDD1F8A95E2F75E
:10145000CE019C2F9095922391A392A1892B82A3D8
:101460004A175B0741F7EBE2F4E0A5E3B4E085E35C
:1014700094E011921D928E179F07D9F785E00E9484
:10148000FE0A0E947607DF91CF910C94690B0E94AF
:10149000350B882309F180913F0490E08B5C9B4FD2
:1014A0000E94990B811114C08091E8018F5F809395
:1014B000E801863078F0E0913F04F0E0EB5CFB4F10
:1014C00080E090E01192019685309105D9F702C035
:1014D0001092E8010C947E078091400490E08B5CB0
:1014E0009B4F0E94BC0B0C94E3096F927F928F92EA
:1014F0009F92AF92BF92CF92DF92EF92FF920F93A3
:101500001F93CF93DF938BE7882E81E0982E0BE219
:1015100014E090E3A92E94E0B92E712CCC24C3944E
:10152000D12CF40181914F01C82FC295CF70D0E02A
:1015300099A18F70760101C0EE0C8A95EAF7892F88
:101540008E2989A38AA16E2C609486218AA30E9489
:10155000D609E4E7F1E040E050E020E03191A32F2C
:10156000A295AF70B0E090968C9190E03F7002C071
:10157000959587953A95E2F780FD07C08C2D042E4E
:1015800001C0880F0A94EAF701C080E0282B4F5F62
:101590005F4F4730510511F789A1682269A28AA1DE
:1015A000E82AEAA2F8018081281719F0208381E057
:1015B00001C080E0782A0F5F1F4FA016B10609F026
:1015C000B0CF6091400470E06B5C7B4F272D45E00D
:1015D0008BE294E00E94FF0A0E94470A872DDF9168
:1015E000CF911F910F91FF90EF90DF90CF90BF9020
:1015F000AF909F908F907F906F9008950895FF9285
:101600000F931F93CF93DF938C01F62ED72FC42F08
:10161000222349F081E08093EB010E948F26909372
:10162000EA018093E9018091EB018823C1F0809168
:10163000E9019091EA010E94A726069780F0EF2D1C
:10164000FD2FD8014C2F50E0CD01801B910B84174A
:1016500095071CF48D918193F7CF1092EB01DF91E8
:10166000CF911F910F91FF9008958091EC0181110E
:1016700012C08091D80080618093D8008AE18A9559
:10168000F1F700C08091D90080FD02C082E001C066
:1016900081E08093EC0181E09091EC01913009F0C0
:1016A00080E008950C94350B0E94520B8093040146
:1016B00080910401882319F06EE180E002C062E2AB
:1016C0008EE10E94610C0E94350B81110C94700B0D
:1016D00008950E94350B811102C00C94760B089579
:1016E00062E070E085E091E00C94E31862E070E065
:1016F00085E091E00C94EC180E94230F882361F0A0
:1017000085EF91E00E94290F81E090E00E94C519C9
:10171000892B11F40C94260F08958091F4018830E0
:1017200039F460E085EF91E00E9401101092F4011D
:101730000895CF93DF93D82FC92F0E947C0B80E0B0
:1017400090E00E94C519892B99F4ED2FFC2F80E0C1
:1017500090E0DC01A251BE4F2C912193019685307F
:101760009105B9F783EF91E00E94841281E001C0F6
:1017700080E0DF91CF910895CF93DF93D82FC92FC9
:101780000E948D0BED2FFC2F80E090E02191DC0179
:10179000A251BE4F2C93019685309105B9F783EF86
:1017A00091E0DF91CF910C947B12EF92FF920F9317
:1017B0001F93CF93DF93F62E472FE82FF0E07111A0
:1017C00006C0E353FB4F6491762F862F72C0272FFC
:1017D00030E0E353FB4FE4910E2F10E056E0659F9D
:1017E000C0011124CFEFD0E0BE010E949F305BEA20
:1017F0005603C001579F900D11248F0D911D8F0D21
:10180000911D982F990F890F7E01E21AF30AE09E2D
:10181000D001E19EB00DF09EB00D1124489FA001B3
:101820001124452F55277E01E41AF50AE09EA001F8
:10183000E19E500DF09E500D11247E01E81AF10832
:10184000E29EC001E39E900DF29E900D1124892F1F
:101850009927C81BD90BC09FC001C19F900DD09F75
:10186000900D11246230710591F048F461157105F5
:10187000E1F061307105A9F48B2F752F19C0643028
:10188000710561F038F06630710579F00AC0892F72
:101890007B2F0EC08E2F7B2FE52F0AC08E2F792F26
:1018A00002C0852F7E2FEB2F03C08B2F7E2FE92FB9
:1018B0006E2FDF91CF911F910F91FF90EF900895C0
:1018C0000895E5E1F1E0808361830895CF93DF938C
:1018D000762FE901682F842F0E94D50B79836883C6
:1018E0008A83DF91CF910895473908F046E90C9437
:1018F000660C80914104282F269530E02115310592
:1019000019F48170826005C02931310524F081709D
:1019100080638093410480914404873918F086E9FC
:1019200080934404089588E090E00C945431CF9261
:10193000DF92EF92FF926B017C010E94790CB7015C
:10194000A60188E090E0FF90EF90DF90CF900C949C
:101950007231E1E4F4E083E0808311828FEF8283CF
:1019600086E983831482A7E4B3E012968C911297E0
:10197000836012968C9360817181828193810C9433
:10198000970C8091410480FF02C08695089580E005
:10199000089580914504833018F48F5F8093450447
:1019A00060914104709142048091430490914404F9
:1019B0000C94970C80914504882319F081508093F2
:1019C00045046091410470914204809143049091D8
:1019D00044040C94970C70E00C94851160911601EE
:1019E0008091410480FF0AC08091150123E0829F0D
:1019F000C00111248A5B9B4F0C94EB0C8091170162
:101A000090911801891780F7E82FF0E09F01220FCD
:101A1000331FE20FF31FEA5BFB4F11821082128229
:101A20008F5FF0CF9091410490FF16C09091170105
:101A300020911801921770F4E92FF0E0DF01AA0F4E
:101A4000BB1FEA0FFB1FEA5BFB4F8183608342836E
:101A50009F5FF0CF0C94EE0C0895CF93DF9300D0EE
:101A60001F92CDB7DEB79091410490FF0AC09E014E
:101A70002F5F3F4F0E94740C4B8169818A810E94C5
:101A8000120D0F900F900F90DF91CF910895CF938B
:101A9000DF93EC01EC81F0E0E853FC4F4491E1E48A
:101AA000F4E0628181810E942D0D8C818F5F8C8397
:101AB000DF91CF910895CF93DF93EC01E1E4F4E05F
:101AC000438162818C810E942D0D8C818F5F8C837C
:101AD000DF91CF910895AF92BF92CF92DF92EF92B4
:101AE000FF920F931F93CF93DF9300D01F92CDB738
:101AF000DEB7182FF62E042FE22E8091410480FFCE
:101B00007CC0E82FE695AE2FB0E0AB57BE4F9C915E
:101B1000909347038E7F823061F49E012F5F3F4F89
:101B2000812F0E94740C4B8169818A810E94120D61
:101B300041C0923019F4009144043CC0963019F42D
:101B40001091420437C09930A9F5E9508E2F817069
:101B5000D82EE695F0E0E853FB4FA590B490C12C49
:101B6000BB2460911901C61618F52C2D30E0A29EF9
:101B7000C001A39E900DB29E900D112470E00E94B2
:101B80009F30812FD11002C0860F01C0861B90911B
:101B90001701290F311DA901440F551F240F351FAF
:101BA0002A5B3B4F402F6F2D0E94740CC394D9CFFA
:101BB0000E94EE0C80914204181308C080914304E7
:101BC000F81204C080914404081729F08091490359
:101BD00082608093490310934204F092430400937F
:101BE0004404EE2051F060914104709142048091D0
:101BF0004304909144040E94970C0F900F900F9013
:101C0000DF91CF911F910F91FF90EF90DF90CF90D8
:101C1000BF90AF900895E1E4F4E09181282F4381D3
:101C2000628188E0890F0C946B0D81E00C940B0E9F
:101C3000E1E4F4E09181282F4381628188EF890FEC
:101C40000C946B0D81E00C94180EE1E4F4E06281D9
:101C500021E1620F08F46FEF282F438181810C94FA
:101C60006B0D81E00C94250EE1E4F4E0628121E14A
:101C7000621B08F460E0282F438181810C946B0D76
:101C800081E00C94340EE1E4F4E0438121E1420F61
:101C900008F44FEF282F628181810C946B0D81E055
:101CA0000C94430EE1E4F4E0438121E1421B08F48B
:101CB00040E0282F628181810C946B0D81E00C94AF
:101CC000520E20E00C946B0D8F929F92AF92BF92B8
:101CD000CF92DF92EF92FF920F931F93CF93DF93F8
:101CE000FC01B280948081E0848300E015E05BE435
:101CF000A52E88248394EE24EA94F12C7BE4C72E4D
:101D0000D12C80911901081708F08FC0C02FD0E0A6
:101D10001C9FF0011D9FF00D1124E050FE4F91100B
:101D200003C01382128267C02381222389F12150CC
:101D300023833481332319F09A2D921B01C0922FF3
:101D4000809144041C9FF0011D9FF00D1124E05070
:101D5000FE4F899FC0011124B6010E949F3062830B
:101D6000211104C0332311F01482A38222E02B1529
:101D700008F441C01C9FF0011D9FF00D1124E0509C
:101D8000FE4F80914204808380914304818333C05D
:101D90000E9419318230914074F582E08B1530F445
:101DA0000E941931B7010E94B33002C080914204F1
:101DB0001C9FF0011D9FF00D1124E050FE4F808309
:101DC00022E02B1558F40E941931209143042695E6
:101DD000622F70E00E94B330820F02C080914304F2
:101DE0001C9FF0011D9FF00D1124E050FE4F8183D8
:101DF0001282A3828482809117019E01280F311DD7
:101E0000C901880F991F280F391F2A5B3B4F1C9F60
:101E1000F0011D9FF00D1124E050FE4F42816181C1
:101E200080810E94740C0F5F6CCFDF91CF911F9166
:101E30000F91FF90EF90DF90CF90BF90AF909F9069
:101E40008F900C94EE0C80914903089510924903F1
:101E5000089525E0E1E4F4E0DC0101900D922A957B
:101E6000E1F7209147033091480340914903FC0179
:101E7000258336834783089560914104669570E019
:101E80004BE050E08AE191E00E943231892B19F455
:101E900081E0809348030E948F26909341038093B2
:101EA0004003809149038460809349030895E7E4E7
:101EB000F3E01182828184608283089590914104CD
:101EC00090FF3AC09170811102C0926006C08931C2
:101ED00010F0906302C0880F982B9093410480917A
:101EE0004903816080934903662351F06091410466
:101EF0007091420480914304909144040E94970C95
:101F000060914104669570E04BE050E08AE191E019
:101F10000E943231892B19F00E94570F02C00E9493
:101F20003C0F81E08093430340914404609143045B
:101F3000809142040C94610E0895682F90914104A1
:101F4000969581E0890F893108F081E00C945E0F4D
:101F500081E00C949D0F682F9091410496958FEF2E
:101F6000890F09F488E10C945E0F81E00C94AB0FAB
:101F700061E00C945E0FE1E4F4E080818160808395
:101F800086950C94B80F60E00C945E0FE1E4F4E0E9
:101F900080818E7F808360817181828193810E94A4
:101FA000970C0E94570FE7E4F3E0828181608283FF
:101FB0002FEF80E792E0215080409040E1F700C091
:101FC00000000C94EE0C8091410480FD0C94C60F2F
:101FD0000C94BB0FE1E4F4E080818E7F80830E944B
:101FE000570FE7E4F3E08281816082832FEF80E77F
:101FF00092E0215080409040E1F700C000000C9436
:10200000EE0C1F93CF93DF93EC01162F8F8180FF8F
:102010000FC0888180FF0AC0809141048160809355
:102020004104888186950E945E0F02C00E94EA0FDB
:102030008F8181FF06C0212F4B816A8189810E9497
:102040006B0D8F8182FF08C08E81882319F00E945A
:102050003C0F02C00E94570F8F8183FF03C081E0B5
:1020600080934303DF91CF911F91089580914603A0
:10207000811133C00E941225811104C00E94B22533
:102080000E94A90C0E94930C609341047093420437
:102090008093430490934404809149038360809328
:1020A00049036E7F61F40E94A90C0E94930C609317
:1020B00041047093420480934304909344040E942B
:1020C000790C0E94570F8091410480FF03C08695D0
:1020D0000E94C30F81E0809346030895EF92FF9220
:1020E0000F931F93CF93DF9380914803882309F4C4
:1020F00089C090914703E0914104E6958E2F891B9A
:1021000080934203923051F4E82FF0E0EC53FC4FFF
:10211000E491CE2FD0E007E41DE01FC0963051F4CB
:10212000E82FF0E0EF53FC4FE491CE2FD0E00BE529
:102130001DE013C0933169F463E00E949330E92FEE
:10214000F0E0E254FC4FE491CE2FD0E004E61EE034
:1021500004C0C0EDD7E000E61CE080914303882373
:1021600089F0109243030E948F269E01209530959E
:10217000820F931F90934103809340031092450375
:102180001092440380914003909141030E94A7263E
:102190008C179D07B8F18091FF018823B1F0109250
:1021A000FF018091FD019091FE010E94A7268033DE
:1021B000954758F00E948F269093FE018093FD0171
:1021C00080914903886080934903E0904403F09034
:1021D0004503E0914003F0914103CE0FDF1FD09300
:1021E0004103C093400380E493E0F8010995809196
:1021F000440390914503892B29F4EF2819F081E0DD
:102200008093FF01DF91CF911F910F91FF90EF908D
:102210000895882311F0FA0101C0FB010994CF93BE
:10222000DF93C82FD62F0E94C10C8C1740F00E945C
:10223000C10C8D1720F4DF91CF910C94A80F8C2F37
:10224000DF91CF910C94B80F1F93CF93DF93FB01D5
:102250001281111155C0EC010E941E248272FE01F0
:10226000E25CFC45E431F10520F4EA5AFF4F0C949E
:10227000C73011E045C00E94E30F42C045EB5FE06C
:1022800068EA7FE004C048EA5FE065EB7FE00E9417
:10229000091136C042E25EE065E17EE0F8CF45E13B
:1022A0005EE062E27EE0F3CF40E45EE061E37EE088
:1022B000EECF41E35EE060E47EE0E9CF4EE55EE034
:1022C0006FE47EE0E4CF4FE45EE06EE57EE0DFCFDA
:1022D0004AED5CE069EC7CE0DACF49EC5CE06AED69
:1022E0007CE0D5CF81E00E94B80F0AC065E082E0B3
:1022F00005C068E086E002C062E189E00E940F113B
:10230000812FDF91CF911F910895539A2BB1277F91
:102310003BB138604FB7F894FC01CB01880F991F8F
:10232000680F791F6E0F7F1FE617F70789F08191FD
:1023300098E03BB9000000C087FF2BB9880F000070
:1023400000C000C000C02BB900C09A9591F7ECCF37
:102350004FBF8FE594E00197F1F700C000000895AA
:102360000C94EC0680910401882309F447C0209165
:102370002601A22FA295AF70B0E091963C91919763
:102380002F7081E090E0AC01022E01C0440F0A944E
:10239000EAF7542F5095352391963C939197929656
:1023A0003C919297432B92964C93929740912501A2
:1023B000E42FE295EF70F0E031A14F70042E01C0E0
:1023C000880F0A94EAF7982F9095932391A392A1EE
:1023D000892B82A390968C9190E002C09595879569
:1023E0002A95E2F7817020A130E002C0359527954B
:1023F0004A95E2F720FD09C090E008C086E380938B
:10240000260186E680932501B2CF92E0892B809346
:102410004F039091040181E0982790934B03891B0F
:1024200080934A030895CF93E0914F035E2F550F99
:10243000550F20912601E22FE295EF70F0E080A188
:1024400090E02F7002C0959587952A95E2F78170EC
:10245000992740912501E42FE295EF70F0E020A14B
:1024600030E04F7002C0359527954A95E2F7F901A3
:10247000E170FF2720FF02C0E2E0F0E0E82BF92B3B
:10248000E52BE0934F03C0914B03EF70F0E0E25671
:10249000FE4F908180914E03890F80934E038430CC
:1024A0006CF0EC2F0C2E000CFF0BE45BFC4F8081DA
:1024B0008F5F808360E08C2F0E94B01180914E036B
:1024C0008D3F6CF4EC2F0C2E000CFF0BE45BFC4FEB
:1024D00080818150808361E08C2F0E94B0118091B7
:1024E0004E03837887FF03C081508C6F8F5F80938A
:1024F0004E03CF910895E0914B03F0E0E45BFC4F75
:102500002081FC0120830895FF920F931F93CF93A6
:10251000DF93D0914A030D2F10E0045B1C4FFC01A8
:10252000C081F8018081C81BFC2E1F1454F4FA945A
:10253000F80180818F5F808360E08D2F0E94B01151
:10254000F4CF8C2FC7FD80E0C81BCC2351F0CF5FA8
:10255000F80180818150808361E08D2F0E94B0114D
:10256000F4CFDF91CF911F910F91FF900895EF92DB
:10257000FF920F931F93CF93DF93EC017B0164E6EF
:1025800070E088E70E94A4178C01EC0EFD1ECE15AA
:10259000DF0561F017FD0AC0FE01849164E670E07A
:1025A0000E94FB178C012196892B89F30E947F18CA
:1025B000C801DF91CF911F910F91FF90EF90089587
:1025C000E6E0F5E080E092E0DF019C011D92215001
:1025D0003040E1F7F0930B07E0930A078FEF9FEF8E
:1025E00090937C0380937B0308950E947E068093E2
:1025F000770380FD02C080E801C080E2809376030B
:102600000E949E176DE070E084EE95E00E94B71284
:10261000892B11F080E008958091770363E070E0EA
:1026200081FD03C081EE95E002C08EED95E00E9431
:10263000B712892B79F76DE070E081ED95E00E948B
:10264000B712892B39F70E949B26DC01CB01805AF7
:102650009541AF4FBF4F8093060790930707A09314
:102660000807B09309070E94E01281E080937A0383
:10267000809379031092780308952091760336E0D1
:10268000839FC0011124629F800D911D112481152B
:1026900022E0920714F080E090E08A5F9A4F9093D6
:1026A0000B0780930A07089520910A0730910B07C2
:1026B0002050354040917603642F70E0C9010E949C
:1026C0009F30481B463010F4240F311D211582E045
:1026D000380710F020E030E02A5F3A4F30930B07C4
:1026E00020930A070895CF93DF938A3011F481E095
:1026F00003C08D3029F480E0DF91CF910C94E91371
:10270000C62F682F80910A0790910B0726E0FC01E5
:10271000A0E5B3E001900D922A95E1F7603E30F01C
:1027200026E0FC0111922A95E9F70AC0F6E06F9FB6
:10273000B00111246F507A4F46E050E00E942931D9
:10274000C11135C0C0910A07D0910B0746E050E097
:10275000BE0180E593E00E943F31892BB1F1C65064
:10276000D5409E0185E0369527958A95E1F781E071
:1027700090E0AC0102C0440F551F2A95E2F720916A
:102780007B0330917C03242B352B269645E0D69590
:10279000C7954A95E1F702C0880F991FCA95E2F7DD
:1027A000822B932B90937C0380937B030EC0E0914C
:1027B0000A07F0910B079F012A5F3F4F2E173F0733
:1027C00009F2808180958193F9CFDF91CF910C94AC
:1027D0005413CF93E82F20910A0730910B0726500E
:1027E000354040917603642F70E0C9010E949F300C
:1027F000481B842FEE2359F066E00E949330C82FC7
:10280000C150B0F060E080E20E947313F9CFA901DB
:10281000480F511D4115524018F080E020E030E093
:10282000280F311D2A5F3A4F30930B0720930A0778
:10283000CF9108951F93CF93DF93EC01162FFE01E4
:102840008491882329F0612F0E9473132196F7CF7A
:10285000DF91CF911F9108950E941A1481E00C948A
:10286000E9130E949B26DC01CB01805A9541AF4FB2
:10287000BF4F8093060790930707A0930807B09374
:1028800009078091790381110BC062E070E08FEC41
:1028900095E00E94B712892B19F481E080937903A7
:1028A0008091790308956F927F928F929F92AF9259
:1028B000BF92CF92DF92EF92FF920F931F93CF932D
:1028C000DF9320917B0330917C032115310509F4BE
:1028D000D4C0809178038111D0C061E070E0082FEE
:1028E00010E03B01082E02C0660C771C0A94E2F748
:1028F000A30142235323452B11F48F5FF0CF909116
:102900007703980165E0220F331F6A95E1F790FD88
:1029100012C08295880F807680932901220F232F81
:10292000221F330B319520932C01815E80932A0165
:1029300010922D0112C045E0369527954A95E1F792
:10294000220F220F220F2093290110922C01295FC0
:1029500020932A0183E080932D0124E630E047E0B4
:1029600050E067E271E088E70E942B18892B09F09C
:1029700084C08091770380FD23C0A80195E0440FB7
:10298000551F9A95E1F74A5F5A4F04E610E020E29E
:1029900030E060E488E70E945218892B09F06DC08E
:1029A0000E943114E301C095D09580917B039091F2
:1029B0007C03C823D923D0937C03C0937B035DC0E1
:1029C00080E2E6E5F3E0DF011D928A95E9F785E014
:1029D000000F111F8A95E1F7A2EBB1E04EEA51E03A
:1029E000992493942D91EA018991AE01B801680F61
:1029F000711D6A5F7A4F30E02A5A3C4FF90197E027
:102A00007F01E21AF30AA92C01C0AA0CEA94EAF7A2
:102A10007B01B12CE70189917E018A21892E8B18D7
:102A2000D82DD770CD2E0D2E000CDD08C82F01C07B
:102A3000CC0FDA95EAF7D194C194D108D7E0CD2232
:102A4000DD2401C08695CA94EAF78C2BD0808D29AD
:102A50008083B39488E0B812DDCF915031969F3FC8
:102A600079F6C1E0A63BBC0709F0BCCF04E610E054
:102A700020E230E046E553E08CCFDF91CF911F910B
:102A80000F91FF90EF90DF90CF90BF90AF909F900D
:102A90008F907F906F90089580917903882369F0DB
:102AA00062E070E08DEC95E00E94B712892B19F07E
:102AB000809179030895109279039091790381E0D0
:102AC000892708950F931F9380917A03882311F12A
:102AD00060E080E00E943D130E9489060E9453142A
:102AE000809179038823B1F00E949B26009106070C
:102AF000109107072091080730910907DC01CB01ED
:102B0000801B910BA20BB30BB7FD04C01F910F915B
:102B10000C944C151F910F9108950F931F93CF9311
:102B2000DF93C62FD42F122FFC0182818823C9F096
:102B300060937F030E948F2690937E0380937D0392
:102B400080E28C0F883008F057C0C77081E001C068
:102B5000880FCA95EAF7DF91CF911F910F910C94DE
:102B6000481C80917F03681330C080917D03909151
:102B70007E030E94A726883C910538F500E20D0FE0
:102B8000CD17B9F080E28C0F883040F4C77081E037
:102B900001C0880FCA95EAF70E944F1C083028F53B
:102BA00081E09D2F977001C0880F9A95EAF70E94E7
:102BB000481C812F0E94351C0830F0F4D77081E04A
:102BC00001C0880FDA95EAF70AC080E28C0F8830DE
:102BD00098F4C77081E001C0880FCA95EAF7DF91C9
:102BE000CF911F910F910C944F1C812FDF91CF91AA
:102BF0001F910F910C94351CDF91CF911F910F9174
:102C000008959C01CB01233F4CE53407F9F078F49B
:102C1000283DFCE53F07B9F0293D4CE5340711F1AB
:102C2000273D3C4531F526E241EE61EE1EC0253FD1
:102C3000FCE53F0799F070F0263F3C45D1F427E2D0
:102C400045EE66EE12C027E245EE0EC026E241EEEA
:102C500060EE0BC027E245EE64EE07C026E241EECF
:102C600062EE03C028E241E065EE0E948D1580E02F
:102C70000895FC018281882319F010927F03089542
:102C800081E00895CF93DF93EC01FB0182818823DB
:102C900009F41FC1C230FCE5DF0708F41BC1C631CF
:102CA0009CE5D90738F09E012A5F3C452930310563
:102CB00008F010C10E9425259093110780931007FA
:102CC000C031ECE5DE0709F4C3C008F041C0C830EC
:102CD0008CE5D80709F49AC0F0F4C430ECE5DE07BF
:102CE00009F487C068F4C2308CE5D80709F477C0CE
:102CF000C330DC4509F0E3C080911007826076C0E4
:102D0000C630ECE5DE0709F46EC008F07BC08091A8
:102D1000100788606BC0CC308CE5D80709F485C0FB
:102D200068F4CA30ECE5DE0709F474C008F079C035
:102D30000E94CF1E80911007806858C0CE308CE56D
:102D4000D80709F476C008F07FC0809110078BC0C7
:102D5000CB3FECE5DE0709F44FC018F5C3318CE535
:102D6000D80709F47DC078F4C131ECE5DE0709F439
:102D700073C0C231DC4509F0A2C00E94CF1E809111
:102D800010078F7733C0C5318CE5D80709F472C0BE
:102D900008F486C0CA3FDC4509F091C08091110754
:102DA0003EC0CF3FFCE5DF0709F45FC058F4CD3FDC
:102DB0009CE5D90709F444C008F43FC0809111078D
:102DC00082602DC0C130FDE5DF0709F475C008F44D
:102DD0005DC0C230DD4509F072C080E06EC08091F8
:102DE0001007816003C080911007806180931007F5
:102DF00066C08091100711C0809111078260809396
:102E000011075DC0809110078062F0CF809110079C
:102E10008064ECCF8091100788608460E7CF816088
:102E2000EECF809110078E7FE1CF809110078D7FCC
:102E3000DDCF80911007877FD9CF8091110718C00F
:102E4000809111078D7FDBCF809110078F7ECECFD1
:102E5000809110078F7DCACF809110078F7BC6CFDE
:102E600080911007877F8B7FC1CF809111078D7F65
:102E70008E7FC5CF8091100782FB222720F991E039
:102E8000922790FB82F990FB83F9B0CF80911107D4
:102E9000982F909591708E7F892B90FB81F9AFCF01
:102EA0000E94CF1E8091100787FB222720F991E016
:102EB000922790FB87F99ACF81E00E94B4258091F8
:102EC0001007909111070E9436250E94CF1E80E0C6
:102ED00001C081E0DF91CF910895CF93DF938631D8
:102EE0009C4541F5EB010E941E24982F8A81209178
:102EF0002E0130912F01882379F09A7A81E009F42C
:102F000080E080938003911102C069E201C065E313
:102F1000C9010E94FB250AC080918003811102C073
:102F200069E201C065E3C9010E94FD250E945F249A
:102F300080E001C081E0DF91CF9108951092B90047
:102F40008CE08093B8000895EF92FF920F931F9347
:102F5000CF93DF93182FEB011092BC0084EA80938B
:102F6000BC000E948F267C018091BC0087FD0EC0B2
:102F7000CF3F8FEFD807C1F30E948F268E199F098C
:102F80008C179D0788F38EEF9FEF2EC08091B900BC
:102F9000887F883041F08091B900887F803119F0B6
:102FA0008FEF9FEF21C01093BB0084E88093BC009B
:102FB0000E948F268C018091BC0087FD0CC0CF3F02
:102FC0008FEFD807C1F30E948F26801B910B8C17BF
:102FD0009D0788F3D8CF8091B900887F883111F0A0
:102FE0008034F1F680E090E0DF91CF911F910F9156
:102FF000FF90EF9008950F931F93CF93DF93EB0112
:103000008093BB0084E88093BC000E948F268C01D3
:103010008091BC0087FD0EC0CF3F8FEFD807C1F372
:103020000E948F26801B910B8C179D0788F38EEFD3
:103030009FEF0CC02091B900287F81E090E02832FA
:1030400011F480E090E0919581959109DF91CF9105
:103050001F910F910895CF92DF92EF92FF920F93FD
:103060001F93CF93DF936B018A017901B9010E940D
:10307000A417E6010C0D1D1DC017D10761F424E94A
:103080002093BC00DF91CF911F910F91FF90EF90A3
:10309000DF90CF90089597FDF2CFB70189910E94FC
:1030A000FB17EACFCF92DF92EF92FF920F931F931D
:1030B000CF93DF93C62F6A017901B8010E94A4174C
:1030C00097FD11C0B8018C2F0E94FB17E601EC0C94
:1030D000FD1CCE15DF0539F097FD05C0B8018991BB
:1030E0000E94FB17F6CF24E92093BC00DF91CF911B
:1030F0001F910F91FF90EF90DF90CF90089584E99A
:103100008093BC0008958EE14A9B02C08150E1F794
:103110004A9BFECF08955A9880E28A95F1F75A9A11
:103120000895FC012AE02A95F1F790E020E080E084
:1031300031E0261779F040E14A95F1F7880F4A9B74
:1031400002C08160932700C0000040E14A95F1F77A
:103150002F5FEFCF20E12A95F1F729B100C00000E1
:1031600030E13A95F1F722FB222720F992272081BE
:10317000920F90830895EF92FF920F931F93CF9336
:10318000DF931F92CDB7DEB719828C017C01E60E6A
:10319000F11C0E151F0559F00E94831868E0CE013E
:1031A00001960E949118F80181938F01F2CF81E07E
:1031B0009981911180E00F90DF91CF911F910F9134
:1031C000FF90EF9008959093830380938203609320
:1031D0008103529A5A9A08959093830380938203AD
:1031E0006093810352985A9AEA9AE9E6F0E0808166
:1031F0008F7C80830895615091E001C0990F6A959A
:10320000EAF720E031E0992361F0492F482319F0D3
:103210005A9A232701C05A9840E24A95F1F79695A9
:10322000F2CF222311F05A9A01C05A9880E28A956F
:10323000F1F75A980895FF920F931F93CF93DF935E
:10324000EC018C01060F111DC017D10741F0F99058
:103250000E948B1868E08F2D0E94FB18F5CFDF913C
:10326000CF911F910F91FF9008951F920F920FB66B
:103270000F9211240F931F932F933F934F935F93BC
:103280006F937F938F939F93AF93BF93EF93FF932E
:10329000CF93DF931F92CDB7DEB719820E948318B8
:1032A00067E0CE0101960E949118382F3695369529
:1032B0003695932F96959570232F2570920F292F71
:1032C0002370969596958770920F891348C08981CF
:1032D000811145C080918103831708F440C080E1CB
:1032E0008A95F1F75A9A529AA2E0AA95F1F700C08E
:1032F0000091820310918303B8E03B9F000D111DE4
:1033000011245A98F8016581662321F086819781FE
:103310000E941B190E948B18F0E1FA95F1F75A9858
:1033200052985A9A80E18A95F1F7D80112966C91D9
:103330001297662369F013968D919C9114970E94C1
:10334000BB18D801ED91FC91811105C082E004C049
:10335000D801ED91FC9188E080830E9483180F9042
:10336000DF91CF91FF91EF91BF91AF919F918F919D
:103370007F916F915F914F913F912F911F910F918D
:103380000F900FBE0F901F9018950F931F93CF9320
:10339000DF932091810330E0281739070CF471C0C6
:1033A0009C0193E0220F331F9A95E1F7C0918203AD
:1033B000D0918303C20FD31FF894529A5A9845E0D4
:1033C0004A95F1F70000982F969595708570890FB2
:1033D000982F937086958695890F8901082B0E94F6
:1033E0008B1884E08A95F1F700C067E0802F0E9477
:1033F000FB1840E14A95F1F752985A9A4A9902C04F
:1034000000C0FCCF87E090E04A9B0EC0019751F4CA
:10341000529A5A9AE881F98181E08083789481E018
:1034200090E031C000C0F0CF6D81662381F08E81C5
:103430009F810E94BB1881110AC0529A5A9AE88152
:10344000F98182E08083789482E090E01CC00E9441
:10345000831880E28A95F1F75A98529A40E14A958A
:10346000F1F76A81662321F08B819C810E941B19F0
:103470000E948B18E881F9811082789480E090E0B6
:1034800002C084E090E0DF91CF911F910F910895E9
:1034900090938903809388030895E0918803F091C5
:1034A0008903309721F00190F081E02D099480E0AC
:1034B0000895E0918803F0918903309711F480E03A
:1034C00008950190F081E02D09950895E091880319
:1034D000F0918903309721F00280F381E02D099467
:1034E0000895E0918803F0918903309739F022E044
:1034F000DC012C930480F581E02D0994089520913E
:103500008603309187032817390771F0909387035A
:1035100080938603E0918803F0918903309721F02E
:103520000680F781E02D099408952091840330915D
:1035300085032817390771F09093850380938403DE
:10354000E0918803F0918903309721F00084F185A0
:10355000E02D0994089585B7806885BF85B7806898
:1035600085BF089508950C94B21A0C94B31A0C9464
:10357000B21A0C94B21A0E94AB1A0E94B71A0C9499
:10358000B51A0C94350B0E9486260E94E40980E04F
:103590000E94F5120E94ED260E9436100E94B21180
:1035A0000C94B91A9F92AF92BF92CF92DF92EF9292
:1035B000FF920F931F93CF93DF93CDB7DEB72A9778
:1035C0000FB6F894DEBF0FBECDBF0E94750AC82E9D
:1035D0000E94C11A811111C08FEF89838A831B82D7
:1035E0000E948F268160782F9D838C8349815A8128
:1035F0006B818D810E94771B40C08BE8A82E83E0F1
:10360000B82E00E010E0902E802F0E94CF09E82E07
:10361000F501D1905F01D82631F40F5F1F4F0A30BA
:10362000110589F7D9CF8091100481FD0E94D50939
:1036300080E0FF24F3949D2D9F21D1F08E839F8203
:10364000EF2081E009F480E088870E948F26816066
:10365000782F9A8789874E815F8168858A850E9445
:10366000771BF801E557FC4F8081F826F08205C0F2
:103670008F5FFF0C8730F9F6D0CF0E946E100E944A
:1036800013120E946215C1100E9431140E947F28FB
:103690000E944D1A90918A038917B9F00E944D1A21
:1036A00080938A032A960FB6F894DEBF0FBECDBF73
:1036B000DF91CF911F910F91FF90EF90DF90CF900E
:1036C000BF90AF909F900C9487072A960FB6F894FE
:1036D000DEBF0FBECDBFDF91CF911F910F91FF9045
:1036E000EF90DF90CF90BF90AF909F900895CF93D1
:1036F000DF93CDB7DEB72B970FB6F894DEBF0FBEC2
:10370000CDBF4F83588769877A878B87DE011196F3
:1037100086E0FD0111928A95E9F785E0FE01379672
:1037200001900D928A95E1F749815A816B817C81E4
:103730008D819E810E9488212B960FB6F894DEBF62
:103740000FBECDBFDF91CF910895FC0180819181A3
:103750000E94DF230895CF93882309F450C0C82F17
:103760008CEF8C0F813AD0F46C2F80912E019091C8
:103770002F010E94C525882349F06C2F80912E01CE
:1037800090912F010E94FD250E945F246C2F809153
:103790002E0190912F010E94FB250CC080E28C0F1E
:1037A000883058F4C77081E001C0880FCA95EAF7E5
:1037B0000E942124CF910C945F24EBE5EC0FE330C1
:1037C00040F4F0E0EC51FE4F808190E0CF910C94FA
:1037D0007F1AE8E5EC0FE73150F4F0E0EE0FFF1F41
:1037E000EA54FE4F80819181CF910C94951AC03F8D
:1037F00030F08C2F0E948727CF910C947428CF91A2
:103800000895882389F19CEF980F913A40F4682F2E
:1038100080912E0190912F010E94FD250DC090E214
:10382000980F983058F4877091E001C0990F8A95ED
:10383000EAF7892F0E9427240C945F249BE5980FB8
:10384000933020F480E090E00C947F1A98E5980F74
:10385000973120F480E090E00C94951A803F20F09E
:103860000E94EF270C9474280895CF93C82F0E94CC
:10387000AB1BC93349F42FEF87EE93E02150804012
:103880009040E1F700C000008C2FCF910C94011CF8
:10389000882321F00E9421240C945F24089588231A
:1038A00021F00E9427240C945F240895CF92DF9288
:1038B000EF92FF920F931F93CF93DF937C01D62F4C
:1038C000C72FFC01058102950F70128111110E9412
:1038D0003E240E941724882399F0112389F08C2F0D
:1038E000807F803421F080E28D0F883048F082E0C4
:1038F0000E94A9240E94172491E0D82ED92601C045
:10390000D12CCC2EC2948FE0C8228C2D90E08C302C
:10391000910508F0B6C1FC01E659FF4F0C94C73081
:103920008C2F807FCF70882311F0C295C07F112328
:1039300099F0CC2309F491C180E28D0F883010F00A
:10394000D11104C08C2F0E94212403C08C2F0E940F
:1039500031240E945F2481C18D2F0E94011CCC2341
:1039600009F48FC180E28D0F883010F0D11104C0AE
:103970008C2F0E94272403C08C2F0E9437240E9482
:103980005F247FC18C2F807FCF70803211F0C29571
:10399000C07FDD2319F0D130C9F022C0112371F0AE
:1039A000002341F0013031F40E9444248C2B0E940A
:1039B0004C2467C10E9444248C2B1DC0002319F0A5
:1039C000013009F45EC10E94552425C0112321F065
:1039D000063008F056C10EC0053008F052C11BC0B9
:1039E000112361F0002331F0F701858180FF35C19B
:1039F0008F7085838C2F0E94481C43C1002359F08F
:103A0000D93309F03BC1FFEF07EE13E0F15000405E
:103A10001040E1F731C18C2F0E944F1C32C18C2F16
:103A200086958695837019F0813061F02AC1112343
:103A300021F08D2F9C2F937002C080E090E00E94B7
:103A40007F1A27C1112321F08D2F9C2F937002C064
:103A500080E090E00E94951A1CC18D2F112319F06F
:103A60000E94872702C00E94EF270E94742811C17C
:103A70008C2F837009F047C0111107C12D2F22959B
:103A800026952770220F220F6D2F6F70862F90E0E2
:103A9000A0E0B0E0022E04C0880F991FAA1FBB1F30
:103AA0000A94D2F7D4FF10C04FE050E060E070E01D
:103AB00004C0440F551F661F771F2A95D2F7409503
:103AC00050956095709503C040E050E0BA01C695EE
:103AD000C695C3708A019B01082B192B2A2B3B2BFF
:103AE000C901B801C23049F058F4C13019F00E9440
:103AF0005C22CBC00E944A22C8C00E946E22C5C070
:103B00000E944822C2C0112319F08C2F817001C07D
:103B10008695882309F4B9C02D2F22952695277004
:103B2000220F220F6D2F6F70862F90E0A0E0B0E083
:103B3000022E04C0880F991FAA1FBB1F0A94D2F738
:103B4000D4FF10C04FE050E060E070E004C0440FCC
:103B5000551F661F771F2A95D2F74095509560959F
:103B6000709503C040E050E0BA01C695C695C37099
:103B70008A019B01082B192B2A2B3B2BC901B80169
:103B8000C23049F058F4C13019F00E9421237DC0A1
:103B90000E940F237AC00E94332377C00E948222A2
:103BA00074C0CF70112339F08C2F0E94A8228D2F62
:103BB0000E94481C6AC08D2F0E944F1C8C2F0E94AF
:103BC000C92263C0D23F01F128F4D03F41F0D13F78
:103BD000A1F03FC0D33FF9F0D43F39F13AC01123EF
:103BE00041F0053008F04DC08C2F8F710E94EE22FD
:103BF00048C0063008F045C0F7CF112339F08C2FAC
:103C00008F710E94A8223DC01123C9F38C2F8F71A0
:103C10000E94C92236C0112329F08C2F8F710E9477
:103C200093222FC00E948E222CC0112349F0CF7105
:103C30008C2F0E94A82263E08C2F0E94942421C024
:103C400081E00E94A9240230E0F082E00E94A924D1
:103C500018C0112331F0002391F28D2F0E94AB1B6D
:103C600010C0002399F2D93349F41FEF27EE33E057
:103C7000115020403040E1F700C000008D2F0E941D
:103C8000011C88EF8C0D843020F40E944D1A0E9494
:103C90008707DD20C9F00E94132480FD15C0F701BD
:103CA00012820E940D240E94A822C7010E94851E34
:103CB0000E940D24DF91CF911F910F91FF90EF9003
:103CC000DF90CF900C94C922DF91CF911F910F917B
:103CD000FF90EF90DF90CF9008950F931F93CF93B5
:103CE000DF93EC01688179818A810E94EA238C014B
:103CF0000E9445230E943622B801CE010E94561C24
:103D0000DF91CF911F910F910895CF93DF93EC0135
:103D1000988189812B813C81232B31F08F3F31F4B5
:103D200081E09F3F19F403C081E001C080E080FD85
:103D300019C0CE010E94A00781110CC00E94172457
:103D4000882381F08A81882369F082E0DF91CF9116
:103D50000C94A924CE010E946D1ECE01DF91CF915B
:103D60000C946B07DF91CF9108950E943E240E942E
:103D700041240E945F240E949E290E94742880E0B2
:103D800090E00E947F1A80E090E00C94951A809158
:103D90002E0190912F010E94FF250C94B51E0E94C8
:103DA0002E240C94C71EE92FE295EF704E2F50E0A1
:103DB000FA013297EE30F105B0F4EA58FF4F0C9457
:103DC000C730803F91F018F4883E68F40EC0843FFD
:103DD00051F40BC0883E48F0813F29F406C093FBA4
:103DE000882780F9089580E0089581E008950E9471
:103DF000DF230E94D31E0895CF93DF9300D000D01D
:103E00001F92CDB7DEB70F900F900F900F900F90CD
:103E1000DF91CF910895CF93DF9300D000D000D0F1
:103E2000CDB7DEB726960FB6F894DEBF0FBECDBF76
:103E3000DF91CF9108951F93CF93DF93C0919603A5
:103E400016E080919703C81799F0D0E01C9FF0010D
:103E50001D9FF00D1124E856FC4F40815181628175
:103E60007381848195810E940B1F2196C770E9CFD1
:103E7000DF91CF911F9108954091C8035091C903DC
:103E80006091CA037091CB038091CC039091CD03D4
:103E90000C940B1F0F931F93CF93DF938091CD034F
:103EA00082958F7009F05DC08091CA03882309F460
:103EB00058C080919603109197036091C803709148
:103EC000C903C091CB03D091CC0391E06F3F09F0BF
:103ED00090E0292F06E0811709F443C0209721F0D4
:103EE0007F3F21F030E003C031E001C0322F90E08D
:103EF00030FD34C0089FF001099FF00D1124DF014F
:103F0000A856BC4F11963C911197371327C03C918E
:103F1000361324C012963C91129731111FC013968C
:103F20004D915C9114974C1B5D0B483C5105B0F4CE
:103F30008091CD038F7080618093CD03E356FC4F59
:103F400080818F708061808388EC93E00E94851E61
:103F5000DF91CF911F910F910C941B1F01968770D9
:103F6000BACFDF91CF911F910F9108959F92AF9299
:103F7000BF92CF92DF92EF92FF920F931F93CF9356
:103F8000DF93CDB7DEB761970FB6F894DEBF0FBEF3
:103F9000CDBF8C0185E0F801DE011D9601900D92E8
:103FA0008A95E1F7F80140815181E2809091C80340
:103FB0006091C9032091CB033091CC0321153105C9
:103FC00031F06F3F31F481E09F3F19F403C081E08D
:103FD00001C080E0F82FF1709F2E80FD46C1F801EE
:103FE000A380B48088ECC82E83E0D82EF090CA035A
:103FF000F501E21BF30BFF2009F4DFC08091CD0334
:10400000E83CF10508F09BC0282F207F09F052C042
:10401000561313C0491311C0FE2CE1100EC08F704F
:1040200080618093CD030E943C1FC6010E94851EC3
:104030008091CD03F801858358C1AB2831F05F3FF3
:1040400031F481E04F3F19F403C081E001C080E00A
:1040500080FD03C081E08E2502C080E090E0F82F53
:10406000F170FF2E80FF1CC0809196032091970372
:1040700036E0821709F417C190E0389FF001399FAC
:10408000F00D1124E856FC4F6181561306C0608183
:10409000461303C06281E61203C001968770E9CF20
:1040A000FE2CEE2009F421C18091CD038160809324
:1040B000CD035AC0561306C0491304C0E11002C014
:1040C000F8019FC04D875E878D859E850E94F71EF3
:1040D000882379F1EE2069F12091CD03822F82951A
:1040E0008F7090E0029774F08091C8039091C9039B
:1040F00098878F831986BB86AA862C87CE01079660
:104100000E94851E86E0F801A8ECB3E001900D92B4
:104110008A95E1F70E944A1F0E943C1F0DC0561766
:1041200029F14D875E878D859E850E94F71E81113E
:104130002CC0C8010E94851EFF24F394D6C0282FEE
:10414000207F69F77A2DB98AA88A6E2D89890E9405
:10415000FC1E88EC93E00E94851E86E0F601119219
:104160008A95E9F70E943C1FF12CBFC04913D9CFB3
:10417000E110D7CFF8018583C8010E94851E86E033
:10418000F60111928A95E9F7B0C0EE2091F22091E4
:10419000CD03822F82958F7090E002970CF4B2CFFE
:1041A0008091C8039091C9039A8389831B82BD8241
:1041B000AC822E83CE010196A3CFE83CF10508F036
:1041C00047C0FE2CEE2009F4B4CF561330C049137B
:1041D0002EC02091CD0320FD21C0822F82958F70AB
:1041E000482F50E041155105C9F0F80125834F30A3
:1041F000510541F08F5F982F9295907F822F8F709D
:10420000892B8583C8010E94851E86E0F801A8ECF1
:10421000B3E001900D928A95E1F742C086E0F80183
:10422000A8ECB3E001900D928A95E1F75EC04D874E
:104230005E878D859E850E94F71E811163CF8091D8
:10424000CD0381608093CD03C8010E94851E4DC0BF
:104250007A2DB98AA88A6E2D89890E94FC1E86E073
:10426000F60111928A95E9F71BC0EE2009F461CF9F
:104270004D875E878D859E850E94F71EF82E8823C8
:1042800009F457CF86E0F801A8ECB3E001900D9255
:104290008A95E1F788EC93E00E94A51B0E944A1FD3
:1042A0000E943C1F22C04D875E878D859E850E949F
:1042B000DF23292F22952F70223028F49F7039F0A8
:1042C000811105C00BC0243028F49F7049F4805E32
:1042D000883020F0C8010E94851E9F2CF92C05C053
:1042E000F8019581907F99F7F9CF8F2D61960FB6E0
:1042F000F894DEBF0FBECDBFDF91CF911F910F911C
:10430000FF90EF90DF90CF90BF90AF909F90089577
:104310001F93CF93DF93CDB7DEB72C970FB6F894EA
:10432000DEBF0FBECDBF4F83588769877A878B87E3
:104330009C87CE0107960E94B61F8823D1F09F81EB
:1043400088852A853B85232B31F08F3F31F481E02E
:104350009F3F19F403C081E001C080E080FD47C0A9
:104360004F81588569857A858B859C850E940B1FB6
:104370003EC086E0FE013796DE01119601900D9257
:104380008A95E1F7FF81E8856A857B85611571056E
:1043900031F0EF3F31F481E0FF3F19F403C081E0D9
:1043A00001C080E080FD23C02091970330E0C90167
:1043B0000196877099274091960350E084179507DE
:1043C000F1F1F983EA837D836C8396E0929FD001BB
:1043D000939FB00D1124A856BC4FFE013196019059
:1043E0000D929A95E1F7809397030E941B1F16E0A8
:1043F0008091960390919703891771F1189FC001DE
:10440000112488569C4F0E94B61F882329F1E09101
:1044100096031E9FF0011124E856FC4F4081518104
:1044200062817381848195810E940B1F8091960324
:1044300090E001968770992780939603D9CF0E94C8
:10444000CF1E1092970310929603E8ECF3E086E0FB
:10445000DF011D928A95E9F72C960FB6F894DEBF1E
:104460000FBECDBFDF91CF911F910895089508959C
:104470000C9437220C9438220E943A226093FF0356
:104480007093000480930104909302040C94B51E71
:104490000C943C220F931F930091FF031091000492
:1044A0002091010430910204602B712B822B932BFD
:1044B0001F910F910C943C220F931F930091FF03C7
:1044C00010910004209101043091020460237123B3
:1044D000822393231F910F910C943C220F931F93DF
:1044E0000091FF0310910004209101043091020417
:1044F00060277127822793271F910F910C943C22EC
:104500000C9437220E9480226093FB037093FC037B
:104510008093FD039093FE030C94B51E60E070E061
:10452000CB010C9482220F931F9341E050E060E096
:1045300070E08A019B0104C0000F111F221F331F6E
:104540008A95D2F7C901B8011F910F910C9482226C
:104550000F931F9341E050E060E070E004C0440F0F
:10456000551F661F771F8A95D2F78091FB039091A4
:10457000FC03A091FD03B091FE038A019B01082B6F
:10458000192B2A2B3B2BC901B8011F910F910C94B9
:1045900082220F931F9341E050E060E070E004C07E
:1045A000440F551F661F771F8A95D2F74095509587
:1045B000609570958091FB039091FC03A091FD03A1
:1045C000B091FE038A019B01082319232A233B2370
:1045D000C901B8011F910F910C9482220F931F9370
:1045E00041E050E060E070E004C0440F551F661FDA
:1045F000771F8A95D2F78091FB039091FC03A091DD
:10460000FD03B091FE038A019B01082719272A2781
:104610003B27C901B8011F910F910C9482220F937F
:104620001F930091FB031091FC032091FD03309137
:10463000FE03602B712B822B932B1F910F910C94F7
:1046400082220F931F930091FB031091FC03209192
:10465000FD033091FE0360237123822393231F9176
:104660000F910C9482220F931F930091FB031091E2
:10467000FC032091FD033091FE0360277127822700
:1046800093271F910F910C948222089527E0929F07
:10469000800D1124E82FE695E695E695877051E0A8
:1046A00001C0550F8A95EAF785E0E89FF0011124D3
:1046B000E253FC4F20E030E070E04081CB01022E5D
:1046C00002C0969587950A94E2F7817081958427B8
:1046D0008523842781932F5F3F4F2530310569F76C
:1046E000089527E0929F800D1124682F66956695A6
:1046F0006695982F977085E0689FB001112440E07F
:1047000050E080E0FB01E40FF51FE253FC4F2081F5
:1047100030E0092E02C0369527950A94E2F7217001
:104720003327042E01C0220F0A94EAF7822B4F5F31
:104730005F4F4530510531F70895BF92CF92DF9218
:10474000EF92FF920F931F93CF93DF938C01C09052
:10475000FB03D090FC03E090FD03F090FE038091FA
:10476000FF0390910004A0910104B0910204C82AB3
:10477000D92AEA2AFB2ACFE1D0E0D701C6010C2EC4
:1047800004C0B695A795979587950A94D2F780FDB2
:1047900004C0219790F7B12C07C0BC2EB8018C2F14
:1047A0000E94F6070197A9F38B2DDF91CF911F91FE
:1047B0000F91FF90EF90DF90CF90BF900895CF932F
:1047C000DF93EC010E949D23BE010E94F607DF915A
:1047D000CF9108951F93CF93DF93EB0190919503B1
:1047E000992321F0CB010E94DF2313C0882349F0D5
:1047F000CB010E949D23182F682FCE010E944623D3
:1048000004C0CB010E947123182FBE01812F0E948A
:10481000F607DF91CF911F9108958091030485954C
:1048200085958595089580910304877008959091EA
:104830000304977081E009F480E0089580910F04EB
:10484000089590910F04892B80930F04089580950B
:1048500090910F04892380930F04089510920F0400
:10486000089590910E04892B80930E0408958095ED
:1048700090910E04892380930E04089510920E04E3
:10488000089510920D0408958091040408950895E8
:104890000C9447240C94482490910404981721F018
:1048A000809304040C944A2408958091040488237E
:1048B00029F01092040480E00C944A240895E091B9
:1048C0002E01F0912F0180910F048083E0912E0141
:1048D000F0912F01908180910E04892B8083E091CB
:1048E0002E01F0912F01908180910D04892B8083FE
:1048F00080910404882381F0E0912E01F0912F0132
:104900009081892B808380912E0190912F010E94AC
:10491000B92581110E94552480912E0190912F017B
:104920000C94661A0C94472498E0899F90011124F6
:10493000262B209303040E94A822809103048595CE
:10494000859585950C9492241092030480E00C9434
:104950009224209103048095822380930304982F4E
:10496000977079F430E0482F082E000C550B24176F
:10497000350739F08595859585950E94C9220C9457
:10498000A4240895CF92DF92EF92FF926C01EE245F
:10499000FF24C114D104E104F10421F0C701B601E0
:1049A00020E101C020E0C72ED82EE92EFF24C1143B
:1049B000D104E104F10419F0285FC701B6016B01CD
:1049C0007C0154E0F694E794D794C7945A95D1F7B4
:1049D000C114D104E104F10419F02C5FC701B60140
:1049E0006B017C0142E0F694E794D794C7944A9512
:1049F000D1F7C114D104E104F10419F02E5FC7010D
:104A0000B601DC01CB01B695A79597958795892BC3
:104A10008A2B8B2B09F02F5F822FFF90EF90DF9076
:104A2000CF90089580E090E00E945A3121E08C3EC2
:104A30009E4F09F020E0822F089582E090E00C94D0
:104A40004C3183E090E00C944C31CF9384E090E0C3
:104A50000E944C31C82F81E290E00E944C312C2FF3
:104A600030E0A901582BCA01CF910895CF93C92FE7
:104A7000682F84E090E00E9460316C2F81E290E02A
:104A8000CF910C946031AB01BC018FE090E00C94AD
:104A90007231AB01BC0183E190E00C94723160E0B3
:104AA00070E0CB010C94492560E070E0CB010E94DE
:104AB00043250C944F256CEE7EEF80E090E00E9441
:104AC0007E3160E082E090E00E94603160E083E04F
:104AD00090E00E9460311092FF0310920004109247
:104AE00001041092020460E084E090E00E946031D2
:104AF00060E081E290E00E94603160E085E090E05B
:104B00000E94603160E086E090E00E9460316FEFCB
:104B100087E090E00E94603140E050E0BA0188E018
:104B200090E00E94723160E08DE090E00E94603180
:104B300040E050E0BA0188E190E00E94723160E00C
:104B400087E190E00E94603140E050E0BA018CE1E2
:104B500090E00E94723160E080E290E00E9460315B
:104B60000C9454250C945B25682F8EE090E00C94F7
:104B70006031FC01329697E080E0915029F021915C
:104B80002223D9F38F5FF9CF0895662349F0FC0102
:104B9000329608962191621729F0E817F907D1F7A4
:104BA00080E0089581E008959C01FC0132969FEF1A
:104BB00080E04191461789F09F3F19F4411101C0EF
:104BC000982F8F5F8630A9F79F3F39F0F901E90FE1
:104BD000F11D97FDFA956283089508959C012A5F5F
:104BE0003F4FFC014281461301C012820196821799
:104BF0009307B9F708950C94D4250C94EE250296EA
:104C000026E0FC0111922A95E9F7089508950C9485
:104C100006260C940626CF930E9409260E94750A48
:104C20000E940726C0E08C2F0E94CF09811104C08A
:104C3000CF5FCA30C1F701C081E0CF9108950C94D5
:104C400006260C941F260E94212680911607843088
:104C500049F11092110420E488E190E00FB6F89435
:104C6000A895809360000FBE2093600080E00E94B2
:104C700087070E94212683B7817F846083BF83B723
:104C8000816083BF7894889583B78E7F83BF0FB68A
:104C9000F894A895809160008861809360001092DC
:104CA00060000FBE08950C9406260E94CF1E0E943D
:104CB0004D1A0E9487070C9453261F920F920FB62D
:104CC0000F9211248F939F93AF93BF938091110400
:104CD000811113C080910C0790910D07A0910E07D0
:104CE000B0910F074196A11DB11D80930C079093C1
:104CF0000D07A0930E07B0930F07BF91AF919F913F
:104D00008F910F900FBE0F901F90189582E084BD79
:104D100093E095BD9AEF97BD80936E0008952FB7ED
:104D2000F89480910C0790910D07A0910E07B09117
:104D30000F072FBF08952FB7F89460910C0770915B
:104D40000D0780910E0790910F072FBF08959C01CA
:104D50004FB7F89480910C0790910D07A0910E0722
:104D6000B0910F074FBF821B930B089578941F9249
:104D70000F920FB60F9211248F939F93AF93BF930F
:104D800080910C0790910D07A0910E07B0910F072D
:104D90000196A11DB11D80930C0790930D07A09360
:104DA0000E07B0930F07BF91AF919F918F910F9016
:104DB0000FBE0F901F90189587E797E79093010813
:104DC000809300089AE088E10FB6F894A895809344
:104DD00060000FBE90936000FFCF0E9412258111EA
:104DE00002C00E94B2250E941D25809310040E94DB
:104DF000252590931107809310070E942125682F85
:104E000070E080E090E00C9448228091190480FFCB
:104E10000BC06091350185E0689FB0011124759544
:104E20006795759567952BC081FF09C06091350125
:104E300085E0689FB00111247595679520C082FFB9
:104E400007C06091350185E0689FB001112417C04B
:104E5000909118049923D1F060913401961788F746
:104E60002091350185E0289F90011124929FA00197
:104E7000939F500D112470E0CA010E94B330603836
:104E8000710540F46115710519F406C065E070E024
:104E9000862F08958FE7089581E008958091190481
:104EA00080FF08C06091310170E075956795759538
:104EB000679521C081FF06C06091310170E0759552
:104EC000679519C082FF04C06091310170E010C085
:104ED00090911804992399F0609130019617A0F7EA
:104EE00080913101899FC001112470E00E94B3308C
:104EF0006038710540F46115710519F406C061E070
:104F000070E0862F08958FE7089581E00895803F2F
:104F100021F40E940527819504C0813F29F40E9455
:104F2000052780931D040895823F21F40E940527E0
:104F3000819504C0833F29F40E94052780931C04B7
:104F40000895893F19F40E944E2705C08A3F31F425
:104F50000E944E27819580931E0408958B3F21F473
:104F60000E944E27819504C08C3F29F40E944E2751
:104F700080931F040895843F21F480911B04816075
:104F800017C0853F21F480911B04826011C0863FC9
:104F900021F480911B0484600BC0873F21F4809131
:104FA0001B04886005C0883F31F480911B04806138
:104FB00080931B0408958D3F21F480911904816032
:104FC0000BC08E3F21F480911904826005C08F3F91
:104FD00029F4809119048460809319040895803F16
:104FE00039F480911D0487FF6CC010921D0469C0C4
:104FF000813F29F480911D041816BCF362C0909182
:105000001C04823F29F497FF5CC010921C0459C015
:10501000833F19F41916CCF354C0893F41F48091B1
:105020001E0418160CF04DC010921E044AC08A3F90
:1050300029F480911E0487FF44C0F6CF8B3F39F4DA
:1050400080911F0487FF3DC010921F043AC08C3F1F
:1050500029F480911F041816BCF333C0843F21F457
:1050600080911B048E7F17C0853F21F480911B0423
:105070008D7F11C0863F21F480911B048B7F0BC074
:10508000873F21F480911B04877F05C0883F31F45E
:1050900080911B048F7E80931B0413C08D3F21F4ED
:1050A000809119048E7F0BC08E3F21F480911904EA
:1050B0008D7F05C08F3F29F4809119048B7F8093E9
:1050C000190480911C0481110EC080911D0481116E
:1050D0000AC080911E04811106C080911F048111B5
:1050E00002C01092180408958AE194E00E94711A97
:1050F0000E948F2690931704809316040895CF93EF
:10510000DF9300D000D000D0CDB7DEB786E0EAE173
:10511000F4E0DE01119601900D928A95E1F78091FD
:105120001C04811105C080911D04882309F47AC0F4
:1051300080911404909115040E94A726AC019091CF
:105140001804992339F02091360130E024173507EF
:1051500058F068C0209137018AE0289F90011124FF
:105160002417350718F05EC09F3F19F09F5F90939A
:10517000180410921E0410921F0480911C0418162B
:1051800024F40E94052780931C0480911C0487FF4F
:1051900005C00E940527819580931C0480911D0401
:1051A000181624F40E94052780931D0480911D0485
:1051B00087FF05C00E940527819580931D043091CB
:1051C0001C043323E1F020911D042223C1F045EBA0
:1051D0003403C0011124992319F090931C0403C0D7
:1051E00081E080931C0435EB2303C0011124992333
:1051F00019F090931D0403C081E080931D040E9468
:10520000742880911604909117049093150480934C
:10521000140486E0FE013196AAE1B4E001900D92FB
:105220008A95E1F780911E04811105C080911F04C9
:10523000882309F47AC080911204909113040E948B
:10524000A726AC0190911804992339F020913201DE
:1052500030E02417350758F068C0209133018AE008
:10526000289F900111242417350718F05EC09F3F36
:1052700019F09F5F9093180410921C0410921D0463
:1052800080911E04181624F40E944E2780931E0459
:1052900080911E0487FF05C00E944E278195809350
:1052A0001E0480911F04181624F40E944E27809338
:1052B0001F0480911F0487FF05C00E944E2781951F
:1052C00080931F0430911E043323E1F020911F04CA
:1052D0002223C1F045EB3403C0011124992319F0B6
:1052E00090931E0403C081E080931E0435EB2303DA
:1052F000C0011124992319F090931F0403C081E089
:1053000080931F040E9474288091160490911704C2
:10531000909313048093120486E0FE013196AAE173
:10532000B4E001900D928A95E1F726960FB6F894B5
:10533000DEBF0FBECDBFDF91CF910895EAE1F4E06B
:1053400086E0DF011D928A95E9F710921804109209
:1053500019040895809128040895CF93DF9300D015
:105360001F92CDB7DEB790911607943019F5898357
:105370007B836A8382E08093E9008FEF9091E8005D
:10538000815095FD06C095ED9A95F1F700008111C9
:10539000F5CF8091E80085FF0DC040E050E063E06C
:1053A00070E0CE0101960E94F52B8091E8008E7787
:1053B0008093E8000F900F900F90DF91CF910895A8
:1053C000CF93DF93EC010E94D82B823011F0843010
:1053D00031F4BE0184E0DF91CF910C94AD29DF91CF
:1053E000CF910895BC0183E00C94AD29CF93DF9356
:1053F000EC010E94D82B823011F08430F9F482E065
:105400008093E9008FEF9091E800815095FD06C0F0
:1054100095ED9A95F1F700008111F5CF8091E800A4
:1054200085FF0CC040E050E066E070E0CE010E94D5
:10543000F52B8091E8008E778093E800DF91CF9183
:105440000895CF93DF93EC010E94D82B823011F0A6
:10545000843039F581E08093E9008FEF9091E80086
:10546000815095FD06C095ED9A95F1F700008111E8
:10547000F5CF8091E80085FF14C040E050E068E07F
:1054800070E0CE010E94F52B8091E8008E7780932A
:10549000E80088E0FE01A0E2B4E001900D928A9558
:1054A000E1F7DF91CF91089580911507811109C02F
:1054B0000E94862D0E94E32D8091E20084608093FB
:1054C000E2000895109215070895089508950C9428
:1054D000552642E061EC81E00E94FF2C42E261EC43
:1054E00082E00C94FF2C80911807833009F460C08F
:1054F00030F4813071F0823009F499C008958A3017
:1055000009F485C08B3009F46BC0893009F0A7C05D
:1055100020C080911707813A09F0A1C08091E8006E
:10552000877F8093E80080911B0790911C07892B4F
:1055300021F468E080E294E003C060E080E090E065
:1055400070E00E94402C8091E8008B778093E80007
:10555000089580911707813209F081C080911B075F
:1055600090911C07029708F07AC08091E800877F2D
:105570008093E8008091E80082FD05C080911607C5
:105580008111F8CF6CC02091F3008091F20090E07F
:10559000922B029729F48091F1008B7F813021F4C6
:1055A0008091F100809328048091E8008B7753C0AC
:1055B00080911707813A09F052C080911B079091A2
:1055C0001C07892B09F04BC08091E800877F8093EE
:1055D000E8008091E80080FFFCCF8091420136C056
:1055E000809117078132D9F580911B0790911C0794
:1055F000892BA9F58091E800877F8093E8000E94BD
:10560000342D80911907809342010C94CF1E809114
:105610001707813221F58091E800877F8093E800A9
:105620000E94342D80911A07809329040895809157
:105630001707813AA1F48091E800877F8093E80002
:105640008091E80080FFFCCF809129048093F100D5
:105650008091E8008E778093E8000C94342D0895B3
:1056600084B7877F84BF0FB6F894A89580916000B7
:10567000886180936000109260000FBE90E080E827
:105680000FB6F89480936100909361000FBE0E9462
:10569000BB1A0E94862D0E94E32D8091E200846057
:1056A0008093E20078940E9478300E94C31A88E3C5
:1056B00091E00E94481A80911607853069F40E9493
:1056C0002326809114078823B1F30E940B26882398
:1056D00091F30E94DF2BEFCF0E94D21AECCF0C94F3
:1056E000712B292F332723303105C9F060F4213085
:1056F000310581F02230310509F04AC08BE390E09A
:105700002BE53BE049C02132310511F12232310550
:1057100079F13EC082E190E026E93BE03DC0992767
:105720008130910561F040F08230910559F0039786
:1057300079F5E1E3FBE008C0E7E5FBE005C0E3E461
:10574000FBE002C0E7E3FBE0849190E09F0124C00E
:105750006115710541F061307105D1F489E090E087
:1057600026E83BE019C089E090E02DE63BE014C05C
:105770006115710541F06130710551F481E890E0E7
:1057800028EA3BE009C080E490E029E23CE004C064
:1057900080E090E020E030E0FA013183208308953A
:1057A00080911607843011F081E0089582E0089519
:1057B00080912A04811102C00C94D02B089580E1BD
:1057C00089BD82E189BD09B400FEFDCF8091D8007A
:1057D0008F7D8093D8008091E00082608093E0000C
:1057E0008091E00081FDFCCF0895CF92DF92EF928F
:1057F000FF920F931F93CF93DF93EC018B017A01FC
:105800000E94532D811133C0E114F10439F0F701E6
:1058100080819181081B190BC80FD91FC12CD12C75
:105820000115110519F18091E80085FD16C08091E0
:10583000E8008E778093E800E114F10449F0F70165
:1058400080819181C80ED91ED182C08285E00FC0AF
:105850000E94532D882321F30AC089918093F1007F
:1058600001501109FFEFCF1ADF0ADACF80E0DF9194
:10587000CF911F910F91FF90EF90DF90CF900895FF
:1058800020911D0730911E072617370748F0611534
:10589000710539F42091E8002E772093E80001C0CB
:1058A000B901FC0120E06115710579F180911607BD
:1058B0008823F1F18530F1F18091E80083FD3CC04F
:1058C0008091E80082FD2EC08091E80080FFEBCF40
:1058D0002091F3008091F20090E0922B6115710508
:1058E00051F08830910538F421912093F1006150F6
:1058F00071090196F3CF21E0089709F020E080912B
:10590000E8008E778093E800CECF2111CFCF0AC078
:1059100080911607882361F0853061F08091E8005E
:1059200083FD0AC08091E80082FFF2CF80E00895F5
:1059300082E0089583E0089581E0089520911D0795
:1059400030911E072617370748F06115710539F4A5
:105950002091E8002E772093E80001C0B901FC01F6
:1059600020E06115710591F180911607882309F4F3
:1059700040C0853009F43FC08091E80083FD3DC000
:105980008091E80082FD2FC08091E80080FFE9CF80
:105990002091F3008091F20090E0922B6115710547
:1059A00059F08830910540F424912093F10031960C
:1059B000615071090196F2CF21E0089709F020E0CB
:1059C0008091E8008E778093E800CBCF2111CCCF77
:1059D0000AC080911607882361F0853061F08091BC
:1059E000E80083FD0AC08091E80082FFF2CF80E0EA
:1059F000089582E0089583E0089581E00895982F46
:105A0000973068F59093E900981739F07091EC00A1
:105A10002091ED005091F00003C0242F762F50E02C
:105A200021FD02C09F5FECCF3091EB003E7F3093B1
:105A3000EB003091ED003D7F3093ED003091EB00B5
:105A400031603093EB007093EC002093ED005093A5
:105A5000F0002091EE0027FDE5CF80E008958F70E3
:105A60008093E90081E008958091170787FF11C0B6
:105A70008091E80082FD05C0809116078111F8CF62
:105A800011C08091E8008B770BC0809116078823A6
:105A900049F08091E80080FFF8CF8091E8008E7790
:105AA0008093E80008952091E4003091E50095E6A8
:105AB0004091EC00842F817040FF23C08091E8006A
:105AC00080FD1DC080911607882399F0853099F0DC
:105AD0008091EB0085FD11C04091E4005091E500FC
