:100000000C9480030C94C7030C94C7030C948A23AC
:100010000C94C7030C94C7030C94C7030C94C70338
:100020000C94C7030C94C7030C94CD1E0C94091EAA
:100030000C9497180C94C7030C94C7030C94C70333
:100040000C94C7030C94C7030C94C7030C94C70308
:100050000C94C7030C942C180C94C7030C94C7037E
:100060000C94C7030C94C7030C94C7030C94C703E8
:100070000C94C7030C94C7030C94C7030C94C703D8
:100080000C94C7030C94C7030C94C7030C94C703C8
:100090000C94C7030C94C7030C94C7030C94C703B8
:1000A0000C94C7030C94C7030C94C703940E940ECE
:1000B000CE0ECE0E210F3D0FCF10CF10480F2610C1
:1000C00037103710000E18111D11221127112C1195
:1000D000311136113B11401145114C115111541180
:1000E000230E230E230E230E5711230E181C3F1C24
:1000F000E11D3F1CE11D871CAA1CE11DA51DB81DAB
:1001000024202420372037202D2037203720372067
:100110002420242032203720372032200001010102
:1001200001010101010102020202020202020203B4
:100130000303030303030304040404040404050584
:100140000505050606060606070707070708080847
:1001500008090909090A0A0A0B0B0B0C0C0C0D0DF6
:100160000D0E0E0E0F0F0F1010111111121213138E
:100170001414151516161717181819191A1A1B1B07
:100180001C1D1D1E1E1F2020212222232424252663
:1001900026272829292A2B2C2D2D2E2F303132329B
:1001A000333435363738393A3B3C3D3E3F404142A7
:1001B000434445464748494A4C4D4E4F505153548D
:1001C000555658595A5B5D5E5F6162646566686941
:1001D0006B6C6D6F7072737577787A7B7D7E8082C1
:1001E000838587888A8C8E8F91939596989A9C9E0A
:1001F000A0A2A3A5A7A9ABADAFB1B3B5B7BABCBE1A
:10020000C0C2C4C6C9CBCDCFD1D4D6D8DBDDDFE2E6
:10021000E4E7E9EBEEF0F3F5F8FAFDFFFFAA7F550E
:10022000402223252628292A2C2D2F3032333536FB
:10023000383A3B3D3E4042434547494A4C4E505177
:10024000535557595A5C5E6062646668696B6D6F9E
:1002500071737577797B7D7F81838587898A8C8EA1
:1002600090929496989A9C9E9FA1A3A5A7A8AAACA9
:10027000AEAFB1B3B4B6B8B9BBBCBEBFC1C2C3C5E3
:10028000C6C7C9CACBCCCDCED0D1D2D2D3D4D5D685
:10029000D7D7D8D9D9DADADBDBDBDCDCDCDCDCDDB8
:1002A000DDDDDDDCDCDCDCDCDBDBDBDADAD9D9D89C
:1002B000D7D7D6D5D4D3D2D2D1D0CECDCCCBCAC934
:1002C000C7C6C5C3C2C1BFBEBCBBB9B8B6B4B3B163
:1002D000AFAEACAAA8A7A5A3A19F9E9C9A989694FE
:1002E00092908E8C8A89878583817F7D7B797775D3
:1002F00073716F6D6B6968666462605E5C5A5957B2
:10030000555351504E4C4A4947454342403E3D3B70
:100310003A3836353332302F2D2C2A2928262523FA
:1003200022290014001A000800150017002B610490
:10033000001600070009000A00E1001D001B00066E
:100340000019000500000000002B6105512C00126F
:10035000501C0018000C00120013002A000B000DA6
:10036000000E000F0033003400110010003600377B
:10037000003800E50011502800045128000000005A
:1003800000290014001A000800150017002B610452
:10039000001600070009000A00E1001D001B00060E
:1003A0000019000500000000002B6105512C00120F
:1003B000501C0018000C00120013002A000B000D46
:1003C000000E000F0033003400110010003600371B
:1003D000003800E5001050280004512800000000FB
:1003E000000000000052000000000000000000506B
:1003F0000051004F0000000000000000000000005D
:100400000000000000000000000100055100001085
:10041000502400250026002D0038002A002100224B
:10042000002300570055002B001E001F002000373E
:10043000003600280013502700045101000000007E
:1004400000010001000100010001000100010001A4
:1004500000C25CC55CC75CC95C01000100C35CC62E
:100460005CC85CCA5C0000000001000100010001E2
:100470000001000100010001000100010001000174
:100480000001000100010001000100010001000164
:1004900000010001001250010001000100000000F5
:1004A0000001001E001F00200021002200010001A9
:1004B0000001000100010001000100010001000134
:1004C0000001000100000000000100010001000126
:1004D00000230024002500260027000100500051C1
:1004E0000052004F0049004C00E60065004A004DF4
:1004F000004600E7000100010001000100000000CB
:100500000001001E021F022002210222020100013E
:1005100000010001000100010001000100010001D3
:1005200000010001000000000001000100010001C5
:100530000023022402250226022702350201002D93
:10054000022E022F023002310201000100010001DF
:100550000001000100010001000100010000000095
:100560000001003A003B003C003D003E000100015C
:100570000001000100010001000100010001000173
:100580000001000100000000000100010001000165
:10059000003F0040004100420043004400010001D0
:1005A00000010001000100450001000100010001FF
:1005B000000100A56201000100010001000000002F
:1005C00000783C1E1E140A0505010902A1018502DE
:1005D0000901A10005091901290515002501950545
:1005E0007501810295017503810105010930093109
:1005F0001581257F95027508810609381581257FAB
:10060000950175088106050C0A38021581257F952C
:100610000175088106C0C005010980A10185031983
:10062000012AB700150126B700950175108100C099
:10063000050C0901A101850419012AA00215012652
:10064000A002950175108100C005010906A10105F0
:100650000719E029E7150025019508750181029524
:1006600001750881010507190029FF150026FF0003
:10067000950675088100050819012905950575017C
:100680009102950175039101C009023B000201002E
:10069000A0FA090400000103010100092111010071
:1006A000012240000705810308000A090401000136
:1006B00003000000092111010001228100070582C9
:1006C0000320000A120110010000000838393234FA
:1006D0000300010203010403300000000A0352007A
:1006E000650034003200000012036B0075007300D7
:1006F000680069006D00610038000000040309040F
:1007000011241FBECFEFDAE0DEBFCDBF04B603FE7B
:1007100027C080911D0390911E03A0911F03B091EB
:1007200020038730904BA740B04BD1F410921D03AB
:1007300010921E0310921F031092200314BE84B760
:10074000877F84BF0FB6F894A89580916000886178
:1007500080936000109260000FBEE0E0F8E309951E
:1007600023E0A0E9B1E001C01D92AD31B207E1F78D
:1007700011E0A0E0B1E0E4E4FAE402C005900D92DB
:10078000A039B107D9F70E945C120C9420250C9473
:1007900000000895AF92BF92CF92DF92EF92FF9246
:1007A0000F931F93CF93DF93E82EF62EE901E42FEA
:1007B000F0E0611106C0E45EFE4FE4914E2F2E2F53
:1007C00071C0062F10E0E45EFE4F4491F42FC42E5A
:1007D000D12C26E0829FC00111242FEF30E0B90117
:1007E0000E94E5245BEA5603C001579F900D112437
:1007F0008E0D911D8E0D911D582F550F580FD9013B
:10080000A01BB10BAC9DC001AD9D900DBC9D900D8A
:100810001124E92FF59ED0011124AB2FBB277901BC
:10082000EA1AFB0AEC9CD001ED9CB00DFC9CB00DCB
:1008300011245901A51AB108A09E7001A19EF00CC7
:10084000B09EF00C1124EF2CFF242E193F092C9D93
:1008500080012D9D100D3C9D100D1124212F623023
:10086000710591F048F461157105E1F06130710591
:10087000B9F4242F4B2F16C06430710569F040F095
:100880006630710579F00CC0242F492FE12F0AC082
:10089000492FEF2F2B2F06C0292FE42F412F02C005
:1008A000292FEB2F49832883EA83DF91CF911F9172
:1008B0000F91FF90EF90DF90CF90BF90AF90089591
:1008C00090915C0292FF0DC0282F2871283019F4F6
:1008D000877F846006C0282F2471243011F48B7F19
:1008E000886093FF0DC0282F2871283119F4877E66
:1008F000846106C0282F2471243111F48B7E886115
:1009000020915D0220FF0DC0382F3871383019F466
:10091000877F816006C0382F3171313011F48E7FAE
:10092000886021FF0DC0282F2871283119F4877E97
:10093000816106C0282F2171213111F48E7E8861DA
:1009400094FD877E089560917402669570E04BE097
:1009500050E080E091E00E941325892B19F481E09A
:1009600080937A020E94611890936F0280936E02C6
:1009700080917B02846080937B0208951F93CF93C4
:10098000DF93CDB7DEB767970FB6F894DEBF0FBE23
:10099000CDBF4B8B5C8B6D8B7E8B8F8B86E09E01EE
:1009A000235F3F4FD901E82F1D92EA95E9F795E0C3
:1009B000FE017396D90101900D929A95E1F7F90124
:1009C000DE01179601900D928A95E1F7CE01079608
:1009D0000E943B2081113EC086E0FE013796DE0179
:1009E000119601900D928A95E1F7FF81E8856A855D
:1009F0007B856115710531F0EF3F31F481E0FF3FF8
:100A000019F403C081E001C080E080FD23C0209183
:100A1000A50230E0C9010196877099274091D6025E
:100A200050E08417950779F1F983EA837D836C831D
:100A300096E0929FD001939FB00D1124AA55BD4F0F
:100A4000FE01319601900D929A95E1F78093A502EF
:100A50000E94FE1A16E08091D6029091A502891795
:100A6000F9F0189FC00111248A559D4F0E943B2028
:100A70008823B1F08091D60290E001968770992783
:100A80008093D602E8CF0E9407221092A50210920E
:100A9000D602EFE9F2E086E0DF011D928A95E9F7E0
:100AA00067960FB6F894DEBF0FBECDBFDF91CF9132
:100AB0001F91089520913B0230913C02281739077D
:100AC00071F090933C0280933B02E0916002F091C0
:100AD0006102309721F00084F185E02D099408959A
:100AE0002091390230913A022817390771F090931A
:100AF0003A0280933902E0916002F09161023097EE
:100B000021F00680F781E02D09940895E0916002BC
:100B1000F0916102309721F00190F081E02D09946D
:100B200080E008950F931F93CF93DF93C42FD22FAC
:100B3000FC0182818823C9F040933D020E94611824
:100B4000909338028093370280E28C0F883008F04F
:100B500057C0C77081E001C0880FCA95EAF7DF91DE
:100B6000CF911F910F910C941D2280913D0248134B
:100B700030C080913702909138020E945218883C10
:100B8000910538F510E21D0FCD17B9F080E28C0FFA
:100B9000883040F4C77081E001C0880FCA95EAF739
:100BA0000E941222183028F581E09D2F977001C015
:100BB000880F9A95EAF70E941D22802F0E946622D4
:100BC0001830F0F4D77081E001C0880FDA95EAF7A9
:100BD0000AC080E28C0F883098F4C77081E001C0B1
:100BE000880FCA95EAF7DF91CF911F910F910C946E
:100BF0001222802FDF91CF911F910F910C946622CA
:100C0000DF91CF911F910F910895882311F0FA0180
:100C100001C0FB010994E9E7F2E01182828184605E
:100C20008283089530910C018091740280FF16C078
:100C3000E0910B0163E0E69FF0011124EB56FE4FBB
:100C4000539A8BB1877F9BB198602FB7F894AF010F
:100C500063E0369F400D511D112414C080910D0199
:100C600090910E01891720F7E82FF0E0AF01440FB3
:100C7000551FE40FF51FEB56FE4F118210821282B2
:100C80008F5FF0CFE417F50789F0319168E09BB9E9
:100C9000000000C037FF8BB9330F000000C000C058
:100CA00000C08BB900C06A9591F7ECCF2FBF8FE5DC
:100CB00094E00197F1F700C000000895909174024C
:100CC00090FF16C090910D0120910E01921770F4C3
:100CD000E92FF0E0DF01AA0FBB1FEA0FFB1FEB5665
:100CE000FE4F8183608342839F5FF0CF0C94120696
:100CF0000895CF93DF9300D01F92CDB7DEB79091C8
:100D0000740290FF0DC0413708F040E79E012F5F4D
:100D10003F4F0E94CA034B8169818A810E945E060F
:100D20000F900F900F90DF91CF910895CF93DF93A5
:100D3000EC01E4E7F2E0438162818C810E94790654
:100D40008C818F5F8C83DF91CF910895CF93DF9358
:100D5000EC01EC81F0E0EF5DFD4F4491E4E7F2E05F
:100D6000628181810E9479068C818F5F8C83DF9103
:100D7000CF91089580917402282F269530E0211597
:100D8000310519F48170826005C02331310524F0EA
:100D9000817084628093740280917702813718F0A9
:100DA00080E7809377020895CF92DF92EF92FF92CF
:100DB0006B017C010E94BA06B701A60188E090E0B1
:100DC000FF90EF90DF90CF900C94C324AF92BF922E
:100DD000CF92DF92EF92FF920F931F93CF93DF9307
:100DE00000D01F92CDB7DEB7082FF62E142FE22EBB
:100DF0008091740280FF83C0E82FE695AE2FB0E0AB
:100E0000A25DBE4F9C91909379028E7F823081F4D7
:100E1000413708F040E79E012F5F3F4F6F2D802F35
:100E20000E94CA034B8169818A810E945E0644C088
:100E3000923019F4109177023FC0963019F4009166
:100E400075023AC09930C1F5E9508E2F8170D82EC5
:100E5000E695F0E0E45EFD4FA590B490C12CBB2474
:100E600060910F01C61630F52C2D30E0A29EC00116
:100E7000A39E900DB29E900D112470E00E94E52477
:100E8000802FD11002C0860F01C0861B90910D01EA
:100E9000290F311DA901440F551F240F351F2B5653
:100EA0003E4F412F113708F040E76F2D0E94CA03D3
:100EB000C394D6CF0E94120680917502081308C011
:100EC00080917602F81204C080917702181729F0F9
:100ED00080917B02826080937B0200937502F09286
:100EE000760210937702EE2051F0609174027091B7
:100EF000750280917602909177020E94D4060F903D
:100F00000F900F90DF91CF911F910F91FF90EF9075
:100F1000DF90CF90BF90AF900895E4E7F2E0438177
:100F200021E1421B08F440E021E0628181810C94C0
:100F3000E606E4E7F2E0438121E1420F08F44FEFD7
:100F400021E0628181810C94E606E4E7F2E06281AF
:100F500021E1621B08F460E021E0438181810C946F
:100F6000E606E4E7F2E0628121E1620F08F46FEF48
:100F700021E0438181810C94E606E4E7F2E081817F
:100F800021E04381628188500C94E606E4E7F2E0B8
:100F9000818121E043816281885F0C94E606809123
:100FA0007802882319F0815080937802609174024E
:100FB0007091750280917602909177020C94D4061C
:100FC00080917802833018F48F5F8093780260916B
:100FD00074027091750280917602909177020C9460
:100FE000D4069091740290FF3BC09170811102C0B1
:100FF000926006C0833110F0946202C0880F982B73
:101000009093740280917B02816080937B026623BF
:1010100051F0609174027091750280917602909106
:1010200077020E94D40660917402669570E04BE0EE
:1010300050E080E091E00E941325892B19F00E9476
:101040000B0602C00E94A30481E08093710220E09D
:101050004091770260917602809175020C94E606C9
:101060000895809174028695815009F482E161E0CF
:101070000C94F1078091740286958F5F833108F09C
:1010800081E061E00C94F1079091740290FF04C03C
:101090009695981740F003C0811105C090E096170F
:1010A00010F40C943A0861E00C94F107E4E7F2E0E4
:1010B00083E0808311828FEF828380E783831482B1
:1010C000A9E7B2E012968C911297836012968C93E6
:1010D00060817181828193810C94D4068091940106
:1010E000811112C08091D80080618093D8008AE17C
:1010F0008A95F1F700C08091D90080FD02C082E09E
:1011000001C081E08093940181E09091940191303D
:1011100009F080E00895CF93DF9320E3829FC00120
:101120001124FC0146E0749FE00DF11D1124E60F2F
:10113000F11DEE0FFF1FEF5DFC4FC591D491CE0165
:10114000C238D10569F1B0F4C133D10509F475C0D5
:1011500048F4C932D10509F469C0CA32D10509F48D
:1011600073C085C0C533D10509F459C0C933D10551
:10117000B9F07DC0C33ED10571F138F4C03ED10550
:10118000B1F0C23ED10511F172C0C63ED105B9F130
:10119000C73ED105C9F1C43ED10509F068C024C0DD
:1011A00020915C0220FD5DC021FD5BC060C02091EC
:1011B0005C0220FD50C020915D0220FF51C1809152
:1011C0005C0284FD4BC183EE90E04AC120915C0239
:1011D00022FF46C1F4CF80915C0282FD3FC0809126
:1011E0005D0280FD3EC0EBCF20915D0221FF38C142
:1011F00080915C0284FD32C187EE90E031C1209184
:101200005C0223FF2DC1F4CF80915C0283FD2CC0D2
:1012100080915D0281FFECCF84EE90E021C12091AE
:101220005C0225FF1DC189E290E01AC120915C0299
:1012300025FF16C185E390E013C120915C0226FFD3
:101240000FC18AE290E00CC120915C0226FF08C128
:1012500081E390E005C189E390E002C182EE90E075
:10126000FFC080EE90E0FCC086EE90E0F9C0C115B2
:1012700051E5D50708F06CC0C11520E5D207F0F0A4
:10128000CE01F4E096958795FA95E1F7282F237023
:101290003C2F337081E090E002C0880F991F3A958F
:1012A000E2F79C68922B2C2F2F702695269550E202
:1012B000259F90011124822B932BD2C0C83ED105CB
:1012C00070F5C03ED10508F0CBC0C83AD105B8F4DE
:1012D000C53AD10550F02C2F255AC22FD0E0C15A63
:1012E000DE4F888190E09064BBC0C130D10509F425
:1012F000B7C008F4B3C0249708F4B0C0B1C0CF3B66
:10130000D10508F0ABC02C2F285AC22FD0E0CC0F4B
:10131000DD1FCE59DE4F888199819464A1C0C1152B
:1013200040E2D40760F4C11551E0D50708F098C039
:10133000C03FD10508F492C0CE01906591C0C1159F
:1013400080E4D80708F48AC0CE019F70906A88C0F4
:10135000C11525E5D20708F040C0C11544E5D40702
:1013600028F09C2F8827846F906A7AC0C11553E5B6
:10137000D507A8F09E012370332781E090E002C0DA
:10138000880F991F2A95E2F72C2F2695269550E273
:10139000259F90011124822B932B9A6861C0C1155F
:1013A00082E5D80728F49C2F8827816F906A58C05F
:1013B0009E012370332781E090E002C0880F991FBF
:1013C0002A95E2F72C2F2695269540E2249F90013E
:1013D0001124822B932B9C6843C0C11529E5D207A9
:1013E000B0F4C11548E5D40728F09C2F8827806FFA
:1013F000906A36C0C11556E5D50780F58C2F0E943E
:1014000060048F7190E0982F8827906229C0C115E1
:101410008AE5D80790F48C2F8F700E9460049E019B
:1014200094E0369527959A95E1F72F7030E0322FAA
:1014300022273069A901482B0FC0CE019056811593
:10144000904260F48D2F8F710E9460049E013327BB
:1014500030628F71A901582BCA0102C080E090E070
:10146000DF91CF910895CF93C62F882311F081305B
:10147000A1F4609158027091590280915A029091A2
:101480005B020E944E19823040F4C11102C08AEF03
:1014900001C089EFCF910C946622CF9108956F928D
:1014A0007F928F929F92AF92BF92CF92DF92EF92F4
:1014B000FF920F931F93CF93DF9361E471E00EE4EB
:1014C00012E022E5A22E22E0B22E3801C0E0EE2486
:1014D000E394F12CDB018D91BD01E82FE295EF70D3
:1014E000F0E021A18F70A70102C0440F551F8A951B
:1014F000E2F7CA01242B21A322A1942E9094292142
:1015000022A350EA5A95F1F799E4C92E91E0D92E19
:1015100040E050E0D0E0D6018D906D01282D22955D
:101520002F7030E0D90190962C9130E0B82DBF702B
:1015300002C035952795BA95E2F720FD07C02E2DFC
:10154000042E01C0220F0A94EAF701C020E0D22B3A
:101550004F5F5F4F46305105F1F691A1992291A25C
:1015600092A1892B82A3F3018081D81719F0D0832F
:1015700081E001C080E0C82BFFEF6F1A7F0A22E5EF
:10158000621622E0720609F0A5CFF0905702CC2334
:1015900049F081E0809392010E946118909391013B
:1015A00080939001809192018823A9F0809190010D
:1015B000909191010E945218069768F0EF2DF0E08B
:1015C000ED59FD4FD8018D918D018193AA16BB066F
:1015D000C9F7109292010E946E08882309F463C033
:1015E0001091560280917B028823E9F085E0E4E7C0
:1015F000F2E0AFE3B2E001900D928A95E1F78091BD
:10160000790290917A02A0917B0280934402909398
:101610004502A093460281E090E00E941A24892BA3
:1016200011F410927B0280E090E00E941A24892B32
:1016300009F0A8C0E12FF0E0ED59FD4F80E090E007
:10164000DC01A85BBD4F2C9121930196843091055C
:10165000B9F7D0915F028D2F90E0FC01E458FD4F67
:101660007F0110914C028081181B012F101654F439
:101670000150D7018C918F5F8C9360E08D2F0E9479
:10168000330AF4CF812F17FD80E0181B112309F4D2
:1016900076C01F5FF70180818150808361E08D2FCC
:1016A0000E94330AF3CFE09157020E2F10E0809191
:1016B0004702883009F04CC08091460280FF25C067
:1016C00090913F028091740290FF0AC081608093E4
:1016D000740280913F0260E086950E94F10715C078
:1016E0008E7F809374020E940B0680917B02816042
:1016F00080937B02FFEF20E732E0F1502040304042
:10170000E1F700C000000E9412068091460281FFAE
:1017100009C020E040914202609141028091400264
:101720000E94E6068091460282FF09C08091450230
:10173000882319F00E94A30402C00E940B06809126
:10174000460283FF03C081E080937102109247023A
:10175000F801ED59FD4F80E090E02191DC01A85B9C
:10176000BD4F2C93019684309105B9F7E0917F022B
:10177000F0E0E458FD4F808180934C0213C010923A
:10178000930110C0809193018F5F80939301863005
:1017900048F0E0915602F0E0ED59FD4F10821182C1
:1017A000128213828C2FDF91CF911F910F91FF90A6
:1017B000EF90DF90CF90BF90AF909F908F907F90F1
:1017C0006F9008958F929F92AF92BF92CF92DF92C7
:1017D000EF92FF920F931F93CF93DF93CDB7DEB7B6
:1017E0002A970FB6F894DEBF0FBECDBFFC01008173
:1017F000D18083819481892B39F01FEFD11206C0EB
:1018000091E00F3F19F403C091E001C090E090FD1A
:1018100053C57F0185E0DE01169601900D928A95F1
:10182000E1F7F70122818E819F81222349F00E94F6
:10183000D119182F682F8E819F810E944B1A03C0E7
:101840000E941E1A182F20E3129FF001112436E087
:10185000D39EE00DF11D1124E00FF11DEE0FFF1FCF
:10186000EF5DFC4F05911491033F8CE5180759F18A
:1018700090F4083DECE51E07E9F0093DFCE51F0783
:10188000A1F1073D2CE51207B1F506E221EE41EE8C
:1018900067ED7CE514C0053F3CE5130701F1C8F096
:1018A000063F9CE5190739F507E225EE46EE66EF9F
:1018B0007CE505C007E225EE45EE68ED7CE5C70155
:1018C0000E949205C0C106E221EE40EE63EF7CE586
:1018D000F6CF07E225EE44EE64EF7CE5F0CF06E2BA
:1018E00021EE42EE65EF7CE5EACF08E221E045EE2D
:1018F00069ED7CE5E4CFF7019281992309F43FC1BA
:1019000010923D020230FCE51F0708F422C10631A7
:101910002CE5120738F098012A5F3C452930310543
:1019200008F017C10E94DA1890935D0280935C0260
:1019300000313CE5130709F4C3C008F041C008308A
:101940009CE5190709F49AC0F0F40430FCE51F0780
:1019500009F487C068F402303CE5130709F477C046
:1019600003301C4509F0E5C080915C02826076C0BE
:1019700006309CE5190709F46EC008F07BC0809121
:101980005C0288606BC00C30FCE51F0709F485C061
:1019900068F40A303CE5130709F474C008F079C014
:1019A0000E94072280915C02806858C00E309CE53E
:1019B000190709F476C008F07FC080915C028BC0E3
:1019C0000B3FFCE51F0709F44FC018F503313CE558
:1019D000130709F47DC078F401319CE5190709F477
:1019E00073C002311C4509F0A4C00E9407228091F7
:1019F0005C028F7733C00531FCE51F0709F472C024
:101A000008F486C00A3F1C4509F093C080915D022E
:101A10003EC00F3F8CE5180709F45FC058F40D3F36
:101A2000ECE51E0709F444C008F43FC080915D0254
:101A300082602DC001302DE5120709F475C008F44D
:101A40005DC002301D4509F074C060E06EC0809139
:101A50005C02816003C080915C02806180935C02C3
:101A600068C080915C0211C080915D0282608093A9
:101A70005D025FC080915C028062F0CF80915C0269
:101A80008064ECCF80915C0288608460E7CF8160E5
:101A9000EECF80915C028E7FE1CF80915C028D7FE2
:101AA000DDCF80915C02877FD9CF80915D0218C025
:101AB00080915D028D7FDBCF80915C028F7ECECFE7
:101AC00080915C028F7DCACF80915C028F7BC6CFF4
:101AD00080915C02877F8B7FC1CF80915D028D7F7B
:101AE0008E7FC5CF80915C0282FB222720F991E096
:101AF000922790FB82F990FB83F9B0CF80915D0231
:101B0000982F909591708E7F892B90FB81F9AFCFA4
:101B10000E94072280915C0287FB222720F991E036
:101B2000922790FB87F99ACF61E08EE090E00E94C7
:101B3000B12460915C0210915D0284E090E00E940B
:101B4000B124612F81E290E00E94B1240E9407221B
:101B50007AC006312CE5120761F58091F8028A7A85
:101B600091E009F490E090933E02882311F065E340
:101B700001C069E287E992E00E94C01817C00631EF
:101B8000FCE51F0709F07EC080913E02882309F41E
:101B900043C385E3E7E9F2E02DE932E0928189135E
:101BA00001C0128231962E173F07C1F70E94A41977
:101BB0004AC001152CE5120739F00E3D1C4509F00D
:101BC0006BC00E94EB183FC00E9407228FEF94E386
:101BD000ECE081509040E040E1F700C0000087E772
:101BE00097E790930108809300089AE088E10FB688
:101BF000F894A895809360000FBE90936000FFCF8B
:101C00008091740280FF0EC38E7F80937402609176
:101C100074027091750280917602909177020E9411
:101C2000D4060E940B0680917B02816080937B0228
:101C30009FEFE0E7F2E09150E040F040E1F700C0B4
:101C400000000E9412068091F502877009F434C3E7
:101C5000F7018281882309F42FC382E02A960FB608
:101C6000F894DEBF0FBECDBFDF91CF911F910F91D2
:101C7000FF90EF90DF90CF90BF90AF909F908F90AC
:101C80000C94BA1A8091F8028272F801E25CFC4569
:101C9000E431F10508F4C2C2F701008111819923F2
:101CA00049F0C8010E94D119D82E682FC8010E949E
:101CB0004B1A04C0C8010E941E1AD82EB8018D2DDF
:101CC0000E948B088C01982EF701A580A2942FE02A
:101CD000A222D280D1101092F7028091F502877073
:101CE00099F0DD2089F0812F807F803421F080E21F
:101CF000800F883048F082E00E94BA1A8091F50285
:101D00008770CC24C3948111C12CB12EB2949FE072
:101D1000B9228B2D90E08C30910508F040C2FC0177
:101D2000EA5AFF4F0C940D25812F807F1F70882366
:101D300011F01295107FDD20B9F0112309F41AC2B9
:101D400080E2800F883010F0911006C08091F80278
:101D5000182B1093F80205C08091F702182B1093EE
:101D6000F7020E94A41906C2802F0E942722112385
:101D700009F415C2005E1095083010F0911006C0ED
:101D80008091F80218231093F80205C08091F702A1
:101D900018231093F7020E94A41901C2812F807F9B
:101DA0001F70803211F01295107F992021F0F1E020
:101DB0009F16E1F02AC0DD2081F08091F902AA206F
:101DC00051F001E0A01207C0182B181709F4E7C161
:101DD0001093F902E4C1812B10C0AA2021F021E068
:101DE000A21609F4DCC10E949E1927C0DD2041F033
:101DF00035E03A1508F4D3C1812F0E941D22CFC1CE
:101E000084E08A1508F4CBC118C0DD2049F0AA206F
:101E100099F3F701858180FFADC18F708583ECCF89
:101E2000AA2059F0093309F0B7C1FFEF17EE23E0FC
:101E3000F15010402040E1F7ADC1812F0E941222E5
:101E4000AEC1812F86958695837019F0813059F047
:101E5000A6C1DD2019F0C801937002C080E090E0B7
:101E60000E947005A2C1DD2019F0C801937002C064
:101E700080E090E00E945A0598C1802FDD2019F083
:101E80000E94C41702C00E94FD160E946D188DC1E9
:101E9000812F837009F069C0D11085C1902F929570
:101EA00096959770990F990F802F8F70882E912C8F
:101EB000A12CB12C092E04C0880C991CAA1CBB1C97
:101EC0000A94D2F704FF12C04FE050E060E070E0E7
:101ED00004C0440F551F661F771F9A95D2F7DB0188
:101EE000CA0180959095A095B09503C080E090E0E0
:101EF000DC0116951695412F4370423019F1C8F454
:101F00000091FA021091FB022091FC023091FD0237
:101F1000413059F088299929AA29BB29BC01CD0152
:101F200060237123822393230AC0802A912AA22A44
:101F3000B32ABC01CD01682979298A299B290E94ED
:101F4000F41A31C188299929AA29BB290091FA02DA
:101F50001091FB022091FC023091FD02BC01CD01E9
:101F60006027712782279327EACFDD2019F0812F80
:101F7000817001C08695882309F415C1902F929530
:101F800096959770990F990F802F8F70882E912CAE
:101F9000A12CB12C092E04C0880C991CAA1CBB1CB6
:101FA0000A94D2F704FF12C04FE050E060E070E006
:101FB00004C0440F551F661F771F9A95D2F7DB01A7
:101FC000CA0180959095A095B09503C080E090E0FF
:101FD000DC0116951695412F43704230D9F068F513
:101FE000009158021091590220915A0230915B02DF
:101FF000413059F088299929AA29BB29BC01CD0172
:1020000060237123822393231EC0802A912AA22A4F
:10201000B32A13C088299929AA29BB2900915802FB
:102020001091590220915A0230915B02BC01CD01FE
:10203000602771278227932706C0BC01CD0168293C
:1020400079298A299B290E94771AADC01F70DD204B
:1020500039F0812F0E94D31A802F0E941D22A3C025
:10206000802F0E941222812F0E94951A9CC0802FDF
:1020700032EF931609F440C0391538F090EF9916F5
:1020800061F0E1EF9E1699F170C0F3EF9F16D9F160
:1020900024EF921609F44EC068C0DD2019F134E037
:1020A0003A1508F47CC01F7181E090E0A0E0B0E038
:1020B000AC01BD0104C0440F551F661F771F1A9560
:1020C000D2F78091580290915902A0915A02B09192
:1020D0005B028A019B01082719272A273B27C90190
:1020E000B80125C025E02A1508F459C0DCCFDD2051
:1020F00029F0812F8F712CC0DD20D9F3812F8F71B2
:102100000E94951A4CC0DD2079F01F7181E090E0AB
:10211000A0E0B0E0BC01CD0104C0660F771F881FAE
:10212000991F1A95D2F703C060E070E0CB010E94BE
:10213000771A35C0DD2079F01F71812F0E94D31AE4
:1021400038E0139FC001112483608093F502812F32
:102150000E94D31A24C081E00E94BA1A81E08A1535
:10216000F0F482E00E94BA1A1AC0DD2039F0AA20E9
:1021700009F4BFCF802F0E94792211C0AA2009F450
:10218000BDCF893349F49FEFE7EEF3E09150E04093
:10219000F040E1F700C00000802F0E94272288EF66
:1021A0008B0D843010F40E948605CC20A9F080911C
:1021B000F50280FD11C0F701128285958595859500
:1021C0000E94D31AC7010E94E20B8091F502859507
:1021D000859585950E94951A85E0F701DE01119697
:1021E00001900D928A95E1F789819A810E941E1AC9
:1021F0009A8100E3809FF001112416E0919FE00D89
:10220000F11D11248981E80FF11DEE0FFF1FEF5D15
:10221000FC4F8591949150C089E2BCCCEE59FF4FA0
:102220000C940D2581608093740261E0869536C020
:1022300041E358E06AE378E02CC04AE358E061E308
:1022400078E027C04DEB57E066EC77E022C046EC23
:1022500057E06DEB77E01DC045EA57E061EB77E0B2
:1022600018C041EB57E065EA77E013C04DE857E04E
:1022700069E977E00EC049E957E06DE877E009C009
:102280004FEC57E060EE77E004C040EE57E06FECB3
:1022900077E00E940506D7CC61E081E00E94F1075B
:1022A000D2CC65E082E005C068E086E002C062E171
:1022B00089E00E944408C7CC2A960FB6F894DEBF86
:1022C0000FBECDBFDF91CF911F910F91FF90EF9087
:1022D000DF90CF90BF90AF909F908F900895BC01FA
:1022E00084E00C94CA16BC0183E00C94CA162091B9
:1022F000E4003091E50095E64091EC00842F817078
:1023000040FF23C08091E80080FD1DC08091100334
:10231000882399F0853099F08091EB0085FD11C0FC
:102320004091E4005091E5002417350729F39150BE
:1023300011F09A01E1CF84E0089582E0089583E0EE
:10234000089581E0089580E008954091E80042FFFB
:10235000DDCF08958091120387FF11C08091E800BE
:1023600082FD05C0809110038111F8CF11C08091CA
:10237000E8008B770BC080911003882349F080918F
:10238000E80080FFF8CF8091E8008E778093E80026
:102390000895982F973068F59093E900981739F0D1
:1023A0007091EC002091ED005091F00003C0242FBB
:1023B000762F50E021FD02C09F5FECCF3091EB0003
:1023C0003E7F3093EB003091ED003D7F3093ED0088
:1023D0003091EB0031603093EB007093EC00209370
:1023E000ED005093F0002091EE0027FDE5CF80E056
:1023F00008958F708093E90081E00895209118037B
:10240000309119032617370748F06115710539F423
:102410002091E8002E772093E80001C0B901FC016B
:1024200020E06115710579F1809110038823F1F1A5
:102430008530F1F18091E80083FD3CC08091E80097
:1024400082FD2EC08091E80080FFEBCF2091F30049
:102450008091F20090E0922B6115710551F0883067
:10246000910538F421912093F10061507109019692
:10247000F3CF21E0089709F020E08091E8008E7703
:102480008093E800CECF2111CFCF0AC080911003F6
:10249000882361F0853061F08091E80083FD0AC0F7
:1024A0008091E80082FFF2CF80E0089582E00895F5
:1024B00083E0089581E00895CF93DF93CDB7DEB731
:1024C00060970FB6F894DEBF0FBECDBF84B7877F8D
:1024D00084BF0FB6F894A8958091600088618093BE
:1024E0006000109260000FBE90E080E80FB6F89494
:1024F00080936100909361000FBE85B7806885BFAF
:1025000085B7806885BF0E944D1E0E946C1E809119
:10251000E20084608093E200789480911003882325
:10252000A1F01091E9001F709091EC00892F81704B
:1025300090FD80E8182B1092E9008091E80083FD5F
:102540000E94341B1F701093E90082E084BD93E069
:1025500095BD9AEF97BD80936E0057985F9889B1AB
:10256000881F8827881F809320018091200188235D
:1025700021F010920B018BE103C08BE180930B01E2
:1025800080930C010E946E08882331F062E070E0B5
:1025900080E191E00E943823809120018091200108
:1025A000811102C094E001C090E09093570284E052
:1025B000891B80935602A1E4B1E045E451E061E05B
:1025C00070E08D91E82FE295EF70F0E021A18F701F
:1025D0008B0102C0000F111F8A95E2F7C801902FEE
:1025E0009095922391A392A1892B82A34A175B070E
:1025F00041F7A9E4B1E04FE451E061E070E08D9172
:10260000E82FE295EF70F0E021A18F708B0102C0FE
:10261000000F111F8A95E2F7C801902F9095922321
:1026200091A392A1892B82A34A175B0741F7EEE49D
:10263000F2E086E592E0A3E6B2E011921D928E17D9
:102640009F07D9F780E090E00E94AB248C3E9E4F1C
:1026500011F00E94EB180E946E08811106C062E022
:1026600070E080E191E00E94412380E090E00E94D0
:10267000AB248C3E9E4F11F00E94EB1882E090E05C
:102680000E949D2480938E020E94DA1890935D022E
:1026900080935C0283E090E00E949D24682F70E0AC
:1026A00080E090E00E94F41A80915E0281113BC0AC
:1026B00080E090E00E94AB248C3E9E4F21F00E946F
:1026C000EB180E94560888E090E00E94A5246093D1
:1026D00074027093750280937602909377028091D2
:1026E0007B02836080937B026E7F71F40E945608A8
:1026F00088E090E00E94A5246093740270937502B4
:1027000080937602909377020E94BA060E940B068D
:102710008091740280FF04C060E086950E94F107FA
:1027200081E080935E0280912001811106C086E3E2
:102730008093220186E68093210120912201A22F1D
:10274000A295AF70B0E091963C9191972F7081E087
:1027500090E0AC01022E01C0440F0A94EAF7542F16
:102760005095352391963C93919792963C919297F0
:10277000432B92964C93929740912101E42FE2953E
:10278000EF70F0E031A14F70042E01C0880F0A9461
:10279000EAF7982F9095932391A392A1892B82A376
:1027A00090968C9190E002C0959587952A95E2F7D6
:1027B000817020A130E002C0359527954A95E2F757
:1027C00020FD02C090E001C092E0892B809380023E
:1027D0009091200181E0982790937F02891B80933C
:1027E0005F0283E291E0909361028093600277241C
:1027F000739466246A943BE6C32E32E0D32E40E104
:10280000442E52E1552E68E1A62EB12C8091100382
:10281000853009F036C080911003843011F1109298
:10282000620280E40FB6F894A895A09260000FBEF3
:102830008093600083B7817F846083BF83B78160AA
:1028400083BF7894889583B78E7F83BF0FB6F89443
:10285000A89580916000886180936000109260006C
:102860000FBE80910F03882309F4D0CF0E944F0A36
:10287000E3E6F2E08191811121C2CE16DF06D1F7A5
:10288000C5CF0E944F0A0E946E088823A1F1EFE88D
:10289000F2E0A3E6B2E000E010E0302F2D9191913C
:1028A000922721F180E0FF24F3944F2D4923D1F0AA
:1028B0008F8338872F2181E009F480E089870E9487
:1028C00061188160782F9B878A874F815885698539
:1028D0008B850E94BE04F801E157FD4F8081F826E8
:1028E000F08218C08F5FFF0C8630F9F60F5F1F4F24
:1028F0000830110591F66C866D861E860E9461185F
:102900008160782F988B8F874C855D856E8588894F
:102910000E94BE0480917A02882309F47CC08091D1
:102920007902E0917402E695E81BE0937002823030
:1029300059F4F0E0EC53FA4FE4910E2F10E026EA40
:10294000E22E26E0F22E13C0863059F4F0E0EF5369
:10295000FA4FE4910E2F10E096E9E92E96E0F92E59
:1029600006C000ED17E089ECE82E83E0F82E809198
:102970007102882389F0109271020E9461189801F7
:1029800020953095820F931F90936F0280936E0273
:10299000109273021092720280916E0290916F02F7
:1029A0000E94521880179107B0F180916D02882320
:1029B000B1F010926D0280916B0290916C020E94B6
:1029C00052188033954758F00E94611890936C021A
:1029D00080936B0280917B02886080937B02809061
:1029E000720290907302E0916E02F0916F020E0FEE
:1029F0001F1F10936F0200936E028EE692E0F701A4
:102A000009958091720290917302892B21F4892893
:102A100011F070926D0280918002E82FEE0FEE0FA0
:102A200080912201A82FA295AF70B0E090962C91D2
:102A300030E08F7002C0359527958A95E2F72170B6
:102A4000332790912101A92FA295AF70B0E0909605
:102A50004C9150E09F7002C0559547959A95E2F7CA
:102A6000CA018170992740FF02C082E090E0822B6A
:102A7000932B8E2B8093800210917F028F70E82F12
:102A8000F0E0E15BFE4F908180917E02890F8093A0
:102A90007E0284306CF0E12F012E000CFF0BE45815
:102AA000FD4F80818F5F808360E0812F0E94330A19
:102AB00080917E028D3F6CF4E12F012E000CFF0B04
:102AC000E458FD4F80818150808361E0812F0E9416
:102AD000330A80917E02837887FF03C081508C6F18
:102AE0008F5F80937E0286E0E7E8F2E0DE011196D8
:102AF00001900D928A95E1F7E0908902F0908A02A8
:102B000000918B0210918C021092890210928A021D
:102B100010928B0210928C02E11003C0FF2009F486
:102B20004FC080918502909186020E9452189C01AC
:102B300090918402992309F4D5C02333310508F418
:102B40003FC09F3F19F09F5F90938402EE2061F099
:102B50000E94A4171E1414F09FEF01C091E0899FFA
:102B6000802D112480938902FF2061F00E94A41718
:102B70001F1414F09FEF01C091E0899F802D112454
:102B800080938A02309189023323D1F020918A0206
:102B90002223B1F045EB3403C0011124992319F02D
:102BA0009093890202C07092890235EB2303C00121
:102BB0001124992319F090938A0202C070928A021C
:102BC000011103C0112309F44FC08091820290913A
:102BD00083020E9452189C0190918102992309F46A
:102BE00086C02536310508F43FC09F3F19F09F5F2E
:102BF00090938102002361F00E948217101614F056
:102C00009FEF01C091E0899F802D112480938B025A
:102C1000112361F00E948217111614F09FEF01C07A
:102C200091E0899F802D112480938C0230918B023A
:102C30003323D1F020918C022223B1F045EB3403F1
:102C4000C0011124992319F090938B0202C0709255
:102C50008B0235EB2303C0011124992319F09093C3
:102C60008C0202C070928C028091890281110BC08B
:102C700080918A02811107C080918B02811103C06B
:102C800080918C0281110E946D18EB82FC820D8371
:102C90001E8386E0FE013196A7E8B2E001900D9216
:102CA0008A95E1F70E94860590918D02891709F4B3
:102CB000ADCD0E94860580938D02A8CD49BC59BC3C
:102CC00009B400FEFDCF8091D8008F7D8093D8009D
:102CD0008091E00082608093E0008091E00081FDBF
:102CE000FCCF94CD2D32314008F02DCF69CF2D325D
:102CF000314008F07CCFB8CF80910503089522E0E1
:102D00002093E9002FEF3091E800215035FD06C0F7
:102D100035ED3A95F1F700002111F5CF2091E8004B
:102D200025FF0BC040E050E066E070E00E94081B09
:102D30008091E8008E778093E8000895CF93DF9329
:102D400021E02093E9002FEF3091E800215035FD7C
:102D500006C035ED3A95F1F700002111F5CF20912D
:102D6000E80025FF14C0EC0140E050E068E070E0AE
:102D70000E94081B8091E8008E778093E80088E02D
:102D8000FE01A6E0B3E001900D928A95E1F7DF9194
:102D9000CF910895CF93DF9300D01F92CDB7DEB7C8
:102DA00090911003943019F589837B836A8382E0C4
:102DB0008093E9008FEF9091E800815095FD06C067
:102DC00095ED9A95F1F700008111F5CF8091E8001B
:102DD00085FF0DC040E050E063E070E0CE01019659
:102DE0000E94081B8091E8008E778093E8000F9086
:102DF0000F900F90DF91CF910895803F39F480912B
:102E00008A0287FF6AC010928A0267C0813F29F454
:102E100080918A021816BCF360C090918902823FAB
:102E200029F497FF5AC01092890257C0833F19F4C2
:102E30001916CCF352C090918B02893F31F41916C8
:102E40000CF04BC010928B0248C08A3F19F497FFD8
:102E500044C0F8CF8B3F39F480918C0287FF3DC08E
:102E600010928C023AC08C3F29F480918C02181683
:102E7000BCF333C0843F21F4809188028E7F17C059
:102E8000853F21F4809188028D7F11C0863F21F417
:102E9000809188028B7F0BC0873F21F4809188024C
:102EA000877F05C0883F31F4809188028F7E8093B0
:102EB000880213C08D3F21F4809102038E7F0BC0E6
:102EC0008E3F21F4809102038D7F05C08F3F29F44E
:102ED000809102038B7F809302038091890281118C
:102EE00006C080918A02811102C0109284028091F2
:102EF0008B02811106C080918C02811102C0109258
:102F0000810208958091020380FD16C081FD16C0E4
:102F100082FD18C080918102882391F0883290F45C
:102F200028E0829FC001112468E270E00E94F92429
:102F3000862F672B29F007C082E0089584E008956A
:102F400081E0089588E008958091020380FD14C017
:102F500081FD14C082FD16C080918402882381F017
:102F6000843180F422E3829FC001112464E170E087
:102F70000E94F924862F08958CE0089589E1089530
:102F800085E0089582E30895803F21F40E94A4170C
:102F9000819504C0813F29F40E94A41780938A027E
:102FA0000895823F21F40E94A417819504C0833FB5
:102FB00029F40E94A417809389020895893F19F487
:102FC0000E94821705C08A3F31F40E9482178195C2
:102FD00080938B0208958B3F21F40E948217819584
:102FE00004C08C3F29F40E94821780938C020895BC
:102FF000843F21F480918802816017C0853F21F4CD
:1030000080918802826011C0863F21F480918802FD
:1030100084600BC0873F21F480918802886005C0DE
:10302000883F31F4809188028061809388020895FE
:103030008D3F21F48091020381600BC08E3F21F40B
:1030400080910203826005C08F3F29F480910203C2
:10305000846080930203089578941F920F920FB6B4
:103060000F9211248F939F93AF93BF938091FE0291
:103070009091FF02A0910003B09101030196A11D60
:10308000B11D8093FE029093FF02A0930003B093C2
:103090000103BF91AF919F918F910F900FBE0F9041
:1030A0001F9018959C014FB7F8948091FE02909163
:1030B000FF02A0910003B09101034FBF821B930B4D
:1030C00008952FB7F8948091FE029091FF02A0918D
:1030D0000003B09101032FBF08950E946118209151
:1030E0008902211104C020918A02222321F09093A9
:1030F00086028093850220918B02211104C02091C9
:103100008C02222321F09093830280938202E0912B
:103110006002F0916102309749F082E0809387026B
:103120000480F581E02D87E892E0099408951F92CC
:103130000F920FB60F9211248F939F93AF93BF936B
:1031400080916202811113C08091FE029091FF0272
:10315000A0910003B09101034196A11DB11D809380
:10316000FE029093FF02A0930003B0930103BF916E
:10317000AF919F918F910F900FBE0F901F90189558
:103180009C01FC0132969FEF80E04191461789F047
:103190009F3F19F4411101C0982F8F5F8630A9F726
:1031A0009F3F39F0F901E90FF11D97FDFA95628310
:1031B00008950895CF9384E090E00E949D24C82F45
:1031C00081E290E00E949D242C2F30E0A901582B31
:1031D000CA01CF9108956CEE7EEF80E090E00E94EE
:1031E000CF2460E082E090E00E94B12460E083E0C0
:1031F00090E00E94B1241092FA021092FB02109209
:10320000FC021092FD0260E084E090E00E94B12494
:1032100060E081E290E00E94B12460E085E090E00F
:103220000E94B12460E086E090E00E94B1246FEF3C
:1032300087E090E00E94B12440E050E0BA0188E0CD
:1032400090E00E94C32460E08DE090E00E94B124F1
:1032500040E050E0BA0188E190E00E94C32460E0C1
:1032600087E190E00E94B12440E050E0BA018CE197
:1032700090E00E94C32460E080E290E00E94B124CC
:1032800040E050E0BA018FE090E00E94C32440E0AB
:1032900050E0BA0183E190E00C94C324CF92DF9216
:1032A000EF92FF926C01EE24FF24C114D104E104DB
:1032B000F10421F0C701B60120E101C020E0C72ED2
:1032C000D82EE92EFF24C114D104E104F10419F031
:1032D000285FC701B6016B017C0154E0F694E794C6
:1032E000D794C7945A95D1F7C114D104E104F104DD
:1032F00019F02C5FC701B6016B017C0142E0F69426
:10330000E794D794C7944A95D1F7C114D104E10446
:10331000F10419F02E5FC701B601DC01CB01B695AF
:10332000A79597958795892B8A2B8B2B09F02F5F73
:10333000822FFF90EF90DF90CF9008958091F90257
:1033400081111092F90208959091F8028091F7028C
:10335000892B2091F602982F922B909397028091BF
:10336000F902882389F0892B80939702E9E9F2E03A
:1033700097E080E0915029F021912223D9F38F5FCB
:10338000F9CF81110E949E19E0916002F0916102D3
:10339000309731F00280F381E02D87E992E00994C3
:1033A0000895BF92CF92DF92EF92FF920F931F93F7
:1033B000CF93DF938C01C0905802D0905902E090D7
:1033C0005A02F0905B028091FA029091FB02A09168
:1033D000FC02B091FD02C82AD92AEA2AFB2ACFE1D1
:1033E000D0E0D701C6010C2E04C0B695A7959795DD
:1033F00087950A94D2F780FD04C0219790F7B12CED
:1034000007C0BC2EB8018C2F0E948B080197A9F32E
:103410008B2DDF91CF911F910F91FF90EF90DF9057
:10342000CF90BF900895CF93DF93EC010E94D11904
:10343000BE010E948B08DF91CF910895292F220FA2
:10344000920F990F890F682F669566956695982F4C
:10345000977085E0689FB001112440E050E080E063
:10346000FB01E40FF51FE952FD4F208130E0092EEA
:1034700002C0369527950A94E2F721703327042E6F
:1034800001C0220F0A94EAF7822B4F5F5F4F45304D
:10349000510531F70895292F220F920F990F890FA7
:1034A000E82FE695E695E695877051E001C0550F47
:1034B0008A95EAF785E0E89FF0011124E952FD4F73
:1034C00020E030E070E04081CB01022E02C09695F2
:1034D00087950A94E2F78170819584278523842754
:1034E00081932F5F3F4F2530310569F708950F9382
:1034F0001F938B019C010073112722273327DC01C6
:10350000CB01003311052105310511F4806401C0A0
:103510008F7B8093580290935902A0935A02B093E4
:103520005B021F910F910C94EA210F931F9341E0CE
:1035300050E060E070E004C0440F551F661F771F25
:103540008A95D2F740955095609570958091580274
:1035500090915902A0915A02B0915B028A019B019D
:10356000082319232A233B23C901B8011F910F9176
:103570000C94771A2091F502809582238093F502AE
:10358000982F977079F430E0482F082E000C550BD7
:103590002417350739F08595859585950E94951AEC
:1035A0001092F50208950F931F9341E050E060E000
:1035B00070E004C0440F551F661F771F8A95D2F72D
:1035C0008091580290915902A0915A02B0915B02E9
:1035D0008A019B01082B192B2A2B3B2BC901B8010F
:1035E0001F910F910C94771A6093FA027093FB026B
:1035F0008093FC029093FD020C94EA218091D60204
:103600009091A502891719F08F5F8770FBCF0895FD
:10361000EF92FF920F931F93CF93DF937C018B0167
:103620000E947711811119C0E70101151105A1F060
:103630008091E80085FD0AC08091E8008E77809334
:10364000E8000E947711882381F307C08991809355
:10365000F10001501109E9CF80E0DF91CF911F9176
:103660000F91FF90EF9008951F93CF93DF93CDB705
:10367000DEB7AA970FB6F894DEBF0FBECDBFE2E16A
:10368000F3E08091F100819323E0EA31F207C9F77A
:1036900080911303833009F460C030F4813071F0FD
:1036A000823009F49AC0B1C08A3009F486C08B30E8
:1036B00009F46BC0893009F0A8C020C080911203C2
:1036C000813A09F0A2C08091E800877F8093E800EA
:1036D0008091160390911703892B21F468E086E00E
:1036E00093E003C060E080E090E070E00E94FE1193
:1036F0008091E8008B778093E80087C08091120367
:10370000813209F082C080911603909117030297CD
:1037100008F07BC08091E800877F8093E80080916B
:10372000E80082FD05C0809110038111F8CF6DC0C3
:103730002091F3008091F20090E0922B029729F4FF
:103740008091F1008B7F813021F48091F100809392
:1037500005038091E8008B7754C080911203813A71
:1037600009F053C08091160390911703892B09F03B
:103770004CC08091E800877F8093E8008091E8004A
:1037800080FFFCCF80912D0137C0809112038132E0
:10379000E1F58091160390911703892BB1F5809183
:1037A000E800877F8093E8000E94AA1180911403AB
:1037B00080932D010E94072228C08091120381323C
:1037C00021F58091E800877F8093E8000E94AA118C
:1037D000809115038093040318C080911203813AED
:1037E000A1F48091E800877F8093E8008091E80051
:1037F00080FFFCCF809104038093F1008091E8006A
:103800008E778093E8000E94AA118091E80083FFE0
:10381000D8C18091120390911303492F50E04A3090
:10382000510508F0CEC1FA01EA58FF4F0C940D255E
:10383000803821F0823809F0C4C108C080910E039D
:1038400090910F03992389F082600FC08091160335
:103850008F70873008F0B5C18093E9008091EB004C
:1038600085FB882780F91092E9009091E800977F06
:103870009093E8008093F1001092F10071C1282F1D
:103880002D7F09F09EC1882319F0823061F099C123
:1038900080911403813009F094C1933009F080E0E5
:1038A00080930F032EC08091140381112AC0809150
:1038B00016038F702FEF280F263008F082C18093F7
:1038C000E9002091EB0020FF1CC0933021F480918F
:1038D000EB00806214C09091EB0090619093EB003C
:1038E00021E030E0A90102C0440F551F8A95E2F79C
:1038F0004093EA001092EA008091EB008860809388
:10390000EB001092E9008091E800877F2CC18111C3
:1039100058C1109114031F778091E3008078812BA8
:103920008093E3008091E800877F8093E8000E9405
:10393000AA118091E80080FFFCCF8091E3008068AD
:103940008093E300111102C082E001C083E0809304
:10395000100337C18058823008F033C180911403BE
:10396000909115038C3D53E0950779F583E08A83A8
:103970008AE289834FB7F894DE01139620E03EE097
:1039800051E2E32FF0E050935700E49120FF03C091
:10399000E295EF703F5FEF708E2F90E0EA3010F00D
:1039A000C79601C0C0968D939D932F5F243149F730
:1039B0004FBF8091E800877F8093E8006AE270E063
:1039C000CE0101960E94FE11BAC04091160350919B
:1039D0001703292F332723303105B1F068F4213044
:1039E000310509F4FDC02230310509F0EAC08BE34E
:1039F00090E0E9E8F6E050C02132310581F1223251
:103A0000310509F439C0DDC0992781309105B9F03D
:103A100070F082309105D9F0039709F0D2C0E6ED3D
:103A2000F6E0E4918E2F90E0E6EDF6E032C0ECEFA8
:103A3000F6E0E4918E2F90E0ECEFF6E02AC0E8EE9D
:103A4000F6E0E4918E2F90E0E8EEF6E022C0ECED97
:103A5000F6E0E4918E2F90E0ECEDF6E01AC041150F
:103A6000510509F4C2C04130510509F0AAC089E0EE
:103A700090E0E4EBF6E010C04115510509F4BAC03E
:103A80004130510509F09DC081E890E0E8ECF5E097
:103A900003C0009709F495C02091E800277F209388
:103AA000E80020911803309119038217930708F456
:103AB0009C0140E02115310589F180911003882394
:103AC00009F43DC08530D9F18091E80083FD37C00D
:103AD0008091E80082FD2FC08091E80080FFEACF4E
:103AE0004091F3008091F20090E0942B2115310574
:103AF00059F08830910540F444914093F10031969B
:103B0000215031090196F2CF41E0089709F040E0D9
:103B10008091E8008E778093E800CCCF4111CDCF23
:103B20000AC080911003882351F0853041F08091C4
:103B3000E80083FD04C08091E80082FFF2CF80910D
:103B4000E8008B778093E8003CC08038D1F5809105
:103B5000E800877F8093E800809111038093F10053
:103B60008091E8008E778093E8000E94AA1129C016
:103B7000811127C080911403909115039927029712
:103B800004F58091E800877F8093E800109114038A
:103B9000109311030E94AA11111106C08091E30035
:103BA00087FD02C081E001C084E08093100342E001
:103BB00061EC81E00E94C91142E261EC82E00E9466
:103BC000C9118091E80083FF1AC08091E800877FC7
:103BD0008093E8008091EB0080628093EB000FC03F
:103BE00082E190E0E4ECF6E057CF89E090E0EBE989
:103BF000F6E052CF80E490E0E9E4F6E04DCFAA96FB
:103C00000FB6F894DEBF0FBECDBFDF91CF911F91ED
:103C100008951F920F920FB60F9211242F933F9386
:103C20004F935F936F937F938F939F93AF93BF93C4
:103C3000CF93DF93EF93FF93C091E900CF70809112
:103C4000EC00D82FD17080FDD0E81092E90080916F
:103C5000F000877F8093F00078940E94341B1092CC
:103C6000E9008091F00088608093F000CD2BCF7048
:103C7000C093E900FF91EF91DF91CF91BF91AF9198
:103C80009F918F917F916F915F914F913F912F9174
:103C90000F900FBE0F901F901895E8EDF0E0808117
:103CA0008E7F80831092E2001092DA001092E10081
:103CB000A0EEB0E08C9181608C9380818F778083BF
:103CC00019BCA7EDB0E08C918E7F8C9380818F7EA4
:103CD0008083109203030895CF92DF92EF92FF92B8
:103CE0000F931F93CF93DF93C8EDD0E088818F7E31
:103CF0008883E7EDF0E080818160808384E082BF8B
:103D000081E08093030388818E7F888302EE10E038
:103D1000F80110821092DA0081EEC82ED12CF60143
:103D2000108288818F7788838881806888838881E2
:103D30008F7D888319BC109210031092110310928A
:103D40000F0310920E0390EEE92EF12CF701808103
:103D50008B7F808388818160888342E060E080E09F
:103D60000E94C911F60180818E7F8083F8018081D5
:103D700081608083808188608083F70180818E7F6D
:103D80008083888180618883DF91CF911F910F911B
:103D9000FF90EF90DF90CF9008951F920F920FB693
:103DA0000F9211242F933F934F935F936F937F93C1
:103DB0008F939F93AF93BF93EF93FF938091E10015
:103DC00082FF09C08091E20082FF05C08091E1007E
:103DD0008B7F8093E1008091DA0080FF2AC0809180
:103DE000D80080FF26C08091DA008E7F8093DA00B1
:103DF0008091D90080FF18C080E189BD82E189BD32
:103E000009B400FEFDCF81E080931003809103038D
:103E100081110FC00E944D1E0E946C1E8091E20015
:103E200084608093E20005C019BC109210031092C8
:103E300003038091E10080FF17C08091E20080FFC2
:103E400013C08091E2008E7F8093E2008091E200B7
:103E500080618093E2008091D80080628093D800D6
:103E600019BC85E0809310038091E10084FF32C08B
:103E70008091E20084FF2EC080E189BD82E189BD8E
:103E800009B400FEFDCF8091D8008F7D8093D800CB
:103E90008091E1008F7E8093E1008091E2008F7E2F
:103EA0008093E2008091E20081608093E200809143
:103EB0001103882311F084E007C08091E30087FD9F
:103EC00002C081E001C083E0809310030E940722BA
:103ED0000E9486058091E10083FF27C08091E20067
:103EE00083FF23C08091E100877F8093E10082E01F
:103EF00080931003109211038091E1008E7F8093D4
:103F0000E1008091E2008E7F8093E2008091E200E8
:103F100080618093E20042E060E080E00E94C9118D
:103F20008091F00088608093F000FF91EF91BF9145
:103F3000AF919F918F917F916F915F914F913F9141
:103F40002F910F900FBE0F901F9018950F931F93F6
:103F5000CF93DF938091A40282958F7009F05DC0AA
:103F60008091A102882309F458C08091D602109153
:103F7000A50260919F027091A002C091A202D0910F
:103F8000A30291E06F3F09F090E0292F06E081172E
:103F900009F443C0209721F07F3F21F030E003C0B7
:103FA00031E001C0322F90E030FD34C0089FF001B5
:103FB000099FF00D1124DF01AA55BD4F11963C91C8
:103FC0001197371327C03C91361324C012963C91A9
:103FD000129731111FC013964D915C9114974C1B91
:103FE0005D0B483C5105B0F48091A4028F70806154
:103FF0008093A402E555FD4F80818F70806180839E
:104000008FE992E00E94E20BDF91CF911F910F9117
:104010000C94FE1A01968770BACFDF91CF911F9151
:104020000F9108950E94131A292F2F70E92FE295FE
:10403000EF704E2F50E0FA013297EE30F105B8F4F0
:10404000E058FF4F0C940D25803F99F018F4883EFE
:1040500070F40FC0843F59F40CC0883E50F0813F8B
:1040600031F407C0822F869586958695089580E065
:10407000089581E008959F92AF92BF92CF92DF9210
:10408000EF92FF920F931F93CF93DF93CDB7DEB7DD
:1040900061970FB6F894DEBF0FBECDBF8C0185E0EF
:1040A000F801DE011D9601900D928A95E1F7F80165
:1040B00090818181E28030919F026091A0024091C5
:1040C000A2025091A3024115510531F06F3F31F426
:1040D00021E03F3F19F403C021E001C020E0F22FAE
:1040E000F1709F2E20FD23C1F801C380D4802FE9F9
:1040F000A22E22E0B22EF090A102F601E41BF50BF5
:10410000FF2009F4CEC02091A402E83CF10508F09C
:1041100099C0422F407F09F051C0681311C0391374
:104120000FC0FE2CE1100CC02F7020612093A40260
:10413000C5010E94E20B8091A402F801858337C17A
:10414000CD2831F08F3F31F421E09F3F19F403C0B7
:1041500021E001C020E020FD03C021E02E2502C0A7
:1041600020E030E0F22FF170FF2E20FF1DC02091E3
:10417000D6024091A50256E0241709F4F6C030E0BB
:10418000529FF001539FF00D1124EA55FD4F6181BC
:10419000861306C06081961303C06281E61204C0D4
:1041A0002F5F3F4F2770E8CFFE2CEE2009F4FFC0B1
:1041B0008091A40281608093A40250C0681307C05C
:1041C000391305C0E11003C0F80125838DC09D8718
:1041D0008E878D859E850E941220882369F1EE20AE
:1041E00059F12091A402822F82958F7090E002975E
:1041F00074F080919F029091A00298878F83198616
:10420000DB86CA862C87CE0107960E94E20B86E0E9
:10421000F801AFE9B2E001900D928A95E1F70E94B2
:10422000A61F0DC06817E1F09D878E878D859E853E
:104230000E94122081111EC0C8010E94E20BFF24BF
:10424000F394B5C0422F407F69F78FE992E00E9456
:10425000E20B86E0F50111928A95E9F7F12CA7C0EF
:104260003913E2CFE110E0CFF8012583C8010E94A5
:10427000E20B57C0EE2001F32091A402822F829519
:104280008F7090E002971CF280919F029091A002A3
:104290009A8389831B82DD82CC822E83CE01019694
:1042A000B4CFE83CF105E8F5FE2CEE2029F26813C6
:1042B00027C0391325C02091A40220FD18C0822FE9
:1042C00082958F70482F50E04115510581F0F8011B
:1042D00025834F30510541F08F5F982F9295907F45
:1042E000822F8F70892B8583C8010E94E20B86E0A4
:1042F000F801AFE9B2E001900D928A95E1F757C05D
:104300009D878E878D859E850E94122081117FCF8B
:104310008091A40281608093A402C8010E94E20BF4
:1043200046C086E0F50111928A95E9F740C0EE207B
:1043300009F482CF9D878E878D859E850E941220ED
:10434000F82E882309F478CF86E0F801AFE9B2E0CF
:1043500001900D928A95E1F780919F029091A002C1
:104360000E94131A0E94A61F22C09D878E878D85EA
:104370009E850E94131A292F22952F70223028F42F
:104380009F7039F0811105C00BC0243028F49F7054
:1043900049F4805E883020F0C8010E94E20B9F2C17
:1043A000F92C05C0F8019581907F99F7F9CF8F2DF1
:1043B00061960FB6F894DEBF0FBECDBFDF91CF91EF
:1043C0001F910F91FF90EF90DF90CF90BF90AF9033
:1043D0009F9008951092F7021092F6020E94A4197D
:1043E000E7E8F2E086E0DF011D928A95E9F7109296
:1043F000840210928102109202030E946D1880E0E4
:1044000090E00E94700580E090E00C945A051092B4
:10441000F80286E0E9E9F2E0DF011D928A95E9F70A
:104420000C94EA21882341F080959091F802892329
:104430008093F8020C94A4190895882339F0909180
:10444000F802892B8093F8020C94A419089588230C
:10445000E1F19CEF980F913A60F4E7E9F2E0928184
:10446000891301C01282319642E0ED39F407B9F7A1
:1044700014C090E2980F983090F4877021E030E0FB
:10448000A90102C0440F551F8A95E2F7CA01809521
:104490009091F80289238093F8020C94A4199BE56B
:1044A000980F933020F480E090E00C94700598E52C
:1044B000980F973120F480E090E00C945A05803FEB
:1044C00020F00E94FD160C946D180895CF93C82F0C
:1044D0000E947922C93349F42FEF87EE93E02150EF
:1044E00080409040E1F700C000008C2FCF910C94E9
:1044F0002722CF93882309F459C0C82F8CEF8C0F43
:10450000813AF8F4E9E9F2E08FE992E02191C217EB
:1045100021F08E179F07D1F70EC0E7E9F2E08DE991
:1045200092E02281C21301C0128231968E179F073A
:10453000C1F70E94A4196C2F87E992E00E94C0186D
:1045400010C080E28C0F883078F4C77081E090E072
:1045500001C0880FCA95EAF79091F802892B8093E1
:10456000F802CF910C94A419EBE5EC0FE33040F482
:10457000F0E0E15AFE4F808190E0CF910C947005FD
:10458000E8E5EC0FE73150F4F0E0EE0FFF1FEE59D5
:10459000FE4F80819181CF910C945A05C03F30F03D
:1045A0008C2F0E94C417CF910C946D18CF91089551
:1045B0008EE14A9B02C08150E1F74A9BFECF0895ED
:1045C0005A9880E28A95F1F75A9A0895FC012AE0F8
:1045D0002A95F1F790E020E080E031E0261779F0AD
:1045E00040E14A95F1F7880F4A9B02C0816093270A
:1045F00000C0000040E14A95F1F72F5FEFCF20E1C6
:104600002A95F1F729B100C0000030E13A95F1F7A1
:1046100022FB222720F992272081920F9083089570
:10462000EF92FF920F931F93CF93DF931F92CDB71B
:10463000DEB719828C017C01E60EF11C0E151F05F8
:1046400059F00E94D82268E0CE0101960E94E6222D
:10465000F80181938F01F2CF81E09981911180E07F
:104660000F90DF91CF911F910F91FF90EF900895E0
:1046700090931C0380931B0360931A03529A5A9AD7
:10468000089590931C0380931B0360931A03529820
:104690005A9AEA9AE9E6F0E080818F7C8083089557
:1046A000615091E001C0990F6A95EAF720E031E08E
:1046B000992361F0492F482319F05A9A232701C002
:1046C0005A9840E24A95F1F79695F2CF222311F0DD
:1046D0005A9A01C05A9880E28A95F1F75A9808953B
:1046E000FF920F931F93CF93DF93EC018C01060F82
:1046F000111DC017D10741F0F9900E94E02268E037
:104700008F2D0E945023F5CFDF91CF911F910F91F4
:10471000FF9008951F920F920FB60F9211240F93DE
:104720001F932F933F934F935F936F937F938F9339
:104730009F93AF93BF93EF93FF93CF93DF931F921A
:10474000CDB7DEB719820E94D82267E0CE0101966C
:104750000E94E622382F369536953695932F9695FA
:104760009570232F2570920F292F2370969596957B
:104770008770920F891348C08981811145C080914B
:104780001A03831708F440C080E18A95F1F75A9A1A
:10479000529AA2E0AA95F1F700C000911B03109174
:1047A0001C03B8E03B9F000D111D11245A98F8011D
:1047B0006581662321F0868197810E9470230E9483
:1047C000E022F0E1FA95F1F75A9852985A9A80E16E
:1047D0008A95F1F7D80112966C911297662369F0C9
:1047E00013968D919C9114970E941023D801ED91FE
:1047F000FC91811105C082E004C0D801ED91FC91CB
:1048000088E080830E94D8220F90DF91CF91FF91A2
:10481000EF91BF91AF919F918F917F916F915F9138
:104820004F913F912F911F910F910F900FBE0F90BD
:104830001F9018950F931F93CF93DF9320911A0326
:1048400030E0281739070CF471C09C0193E0220F67
:10485000331F9A95E1F7C0911B03D0911C03C20F3F
:10486000D31FF894529A5A9845E04A95F1F7000000
:10487000982F969595708570890F982F93708695CF
:104880008695890F8901082B0E94E02284E08A9591
:10489000F1F700C067E0802F0E94502340E14A9565
:1048A000F1F752985A9A4A9902C000C0FCCF87E0AB
:1048B00090E04A9B0EC0019751F4529A5A9AE881AF
:1048C000F98181E08083789481E090E031C000C07C
:1048D000F0CF6D81662381F08E819F810E9410232D
:1048E00081110AC0529A5A9AE881F98182E0808344
:1048F000789482E090E01CC00E94D82280E28A95E1
:10490000F1F75A98529A40E14A95F1F76A81662385
:1049100021F08B819C810E9470230E94E022E8811B
:10492000F9811082789480E090E002C084E090E009
:10493000DF91CF911F910F910895F999FECF92BD0C
:1049400081BDF89A992780B50895A6E1B0E044E0CA
:1049500050E00C94D724A8E1B0E042E050E00C9481
:10496000D724262FF999FECF92BD81BDF89A0197E1
:1049700000B4021639F01FBA20BD0FB6F894FA9AA7
:10498000F99A0FBE08950396272F0E94B2240E9421
:10499000B124252F0E94B224242F0C94B224019616
:1049A000272F0E94B2240C94B124DC01CB01FC011E
:1049B000F999FECF06C0F2BDE1BDF89A319600B478
:1049C0000D9241505040B8F70895AA1BBB1B51E10E
:1049D00007C0AA1FBB1FA617B70710F0A61BB70B6F
:1049E000881F991F5A95A9F780959095BC01CD0114
:1049F000089597FB072E16F4009407D077FD09D091
:104A00000E94E52407FC05D03EF4909581959F4FC8
:104A10000895709561957F4F0895EE0FFF1F0590E3
:104A2000F491E02D0994FC014150504030F0019088
:104A30000616D1F73197CF01089588279927089551
:044A4000F894FFCF18
:104A440001090A0B0C0D0E0F101112003600363638
:104A54004D02004D020548024702083F02000000D3
:104A64000136667C169E167F1673116F11010001C4
:104A740002020202060606090909090909090909C7
:104A840009C63433320000000094F4F5F6F731001F
:104A9400FF0100010000FFFF0000010001FF008191
:104AA4008283E200E900EA00B500B600B700CD0059
:104AB4008301CC008A019201940121022302240281
:104AC4002502260227022A02B300B4006F007000F8
:00000001FF
