:100000000C9474030C94BB030C94BB030C94DB277B
:100010000C94BB030C94BB030C94BB030C94BB0368
:100020000C94BB030C94BB030C94A71D0C94E31C11
:100030000C9438210C94BB030C94BB030C94BB03AD
:100040000C94BB030C94BB030C94BB030C94BB0338
:100050000C94BB030C94CD200C94BB030C94BB03F9
:100060000C94BB030C94BB030C94BB030C94BB0318
:100070000C94BB030C94BB030C94BB030C94BB0308
:100080000C94BB030C94BB030C94BB030C94BB03F8
:100090000C94BB030C94BB030C94BB030C94BB03E8
:1000A0000C94BB030C94BB030C94BB03D111D4116F
:1000B000F5110212091229122C12601282121C135D
:1000C00026138D1290129312B612D612D912DC1288
:1000D000FE12E816E8162217221775179117231932
:1000E00023199C177A188B188B1863198D1992197C
:1000F00097199C19A119A619AB19B019B519BA19F4
:10010000C119C619C919A614A614A614A614CC1987
:10011000A614EB1A121BC51C121BC51C5E1B811BEF
:10012000C51C821C921CC323C323D623D623CC23F5
:10013000D623D623D623C323C323D123D623D62322
:10014000D1230001010101010101010102020202AA
:100150000202020202030303030303030304040471
:10016000040404040505050505060606060607073A
:1001700007070708080808090909090A0A0A0B0BF2
:100180000B0C0C0C0D0D0D0E0E0E0F0F0F10101191
:100190001111121213131414151516161717181817
:1001A00019191A1A1B1B1C1D1D1E1E1F202021227F
:1001B00022232424252626272829292A2B2C2D2DC5
:1001C0002E2F30313232333435363738393A3B3CE2
:1001D0003D3E3F404142434445464748494A4C4DD5
:1001E0004E4F50515354555658595A5B5D5E5F619E
:1001F0006264656668696B6C6D6F70727375777831
:100200007A7B7D7E8082838587888A8C8E8F91938E
:100210009596989A9C9EA0A2A3A5A7A9ABADAFB1B5
:10022000B3B5B7BABCBEC0C2C4C6C9CBCDCFD1D49A
:10023000D6D8DBDDDFE2E4E7E9EBEEF0F3F5F8FA40
:10024000FDFFFFAA7F55402223252628292A2C2D91
:100250002F3032333536383A3B3D3E4042434547F6
:10026000494A4C4E5051535557595A5C5E6062642E
:100270006668696B6D6F71737577797B7D7F81833C
:100280008587898A8C8E90929496989A9C9E9FA13D
:10029000A3A5A7A8AAACAEAFB1B3B4B6B8B9BBBC5E
:1002A000BEBFC1C2C3C5C6C7C9CACBCCCDCED0D1D3
:1002B000D2D2D3D4D5D6D7D7D8D9D9DADADBDBDBCB
:1002C000DCDCDCDCDCDDDDDDDDDCDCDCDCDCDBDB6C
:1002D000DBDADAD9D9D8D7D7D6D5D4D3D2D2D1D0C0
:1002E000CECDCCCBCAC9C7C6C5C3C2C1BFBEBCBBBD
:1002F000B9B8B6B4B3B1AFAEACAAA8A7A5A3A19F35
:100300009E9C9A98969492908E8C8A8987858381F8
:100310007F7D7B79777573716F6D6B6968666462D9
:10032000605E5C5A5957555351504E4C4A494745A7
:100330004342403E3D3B3A3836353332302F2D2C48
:100340002A292826252322290014001A000800152E
:100350000017002B6104001600070009000A00E1E5
:10036000001D001B00060019000500000000002B06
:100370006102512C0002511C0018000C00120013E5
:10038000002A000B000D000E000F00330034001196
:10039000001000360037003800E500015128000148
:1003A0005128000000000001001E001F0020002155
:1003B0000022000100010001000100010001000114
:1003C0000001000100010001000100000000000127
:1003D0000001000100010023002400250026002761
:1003E0000001005000510052004F0049004C00E64F
:1003F0000065004A004D004600E7000100010001D1
:100400000001000000000001001E021F0220022166
:1004100002220201000100010001000100010001AF
:1004200000010001000100010001000000000001C6
:1004300000010001000100230224022502260227F8
:1004400002350201002D022E022F0230023102017C
:100450000001000100010001000100010001000194
:100460000001000000000001003A003B003C003D9C
:10047000003E000100010001000100010001000137
:100480000001000100010001000100000000000166
:10049000000100010001003F004000410042004314
:1004A00000440001000100010001000100450001BD
:1004B000000100010001000100A56201000100012E
:1004C00000010000000000783C1E1E140A05000018
:1004D000000000000000000000000000000000001C
:1004E00000007E0F00D4FFFFFFC70000007800006F
:1004F0000000000000002A2B28000000000000007F
:1005000000000000000000000029000000002C1E78
:100510003420212224342627252E362D3738271E35
:100520001F202122232425263333362E37381F045B
:1005300005060708090A0B0C0D0E0F1011121314F3
:1005400015161718191A1B1C1D2F3130232D3504B1
:1005500005060708090A0B0C0D0E0F1011121314D3
:1005600015161718191A1B1C1D2F3130354C050193
:100570000902A10185020901A10005091901290546
:10058000150025019505750181029501750381010D
:100590000501093009311581257F9502750881060D
:1005A00009381581257F950175088106050C0A38E3
:1005B000021581257F950175088106C0C0050109D6
:1005C00080A101850319012AB700150126B70095FE
:1005D0000175108100C0050C0901A10185041901F4
:1005E0002AA002150126A002950175108100C006FF
:1005F00060FF0961A1010962150026FF00952075C1
:100600000881020963150026FF00952075089102F4
:10061000C005010906A101050719E029E715002514
:100620000195087501810295017508810105071979
:100630000029FF150026FF009506750881000508B2
:10064000190129059505750191029501750391011F
:10065000C009025B00030100A0FA090400000103C5
:100660000101000921110100012240000705810359
:1006700008000A0904010002030000000921110119
:100680000001222200070582032000010705030361
:1006900020000109040200010300000009211101EA
:1006A00000012281000705840320000A12011001C5
:1006B000000000083839323403000102030104034A
:1006C000300000000A0352006500340032000000D0
:1006D00012036B0075007300680069006D00610013
:1006E000380000000403090411241FBECFEFDAE034
:1006F000DEBFCDBF04B603FE27C0809141039091B9
:100700004203A0914303B09144038730904BA7402C
:10071000B04BD1F410924103109242031092430364
:100720001092440314BE84B7877F84BF0FB6F89439
:10073000A8958091600088618093600010926000AD
:100740000FBEE0E0F8E3099523E0A4EBB1E001C0BF
:100750001D92A134B207E1F711E0A0E0B1E0E4EFAF
:10076000F2E502C005900D92A43BB107D9F70E94B3
:10077000550D0C9478290C9400000895AF92BF9207
:10078000CF92DF92EF92FF920F931F93CF93DF935D
:10079000E82EF62EE901E42FF0E0611106C0EE5BD1
:1007A000FE4FE4914E2F2E2F71C0062F10E0EE5B0E
:1007B000FE4F4491F42FC42ED12C26E0829FC0011D
:1007C00011242FEF30E0B9010E9436295BEA56036D
:1007D000C001579F900D11248E0D911D8E0D911DFE
:1007E000582F550F580FD901A01BB10BAC9DC0015C
:1007F000AD9D900DBC9D900D1124E92FF59ED0016B
:100800001124AB2FBB277901EA1AFB0AEC9CD0011B
:10081000ED9CB00DFC9CB00D11245901A51AB10836
:10082000A09E7001A19EF00CB09EF00C1124EF2C44
:10083000FF242E193F092C9D80012D9D100D3C9DFC
:10084000100D1124212F6230710591F048F46115CB
:100850007105E1F061307105B9F4242F4B2F16C0FA
:100860006430710569F040F06630710579F00CC0B4
:10087000242F492FE12F0AC0492FEF2F2B2F06C01D
:10088000292FE42F412F02C0292FEB2F49832883E2
:10089000EA83DF91CF911F910F91FF90EF90DF904E
:1008A000CF90BF90AF90089590917A0292FF0DC0C3
:1008B000282F2871283019F4877F846006C0282FDC
:1008C0002471243011F48B7F886093FF0DC0282F92
:1008D0002871283119F4877E846106C0282F24717D
:1008E000243111F48B7E886120917B0220FF0DC0A2
:1008F000382F3871383019F4877F816006C0382F5F
:100900003171313011F48E7F886021FF0DC0282FA6
:100910002871283119F4877E816106C0282F217142
:10092000213111F48E7E886194FD877E0895609157
:10093000A802669570E04BE050E084E191E00E94EF
:100940006B29892B19F481E080938B020E9402218C
:10095000909385028093840280918C0284608093BE
:100960008C0208951F93CF93DF93CDB7DEB76797BF
:100970000FB6F894DEBF0FBECDBF4B8B5C8B6D8B7B
:100980007E8B8F8B86E09E01235F3F4FD901E82F3E
:100990001D92EA95E9F795E0FE017396D901019061
:1009A0000D929A95E1F7F901DE01179601900D92EB
:1009B0008A95E1F7CE0107960E94DA2381113EC0A5
:1009C00086E0FE013796DE01119601900D928A9520
:1009D000E1F7FF81E8856A857B856115710531F056
:1009E000EF3F31F481E0FF3F19F403C081E001C023
:1009F00080E080FD23C02091E40230E0C90101962F
:100A0000877099274091150350E08417950779F175
:100A1000F983EA837D836C8396E0929FD001939F54
:100A2000B00D1124AB51BD4FFE01319601900D92D6
:100A30009A95E1F78093E4020E943B2316E08091AF
:100A400015039091E4028917F9F0189FC001112451
:100A50008B519D4F0E94DA238823B1F080911503BA
:100A600090E001968770992780931503E8CF0E9444
:100A7000A6251092E40210921503EEEDF2E086E056
:100A8000DF011D928A95E9F767960FB6F894DEBFED
:100A90000FBECDBFDF91CF911F91089520915F02CE
:100AA000309160022817390771F0909360028093AB
:100AB0005F02E0917E02F0917F02309721F0008486
:100AC000F185E02D0994089520915D0230915E0238
:100AD0002817390771F090935E0280935D02E091D0
:100AE0007E02F0917F02309721F00680F781E02DA1
:100AF00009940895E0917E02F0917F02309721F0F1
:100B00000190F081E02D099480E008950F931F93E8
:100B1000CF93DF93C42FD22FFC0182818823C9F0A9
:100B20004093B9020E94022190935C0280935B0281
:100B300080E28C0F883008F057C0C77081E001C098
:100B4000880FCA95EAF7DF91CF911F910F910C940E
:100B5000BC258091B902481330C080915B0290910E
:100B60005C020E94F320883C910538F510E21D0FCD
:100B7000CD17B9F080E28C0F883040F4C77081E067
:100B800001C0880FCA95EAF70E94B125183028F5F0
:100B900081E09D2F977001C0880F9A95EAF70E9417
:100BA000BC25802F0E9464261830F0F4D77081E0B5
:100BB00001C0880FDA95EAF70AC080E28C0F88300E
:100BC00098F4C77081E001C0880FCA95EAF7DF91F9
:100BD000CF911F910F910C94B125802FDF91CF9170
:100BE0001F910F910C946426DF91CF911F910F916B
:100BF0000895CF93DF93C6EAD1E060E0CE010E9472
:100C000002292196C11584E0D807B9F7DF91CF9169
:100C10000895CF92DF92EF92FF920F931F93CF939D
:100C2000DF93C0E0D0E08E01005A1F4F6E018CE0D0
:100C3000C80ED11CFE01E95BFC4FE590F4906F2DCE
:100C4000CE0186960E9402296E2DCE0187960E94C3
:100C500002292296CC15DD0569F70C171D0731F71F
:100C6000E80100381140F9F6DF91CF911F910F9103
:100C7000FF90EF90DF90CF9008950F931F93CF9345
:100C8000DF93C42FD0E0CC0FDD1F2CE0629FC00D9E
:100C9000D11D112430E6839FC00DD11D1124CE013A
:100CA00086960E94EE28082F10E0102F0027CE0114
:100CB00087960E94EE289801282BC901DF91CF91D9
:100CC0001F910F910895462F843038F4783028F41E
:100CD000663018F4672F0C943D0680E090E008958C
:100CE000CF93C82F811102C06FEF01C061E282E291
:100CF00090E00E940229C11102C06FEF01C069E0BB
:100D000083E290E00E940229C11102C06FEF01C08E
:100D100063E284E290E0CF910C940229882311F0E1
:100D2000FA0101C0FB010994EAE8F2E01182828134
:100D3000846082830895309120018091A80280FF11
:100D400016C0E0911F0163E0E69FF0011124E75413
:100D5000FE4F539A8BB1877F9BB198602FB7F89461
:100D6000AF0163E0369F400D511D112414C08091E6
:100D7000210190912201891720F7E82FF0E0AF01BF
:100D8000440F551FE40FF51FE754FE4F11821082E8
:100D900012828F5FF0CFE417F50789F0319168E098
:100DA0009BB9000000C037FF8BB9330F000000C0B3
:100DB00000C000C08BB900C06A9591F7ECCF2FBF7F
:100DC0008FE594E00197F1F700C00000089590913D
:100DD000A80290FF16C09091210120912201921744
:100DE00070F4E92FF0E0DF01AA0FBB1FEA0FFB1F31
:100DF000E754FE4F8183608342839F5FF0CF0C9462
:100E00009B060895CF93DF9300D01F92CDB7DEB736
:100E10009091A80290FF0DC0413708F040E79E0175
:100E20002F5F3F4F0E94BE034B8169818A810E94E0
:100E3000E7060F900F900F90DF91CF910895CF9319
:100E4000DF93EC01E8EAF2E0438162818C810E9449
:100E500002078C818F5F8C83DF91CF910895CF93B0
:100E6000DF93EC01EC81F0E0E95BFD4F4491E8EAAF
:100E7000F2E0628181810E9402078C818F5F8C8306
:100E8000DF91CF910895E8EAF2E080818E7F808340
:100E90000E949406EAE8F2E08281816082832FEF6B
:100EA00080E792E0215080409040E1F700C00000D0
:100EB0000C949B068091A802282F269530E02115DE
:100EC000310519F48170826005C02331310524F0A9
:100ED000817084628093A8028091AB02813718F000
:100EE00080E78093AB020895CF92DF92EF92FF925A
:100EF0006B017C010E945A07B701A60188E090E0CF
:100F0000FF90EF90DF90CF900C941429AF92BF9296
:100F1000CF92DF92EF92FF920F931F93CF93DF93C5
:100F200000D01F92CDB7DEB7082FF62E142FE22E79
:100F30008091A80280FF83C0E82FE695AE2FB0E035
:100F4000AE5BBE4F9C9190938A028E7F823081F47B
:100F5000413708F040E79E012F5F3F4F6F2D802FF4
:100F60000E94BE034B8169818A810E94E70644C0CA
:100F7000923019F41091AB023FC0963019F40091F1
:100F8000A9023AC09930C1F5E9508E2F8170D82E50
:100F9000E695F0E0EE5BFD4FA590B490C12CBB242C
:100FA00060912301C61630F52C2D30E0A29EC001C1
:100FB000A39E900DB29E900D112470E00E943629E0
:100FC000802FD11002C0860F01C0861B9091210195
:100FD000290F311DA901440F551F240F351F275418
:100FE0003E4F412F113708F040E76F2D0E94BE039E
:100FF000C394D6CF0E949B068091A902081308C013
:101000008091AA02F81204C08091AB02181729F04F
:1010100080918C02826080938C020093A902F092EE
:10102000AA021093AB02EE2051F06091A8027091D9
:10103000A9028091AA029091AB020E9474070F90BE
:101040000F900F90DF91CF911F910F91FF90EF9034
:10105000DF90CF90BF90AF900895E8EAF2E043812F
:1010600021E1421B08F440E021E0628181810C947F
:101070008607E8EAF2E0438121E1420F08F44FEFEE
:1010800021E0628181810C948607E8EAF2E06281C6
:1010900021E1621B08F460E021E0438181810C942E
:1010A0008607E8EAF2E0628121E1620F08F46FEF5F
:1010B00021E0438181810C948607E8EAF2E0818196
:1010C00021E04381628188500C948607E8EAF2E0CF
:1010D000818121E043816281885F0C948607809141
:1010E000AC02882319F081508093AC026091A80271
:1010F0007091A9028091AA029091AB020C9474079E
:101100008091AC02833018F48F5F8093AC026091C1
:10111000A8027091A9028091AA029091AB020C944E
:1011200074079091A80290FF3BC09170811102C09A
:10113000926006C0833110F0946202C0880F982B31
:101140009093A80280918C02816080938C02662328
:1011500051F06091A8027091A9028091AA02909129
:10116000AB020E9474076091A802669570E04BE0A4
:1011700050E084E191E00E946B29892B19F00E94D4
:10118000940602C00E94970481E08093870220E0C9
:101190004091AB026091AA028091A9020C9486074B
:1011A00008958091A8028695815009F482E161E05A
:1011B0000C9491088091A80286958F5F833108F086
:1011C00081E061E00C9491089091A80290FF04C026
:1011D0009695981740F003C0811105C090E09617CE
:1011E00010F40C94DA0861E00C949108E8EAF2E05B
:1011F00083E0808311828FEF828380E78383148270
:10120000AAE8B2E012968C911297836012968C93A2
:1012100060817181828193810C9474078091B801FF
:10122000811112C08091D80080618093D8008AE13A
:101230008A95F1F700C08091D90080FD02C082E05C
:1012400001C081E08093B80181E09091B8019130B4
:1012500009F080E00895CF93DF930E946306EC01CC
:101260008238910559F1A0F48133910509F473C0D6
:1012700040F48932910509F467C08A9709F472C075
:1012800084C08533910509F458C0C997B9F07DC071
:10129000833E910571F138F4803E9105B1F0823EB4
:1012A000910511F172C0863E9105B9F1873E910515
:1012B000C9F1843E910509F068C024C080917A028A
:1012C00080FD5DC081FD5BC060C080917A0280FDC1
:1012D00050C080917B0280FF49C180917A0284FDD9
:1012E00043C1C3EED0E042C180917A0282FF3EC189
:1012F000F4CF80917A0282FD3FC080917B0280FD15
:101300003EC0EBCF80917B0281FF30C180917A0299
:1013100084FD2AC1C7EED0E029C180917A0283FF03
:1013200025C1F4CF80917A0283FD2CC080917B028D
:1013300081FFECCFC4EED0E019C180917A0285FF25
:1013400015C1C9E2D0E012C180917A0285FF0EC1B9
:10135000C5E3D0E00BC180917A0286FF07C1CAE2E3
:10136000D0E004C180917A0286FF00C1C1E3D0E0E1
:10137000FDC0C9E3D0E0FAC0C2EED0E0F7C0C0EED5
:10138000D0E0F4C0C6EED0E0F1C0C11581E5D807C9
:1013900008F066C0C11520E5D207E0F0CE0174E088
:1013A000969587957A95E1F783709C2F937021E04D
:1013B00030E002C0220F331F9A95E2F73C68382BC9
:1013C000CF70C695C69540E2C49FE0011124C22BA0
:1013D000D32BCCC0C83ED10560F5C03ED10508F086
:1013E000C5C0C83AD105B0F4C53AD10540F0C55AD8
:1013F000D0E0CE57DE4FC881D0E0D064B7C0C13056
:10140000D10509F4B3C008F4AFC0C430D10508F465
:10141000ABC0ACC0CF3BD10508F0A6C0C85AD0E0E5
:10142000CC0FDD1FCB57DE4F0990D881C02DD4647F
:101430009DC0C11540E2D40758F4C11581E0D8071A
:1014400008F094C0C03FD10508F48EC0D0658EC0AE
:10145000C11520E4D20708F487C0DF70D06A86C0C7
:10146000C11545E5D40708F042C0C11584E5D80789
:1014700028F0DC2FCC27C46FD06A78C0C11523E5D3
:10148000D207B0F0CE018370992721E030E002C08E
:10149000220F331F8A95E2F78C2F8695869540E2BE
:1014A000849FC0011124E901C82BD92BDA685EC0E2
:1014B000C11542E5D40728F4DC2FCC27C16FD06AD0
:1014C00055C0CE018370992721E030E002C0220F81
:1014D000331F8A95E2F78C2F8695869540E2849F8C
:1014E000C0011124E901C82BD92BDC683FC0C1150C
:1014F00089E5D807B8F4C11528E5D20728F0DC2F14
:10150000CC27C06FD06A32C0C11546E5D40760F55C
:101510008C2F0E9454048F71C82FD0E0DC2FCC2771
:10152000D06224C0C1158AE5D80780F48C2F8F7053
:101530000E94540494E0D695C7959A95E1F7CF7030
:10154000D0E0DC2FCC27D069C82B10C0CE0190563C
:101550008115904248F48D2F8F710E945404DD272D
:10156000D0628F71D82B02C0C0E0D0E0CE01DF91F5
:10157000CF910895811129C081E0611113C080933A
:101580000C010E9402218160782F90930E018093BC
:101590000D0140910A0150910B0160910C01809165
:1015A0000E013CC0809311010E9402218160782FBE
:1015B000909313018093120140910F0150911001FB
:1015C000609111018091130129C0813049F56111A9
:1015D00013C0809302010E9402218160782F9093B2
:1015E0000401809303014091000150910101609139
:1015F00002018091040112C0809307010E94022120
:101600008160782F90930901809308014091050132
:101610005091060160910701809109010E94B20476
:1016200081E008956F927F928F929F92AF92BF92C6
:10163000CF92DF92EF92FF920F931F93CF93DF939E
:1016400065E571E000E712E024E7E22E22E0F22EE9
:101650003801C0E0AA24A394B12CDB018D91BD0117
:10166000E82FE295EF70F0E021A18F70A50102C094
:10167000440F551F8A95E2F7CA01242B21A322A10A
:10168000942E9094292122A350EA5A95F1F79DE5D2
:10169000C92E91E0D92E20E030E0D0E0D6018D9027
:1016A0006D01482D42954F7050E0DA0190964C91B3
:1016B00050E0B82DBF7002C055954795BA95E2F736
:1016C00040FD07C04A2D022E01C0440F0A94EAF7DC
:1016D00001C040E0D42B2F5F3F4F26303105F1F69B
:1016E00091A1992291A292A1892B82A3F3018081D9
:1016F000D81719F0D08381E001C080E0C82BFFEF3C
:101700006F1A7F0AE614F70409F0A7CFD090790288
:10171000CC2349F081E08093B6010E94022190938E
:10172000B5018093B4018091B6018823A9F080911E
:10173000B4019091B5010E94F320069768F0ED2D59
:10174000F0E0E355FD4FD8018D918D018193EA16AC
:10175000FB06C9F71092B6010E940E09882309F40E
:1017600063C01091780280918C028823E9F085E0B3
:10177000E8EAF2E0A1E6B2E001900D928A95E1F785
:1017800080918A0290918B02A0918C0280936602D4
:1017900090936702A093680281E090E00E946B281A
:1017A000892B11F410928C0280E090E00E946B284B
:1017B000892B09F058C1E12FF0E0E355FD4F80E09F
:1017C00090E0DC01A659BD4F2C9121930196843005
:1017D0009105B9F7D0917D028D2F90E0FC01E35780
:1017E000FD4F7F0110916E028081181B012F101692
:1017F00054F40150D7018C918F5F8C9360E08D2F52
:101800000E94BA0AF4CF812F17FD80E0181B112324
:1018100009F462C01F5FF70180818150808361E01D
:101820008D2F0E94BA0AF3CFE09179020E2F10E0BB
:10183000809169028830C9F58091680280FF12C0EA
:101840008091610280FF0CC08091A802816080932A
:10185000A8028091610260E086950E94910802C012
:101860000E9443078091680281FF09C020E04091F7
:10187000640260916302809162020E9486078091F7
:10188000680282FF09C080916702882319F00E94D4
:10189000970402C00E9494068091680283FF03C0EF
:1018A00081E08093870210926902F801E355FD4FB1
:1018B00080E090E02191DC01A659BD4F2C93019668
:1018C00084309105B9F7E0919002F0E0E357FD4FC5
:1018D000808180936E02D9C01092B70120910F01D0
:1018E00080911001909111014091120150911301CA
:1018F000452B31F08F3F31F481E02F3F19F403C0C5
:1019000081E001C080E080FD02C0892F02C080E03C
:1019100090E080FF14C0109211010E9402218160AA
:10192000782F909313018093120140910F015091F1
:10193000100160911101809113010E94B204209165
:101940000A0180910B0190910C0140910D01509181
:101950000E01452B31F08F3F31F481E02F3F19F418
:1019600003C081E001C080E080FD02C0892F02C079
:1019700080E090E080FF14C010920C010E940221D0
:101980008160782F90930E0180930D0140910A01A0
:1019900050910B0160910C0180910E010E94B204E4
:1019A0002091050180910601909107014091080165
:1019B00050910901452B31F08F3F31F481E02F3FE9
:1019C00019F403C081E001C080E080FD02C0892FCE
:1019D00002C080E090E080FF14C0109207010E94D6
:1019E00002218160782F9093090180930801409132
:1019F00005015091060160910701809109010E9443
:101A0000B204209100018091010190910201409166
:101A1000030150910401452B31F08F3F31F481E0F7
:101A20002F3F19F403C081E001C080E080FD02C0B7
:101A3000892F02C080E090E080FF27C01092020151
:101A40000E9402218160782F90930401809303010A
:101A500040910001509101016091020180910401C7
:101A60000E94B20412C08091B7018F5F8093B701CA
:101A7000863008F433CFE0917802F0E0E355FD4F73
:101A8000108211821282138229CF8C2FDF91CF9185
:101A90001F910F91FF90EF90DF90CF90BF90AF908C
:101AA0009F908F907F906F900895CF93DF93CDB7E5
:101AB000DEB7AA970FB6F894DEBF0FBECDBF84B7CE
:101AC000877F84BF0FB6F894A895809160008861E5
:101AD00080936000109260000FBE90E080E80FB627
:101AE000F89480936100909361000FBE85B7806881
:101AF00085BF85B7806885BF0E94271D0E94461D4F
:101B00008091E20084608093E20078948091D10219
:101B10008823A1F01091E9001F709091EC00892FAB
:101B2000817090FD80E8182B1092E9008091E80008
:101B300083FD0E94051A1F701093E90082E084BDA6
:101B400093E095BD9AEF97BD80936E0057985F988C
:101B500089B1881F8827881F8093340180913401C0
:101B6000882321F010921F018BE103C08BE1809349
:101B70001F01809320010E940E09882331F062E04A
:101B800070E084E291E00E94892780913401809185
:101B90003401882311F090E001C094E09093790221
:101BA00084E0891B80937802A5E5B1E041E050E034
:101BB0008D91E82FE295EF70F0E021A18F70BA01CE
:101BC00002C0660F771F8A95E2F7CB01962F90959A
:101BD000922391A392A1892B82A371E0A935B70723
:101BE00039F7ADE5B1E041E050E08D91E82FE295A5
:101BF000EF70F0E021A18F70BA0102C0660F771F6D
:101C00008A95E2F7CB01962F9095922391A392A10A
:101C1000892B82A371E0A336B70739F7E0E7F2E03A
:101C2000ADEAB2E011921D9282E0E837F807D1F7F1
:101C30000E94120BEFE3FCE93197F1F700C00000BE
:101C40000E94120B8091AD0280FF0AC080E00E94CA
:101C500070066FEF7FEF80E090E00E94202902C5C0
:101C600080E090E00E94FC288C3E9E4F11F00E9484
:101C70008C210E940E09811106C062E070E084E2AE
:101C800091E00E94922782E290E00E94EE28813249
:101C900081F483E290E00E94EE28893051F484E2DE
:101CA00090E00E94EE2891E0833209F090E0892FC5
:101CB00001C080E080FFFCC480E090E00E94FC282E
:101CC0008C3E9E4F11F00E948C2182E090E00E9499
:101CD000EE2880939F020E947B2190937B02809349
:101CE0007A0283E090E00E94EE28682F70E080E0A6
:101CF00090E00E94312380917C0281113BC080E002
:101D000090E00E94FC288C3E9E4F21F00E948C2186
:101D10000E94F60888E090E00E94F6286093A802EE
:101D20007093A9028093AA029093AB0280918C02D7
:101D3000836080938C026E7F71F40E94F60888E0C5
:101D400090E00E94F6286093A8027093A902809305
:101D5000AA029093AB020E945A070E9494068091B7
:101D6000A80280FF04C060E086950E94910881E08F
:101D700080937C0280913401811106C086E38093B8
:101D8000360186E68093350120913601A22FA29577
:101D9000AF70B0E091963C9191972F7081E090E008
:101DA000AC01022E01C0440F0A94EAF7542F50955B
:101DB000352391963C93919792963C919297432B21
:101DC00092964C93929740913501E42FE295EF70F3
:101DD000F0E031A14F70042E01C0880F0A94EAF799
:101DE000982F9095932391A392A1892B82A39096EB
:101DF0008C9190E002C0959587952A95E2F78170C5
:101E000020A130E002C0359527954A95E2F720FFE2
:101E100002C092E001C090E0892B809391029091E2
:101E2000340181E0982790939002891B80937D0272
:101E300087E391E090937F0280937E02BE016F5F03
:101E40007F4F7B0177247A9442E0642E1E017BE071
:101E5000270E311C55EB452E52E0552E68E1C62E5B
:101E6000D12C8091D102853009F036C08091D10209
:101E7000843011F11092800280E40FB6F894A89596
:101E8000C09260000FBE8093600083B7817F846042
:101E900083BF83B7816083BF7894889583B78E7F33
:101EA00083BF0FB6F894A8958091600088618093F5
:101EB0006000109260000FBE8091C702882309F471
:101EC000D0CF0E94120BEDEAF2E081918111D1C3D3
:101ED0004E165F06D1F7C5CF0E94120B0E940E0965
:101EE0008823A1F1A0EAB2E0EDEAF2E000E010E020
:101EF000302F21919D91922721F180E0BB24B39452
:101F0000492F4B21D1F089A33AA32B2181E009F479
:101F100080E08BA30E9402218160782F9DA38CA377
:101F200049A15AA16BA18DA10E94B204F801E0560B
:101F3000FD4F8081B826B08218C08F5FBB0C863001
:101F4000F9F60F5F1F4F0830110591F67EA27FA2B0
:101F500018A60E9402218160782F9AA789A74EA116
:101F60005FA168A58AA50E94B20480918B02882394
:101F700009F47DC080918A02E091A802E695E81BF1
:101F8000E0938602823059F4F0E0E653FB4FE4918F
:101F90000E2F10E03FE2A32E37E0B32E13C08630A1
:101FA00059F4F0E0E953FB4FE4910E2F10E02FE1DC
:101FB000A22E27E0B22E06C000ED17E09DEBA92E61
:101FC00093E0B92E80918702882389F010928702CE
:101FD0000E940221980120953095820F931F9093C3
:101FE0008502809384021092890210928802809167
:101FF0008402909185020E94F32080179107B8F126
:10200000809183028823B1F0109283028091810233
:10201000909182020E94F3208033954758F00E94ED
:102020000221909382028093810280918C028860C9
:1020300080938C028090880290908902E0918402C3
:10204000F09185020E0F1F1F1093850200938402EA
:1020500084E892E0F50109958091880290918902C7
:10206000892B29F4892819F081E0809383028091DB
:102070009102E82FEE0FEE0F80913601A82FA29566
:10208000AF70B0E090962C9130E08F7002C0359523
:1020900027958A95E2F72170332780913501A82F83
:1020A000A295AF70B0E090964C9150E08F7002C056
:1020B000559547958A95E2F7CA018170992740FFA7
:1020C00002C082E090E0822B932B8E2B80939102B2
:1020D000109190028F70E82FF0E0ED59FE4F908143
:1020E00080918F02890F80938F0284306CF0E12FF2
:1020F000012E000CFF0BE357FD4F80818F5F808323
:1021000060E0812F0E94BA0A80918F028D3F6CF4AB
:10211000E12F012E000CFF0BE357FD4F8081815012
:10212000808361E0812F0E94BA0A80918F028378B8
:1021300087FF03C081508C6F8F5F80938F0286E092
:10214000E8E9F2E0D70101900D928A95E1F7A090BD
:102150009A02B0909B0200919C0210919D021092F5
:102160009A0210929B0210929C0210929D02A11062
:1021700003C0BB2009F451C0809196029091970250
:102180000E94F3209C0190919502992309F49DC22D
:102190002333310508F441C09F3F19F09F5F9093AE
:1021A0009502AA2061F00E9434201A1414F491E0E0
:1021B00001C09FEF899F802D112480939A02BB203C
:1021C00061F00E9434201B1414F491E001C09FEFD1
:1021D000899F802D112480939B0230919A02332392
:1021E000E1F020919B022223C1F045EB3403C001B2
:1021F0001124992319F090939A0203C081E08093EF
:102200009A0265EB2603C0011124992319F09093DB
:102210009B0203C081E080939B02011103C0112344
:1022200009F451C080919302909194020E94F3208E
:102230009C0190919202992309F44CC225363105F4
:1022400008F441C09F3F19F09F5F909392020023D2
:1022500061F00E941220101614F491E001C09FEF6B
:10226000899F802D112480939C02112361F00E948C
:102270001220111614F491E001C09FEF899F802D68
:10228000112480939D0230919C023323E1F0209130
:102290009D022223C1F075EB3703C001112499235D
:1022A00019F090939C0203C081E080939C0235EB6F
:1022B0002303C0011124992319F090939D0203C0B8
:1022C00081E080939D0280919A0281110BC08091E0
:1022D0009B02811107C080919C02811103C08091F3
:1022E0009D0281110E940E21AB82BC820D831E8350
:1022F00086E0F701A8E9B2E001900D928A95E1F736
:102300000E947A0590919E02891721F00E947A0519
:1023100080939E028091D102843009F0A2CD43E0E7
:102320004093E9008091E80082FF9BCD8091E80016
:1023300085FF21C00E94801E81111BC080E2A82E53
:10234000B12C870109C08091F100F80181938F01C0
:10235000F1E0AF1AB10869F08091E80085FDF3CF94
:102360008091E8008B778093E8000E94801E88238C
:1023700099F391E001C090E08091E8008B77809321
:10238000E800992309F46DCDE9818E2F90E0FC01DE
:102390003197E331F10508F067C1EA5AFF4F0C9419
:1023A0005E291A8289E0A7C08A81823009F477C148
:1023B000833089F0813009F057C12FB7F8948091AC
:1023C000B5029091B602A091B702B091B8022FBFAA
:1023D000BB83AC831CC0FE013396ADEAB2E08D91A5
:1023E0008193E215F305D9F740C18A81823009F063
:1023F0003BC16B817C818D819E810E94642985E235
:1024000090E024C04C816B818A810E943D069D83AF
:102410004DC10D811E811027012710278C81AB80B3
:102420009A812CE0A29E5001112430E6939FA00CCB
:10243000B11C1124A80EB11CA80EB11C612FC5013E
:1024400086960E940229602FC50187960E94022964
:102450000CC10E94090609C18A818138B1F050F48B
:10246000803809F002C120E04B816091AA0280917E
:10247000A90223C08238E9F0833809F0F6C020E0D1
:102480004091AB026C818B8118C060E08B810E940F
:1024900091088B81811103C00E944307E6C080919F
:1024A000A80281608093A80260E086950E9491084E
:1024B000DCC08B818093AC02D8C00E948607D5C057
:1024C0008A81813899F030F4803809F0CEC080914B
:1024D000AB0211C0823899F0833809F0C6C08091F0
:1024E000A9028B838091AA028C83BFC08091A8022D
:1024F00080FF03C086958B83B8C080E0FCCF8091BD
:10250000AC02F9CF6091A8027091A9028091AA0251
:102510009091AB020E947407A8C080E18A83A5C095
:102520006A828AE5E8CF0A811B81102701271027DC
:10253000AC80B12C4701C8018A559E4F94012E19D9
:102540003F092A153B0508F090C00A3542E0140700
:1025500028F40E94EE28F401848302C0F40114825E
:102560000F5F1F4FFFEF8F1A9F0AE5CF0A811B8174
:10257000102701271027AC80B12C4701C8018A55CC
:102580009E4F94012E193F092A153B0508F06DC096
:102590000A3522E0120720F4F40164810E94022926
:1025A0000F5F1F4FFFEF8F1A9F0AE8CF0E94F905B8
:1025B0005CC024E02A8359C00A811B8110270127AF
:1025C0001027AC80B12C4701C801869694012E19C2
:1025D0003F092A153B0508F048C0003831E01307D1
:1025E00028F40E94EE28F401848302C0F4011482CE
:1025F0000F5F1F4FFFEF8F1A9F0AE6CF0A811B81E3
:10260000102701271027AC80B12C4701C8018696FE
:1026100094012E193F092A153B0538F5003821E0B1
:10262000120720F4F40164810E9402290F5F1F4FFA
:10263000FFEF8F1A9F0AEACF80E00E9470066FEFCB
:102640007FEF80E090E00E9420290FC0C7010E9428
:10265000DF1E2FEF31EE44E0215030404040E1F7E3
:1026600000C000000E94BC207982C7010E94DF1ECA
:10267000F8CB80E189BD82E189BD09B400FEFDCFC0
:102680008091D8008F7D8093D8008091E000826097
:102690008093E0008091E00081FDFCCFE2CB85E2F9
:1026A00090E00E94EE281B821C821D828E83DDCF6B
:1026B00060E085E290E00E9402290E9409060E94E3
:1026C000F90581E00E947006F7CA2D32314008F00A
:1026D00065CDA3CD2D32314008F0B6CDF4CD5F925B
:1026E0006F927F928F929F92AF92BF92CF92DF9222
:1026F000EF92FF920F931F93CF93DF93CDB7DEB787
:1027000029970FB6F894DEBF0FBECDBFFC018081C4
:10271000918123813481232B31F09F3F31F491E06B
:102720008F3F19F403C091E001C090E090FD39C6DD
:102730007F0185E0DE01119601900D928A95E1F707
:10274000F701228189819A81222349F00E94222265
:10275000182F682F89819A810E949C2203C00E94B1
:102760006F22182F69817A81812F0E9463068C0164
:10277000F7019281992309F4DFC0980122513F4566
:102780002031310508F004C18FEF93E00E94EE285C
:102790008111DCC0025136EA832E992493940023E0
:1027A00079F08114F4E09F0609F4D0C0C4010E94BE
:1027B000EE28811101C001501FEF811A910AEFCF5D
:1027C0001E821F8218861986662463942AE0522E80
:1027D00084010F5F1F4FC4010E94EE288E831F8269
:1027E000882309F4B3C09FEF980F933060F48F8370
:1027F0006E8222E0820E911CC8010E94EE2888871A
:10280000811102C0A3C048018E010A5F1F4FF80169
:1028100020812223E9F2213009F04CC081818130EE
:1028200049F46801F2E0CF0ED11CF80182810E94C8
:1028300064260AC0823051F46801F2E0CF0ED11C48
:10284000F80182810E940526860173C0833049F415
:102850006801F2E0CF0ED11CF80182810E94C625EA
:10286000F3CF843019F00F5F1F4F63C0F80122814E
:102870000E5F1F4F80E090E030E0205331092A3096
:10288000310568F4589EA001599E500D1124C901CC
:10289000840F951F0F5F1F4FF8012081EDCF009728
:1028A00009F447C0EFE9FFE03197F1F700C00000FD
:1028B0000197F5CFE22FF0E0E251FB4F7490822FA9
:1028C00086958695869590E0FC01E252FB4FA49098
:1028D0002770B12C022E02C0B594A7940A94E2F797
:1028E000F1E0AF22BB24FC01E253FB4FC490D12C9A
:1028F00002C0D594C7942A95E2F721E0C222DD24D4
:10290000A114B10419F081EE0E940526C114D1046E
:1029100019F086EE0E940526872D0E946426CD2898
:1029200019F086EE0E94C625AB2819F081EE0E94B0
:10293000C6250F5F1F4F6BCF00313FE5130709F02E
:10294000B5C481E00E94D2220E94E719809134032D
:10295000877009F426C5F7018281882309F421C50F
:1029600082E029960FB6F894DEBF0FBECDBFDF918F
:10297000CF911F910F91FF90EF90DF90CF90BF907C
:10298000AF909F908F907F906F905F900C94F72204
:102990000031FFE51F0711F481E005C001312FE58B
:1029A000120721F482E00E941023CECF033FFCE502
:1029B0001F0749F406E221EE40EE63EF7CE5C70114
:1029C0000E948605C3CF043F2CE5120708F04AC1D8
:1029D000083D3CE5130731F407E225EE45EE68EDCE
:1029E0007CE5EDCF093D8CE5180731F408E221E0E4
:1029F00045EE69ED7CE5E3CF073DECE51E0731F4DC
:102A000006E221EE41EE67ED7CE5D9CF992309F48A
:102A10005EC11092B90202303CE5130708F441C1CF
:102A200006318CE5180738F098012A5F3C452930BB
:102A3000310508F036C10E947B2190937B02809380
:102A40007A0200319CE5190709F4C3C008F041C0BF
:102A50000830FCE51F0709F49AC0F0F404303CE5A7
:102A6000130709F487C068F402309CE5190709F4DC
:102A700077C003301C4509F0E5C080917A0282607E
:102A800076C00630FCE51F0709F46EC008F07BC075
:102A900080917A0288606BC00C303CE5130709F422
:102AA00085C068F40A309CE5190709F474C008F081
:102AB00079C00E94A62580917A02806858C00E30A5
:102AC000FCE51F0709F476C008F07FC080917A0208
:102AD0008BC00B3F3CE5130709F44FC018F50331D9
:102AE0009CE5190709F47DC078F40131FCE51F0766
:102AF00009F473C002311C4509F0A4C00E94A62548
:102B000080917A028F7733C005313CE5130709F4D1
:102B100072C008F486C00A3F1C4509F093C080913A
:102B20007B023EC00F3FECE51E0709F45FC058F47E
:102B30000D3F2CE5120709F444C008F43FC0809112
:102B40007B0282602DC001308DE5180709F475C045
:102B500008F45DC002301D4509F074C060E06EC02D
:102B600080917A02816003C080917A0280618093B3
:102B70007A0268C080917A0211C080917B028260E3
:102B800080937B025FC080917A028062F0CF809157
:102B90007A028064ECCF80917A0288608460E7CF0B
:102BA0008160EECF80917A028E7FE1CF80917A02B0
:102BB0008D7FDDCF80917A02877FD9CF80917B0294
:102BC00018C080917B028D7FDBCF80917A028F7E4F
:102BD000CECF80917A028F7DCACF80917A028F7B8F
:102BE000C6CF80917A02877F8B7FC1CF80917B0295
:102BF0008D7F8E7FC5CF80917A0282FB222720F9BC
:102C000091E0922790FB82F990FB83F9B0CF8091FD
:102C10007B02982F909591708E7F892B90FB81F984
:102C2000AFCF0E94A62580917A0287FB222720F948
:102C300091E0922790FB87F99ACF61E08EE090E0D7
:102C40000E94022960917A0210917B0284E090E058
:102C50000E940229612F81E290E00E9402290E94D5
:102C6000A62574CE053FFCE51F0731F406E221EEF0
:102C700042EE65EF7CE5A3CE053F2CE5120730F46C
:102C800007E225EE44EE64EF7CE599CE063F3CE595
:102C9000130709F0BBCE07E225EE46EE66EF7CE5B2
:102CA0008ECE06318CE5180751F5809137038A7A6C
:102CB00091E009F490E09093BA02882311F065E363
:102CC00001C069E286ED92E00E94612115C00631E3
:102CD000ECE51E0759F58091BA02882309F4EDC28C
:102CE00085E3E6EDF2E09281891301C0128231960C
:102CF00002E0EC3DF007B9F70E94F52127CE01155F
:102D00008CE5180731F00E3D1C45D1F40E948C2152
:102D10001DCE0E94A625FFEF04E31CE0F150004009
:102D20001040E1F700C000000E94BC2080913703F2
:102D30008272F801E25CFC45E431F10508F4BFC29F
:102D4000F70100811181992349F0C8010E942222D4
:102D5000D82E682FC8010E949C2204C0C8010E947E
:102D60006F22D82EB8018D2D0E942B098C01982E30
:102D7000F701A580A2949FE0A922D280D1101092E1
:102D8000360380913403877099F0DD2089F0812F1C
:102D9000807F803421F080E2800F883048F082E02C
:102DA0000E94F722809134038770CC24C394811150
:102DB000C12CB12EB2948FE0B8228B2D90E08C30D4
:102DC000910508F040C2FC01E759FF4F0C945E29C1
:102DD000812F807F1F70882311F01295107FDD20D6
:102DE000B9F0112309F41AC280E2800F883010F084
:102DF000911006C080913703182B1093370305C03C
:102E000080913603182B109336030E94F52106C2D9
:102E1000802F0E94C625112309F415C2005E10956B
:102E2000083010F0911006C08091370318231093DA
:102E3000370305C0809136031823109336030E9490
:102E4000F52101C2812F807F1F70803211F0129511
:102E5000107F992021F0F1E09F16E1F02AC0DD20DB
:102E600081F080913803AA2051F001E0A01207C040
:102E7000182B181709F4E7C110933803E4C1812B0C
:102E800010C0AA2021F021E0A21609F4DCC10E94A2
:102E9000EF2127C0DD2041F035E03A1508F4D3C119
:102EA000812F0E94BC25CFC184E08A1508F4CBC1D4
:102EB00018C0DD2049F0AA2099F3F701858180FF31
:102EC000ADC18F708583ECCFAA2059F0093309F08A
:102ED000B7C1FFEF17EE23E0F15010402040E1F7BB
:102EE000ADC1812F0E94B125AEC1812F86958695F7
:102EF000837019F0813059F0A6C1DD2019F0C801A6
:102F0000937002C080E090E00E946405A2C1DD20C1
:102F100019F0C801937002C080E090E00E944E0555
:102F200098C1802FDD2019F00E94542002C00E9419
:102F30008D1F0E940E218DC1812F837009F069C001
:102F4000D11085C1902F929596959770990F990FF2
:102F5000802F8F70882E912CA12CB12C092E04C0AB
:102F6000880C991CAA1CBB1C0A94D2F704FF12C03F
:102F70004FE050E060E070E004C0440F551F661F52
:102F8000771F9A95D2F7DB01CA0180959095A0959D
:102F9000B09503C080E090E0DC0116951695412FB6
:102FA0004370423019F1C8F40091390310913A038B
:102FB00020913B0330913C03413059F088299929F5
:102FC000AA29BB29BC01CD0160237123822393234D
:102FD0000AC0802A912AA22AB32ABC01CD016829FD
:102FE00079298A299B290E94312331C1882999296D
:102FF000AA29BB290091390310913A0320913B0380
:1030000030913C03BC01CD016027712782279327B3
:10301000EACFDD2019F0812F817001C086958823C9
:1030200009F415C1902F929596959770990F990F65
:10303000802F8F70882E912CA12CB12C092E04C0CA
:10304000880C991CAA1CBB1C0A94D2F704FF12C05E
:103050004FE050E060E070E004C0440F551F661F71
:10306000771F9A95D2F7DB01CA0180959095A095BC
:10307000B09503C080E090E0DC0116951695412FD5
:1030800043704230D9F068F50091D2021091D3021A
:103090002091D4023091D502413059F088299929E4
:1030A000AA29BB29BC01CD0160237123822393236C
:1030B0001EC0802A912AA22AB32A13C088299929DE
:1030C000AA29BB290091D2021091D3022091D402E7
:1030D0003091D502BC01CD0160277127822793274B
:1030E00006C0BC01CD01682979298A299B290E9443
:1030F000C822ADC01F70DD2039F0812F0E9410233F
:10310000802F0E94BC25A3C0802F0E94B125812F53
:103110000E94D2229CC0802F32EF931609F440C047
:10312000391538F090EF991661F0E1EF9E1699F19C
:1031300070C0F3EF9F16D9F124EF921609F44EC038
:1031400068C0DD2019F134E03A1508F47CC01F7125
:1031500081E090E0A0E0B0E0AC01BD0104C0440F0C
:10316000551F661F771F1A95D2F78091D202909152
:10317000D302A091D402B091D5028A019B01082705
:1031800019272A273B27C901B80125C025E02A15A0
:1031900008F459C0DCCFDD2029F0812F8F712CC0BD
:1031A000DD20D9F3812F8F710E94D2224CC0DD2007
:1031B00079F01F7181E090E0A0E0B0E0BC01CD01AA
:1031C00004C0660F771F881F991F1A95D2F703C096
:1031D00060E070E0CB010E94C82235C0DD2079F0AC
:1031E0001F71812F0E94102338E0139FC00111240A
:1031F000836080933403812F0E94102324C081E0D8
:103200000E94F72281E08A15F0F482E00E94F72202
:103210001AC0DD2039F0AA2009F4BFCF802F0E9408
:10322000052611C0AA2009F4BDCF893349F49FEFC8
:10323000E7EEF3E09150E040F040E1F700C000001D
:10324000802F0E94C62588EF8B0D843010F40E94D9
:103250007A05CC2009F4A5C08091340380FDA1C07B
:10326000F70112828595859585950E941023C701E7
:103270000E946F13809134038595859585952996D5
:103280000FB6F894DEBF0FBECDBFDF91CF911F9177
:103290000F91FF90EF90DF90CF90BF90AF909F90F5
:1032A0008F907F906F905F900C94D22201318FE5C8
:1032B000180709F07BCB82E045CB89E212CDEB58B1
:1032C000FF4F0C945E298091A80280FF20C08E7F62
:1032D0008093A8026091A8027091A9028091AA022D
:1032E0009091AB020E9474070E94940680918C0218
:1032F000816080938C021FEF20E732E01150204064
:103300003040E1F700C000000E949B061FCB8160A7
:103310008093A80261E0869536C041ED58E06AEDE1
:1033200078E02CC04AED58E061ED78E027C04DE52B
:1033300058E066E678E022C046E658E06DE578E0C1
:103340001DC045E458E061E578E018C041E558E06B
:1033500065E478E013C04DE258E069E378E00EC020
:1033600049E358E06DE278E009C04FE658E060E8D4
:1033700078E004C040E858E06FE678E00E948E06EE
:10338000E5CA61E081E00E949108E0CA65E082E060
:1033900005C068E086E002C062E189E00E94E408BE
:1033A000D5CA29960FB6F894DEBF0FBECDBFDF9108
:1033B000CF911F910F91FF90EF90DF90CF90BF9032
:1033C000AF909F908F907F906F905F9008950F9334
:1033D0001F938091D2029091D302A091D402B09118
:1033E000D5028C019D010670112722273327BC01CD
:1033F000CD01063011052105310511F4686001C0C9
:10340000677F1F910F910C94C8221F93CF93DF9376
:10341000CDB7DEB7AA970FB6F894DEBF0FBECDBF0B
:10342000E9ECF2E08091F100819342E0E13DF407A4
:10343000C9F78091CA02833009F462C030F4813048
:1034400071F0823009F49CC0B3C08A3009F488C09E
:103450008B3009F46DC0893009F0AAC020C080917A
:10346000C902813A09F0A4C08091E800877F809367
:10347000E8008091CD029091CE02892B21F468E082
:103480008EEB92E003C060E080E090E070E00E948C
:10349000CB268091E8008B778093E80089C08091EB
:1034A000C902813209F084C08091CD029091CE0290
:1034B000009719F0029709F07BC08091E800877FA0
:1034C0008093E8008091E80082FD05C08091D102E0
:1034D0008111F8CF6DC02091F3008091F20090E04F
:1034E000922B029729F48091F1008B7F813021F497
:1034F0008091F1008093BD028091E8008B7754C0E9
:103500008091C902813A09F053C08091CD02909117
:10351000CE02892B09F04CC08091E800877F809310
:10352000E8008091E80080FFFCCF8091410137C026
:103530008091C9028132E1F58091CD029091CE0255
:10354000892BB1F58091E800877F8093E8000E9485
:1035500077268091CB02809341010E94A62528C046
:103560008091C902813221F58091E800877F8093A4
:10357000E8000E9477268091CC028093BC0218C09C
:103580008091C902813AA1F48091E800877F8093FD
:10359000E8008091E80080FFFCCF8091BC0280931E
:1035A000F1008091E8008E778093E8000E947726F2
:1035B0008091E80083FFE9C18091C9029091CA021D
:1035C000492F50E04A30510508F0DFC1FA01E757B2
:1035D000FF4F0C945E29803821F0823809F0D5C164
:1035E00008C08091C6029091C702992389F0826039
:1035F0000FC08091CD028F70873008F0C6C18093D4
:10360000E9008091EB0085FB882780F91092E900A2
:103610009091E800977F9093E8008093F1001092DA
:10362000F1007CC1282F2D7F09F0AFC1882319F04C
:10363000823061F0AAC18091CB02813009F0A5C12E
:10364000933009F080E08093C7022EC08091CB02B6
:1036500081112AC08091CD028F702FEF280F263064
:1036600008F093C18093E9002091EB0020FF1CC07B
:10367000933021F48091EB00806214C09091EB00B4
:1036800090619093EB0021E030E0A90102C0440F6B
:10369000551F8A95E2F74093EA001092EA00809164
:1036A000EB0088608093EB001092E9008091E800C5
:1036B000877F8093E8000E94772667C1811165C1EA
:1036C0001091CB021F778091E3008078812B80934B
:1036D000E3008091E800877F8093E8000E947726CE
:1036E0008091E80080FFFCCF8091E30080688093A8
:1036F000E300111102C082E001C083E08093D10297
:1037000044C18058823008F040C12091CB023091F2
:10371000CC022C3D53E0350779F583E08A838AE2B9
:1037200089834FB7F894DE01139620E03EE051E222
:10373000E32FF0E050935700E49120FF03C0E2959F
:10374000EF703F5FEF708E2F90E0EA3010F0C79679
:1037500001C0C0968D939D932F5F243149F74FBFD1
:103760008091E800877F8093E8006AE270E0CE01F4
:1037700001960E94CB26C0C08091CD029091CE02CE
:10378000432F552743305105B1F068F441305105BE
:1037900009F40AC14230510509F0F7C08BE590E009
:1037A000E1E5F6E057C04132510589F14232510559
:1037B00009F43CC0EAC0C901992781309105B9F0EC
:1037C00070F082309105D9F0039709F0DEC0EEEB7E
:1037D000F6E0E4918E2F90E0EEEBF6E038C0E4EEF8
:1037E000F6E0E4918E2F90E0E4EEF6E030C0E0EDFC
:1037F000F6E0E4918E2F90E0E0EDF6E028C0E4ECF6
:10380000F6E0E4918E2F90E0E4ECF6E020C0833007
:10381000910508F0BAC0880F991FFC01E458FE4FCB
:103820000190F081E02D89E090E014C08330910593
:1038300008F0ABC0FC01EE0FFF1FEA58FE4F0190ED
:10384000F081E02DDC01AD58BE4F8C9190E00097E7
:1038500009F49BC02091E800277F2093E800209185
:10386000CF023091D0022817390708F4C90140E08F
:10387000009789F12091D102222309F43DC025301F
:10388000D9F12091E80023FD37C02091E80022FD06
:103890002FC02091E80020FFEBCF4091F300209152
:1038A000F20030E0342B009759F02830310540F415
:1038B00044914093F100319601972F5F3F4FF3CF32
:1038C00041E02830310509F040E02091E8002E77F2
:1038D0002093E800CDCF4111CDCF0AC08091D10215
:1038E000882351F0853041F08091E80083FD04C0C9
:1038F0008091E80082FFF2CF8091E8008B7780937F
:10390000E80043C0803809F040C08091E800877F1C
:103910008093E8008091C8028093F1008091E800D4
:103920008E77C7CE811131C08091CB029091CC02AD
:103930009927029754F58091E800877F8093E800EB
:103940001091CB021093C8020E947726111106C075
:103950008091E30087FD02C081E001C084E0809394
:10396000D10242E061EC81E00E94962642E261ECE5
:1039700084E00E94962642E261EC82E00E94962654
:1039800042E260EC83E00E9496268091E80083FF8B
:1039900010C08091E800877F8093E8008091EB0061
:1039A00080628093EB0005C082E190E0ECEAF6E0F3
:1039B00051CFAA960FB6F894DEBF0FBECDBFDF91F0
:1039C000CF911F9108951F920F920FB60F9211245D
:1039D0002F933F934F935F936F937F938F939F9317
:1039E000AF93BF93CF93DF93EF93FF93C091E90021
:1039F000CF708091EC00D82FD17080FDD0E810926C
:103A0000E9008091F000877F8093F00078940E9415
:103A1000051A1092E9008091F00088608093F00010
:103A2000CD2BCF70C093E900FF91EF91DF91CF9143
:103A3000BF91AF919F918F917F916F915F914F91C6
:103A40003F912F910F900FBE0F901F901895E8EDAA
:103A5000F0E080818E7F80831092E2001092DA0085
:103A60001092E100A0EEB0E08C9181608C93808197
:103A70008F77808319BCA7EDB0E08C918E7F8C93FB
:103A800080818F7E80831092BB020895CF92DF9257
:103A9000EF92FF920F931F93CF93DF93C8EDD0E087
:103AA00088818F7E8883E7EDF0E08081816080836C
:103AB00084E082BF81E08093BB0288818E7F88830F
:103AC00002EE10E0F80110821092DA0081EEC82EAA
:103AD000D12CF601108288818F7788838881806855
:103AE000888388818F7D888319BC1092D1021092BF
:103AF000C8021092C7021092C60290EEE92EF12C75
:103B0000F70180818B7F808388818160888342E098
:103B100060E080E00E949626F60180818E7F80839F
:103B2000F801808181608083808188608083F701D3
:103B300080818E7F8083888180618883DF91CF91AF
:103B40001F910F91FF90EF90DF90CF9008951F92FB
:103B50000F920FB60F9211242F933F934F935F93C1
:103B60006F937F938F939F93AF93BF93EF93FF9345
:103B70008091E10082FF09C08091E20082FF05C0D0
:103B80008091E1008B7F8093E1008091DA0080FFDB
:103B90002AC08091D80080FF26C08091DA008E7FF5
:103BA0008093DA008091D90080FF18C080E189BD40
:103BB00082E189BD09B400FEFDCF81E08093D1028E
:103BC0008091BB0281110FC00E94271D0E94461DDB
:103BD0008091E20084608093E20005C019BC1092DD
:103BE000D1021092BB028091E10080FF17C080914A
:103BF000E20080FF13C08091E2008E7F8093E2009C
:103C00008091E20080618093E2008091D800806220
:103C10008093D80019BC85E08093D1028091E100A7
:103C200084FF32C08091E20084FF2EC080E189BD14
:103C300082E189BD09B400FEFDCF8091D8008F7D5F
:103C40008093D8008091E1008F7E8093E100809185
:103C5000E2008F7E8093E2008091E2008160809399
:103C6000E2008091C802882311F084E007C08091AF
:103C7000E30087FD02C081E001C083E08093D102B0
:103C80000E94A6250E947A058091E10083FF27C04B
:103C90008091E20083FF23C08091E100877F8093C1
:103CA000E10082E08093D1021092C8028091E1008D
:103CB0008E7F8093E1008091E2008E7F8093E2000E
:103CC0008091E20080618093E20042E060E080E069
:103CD0000E9496268091F00088608093F000FF910A
:103CE000EF91BF91AF919F918F917F916F915F9174
:103CF0004F913F912F910F900FBE0F901F901895ED
:103D00002091E4003091E50095E64091EC00842F8D
:103D1000817040FF23C08091E80080FD1DC080912C
:103D2000D102882399F0853099F08091EB0085FDD0
:103D300011C04091E4005091E5002417350729F3A4
:103D4000915011F09A01E1CF84E0089582E0089546
:103D500083E0089581E0089580E008954091E800AF
:103D600042FFDDCF0895EF92FF920F931F93CF9301
:103D7000DF937C018B010E94801E811119C0E70135
:103D800001151105A1F08091E80085FD0AC0809120
:103D9000E8008E778093E8000E94801E882381F3DC
:103DA00007C089918093F10001501109E9CF80E0AB
:103DB000DF91CF911F910F91FF90EF900895CF93D6
:103DC0002091D1022430F9F4C091E900CF703091F4
:103DD000EC00232F217030FD20E8C22B22E020933D
:103DE000E9002091E80020FF0BC040E050E060E2D5
:103DF00070E00E94B31E8091E8008E778093E80007
:103E0000CF70C093E900CF9108958091BD020895CD
:103E1000CF93DF9300D01F92CDB7DEB79091D10240
:103E2000943011F589837B836A839093E9008FEF47
:103E30009091E800815095FD06C095ED9A95F1F7B7
:103E400000008111F5CF8091E80085FF0DC040E0B2
:103E500050E063E070E0CE0101960E94B31E8091B5
:103E6000E8008E778093E8000F900F900F90DF911D
:103E7000CF910895BC0184E00C94081FBC0183E03D
:103E80000C94081F24E02093E9002FEF3091E80004
:103E9000215035FD06C035ED3A95F1F700002111AE
:103EA000F5CF2091E80025FF0BC040E050E066E030
:103EB00070E00E94B31E8091E8008E778093E80046
:103EC0000895CF93DF9321E02093E9002FEF309105
:103ED000E800215035FD06C035ED3A95F1F70000B8
:103EE0002111F5CF2091E80025FF14C0EC0140E03E
:103EF00050E068E070E00E94B31E8091E8008E7789
:103F00008093E80088E0FE01AEEBB2E001900D92F4
:103F10008A95E1F7DF91CF910895803F39F4809140
:103F20009B0287FF6AC010929B0267C0813F29F401
:103F300080919B021816BCF360C090919A02823F58
:103F400029F497FF5AC010929A0257C0833F19F480
:103F50001916CCF352C090919C02893F31F4191686
:103F60000CF04BC010929C0248C08A3F19F497FF96
:103F700044C0F8CF8B3F39F480919D0287FF3DC04C
:103F800010929D023AC08C3F29F480919D02181630
:103F9000BCF333C0843F21F4809199028E7F17C017
:103FA000853F21F4809199028D7F11C0863F21F4D5
:103FB000809199028B7F0BC0873F21F480919902F9
:103FC000877F05C0883F31F4809199028F7E80936E
:103FD000990213C08D3F21F480913D038E7F0BC069
:103FE0008E3F21F480913D038D7F05C08F3F29F4E2
:103FF00080913D038B7F80933D0380919A028111D4
:1040000006C080919B02811102C01092950280919E
:104010009C02811106C080919D02811102C0109204
:104020009202089580913D0380FD16C081FD16C067
:1040300082FD18C080919202882391F0883290F41A
:1040400028E0829FC001112468E270E00E944A29A2
:10405000862F672B29F007C082E0089584E0089539
:1040600081E0089588E0089580913D0380FD14C0AB
:1040700081FD14C082FD16C080919502882381F0D5
:10408000843180F422E3829FC001112464E170E056
:104090000E944A29862F08958CE0089589E10895A9
:1040A00085E0089582E30895803F21F40E94342042
:1040B000819504C0813F29F40E94342080939B02A3
:1040C0000895823F21F40E943420819504C0833FEB
:1040D00029F40E94342080939A020895893F19F4AC
:1040E0000E94122005C08A3F31F40E94122081955F
:1040F00080939C0208958B3F21F40E9412208195A9
:1041000004C08C3F29F40E94122080939D020895E0
:10411000843F21F480919902816017C0853F21F48A
:1041200080919902826011C0863F21F480919902AA
:1041300084600BC0873F21F480919902886005C09C
:10414000883F31F4809199028061809399020895AB
:104150008D3F21F480913D0381600BC08E3F21F49F
:1041600080913D03826005C08F3F29F480913D031B
:10417000846080933D03089587E797E79093010853
:10418000809300089AE088E10FB6F894A895809390
:1041900060000FBE90936000FFCF78941F920F9243
:1041A0000FB60F9211248F939F93AF93BF9380917B
:1041B000B5029091B602A091B702B091B8020196F3
:1041C000A11DB11D8093B5029093B602A093B702D2
:1041D000B093B802BF91AF919F918F910F900FBE96
:1041E0000F901F9018959C014FB7F8948091B502DD
:1041F0009091B602A091B702B091B8024FBF821B56
:10420000930B08952FB7F8948091B5029091B60260
:10421000A091B702B091B8022FBF08950E94022169
:1042200020919A02211104C020919B02222321F0A7
:10423000909397028093960220919C02211104C0D2
:1042400020919D02222321F0909394028093930267
:10425000E0917E02F0917F02309749F082E08093F6
:1042600098020480F581E02D88E992E00994089590
:104270001F920F920FB60F9211248F939F93AF93BB
:10428000BF9380918002811113C08091B5029091FB
:10429000B602A091B702B091B8024196A11DB11D1E
:1042A0008093B5029093B602A093B702B093B80280
:1042B000BF91AF919F918F910F900FBE0F901F9064
:1042C00018959C01FC0132969FEF80E041914617C2
:1042D00089F09F3F19F4411101C0982F8F5F8630FC
:1042E000A9F79F3F39F0F901E90FF11D97FDFA9504
:1042F000628308950895CF9384E090E00E94EE28B1
:10430000C82F81E290E00E94EE282C2F30E0A90116
:10431000582BCA01CF9108956CEE7EEF80E090E0BB
:104320000E94202960E082E090E00E94022960E083
:1043300083E090E00E9402291092390310923A0320
:1043400010923B0310923C0360E084E090E00E94F6
:10435000022960E081E290E00E94022960E085E0AD
:1043600090E00E94022960E086E090E00E9402292D
:104370006FEF87E090E00E94022940E050E0BA0130
:1043800088E090E00E94142960E08DE090E00E94B7
:10439000022940E050E0BA0188E190E00E9414292F
:1043A00060E087E190E00E94022940E050E0BA011D
:1043B0008CE190E00E94142960E080E290E00E948D
:1043C000022940E050E0BA018FE090E00E941429F9
:1043D00040E050E0BA0183E190E00C941429809110
:1043E000380381111092380308959091370380911A
:1043F0003603892B20913503982F922B9093D60268
:1044000080913803882389F0892B8093D602E8EDC8
:10441000F2E097E080E0915029F021912223D9F336
:104420008F5FF9CF81110E94EF21E0917E02F09120
:104430007F02309731F00280F381E02D86ED92E02B
:1044400009940895BF92CF92DF92EF92FF920F935B
:104450001F93CF93DF938C01C090D202D090D302F0
:10446000E090D402F090D5028091390390913A0304
:10447000A0913B03B0913C03C82AD92AEA2AFB2A1F
:10448000CFE1D0E0D701C6010C2E04C0B695A795A8
:10449000979587950A94D2F780FD04C0219790F7ED
:1044A000B12C07C0BC2EB8018C2F0E942B0901979C
:1044B000A9F38B2DDF91CF911F910F91FF90EF907A
:1044C000DF90CF90BF900895CF93DF93EC010E94CF
:1044D0002222BE010E942B09DF91CF910895292F3E
:1044E000220F920F990F890F682F66956695669532
:1044F000982F977085E0689FB001112440E050E04C
:1045000080E0FB01E40FF51FEA5EFC4F208130E004
:10451000092E02C0369527950A94E2F721703327B9
:10452000042E01C0220F0A94EAF7822B4F5F5F4FDF
:104530004530510531F70895292F220F920F990F19
:10454000890FE82FE695E695E695877051E001C062
:10455000550F8A95EAF785E0E89FF0011124EA5E9D
:10456000FC4F20E030E070E04081CB01022E02C021
:10457000969587950A94E2F7817081958427852323
:10458000842781932F5F3F4F2530310569F70895C8
:104590006093D2027093D3028093D4029093D50299
:1045A0000C9489250F931F9341E050E060E070E088
:1045B00004C0440F551F661F771F8A95D2F7409598
:1045C0005095609570958091D2029091D302A09100
:1045D000D402B091D5028A019B01082319232A2312
:1045E0003B23C901B8011F910F910C94C82220915F
:1045F00034038095822380933403982F977079F445
:1046000030E0482F082E000C550B2417350739F0E1
:104610008595859585950E94D22210923403089540
:104620000F931F9341E050E060E070E004C0440F3E
:10463000551F661F771F8A95D2F78091D2029091FD
:10464000D302A091D402B091D5028A019B01082B1C
:10465000192B2A2B3B2BC901B8011F910F910C94E8
:10466000C8226093390370933A0380933B0390937D
:104670003C030C948925809115039091E4028917DD
:1046800019F08F5F8770FBCF08950F931F93CF931F
:10469000DF938091E30282958F7009F05DC0809175
:1046A000E002882309F458C0809115031091E402B8
:1046B0006091DE027091DF02C091E102D091E202CE
:1046C00091E06F3F09F090E0292F06E0811709F48F
:1046D00043C0209721F07F3F21F030E003C031E05C
:1046E00001C0322F90E030FD34C0089FF001099FD7
:1046F000F00D1124DF01AB51BD4F11963C91119784
:10470000371327C03C91361324C012963C91129760
:1047100031111FC013964D915C9114974C1B5D0B8A
:10472000483C5105B0F48091E3028F708061809322
:10473000E302E651FD4F80818F70806180838EEDB2
:1047400092E00E946F13DF91CF911F910F910C9413
:104750003B2301968770BACFDF91CF911F910F91C4
:1047600008950E946422292F2F70E92FE295EF709F
:104770004E2F50E0FA013297EE30F105B8F4ED56C5
:10478000FF4F0C945E29803F99F018F4883E70F436
:104790000FC0843F59F40CC0883E50F0813F31F483
:1047A00007C0822F869586958695089580E00895A6
:1047B00081E008959F92AF92BF92CF92DF92EF92E5
:1047C000FF920F931F93CF93DF93CDB7DEB761971F
:1047D0000FB6F894DEBF0FBECDBF8C0185E0F801A7
:1047E000DE011D9601900D928A95E1F7F801908106
:1047F0008181E2803091DE026091DF024091E1022E
:104800005091E2024115510531F06F3F31F421E042
:104810003F3F19F403C021E001C020E0F22FF17006
:104820009F2E20FD23C1F801C380D4802EEDA22E3F
:1048300022E0B22EF090E002F601E41BF50BFF201F
:1048400009F4CEC02091E302E83CF10508F099C0DC
:10485000422F407F09F051C0681311C039130FC0B7
:10486000FE2CE1100CC02F7020612093E302C501E3
:104870000E946F138091E302F801858337C1CD2830
:1048800031F08F3F31F421E09F3F19F403C021E064
:1048900001C020E020FD03C021E02E2502C020E061
:1048A00030E0F22FF170FF2E20FF1DC02091150384
:1048B0004091E40256E0241709F4F6C030E0529F1C
:1048C000F001539FF00D1124EB51FD4F61818613D0
:1048D00006C06081961303C06281E61204C02F5F98
:1048E0003F4F2770E8CFFE2CEE2009F4FFC08091E7
:1048F000E30281608093E30250C0681307C039135C
:1049000005C0E11003C0F80125838DC09D878E8707
:104910008D859E850E94B123882369F1EE2059F18F
:104920002091E302822F82958F7090E0029774F0BD
:104930008091DE029091DF0298878F831986DB8653
:10494000CA862C87CE0107960E946F1386E0F80175
:10495000AEEDB2E001900D928A95E1F70E944523F9
:104960000DC06817E1F09D878E878D859E850E941A
:10497000B12381111EC0C8010E946F13FF24F3945C
:10498000B5C0422F407F69F78EED92E00E946F1311
:1049900086E0F50111928A95E9F7F12CA7C0391349
:1049A000E2CFE110E0CFF8012583C8010E946F1328
:1049B00057C0EE2001F32091E302822F82958F7081
:1049C00090E002971CF28091DE029091DF029A83C0
:1049D00089831B82DD82CC822E83CE010196B4CFE7
:1049E000E83CF105E8F5FE2CEE2029F2681327C01B
:1049F000391325C02091E30220FD18C0822F829533
:104A00008F70482F50E04115510581F0F801258342
:104A10004F30510541F08F5F982F9295907F822FF4
:104A20008F70892B8583C8010E946F1386E0F8017F
:104A3000AEEDB2E001900D928A95E1F757C09D87E7
:104A40008E878D859E850E94B12381117FCF8091B5
:104A5000E30281608093E302C8010E946F1346C0A5
:104A600086E0F50111928A95E9F740C0EE2009F43D
:104A700082CF9D878E878D859E850E94B123F82EDB
:104A8000882309F478CF86E0F801AEEDB2E001901A
:104A90000D928A95E1F78091DE029091DF020E94EB
:104AA00064220E94452322C09D878E878D859E8526
:104AB0000E946422292F22952F70223028F49F70A3
:104AC00039F0811105C00BC0243028F49F7049F4DF
:104AD000805E883020F0C8010E946F139F2CF92C53
:104AE00005C0F8019581907F99F7F9CF8F2D6196D8
:104AF0000FB6F894DEBF0FBECDBFDF91CF911F91EF
:104B00000F91FF90EF90DF90CF90BF90AF909F906C
:104B1000089510923603109235030E94F521E8E9BA
:104B2000F2E086E0DF011D928A95E9F71092950286
:104B30001092920210923D030E940E2180E090E0BC
:104B40000E94640580E090E00C944E0510923703BB
:104B500086E0E8EDF2E0DF011D928A95E9F70C941A
:104B60008925882341F0809590913703892380938C
:104B700037030C94F5210895882339F09091370379
:104B8000892B809337030C94F52108958823E1F154
:104B90009CEF980F913A60F4E6EDF2E09281891370
:104BA00001C01282319642E0EC3DF407B9F714C01F
:104BB00090E2980F983090F4877021E030E0A901DE
:104BC00002C0440F551F8A95E2F7CA018095909163
:104BD00037038923809337030C94F5219BE5980FC5
:104BE000933020F480E090E00C94640598E5980FF1
:104BF000973120F480E090E00C944E05803F20F047
:104C00000E948D1F0C940E210895CF93882309F4E0
:104C100059C0C82F8CEF8C0F813AF8F4E8EDF2E020
:104C20008EED92E02191C21721F08E179F07D1F7E8
:104C30000EC0E6EDF2E08CED92E02281C21301C0DD
:104C4000128231968E179F07C1F70E94F5216C2FB3
:104C500086ED92E00E94612110C080E28C0F8830C6
:104C600078F4C77081E090E001C0880FCA95EAF738
:104C700090913703892B80933703CF910C94F521C2
:104C8000EBE5EC0FE33040F4F0E0EE57FE4F8081AF
:104C900090E0CF910C946405E8E5EC0FE73150F417
:104CA000F0E0EE0FFF1FEB57FE4F80819181CF9117
:104CB0000C944E05C03F30F08C2F0E945420CF91B1
:104CC0000C940E21CF910895CF93C82F0E940526F2
:104CD000C93349F42FEF87EE93E021508040904094
:104CE000E1F700C000008C2FCF910C94C625809175
:104CF000C90287FF11C08091E80082FD05C0809144
:104D0000D1028111F8CF11C08091E8008B770BC0E0
:104D10008091D102882349F08091E80080FFF8CF8C
:104D20008091E8008E778093E8000895982F97305F
:104D300068F59093E900981739F07091EC00209194
:104D4000ED005091F00003C0242F762F50E021FD9C
:104D500002C09F5FECCF3091EB003E7F3093EB00C1
:104D60003091ED003D7F3093ED003091EB003160EC
:104D70003093EB007093EC002093ED005093F00023
:104D80002091EE0027FDE5CF80E008958F7080939D
:104D9000E90081E008952091CF023091D0022617DA
:104DA000370748F06115710539F42091E8002E7736
:104DB0002093E80001C0B901FC0120E061157105F4
:104DC00079F18091D1028823F1F18530F1F1809160
:104DD000E80083FD3CC08091E80082FD2EC08091F8
:104DE000E80080FFEBCF2091F3008091F20090E08B
:104DF000922B6115710551F08830910538F421919D
:104E00002093F100615071090196F3CF21E00897DA
:104E100009F020E08091E8008E778093E800CECF03
:104E20002111CFCF0AC08091D102882361F0853053
:104E300061F08091E80083FD0AC08091E80082FF64
:104E4000F2CF80E0089582E0089583E0089581E044
:104E500008958EE14A9B02C08150E1F74A9BFECF44
:104E600008955A9880E28A95F1F75A9A0895FC01BC
:104E70002AE02A95F1F790E020E080E031E0261763
:104E800079F040E14A95F1F7880F4A9B02C08160B2
:104E9000932700C0000040E14A95F1F72F5FEFCF64
:104EA00020E12A95F1F729B100C0000030E13A95E0
:104EB000F1F722FB222720F992272081920F90837D
:104EC0000895EF92FF920F931F93CF93DF931F925A
:104ED000CDB7DEB719828C017C01E60EF11C0E15F0
:104EE0001F0559F00E94292768E0CE0101960E9413
:104EF0003727F80181938F01F2CF81E099819111D9
:104F000080E00F90DF91CF911F910F91FF90EF9074
:104F100008959093400380933F0360933E03529A19
:104F20005A9A08959093400380933F0360933E0301
:104F300052985A9AEA9AE9E6F0E080818F7C808361
:104F40000895615091E001C0990F6A95EAF720E059
:104F500031E0992361F0492F482319F05A9A232709
:104F600001C05A9840E24A95F1F79695F2CF222374
:104F700011F05A9A01C05A9880E28A95F1F75A982E
:104F80000895FF920F931F93CF93DF93EC018C0151
:104F9000060F111DC017D10741F0F9900E9431276B
:104FA00068E08F2D0E94A127F5CFDF91CF911F914F
:104FB0000F91FF9008951F920F920FB60F92112438
:104FC0000F931F932F933F934F935F936F937F9311
:104FD0008F939F93AF93BF93EF93FF93CF93DF9301
:104FE0001F92CDB7DEB719820E94292767E0CE0154
:104FF00001960E943727382F369536953695932F90
:1050000096959570232F2570920F292F23709695D2
:1050100096958770920F891348C08981811145C088
:1050200080913E03831708F440C080E18A95F1F730
:105030005A9A529AA2E0AA95F1F700C000913F0354
:1050400010914003B8E03B9F000D111D11245A98A8
:10505000F8016581662321F0868197810E94C1272E
:105060000E943127F0E1FA95F1F75A9852985A9A2E
:1050700080E18A95F1F7D80112966C911297662318
:1050800069F013968D919C9114970E946127D80125
:10509000ED91FC91811105C082E004C0D801ED9131
:1050A000FC9188E080830E9429270F90DF91CF91A7
:1050B000FF91EF91BF91AF919F918F917F916F91F0
:1050C0005F914F913F912F911F910F910F900FBEC4
:1050D0000F901F9018950F931F93CF93DF932091FC
:1050E0003E0330E0281739070CF471C09C0193E0AF
:1050F000220F331F9A95E1F7C0913F03D0914003EF
:10510000C20FD31FF894529A5A9845E04A95F1F786
:105110000000982F969595708570890F982F937041
:1051200086958695890F8901082B0E94312784E096
:105130008A95F1F700C067E0802F0E94A12740E127
:105140004A95F1F752985A9A4A9902C000C0FCCF8A
:1051500087E090E04A9B0EC0019751F4529A5A9A08
:10516000E881F98181E08083789481E090E031C02A
:1051700000C0F0CF6D81662381F08E819F810E94F7
:10518000612781110AC0529A5A9AE881F98182E016
:105190008083789482E090E01CC00E94292780E2FE
:1051A0008A95F1F75A98529A40E14A95F1F76A8147
:1051B000662321F08B819C810E94C1270E943127A8
:1051C000E881F9811082789480E090E002C084E068
:1051D00090E0DF91CF911F910F910895F999FECF43
:1051E00092BD81BDF89A992780B50895A6E1B0E0F7
:1051F00044E050E00C942829A8E1B0E042E050E0FF
:105200000C942829262FF999FECF92BD81BDF89ADA
:10521000019700B4021639F01FBA20BD0FB6F894FA
:10522000FA9AF99A0FBE08950396272F0E94032930
:105230000E940229252F0E940329242F0C94032960
:105240000196272F0E9403290C940229DC01CB012F
:10525000FC01F999FECF06C0F2BDE1BDF89A319686
:1052600000B40D9241505040B8F70895AA1BBB1BE3
:1052700051E107C0AA1FBB1FA617B70710F0A61B56
:10528000B70B881F991F5A95A9F780959095BC0177
:10529000CD01089597FB072E16F4009407D077FDF3
:1052A00009D00E94362907FC05D03EF490958195DF
:1052B0009F4F0895709561957F4F0895EE0FFF1FE2
:1052C0000590F491E02D099469279627692778279E
:1052D000872778270895FC014150504030F0019015
:1052E0000616D1F73197CF01089588279927089599
:0452F000F894FFCF60
:1052F400050700000004070000000103000000008F
:105304000300000001090A0B0C0D0E0F101112000E
:10531400360036366F02006F02056A0269020861C0
:1053240002000000013666051F611F421F3E1F3A3E
:105334001F01000102020202060606090909090901
:105344000909090909C63433320000000094F4F550
:10535400F6F73100FF0100010000FFFF000001002B
:1053640001FF004022811106EF056E0563067C06ED
:105374009C06818283E200E900EA00B500B600B72A
:1053840000CD008301CC008A019201940121022303
:105394000224022502260227022A02B300B4006F67
:0453A4000070000095
:00000001FF
