:100000000C9474030C94BB030C94BB030C943E2718
:100010000C94BB030C94BB030C94BB030C94BB0368
:100020000C94BB030C94BB030C94BA1C0C94F61BED
:100030000C944B200C94BB030C94BB030C94BB039B
:100040000C94BB030C94BB030C94BB030C94BB0338
:100050000C94BB030C94E01F0C94BB030C94BB03E7
:100060000C94BB030C94BB030C94BB030C94BB0318
:100070000C94BB030C94BB030C94BB030C94BB0308
:100080000C94BB030C94BB030C94BB030C94BB03F8
:100090000C94BB030C94BB030C94BB030C94BB03E8
:1000A0000C94BB030C94BB030C94BB03E410E7104B
:1000B000081115111C113C113F11731195112F12CC
:1000C0003912A011A311A611C911E911EC11EF11F8
:1000D0001112FB15FB15351635168816A4163618A1
:1000E0003618AF168D179E179E177618A018A518EC
:1000F000AA18AF18B418B918BE18C318C818CD1864
:10010000D418D918DC18B913B913B913B913DF18F7
:10011000B913FE19251AD81B251AD81B711A941A5F
:10012000D81B951BA51B26232623392339232F23D0
:10013000392339233923262326233423392339230A
:100140003423000101010101010101010202020247
:100150000202020202030303030303030304040471
:10016000040404040505050505060606060607073A
:1001700007070708080808090909090A0A0A0B0BF2
:100180000B0C0C0C0D0D0D0E0E0E0F0F0F10101191
:100190001111121213131414151516161717181817
:1001A00019191A1A1B1B1C1D1D1E1E1F202021227F
:1001B00022232424252626272829292A2B2C2D2DC5
:1001C0002E2F30313232333435363738393A3B3CE2
:1001D0003D3E3F404142434445464748494A4C4DD5
:1001E0004E4F50515354555658595A5B5D5E5F619E
:1001F0006264656668696B6C6D6F70727375777831
:100200007A7B7D7E8082838587888A8C8E8F91938E
:100210009596989A9C9EA0A2A3A5A7A9ABADAFB1B5
:10022000B3B5B7BABCBEC0C2C4C6C9CBCDCFD1D49A
:10023000D6D8DBDDDFE2E4E7E9EBEEF0F3F5F8FA40
:10024000FDFFFFAA7F55402223252628292A2C2D91
:100250002F3032333536383A3B3D3E4042434547F6
:10026000494A4C4E5051535557595A5C5E6062642E
:100270006668696B6D6F71737577797B7D7F81833C
:100280008587898A8C8E90929496989A9C9E9FA13D
:10029000A3A5A7A8AAACAEAFB1B3B4B6B8B9BBBC5E
:1002A000BEBFC1C2C3C5C6C7C9CACBCCCDCED0D1D3
:1002B000D2D2D3D4D5D6D7D7D8D9D9DADADBDBDBCB
:1002C000DCDCDCDCDCDDDDDDDDDCDCDCDCDCDBDB6C
:1002D000DBDADAD9D9D8D7D7D6D5D4D3D2D2D1D0C0
:1002E000CECDCCCBCAC9C7C6C5C3C2C1BFBEBCBBBD
:1002F000B9B8B6B4B3B1AFAEACAAA8A7A5A3A19F35
:100300009E9C9A98969492908E8C8A8987858381F8
:100310007F7D7B79777573716F6D6B6968666462D9
:10032000605E5C5A5957555351504E4C4A494745A7
:100330004342403E3D3B3A3836353332302F2D2C48
:100340002A292826252322290014001A000800152E
:100350000017002B6104001600070009000A00E1E5
:10036000001D001B00060019000500000000002B06
:100370006102512C0002511C0018000C00120013E5
:10038000002A000B000D000E000F00330034001196
:10039000001000360037003800E500015128000148
:1003A0005128000000000001001E001F0020002155
:1003B0000022000100010001000100010001000114
:1003C0000001000100010001000100000000000127
:1003D0000001000100010023002400250026002761
:1003E0000001005000510052004F0049004C00E64F
:1003F0000065004A004D004600E7000100010001D1
:100400000001000000000001001E021F0220022166
:1004100002220201000100010001000100010001AF
:1004200000010001000100010001000000000001C6
:1004300000010001000100230224022502260227F8
:1004400002350201002D022E022F0230023102017C
:100450000001000100010001000100010001000194
:100460000001000000000001003A003B003C003D9C
:10047000003E000100010001000100010001000137
:100480000001000100010001000100000000000166
:10049000000100010001003F004000410042004314
:1004A00000440001000100010001000100450001BD
:1004B000000100010001000100A56201000100012E
:1004C00000010000000000783C1E1E140A05000018
:1004D000000000000000000000000000000000001C
:1004E00000007E0F00D4FFFFFFC70000007800006F
:1004F0000000000000002A2B28000000000000007F
:1005000000000000000000000029000000002C1E78
:100510003420212224342627252E362D3738271E35
:100520001F202122232425263333362E37381F045B
:1005300005060708090A0B0C0D0E0F1011121314F3
:1005400015161718191A1B1C1D2F3130232D3504B1
:1005500005060708090A0B0C0D0E0F1011121314D3
:1005600015161718191A1B1C1D2F3130354C050193
:100570000902A10185020901A10005091901290546
:10058000150025019505750181029501750381010D
:100590000501093009311581257F9502750881060D
:1005A00009381581257F950175088106050C0A38E3
:1005B000021581257F950175088106C0C0050109D6
:1005C00080A101850319012AB700150126B70095FE
:1005D0000175108100C0050C0901A10185041901F4
:1005E0002AA002150126A002950175108100C006FF
:1005F00060FF0961A1010962150026FF00952075C1
:100600000881020963150026FF00952075089102F4
:10061000C005010906A101050719E029E715002514
:100620000195087501810295017508810105071979
:100630000029FF150026FF009506750881000508B2
:10064000190129059505750191029501750391011F
:10065000C009025B00030100A0FA090400000103C5
:100660000101000921110100012240000705810359
:1006700008000A0904010002030000000921110119
:100680000001222200070582032000010705030361
:1006900020000109040200010300000009211101EA
:1006A00000012281000705840320000A12011001C5
:1006B000000000083839323403000102030104034A
:1006C000300000000A0352006500340032000000D0
:1006D00012036B0075007300680069006D00610013
:1006E000380000000403090411241FBECFEFDAE034
:1006F000DEBFCDBF04B603FE27C080912D039091CD
:100700002E03A0912F03B09130038730904BA74068
:10071000B04BD1F410922D0310922E0310922F03A0
:100720001092300314BE84B7877F84BF0FB6F8944D
:10073000A8958091600088618093600010926000AD
:100740000FBEE0E0F8E3099523E0A0EAB1E001C0C4
:100750001D92AD32B207E1F711E0A0E0B1E0EAEBA3
:10076000F1E502C005900D92A03AB107D9F70E94B9
:10077000680C0C94DB280C9400000895AF92BF9293
:10078000CF92DF92EF92FF920F931F93CF93DF935D
:10079000E82EF62EE901E42FF0E0611106C0EE5BD1
:1007A000FE4FE4914E2F2E2F71C0062F10E0EE5B0E
:1007B000FE4F4491F42FC42ED12C26E0829FC0011D
:1007C00011242FEF30E0B9010E9499285BEA56030B
:1007D000C001579F900D11248E0D911D8E0D911DFE
:1007E000582F550F580FD901A01BB10BAC9DC0015C
:1007F000AD9D900DBC9D900D1124E92FF59ED0016B
:100800001124AB2FBB277901EA1AFB0AEC9CD0011B
:10081000ED9CB00DFC9CB00D11245901A51AB10836
:10082000A09E7001A19EF00CB09EF00C1124EF2C44
:10083000FF242E193F092C9D80012D9D100D3C9DFC
:10084000100D1124212F6230710591F048F46115CB
:100850007105E1F061307105B9F4242F4B2F16C0FA
:100860006430710569F040F06630710579F00CC0B4
:10087000242F492FE12F0AC0492FEF2F2B2F06C01D
:10088000292FE42F412F02C0292FEB2F49832883E2
:10089000EA83DF91CF911F910F91FF90EF90DF904E
:1008A000CF90BF90AF9008959091660292FF0DC0D7
:1008B000282F2871283019F4877F846006C0282FDC
:1008C0002471243011F48B7F886093FF0DC0282F92
:1008D0002871283119F4877E846106C0282F24717D
:1008E000243111F48B7E88612091670220FF0DC0B6
:1008F000382F3871383019F4877F816006C0382F5F
:100900003171313011F48E7F886021FF0DC0282FA6
:100910002871283119F4877E816106C0282F217142
:10092000213111F48E7E886194FD877E0895609157
:100930009402669570E04BE050E080E091E00E9408
:10094000CE28892B19F481E0809377020E9415202C
:1009500090937102809370028091780284608093FA
:10096000780208951F93CF93DF93CDB7DEB76797D3
:100970000FB6F894DEBF0FBECDBF4B8B5C8B6D8B7B
:100980007E8B8F8B86E09E01235F3F4FD901E82F3E
:100990001D92EA95E9F795E0FE017396D901019061
:1009A0000D929A95E1F7F901DE01179601900D92EB
:1009B0008A95E1F7CE0107960E943D2381113EC042
:1009C00086E0FE013796DE01119601900D928A9520
:1009D000E1F7FF81E8856A857B856115710531F056
:1009E000EF3F31F481E0FF3F19F403C081E001C023
:1009F00080E080FD23C02091D00230E0C901019643
:100A0000877099274091010350E08417950779F189
:100A1000F983EA837D836C8396E0929FD001939F54
:100A2000B00D1124AF52BD4FFE01319601900D92D1
:100A30009A95E1F78093D0020E949E2216E0809161
:100A400001039091D0028917F9F0189FC001112479
:100A50008F529D4F0E943D238823B1F08091010366
:100A600090E001968770992780930103E8CF0E9458
:100A700009251092D00210920103EAECF2E086E020
:100A8000DF011D928A95E9F767960FB6F894DEBFED
:100A90000FBECDBFDF91CF911F91089520914B02E2
:100AA00030914C022817390771F090934C028093D3
:100AB0004B02E0916A02F0916B02309721F00084C2
:100AC000F185E02D099408952091490230914A0260
:100AD0002817390771F090934A0280934902E091F8
:100AE0006A02F0916B02309721F00680F781E02DC9
:100AF00009940895E0916A02F0916B02309721F019
:100B00000190F081E02D099480E008950F931F93E8
:100B1000CF93DF93C42FD22FFC0182818823C9F0A9
:100B20004093A5020E9415209093480280934702AB
:100B300080E28C0F883008F057C0C77081E001C098
:100B4000880FCA95EAF7DF91CF911F910F910C940E
:100B50001F258091A502481330C0809147029091D3
:100B600048020E940620883C910538F510E21D0FCE
:100B7000CD17B9F080E28C0F883040F4C77081E067
:100B800001C0880FCA95EAF70E941425183028F58D
:100B900081E09D2F977001C0880F9A95EAF70E9417
:100BA0001F25802F0E94C7251830F0F4D77081E0F0
:100BB00001C0880FDA95EAF70AC080E28C0F88300E
:100BC00098F4C77081E001C0880FCA95EAF7DF91F9
:100BD000CF911F910F910C941425802FDF91CF910D
:100BE0001F910F910C94C725DF91CF911F910F9109
:100BF0000895CF93DF93C6EAD1E060E0CE010E9472
:100C000065282196C11584E0D807B9F7DF91CF9107
:100C10000895CF92DF92EF92FF920F931F93CF939D
:100C2000DF93C0E0D0E08E01005A1F4F6E018CE0D0
:100C3000C80ED11CFE01E95BFC4FE590F4906F2DCE
:100C4000CE0186960E9465286E2DCE0187960E9461
:100C500065282296CC15DD0569F70C171D0731F7BD
:100C6000E80100381140F9F6DF91CF911F910F9103
:100C7000FF90EF90DF90CF9008950F931F93CF9345
:100C8000DF93C42FD0E0CC0FDD1F2CE0629FC00D9E
:100C9000D11D112430E6839FC00DD11D1124CE013A
:100CA00086960E945128082F10E0102F0027CE01B1
:100CB00087960E9451289801282BC901DF91CF9176
:100CC0001F910F910895462F843038F4783028F41E
:100CD000663018F4672F0C943D0680E090E008958C
:100CE000CF93C82F811102C06FEF01C061E282E291
:100CF00090E00E946528C11102C06FEF01C069E059
:100D000083E290E00E946528C11102C06FEF01C02C
:100D100063E284E290E0CF910C946528882311F07F
:100D2000FA0101C0FB010994E6E7F2E01182828139
:100D300084608283089530910C018091940280FF39
:100D400016C0E0910B0163E0E69FF0011124EB5522
:100D5000FE4F539A8BB1877F9BB198602FB7F89461
:100D6000AF0163E0369F400D511D112414C08091E6
:100D70000D0190910E01891720F7E82FF0E0AF01E7
:100D8000440F551FE40FF51FEB55FE4F11821082E3
:100D900012828F5FF0CFE417F50789F0319168E098
:100DA0009BB9000000C037FF8BB9330F000000C0B3
:100DB00000C000C08BB900C06A9591F7ECCF2FBF7F
:100DC0008FE594E00197F1F700C00000089590913D
:100DD000940290FF16C090910D0120910E01921780
:100DE00070F4E92FF0E0DF01AA0FBB1FEA0FFB1F31
:100DF000EB55FE4F8183608342839F5FF0CF0C945D
:100E00009B060895CF93DF9300D01F92CDB7DEB736
:100E10009091940290FF0DC0413708F040E79E0189
:100E20002F5F3F4F0E94BE034B8169818A810E94E0
:100E3000E7060F900F900F90DF91CF910895CF9319
:100E4000DF93EC01E4E9F2E0438162818C810E944E
:100E500002078C818F5F8C83DF91CF910895CF93B0
:100E6000DF93EC01EC81F0E0E95BFD4F4491E4E9B4
:100E7000F2E0628181810E9402078C818F5F8C8306
:100E8000DF91CF910895E4E9F2E080818E7F808345
:100E90000E949406E6E7F2E08281816082832FEF70
:100EA00080E792E0215080409040E1F700C00000D0
:100EB0000C949B0680919402282F269530E02115F2
:100EC000310519F48170826005C02331310524F0A9
:100ED000817084628093940280919702813718F028
:100EE00080E7809397020895CF92DF92EF92FF926E
:100EF0006B017C010E945A07B701A60188E090E0CF
:100F0000FF90EF90DF90CF900C947728AF92BF9234
:100F1000CF92DF92EF92FF920F931F93CF93DF93C5
:100F200000D01F92CDB7DEB7082FF62E142FE22E79
:100F30008091940280FF83C0E82FE695AE2FB0E049
:100F4000A25DBE4F9C91909376028E7F823081F499
:100F5000413708F040E79E012F5F3F4F6F2D802FF4
:100F60000E94BE034B8169818A810E94E70644C0CA
:100F7000923019F4109197023FC0963019F4009105
:100F800095023AC09930C1F5E9508E2F8170D82E64
:100F9000E695F0E0EE5BFD4FA590B490C12CBB242C
:100FA00060910F01C61630F52C2D30E0A29EC001D5
:100FB000A39E900DB29E900D112470E00E9499287E
:100FC000802FD11002C0860F01C0861B90910D01A9
:100FD000290F311DA901440F551F240F351F2B5513
:100FE0003E4F412F113708F040E76F2D0E94BE039E
:100FF000C394D6CF0E949B0680919502081308C027
:1010000080919602F81204C080919702181729F077
:101010008091780282608093780200939502F0922A
:10102000960210939702EE2051F060919402709115
:10103000950280919602909197020E9474070F90FA
:101040000F900F90DF91CF911F910F91FF90EF9034
:10105000DF90CF90BF90AF900895E4E9F2E0438134
:1010600021E1421B08F440E021E0628181810C947F
:101070008607E4E9F2E0438121E1420F08F44FEFF3
:1010800021E0628181810C948607E4E9F2E06281CB
:1010900021E1621B08F460E021E0438181810C942E
:1010A0008607E4E9F2E0628121E1620F08F46FEF64
:1010B00021E0438181810C948607E4E9F2E081819B
:1010C00021E04381628188500C948607E4E9F2E0D4
:1010D000818121E043816281885F0C948607809141
:1010E0009802882319F081508093980260919402AD
:1010F0007091950280919602909197020C947407DA
:1011000080919802833018F48F5F809398026091E9
:1011100094027091950280919602909197020C949E
:1011200074079091940290FF3BC09170811102C0AE
:10113000926006C0833110F0946202C0880F982B31
:101140009093940280917802816080937802662364
:1011500051F0609194027091950280919602909165
:1011600097020E94740760919402669570E04BE0CC
:1011700050E080E091E00E94CE28892B19F00E9477
:10118000940602C00E94970481E08093730220E0DD
:101190004091970260919602809195020C94860787
:1011A0000895809194028695815009F482E161E06E
:1011B0000C9491088091940286958F5F833108F09A
:1011C00081E061E00C9491089091940290FF04C03A
:1011D0009695981740F003C0811105C090E09617CE
:1011E00010F40C94DA0861E00C949108E4E9F2E060
:1011F00083E0808311828FEF828380E78383148270
:10120000A6E7B2E012968C911297836012968C93A7
:1012100060817181828193810C9474078091A40113
:10122000811112C08091D80080618093D8008AE13A
:101230008A95F1F700C08091D90080FD02C082E05C
:1012400001C081E08093A40181E09091A4019130DC
:1012500009F080E00895CF93DF930E946306EC01CC
:101260008238910559F1A0F48133910509F473C0D6
:1012700040F48932910509F467C08A9709F472C075
:1012800084C08533910509F458C0C997B9F07DC071
:10129000833E910571F138F4803E9105B1F0823EB4
:1012A000910511F172C0863E9105B9F1873E910515
:1012B000C9F1843E910509F068C024C0809166029E
:1012C00080FD5DC081FD5BC060C08091660280FDD5
:1012D00050C08091670280FF49C18091660284FD01
:1012E00043C1C3EED0E042C18091660282FF3EC19D
:1012F000F4CF8091660282FD3FC08091670280FD3D
:101300003EC0EBCF8091670281FF30C180916602C1
:1013100084FD2AC1C7EED0E029C18091660283FF17
:1013200025C1F4CF8091660283FD2CC080916702B5
:1013300081FFECCFC4EED0E019C18091660285FF39
:1013400015C1C9E2D0E012C18091660285FF0EC1CD
:10135000C5E3D0E00BC18091660286FF07C1CAE2F7
:10136000D0E004C18091660286FF00C1C1E3D0E0F5
:10137000FDC0C9E3D0E0FAC0C2EED0E0F7C0C0EED5
:10138000D0E0F4C0C6EED0E0F1C0C11581E5D807C9
:1013900008F066C0C11520E5D207E0F0CE0174E088
:1013A000969587957A95E1F783709C2F937021E04D
:1013B00030E002C0220F331F9A95E2F73C68382BC9
:1013C000CF70C695C69540E2C49FE0011124C22BA0
:1013D000D32BCCC0C83ED10560F5C03ED10508F086
:1013E000C5C0C83AD105B0F4C53AD10540F0C55AD8
:1013F000D0E0C259DE4FC881D0E0D064B7C0C13060
:10140000D10509F4B3C008F4AFC0C430D10508F465
:10141000ABC0ACC0CF3BD10508F0A6C0C85AD0E0E5
:10142000CC0FDD1FCF58DE4F0990D881C02DD4647A
:101430009DC0C11540E2D40758F4C11581E0D8071A
:1014400008F094C0C03FD10508F48EC0D0658EC0AE
:10145000C11520E4D20708F487C0DF70D06A86C0C7
:10146000C11545E5D40708F042C0C11584E5D80789
:1014700028F0DC2FCC27C46FD06A78C0C11523E5D3
:10148000D207B0F0CE018370992721E030E002C08E
:10149000220F331F8A95E2F78C2F8695869540E2BE
:1014A000849FC0011124E901C82BD92BDA685EC0E2
:1014B000C11542E5D40728F4DC2FCC27C16FD06AD0
:1014C00055C0CE018370992721E030E002C0220F81
:1014D000331F8A95E2F78C2F8695869540E2849F8C
:1014E000C0011124E901C82BD92BDC683FC0C1150C
:1014F00089E5D807B8F4C11528E5D20728F0DC2F14
:10150000CC27C06FD06A32C0C11546E5D40760F55C
:101510008C2F0E9454048F71C82FD0E0DC2FCC2771
:10152000D06224C0C1158AE5D80780F48C2F8F7053
:101530000E94540494E0D695C7959A95E1F7CF7030
:10154000D0E0DC2FCC27D069C82B10C0CE0190563C
:101550008115904248F48D2F8F710E945404DD272D
:10156000D0628F71D82B02C0C0E0D0E0CE01DF91F5
:10157000CF910895262F811113C06091BE02709102
:10158000BF028091C0029091C102211104C00E944B
:10159000022140E003C00E94022141E063E014C048
:1015A0008130B1F46091BE027091BF028091C0029F
:1015B0009091C102222321F00E94022144E003C045
:1015C0000E94022145E067E00E943D060C94C72579
:1015D00008956F927F928F929F92AF92BF92CF9217
:1015E000DF92EF92FF920F931F93CF93DF9361E40B
:1015F00071E00CE512E020E6A22E22E0B22E3801C6
:10160000C0E0EE24E394F12CDB018D91BD01E82FC5
:10161000E295EF70F0E021A18F70A70102C0440FA6
:10162000551F8A95E2F7CA01242B21A322A1942EEB
:101630009094292122A350EA5A95F1F799E4C92EF2
:1016400091E0D92E40E050E0D0E0D6018D906D01C0
:10165000282D22952F7030E0D90190962C9130E002
:10166000B82DBF7002C035952795BA95E2F720FDD9
:1016700007C02E2D042E01C0220F0A94EAF701C0E4
:1016800020E0D22B4F5F5F4F46305105F1F691A11C
:10169000992291A292A1892B82A3F3018081D8176C
:1016A00019F0D08381E001C080E0C82BFFEF6F1AF2
:1016B0007F0A20E6621622E0720609F0A5CFF090BC
:1016C0006502CC2349F081E08093A2010E9415209D
:1016D0009093A1018093A0018091A2018823A9F099
:1016E0008091A0019091A1010E940620069768F0C8
:1016F000EF2DF0E0E756FD4FD8018D918D018193DC
:10170000AA16BB06C9F71092A2010E940E098823EF
:1017100009F463C010916402809178028823E9F093
:1017200085E0E4E9F2E0ADE4B2E001900D928A9543
:10173000E1F78091760290917702A09178028093F0
:10174000520290935302A093540281E090E00E94D1
:10175000CE27892B11F41092780280E090E00E944D
:10176000CE27892B09F094C0E12FF0E0E756FD4F1A
:1017700080E090E0DC01AA5ABD4F2C9121930196A4
:1017800084309105B9F7D09169028D2F90E0FC016A
:10179000E758FD4F7F0110915A028081181B012FDD
:1017A000101654F40150D7018C918F5F8C9360E038
:1017B0008D2F0E94BA0AF4CF812F17FD80E0181BED
:1017C000112309F462C01F5FF7018081815080837B
:1017D00061E08D2F0E94BA0AF3CFE09165020E2FCF
:1017E00010E0809155028830C9F58091540280FF45
:1017F00012C080914D0280FF0CC0809194028160E4
:101800008093940280914D0260E086950E94910839
:1018100002C00E9443078091540281FF09C020E06A
:101820004091500260914F0280914E020E948607C3
:101830008091540282FF09C080915302882319F0DD
:101840000E94970402C00E9494068091540283FF74
:1018500003C081E08093730210925502F801E756AD
:10186000FD4F80E090E02191DC01AA5ABD4F2C93FE
:10187000019684309105B9F7E0917C02F0E0E758D9
:10188000FD4F808180935A0213C01092A30110C0B3
:101890008091A3018F5F8093A301863048F0E0918F
:1018A0006402F0E0E756FD4F10821182128213822B
:1018B0008C2FDF91CF911F910F91FF90EF90DF90D0
:1018C000CF90BF90AF909F908F907F906F90089532
:1018D000CF93DF93CDB7DEB7AA970FB6F894DEBFEC
:1018E0000FBECDBF84B7877F84BF0FB6F894A8958D
:1018F00080916000886180936000109260000FBE4C
:1019000090E080E80FB6F8948093610090936100B6
:101910000FBE85B7806885BF85B7806885BF0E9488
:101920003A1C0E94591C8091E20084608093E2007E
:1019300078948091BD028823A1F01091E9001F7076
:101940009091EC00892F817090FD80E8182B109207
:10195000E9008091E80083FD0E9418191F70109320
:10196000E90082E084BD93E095BD9AEF97BD809336
:101970006E0057985F9889B1881F8827881F8093C9
:10198000200180912001882321F010920B018BE12E
:1019900003C08BE180930B0180930C010E940E0920
:1019A000882331F062E070E080E191E00E94EC2653
:1019B0008091200180912001882311F090E001C0E6
:1019C00094E09093650284E0891B80936402A1E413
:1019D000B1E041E050E08D91E82FE295EF70F0E04A
:1019E00021A18F70BA0102C0660F771F8A95E2F7B6
:1019F000CB01962F9095922391A392A1892B82A33C
:101A000071E0A534B70739F7A9E4B1E041E050E04F
:101A10008D91E82FE295EF70F0E021A18F70BA016F
:101A200002C0660F771F8A95E2F7CB01962F90953B
:101A3000922391A392A1892B82A371E0AF34B707BF
:101A400039F7ECE5F2E0A9E9B2E011921D9282E0EB
:101A5000E436F807D1F70E94E90AEFE3FCE9319791
:101A6000F1F700C000000E94E90A8091990280FF0E
:101A70000AC080E00E9470066FEF7FEF80E090E088
:101A80000E94832802C580E090E00E945F288C3E7F
:101A90009E4F11F00E949F200E940E09811106C0E6
:101AA00062E070E080E191E00E94F52682E290E041
:101AB0000E945128813281F483E290E00E945128F3
:101AC000893051F484E290E00E94512891E0833201
:101AD00009F090E0892F01C080E080FFFCC480E025
:101AE00090E00E945F288C3E9E4F11F00E949F2044
:101AF00082E090E00E94512880938B020E948E2009
:101B0000909367028093660283E090E00E945128E0
:101B1000682F70E080E090E00E949422809168023B
:101B200081113BC080E090E00E945F288C3E9E4F78
:101B300021F00E949F200E94F60888E090E00E9419
:101B40005928609394027093950280939602909323
:101B50009702809178028360809378026E7F71F49F
:101B60000E94F60888E090E00E9459286093940251
:101B70007093950280939602909397020E945A0761
:101B80000E9494068091940280FF04C060E08695D4
:101B90000E94910881E08093680280912001811168
:101BA00006C086E38093220186E68093210120917E
:101BB0002201A22FA295AF70B0E091963C9191972F
:101BC0002F7081E090E0AC01022E01C0440F0A9416
:101BD000EAF7542F5095352391963C93919792961E
:101BE0003C919297432B92964C939297409121016E
:101BF000E42FE295EF70F0E031A14F70042E01C0A8
:101C0000880F0A94EAF7982F9095932391A392A1B5
:101C1000892B82A390968C9190E002C09595879530
:101C20002A95E2F7817020A130E002C03595279512
:101C30004A95E2F720FF02C092E001C090E0892BB4
:101C400080937D029091200181E0982790937C02FF
:101C5000891B8093690283E291E090936B028093E9
:101C60006A02BE016F5F7F4F7B0177247A9442E066
:101C7000642E1E017BE0270E311C51EA452E52E0F6
:101C8000552E68E1C62ED12C8091BD02853009F019
:101C900036C08091BD02843011F110926C0280E454
:101CA0000FB6F894A895C09260000FBE80936000B4
:101CB00083B7817F846083BF83B7816083BF78945B
:101CC000889583B78E7F83BF0FB6F894A8958091CF
:101CD0006000886180936000109260000FBE809168
:101CE000B302882309F4D0CF0E94E90AE9E9F2E0BF
:101CF00081918111D1C34E165F06D1F7C5CF0E94E5
:101D0000E90A0E940E098823A1F1ACE8B2E0E9E9F2
:101D1000F2E000E010E0302F21919D91922721F117
:101D200080E0BB24B394492F4B21D1F089A33AA37F
:101D30002B2181E009F480E08BA30E9415208160B3
:101D4000782F9DA38CA349A15AA16BA18DA10E94BC
:101D5000B204F801E457FD4F8081B826B08218C064
:101D60008F5FBB0C8630F9F60F5F1F4F08301105EF
:101D700091F67EA27FA218A60E9415208160782F7E
:101D80009AA789A74EA15FA168A58AA50E94B2045F
:101D900080917702882309F47DC080917602E091DA
:101DA0009402E695E81BE0937202823059F4F0E069
:101DB000E653FB4FE4910E2F10E03FE2A32E37E0F5
:101DC000B32E13C0863059F4F0E0E953FB4FE49191
:101DD0000E2F10E02FE1A22E27E0B22E06C000ED5C
:101DE00017E09DEBA92E93E0B92E80917302882312
:101DF00089F0109273020E94152098012095309569
:101E0000820F931F9093710280937002109275025B
:101E10001092740280917002909171020E940620CB
:101E200080179107B8F180916F028823B1F010926A
:101E30006F0280916D0290916E020E9406208033A5
:101E4000954758F00E94152090936E0280936D0282
:101E500080917802886080937802809074029090DC
:101E60007502E0917002F09171020E0F1F1F109326
:101E700071020093700280E792E0F501099580916C
:101E8000740290917502892B29F4892819F081E058
:101E900080936F0280917D02E82FEE0FEE0F80910C
:101EA0002201A82FA295AF70B0E090962C9130E05F
:101EB0008F7002C0359527958A95E2F721703327F8
:101EC00080912101A82FA295AF70B0E090964C911F
:101ED00050E08F7002C0559547958A95E2F7CA0188
:101EE0008170992740FF02C082E090E0822B932B03
:101EF0008E2B80937D0210917C028F70E82FF0E092
:101F0000E15BFE4F908180917B02890F80937B0281
:101F100084306CF0E12F012E000CFF0BE758FD4FD1
:101F200080818F5F808360E0812F0E94BA0A809158
:101F30007B028D3F6CF4E12F012E000CFF0BE75864
:101F4000FD4F80818150808361E0812F0E94BA0A19
:101F500080917B02837887FF03C081508C6F8F5FF5
:101F600080937B0286E0E4E8F2E0D70101900D92D5
:101F70008A95E1F7A0908602B090870200918802CE
:101F800010918902109286021092870210928802A4
:101F900010928902A11003C0BB2009F451C08091A6
:101FA0008202909183020E9406209C0190918102FE
:101FB000992309F49DC22333310508F441C09F3FA2
:101FC00019F09F5F90938102AA2061F00E94471F41
:101FD0001A1414F491E001C09FEF899F802D112401
:101FE00080938602BB2061F00E94471F1B1414F4EB
:101FF00091E001C09FEF899F802D1124809387027B
:10200000309186023323E1F0209187022223C1F030
:1020100045EB3403C0011124992319F090938602F3
:1020200003C081E08093860265EB2603C001112482
:10203000992319F09093870203C081E0809387026F
:10204000011103C0112309F451C080917F029091C6
:1020500080020E9406209C0190917E02992309F43F
:102060004CC22536310508F441C09F3F19F09F5FEF
:1020700090937E02002361F00E94251F101614F435
:1020800091E001C09FEF899F802D112480938802E9
:10209000112361F00E94251F111614F491E001C074
:1020A0009FEF899F802D11248093890230918802AF
:1020B0003323E1F0209189022223C1F075EB37032D
:1020C000C0011124992319F09093880203C081E084
:1020D0008093880235EB2303C0011124992319F062
:1020E0009093890203C081E08093890280918602E7
:1020F00081110BC080918702811107C080918802F5
:10210000811103C08091890281110E942120AB823C
:10211000BC820D831E8386E0F701A4E8B2E0019043
:102120000D928A95E1F70E947A0590918A028917AB
:1021300021F00E947A0580938A028091BD0284304A
:1021400009F0A2CD43E04093E9008091E80082FFCE
:102150009BCD8091E80085FF21C00E94931D8111D5
:102160001BC080E2A82EB12C870109C08091F1002C
:10217000F80181938F01F1E0AF1AB10869F0809105
:10218000E80085FDF3CF8091E8008B778093E8002D
:102190000E94931D882399F391E001C090E0809103
:1021A000E8008B778093E800992309F46DCDE981ED
:1021B0008E2F90E0FC013197E331F10508F067C103
:1021C000EA5AFF4F0C94C1281A8289E0A7C08A817D
:1021D000823009F477C1833089F0813009F057C12A
:1021E0002FB7F8948091A1029091A202A091A3022E
:1021F000B091A4022FBFBB83AC831CC0FE013396F9
:10220000A9E9B2E08D918193E215F305D9F740C1B8
:102210008A81823009F03BC16B817C818D819E81F6
:102220000E94C72885E290E024C04C816B818A819E
:102230000E943D069D834DC10D811E8110270127FF
:1022400010278C81AB809A812CE0A29E5001112432
:1022500030E6939FA00CB11C1124A80EB11CA80E4F
:10226000B11C612FC50186960E946528602FC501AB
:1022700087960E9465280CC10E94090609C18A81BF
:102280008138B1F050F4803809F002C120E04B8170
:10229000609196028091950223C08238E9F08338DC
:1022A00009F0F6C020E0409197026C818B8118C044
:1022B00060E08B810E9491088B81811103C00E9494
:1022C0004307E6C08091940281608093940260E0AD
:1022D00086950E949108DCC08B8180939802D8C0BB
:1022E0000E948607D5C08A81813899F030F4803801
:1022F00009F0CEC08091970211C0823899F08338DE
:1023000009F0C6C0809195028B83809196028C83E0
:10231000BFC08091940280FF03C086958B83B8C0B4
:1023200080E0FCCF80919802F9CF60919402709187
:10233000950280919602909197020E947407A8C01E
:1023400080E18A83A5C06A828AE5E8CF0A811B8181
:10235000102701271027AC80B12C4701C8018A55EE
:102360009E4F94012E193F092A153B0508F090C095
:102370000A3542E0140728F40E945128F4018483AE
:1023800002C0F40114820F5F1F4FFFEF8F1A9F0AE4
:10239000E5CF0A811B81102701271027AC80B12CC3
:1023A0004701C8018A559E4F94012E193F092A15ED
:1023B0003B0508F06DC00A3522E0120720F4F40155
:1023C00064810E9465280F5F1F4FFFEF8F1A9F0ADD
:1023D000E8CF0E94F9055CC024E02A8359C00A8135
:1023E0001B81102701271027AC80B12C4701C801A1
:1023F000869694012E193F092A153B0508F048C01E
:10240000003831E0130728F40E945128F401848336
:1024100002C0F40114820F5F1F4FFFEF8F1A9F0A53
:10242000E6CF0A811B81102701271027AC80B12C31
:102430004701C801869694012E193F092A153B05CC
:1024400038F5003821E0120720F4F40164810E947D
:1024500065280F5F1F4FFFEF8F1A9F0AEACF80E0BA
:102460000E9470066FEF7FEF80E090E00E9483286B
:102470000FC0C7010E94F21D2FEF31EE44E0215042
:1024800030404040E1F700C000000E94CF1F798239
:10249000C7010E94F21DF8CB80E189BD82E189BDB0
:1024A00009B400FEFDCF8091D8008F7D8093D800C5
:1024B0008091E00082608093E0008091E00081FDE7
:1024C000FCCFE2CB85E290E00E9451281B821C8267
:1024D0001D828E83DDCF60E085E290E00E9465285A
:1024E0000E9409060E94F90581E00E947006F7CA61
:1024F0002D32314008F065CDA3CD2D32314008F0AA
:10250000B6CDF4CD5F926F927F928F929F92AF92F1
:10251000BF92CF92DF92EF92FF920F931F93CF93D0
:10252000DF93CDB7DEB729970FB6F894DEBF0FBEA5
:10253000CDBFFC018081918123813481232B31F037
:102540009F3F31F491E08F3F19F403C091E001C047
:1025500090E090FD39C67F0185E0DE011196019083
:102560000D928A95E1F7F701228189819A812223D0
:1025700049F00E948521182F682F89819A810E9435
:10258000FF2103C00E94D221182F69817A81812FF7
:102590000E9463068C01F7019281992309F4DFC040
:1025A000980122513F452031310508F004C18FEFD9
:1025B00093E00E9451288111DCC0025136EA832E3B
:1025C00099249394002379F08114F4E09F0609F490
:1025D000D0C0C4010E945128811101C001501FEFD9
:1025E000811A910AEFCF1E821F82188619866624EF
:1025F00063942AE0522E84010F5F1F4FC4010E9492
:1026000051288E831F82882309F4B3C09FEF980F4F
:10261000933060F48F836E8222E0820E911CC80199
:102620000E9451288887811102C0A3C048018E01F1
:102630000A5F1F4FF80120812223E9F2213009F0BF
:102640004CC08181813049F46801F2E0CF0ED11C89
:10265000F80182810E94C7250AC0823051F46801C6
:10266000F2E0CF0ED11CF80182810E94682586011C
:1026700073C0833049F46801F2E0CF0ED11CF80139
:1026800082810E942925F3CF843019F00F5F1F4FFC
:1026900063C0F80122810E5F1F4F80E090E030E0C0
:1026A000205331092A30310568F4589EA001599E03
:1026B000500D1124C901840F951F0F5F1F4FF801A2
:1026C0002081EDCF009709F447C0EFE9FFE0319793
:1026D000F1F700C000000197F5CFE22FF0E0E251E2
:1026E000FB4F7490822F86958695869590E0FC012D
:1026F000E252FB4FA4902770B12C022E02C0B59479
:10270000A7940A94E2F7F1E0AF22BB24FC01E25364
:10271000FB4FC490D12C02C0D594C7942A95E2F700
:1027200021E0C222DD24A114B10419F081EE0E943F
:102730006825C114D10419F086EE0E946825872D02
:102740000E94C725CD2819F086EE0E942925AB28C6
:1027500019F081EE0E9429250F5F1F4F6BCF0031CA
:102760003FE5130709F0B5C481E00E9435220E94BD
:10277000FA1880912003877009F426C5F701828139
:10278000882309F421C582E029960FB6F894DEBFAC
:102790000FBECDBFDF91CF911F910F91FF90EF90B2
:1027A000DF90CF90BF90AF909F908F907F906F9071
:1027B0005F900C945A220031FFE51F0711F481E06D
:1027C00005C001312FE5120721F482E00E94732237
:1027D000CECF033FFCE51F0749F406E221EE40EEB1
:1027E00063EF7CE5C7010E948605C3CF043F2CE55B
:1027F000120708F04AC1083D3CE5130731F407E22F
:1028000025EE45EE68ED7CE5EDCF093D8CE518073A
:1028100031F408E221E045EE69ED7CE5E3CF073DC8
:10282000ECE51E0731F406E221EE41EE67ED7CE5B2
:10283000D9CF992309F45EC11092A50202303CE57C
:10284000130708F441C106318CE5180738F09801E8
:102850002A5F3C452930310508F036C10E948E20A0
:10286000909367028093660200319CE5190709F492
:10287000C3C008F041C00830FCE51F0709F49AC046
:10288000F0F404303CE5130709F487C068F4023023
:102890009CE5190709F477C003301C4509F0E5C031
:1028A00080916602826076C00630FCE51F0709F45D
:1028B0006EC008F07BC08091660288606BC00C30EF
:1028C0003CE5130709F485C068F40A309CE5190754
:1028D00009F474C008F079C00E940925809166024D
:1028E000806858C00E30FCE51F0709F476C008F078
:1028F0007FC0809166028BC00B3F3CE5130709F453
:102900004FC018F503319CE5190709F47DC078F430
:102910000131FCE51F0709F473C002311C4509F0C1
:10292000A4C00E940925809166028F7733C00531CB
:102930003CE5130709F472C008F486C00A3F1C4541
:1029400009F093C0809167023EC00F3FECE51E077F
:1029500009F45FC058F40D3F2CE5120709F444C098
:1029600008F43FC08091670282602DC001308DE580
:10297000180709F475C008F45DC002301D4509F060
:1029800074C060E06EC080916602816003C0809177
:10299000660280618093660268C08091660211C001
:1029A000809167028260809367025FC080916602B7
:1029B0008062F0CF809166028064ECCF80916602E5
:1029C00088608460E7CF8160EECF809166028E7F61
:1029D000E1CF809166028D7FDDCF80916602877F97
:1029E000D9CF8091670218C0809167028D7FDBCFBD
:1029F000809166028F7ECECF809166028F7DCACF96
:102A0000809166028F7BC6CF80916602877F8B7F25
:102A1000C1CF809167028D7F8E7FC5CF8091660286
:102A200082FB222720F991E0922790FB82F990FB0C
:102A300083F9B0CF80916702982F909591708E7F27
:102A4000892B90FB81F9AFCF0E9409258091660206
:102A500087FB222720F991E0922790FB87F99ACFF4
:102A600061E08EE090E00E9465286091660210911E
:102A7000670284E090E00E946528612F81E290E087
:102A80000E9465280E94092574CE053FFCE51F07BA
:102A900031F406E221EE42EE65EF7CE5A3CE053F80
:102AA0002CE5120730F407E225EE44EE64EF7CE5F6
:102AB00099CE063F3CE5130709F0BBCE07E225EEB1
:102AC00046EE66EF7CE58ECE06318CE5180751F5B3
:102AD000809123038A7A91E009F490E09093A60212
:102AE000882311F065E301C069E282EC92E00E9464
:102AF000742015C00631ECE51E0759F58091A60239
:102B0000882309F4EDC285E3E2ECF2E092818913B7
:102B100001C01282319602E0E83CF007B9F70E944A
:102B2000582127CE01158CE5180731F00E3D1C45C4
:102B3000D1F40E949F201DCE0E940925FFEF04E3DF
:102B40001CE0F15000401040E1F700C000000E947E
:102B5000CF1F809123038272F801E25CFC45E431CF
:102B6000F10508F4BFC2F70100811181992349F0F2
:102B7000C8010E948521D82E682FC8010E94FF211C
:102B800004C0C8010E94D221D82EB8018D2D0E9408
:102B90002B098C01982EF701A580A2949FE0A92211
:102BA000D280D1101092220380912003877099F077
:102BB000DD2089F0812F807F803421F080E2800F3A
:102BC000883048F082E00E945A228091200387706A
:102BD000CC24C3948111C12CB12EB2948FE0B822C1
:102BE0008B2D90E08C30910508F040C2FC01E75934
:102BF000FF4F0C94C128812F807F1F70882311F014
:102C00001295107FDD20B9F0112309F41AC280E279
:102C1000800F883010F0911006C080912303182B8C
:102C20001093230305C080912203182B10932203D5
:102C30000E94582106C2802F0E942925112309F4E1
:102C400015C2005E1095083010F0911006C08091FA
:102C5000230318231093230305C080912203182314
:102C6000109322030E94582101C2812F807F1F7080
:102C7000803211F01295107F992021F0F1E09F161B
:102C8000E1F02AC0DD2081F080912403AA2051F0D8
:102C900001E0A01207C0182B181709F4E7C1109320
:102CA0002403E4C1812B10C0AA2021F021E0A21648
:102CB00009F4DCC10E94522127C0DD2041F035E03B
:102CC0003A1508F4D3C1812F0E941F25CFC184E09B
:102CD0008A1508F4CBC118C0DD2049F0AA2099F369
:102CE000F701858180FFADC18F708583ECCFAA206D
:102CF00059F0093309F0B7C1FFEF17EE23E0F150A7
:102D000010402040E1F7ADC1812F0E941425AEC1D3
:102D1000812F86958695837019F0813059F0A6C170
:102D2000DD2019F0C801937002C080E090E00E949D
:102D30006405A2C1DD2019F0C801937002C080E0D3
:102D400090E00E944E0598C1802FDD2019F00E946E
:102D5000671F02C00E94A01E0E9421208DC1812FEA
:102D6000837009F069C0D11085C1902F9295969516
:102D70009770990F990F802F8F70882E912CA12C0E
:102D8000B12C092E04C0880C991CAA1CBB1C0A94E7
:102D9000D2F704FF12C04FE050E060E070E004C0E2
:102DA000440F551F661F771F9A95D2F7DB01CA01A2
:102DB00080959095A095B09503C080E090E0DC01EF
:102DC00016951695412F4370423019F1C8F40091C1
:102DD00025031091260320912703309128034130C9
:102DE00059F088299929AA29BB29BC01CD01602362
:102DF0007123822393230AC0802A912AA22AB32A0C
:102E0000BC01CD01682979298A299B290E94942235
:102E100031C188299929AA29BB290091250310913C
:102E200026032091270330912803BC01CD016027A0
:102E3000712782279327EACFDD2019F0812F817037
:102E400001C08695882309F415C1902F9295969517
:102E50009770990F990F802F8F70882E912CA12C2D
:102E6000B12C092E04C0880C991CAA1CBB1C0A9406
:102E7000D2F704FF12C04FE050E060E070E004C001
:102E8000440F551F661F771F9A95D2F7DB01CA01C1
:102E900080959095A095B09503C080E090E0DC010E
:102EA00016951695412F43704230D9F068F5009180
:102EB000BE021091BF022091C0023091C102413088
:102EC00059F088299929AA29BB29BC01CD01602381
:102ED0007123822393231EC0802A912AA22AB32A17
:102EE00013C088299929AA29BB290091BE021091F3
:102EF000BF022091C0023091C102BC01CD01602708
:102F000071278227932706C0BC01CD016829792942
:102F10008A299B290E942B22ADC01F70DD2039F029
:102F2000812F0E947322802F0E941F25A3C0802F13
:102F30000E941425812F0E9435229CC0802F32EFE1
:102F4000931609F440C0391538F090EF991661F0E6
:102F5000E1EF9E1699F170C0F3EF9F16D9F124EFBF
:102F6000921609F44EC068C0DD2019F134E03A151C
:102F700008F47CC01F7181E090E0A0E0B0E0AC01FB
:102F8000BD0104C0440F551F661F771F1A95D2F765
:102F90008091BE029091BF02A091C002B091C10287
:102FA0008A019B01082719272A273B27C901B80155
:102FB00025C025E02A1508F459C0DCCFDD2029F012
:102FC000812F8F712CC0DD20D9F3812F8F710E944A
:102FD00035224CC0DD2079F01F7181E090E0A0E047
:102FE000B0E0BC01CD0104C0660F771F881F991F98
:102FF0001A95D2F703C060E070E0CB010E942B224B
:1030000035C0DD2079F01F71812F0E94732238E0D6
:10301000139FC0011124836080932003812F0E949D
:10302000732224C081E00E945A2281E08A15F0F4C4
:1030300082E00E945A221AC0DD2039F0AA2009F449
:10304000BFCF802F0E94682511C0AA2009F4BDCFF0
:10305000893349F49FEFE7EEF3E09150E040F04010
:10306000E1F700C00000802F0E94292588EF8B0D1A
:10307000843010F40E947A05CC2009F4A5C0809118
:10308000200380FDA1C0F701128285958595859565
:103090000E947322C7010E948212809120038595AD
:1030A0008595859529960FB6F894DEBF0FBECDBFE6
:1030B000DF91CF911F910F91FF90EF90DF90CF9014
:1030C000BF90AF909F908F907F906F905F900C9487
:1030D000352201318FE5180709F07BCB82E045CB23
:1030E00089E212CDEB58FF4F0C94C12880919402D5
:1030F00080FF20C08E7F8093940260919402709133
:10310000950280919602909197020E9474070E9406
:103110009406809178028160809378021FEF20E707
:1031200032E0115020403040E1F700C000000E9422
:103130009B061FCB81608093940261E0869536C028
:1031400041ED58E06AED78E02CC04AED58E061EDC1
:1031500078E027C04DE558E066E678E022C046E614
:1031600058E06DE578E01DC045E458E061E578E0A1
:1031700018C041E558E065E478E013C04DE258E03E
:1031800069E378E00EC049E358E06DE278E009C0F9
:103190004FE658E060E878E004C040E858E06FE6A9
:1031A00078E00E948E06E5CA61E081E00E94910805
:1031B000E0CA65E082E005C068E086E002C062E146
:1031C00089E00E94E408D5CA29960FB6F894DEBFBC
:1031D0000FBECDBFDF91CF911F910F91FF90EF9068
:1031E000DF90CF90BF90AF909F908F907F906F9027
:1031F0005F9008950F931F938091BE029091BF023C
:10320000A091C002B091C1028C019D0106701127EE
:1032100022273327BC01CD010630110521053105D8
:1032200011F4686001C0677F1F910F910C942B22ED
:103230001F93CF93DF93CDB7DEB7AA970FB6F8945D
:10324000DEBF0FBECDBFE5EBF2E08091F1008193D0
:1032500042E0ED3BF407C9F78091B602833009F4F0
:1032600062C030F4813071F0823009F49CC0B3C088
:103270008A3009F488C08B3009F46DC0893009F0B8
:10328000AAC020C08091B502813A09F0A4C0809103
:10329000E800877F8093E8008091B9029091BA029C
:1032A000892B21F468E08AEA92E003C060E080E0C4
:1032B00090E070E00E942E268091E8008B7780934A
:1032C000E80089C08091B502813209F084C0809104
:1032D000B9029091BA02009719F0029709F07BC0E9
:1032E0008091E800877F8093E8008091E80082FD6C
:1032F00005C08091BD028111F8CF6DC02091F3000F
:103300008091F20090E0922B029729F48091F100D5
:103310008B7F813021F48091F1008093A90280910C
:10332000E8008B7754C08091B502813A09F053C010
:103330008091B9029091BA02892B09F04CC080911A
:10334000E800877F8093E8008091E80080FFFCCF51
:1033500080912D0137C08091B5028132E1F58091D5
:10336000B9029091BA02892BB1F58091E800877F6C
:103370008093E8000E94DA258091B70280932D01A6
:103380000E94092528C08091B502813221F58091E3
:10339000E800877F8093E8000E94DA258091B802D8
:1033A0008093A80218C08091B502813AA1F480915F
:1033B000E800877F8093E8008091E80080FFFCCFE1
:1033C0008091A8028093F1008091E8008E7780932D
:1033D000E8000E94DA258091E80083FFE9C180912E
:1033E000B5029091B602492F50E04A30510508F0DD
:1033F000DFC1FA01E757FF4F0C94C128803821F054
:10340000823809F0D5C108C08091B2029091B30210
:10341000992389F082600FC08091B9028F70873044
:1034200008F0C6C18093E9008091EB0085FB8827F6
:1034300080F91092E9009091E800977F9093E8005E
:103440008093F1001092F1007CC1282F2D7F09F0AC
:10345000AFC1882319F0823061F0AAC18091B70210
:10346000813009F0A5C1933009F080E08093B30268
:103470002EC08091B70281112AC08091B9028F704D
:103480002FEF280F263008F093C18093E900209198
:10349000EB0020FF1CC0933021F48091EB00806290
:1034A00014C09091EB0090619093EB0021E030E02C
:1034B000A90102C0440F551F8A95E2F74093EA0024
:1034C0001092EA008091EB0088608093EB001092EC
:1034D000E9008091E800877F8093E8000E94DA2568
:1034E00067C1811165C11091B7021F778091E30018
:1034F0008078812B8093E3008091E800877F809320
:10350000E8000E94DA258091E80080FFFCCF8091DE
:10351000E30080688093E300111102C082E001C0E3
:1035200083E08093BD0244C18058823008F040C1DE
:103530002091B7023091B8022C3D53E0350779F560
:1035400083E08A838AE289834FB7F894DE01139679
:1035500020E03EE051E2E32FF0E050935700E49189
:1035600020FF03C0E295EF703F5FEF708E2F90E079
:10357000EA3010F0C79601C0C0968D939D932F5FDF
:10358000243149F74FBF8091E800877F8093E8009E
:103590006AE270E0CE0101960E942E26C0C08091A2
:1035A000B9029091BA02432F552743305105B1F02B
:1035B00068F44130510509F40AC14230510509F05F
:1035C000F7C08BE590E0E1E5F6E057C041325105E8
:1035D00089F14232510509F43CC0EAC0C90199277A
:1035E00081309105B9F070F082309105D9F00397E0
:1035F00009F0DEC0EEEBF6E0E4918E2F90E0EEEB0A
:10360000F6E038C0E4EEF6E0E4918E2F90E0E4EED0
:10361000F6E030C0E0EDF6E0E4918E2F90E0E0EDD2
:10362000F6E028C0E4ECF6E0E4918E2F90E0E4ECC4
:10363000F6E020C08330910508F0BAC0880F991FCA
:10364000FC01E859FE4F0190F081E02D89E090E007
:1036500014C08330910508F0ABC0FC01EE0FFF1FD2
:10366000EE59FE4F0190F081E02DDC01A15ABE4FD2
:103670008C9190E0009709F49BC02091E800277F8F
:103680002093E8002091BB023091BC022817390733
:1036900008F4C90140E0009789F12091BD0222237E
:1036A00009F43DC02530D9F12091E80023FD37C051
:1036B0002091E80022FD2FC02091E80020FFEBCFF1
:1036C0004091F3002091F20030E0342B009759F044
:1036D0002830310540F444914093F1003196019730
:1036E0002F5F3F4FF3CF41E02830310509F040E034
:1036F0002091E8002E772093E800CDCF4111CDCF67
:103700000AC08091BD02882351F0853041F080913C
:10371000E80083FD04C08091E80082FFF2CF809131
:10372000E8008B778093E80043C0803809F040C000
:103730008091E800877F8093E8008091B4028093B5
:10374000F1008091E8008E77C7CE811131C0809161
:10375000B7029091B8029927029754F58091E8003A
:10376000877F8093E8001091B7021093B4020E9403
:10377000DA25111106C08091E30087FD02C081E0C7
:1037800001C084E08093BD0242E061EC81E00E94D0
:10379000F92542E261EC84E00E94F92542E261EC05
:1037A00082E00E94F92542E260EC83E00E94F92564
:1037B0008091E80083FF10C08091E800877F8093AC
:1037C000E8008091EB0080628093EB0005C082E10D
:1037D00090E0ECEAF6E051CFAA960FB6F894DEBF7F
:1037E0000FBECDBFDF91CF911F9108951F920F9211
:1037F0000FB60F9211242F933F934F935F936F93C4
:103800007F938F939F93AF93BF93CF93DF93EF9368
:10381000FF93C091E900CF708091EC00D82FD17058
:1038200080FDD0E81092E9008091F000877F8093BE
:10383000F00078940E9418191092E9008091F0002D
:1038400088608093F000CD2BCF70C093E900FF918A
:10385000EF91DF91CF91BF91AF919F918F917F9128
:103860006F915F914F913F912F910F900FBE0F90ED
:103870001F901895E8EDF0E080818E7F8083109294
:10388000E2001092DA001092E100A0EEB0E08C911C
:1038900081608C9380818F77808319BCA7EDB0E025
:1038A0008C918E7F8C9380818F7E80831092A70273
:1038B0000895CF92DF92EF92FF920F931F93CF93D1
:1038C000DF93C8EDD0E088818F7E8883E7EDF0E05C
:1038D00080818160808384E082BF81E08093A70241
:1038E00088818E7F888302EE10E0F80110821092AA
:1038F000DA0081EEC82ED12CF601108288818F77F4
:10390000888388818068888388818F7D888319BCBB
:103910001092BD021092B4021092B3021092B20241
:1039200090EEE92EF12CF70180818B7F80838881D6
:103930008160888342E060E080E00E94F925F60122
:1039400080818E7F8083F801808181608083808187
:1039500088608083F70180818E7F80838881806189
:103960008883DF91CF911F910F91FF90EF90DF90AF
:10397000CF9008951F920F920FB60F9211242F939C
:103980003F934F935F936F937F938F939F93AF93E7
:10399000BF93EF93FF938091E10082FF09C0809174
:1039A000E20082FF05C08091E1008B7F8093E100FF
:1039B0008091DA0080FF2AC08091D80080FF26C065
:1039C0008091DA008E7F8093DA008091D90080FFA9
:1039D00018C080E189BD82E189BD09B400FEFDCF38
:1039E00081E08093BD028091A70281110FC00E94E7
:1039F0003A1C0E94591C8091E20084608093E2008E
:103A000005C019BC1092BD021092A7028091E1007E
:103A100080FF17C08091E20080FF13C08091E20018
:103A20008E7F8093E2008091E20080618093E200CB
:103A30008091D80080628093D80019BC85E0809383
:103A4000BD028091E10084FF32C08091E20084FFDA
:103A50002EC080E189BD82E189BD09B400FEFDCFA1
:103A60008091D8008F7D8093D8008091E1008F7E77
:103A70008093E1008091E2008F7E8093E20080914C
:103A8000E20081608093E2008091B402882311F00B
:103A900084E007C08091E30087FD02C081E001C09F
:103AA00083E08093BD020E9409250E947A058091DF
:103AB000E10083FF27C08091E20083FF23C0809153
:103AC000E100877F8093E10082E08093BD02109245
:103AD000B4028091E1008E7F8093E1008091E2004A
:103AE0008E7F8093E2008091E20080618093E2000B
:103AF00042E060E080E00E94F9258091F00088605B
:103B00008093F000FF91EF91BF91AF919F918F91C2
:103B10007F916F915F914F913F912F910F900FBEC9
:103B20000F901F9018952091E4003091E50095E6E4
:103B30004091EC00842F817040FF23C08091E80009
:103B400080FD1DC08091BD02882399F0853099F0D9
:103B50008091EB0085FD11C04091E4005091E5009B
:103B60002417350729F3915011F09A01E1CF84E031
:103B7000089582E0089583E0089581E0089580E04B
:103B800008954091E80042FFDDCF0895EF92FF9243
:103B90000F931F93CF93DF937C018B010E94931DA2
:103BA000811119C0E70101151105A1F08091E8000C
:103BB00085FD0AC08091E8008E778093E8000E941E
:103BC000931D882381F307C089918093F1000150F0
:103BD0001109E9CF80E0DF91CF911F910F91FF9004
:103BE000EF900895CF932091BD022430F9F4C09155
:103BF000E900CF703091EC00232F217030FD20E8D8
:103C0000C22B22E02093E9002091E80020FF0BC0A6
:103C100040E050E060E270E00E94C61D8091E80044
:103C20008E778093E800CF70C093E900CF9108951C
:103C30008091A9020895CF93DF9300D01F92CDB752
:103C4000DEB79091BD02943011F589837B836A833E
:103C50009093E9008FEF9091E800815095FD06C0A8
:103C600095ED9A95F1F700008111F5CF8091E8006C
:103C700085FF0DC040E050E063E070E0CE010196AA
:103C80000E94C61D8091E8008E778093E8000F9017
:103C90000F900F90DF91CF910895BC0184E00C94B8
:103CA0001B1EBC0183E00C941B1E24E02093E90042
:103CB0002FEF3091E800215035FD06C035ED3A95E3
:103CC000F1F700002111F5CF2091E80025FF0BC08E
:103CD00040E050E066E070E00E94C61D8091E80080
:103CE0008E778093E8000895CF93DF9321E02093AF
:103CF000E9002FEF3091E800215035FD06C035ED89
:103D00003A95F1F700002111F5CF2091E80025FF49
:103D100014C0EC0140E050E068E070E00E94C61D75
:103D20008091E8008E778093E80088E0FE01AAEA9F
:103D3000B2E001900D928A95E1F7DF91CF9108955D
:103D4000803F39F48091870287FF6AC01092870212
:103D500067C0813F29F4809187021816BCF360C0C8
:103D600090918602823F29F497FF5AC010928602F2
:103D700057C0833F19F41916CCF352C090918802B2
:103D8000893F31F419160CF04BC01092880248C0DC
:103D90008A3F19F497FF44C0F8CF8B3F39F48091E4
:103DA000890287FF3DC0109289023AC08C3F29F4F6
:103DB000809189021816BCF333C0843F21F48091AE
:103DC00085028E7F17C0853F21F4809185028D7F0B
:103DD00011C0863F21F4809185028B7F0BC0873F05
:103DE00021F480918502877F05C0883F31F480915E
:103DF00085028F7E8093850213C08D3F21F48091D0
:103E000029038E7F0BC08E3F21F4809129038D7F83
:103E100005C08F3F29F4809129038B7F809329036C
:103E200080918602811106C080918702811102C0B3
:103E30001092810280918802811106C080918902CE
:103E4000811102C010927E0208958091290380FDA5
:103E500016C081FD16C082FD18C080917E028823A5
:103E600091F0883290F428E0829FC001112468E22A
:103E700070E00E94AD28862F672B29F007C082E0F2
:103E8000089584E0089581E0089588E00895809180
:103E9000290380FD14C081FD14C082FD16C08091ED
:103EA0008102882381F0843180F422E3829FC00163
:103EB000112464E170E00E94AD28862F08958CE003
:103EC000089589E1089585E0089582E30895803F8B
:103ED00021F40E94471F819504C0813F29F40E946C
:103EE000471F809387020895823F21F40E94471F55
:103EF000819504C0833F29F40E94471F8093860266
:103F00000895893F19F40E94251F05C08A3F31F4A6
:103F10000E94251F81958093880208958B3F21F48C
:103F20000E94251F819504C08C3F29F40E94251F03
:103F3000809389020895843F21F4809185028160F5
:103F400017C0853F21F480918502826011C0863FB1
:103F500021F48091850284600BC0873F21F4809119
:103F60008502886005C0883F31F4809185028061B8
:103F70008093850208958D3F21F48091290381600B
:103F80000BC08E3F21F480912903826005C08F3FD2
:103F900029F480912903846080932903089587E799
:103FA00097E790930108809300089AE088E10FB6A4
:103FB000F894A895809360000FBE90936000FFCFA7
:103FC00078941F920F920FB60F9211248F939F93A4
:103FD000AF93BF938091A1029091A202A091A302FE
:103FE000B091A4020196A11DB11D8093A1029093EE
:103FF000A202A093A302B093A402BF91AF919F919C
:104000008F910F900FBE0F901F9018959C014FB786
:10401000F8948091A1029091A202A091A302B09184
:10402000A4024FBF821B930B08952FB7F894809181
:10403000A1029091A202A091A302B091A4022FBF6D
:1040400008950E94152020918602211104C020911C
:104050008702222321F09093830280938202209191
:104060008802211104C020918902222321F090931B
:10407000800280937F02E0916A02F0916B02309798
:1040800049F082E0809384020480F581E02D84E889
:1040900092E0099408951F920F920FB60F92112487
:1040A0008F939F93AF93BF9380916C02811113C044
:1040B0008091A1029091A202A091A302B091A402CA
:1040C0004196A11DB11D8093A1029093A202A093DD
:1040D000A302B093A402BF91AF919F918F910F90D3
:1040E0000FBE0F901F9018959C01FC0132969FEF18
:1040F00080E04191461789F09F3F19F4411101C0BA
:10410000982F8F5F8630A9F79F3F39F0F901E90FAB
:10411000F11D97FDFA95628308950895CF9384E089
:1041200090E00E945128C82F81E290E00E9451281F
:104130002C2F30E0A901582BCA01CF9108956CEEC5
:104140007EEF80E090E00E94832860E082E090E0D3
:104150000E94652860E083E090E00E94652810924C
:10416000250310922603109227031092280360E083
:1041700084E090E00E94652860E081E290E00E9487
:10418000652860E085E090E00E94652860E086E0B8
:1041900090E00E9465286FEF87E090E00E9465281C
:1041A00040E050E0BA0188E090E00E94772860E0AB
:1041B0008DE090E00E94652840E050E0BA0188E17F
:1041C00090E00E94772860E087E190E00E946528F7
:1041D00040E050E0BA018CE190E00E94772860E076
:1041E00080E290E00E94652840E050E0BA018FE054
:1041F00090E00E94772840E050E0BA0183E190E02F
:104200000C947728CF92DF92EF92FF926C01EE240C
:10421000FF24C114D104E104F10421F0C701B60167
:1042200020E101C020E0C72ED82EE92EFF24C114C2
:10423000D104E104F10419F0285FC701B6016B0154
:104240007C0154E0F694E794D794C7945A95D1F73B
:10425000C114D104E104F10419F02C5FC701B601C7
:104260006B017C0142E0F694E794D794C7944A9599
:10427000D1F7C114D104E104F10419F02E5FC70194
:10428000B601DC01CB01B695A79597958795892B4B
:104290008A2B8B2B09F02F5F822FFF90EF90DF90FE
:1042A000CF900895809124038111109224030895E2
:1042B0009091230380912203892B20912103982F31
:1042C000922B9093C20280912403882389F0892B3A
:1042D0008093C202E4ECF2E097E080E0915029F094
:1042E00021912223D9F38F5FF9CF81110E945221AE
:1042F000E0916A02F0916B02309731F00280F38115
:10430000E02D82EC92E009940895BF92CF92DF9263
:10431000EF92FF920F931F93CF93DF938C01C09086
:10432000BE02D090BF02E090C002F090C102809126
:10433000250390912603A0912703B0912803C82A52
:10434000D92AEA2AFB2ACFE1D0E0D701C6010C2EF8
:1043500004C0B695A795979587950A94D2F780FDE6
:1043600004C0219790F7B12C07C0BC2EB8018C2F48
:104370000E942B090197A9F38B2DDF91CF911F91FB
:104380000F91FF90EF90DF90CF90BF900895CF9363
:10439000DF93EC010E948521BE010E942B09DF9171
:1043A000CF910895292F220F920F990F890F682F0F
:1043B000669566956695982F977085E0689FB00121
:1043C000112440E050E080E0FB01E40FF51FEE5FB8
:1043D000FC4F208130E0092E02C0369527950A94C3
:1043E000E2F721703327042E01C0220F0A94EAF766
:1043F000822B4F5F5F4F4530510531F70895292FCC
:10440000220F920F990F890FE82FE695E695E69512
:10441000877051E001C0550F8A95EAF785E0E89F63
:10442000F0011124EE5FFC4F20E030E070E04081AD
:10443000CB01022E02C0969587950A94E2F781700F
:10444000819584278523842781932F5F3F4F2530D3
:10445000310569F708956093BE027093BF0280939F
:10446000C0029093C1020C94EC240F931F9341E07F
:1044700050E060E070E004C0440F551F661F771FD6
:104480008A95D2F740955095609570958091BE02BF
:104490009091BF02A091C002B091C1028A019B011C
:1044A000082319232A233B23C901B8011F910F9127
:1044B0000C942B222091200380958223809320034B
:1044C000982F977079F430E0482F082E000C550B88
:1044D0002417350739F08595859585950E943522F5
:1044E0001092200308950F931F9341E050E060E085
:1044F00070E004C0440F551F661F771F8A95D2F7DE
:104500008091BE029091BF02A091C002B091C10201
:104510008A019B01082B192B2A2B3B2BC901B801BF
:104520001F910F910C942B22609325037093260307
:1045300080932703909328030C94EC24809101032B
:104540009091D002891719F08F5F8770FBCF089583
:104550000F931F93CF93DF938091CF0282958F703B
:1045600009F05DC08091CC02882309F458C0809185
:1045700001031091D0026091CA027091CB02C091E8
:10458000CD02D091CE0291E06F3F09F090E0292F4B
:1045900006E0811709F443C0209721F07F3F21F006
:1045A00030E003C031E001C0322F90E030FD34C074
:1045B000089FF001099FF00D1124DF01AF52BD4F9C
:1045C00011963C911197371327C03C91361324C0A4
:1045D00012963C91129731111FC013964D915C9128
:1045E00014974C1B5D0B483C5105B0F48091CF02F1
:1045F0008F7080618093CF02EA52FD4F80818F706F
:10460000806180838AEC92E00E948212DF91CF91D8
:104610001F910F910C949E2201968770BACFDF9163
:10462000CF911F910F9108950E94C721292F2F70BC
:10463000E92FE295EF704E2F50E0FA013297EE30FD
:10464000F105B8F4ED56FF4F0C94C128803F99F066
:1046500018F4883E70F40FC0843F59F40CC0883EB3
:1046600050F0813F31F407C0822F8695869586955C
:10467000089580E0089581E008959F92AF92BF92DF
:10468000CF92DF92EF92FF920F931F93CF93DF931E
:10469000CDB7DEB761970FB6F894DEBF0FBECDBFC2
:1046A0008C0185E0F801DE011D9601900D928A953E
:1046B000E1F7F80190818181E2803091CA02609136
:1046C000CB024091CD025091CE024115510531F0FF
:1046D0006F3F31F421E03F3F19F403C021E001C0F6
:1046E00020E0F22FF1709F2E20FD23C1F801C3803E
:1046F000D4802AECA22E22E0B22EF090CC02F60159
:10470000E41BF50BFF2009F4CEC02091CF02E83C5A
:10471000F10508F099C0422F407F09F051C068139D
:1047200011C039130FC0FE2CE1100CC02F70206196
:104730002093CF02C5010E9482128091CF02F8011E
:10474000858337C1CD2831F08F3F31F421E09F3F81
:1047500019F403C021E001C020E020FD03C021E0E6
:104760002E2502C020E030E0F22FF170FF2E20FF56
:104770001DC0209101034091D00256E0241709F496
:10478000F6C030E0529FF001539FF00D1124EF521C
:10479000FD4F6181861306C06081961303C062815C
:1047A000E61204C02F5F3F4F2770E8CFFE2CEE20AB
:1047B00009F4FFC08091CF0281608093CF0250C086
:1047C000681307C0391305C0E11003C0F801258341
:1047D0008DC09D878E878D859E850E94142388239A
:1047E00069F1EE2059F12091CF02822F82958F70CE
:1047F00090E0029774F08091CA029091CB02988762
:104800008F831986DB86CA862C87CE0107960E9485
:10481000821286E0F801AAECB2E001900D928A952E
:10482000E1F70E94A8220DC06817E1F09D878E87EE
:104830008D859E850E94142381111EC0C8010E948F
:104840008212FF24F394B5C0422F407F69F78AECAF
:1048500092E00E94821286E0F50111928A95E9F7B2
:10486000F12CA7C03913E2CFE110E0CFF801258386
:10487000C8010E94821257C0EE2001F32091CF029E
:10488000822F82958F7090E002971CF28091CA026D
:104890009091CB029A8389831B82DD82CC822E8306
:1048A000CE010196B4CFE83CF105E8F5FE2CEE20F0
:1048B00029F2681327C0391325C02091CF0220FDAB
:1048C00018C0822F82958F70482F50E041155105F6
:1048D00081F0F80125834F30510541F08F5F982F0B
:1048E0009295907F822F8F70892B8583C8010E94BB
:1048F000821286E0F801AAECB2E001900D928A954E
:10490000E1F757C09D878E878D859E850E94142371
:1049100081117FCF8091CF0281608093CF02C80147
:104920000E94821246C086E0F50111928A95E9F74D
:1049300040C0EE2009F482CF9D878E878D859E85AD
:104940000E941423F82E882309F478CF86E0F8011A
:10495000AAECB2E001900D928A95E1F78091CA022B
:104960009091CB020E94C7210E94A82222C09D875D
:104970008E878D859E850E94C721292F22952F70B5
:10498000223028F49F7039F0811105C00BC024300B
:1049900028F49F7049F4805E883020F0C8010E949E
:1049A00082129F2CF92C05C0F8019581907F99F710
:1049B000F9CF8F2D61960FB6F894DEBF0FBECDBF35
:1049C000DF91CF911F910F91FF90EF90DF90CF90EB
:1049D000BF90AF909F9008951092220310922103F0
:1049E0000E945821E4E8F2E086E0DF011D928A95FA
:1049F000E9F71092810210927E02109229030E9420
:104A0000212080E090E00E94640580E090E00C941A
:104A10004E051092230386E0E4ECF2E0DF011D92E4
:104A20008A95E9F70C94EC24882341F080959091C5
:104A300023038923809323030C945821089588230A
:104A400039F090912303892B809323030C945821F0
:104A500008958823E1F19CEF980F913A60F4E2EC1D
:104A6000F2E09281891301C01282319642E0E83C63
:104A7000F407B9F714C090E2980F983090F487705B
:104A800021E030E0A90102C0440F551F8A95E2F7EA
:104A9000CA018095909123038923809323030C946A
:104AA00058219BE5980F933020F480E090E00C941F
:104AB000640598E5980F973120F480E090E00C941D
:104AC0004E05803F20F00E94A01E0C9421200895E6
:104AD000CF93882309F459C0C82F8CEF8C0F813AEB
:104AE000F8F4E4ECF2E08AEC92E02191C21721F0B4
:104AF0008E179F07D1F70EC0E2ECF2E088EC92E04F
:104B00002281C21301C0128231968E179F07C1F70E
:104B10000E9458216C2F82EC92E00E94742010C0F9
:104B200080E28C0F883078F4C77081E090E001C09B
:104B3000880FCA95EAF790912303892B809323036A
:104B4000CF910C945821EBE5EC0FE33040F4F0E00A
:104B5000E259FE4F808190E0CF910C946405E8E526
:104B6000EC0FE73150F4F0E0EE0FFF1FEF58FE4F6F
:104B700080819181CF910C944E05C03F30F08C2FF5
:104B80000E94671FCF910C942120CF910895CF935D
:104B9000C82F0E946825C93349F42FEF87EE93E0B0
:104BA000215080409040E1F700C000008C2FCF9151
:104BB0000C9429258091B50287FF11C08091E800EF
:104BC00082FD05C08091BD028111F8CF11C0809196
:104BD000E8008B770BC08091BD02882349F080915B
:104BE000E80080FFF8CF8091E8008E778093E8009E
:104BF0000895982F973068F59093E900981739F049
:104C00007091EC002091ED005091F00003C0242F32
:104C1000762F50E021FD02C09F5FECCF3091EB007A
:104C20003E7F3093EB003091ED003D7F3093ED00FF
:104C30003091EB0031603093EB007093EC002093E7
:104C4000ED005093F0002091EE0027FDE5CF80E0CD
:104C500008958F708093E90081E008952091BB0250
:104C60003091BC022617370748F06115710539F4F9
:104C70002091E8002E772093E80001C0B901FC01E3
:104C800020E06115710579F18091BD028823F1F171
:104C90008530F1F18091E80083FD3CC08091E8000F
:104CA00082FD2EC08091E80080FFEBCF2091F300C1
:104CB0008091F20090E0922B6115710551F08830DF
:104CC000910538F421912093F1006150710901960A
:104CD000F3CF21E0089709F020E08091E8008E777B
:104CE0008093E800CECF2111CFCF0AC08091BD02C2
:104CF000882361F0853061F08091E80083FD0AC06F
:104D00008091E80082FFF2CF80E0089582E008956C
:104D100083E0089581E008958EE14A9B02C08150AE
:104D2000E1F74A9BFECF08955A9880E28A95F1F701
:104D30005A9A0895FC012AE02A95F1F790E020E0C4
:104D400080E031E0261779F040E14A95F1F7880FCD
:104D50004A9B02C08160932700C0000040E14A9551
:104D6000F1F72F5FEFCF20E12A95F1F729B100C0CD
:104D7000000030E13A95F1F722FB222720F9922733
:104D80002081920F90830895EF92FF920F931F93CB
:104D9000CF93DF931F92CDB7DEB719828C017C01D0
:104DA000E60EF11C0E151F0559F00E948C2668E0D6
:104DB000CE0101960E949A26F80181938F01F2CFCD
:104DC00081E09981911180E00F90DF91CF911F9147
:104DD0000F91FF90EF90089590932C0380932B03F5
:104DE00060932A03529A5A9A089590932C038093C1
:104DF0002B0360932A0352985A9AEA9AE9E6F0E064
:104E000080818F7C80830895615091E001C0990F6B
:104E10006A95EAF720E031E0992361F0492F4823B1
:104E200019F05A9A232701C05A9840E24A95F1F79F
:104E30009695F2CF222311F05A9A01C05A9880E237
:104E40008A95F1F75A980895FF920F931F93CF9385
:104E5000DF93EC018C01060F111DC017D10741F043
:104E6000F9900E94942668E08F2D0E940427F5CFC8
:104E7000DF91CF911F910F91FF9008951F920F9294
:104E80000FB60F9211240F931F932F933F934F93BD
:104E90005F936F937F938F939F93AF93BF93EF93A2
:104EA000FF93CF93DF931F92CDB7DEB719820E9495
:104EB0008C2667E0CE0101960E949A26382F3695FF
:104EC00036953695932F96959570232F2570920FD2
:104ED000292F2370969596958770920F891348C055
:104EE0008981811145C080912A03831708F440C04D
:104EF00080E18A95F1F75A9A529AA2E0AA95F1F7C1
:104F000000C000912B0310912C03B8E03B9F000DD3
:104F1000111D11245A98F8016581662321F08681BC
:104F200097810E9424270E949426F0E1FA95F1F7D8
:104F30005A9852985A9A80E18A95F1F7D8011296B8
:104F40006C911297662369F013968D919C9114973A
:104F50000E94C426D801ED91FC91811105C082E028
:104F600004C0D801ED91FC9188E080830E948C26DA
:104F70000F90DF91CF91FF91EF91BF91AF919F91F2
:104F80008F917F916F915F914F913F912F911F91E1
:104F90000F910F900FBE0F901F9018950F931F93B6
:104FA000CF93DF9320912A0330E0281739070CF4C0
:104FB00071C09C0193E0220F331F9A95E1F7C091D5
:104FC0002B03D0912C03C20FD31FF894529A5A98F6
:104FD00045E04A95F1F70000982F969595708570F9
:104FE000890F982F937086958695890F8901082BD4
:104FF0000E94942684E08A95F1F700C067E0802F34
:105000000E94042740E14A95F1F752985A9A4A992A
:1050100002C000C0FCCF87E090E04A9B0EC0019721
:1050200051F4529A5A9AE881F98181E08083789408
:1050300081E090E031C000C0F0CF6D81662381F047
:105040008E819F810E94C42681110AC0529A5A9A69
:10505000E881F98182E08083789482E090E01CC04E
:105060000E948C2680E28A95F1F75A98529A40E184
:105070004A95F1F76A81662321F08B819C810E9419
:1050800024270E949426E881F9811082789480E098
:1050900090E002C084E090E0DF91CF911F910F91EA
:1050A0000895F999FECF92BD81BDF89A992780B5F0
:1050B0000895A6E1B0E044E050E00C948B28A8E10C
:1050C000B0E042E050E00C948B28262FF999FECFF7
:1050D00092BD81BDF89A019700B4021639F01FBA4B
:1050E00020BD0FB6F894FA9AF99A0FBE0895039668
:1050F000272F0E9466280E946528252F0E94662877
:10510000242F0C9466280196272F0E9466280C9461
:105110006528DC01CB01FC01F999FECF06C0F2BD88
:10512000E1BDF89A319600B40D9241505040B8F765
:105130000895AA1BBB1B51E107C0AA1FBB1FA617DE
:10514000B70710F0A61BB70B881F991F5A95A9F730
:1051500080959095BC01CD01089597FB072E16F41C
:10516000009407D077FD09D00E94992807FC05D04C
:105170003EF4909581959F4F0895709561957F4F6E
:105180000895EE0FFF1F0590F491E02D0994692713
:10519000962769277827872778270895FC014150AB
:1051A000504030F001900616D1F73197CF010895A5
:0A51B000882799270895F894FFCF8F
:1051BA0001090A0B0C0D0E0F1011120036003636BB
:1051CA005B02005B020556025502084D0200000010
:1051DA00013666181E741E551E511E4D1E01000111
:1051EA00020202020606060909090909090909094A
:1051FA0009C63433320000000094F4F5F6F73100A2
:10520A00FF0100010000FFFF0000010001FF004054
:10521A0022811106EF056E0563067C069C068182D3
:10522A0083E200E900EA00B500B600B700CD0083CA
:10523A0001CC008A01920194012102230224022551
:10524A0002260227022A02B300B4006F007000008F
:00000001FF
