:100000000C94CC030C9413040C9413040C949827B4
:100010000C9413040C9413040C9413040C94130404
:100020000C9413040C9413040C94B51D0C94F11C43
:100030000C945B210C9413040C9413040C9413047F
:100040000C9413040C9413040C9413040C941304D4
:100050000C9413040C9404210C9413040C941304B6
:100060000C9413040C9413040C9413040C941304B4
:100070000C9413040C9413040C9413040C941304A4
:100080000C9413040C9413040C9413040C94130494
:100090000C9413040C9413040C9413040C94130484
:1000A0000C9413040C9413040C9413043C113F118E
:1000B00060116D11741194119711CB11ED1187120C
:1000C0009112F811FB11FE11211241124412471234
:1000D0006912441644167E167E16D116ED167F1848
:1000E0007F18F816D617E717E717BF18E918EE18A4
:1000F000F318F818FD18021907190C191119161917
:100100001D1922192519111411141114111428196B
:100110001114F91A201BD31C201BD31C6C1B8F1B22
:10012000D31C901CA01C34243424472447243D2491
:100130004724472447243424342442244724472492
:100140004224000101010101010101010202020238
:100150000202020202030303030303030304040471
:10016000040404040505050505060606060607073A
:1001700007070708080808090909090A0A0A0B0BF2
:100180000B0C0C0C0D0D0D0E0E0E0F0F0F10101191
:100190001111121213131414151516161717181817
:1001A00019191A1A1B1B1C1D1D1E1E1F202021227F
:1001B00022232424252626272829292A2B2C2D2DC5
:1001C0002E2F30313232333435363738393A3B3CE2
:1001D0003D3E3F404142434445464748494A4C4DD5
:1001E0004E4F50515354555658595A5B5D5E5F619E
:1001F0006264656668696B6C6D6F70727375777831
:100200007A7B7D7E8082838587888A8C8E8F91938E
:100210009596989A9C9EA0A2A3A5A7A9ABADAFB1B5
:10022000B3B5B7BABCBEC0C2C4C6C9CBCDCFD1D49A
:10023000D6D8DBDDDFE2E4E7E9EBEEF0F3F5F8FA40
:10024000FDFFFFAA7F55402223252628292A2C2D91
:100250002F3032333536383A3B3D3E4042434547F6
:10026000494A4C4E5051535557595A5C5E6062642E
:100270006668696B6D6F71737577797B7D7F81833C
:100280008587898A8C8E90929496989A9C9E9FA13D
:10029000A3A5A7A8AAACAEAFB1B3B4B6B8B9BBBC5E
:1002A000BEBFC1C2C3C5C6C7C9CACBCCCDCED0D1D3
:1002B000D2D2D3D4D5D6D7D7D8D9D9DADADBDBDBCB
:1002C000DCDCDCDCDCDDDDDDDDDCDCDCDCDCDBDB6C
:1002D000DBDADAD9D9D8D7D7D6D5D4D3D2D2D1D0C0
:1002E000CECDCCCBCAC9C7C6C5C3C2C1BFBEBCBBBD
:1002F000B9B8B6B4B3B1AFAEACAAA8A7A5A3A19F35
:100300009E9C9A98969492908E8C8A8987858381F8
:100310007F7D7B79777573716F6D6B6968666462D9
:10032000605E5C5A5957555351504E4C4A494745A7
:100330004342403E3D3B3A3836353332302F2D2C48
:100340002A29282625232229001E001F00200021FB
:1003500000220023002B0014001A000800150017CB
:10036000000000E00004001600070009000A000079
:1003700000E1001D001B000600190005000000E060
:10038000000151E2002C002C001250000024002536
:1003900000260027002D002E0031001C0018000C44
:1003A00000120013002F0030000B000D000E000F94
:1003B00000330034002800110010003600370038E8
:1003C00000E500015112502C002C00E600E700353A
:1003D000002A0001003A003B003C003D003E003F87
:1003E0000039000100C25CC55CC75CC95C0000014B
:1003F000000100C35CC65CC85CCA5C00000100016F
:1004000000010001000100010000000100010001E5
:1004100000010001000100000040004100420043D3
:100420000044004500490001000100460047004823
:100430000052000100010001004A004B0050004F33
:10044000000100010001004D004E005100010001BB
:1004500000010001000100010001004C0001002921
:10046000001E001F0020002100220023002B00148A
:10047000001A000800150017000000E00004001634
:1004800000070009000A000000E1001D001B000633
:1004900000190005000000E0000151E2002C002CD2
:1004A000001350000024002500260027002D002EF8
:1004B0000031001C0018000C00120013002F003047
:1004C000000B000D000E000F003300340028001157
:1004D000001000360037003800E500015113502CA1
:1004E000002C00E600E70035002A0029001E001F4E
:1004F0000020002100220023002B0014001A000815
:1005000000150017000000E00004001600070009B5
:10051000000A000000E1001D001B00060019000594
:10052000000000E0000151E2002C002C00105000FF
:100530000024002500260027002D002E0031001C7D
:100540000018000C00120013002F0030000B000DEB
:10055000000E000F00330034002800110010003698
:100560000037003800E500015110502C002C00E647
:1005700000E70035002A00783C1E1E140A05000022
:10058000000000000000000000000000000000006B
:1005900000007E0F00D4FFFFFFC7000000780000BE
:1005A0000000000000002A2B2800000000000000CE
:1005B00000000000000000000029000000002C1EC8
:1005C0003420212224342627252E362D3738271E85
:1005D0001F202122232425263333362E37381F04AB
:1005E00005060708090A0B0C0D0E0F101112131443
:1005F00015161718191A1B1C1D2F3130232D350401
:1006000005060708090A0B0C0D0E0F101112131422
:1006100015161718191A1B1C1D2F3130354C0501E2
:100620000902A10185020901A10005091901290595
:10063000150025019505750181029501750381015C
:100640000501093009311581257F9502750881065C
:1006500009381581257F950175088106050C0A3832
:10066000021581257F950175088106C0C005010925
:1006700080A101850319012AB700150126B700954D
:100680000175108100C0050C0901A1018504190143
:100690002AA002150126A002950175108100C0064E
:1006A00060FF0961A1010962150026FF0095207510
:1006B0000881020963150026FF0095207508910244
:1006C000C005010906A101050719E029E715002564
:1006D00001950875018102950175088101050719C9
:1006E0000029FF150026FF00950675088100050802
:1006F000190129059505750191029501750391016F
:10070000C009025B00030100A0FA09040000010314
:1007100001010009211101000122400007058103A8
:1007200008000A0904010002030000000921110168
:1007300000012222000705820320000107050303B0
:100740002000010904020001030000000921110139
:1007500000012281000705840320000A1201100114
:100760000000000838393436010001020301040397
:10077000300000000A0372006500360034000000FB
:1007800012036B0075007300680069006D00610062
:10079000380000000403090411241FBECFEFDAE083
:1007A000DEBFCDBF04B603FE27C0809164039091E5
:1007B0006503A0916603B09167038730904BA74013
:1007C000B04BD1F41092640310926503109266034B
:1007D0001092670314BE84B7877F84BF0FB6F89466
:1007E000A8958091600088618093600010926000FD
:1007F0000FBEE0E0F8E3099523E0A2EAB1E001C012
:100800001D92A436B207E1F711E0A0E0B1E0EEE6F8
:10081000F2E502C005900D92A23AB107D9F70E9405
:10082000B60C0C9435290C9400000895BF92CF9219
:10083000DF92EF92FF920F931F93CF93DF93E82EF7
:10084000F62EE901E42FF0E0611106C0EE5BFE4FE9
:100850008491B82EE82F71C0262F30E0EE5BFE4F5A
:10086000E491FE2FCE2ED12C46E0849FC0011124AE
:100870000FEF10E0B8010E94F3284BEA4603C001D5
:10088000479F900D11248E0D911D8E0D911D982F57
:10089000990F890FD801A21BB30BAC9DA001AD9D90
:1008A000500DBC9D500D1124B52EF89ED001112481
:1008B000AB2FBB277801EA1AFB0AEC9CD001ED9C18
:1008C000B00DFC9CB00D11247801E81AF108E29EED
:1008D000C001E39E900DF29E900D1124892F99275F
:1008E000081B190B0C9D90010D9D300D1C9D300DAA
:1008F0001124832F6230710591F048F46115710560
:10090000E1F061307105B9F48E2FEB2F16C0643021
:10091000710569F040F06630710579F00CC08E2FDA
:10092000E52FB32E0AC0E52FBF2E8B2F06C0852FD3
:10093000BE2EE32F02C0852FBB2EE9838883BA82A7
:10094000DF91CF911F910F91FF90EF90DF90CF90AB
:10095000BF9008959091890292FF0DC0282F2871B1
:10096000283019F4877F846006C0282F2471243032
:1009700011F48B7F886093FF0DC0282F28712831D8
:1009800019F4877E846106C0282F2471243111F464
:100990008B7E886120918A0220FF0DC0382F38712C
:1009A000383019F4877F816006C0382F31713130BB
:1009B00011F48E7F886021FF0DC0282F2871283107
:1009C00019F4877E816106C0282F2171213111F42D
:1009D0008E7E886194FD877E08956091BA02669547
:1009E00070E04BE050E080E091E00E942829892BE4
:1009F00019F481E080939A020E9439219093940225
:100A00008093930280919B02846080939B0208955F
:100A10001F93CF93DF93CDB7DEB767970FB6F894E8
:100A2000DEBF0FBECDBF4B8B5C8B6D8B7E8B8F8BF8
:100A300086E09E01235F3F4FD901E82F1D92EA9582
:100A4000E9F795E0FE017396D90101900D929A9510
:100A5000E1F7F901DE01179601900D928A95E1F711
:100A6000CE0107960E944B2481113EC086E0FE0114
:100A70003796DE01119601900D928A95E1F7FF817C
:100A8000E8856A857B856115710531F0EF3F31F4AA
:100A900081E0FF3F19F403C081E001C080E080FDE8
:100AA00023C02091F80230E0C90101968770992790
:100AB0004091290350E08417950779F1F983EA837F
:100AC0007D836C8396E0929FD001939FB00D11249B
:100AD000A750BD4FFE01319601900D929A95E1F716
:100AE0008093F8020E94AC2316E080912903909134
:100AF000F8028917F9F0189FC001112487509D4F03
:100B00000E944B248823B1F08091290390E0019644
:100B10008770992780932903E8CF0E9415261092A9
:100B2000F80210922903E2EFF2E086E0DF011D9265
:100B30008A95E9F767960FB6F894DEBF0FBECDBF72
:100B4000DF91CF911F91089520916B0230916C023B
:100B50002817390771F090936C0280936B02E09133
:100B60008D02F0918E02309721F00084F185E02D06
:100B7000099408952091690230916A022817390773
:100B800071F090936A0280936902E0918D02F09176
:100B90008E02309721F00680F781E02D09940895A8
:100BA000E0918D02F0918E02309721F00190F0815A
:100BB000E02D099480E008950F931F93CF93DF9366
:100BC000C62FD42F122FFC0182818823C9F0609395
:100BD000CD020E943921909368028093670280E2DF
:100BE0008C0F883008F057C0C77081E001C0880FB3
:100BF000CA95EAF7DF91CF911F910F910C942B26A4
:100C00008091CD02681330C0809167029091680294
:100C10000E942A21883C910538F500E20D0FCD177E
:100C2000B9F080E28C0F883040F4C77081E001C0D9
:100C3000880FCA95EAF70E942026083028F581E03F
:100C40009D2F977001C0880F9A95EAF70E942B2676
:100C5000812F0E94D3260830F0F4D77081E001C0C4
:100C6000880FDA95EAF70AC080E28C0F883098F492
:100C7000C77081E001C0880FCA95EAF7DF91CF9174
:100C80001F910F910C942026812FDF91CF911F91FE
:100C90000F910C94D326DF91CF911F910F9108955E
:100CA000CF93DF93C6E5D2E060E0CE010E94BF287B
:100CB0002196C11584E0D807B9F7DF91CF91089547
:100CC000CF92DF92EF92FF920F931F93CF93DF9318
:100CD000C0E0D0E08E0104571F4F6E018EE0C80EB9
:100CE000D11CFE01E95BFC4FE590F4906F2DCE0125
:100CF00086960E94BF286E2DCE0187960E94BF283F
:100D00002296CC15DD0569F70C171D0731F7E801B0
:100D100000331240F9F6DF91CF911F910F91FF90B0
:100D2000EF90DF90CF9008950F931F93CF93DF93B1
:100D3000C42FD0E0CC0FDD1F2EE0629FC00DD11D6F
:100D400011243CE8839FC00DD11D1124CE0186964D
:100D50000E94AB28082F10E0102F0027CE018796A5
:100D60000E94AB289801282BC901DF91CF911F91D8
:100D70000F910895462F843038F47A3028F4673084
:100D800018F4672F0C94940680E090E00895CF93B8
:100D9000C82F811102C06FEF01C060E282E290E0D3
:100DA0000E94BF28C11102C06FEF01C069E083E259
:100DB00090E00E94BF28C11102C06FEF01C064E043
:100DC00084E290E0CF910C94BF28882311F0FA01BF
:100DD00001C0FB010994E9E9F2E01182828184609B
:100DE0008283089530910C018091BA0280FF16C071
:100DF000E0910B0163E0E69FF0011124E955FE4FFD
:100E0000539A8BB1877F9BB198602FB7F894AF014D
:100E100063E0369F400D511D112414C080910D01D7
:100E200090910E01891720F7E82FF0E0AF01440FF1
:100E3000551FE40FF51FE955FE4F118210821282F3
:100E40008F5FF0CFE417F50789F0319168E09BB927
:100E5000000000C037FF8BB9330F000000C000C096
:100E600000C08BB900C06A9591F7ECCF2FBF8FE51A
:100E700094E00197F1F700C0000008959091BA0244
:100E800090FF16C090910D0120910E01921770F401
:100E9000E92FF0E0DF01AA0FBB1FEA0FFB1FE955A6
:100EA000FE4F8183608342839F5FF0CF0C94F206F4
:100EB0000895CF93DF9300D01F92CDB7DEB7909106
:100EC000BA0290FF0DC0453608F044E69E012F5F40
:100ED0003F4F0E9416044B8169818A810E943E0720
:100EE0000F900F900F90DF91CF910895CF93DF93E4
:100EF000EC01EAEBF2E0438162818C810E945907A8
:100F00008C818F5F8C83DF91CF910895CF93DF9396
:100F1000EC01EC81F0E0E95BFD4F4491EAEBF2E09B
:100F2000628181810E9459078C818F5F8C83DF9160
:100F3000CF910895EAEBF2E080818E7F80830E945A
:100F4000EB06E9E9F2E08281816082832FEF80E79E
:100F500092E0215080409040E1F700C000000C94E6
:100F6000F2068091BA02282F269530E0211531052E
:100F700019F48170826005C02331310524F081703D
:100F800084628093BA028091BD02853618F084E6AF
:100F90008093BD020895CF92DF92EF92FF926B0192
:100FA0007C010E94B107B701A60188E090E0FF90A4
:100FB000EF90DF90CF900C94D128AF92BF92CF9258
:100FC000DF92EF92FF920F931F93CF93DF9300D0A6
:100FD0001F92CDB7DEB7082FF62E142FE22E809188
:100FE000BA0280FF83C0E82FE695AE2FB0E0A25D85
:100FF000BE4F9C91909399028E7F823081F445364A
:1010000008F044E69E012F5F3F4F6F2D802F0E9416
:1010100016044B8169818A810E943E0744C0923048
:1010200019F41091BD023FC0963019F40091BB0233
:101030003AC09930C1F5E9508E2F8170D82EE695CF
:10104000F0E0EE5BFD4FA590B490C12CBB24609105
:101050000F01C61630F52C2D30E0A29EC001A39ED4
:10106000900DB29E900D112470E00E94F328802F05
:10107000D11002C0860F01C0861B90910D01290F6F
:10108000311DA901440F551F240F351F29553E4F0F
:10109000412F153608F044E66F2D0E941604C394C4
:1010A000D6CF0E94F2068091BB02081308C080913F
:1010B000BC02F81204C08091BD02181729F080917B
:1010C0009B02826080939B020093BB02F092BC0261
:1010D0001093BD02EE2051F06091BA027091BB02F4
:1010E0008091BC029091BD020E94CB070F900F909F
:1010F0000F90DF91CF911F910F91FF90EF90DF90B4
:10110000CF90BF90AF900895EAEBF2E0438121E1E8
:10111000421B08F440E021E0628181810C94DD07EC
:10112000EAEBF2E0438121E1420F08F44FEF21E0C6
:10113000628181810C94DD07EAEBF2E0628121E1BA
:10114000621B08F460E021E0438181810C94DD079B
:10115000EAEBF2E0628121E1620F08F46FEF21E037
:10116000438181810C94DD07EAEBF2E0818121E08B
:101170004381628188500C94DD07EAEBF2E08181C3
:1011800021E043816281885F0C94DD078091BE027B
:10119000882319F081508093BE026091BA02709149
:1011A000BB028091BC029091BD020C94CB07809150
:1011B000BE02833018F48F5F8093BE026091BA0242
:1011C0007091BB028091BC029091BD020C94CB0740
:1011D0009091BA0290FF3BC09170811102C0926061
:1011E00006C0833110F0946202C0880F982B909350
:1011F000BA0280919B02816080939B02662351F02A
:101200006091BA027091BB028091BC029091BD02C4
:101210000E94CB076091BA02669570E04BE050E007
:1012200080E091E00E942829892B19F00E94EB06AA
:1012300002C00E94ED0481E08093960220E040917C
:10124000BD026091BC028091BB020C94DD07089541
:101250008091BA028695815009F482E161E00C9494
:10126000E8088091BA0286958F5F833108F081E0AB
:1012700061E00C94E8089091BA0290FF04C0969542
:10128000981740F003C0811105C090E0961710F444
:101290000C94310961E00C94E808EAEBF2E083E099
:1012A000808311828FEF828384E683831482A9E98D
:1012B000B2E012968C911297836012968C936081A3
:1012C0007181828193810C94CB078091A601811159
:1012D00012C08091D80080618093D8008AE18A95FD
:1012E000F1F700C08091D90080FD02C082E001C00A
:1012F00081E08093A60181E09091A601913009F0F0
:1013000080E00895CF93DF930E94BA06EC01823803
:10131000910559F1A0F48133910509F473C040F4AB
:101320008932910509F467C08A9709F472C084C0B4
:101330008533910509F458C0C997B9F07DC0833E43
:10134000910571F138F4803E9105B1F0823E91052E
:1013500011F172C0863E9105B9F1873E9105C9F140
:10136000843E910509F068C024C08091890280FD07
:101370005DC081FD5BC060C08091890280FD50C06E
:1013800080918A0280FF49C18091890284FD43C116
:10139000C3EED0E042C18091890282FF3EC1F4CF0A
:1013A0008091890282FD3FC080918A0280FD3EC00B
:1013B000EBCF80918A0281FF30C18091890284FD48
:1013C0002AC1C7EED0E029C18091890283FF25C1DF
:1013D000F4CF8091890283FD2CC080918A0281FF25
:1013E000ECCFC4EED0E019C18091890285FF15C110
:1013F000C9E2D0E012C18091890285FF0EC1C5E328
:10140000D0E00BC18091890286FF07C1CAE2D0E01B
:1014100004C18091890286FF00C1C1E3D0E0FDC014
:10142000C9E3D0E0FAC0C2EED0E0F7C0C0EED0E031
:10143000F4C0C6EED0E0F1C0C11581E5D80708F0D0
:1014400066C0C11520E5D207E0F0CE0174E09695A4
:1014500087957A95E1F783709C2F937021E030E0B7
:1014600002C0220F331F9A95E2F73C68382BCF70E9
:10147000C695C69540E2C49FE0011124C22BD32B30
:10148000CCC0C83ED10560F5C03ED10508F0C5C04E
:10149000C83AD105B0F4C53AD10540F0C55AD0E0FC
:1014A000CF58DE4FC881D0E0D064B7C0C130D1057D
:1014B00009F4B3C008F4AFC0C430D10508F4ABC020
:1014C000ACC0CF3BD10508F0A6C0C85AD0E0CC0FC5
:1014D000DD1FCC58DE4F0990D881C02DD4649DC04B
:1014E000C11540E2D40758F4C11581E0D80708F0CF
:1014F00094C0C03FD10508F48EC0D0658EC0C11520
:1015000020E4D20708F487C0DF70D06A86C0C11516
:1015100045E5D40708F042C0C11584E5D80728F096
:10152000DC2FCC27C46FD06A78C0C11523E5D20761
:10153000B0F0CE018370992721E030E002C0220F85
:10154000331F8A95E2F78C2F8695869540E2849F1B
:10155000C0011124E901C82BD92BDA685EC0C1157E
:1015600042E5D40728F4DC2FCC27C16FD06A55C0E0
:10157000CE018370992721E030E002C0220F331F93
:101580008A95E2F78C2F8695869540E2849FC0016C
:101590001124E901C82BD92BDC683FC0C11589E5AE
:1015A000D807B8F4C11528E5D20728F0DC2FCC27DE
:1015B000C06FD06A32C0C11546E5D40760F58C2FE4
:1015C0000E94AA048F71C82FD0E0DC2FCC27D062F4
:1015D00024C0C1158AE5D80780F48C2F8F700E9433
:1015E000AA0494E0D695C7959A95E1F7CF70D0E01C
:1015F000DC2FCC27D069C82B10C0CE0190568115A6
:10160000904248F48D2F8F710E94AA04DD27D0628A
:101610008F71D82B02C0C0E0D0E0CE01DF91CF9116
:101620000895CF93C62F882311F08130E9F460919B
:10163000E6027091E7028091E8029091E9020E942F
:101640001222813049F010F0843070F4C11102C0D0
:101650008AEF07C089EF05C0C11102C081E501C052
:1016600082E5CF910C94D326CF9108956F927F920B
:101670008F929F92AF92BF92CF92DF92EF92FF92A2
:101680000F931F93CF93DF9361E471E00DE712E0B6
:1016900022E8E22E22E0F22E3801C0E0AA24A39430
:1016A000B12CDB018D91BD01E82FE295EF70F0E0E8
:1016B00021A18F70A50102C0440F551F8A95E2F742
:1016C000CA01242B21A322A1942E9094292122A384
:1016D00050EA5A95F1F79BE4C92E91E0D92E20E00B
:1016E00030E0D0E0D6018D906D01482D42954F70CD
:1016F00050E0DA0190964C9150E0B82DBF7002C0D6
:1017000055954795BA95E2F740FD07C04A2D022E40
:1017100001C0440F0A94EAF701C040E0D42B2F5FC8
:101720003F4F27303105F1F691A1992291A292A164
:10173000892B82A3F3018081D81719F0D08381E02F
:1017400001C080E0C82BFFEF6F1A7F0AE614F70490
:1017500009F0A7CFD0908802CC2349F081E0809394
:10176000A4010E9439219093A3018093A20180914A
:10177000A4018823A9F08091A2019091A3010E9465
:101780002A21069768F0ED2DF0E0E154FD4FD801D5
:101790008D918D018193EA16FB06C9F71092A40181
:1017A0000E946509882309F463C010918702809123
:1017B0009B028823E9F085E0EAEBF2E0ADE6B2E0D7
:1017C00001900D928A95E1F78091990290919A0289
:1017D000A0919B028093720290937302A093740273
:1017E00081E090E00E942828892B11F410929B023E
:1017F00080E090E00E942828892B09F094C0E12F16
:10180000F0E0E154FD4F80E090E0DC01AA58BD4FCC
:101810002C912193019685309105B9F7D0918C02D6
:101820008D2F90E0FC01E456FD4F7F0110917B026B
:101830008081181B012F101654F40150D7018C9190
:101840008F5F8C9360E08D2F0E94110BF4CF812F5E
:1018500017FD80E0181B112309F462C01F5FF70118
:1018600080818150808361E08D2F0E94110BF3CF26
:10187000E09188020E2F10E0809175028830C9F542
:101880008091740280FF12C080916D0280FF0CC0B5
:101890008091BA0281608093BA0280916D0260E00B
:1018A00086950E94E80802C00E949A0780917402FF
:1018B00081FF09C020E04091700260916F02809129
:1018C0006E020E94DD078091740282FF09C0809140
:1018D0007302882319F00E94ED0402C00E94EB06F7
:1018E0008091740283FF03C081E08093960210927E
:1018F0007502F801E154FD4F80E090E02191DC0198
:10190000AA58BD4F2C93019685309105B9F7E09107
:101910009F02F0E0E456FD4F808180937B0216C069
:101920001092A50113C08091A5018F5F8093A5013E
:10193000863060F0E0918702F0E0E154FD4F80E0F6
:1019400090E01192019685309105D9F78C2FDF91A7
:10195000CF911F910F91FF90EF90DF90CF90BF90AC
:10196000AF909F908F907F906F900895CF93DF936B
:10197000CDB7DEB7AA970FB6F894DEBF0FBECDBFC6
:1019800084B7877F84BF0FB6F894A89580916000D4
:10199000886180936000109260000FBE90E080E844
:1019A0000FB6F89480936100909361000FBE85B7E5
:1019B000806885BF85B7806885BF0E94351D0E94FD
:1019C000541D8091E20084608093E20078948091BD
:1019D000E5028823A1F01091E9001F709091EC00BE
:1019E000892F817090FD80E8182B1092E90080917A
:1019F000E80083FD0E94131A1F701093E90082E033
:101A000084BD93E095BD9AEF97BD80936E000E94D0
:101A100065098093200180912001882321F0109294
:101A20000B018EE104C08EE180930B0182E2809372
:101A30000C010E946509882331F062E070E080E1CA
:101A400091E00E9446278091200180912001882307
:101A500011F090E001C095E09093880285E0891B29
:101A600080938702A1E4B1E046E451E061E070E0D8
:101A70008D91E82FE295EF70F0E021A18F708B013E
:101A800002C0000F111F8A95E2F7C801902F9095B0
:101A9000922391A392A1892B82A34A175B0741F756
:101AA000ABE4B1E041E050E08D91E82FE295EF70BA
:101AB000F0E021A18F70BA0102C0660F771F8A95EE
:101AC000E2F7CB01962F9095922391A392A1892BB7
:101AD00082A371E0A235B70739F7EDE7F2E0AFEB8B
:101AE000B2E011921D9282E0E738F807D1F70E9428
:101AF000360BEFE3FCE93197F1F700C000000E94DC
:101B0000360B8091BF0280FF0AC080E00E94C706AA
:101B10006FEF7FEF80E090E00E94DD280EC580E04F
:101B200090E00E94B9288C3E9E4F11F00E94AF2198
:101B30000E946509811106C062E070E080E191E0D9
:101B40000E944F2782E290E00E94AB28803281F40D
:101B500083E290E00E94AB28893051F484E290E067
:101B60000E94AB2891E0843009F090E0892F01C0F9
:101B700080E080FF08C580E090E00E94B9288C3E9C
:101B80009E4F11F00E94AF2182E090E00E94AB28AE
:101B90008093AF020E949E2190938A0280938902D3
:101BA00083E090E00E94AB28682F70E080E090E036
:101BB0000E94A22380918B0281113BC080E090E0C3
:101BC0000E94B9288C3E9E4F21F00E94AF210E94B6
:101BD0004D0988E090E00E94B3286093BA027093A8
:101BE000BB028093BC029093BD0280919B028360F4
:101BF00080939B026E7F71F40E944D0988E090E013
:101C00000E94B3286093BA027093BB028093BC0217
:101C10009093BD020E94B1070E94EB068091BA0228
:101C200080FF04C060E086950E94E80881E0809310
:101C30008B0280912001811106C086E380932201EE
:101C400086E68093210120912201A22FA295AF70F8
:101C5000B0E091963C9191972F7081E090E0AC01BB
:101C6000022E01C0440F0A94EAF7542F50953523F1
:101C700091963C93919792963C919297432B929692
:101C80004C93929740912101E42FE295EF70F0E0A0
:101C900031A14F70042E01C0880F0A94EAF7982FE3
:101CA0009095932391A392A1892B82A390968C91D6
:101CB00090E002C0959587952A95E2F7817020A162
:101CC00030E002C0359527954A95E2F720FF02C023
:101CD00092E001C090E0892B8093A00290912001B6
:101CE00081E0982790939F02891B80938C0283E266
:101CF00091E090938E0280938D029E012F5F3F4F63
:101D00007901CC24CA94DD24D3941E013DE0230E36
:101D1000311C39EC432E32E0532E48E1642E712CF5
:101D20008091E502853009F036C08091E50284306B
:101D300011F110928F0280E40FB6F894A89560928A
:101D400060000FBE8093600083B7817F846083BF93
:101D500083B7816083BF7894889583B78E7F83BF74
:101D60000FB6F894A8958091600088618093600018
:101D7000109260000FBE8091DB02882309F4D0CF5F
:101D80000E94360BEFEBF2E081918111DDC34E161C
:101D90005F06D1F7C5CF0E94360B0E9465098823E4
:101DA000A1F1A0EBB2E0EFEBF2E000E010E0302FA9
:101DB00021919D91922721F180E0BB24B3944B2D7A
:101DC0004923D1F089A33AA32B2181E009F480E0D3
:101DD0008BA30E9439218160782F9DA38CA349A1F8
:101DE0005AA16BA18DA10E940805F801E055FD4F95
:101DF0008081B826B08218C08F5FBB0C8730F9F69F
:101E00000F5F1F4F0A30110591F6CEA2CFA218A680
:101E10000E9439218160782F9AA789A74EA15FA1DE
:101E200068A58AA50E94080580919A02882309F472
:101E30007CC080919902E091BA02E695E81BE0939C
:101E40009502823059F4F0E0E658FA4FE4910E2FF3
:101E500010E026E8A22E27E0B22E13C0863059F4F7
:101E6000F0E0E958FA4FE4910E2F10E096E7A92E22
:101E700097E0B92E06C000ED17E085E1A82E84E0BA
:101E8000B82E80919602882389F0109296020E94C3
:101E90003921980120953095820F931F90939402D9
:101EA000809393021092980210929702809193026D
:101EB000909194020E942A2180179107B0F180919D
:101EC00092028823B1F01092920280919002909138
:101ED00091020E942A218033954758F00E943921AF
:101EE000909391028093900280919B0288608093EE
:101EF0009B028090970290909802E0919302F0915B
:101F000094020E0F1F1F109394020093930283E913
:101F100092E0F50109958091970290919802892BA2
:101F200021F4892811F0D09292028091A002E82F2A
:101F3000EE0FEE0F80912201A82FA295AF70B0E0B6
:101F400090962C9130E08F7002C0359527958A9538
:101F5000E2F72170332780912101A82FA295AF705D
:101F6000B0E090964C9150E08F7002C05595479527
:101F70008A95E2F7CA018170992740FF02C082E08A
:101F800090E0822B932B8E2B8093A00210919F02C6
:101F90008F70E82FF0E0EE5AFE4F908180919E0204
:101FA000890F80939E0284306CF0E12F012E000C8B
:101FB000FF0BE456FD4F80818F5F808360E0812FAF
:101FC0000E94110B80919E028D3F6CF4E12F012E37
:101FD000000CFF0BE456FD4F80818150808361E04F
:101FE000812F0E94110B80919E02837887FF03C08E
:101FF00081508C6F8F5F80939E0286E0E8EAF2E06A
:10200000D70101900D928A95E1F78091AA02811182
:1020100005C08091AB02882309F46BC08091A602B1
:102020009091A7020E942A219C019091A5029923D8
:1020300009F4B6C22333310508F45BC09F3F19F0A1
:102040009F5F9093A5021092AC021092AD02809116
:10205000AA02181624F40E946B208093AA02809191
:10206000AA0287FF05C00E946B2081958093AA0277
:102070008091AB02181624F40E946B208093AB026F
:102080008091AB0287FF05C00E946B2081958093F1
:10209000AB023091AA023323D1F02091AB0222236C
:1020A000B1F005EB3003C0011124992319F090938E
:1020B000AA0202C0D092AA0215EB2103C00111248A
:1020C000992319F09093AB0202C0D092AB020E9408
:1020D00045218091A3029091A4029093A70280933E
:1020E000A60286E0F701A8EAB2E001900D928A9577
:1020F000E1F78091AC02811105C08091AD02882387
:1021000009F46BC08091A1029091A2020E942A2141
:102110009C019091A502992309F447C22536310507
:1021200008F45BC09F3F19F09F5F9093A502109247
:10213000AA021092AB028091AC02181624F40E94FD
:1021400049208093AC028091AC0287FF05C00E94B9
:10215000492081958093AC028091AD02181624F439
:102160000E9449208093AD028091AD0287FF05C097
:102170000E94492081958093AD023091AC023323B7
:10218000D1F02091AD022223B1F045EB3403C00120
:102190001124992319F09093AC0202C0D092AC02A2
:1021A00065EB2603C0011124992319F09093AD0229
:1021B00002C0D092AD020E9445218091A30290916D
:1021C000A4029093A2028093A10286E0F701A8EAFC
:1021D000B2E001900D928A95E1F70E94D0059091AE
:1021E000AE02891721F00E94D0058093AE02809143
:1021F000E502843009F094CD73E07093E90080919A
:10220000E80082FF8DCD8091E80085FF1FC00E940D
:102210008E1E811119C000E210E0570108C08091A4
:10222000F100F50181935F010150110969F080917E
:10223000E80085FDF4CF8091E8008B778093E8007B
:102240000E948E1E882399F391E001C090E0809156
:10225000E8008B778093E800992309F461CDE98148
:102260008E2F90E0FC013197E331F10508F067C152
:10227000EA5AFF4F0C941B291A8289E0A7C08A8171
:10228000823009F477C1833089F0813009F057C179
:102290002FB7F8948091C9029091CA02A091CB0205
:1022A000B091CC022FBFBB83AC831CC0FE01339620
:1022B000AFEBB2E08D918193E215F305D9F740C100
:1022C0008A81823009F03BC16B817C818D819E8146
:1022D0000E94212985E290E024C04C816B818A8193
:1022E0000E9494069D834DC1AD80BE80BA24AB246C
:1022F000BA248C810B819A81FEE00F9F800111240A
:102300002CE8929F000D111D1124080F111D080FBC
:10231000111D6B2DC80186960E94BF286A2DC80129
:1023200087960E94BF280CC10E94600609C18A815D
:102330008138B1F050F4803809F002C120E04B81BF
:102340006091BC028091BB0223C08238E9F08338DF
:1023500009F0F6C020E04091BD026C818B8118C06D
:1023600060E08B810E94E8088B81811103C00E948C
:102370009A07E6C08091BA0281608093BA0260E059
:1023800086950E94E808DCC08B818093BE02D8C08D
:102390000E94DD07D5C08A81813899F030F48038F9
:1023A00009F0CEC08091BD0211C0823899F0833807
:1023B00009F0C6C08091BB028B838091BC028C83E4
:1023C000BFC08091BA0280FF03C086958B83B8C0DE
:1023D00080E0FCCF8091BE02F9CF6091BA0270918B
:1023E000BB028091BC029091BD020E94CB07A8C0A5
:1023F00080E18A83A5C0DA828AEAE8CF0A811B815C
:102400001027012710278C80912C5701C8018A5A68
:102410009D4F95012E193F092815390508F090C0E8
:102420000A3A31E0130728F40E94AB28F5018483AF
:1024300002C0F50114820F5F1F4FFFEFAF1ABF0AF2
:10244000E5CF0A811B811027012710278C80912C52
:102450005701C8018A5A9D4F95012E193F09281529
:10246000390508F06DC00A3A21E0120720F4F501A1
:1024700064810E94BF280F5F1F4FFFEFAF1ABF0A92
:10248000E8CF0E9450065CC004E00A8359C00A816C
:102490001B811027012710278C80912C5701C80120
:1024A000869695012E193F092815390508F048C070
:1024B000003322E0120728F40E94AB28F501848340
:1024C00002C0F50114820F5F1F4FFFEFAF1ABF0A62
:1024D000E6CF0A811B811027012710278C80912CC1
:1024E0005701C801869695012E193F09281539050F
:1024F00038F5003322E0120720F4F50164810E94D0
:10250000BF280F5F1F4FFFEFAF1ABF0AEACF80E06F
:102510000E94C7066FEF7FEF80E090E00E94DD2809
:102520000FC0C7010E94ED1E0FEF11EE24E0015015
:1025300010402040E1F700C000000E94F320C98253
:10254000C7010E94ED1EECCB80E189BD82E189BD0F
:1025500009B400FEFDCF8091D8008F7D8093D80014
:102560008091E00082608093E0008091E00081FD36
:10257000FCCFD6CB85E290E00E94AB281B821C8268
:102580001D828E83DDCF60E085E290E00E94BF284F
:102590000E9460060E94500681E00E94C706EBCAB6
:1025A0002D32314008F04CCDA4CD2D32314008F011
:1025B000BBCD13CE5F926F927F928F929F92AF921C
:1025C000BF92CF92DF92EF92FF920F931F93CF9320
:1025D000DF93CDB7DEB729970FB6F894DEBF0FBEF5
:1025E000CDBFFC018081918123813481232B31F087
:1025F0009F3F31F491E08F3F19F403C091E001C097
:1026000090E090FD2AC67F0185E0DE0111960190E1
:102610000D928A95E1F7F701228189819A8122231F
:1026200049F00E949522182F682F89819A810E9473
:102630000E2303C00E94E222182F69817A81812F24
:102640000E94BA068C01F7019281992309F4DFC038
:10265000980122513F452031310508F004C18FEF28
:1026600093E00E94AB288111DCC0025136E5832E35
:1026700032E0932E002379F08114F4E09F0609F4F0
:10268000D0C0C4010E94AB28811101C001501FEFCE
:10269000811A910AEFCF1E821F821886198666243E
:1026A00063942AE0522E84010F5F1F4FC4010E94E1
:1026B000AB288E831F82882309F4B3C09FEF980F45
:1026C000933060F48F836E8222E0820E911CC801E9
:1026D0000E94AB288887811102C0A3C048018E01E7
:1026E0000A5F1F4FF80120812223E9F2213009F00F
:1026F0004CC08181813049F46801F2E0CF0ED11CD9
:10270000F80182810E94D3260AC0823051F4680108
:10271000F2E0CF0ED11CF80182810E94742686015E
:1027200073C0833049F46801F2E0CF0ED11CF80188
:1027300082810E943526F3CF843019F00F5F1F4F3E
:1027400063C0F80122810E5F1F4F80E090E030E00F
:10275000205331092A30310568F4589EA001599E52
:10276000500D1124C901840F951F0F5F1F4FF801F1
:102770002081EDCF009709F447C0EFE9FFE03197E2
:10278000F1F700C000000197F5CFE22FF0E0E2562C
:10279000FA4F7490822F86958695869590E0FC017D
:1027A000E257FA4FA4902770B12C022E02C0B594C4
:1027B000A7940A94E2F7F1E0AF22BB24FC01E258AF
:1027C000FA4FC490D12C02C0D594C7942A95E2F751
:1027D00021E0C222DD24A114B10419F081EE0E948F
:1027E0007426C114D10419F086EE0E947426872D38
:1027F0000E94D326CD2819F086EE0E943526AB28FC
:1028000019F081EE0E9435260F5F1F4F6BCF00310C
:102810003FE5130709F0A6C481E00E9443230E940C
:10282000F51980915703877009F417C5F701828164
:10283000882309F412C582E029960FB6F894DEBF0A
:102840000FBECDBFDF91CF911F910F91FF90EF9001
:10285000DF90CF90BF90AF909F908F907F906F90C0
:102860005F900C9468230031FFE51F0711F481E0AD
:1028700005C001312FE5120721F482E00E94812377
:10288000CECF033FFCE51F0739F426E241EE60EEB0
:10289000C7010E94DC05C5CF043F2CE5120708F0F4
:1028A00043C1083D3CE5130721F427E245EE65EE00
:1028B000EFCF093D8CE5180719F428E241E0F7CF86
:1028C000073DECE51E0721F426E241EE61EEE0CF84
:1028D000992309F458C11092CD0202303CE5130748
:1028E00008F43BC106318CE5180738F098012A5FDF
:1028F0003C452930310508F030C10E949E2190935B
:102900008A028093890200319CE5190709F4C3C04B
:1029100008F041C00830FCE51F0709F49AC0F0F444
:1029200004303CE5130709F487C068F402309CE5E5
:10293000190709F477C003301C4509F0E5C0809100
:102940008902826076C00630FCE51F0709F46EC07C
:1029500008F07BC08091890288606BC00C303CE538
:10296000130709F485C068F40A309CE5190709F4D7
:1029700074C008F079C00E94152680918902806891
:1029800058C00E30FCE51F0709F476C008F07FC080
:10299000809189028BC00B3F3CE5130709F44FC0BF
:1029A00018F503319CE5190709F47DC078F401316D
:1029B000FCE51F0709F473C002311C4509F0A4C0EF
:1029C0000E941526809189028F7733C005313CE53E
:1029D000130709F472C008F486C00A3F1C4509F0C9
:1029E00093C080918A023EC00F3FECE51E0709F4B8
:1029F0005FC058F40D3F2CE5120709F444C008F4F9
:102A00003FC080918A0282602DC001308DE5180799
:102A100009F475C008F45DC002301D4509F074C0AA
:102A200060E06EC080918902816003C0809189025C
:102A300080618093890268C08091890211C0809171
:102A40008A02826080938A025FC0809189028062DC
:102A5000F0CF809189028064ECCF809189028860F8
:102A60008460E7CF8160EECF809189028E7FE1CFD5
:102A7000809189028D7FDDCF80918902877FD9CFB8
:102A800080918A0218C080918A028D7FDBCF80916D
:102A900089028F7ECECF809189028F7DCACF8091AF
:102AA00089028F7BC6CF80918902877F8B7FC1CFC0
:102AB00080918A028D7F8E7FC5CF8091890282FBB3
:102AC000222720F991E0922790FB82F990FB83F96D
:102AD000B0CF80918A02982F909591708E7F892B2C
:102AE00090FB81F9AFCF0E9415268091890287FB68
:102AF000222720F991E0922790FB87F99ACF61E095
:102B00008EE090E00E94BF286091890210918A02B5
:102B100084E090E00E94BF28612F81E290E00E9453
:102B2000BF280E9415267DCE053FFCE51F0721F436
:102B300026E241EE62EEACCE053F2CE5120720F412
:102B400027E245EE64EEA4CE063F3CE5130709F00C
:102B5000BFCE27E245EE66EE9BCE06318CE5180728
:102B600051F580915A038A7A91E009F490E09093AC
:102B7000CE02882311F065E301C069E28AEE92E09B
:102B80000E94842115C00631ECE51E0759F580919D
:102B9000CE02882309F4EDC285E3EAEEF2E09281E9
:102BA000891301C01282319602E0E03FF007B9F7C5
:102BB0000E94682236CE01158CE5180731F00E3DD3
:102BC0001C45D1F40E94AF212CCE0E941526FFEFA8
:102BD00004E31CE0F15000401040E1F700C00000A9
:102BE0000E94F32080915A038272F801E25CFC4556
:102BF000E431F10508F4BFC2F70100811181992386
:102C000049F0C8010E949522D82E682FC8010E9461
:102C10000E2304C0C8010E94E222D82EB8018D2DD7
:102C20000E9482098C01982EF701A580A2949FE052
:102C3000A922D280D1101092590380915703877036
:102C400099F0DD2089F0812F807F803421F080E2AF
:102C5000800F883048F082E00E94682380915703FB
:102C60008770CC24C3948111C12CB12EB2948FE013
:102C7000B8228B2D90E08C30910508F040C2FC0109
:102C8000E759FF4F0C941B29812F807F1F708823E9
:102C900011F01295107FDD20B9F0112309F41AC24A
:102CA00080E2800F883010F0911006C080915A03A6
:102CB000182B10935A0305C080915903182B1093B9
:102CC00059030E94682206C2802F0E9435261123D4
:102CD00009F415C2005E1095083010F0911006C07E
:102CE00080915A03182310935A0305C08091590309
:102CF0001823109359030E94682201C2812F807FFC
:102D00001F70803211F01295107F992021F0F1E0B0
:102D10009F16E1F02AC0DD2081F080915B03AA209C
:102D200051F001E0A01207C0182B181709F4E7C1F1
:102D300010935B03E4C1812B10C0AA2021F021E095
:102D4000A21609F4DCC10E94622227C0DD2041F0F6
:102D500035E03A1508F4D3C1812F0E942B26CFC14C
:102D600084E08A1508F4CBC118C0DD2049F0AA2000
:102D700099F3F701858180FFADC18F708583ECCF1A
:102D8000AA2059F0093309F0B7C1FFEF17EE23E08D
:102D9000F15010402040E1F7ADC1812F0E94202664
:102DA000AEC1812F86958695837019F0813059F0D8
:102DB000A6C1DD2019F0C801937002C080E090E048
:102DC0000E94BA05A2C1DD2019F0C801937002C0AB
:102DD00080E090E00E94A40598C1802FDD2019F0CA
:102DE0000E948B2002C00E94C41F0E9445218DC1F9
:102DF000812F837009F069C0D11085C1902F929501
:102E000096959770990F990F802F8F70882E912C1F
:102E1000A12CB12C092E04C0880C991CAA1CBB1C27
:102E20000A94D2F704FF12C04FE050E060E070E077
:102E300004C0440F551F661F771F9A95D2F7DB0118
:102E4000CA0180959095A095B09503C080E090E070
:102E5000DC0116951695412F4370423019F1C8F4E4
:102E600000915C0310915D0320915E0330915F033C
:102E7000413059F088299929AA29BB29BC01CD01E3
:102E800060237123822393230AC0802A912AA22AD5
:102E9000B32ABC01CD01682979298A299B290E947E
:102EA000A22331C188299929AA29BB2900915C0351
:102EB00010915D0320915E0330915F03BC01CD0151
:102EC0006027712782279327EACFDD2019F0812F11
:102ED000817001C08695882309F415C1902F9295C1
:102EE00096959770990F990F802F8F70882E912C3F
:102EF000A12CB12C092E04C0880C991CAA1CBB1C47
:102F00000A94D2F704FF12C04FE050E060E070E096
:102F100004C0440F551F661F771F9A95D2F7DB0137
:102F2000CA0180959095A095B09503C080E090E08F
:102F3000DC0116951695412F43704230D9F068F5A3
:102F40000091E6021091E7022091E8023091E90237
:102F5000413059F088299929AA29BB29BC01CD0102
:102F600060237123822393231EC0802A912AA22AE0
:102F7000B32A13C088299929AA29BB290091E602FE
:102F80001091E7022091E8023091E902BC01CD01E5
:102F9000602771278227932706C0BC01CD016829CD
:102FA00079298A299B290E943923ADC01F70DD2011
:102FB00039F0812F0E948123802F0E942B26A3C0ED
:102FC000802F0E942026812F0E9443239CC0802FA7
:102FD00032EF931609F440C0391538F090EF991686
:102FE00061F0E1EF9E1699F170C0F3EF9F16D9F1F1
:102FF00024EF921609F44EC068C0DD2019F134E0C8
:103000003A1508F47CC01F7181E090E0A0E0B0E0C8
:10301000AC01BD0104C0440F551F661F771F1A95F0
:10302000D2F78091E6029091E702A091E802B09178
:10303000E9028A019B01082719272A273B27C90192
:10304000B80125C025E02A1508F459C0DCCFDD20E1
:1030500029F0812F8F712CC0DD20D9F3812F8F7142
:103060000E9443234CC0DD2079F01F7181E090E085
:10307000A0E0B0E0BC01CD0104C0660F771F881F3F
:10308000991F1A95D2F703C060E070E0CB010E944F
:10309000392335C0DD2079F01F71812F0E948123F3
:1030A00038E0139FC0011124836080935703812F60
:1030B0000E94812324C081E00E94682381E08A1558
:1030C000F0F482E00E9468231AC0DD2039F0AA20C3
:1030D00009F4BFCF802F0E94742611C0AA2009F4E2
:1030E000BDCF893349F49FEFE7EEF3E09150E04024
:1030F000F040E1F700C00000802F0E94352688EFE5
:103100008B0D843010F40E94D005CC2009F4A5C0AA
:103110008091570380FDA1C0F701128285958595A6
:1031200085950E948123C7010E94DA12809157037E
:1031300085958595859529960FB6F894DEBF0FBEC7
:10314000CDBFDF91CF911F910F91FF90EF90DF9056
:10315000CF90BF90AF909F908F907F906F905F9037
:103160000C94432301318FE5180709F08ACB82E0E4
:1031700054CB89E212CDEB58FF4F0C941B29809160
:10318000BA0280FF20C08E7F8093BA026091BA029B
:103190007091BB028091BC029091BD020E94CB074E
:1031A0000E94EB0680919B02816080939B021FEF3F
:1031B00020E732E0115020403040E1F700C000002D
:1031C0000E94F2062ECB81608093BA0261E0869560
:1031D00036C048E259E061E379E02CC041E359E0B0
:1031E00068E279E027C044EB58E06DEB78E022C05C
:1031F0004DEB58E064EB78E01DC04CE958E068EA1C
:1032000078E018C048EA58E06CE978E013C044E878
:1032100058E060E978E00EC040E958E064E878E002
:1032200009C046EC58E067ED78E004C047ED58E08F
:1032300066EC78E00E94E506F4CA61E081E00E9455
:10324000E808EFCA65E082E005C068E086E002C0F9
:1032500062E189E00E943B09E4CA29960FB6F8941E
:10326000DEBF0FBECDBFDF91CF911F910F91FF90B9
:10327000EF90DF90CF90BF90AF909F908F907F9016
:103280006F905F9008958091DD0287FF11C080915B
:10329000E80082FD05C08091E5028111F8CF11C0E0
:1032A0008091E8008B770BC08091E502882349F07C
:1032B0008091E80080FFF8CF8091E8008E778093BE
:1032C000E8000895982F973068F59093E9009817D3
:1032D00039F07091EC002091ED005091F00003C0A6
:1032E000242F762F50E021FD02C09F5FECCF30915C
:1032F000EB003E7F3093EB003091ED003D7F30934B
:10330000ED003091EB0031603093EB007093EC00F6
:103310002093ED005093F0002091EE0027FDE5CFC3
:1033200080E008958F708093E90081E008952091F6
:10333000E3023091E4022617370748F06115710562
:1033400039F42091E8002E772093E80001C0B901FC
:10335000FC0120E06115710579F18091E502882377
:10336000F1F18530F1F18091E80083FD3CC080915E
:10337000E80082FD2EC08091E80080FFEBCF209115
:10338000F3008091F20090E0922B6115710551F0ED
:103390008830910538F421912093F1006150710932
:1033A0000196F3CF21E0089709F020E08091E80032
:1033B0008E778093E800CECF2111CFCF0AC08091C5
:1033C000E502882361F0853061F08091E80083FD9B
:1033D0000AC08091E80082FFF2CF80E0089582E089
:1033E000089583E0089581E008950F931F938091DD
:1033F000E6029091E702A091E802B091E9028C0107
:103400009D010670112722273327BC01CD0106300C
:1034100011052105310511F4686001C0677F1F9116
:103420000F910C9439231F93CF93DF93CDB7DEB761
:10343000AA970FB6F894DEBF0FBECDBFEDEDF2E058
:103440008091F100819342E0E53EF407C9F7809155
:10345000DE02833009F462C030F4813071F08230D2
:1034600009F49CC0B3C08A3009F488C08B3009F4D9
:103470006DC0893009F0AAC020C08091DD02813A78
:1034800009F0A4C08091E800877F8093E8008091D4
:10349000E1029091E202892B21F468E082ED92E052
:1034A00003C060E080E090E070E00E949719809196
:1034B000E8008B778093E80089C08091DD0281323B
:1034C00009F084C08091E1029091E202009719F026
:1034D000029709F07BC08091E800877F8093E80025
:1034E0008091E80082FD05C08091E5028111F8CF4E
:1034F0006DC02091F3008091F20090E0922B029732
:1035000029F48091F1008B7F813021F48091F100CA
:103510008093D1028091E8008B7754C08091DD02C6
:10352000813A09F053C08091E1029091E202892B27
:1035300009F04CC08091E800877F8093E80080917B
:10354000E80080FFFCCF80912D0137C08091DD0223
:103550008132E1F58091E1029091E202892BB1F58F
:103560008091E800877F8093E8000E944319809152
:10357000DF0280932D010E94152628C08091DD0274
:10358000813221F58091E800877F8093E8000E94D6
:1035900043198091E0028093D00218C08091DD022F
:1035A000813AA1F48091E800877F8093E8008091C0
:1035B000E80080FFFCCF8091D0028093F1008091E1
:1035C000E8008E778093E8000E9443198091E8001C
:1035D00083FFE9C18091DD029091DE02492F50E026
:1035E0004A30510508F0DFC1FA01E757FF4F0C944C
:1035F0001B29803821F0823809F0D5C108C080919C
:10360000DA029091DB02992389F082600FC08091E9
:10361000E1028F70873008F0C6C18093E900809185
:10362000EB0085FB882780F91092E9009091E80073
:10363000977F9093E8008093F1001092F1007CC195
:10364000282F2D7F09F0AFC1882319F0823061F057
:10365000AAC18091DF02813009F0A5C1933009F041
:1036600080E08093DB022EC08091DF0281112AC0AE
:103670008091E1028F702FEF280F263008F093C160
:103680008093E9002091EB0020FF1CC0933021F4CF
:103690008091EB00806214C09091EB009061909358
:1036A000EB0021E030E0A90102C0440F551F8A95CC
:1036B000E2F74093EA001092EA008091EB00886004
:1036C0008093EB001092E9008091E800877F80935F
:1036D000E8000E94431967C1811165C11091DF02A2
:1036E0001F778091E3008078812B8093E3008091A5
:1036F000E800877F8093E8000E9443198091E800EA
:1037000080FFFCCF8091E30080688093E30011117B
:1037100002C082E001C083E08093E50244C180588A
:10372000823008F040C12091DF023091E0022C3D50
:1037300053E0350779F583E08A838AE289834FB7BE
:10374000F894DE01139620E03EE051E2E32FF0E032
:1037500050935700E49120FF03C0E295EF703F5F64
:10376000EF708E2F90E0EA3010F0C79601C0C0963F
:103770008D939D932F5F243149F74FBF8091E800CF
:10378000877F8093E8006AE270E0CE0101960E9494
:103790009719C0C08091E1029091E202432F552712
:1037A00043305105B1F068F44130510509F40AC1C4
:1037B0004230510509F0F7C08BE590E0E1E0F7E019
:1037C00057C04132510589F14232510509F43CC0DC
:1037D000EAC0C901992781309105B9F070F08230B3
:1037E0009105D9F0039709F0DEC0EEE6F7E0E49129
:1037F0008E2F90E0EEE6F7E038C0E4E9F7E0E491E0
:103800008E2F90E0E4E9F7E030C0E0E8F7E0E491E3
:103810008E2F90E0E0E8F7E028C0E4E7F7E0E491DD
:103820008E2F90E0E4E7F7E020C08330910508F0A8
:10383000BAC0880F991FFC01E559FE4F0190F08135
:10384000E02D89E090E014C08330910508F0ABC012
:10385000FC01EE0FFF1FEB59FE4F0190F081E02DB0
:10386000DC01AE59BE4F8C9190E0009709F49BC0EB
:103870002091E800277F2093E8002091E302309117
:10388000E4022817390708F4C90140E0009789F1DC
:103890002091E502222309F43DC02530D9F1209181
:1038A000E80023FD37C02091E80022FD2FC02091C1
:1038B000E80020FFEBCF4091F3002091F20030E0D0
:1038C000342B009759F02830310540F4449140934F
:1038D000F100319601972F5F3F4FF3CF41E0283041
:1038E000310509F040E02091E8002E772093E800B0
:1038F000CDCF4111CDCF0AC08091E502882351F090
:10390000853041F08091E80083FD04C08091E8009B
:1039100082FFF2CF8091E8008B778093E80043C06C
:10392000803809F040C08091E800877F8093E800EC
:103930008091DC028093F1008091E8008E77C7CE01
:10394000811131C08091DF029091E00299270297A6
:1039500054F58091E800877F8093E8001091DF02A2
:103960001093DC020E944319111106C08091E300FC
:1039700087FD02C081E001C084E08093E50242E05F
:1039800061EC81E00E94621942E261EC84E00E94F5
:10399000621942E261EC82E00E94621942E260EC4C
:1039A00083E00E9462198091E80083FF10C080913B
:1039B000E800877F8093E8008091EB00806280932D
:1039C000EB0005C082E190E0ECE5F7E051CFAA966C
:1039D0000FB6F894DEBF0FBECDBFDF91CF911F9120
:1039E00008951F920F920FB60F9211242F933F93B9
:1039F0004F935F936F937F938F939F93AF93BF93F7
:103A0000CF93DF93EF93FF93C091E900CF70809144
:103A1000EC00D82FD17080FDD0E81092E9008091A1
:103A2000F000877F8093F00078940E94131A109220
:103A3000E9008091F00088608093F000CD2BCF707A
:103A4000C093E900FF91EF91DF91CF91BF91AF91CA
:103A50009F918F917F916F915F914F913F912F91A6
:103A60000F900FBE0F901F901895E8EDF0E0808149
:103A70008E7F80831092E2001092DA001092E100B3
:103A8000A0EEB0E08C9181608C9380818F778083F1
:103A900019BCA7EDB0E08C918E7F8C9380818F7ED6
:103AA00080831092CF020895CF92DF92EF92FF921F
:103AB0000F931F93CF93DF93C8EDD0E088818F7E63
:103AC0008883E7EDF0E080818160808384E082BFBD
:103AD00081E08093CF0288818E7F888302EE10E0A0
:103AE000F80110821092DA0081EEC82ED12CF60176
:103AF000108288818F778883888180688883888115
:103B00008F7D888319BC1092E5021092DC0210921E
:103B1000DB021092DA0290EEE92EF12CF70180819F
:103B20008B7F808388818160888342E060E080E0D1
:103B30000E946219F60180818E7F8083F801808166
:103B400081608083808188608083F70180818E7F9F
:103B50008083888180618883DF91CF911F910F914D
:103B6000FF90EF90DF90CF9008951F920F920FB6C5
:103B70000F9211242F933F934F935F936F937F93F3
:103B80008F939F93AF93BF93EF93FF938091E10047
:103B900082FF09C08091E20082FF05C08091E100B0
:103BA0008B7F8093E1008091DA0080FF2AC08091B2
:103BB000D80080FF26C08091DA008E7F8093DA00E3
:103BC0008091D90080FF18C080E189BD82E189BD64
:103BD00009B400FEFDCF81E08093E5028091CF0221
:103BE00081110FC00E94351D0E94541D8091E2007A
:103BF00084608093E20005C019BC1092E502109227
:103C0000CF028091E10080FF17C08091E20080FF29
:103C100013C08091E2008E7F8093E2008091E200E9
:103C200080618093E2008091D80080628093D80008
:103C300019BC85E08093E5028091E10084FF32C0E9
:103C40008091E20084FF2EC080E189BD82E189BDC0
:103C500009B400FEFDCF8091D8008F7D8093D800FD
:103C60008091E1008F7E8093E1008091E2008F7E61
:103C70008093E2008091E20081608093E200809175
:103C8000DC02882311F084E007C08091E30087FD07
:103C900002C081E001C083E08093E5020E94152606
:103CA0000E94D0058091E10083FF27C08091E2004F
:103CB00083FF23C08091E100877F8093E10082E051
:103CC0008093E5021092DC028091E1008E7F809368
:103CD000E1008091E2008E7F8093E2008091E2001B
:103CE00080618093E20042E060E080E00E9462191F
:103CF0008091F00088608093F000FF91EF91BF9178
:103D0000AF919F918F917F916F915F914F913F9173
:103D10002F910F900FBE0F901F9018952091E400E7
:103D20003091E50095E64091EC00842F817040FFD2
:103D300023C08091E80080FD1DC08091E5028823AA
:103D400099F0853099F08091EB0085FD11C040918C
:103D5000E4005091E5002417350729F3915011F044
:103D60009A01E1CF84E0089582E0089583E0089508
:103D700081E0089580E008954091E80042FFDDCFA2
:103D80000895EF92FF920F931F93CF93DF937C01DF
:103D90008B010E948E1E811119C0E70101151105CA
:103DA000A1F08091E80085FD0AC08091E8008E773F
:103DB0008093E8000E948E1E882381F307C08991BA
:103DC0008093F10001501109E9CF80E0DF91CF919C
:103DD0001F910F91FF90EF900895CF932091E502EE
:103DE0002430F9F4C091E900CF703091EC00232F1A
:103DF000217030FD20E8C22B22E02093E9002091C1
:103E0000E80020FF0BC040E050E060E270E00E945C
:103E1000C11E8091E8008E778093E800CF70C09338
:103E2000E900CF9108958091E502843011F081E09E
:103E3000089582E008958091D1020895CF93DF9391
:103E400000D01F92CDB7DEB79091E502943011F506
:103E500089837B836A839093E9008FEF9091E800D8
:103E6000815095FD06C095ED9A95F1F700008111FE
:103E7000F5CF8091E80085FF0DC040E050E063E0A1
:103E800070E0CE0101960E94C11E8091E8008E77FD
:103E90008093E8000F900F900F90DF91CF910895DD
:103EA000CF93DF93EC010E94131F823011F0843016
:103EB00031F4BE0184E0DF91CF910C941E1FDF919D
:103EC000CF910895BC0183E00C941E1FCF93DF9324
:103ED000EC010E94131F823011F08430F9F484E069
:103EE0008093E9008FEF9091E800815095FD06C026
:103EF00095ED9A95F1F700008111F5CF8091E800DA
:103F000085FF0CC040E050E066E070E0CE010E940A
:103F1000C11E8091E8008E778093E800DF91CF91F9
:103F20000895CF93DF93EC010E94131F823011F0AC
:103F3000843039F581E08093E9008FEF9091E800BB
:103F4000815095FD06C095ED9A95F1F7000081111D
:103F5000F5CF8091E80085FF14C040E050E068E0B4
:103F600070E0CE010E94C11E8091E8008E778093A0
:103F7000E80088E0FE01A2EDB2E001900D928A9582
:103F8000E1F7DF91CF910895803F39F48091AB0242
:103F900087FF6CC01092AB0269C0813F29F4809109
:103FA000AB021816BCF362C09091AA02823F29F4BA
:103FB00097FF5CC01092AA0259C0833F19F41916EA
:103FC000CCF354C0893F41F48091AC0218160CF038
:103FD0004DC01092AC024AC08A3F29F48091AC02D5
:103FE00087FF44C0F6CF8B3F39F48091AD0287FF45
:103FF0003DC01092AD023AC08C3F29F48091AD02D1
:104000001816BCF333C0843F21F48091A9028E7F3F
:1040100017C0853F21F48091A9028D7F11C0863F92
:1040200021F48091A9028B7F0BC0873F21F48091FE
:10403000A902877F05C0883F31F48091A9028F7E55
:104040008093A90213C08D3F21F4809160038E7F7D
:104050000BC08E3F21F4809160038D7F05C08F3FA0
:1040600029F4809160038B7F809360038091AA0282
:1040700081110EC08091AB0281110AC08091AC0207
:10408000811106C08091AD02811102C01092A5027B
:1040900008958091600380FD16C081FD16C082FDE9
:1040A00018C08091A502882391F0883290F428E00E
:1040B000829FC001112468E270E00E940729862FC8
:1040C000672B29F007C082E0089584E0089581E01D
:1040D000089588E008958091600380FD14C081FDFB
:1040E00014C082FD16C08091A502882381F084311E
:1040F00080F422E3829FC001112464E170E00E94F9
:104100000729862F08958CE0089589E1089585E0B8
:10411000089582E30895803F21F40E946B208195E9
:1041200004C0813F29F40E946B208093AB02089564
:10413000823F21F40E946B20819504C0833F29F4C3
:104140000E946B208093AA020895893F19F40E946F
:10415000492005C08A3F31F40E944920819580930F
:10416000AC0208958B3F21F40E944920819504C040
:104170008C3F29F40E9449208093AD020895843F2A
:1041800021F48091A902816017C0853F21F48091BC
:10419000A902826011C0863F21F48091A902846047
:1041A0000BC0873F21F48091A902886005C0883F39
:1041B00031F48091A90280618093A90208958D3F16
:1041C00021F48091600381600BC08E3F21F48091C7
:1041D0006003826005C08F3F29F480916003846092
:1041E00080936003089587E797E790930108809391
:1041F00000089AE088E10FB6F894A89580936000D3
:104200000FBE90936000FFCF78941F920F920FB66D
:104210000F9211248F939F93AF93BF938091C90204
:104220009091CA02A091CB02B091CC020196A11D3F
:10423000B11D8093C9029093CA02A093CB02B093A0
:10424000CC02BF91AF919F918F910F900FBE0F90B5
:104250001F9018959C014FB7F8948091C9029091D6
:10426000CA02A091CB02B091CC024FBF821B930B2C
:1042700008952FB7F8948091C9029091CA02A09135
:10428000CB02B091CC022FBF0895E0918D02F09146
:104290008E02309749F082E08093A8020480F58175
:1042A000E02D88EA92E009950E9439219093A402BA
:1042B0008093A30208951F920F920FB60F921124BC
:1042C0008F939F93AF93BF9380918F02811113C0FF
:1042D0008091C9029091CA02A091CB02B091CC0208
:1042E0004196A11DB11D8093C9029093CA02A0936B
:1042F000CB02B093CC02BF91AF919F918F910F9061
:104300000FBE0F901F9018959C01FC0132969FEFF5
:1043100080E04191461789F09F3F19F4411101C097
:10432000982F8F5F8630A9F79F3F39F0F901E90F89
:10433000F11D97FDFA95628308950895CF9384E067
:1043400090E00E94AB28C82F81E290E00E94AB2849
:104350002C2F30E0A901582BCA01CF9108956CEEA3
:104360007EEF80E090E00E94DD2860E082E090E057
:104370000E94BF2860E083E090E00E94BF28109276
:104380005C0310925D0310925E0310925F0360E085
:1043900084E090E00E94BF2860E081E290E00E940B
:1043A000BF2860E085E090E00E94BF2860E086E0E2
:1043B00090E00E94BF286FEF87E090E00E94BF2846
:1043C00040E050E0BA0188E090E00E94D12860E02F
:1043D0008DE090E00E94BF2840E050E0BA0188E103
:1043E00090E00E94D12860E087E190E00E94BF2821
:1043F00040E050E0BA018CE190E00E94D12860E0FA
:1044000080E290E00E94BF2840E050E0BA018FE0D7
:1044100090E00E94D12840E050E0BA0183E190E0B2
:104420000C94D128CF92DF92EF92FF926C01EE2490
:10443000FF24C114D104E104F10421F0C701B60145
:1044400020E101C020E0C72ED82EE92EFF24C114A0
:10445000D104E104F10419F0285FC701B6016B0132
:104460007C0154E0F694E794D794C7945A95D1F719
:10447000C114D104E104F10419F02C5FC701B601A5
:104480006B017C0142E0F694E794D794C7944A9577
:10449000D1F7C114D104E104F10419F02E5FC70172
:1044A000B601DC01CB01B695A79597958795892B29
:1044B0008A2B8B2B09F02F5F822FFF90EF90DF90DC
:1044C000CF90089580915B03811110925B03089552
:1044D00090915A0380915903892B20915803982F6A
:1044E000922B9093EA0280915B03882389F0892BB9
:1044F0008093EA02ECEEF2E097E080E0915029F040
:1045000021912223D9F38F5FF9CF81110E9462227A
:10451000E0918D02F0918E02309731F00280F381AC
:10452000E02D8AEE92E009940895BF92CF92DF9237
:10453000EF92FF920F931F93CF93DF938C01C09064
:10454000E602D090E702E090E802F090E902809164
:104550005C0390915D03A0915E03B0915F03C82A54
:10456000D92AEA2AFB2ACFE1D0E0D701C6010C2ED6
:1045700004C0B695A795979587950A94D2F780FDC4
:1045800004C0219790F7B12C07C0BC2EB8018C2F26
:104590000E9482090197A9F38B2DDF91CF911F9182
:1045A0000F91FF90EF90DF90CF90BF900895CF9341
:1045B000DF93EC010E949522BE010E948209DF91E7
:1045C000CF91089527E0929F800D1124682F669562
:1045D00066956695982F977085E0689FB0011124C5
:1045E00040E050E080E0FB01E40FF51FE65DFC4F8A
:1045F000208130E0092E02C0369527950A94E2F713
:1046000021703327042E01C0220F0A94EAF7822B6F
:104610004F5F5F4F4530510531F7089527E0929F76
:10462000800D1124E82FE695E695E695877051E018
:1046300001C0550F8A95EAF785E0E89FF001112443
:10464000E65DFC4F20E030E070E04081CB01022EBF
:1046500002C0969587950A94E2F781708195842728
:104660008523842781932F5F3F4F2530310569F7DC
:1046700008956093E6027093E7028093E8029093B6
:10468000E9020C94FA250F931F9341E050E060E09B
:1046900070E004C0440F551F661F771F8A95D2F73C
:1046A00040955095609570958091E6029091E70253
:1046B000A091E802B091E9028A019B010823192325
:1046C0002A233B23C901B8011F910F910C94392370
:1046D000209157038095822380935703982F9770DA
:1046E00079F430E0482F082E000C550B24173507BD
:1046F00039F08595859585950E944323109257033F
:1047000008950F931F9341E050E060E070E004C013
:10471000440F551F661F771F8A95D2F78091E602D6
:104720009091E702A091E802B091E9028A019B0111
:10473000082B192B2A2B3B2BC901B8011F910F9174
:104740000C94392360935C0370935D0380935E0344
:1047500090935F030C94FA25809129039091F802BD
:10476000891719F08F5F8770FBCF08950F931F9300
:10477000CF93DF938091F70282958F7009F05DC02F
:104780008091F402882309F458C080912903109184
:10479000F8026091F2027091F302C091F502D0919B
:1047A000F60291E06F3F09F090E0292F06E08117B3
:1047B00009F443C0209721F07F3F21F030E003C08F
:1047C00031E001C0322F90E030FD34C0089FF0018D
:1047D000099FF00D1124DF01A750BD4F11963C91A8
:1047E0001197371327C03C91361324C012963C9181
:1047F000129731111FC013964D915C9114974C1B69
:104800005D0B483C5105B0F48091F7028F708061D8
:104810008093F702E250FD4F80818F70806180832A
:1048200082EF92E00E94DA12DF91CF911F910F91F7
:104830000C94AC2301968770BACFDF91CF911F9172
:104840000F9108950E94D722292F2F70E92FE2950A
:10485000EF704E2F50E0FA013297EE30F105B8F4C8
:10486000ED56FF4F0C941B29803F99F018F4883EB9
:1048700070F40FC0843F59F40CC0883E50F0813F63
:1048800031F407C0822F869586958695089580E03D
:10489000089581E008959F92AF92BF92CF92DF92E8
:1048A000EF92FF920F931F93CF93DF93CDB7DEB7B5
:1048B00061970FB6F894DEBF0FBECDBF8C0185E0C7
:1048C000F801DE011D9601900D928A95E1F7F8013D
:1048D00090818181E2803091F2026091F3024091F7
:1048E000F5025091F6024115510531F06F3F31F458
:1048F00021E03F3F19F403C021E001C020E0F22F86
:10490000F1709F2E20FD23C1F801C380D48022EFD7
:10491000A22E22E0B22EF090F402F601E41BF50B79
:10492000FF2009F4CEC02091F702E83CF10508F021
:1049300099C0422F407F09F051C0681311C039134C
:104940000FC0FE2CE1100CC02F7020612093F702E5
:10495000C5010E94DA128091F702F801858337C100
:10496000CD2831F08F3F31F421E09F3F19F403C08F
:1049700021E001C020E020FD03C021E02E2502C07F
:1049800020E030E0F22FF170FF2E20FF1DC02091BB
:1049900029034091F80256E0241709F4F6C030E0EC
:1049A000529FF001539FF00D1124E750FD4F61819C
:1049B000861306C06081961303C06281E61204C0AC
:1049C0002F5F3F4F2770E8CFFE2CEE2009F4FFC089
:1049D0008091F70281608093F70250C0681307C08E
:1049E000391305C0E11003C0F80125838DC09D87F0
:1049F0008E878D859E850E942224882369F1EE2072
:104A000059F12091F702822F82958F7090E00297E2
:104A100074F08091F2029091F30298878F83198647
:104A2000DB86CA862C87CE0107960E94DA1286E0C2
:104A3000F801A2EFB2E001900D928A95E1F70E9491
:104A4000B6230DC06817E1F09D878E878D859E8502
:104A50000E94222481111EC0C8010E94DA12FF2484
:104A6000F394B5C0422F407F69F782EF92E00E9435
:104A7000DA1286E0F50111928A95E9F7F12CA7C0C8
:104A80003913E2CFE110E0CFF8012583C8010E947D
:104A9000DA1257C0EE2001F32091F702822F82959F
:104AA0008F7090E002971CF28091F2029091F302D5
:104AB0009A8389831B82DD82CC822E83CE0101966C
:104AC000B4CFE83CF105E8F5FE2CEE2029F268139E
:104AD00027C0391325C02091F70220FD18C0822F6E
:104AE00082958F70482F50E04115510581F0F801F3
:104AF00025834F30510541F08F5F982F9295907F1D
:104B0000822F8F70892B8583C8010E94DA1286E07C
:104B1000F801A2EFB2E001900D928A95E1F757C03B
:104B20009D878E878D859E850E94222481117FCF4F
:104B30008091F70281608093F702C8010E94DA1227
:104B400046C086E0F50111928A95E9F740C0EE2053
:104B500009F482CF9D878E878D859E850E942224B1
:104B6000F82E882309F478CF86E0F801A2EFB2E0AE
:104B700001900D928A95E1F78091F2029091F302F3
:104B80000E94D7220E94B62322C09D878E878D85E2
:104B90009E850E94D722292F22952F70223028F43B
:104BA0009F7039F0811105C00BC0243028F49F702C
:104BB00049F4805E883020F0C8010E94DA129F2CF0
:104BC000F92C05C0F8019581907F99F7F9CF8F2DC9
:104BD00061960FB6F894DEBF0FBECDBFDF91CF91C7
:104BE0001F910F91FF90EF90DF90CF90BF90AF900B
:104BF0009F90089510925903109258030E946822C2
:104C0000E8EAF2E086E0DF011D928A95E9F710926A
:104C1000A502109260030E94452180E090E00E946E
:104C2000BA0580E090E00C94A40510925A0386E047
:104C3000ECEEF2E0DF011D928A95E9F70C94FA257B
:104C4000882341F0809590915A03892380935A03D9
:104C50000C9468220895882339F090915A03892B87
:104C600080935A030C94682208958823E1F19CEF05
:104C7000980F913A60F4EAEEF2E09281891301C054
:104C80001282319642E0E03FF407B9F714C090E297
:104C9000980F983090F4877021E030E0A90102C0AD
:104CA000440F551F8A95E2F7CA01809590915A03E7
:104CB000892380935A030C9468229BE5980F9330C4
:104CC00020F480E090E00C94BA0598E5980F9731B5
:104CD00020F480E090E00C94A405803F20F00E9436
:104CE000C41F0C9445210895CF93882309F459C01B
:104CF000C82F8CEF8C0F813AF8F4ECEEF2E082EFE3
:104D000092E02191C21721F08E179F07D1F70EC0B4
:104D1000EAEEF2E080EF92E02281C21301C012823B
:104D200031968E179F07C1F70E9468226C2F8AEE7A
:104D300092E00E94842110C080E28C0F883078F4C9
:104D4000C77081E090E001C0880FCA95EAF79091A2
:104D50005A03892B80935A03CF910C946822EBE578
:104D6000EC0FE33040F4F0E0EF58FE4F808190E02C
:104D7000CF910C94BA05E8E5EC0FE73150F4F0E080
:104D8000EE0FFF1FEC58FE4F80819181CF910C9464
:104D9000A405C03F30F08C2F0E948B20CF910C9443
:104DA0004521CF910895CF93C82F0E947426C9330F
:104DB00049F42FEF87EE93E0215080409040E1F7D7
:104DC00000C000008C2FCF910C9435268EE14A9BB9
:104DD00002C08150E1F74A9BFECF08955A9880E2C5
:104DE0008A95F1F75A9A0895FC012AE02A95F1F77D
:104DF00090E020E080E031E0261779F040E14A952C
:104E0000F1F7880F4A9B02C08160932700C0000021
:104E100040E14A95F1F72F5FEFCF20E12A95F1F7B6
:104E200029B100C0000030E13A95F1F722FB2227BA
:104E300020F992272081920F90830895EF92FF929C
:104E40000F931F93CF93DF931F92CDB7DEB71982D5
:104E50008C017C01E60EF11C0E151F0559F00E9415
:104E6000E62668E0CE0101960E94F426F8018193BF
:104E70008F01F2CF81E09981911180E00F90DF9155
:104E8000CF911F910F91FF90EF900895909363033E
:104E90008093620360936103529A5A9A08959093A3
:104EA0006303809362036093610352985A9AEA9A6B
:104EB000E9E6F0E080818F7C80830895615091E085
:104EC00001C0990F6A95EAF720E031E0992361F07B
:104ED000492F482319F05A9A232701C05A9840E2D3
:104EE0004A95F1F79695F2CF222311F05A9A01C014
:104EF0005A9880E28A95F1F75A980895FF920F9395
:104F00001F93CF93DF93EC018C01060F111DC01787
:104F1000D10741F0F9900E94EE2668E08F2D0E94A3
:104F20005E27F5CFDF91CF911F910F91FF900895EC
:104F30001F920F920FB60F9211240F931F932F936E
:104F40003F934F935F936F937F938F939F93AF9311
:104F5000BF93EF93FF93CF93DF931F92CDB7DEB74D
:104F600019820E94E62667E0CE0101960E94F4268F
:104F7000382F369536953695932F96959570232F25
:104F80002570920F292F2370969596958770920F12
:104F9000891348C08981811145C0809161038317BD
:104FA00008F440C080E18A95F1F75A9A529AA2E03B
:104FB000AA95F1F700C00091620310916303B8E075
:104FC0003B9F000D111D11245A98F801658166233D
:104FD00021F0868197810E947E270E94EE26F0E1D3
:104FE000FA95F1F75A9852985A9A80E18A95F1F712
:104FF000D80112966C911297662369F013968D91E1
:105000009C9114970E941E27D801ED91FC9181116B
:1050100005C082E004C0D801ED91FC9188E0808356
:105020000E94E6260F90DF91CF91FF91EF91BF9103
:10503000AF919F918F917F916F915F914F913F9130
:105040002F911F910F910F900FBE0F901F901895E9
:105050000F931F93CF93DF932091610330E02817C4
:1050600039070CF471C09C0193E0220F331F9A950D
:10507000E1F7C0916203D0916303C20FD31FF8948C
:10508000529A5A9845E04A95F1F70000982F969564
:1050900095708570890F982F937086958695890FE6
:1050A0008901082B0E94EE2684E08A95F1F700C062
:1050B00067E0802F0E945E2740E14A95F1F7529801
:1050C0005A9A4A9902C000C0FCCF87E090E04A9B00
:1050D0000EC0019751F4529A5A9AE881F98181E001
:1050E0008083789481E090E031C000C0F0CF6D8182
:1050F000662381F08E819F810E941E2781110AC044
:10510000529A5A9AE881F98182E08083789482E009
:1051100090E01CC00E94E62680E28A95F1F75A983A
:10512000529A40E14A95F1F76A81662321F08B811A
:105130009C810E947E270E94EE26E881F9811082E0
:10514000789480E090E002C084E090E0DF91CF911D
:105150001F910F910895F999FECF92BD81BDF89AE4
:10516000992780B50895A6E1B0E044E050E00C94A2
:10517000E528A8E1B0E042E050E00C94E528262FB5
:10518000F999FECF92BD81BDF89A019700B402163D
:1051900039F01FBA20BD0FB6F894FA9AF99A0FBEEB
:1051A00008950396272F0E94C0280E94BF28252F0C
:1051B0000E94C028242F0C94C0280196272F0E94FB
:1051C000C0280C94BF28DC01CB01FC01F999FECF6B
:1051D00006C0F2BDE1BDF89A319600B40D9241507F
:1051E0005040B8F70895AA1BBB1B51E107C0AA1F86
:1051F000BB1FA617B70710F0A61BB70B881F991F78
:105200005A95A9F780959095BC01CD01089597FB1B
:10521000072E16F4009407D077FD09D00E94F328DA
:1052200007FC05D03EF4909581959F4F08957095A9
:1052300061957F4F0895EE0FFF1F0590F491E02DCB
:10524000099469279627692778278727782708955B
:10525000FC014150504030F001900616D1F73197D3
:0E526000CF010895882799270895F894FFCF6D
:10526E0001090A0B0C0D0E0F1011120040004040E8
:10527E007C02007C020676027502086D02000000B8
:10528E000136661B1F911F661F621F501F01000112
:10529E000202020206060609090909090909090995
:1052AE0009C634333235000000000094F4F5F6F7E9
:1052BE00319700FF0100010000FFFF000001000117
:1052CE00FF00402281C1069F061E0613072C074CC5
:1052DE0007818283E200E900EA00B500B600B7005C
:1052EE00CD008301CC008A01920194012102230298
:1052FE0024022502260227022A02B300B4006F0000
:02530E0070002D
:00000001FF
