:100000000C94CC030C9413040C9413040C94372814
:100010000C9413040C9413040C9413040C94130404
:100020000C9413040C9413040C94051E0C94411DA1
:100030000C9496210C9413040C9413040C94130444
:100040000C9413040C9413040C9413040C941304D4
:100050000C9413040C942B210C9413040C9413048F
:100060000C9413040C9413040C9413040C941304B4
:100070000C9413040C9413040C9413040C941304A4
:100080000C9413040C9413040C9413040C94130494
:100090000C9413040C9413040C9413040C94130484
:1000A0000C9413040C9413040C9413042F123212A6
:1000B00053126012671287128A12BE12E0127A136C
:1000C0008413EB12EE12F1121413341337133A1394
:1000D0005C134617461780178017D317EF1781193F
:1000E0008119FA17D818E918E918C119EB19F0198C
:1000F000F519FA19FF19041A091A0E1A131A181AFF
:100100001F1A241A271A04150415041504152A1A8F
:100110000415491B701B231D701B231DBC1BDF1BFB
:10012000231DE01CF01C1F241F2432243224282409
:100130003224322432241F241F242D24322432243A
:100140002D2400010101010101010101020202024D
:100150000202020202030303030303030304040471
:10016000040404040505050505060606060607073A
:1001700007070708080808090909090A0A0A0B0BF2
:100180000B0C0C0C0D0D0D0E0E0E0F0F0F10101191
:100190001111121213131414151516161717181817
:1001A00019191A1A1B1B1C1D1D1E1E1F202021227F
:1001B00022232424252626272829292A2B2C2D2DC5
:1001C0002E2F30313232333435363738393A3B3CE2
:1001D0003D3E3F404142434445464748494A4C4DD5
:1001E0004E4F50515354555658595A5B5D5E5F619E
:1001F0006264656668696B6C6D6F70727375777831
:100200007A7B7D7E8082838587888A8C8E8F91938E
:100210009596989A9C9EA0A2A3A5A7A9ABADAFB1B5
:10022000B3B5B7BABCBEC0C2C4C6C9CBCDCFD1D49A
:10023000D6D8DBDDDFE2E4E7E9EBEEF0F3F5F8FA40
:10024000FDFFFFAA7F55402223252628292A2C2D91
:100250002F3032333536383A3B3D3E4042434547F6
:10026000494A4C4E5051535557595A5C5E6062642E
:100270006668696B6D6F71737577797B7D7F81833C
:100280008587898A8C8E90929496989A9C9E9FA13D
:10029000A3A5A7A8AAACAEAFB1B3B4B6B8B9BBBC5E
:1002A000BEBFC1C2C3C5C6C7C9CACBCCCDCED0D1D3
:1002B000D2D2D3D4D5D6D7D7D8D9D9DADADBDBDBCB
:1002C000DCDCDCDCDCDDDDDDDDDCDCDCDCDCDBDB6C
:1002D000DBDADAD9D9D8D7D7D6D5D4D3D2D2D1D0C0
:1002E000CECDCCCBCAC9C7C6C5C3C2C1BFBEBCBBBD
:1002F000B9B8B6B4B3B1AFAEACAAA8A7A5A3A19F35
:100300009E9C9A98969492908E8C8A8987858381F8
:100310007F7D7B79777573716F6D6B6968666462D9
:10032000605E5C5A5957555351504E4C4A494745A7
:100330004342403E3D3B3A3836353332302F2D2C48
:100340002A29282625232229001E001F00200021FB
:1003500000220023002B0014001A000800150017CB
:10036000000000E00004001600070009000A000079
:1003700000E1001D001B000600190005000000E060
:10038000000151E2002C002C001250000024002536
:1003900000260027002D002E0031001C0018000C44
:1003A00000120013002F0030000B000D000E000F94
:1003B00000330034002800110010003600370038E8
:1003C00000E500015112502C002C00E600E700353A
:1003D000002A0001003A003B003C003D003E003F87
:1003E0000039000100C25CC55CC75CC95C0000014B
:1003F000000100C35CC65CC85CCA5C00000100016F
:1004000000010001000100010000000100010001E5
:1004100000010001000100000040004100420043D3
:100420000044004500490001000100460047004823
:100430000052000100010001004A004B0050004F33
:10044000000100010001004D004E005100010001BB
:1004500000010001000100010001004C0001002921
:10046000001E001F0020002100220023002B00148A
:10047000001A000800150017000000E00004001634
:1004800000070009000A000000E1001D001B000633
:1004900000190005000000E0000151E2002C002CD2
:1004A000001350000024002500260027002D002EF8
:1004B0000031001C0018000C00120013002F003047
:1004C000000B000D000E000F003300340028001157
:1004D000001000360037003800E500015113502CA1
:1004E000002C00E600E70035002A0029001E001F4E
:1004F0000020002100220023002B0014001A000815
:1005000000150017000000E00004001600070009B5
:10051000000A000000E1001D001B00060019000594
:10052000000000E0000151E2002C002C00105000FF
:100530000024002500260027002D002E0031001C7D
:100540000018000C00120013002F0030000B000DEB
:10055000000E000F00330034002800110010003698
:100560000037003800E500015110502C002C00E647
:1005700000E70035002A00783C1E1E140A05000022
:10058000000000000000000000000000000000006B
:1005900000007E0F00D4FFFFFFC7000000780000BE
:1005A0000000000000002A2B2800000000000000CE
:1005B00000000000000000000029000000002C1EC8
:1005C0003420212224342627252E362D3738271E85
:1005D0001F202122232425263333362E37381F04AB
:1005E00005060708090A0B0C0D0E0F101112131443
:1005F00015161718191A1B1C1D2F3130232D350401
:1006000005060708090A0B0C0D0E0F101112131422
:1006100015161718191A1B1C1D2F3130354C0501E2
:100620000902A10185020901A10005091901290595
:10063000150025019505750181029501750381015C
:100640000501093009311581257F9502750881065C
:1006500009381581257F950175088106050C0A3832
:10066000021581257F950175088106C0C005010925
:1006700080A101850319012AB700150126B700954D
:100680000175108100C0050C0901A1018504190143
:100690002AA002150126A002950175108100C0064E
:1006A00060FF0961A1010962150026FF0095207510
:1006B0000881020963150026FF0095207508910244
:1006C000C005010906A101050719E029E715002564
:1006D00001950875018102950175088101050719C9
:1006E0000029FF150026FF00950675088100050802
:1006F000190129059505750191029501750391016F
:10070000C009025B00030100A0FA09040000010314
:1007100001010009211101000122400007058103A8
:1007200008000A0904010002030000000921110168
:1007300000012222000705820320000107050303B0
:100740002000010904020001030000000921110139
:1007500000012281000705840320000A1201100114
:100760000000000838393436020001020301040396
:10077000300000000A03520065003600340000001B
:1007800012036B0075007300680069006D00610062
:10079000380000000403090411241FBECFEFDAE083
:1007A000DEBFCDBF04B603FE27C08091A7039091A2
:1007B000A803A091A903B091AA038730904BA7404A
:1007C000B04BD1F41092A7031092A8031092A90382
:1007D0001092AA0314BE84B7877F84BF0FB6F89423
:1007E000A8958091600088618093600010926000FD
:1007F0000FBEE0E0F8E3099523E0A6EBB1E001C00D
:100800001D92A73AB207E1F711E0A0E0B1E0ECEAEF
:10081000F3E502C005900D92A63BB107D9F70E94FF
:10082000B00D0C94D4290C9400000895AF92BF929F
:10083000CF92DF92EF92FF920F931F93CF93DF93AC
:10084000E82EF62EE901E42FF0E0611106C0EE5B20
:10085000FE4FE4914E2F2E2F71C0062F10E0EE5B5D
:10086000FE4F4491F42FC42ED12C26E0829FC0016C
:1008700011242FEF30E0B9010E9492295BEA560360
:10088000C001579F900D11248E0D911D8E0D911D4D
:10089000582F550F580FD901A01BB10BAC9DC001AB
:1008A000AD9D900DBC9D900D1124E92FF59ED001BA
:1008B0001124AB2FBB277901EA1AFB0AEC9CD0016B
:1008C000ED9CB00DFC9CB00D11245901A51AB10886
:1008D000A09E7001A19EF00CB09EF00C1124EF2C94
:1008E000FF242E193F092C9D80012D9D100D3C9D4C
:1008F000100D1124212F6230710591F048F461151B
:100900007105E1F061307105B9F4242F4B2F16C049
:100910006430710569F040F06630710579F00CC003
:10092000242F492FE12F0AC0492FEF2F2B2F06C06C
:10093000292FE42F412F02C0292FEB2F4983288331
:10094000EA83DF91CF911F910F91FF90EF90DF909D
:10095000CF90BF90AF9008959091CD0292FF0DC0BF
:10096000282F2871283019F4877F846006C0282F2B
:100970002471243011F48B7F886093FF0DC0282FE1
:100980002871283119F4877E846106C0282F2471CC
:10099000243111F48B7E88612091CE0220FF0DC09E
:1009A000382F3871383019F4877F816006C0382FAE
:1009B0003171313011F48E7F886021FF0DC0282FF6
:1009C0002871283119F4877E816106C0282F217192
:1009D000213111F48E7E886194FD877E08956091A7
:1009E000FD02669570E04BE050E084E191E00E94EA
:1009F000C729892B19F481E08093DE020E946021CF
:100A00009093D8028093D7028091DF028460809314
:100A1000DF0208951F93CF93DF93CDB7DEB76797BB
:100A20000FB6F894DEBF0FBECDBF4B8B5C8B6D8BCA
:100A30007E8B8F8B86E09E01235F3F4FD901E82F8D
:100A40001D92EA95E9F795E0FE017396D9010190B0
:100A50000D929A95E1F7F901DE01179601900D923A
:100A60008A95E1F7CE0107960E94362481113EC097
:100A700086E0FE013796DE01119601900D928A956F
:100A8000E1F7FF81E8856A857B856115710531F0A5
:100A9000EF3F31F481E0FF3F19F403C081E001C072
:100AA00080E080FD23C020913B0330E0C901019626
:100AB0008770992740916C0350E08417950779F16E
:100AC000F983EA837D836C8396E0929FD001939FA4
:100AD000B00D1124A45CBC4FFE01319601900D9223
:100AE0009A95E1F780933B030E94972316E080914B
:100AF0006C0390913B038917F9F0189FC0011124F2
:100B0000845C9C4F0E9436248823B1F080916C0352
:100B100090E001968770992780936C03E8CF0E943C
:100B2000022610923B0310926C03E5E3F3E086E0AB
:100B3000DF011D928A95E9F767960FB6F894DEBF3C
:100B40000FBECDBFDF91CF911F9108952091AF02CD
:100B50003091B0022817390771F09093B00280935A
:100B6000AF02E091D102F091D202309721F00084DF
:100B7000F185E02D099408952091AD023091AE02E7
:100B80002817390771F09093AE028093AD02E0917F
:100B9000D102F091D202309721F00680F781E02D4A
:100BA00009940895E091D102F091D202309721F09A
:100BB0000190F081E02D099480E008950F931F9338
:100BC000CF93DF93C42FD22FFC0182818823C9F0F9
:100BD000409310030E9460219093AC028093AB027B
:100BE00080E28C0F883008F057C0C77081E001C0E8
:100BF000880FCA95EAF7DF91CF911F910F910C945E
:100C0000182680911003481330C08091AB02909158
:100C1000AC020E945121883C910538F510E21D0F6D
:100C2000CD17B9F080E28C0F883040F4C77081E0B6
:100C300001C0880FCA95EAF70E940D26183028F5E2
:100C400081E09D2F977001C0880F9A95EAF70E9466
:100C50001826802F0E94C0261830F0F4D77081E04B
:100C600001C0880FDA95EAF70AC080E28C0F88305D
:100C700098F4C77081E001C0880FCA95EAF7DF9148
:100C8000CF911F910F910C940D26802FDF91CF9162
:100C90001F910F910C94C026DF91CF911F910F915E
:100CA0000895CF93DF93C6E5D2E060E0CE010E94C5
:100CB0005E292196C11584E0D807B9F7DF91CF915D
:100CC0000895CF92DF92EF92FF920F931F93CF93ED
:100CD000DF93C0E0D0E08E0104571F4F6E018EE01D
:100CE000C80ED11CFE01E95BFC4FE590F4906F2D1E
:100CF000CE0186960E945E296E2DCE0187960E94B7
:100D00005E292296CC15DD0569F70C171D0731F712
:100D1000E80100331240F9F6DF91CF911F910F9156
:100D2000FF90EF90DF90CF9008950F931F93CF9394
:100D3000DF93C42FD0E0CC0FDD1F2EE0629FC00DEB
:100D4000D11D11243CE8839FC00DD11D1124CE017B
:100D500086960E944A29082F10E0102F0027CE0106
:100D600087960E944A299801282BC901DF91CF91CB
:100D70001F910F910895462F843038F47A3028F46B
:100D8000673018F4672F0C94950680E090E0089582
:100D9000CF93C82F811102C06FEF01C061E282E2E0
:100DA00090E00E945E29C11102C06FEF01C069E0AE
:100DB00083E290E00E945E29C11102C06FEF01C082
:100DC00063E284E290E0CF910C945E29882311F0D5
:100DD000FA0101C0FB010994EDEDF2E0118282817C
:100DE000846082830895309120018091FD0280FF0C
:100DF00016C0E0911F0163E0E69FF0011124E55465
:100E0000FE4F539A8BB1877F9BB198602FB7F894B0
:100E1000AF0163E0369F400D511D112414C0809135
:100E2000210190912201891720F7E82FF0E0AF010E
:100E3000440F551FE40FF51FE554FE4F1182108239
:100E400012828F5FF0CFE417F50789F0319168E0E7
:100E50009BB9000000C037FF8BB9330F000000C002
:100E600000C000C08BB900C06A9591F7ECCF2FBFCE
:100E70008FE594E00197F1F700C00000089590918C
:100E8000FD0290FF16C0909121012091220192173E
:100E900070F4E92FF0E0DF01AA0FBB1FEA0FFB1F80
:100EA000E554FE4F8183608342839F5FF0CF0C94B3
:100EB000F3060895CF93DF9300D01F92CDB7DEB72E
:100EC0009091FD0290FF0DC0413708F040E79E0170
:100ED0002F5F3F4F0E9416044B8169818A810E94D7
:100EE0003F070F900F900F90DF91CF910895CF9310
:100EF000DF93EC01EDEFF2E0438162818C810E948F
:100F00005A078C818F5F8C83DF91CF910895CF93A7
:100F1000DF93EC01EC81F0E0E95BFD4F4491EDEFF4
:100F2000F2E0628181810E945A078C818F5F8C83FD
:100F3000DF91CF910895EDEFF2E080818E7F808385
:100F40000E94EC06EDEDF2E08281816082832FEF5A
:100F500080E792E0215080409040E1F700C000001F
:100F60000C94F3068091FD02282F269530E0211580
:100F7000310519F48170826005C02331310524F0F8
:100F8000817084628093FD0280910003813718F0A4
:100F900080E7809300030895CF92DF92EF92FF9253
:100FA0006B017C010E94B207B701A60188E090E0C6
:100FB000FF90EF90DF90CF900C947029AF92BF928A
:100FC000CF92DF92EF92FF920F931F93CF93DF9315
:100FD00000D01F92CDB7DEB7082FF62E142FE22EC9
:100FE0008091FD0280FF83C0E82FE695AE2FB0E030
:100FF000AE5BBE4F9C919093DD028E7F823081F478
:10100000413708F040E79E012F5F3F4F6F2D802F43
:101010000E9416044B8169818A810E943F0744C067
:10102000923019F4109100033FC0963019F40091EA
:10103000FE023AC09930C1F5E9508E2F8170D82E4A
:10104000E695F0E0EE5BFD4FA590B490C12CBB247B
:1010500060912301C61630F52C2D30E0A29EC00110
:10106000A39E900DB29E900D112470E00E949229D3
:10107000802FD11002C0860F01C0861B90912101E4
:10108000290F311DA901440F551F240F351F255469
:101090003E4F412F113708F040E76F2D0E94160494
:1010A000C394D6CF0E94F3068091FE02081308C0B5
:1010B0008091FF02F81204C080910003181729F0F4
:1010C0008091DF0282608093DF020093FE02F09243
:1010D000FF0210930003EE2051F06091FD02709129
:1010E000FE028091FF02909100030E94CC070F90B6
:1010F0000F900F90DF91CF911F910F91FF90EF9084
:10110000DF90CF90BF90AF900895EDEFF2E0438174
:1011100021E1421B08F440E021E0628181810C94CE
:10112000DE07EDEFF2E0438121E1420F08F44FEFDB
:1011300021E0628181810C94DE07EDEFF2E06281B3
:1011400021E1621B08F460E021E0438181810C947D
:10115000DE07EDEFF2E0628121E1620F08F46FEF4C
:1011600021E0438181810C94DE07EDEFF2E0818183
:1011700021E04381628188500C94DE07EDEFF2E0BC
:10118000818121E043816281885F0C94DE07809138
:101190000103882319F08150809301036091FD02BF
:1011A0007091FE028091FF02909100030C94CC0795
:1011B00080910103833018F48F5F80930103609165
:1011C000FD027091FE028091FF02909100030C9449
:1011D000CC079091FD0290FF3BC09170811102C03D
:1011E000926006C0833110F0946202C0880F982B81
:1011F0009093FD028091DF0281608093DF0266237D
:1012000051F06091FD027091FE028091FF02909179
:1012100000030E94CC076091FD02669570E04BE0F0
:1012200050E084E191E00E94C729892B19F00E94C7
:10123000EC0602C00E94EF0481E08093DA0220E015
:10124000409100036091FF028091FE020C94DE0742
:1012500008958091FD028695815009F482E161E054
:101260000C94E9088091FD0286958F5F833108F028
:1012700081E061E00C94E9089091FD0290FF04C0C8
:101280009695981740F003C0811105C090E096171D
:1012900010F40C94320961E00C94E908EDEFF2E0EF
:1012A00083E0808311828FEF828380E783831482BF
:1012B000ADEDB2E012968C911297836012968C93EA
:1012C00060817181828193810C94CC078091BA01F5
:1012D000811112C08091D80080618093D8008AE18A
:1012E0008A95F1F700C08091D90080FD02C082E0AC
:1012F00001C081E08093BA0181E09091BA01913000
:1013000009F080E00895CF93DF930E94BB06EC01C3
:101310008238910559F1A0F48133910509F473C025
:1013200040F48932910509F467C08A9709F472C0C4
:1013300084C08533910509F458C0C997B9F07DC0C0
:10134000833E910571F138F4803E9105B1F0823E03
:10135000910511F172C0863E9105B9F1873E910564
:10136000C9F1843E910509F068C024C08091CD0286
:1013700080FD5DC081FD5BC060C08091CD0280FDBD
:1013800050C08091CE0280FF49C18091CD0284FD82
:1013900043C1C3EED0E042C18091CD0282FF3EC185
:1013A000F4CF8091CD0282FD3FC08091CE0280FDBE
:1013B0003EC0EBCF8091CE0281FF30C18091CD0243
:1013C00084FD2AC1C7EED0E029C18091CD0283FF00
:1013D00025C1F4CF8091CD0283FD2CC08091CE0237
:1013E00081FFECCFC4EED0E019C18091CD0285FF22
:1013F00015C1C9E2D0E012C18091CD0285FF0EC1B6
:10140000C5E3D0E00BC18091CD0286FF07C1CAE2DF
:10141000D0E004C18091CD0286FF00C1C1E3D0E0DD
:10142000FDC0C9E3D0E0FAC0C2EED0E0F7C0C0EE24
:10143000D0E0F4C0C6EED0E0F1C0C11581E5D80718
:1014400008F066C0C11520E5D207E0F0CE0174E0D7
:10145000969587957A95E1F783709C2F937021E09C
:1014600030E002C0220F331F9A95E2F73C68382B18
:10147000CF70C695C69540E2C49FE0011124C22BEF
:10148000D32BCCC0C83ED10560F5C03ED10508F0D5
:10149000C5C0C83AD105B0F4C53AD10540F0C55A27
:1014A000D0E0CB57DE4FC881D0E0D064B7C0C130A8
:1014B000D10509F4B3C008F4AFC0C430D10508F4B5
:1014C000ABC0ACC0CF3BD10508F0A6C0C85AD0E035
:1014D000CC0FDD1FC857DE4F0990D881C02DD464D2
:1014E0009DC0C11540E2D40758F4C11581E0D8076A
:1014F00008F094C0C03FD10508F48EC0D0658EC0FE
:10150000C11520E4D20708F487C0DF70D06A86C016
:10151000C11545E5D40708F042C0C11584E5D807D8
:1015200028F0DC2FCC27C46FD06A78C0C11523E522
:10153000D207B0F0CE018370992721E030E002C0DD
:10154000220F331F8A95E2F78C2F8695869540E20D
:10155000849FC0011124E901C82BD92BDA685EC031
:10156000C11542E5D40728F4DC2FCC27C16FD06A1F
:1015700055C0CE018370992721E030E002C0220FD0
:10158000331F8A95E2F78C2F8695869540E2849FDB
:10159000C0011124E901C82BD92BDC683FC0C1155B
:1015A00089E5D807B8F4C11528E5D20728F0DC2F63
:1015B000CC27C06FD06A32C0C11546E5D40760F5AC
:1015C0008C2F0E94AC048F71C82FD0E0DC2FCC2769
:1015D000D06224C0C1158AE5D80780F48C2F8F70A3
:1015E0000E94AC0494E0D695C7959A95E1F7CF7028
:1015F000D0E0DC2FCC27D069C82B10C0CE0190568C
:101600008115904248F48D2F8F710E94AC04DD2724
:10161000D0628F71D82B02C0C0E0D0E0CE01DF9144
:10162000CF910895811129C081E0611113C0809389
:101630000C010E9460218160782F90930E018093AD
:101640000D0140910A0150910B0160910C018091B4
:101650000E013CC0809311010E9460218160782FAF
:10166000909313018093120140910F01509110014A
:10167000609111018091130129C0813049F56111F8
:1016800013C0809302010E9460218160782F9093A3
:101690000401809303014091000150910101609188
:1016A00002018091040112C0809307010E94602111
:1016B0008160782F90930901809308014091050182
:1016C0005091060160910701809109010E940A056D
:1016D00081E008956F927F928F929F92AF92BF9216
:1016E000CF92DF92EF92FF920F931F93CF93DF93EE
:1016F00065E571E001EC12E026ECE22E22E0F22E2C
:101700003801C0E0AA24A394B12CDB018D91BD0166
:10171000E82FE295EF70F0E021A18F70A50102C0E3
:10172000440F551F8A95E2F7CA01242B21A322A159
:10173000942E9094292122A350EA5A95F1F79FE51F
:10174000C92E91E0D92E20E030E0D0E0D6018D9076
:101750006D01482D42954F7050E0DA0190964C9102
:1017600050E0B82DBF7002C055954795BA95E2F785
:1017700040FD07C04A2D022E01C0440F0A94EAF72B
:1017800001C040E0D42B2F5F3F4F27303105F1F6E9
:1017900091A1992291A292A1892B82A3F301808128
:1017A000D81719F0D08381E001C080E0C82BFFEF8B
:1017B0006F1A7F0AE614F70409F0A7CFD090CC0285
:1017C000CC2349F081E08093B8010E94602190937E
:1017D000B7018093B6018091B8018823A9F0809168
:1017E000B6019091B7010E945121069768F0ED2D46
:1017F000F0E0EE5FFC4FD8018D918D018193EA16E8
:10180000FB06C9F71092B8010E946609882309F403
:1018100063C01091CB028091DF028823E9F085E05C
:10182000EDEFF2E0A1EBB2E001900D928A95E1F7C5
:101830008091DD029091DE02A091DF028093B602DA
:101840009093B702A093B80281E090E00E94C7286D
:10185000892B11F41092DF0280E090E00E94C728EB
:10186000892B09F058C1E12FF0E0EE5FFC4F80E0DA
:1018700090E0DC01A654BD4F2C9121930196853058
:101880009105B9F7D091D0028D2F90E0FC01E05284
:10189000FD4F7F011091BF028081181B012F101690
:1018A00054F40150D7018C918F5F8C9360E08D2FA1
:1018B0000E94120BF4CF812F17FD80E0181B11231B
:1018C00009F462C01F5FF70180818150808361E06D
:1018D0008D2F0E94120BF3CFE091CC020E2F10E05F
:1018E0008091B9028830C9F58091B80280FF12C09A
:1018F0008091B10280FF0CC08091FD0281608093D5
:10190000FD028091B10260E086950E94E90802C064
:101910000E949B078091B80281FF09C020E040919E
:10192000B4026091B3028091B2020E94DE078091FE
:10193000B80282FF09C08091B702882319F00E9483
:10194000EF0402C00E94EC068091B80283FF03C03E
:1019500081E08093DA021092B902F801EE5FFC4F49
:1019600080E090E02191DC01A654BD4F2C930196BC
:1019700085309105B9F7E091E302F0E0E052FD4FC8
:1019800080818093BF02DCC01092B90120910F01C9
:101990008091100190911101409112015091130119
:1019A000452B31F08F3F31F481E02F3F19F403C014
:1019B00081E001C080E080FD02C0892F02C080E08C
:1019C00090E080FF14C0109211010E94602181609C
:1019D000782F909313018093120140910F01509141
:1019E000100160911101809113010E940A0520915C
:1019F0000A0180910B0190910C0140910D015091D1
:101A00000E01452B31F08F3F31F481E02F3F19F467
:101A100003C081E001C080E080FD02C0892F02C0C8
:101A200080E090E080FF14C010920C010E946021C1
:101A30008160782F90930E0180930D0140910A01EF
:101A400050910B0160910C0180910E010E940A05DA
:101A500020910501809106019091070140910801B4
:101A600050910901452B31F08F3F31F481E02F3F38
:101A700019F403C081E001C080E080FD02C0892F1D
:101A800002C080E090E080FF14C0109207010E9425
:101A900060218160782F9093090180930801409123
:101AA00005015091060160910701809109010E9492
:101AB0000A0520910001809101019091020140915D
:101AC000030150910401452B31F08F3F31F481E047
:101AD0002F3F19F403C081E001C080E080FD02C007
:101AE000892F02C080E090E080FF2AC0109202019E
:101AF0000E9460218160782F9093040180930301FC
:101B00004091000150910101609102018091040116
:101B10000E940A0515C08091B9018F5F8093B901B9
:101B2000863008F433CFE091CB02F0E0EE5FFC4F5B
:101B300080E090E01192019685309105D9F726CF8B
:101B40008C2FDF91CF911F910F91FF90EF90DF903D
:101B5000CF90BF90AF909F908F907F906F9008959F
:101B6000CF93DF93CDB7DEB7AA970FB6F894DEBF59
:101B70000FBECDBF84B7877F84BF0FB6F894A895FA
:101B800080916000886180936000109260000FBEB9
:101B900090E080E80FB6F894809361009093610024
:101BA0000FBE85B7806885BF85B7806885BF0E94F6
:101BB000851D0E94A41D8091E20084608093E20054
:101BC0007894809128038823A1F01091E9001F7078
:101BD0009091EC00892F817090FD80E8182B109275
:101BE000E9008091E80083FD0E94631A1F70109342
:101BF000E90082E084BD93E095BD9AEF97BD8093A4
:101C00006E002198299A259A2D9825E02A95F1F7BA
:101C1000000083B18695817025982D9A30EA3A9517
:101C2000F1F78093340180913401882321F01092E0
:101C30001F0188E203C088E280931F018093200186
:101C40000E946609882331F062E070E084E291E04E
:101C50000E94E5278091340180913401882311F09E
:101C600090E001C095E09093CC0285E0891B8093C1
:101C7000CB02A5E5B1E041E050E08D91E82FE2957F
:101C8000EF70F0E021A18F70BA0102C0660F771FDC
:101C90008A95E2F7CB01962F9095922391A392A17A
:101CA000892B82A371E0AA35B70739F7AFE5B1E018
:101CB00041E050E08D91E82FE295EF70F0E021A136
:101CC0008F70BA0102C0660F771F8A95E2F7CB01C9
:101CD000962F9095922391A392A1892B82A371E0D4
:101CE000A636B70739F7E1ECF2E0A2E0B3E01192D3
:101CF0001D9282E0EB3CF807D1F70E946A0BEFE3FC
:101D0000FCE93197F1F700C000000E946A0B809156
:101D1000020380FF0AC080E00E94C8066FEF7FEFD9
:101D200080E090E00E947C29FBC480E090E00E946B
:101D300058298C3E9E4F11F00E94EA210E946609AC
:101D4000811106C062E070E084E291E00E94EE271B
:101D500082E290E00E944A29813281F483E290E09D
:101D60000E944A29893051F484E290E00E944A2975
:101D700091E0833209F090E0892F01C080E080FF7C
:101D8000F5C480E090E00E9458298C3E9E4F11F0EF
:101D90000E94EA2182E090E00E944A298093F202A8
:101DA0000E94D9219093CE028093CD0283E090E0EF
:101DB0000E944A29682F70E080E090E00E948D2305
:101DC0008091CF0281113BC080E090E00E945829B1
:101DD0008C3E9E4F21F00E94EA210E944E0988E02D
:101DE00090E00E9452296093FD027093FE0280935E
:101DF000FF02909300038091DF0283608093DF02F3
:101E00006E7F71F40E944E0988E090E00E94522992
:101E10006093FD027093FE028093FF029093000393
:101E20000E94B2070E94EC068091FD0280FF04C070
:101E300060E086950E94E90881E08093CF0280915E
:101E40003401811106C086E38093360186E68093D3
:101E5000350120913601A22FA295AF70B0E0919686
:101E60003C9191972F7081E090E0AC01022E01C06F
:101E7000440F0A94EAF7542F5095352391963C93DA
:101E8000919792963C919297432B92964C9392976E
:101E900040913501E42FE295EF70F0E031A14F70F1
:101EA000042E01C0880F0A94EAF7982F9095932387
:101EB00091A392A1892B82A390968C9190E002C06D
:101EC000959587952A95E2F7817020A130E002C0B0
:101ED000359527954A95E2F720FF02C092E001C0B0
:101EE00090E0892B8093E4029091340181E098275F
:101EF0009093E302891B8093D00287E391E0909353
:101F0000D2028093D102BE016F5F7F4F7B01CC2450
:101F1000CA94DD24D3941E017DE0270E311C3CE0E1
:101F2000432E33E0532E48E1642E712C8091280318
:101F3000853009F036C080912803843011F1109269
:101F4000D30280E40FB6F894A895609260000FBEAB
:101F50008093600083B7817F846083BF83B7816093
:101F600083BF7894889583B78E7F83BF0FB6F8942C
:101F7000A895809160008861809360001092600055
:101F80000FBE80911E03882309F4D0CF0E946A0BF4
:101F9000E2E0F3E081918111CAC34E165F06D1F7EA
:101FA000C5CF0E946A0B0E9466098823A1F1A3EFA6
:101FB000B2E0E2E0F3E000E010E0302F21919D91EB
:101FC000922721F180E0BB24B3944B2D4923D1F01B
:101FD00089A33AA32B2181E009F480E08BA30E941E
:101FE00060218160782F9DA38CA349A15AA16BA188
:101FF0008DA10E940A05F801ED50FD4F8081B826A1
:10200000B08218C08F5FBB0C8730F9F60F5F1F4F8F
:102010000A30110591F6CEA2CFA218A60E94602127
:102020008160782F9AA789A74EA15FA168A58AA58C
:102030000E940A058091DE02882309F47CC0809109
:10204000DD02E091FD02E695E81BE093D9028230C3
:1020500059F4F0E0E658FA4FE4910E2F10E027E82B
:10206000A22E27E0B22E13C0863059F4F0E0E958D2
:10207000FA4FE4910E2F10E097E7A92E97E0B92EC2
:1020800006C000ED17E085E1A82E84E0B82E80910F
:10209000DA02882389F01092DA020E946021980106
:1020A00020953095820F931F9093D8028093D7028A
:1020B0001092DC021092DB028091D7029091D8023C
:1020C0000E94512180179107B0F18091D602882398
:1020D000B1F01092D6028091D4029091D5020E9464
:1020E00051218033954758F00E9460219093D5028A
:1020F0008093D4028091DF0288608093DF02809019
:10210000DB029090DC02E091D702F091D8020E0F32
:102110001F1F1093D8020093D70287ED92E0F501BC
:1021200009958091DB029091DC02892B21F48928AA
:1021300011F0D092D6028091E402E82FEE0FEE0F5C
:1021400080913601A82FA295AF70B0E090962C91A7
:1021500030E08F7002C0359527958A95E2F721709F
:10216000332780913501A82FA295AF70B0E09096EB
:102170004C9150E08F7002C0559547958A95E2F7D3
:10218000CA018170992740FF02C082E090E0822B53
:10219000932B8E2B8093E4021091E3028F70E82F33
:1021A000F0E0EA59FE4F90818091E202890F80931E
:1021B000E20284306CF0E12F012E000CFF0BE052A4
:1021C000FD4F80818F5F808360E0812F0E94120B22
:1021D0008091E2028D3F6CF4E12F012E000CFF0B89
:1021E000E052FD4F80818150808361E0812F0E9409
:1021F000120B8091E202837887FF03C081508C6FBD
:102200008F5F8093E20286E0EBEEF2E0D70101906F
:102210000D928A95E1F7A090ED02B090EE02009148
:10222000EF021091F0021092ED021092EE02109265
:10223000EF021092F002A11003C0BB2009F44FC0BE
:102240008091E9029091EA020E9451219C019091B3
:10225000E802992309F497C22333310508F43FC0FB
:102260009F3F19F09F5F9093E802AA2061F00E94BF
:1022700092201A1414F491E001C09FEF899F802DE1
:1022800011248093ED02BB2061F00E9492201B1468
:1022900014F491E001C09FEF899F802D1124809359
:1022A000EE023091ED023323D1F02091EE02222391
:1022B000B1F045EB3403C0011124992319F0909338
:1022C000ED0202C0D092ED0265EB2603C00111249D
:1022D000992319F09093EE0202C0D092EE02011100
:1022E00003C0112309F44FC08091E6029091E702E8
:1022F0000E9451219C019091E502992309F448C262
:102300002536310508F43FC09F3F19F09F5F909339
:10231000E502002361F00E947020101614F491E091
:1023200001C09FEF899F802D11248093EF0211231C
:1023300061F00E947020111614F491E001C09FEF2B
:10234000899F802D11248093F0023091EF02332376
:10235000D1F02091F0022223B1F075EB3703C001D8
:102360001124992319F09093EF0202C0D092EF024A
:1023700035EB2303C0011124992319F09093F00247
:1023800002C0D092F0028091ED0281110BC08091C9
:10239000EE02811107C08091EF02811103C080918C
:1023A000F00281110E946C21AB82BC820D831E83DE
:1023B00086E0F701ABEEB2E001900D928A95E1F76D
:1023C0000E94D2059091F102891721F00E94D20556
:1023D0008093F10280912803843009F0A7CD43E077
:1023E0004093E9008091E80082FFA0CD8091E80051
:1023F00085FF1FC00E94DE1E811119C000E210E09F
:10240000570108C08091F100F50181935F010150EF
:10241000110969F08091E80085FDF4CF8091E80012
:102420008B778093E8000E94DE1E882399F391E069
:1024300001C090E08091E8008B778093E8009923B9
:1024400009F474CDE9818E2F90E0FC013197E331DE
:10245000F10508F067C1EA5AFF4F0C94BA291A82B5
:1024600089E0A7C08A81823009F477C1833089F07E
:10247000813009F057C12FB7F89480910C039091E7
:102480000D03A0910E03B0910F032FBFBB83AC834C
:102490001CC0FE013396A2E0B3E08D918193E2155A
:1024A000F305D9F740C18A81823009F03BC16B81C5
:1024B0007C818D819E810E94C02985E290E024C0AC
:1024C0004C816B818A810E9495069D834DC1AD80B0
:1024D000BE80BA24AB24BA248C810B819A81FEE0A1
:1024E0000F9F800111242CE8929F000D111D1124D3
:1024F000080F111D080F111D6B2DC80186960E9433
:102500005E296A2DC80187960E945E290CC10E942F
:10251000610609C18A818138B1F050F4803809F030
:1025200002C120E04B816091FF028091FE0223C036
:102530008238E9F0833809F0F6C020E040910003CA
:102540006C818B8118C060E08B810E94E9088B81CF
:10255000811103C00E949B07E6C08091FD0281604B
:102560008093FD0260E086950E94E908DCC08B81C3
:1025700080930103D8C00E94DE07D5C08A818138CC
:1025800099F030F4803809F0CEC08091000311C07A
:10259000823899F0833809F0C6C08091FE028B839F
:1025A0008091FF028C83BFC08091FD0280FF03C039
:1025B00086958B83B8C080E0FCCF80910103F9CF72
:1025C0006091FD027091FE028091FF0290910003E4
:1025D0000E94CC07A8C080E18A83A5C0DA828AEA7B
:1025E000E8CF0A811B811027012710278C80912CAE
:1025F0005701C8018A5A9D4F95012E193F09281588
:10260000390508F090C00A3A31E0130728F40E9417
:102610004A29F501848302C0F50114820F5F1F4F20
:10262000FFEFAF1ABF0AE5CF0A811B8110270127F0
:1026300010278C80912C5701C8018A5A9D4F950113
:102640002E193F092815390508F06DC00A3A21E016
:10265000120720F4F50164810E945E290F5F1F4F6D
:10266000FFEFAF1ABF0AE8CF0E9451065CC024E01A
:102670002A8359C00A811B811027012710278C80CB
:10268000912C5701C801869695012E193F092815EE
:10269000390508F048C0003332E0130728F40E94DF
:1026A0004A29F501848302C0F50114820F5F1F4F90
:1026B000FFEFAF1ABF0AE6CF0A811B81102701275F
:1026C00010278C80912C5701C801869695012E19F0
:1026D0003F092815390538F5003322E0120720F4A8
:1026E000F50164810E945E290F5F1F4FFFEFAF1A53
:1026F000BF0AEACF80E00E94C8066FEF7FEF80E05C
:1027000090E00E947C290FC0C7010E943D1F2FEF5F
:1027100031EE44E0215030404040E1F700C000007D
:102720000E941A21C982C7010E943D1FFFCB80E190
:1027300089BD82E189BD09B400FEFDCF8091D8003A
:102740008F7D8093D8008091E00082608093E000CC
:102750008091E00081FDFCCFE9CB85E290E00E9412
:102760004A291B821C821D828E83DDCF60E085E2B8
:1027700090E00E945E290E9461060E94510681E05D
:102780000E94C806FECA2D32314008F06BCDA7CD9D
:102790002D32314008F0BACDF6CD5F926F927F9224
:1027A0008F929F92AF92BF92CF92DF92EF92FF9261
:1027B0000F931F93CF93DF93CDB7DEB729970FB653
:1027C000F894DEBF0FBECDBFFC01808191812381D3
:1027D0003481232B31F09F3F31F491E08F3F19F486
:1027E00003C091E001C090E090FD39C67F0185E013
:1027F000DE01119601900D928A95E1F7F701228191
:1028000089819A81222349F00E948022182F682F03
:1028100089819A810E94F92203C00E94CD22182F3B
:1028200069817A81812F0E94BB068C01F701928118
:10283000992309F4DFC0980122513F452031310529
:1028400008F004C18FEF93E00E944A298111DCC097
:10285000025136E5832E32E0932E002379F0811465
:10286000F4E09F0609F4D0C0C4010E944A298111F6
:1028700001C001501FEF811A910AEFCF1E821F8203
:1028800018861986662463942AE0522E84010F5F0D
:102890001F4FC4010E944A298E831F82882309F496
:1028A000B3C09FEF980F933060F48F836E8222E065
:1028B000820E911CC8010E944A298887811102C09A
:1028C000A3C048018E010A5F1F4FF8012081222317
:1028D000E9F2213009F04CC08181813049F468016E
:1028E000F2E0CF0ED11CF80182810E94C0260AC0FE
:1028F000823051F46801F2E0CF0ED11CF8018281E0
:102900000E946126860173C0833049F46801F2E0B9
:10291000CF0ED11CF80182810E942226F3CF843091
:1029200019F00F5F1F4F63C0F80122810E5F1F4F28
:1029300080E090E030E0205331092A30310568F41E
:10294000589EA001599E500D1124C901840F951F56
:102950000F5F1F4FF8012081EDCF009709F447C0AA
:10296000EFE9FFE03197F1F700C000000197F5CFE4
:10297000E22FF0E0E256FA4F7490822F869586950A
:10298000869590E0FC01E257FA4FA4902770B12C95
:10299000022E02C0B594A7940A94E2F7F1E0AF22A8
:1029A000BB24FC01E258FA4FC490D12C02C0D5944C
:1029B000C7942A95E2F721E0C222DD24A114B104D4
:1029C00019F081EE0E946126C114D10419F086EE3F
:1029D0000E946126872D0E94C026CD2819F086EE20
:1029E0000E942226AB2819F081EE0E9422260F5F5A
:1029F0001F4F6BCF00313FE5130709F0B5C481E0ED
:102A00000E942E230E94451A80919A03877009F430
:102A100026C5F7018281882309F421C582E0299621
:102A20000FB6F894DEBF0FBECDBFDF91CF911F91DF
:102A30000F91FF90EF90DF90CF90BF90AF909F905D
:102A40008F907F906F905F900C9453230031FFE53F
:102A50001F0711F481E005C001312FE5120721F4B1
:102A600082E00E946C23CECF033FFCE51F0749F4B0
:102A700006E221EE40EE63EF7CE5C7010E94DE0531
:102A8000C3CF043F2CE5120708F04AC1083D3CE5DE
:102A9000130731F407E225EE45EE68ED7CE5EDCF56
:102AA000093D8CE5180731F408E221E045EE69EDB7
:102AB0007CE5E3CF073DECE51E0731F406E221EEAD
:102AC00041EE67ED7CE5D9CF992309F45EC1109200
:102AD000100302303CE5130708F441C106318CE5D0
:102AE000180738F098012A5F3C452930310508F075
:102AF00036C10E94D9219093CE028093CD0200313D
:102B00009CE5190709F4C3C008F041C00830FCE592
:102B10001F0709F49AC0F0F404303CE5130709F4E8
:102B200087C068F402309CE5190709F477C00330C8
:102B30001C4509F0E5C08091CD02826076C0063068
:102B4000FCE51F0709F46EC008F07BC08091CD0240
:102B500088606BC00C303CE5130709F485C068F44D
:102B60000A309CE5190709F474C008F079C00E9486
:102B700002268091CD02806858C00E30FCE51F0708
:102B800009F476C008F07FC08091CD028BC00B3F66
:102B90003CE5130709F44FC018F503319CE519070C
:102BA00009F47DC078F40131FCE51F0709F473C016
:102BB00002311C4509F0A4C00E9402268091CD027A
:102BC0008F7733C005313CE5130709F472C008F470
:102BD00086C00A3F1C4509F093C08091CE023EC0DA
:102BE0000F3FECE51E0709F45FC058F40D3F2CE5DC
:102BF000120709F444C008F43FC08091CE028260FD
:102C00002DC001308DE5180709F475C008F45DC0CA
:102C100002301D4509F074C060E06EC08091CD02A5
:102C2000816003C08091CD0280618093CD0268C035
:102C30008091CD0211C08091CE0282608093CE023D
:102C40005FC08091CD028062F0CF8091CD02806420
:102C5000ECCF8091CD0288608460E7CF8160EECFB9
:102C60008091CD028E7FE1CF8091CD028D7FDDCF2F
:102C70008091CD02877FD9CF8091CE0218C08091FC
:102C8000CE028D7FDBCF8091CD028F7ECECF809123
:102C9000CD028F7DCACF8091CD028F7BC6CF809130
:102CA000CD02877F8B7FC1CF8091CE028D7F8E7FBB
:102CB000C5CF8091CD0282FB222720F991E0922797
:102CC00090FB82F990FB83F9B0CF8091CE02982FD0
:102CD000909591708E7F892B90FB81F9AFCF0E94E8
:102CE00002268091CD0287FB222720F991E09227CE
:102CF00090FB87F99ACF61E08EE090E00E945E2918
:102D00006091CD021091CE0284E090E00E945E2995
:102D1000612F81E290E00E945E290E94022674CE1B
:102D2000053FFCE51F0731F406E221EE42EE65EFB8
:102D30007CE5A3CE053F2CE5120730F407E225EE33
:102D400044EE64EF7CE599CE063F3CE5130709F0BD
:102D5000BBCE07E225EE46EE66EF7CE58ECE063171
:102D60008CE5180751F580919D038A7A91E009F46A
:102D700090E090931103882311F065E301C069E2AC
:102D80008DE293E00E94BF2115C00631ECE51E07DD
:102D900059F580911103882309F4EDC285E3EDE232
:102DA000F3E09281891301C01282319603E0E3338C
:102DB000F007B9F70E94532227CE01158CE51807BA
:102DC00031F00E3D1C45D1F40E94EA211DCE0E9437
:102DD0000226FFEF04E31CE0F15000401040E1F751
:102DE00000C000000E941A2180919D038272F801A8
:102DF000E25CFC45E431F10508F4BFC2F701008153
:102E00001181992349F0C8010E948022D82E682F91
:102E1000C8010E94F92204C0C8010E94CD22D82E08
:102E2000B8018D2D0E9483098C01982EF701A58091
:102E3000A2949FE0A922D280D11010929C0380918D
:102E40009A03877099F0DD2089F0812F807F80348C
:102E500021F080E2800F883048F082E00E94532306
:102E600080919A038770CC24C3948111C12CB12E18
:102E7000B2948FE0B8228B2D90E08C30910508F051
:102E800040C2FC01E759FF4F0C94BA29812F807F83
:102E90001F70882311F01295107FDD20B9F01123E7
:102EA00009F41AC280E2800F883010F0911006C039
:102EB00080919D03182B10939D0305C080919C0366
:102EC000182B10939C030E94532206C2802F0E944D
:102ED0002226112309F415C2005E1095083010F067
:102EE000911006C080919D03182310939D0305C087
:102EF00080919C03182310939C030E94532201C2CB
:102F0000812F807F1F70803211F01295107F9920E1
:102F100021F0F1E09F16E1F02AC0DD2081F08091E0
:102F20009E03AA2051F001E0A01207C0182B181729
:102F300009F4E7C110939E03E4C1812B10C0AA20BD
:102F400021F021E0A21609F4DCC10E944D2227C025
:102F5000DD2041F035E03A1508F4D3C1812F0E94FD
:102F60001826CFC184E08A1508F4CBC118C0DD2033
:102F700049F0AA2099F3F701858180FFADC18F70D8
:102F80008583ECCFAA2059F0093309F0B7C1FFEFD0
:102F900017EE23E0F15010402040E1F7ADC1812F42
:102FA0000E940D26AEC1812F86958695837019F0FB
:102FB000813059F0A6C1DD2019F0C801937002C01C
:102FC00080E090E00E94BC05A2C1DD2019F0C8019C
:102FD000937002C080E090E00E94A60598C1802F07
:102FE000DD2019F00E94B22002C00E94EB1F0E9457
:102FF0006C218DC1812F837009F069C0D11085C10A
:10300000902F929596959770990F990F802F8F70AA
:10301000882E912CA12CB12C092E04C0880C991C4F
:10302000AA1CBB1C0A94D2F704FF12C04FE050E068
:1030300060E070E004C0440F551F661F771F9A952B
:10304000D2F7DB01CA0180959095A095B09503C099
:1030500080E090E0DC0116951695412F43704230D8
:1030600019F1C8F400919F031091A0032091A103CE
:103070003091A203413059F088299929AA29BB2906
:10308000BC01CD0160237123822393230AC0802ACF
:10309000912AA22AB32ABC01CD01682979298A295B
:1030A0009B290E948D2331C188299929AA29BB29EE
:1030B00000919F031091A0032091A1033091A203DE
:1030C000BC01CD016027712782279327EACFDD203D
:1030D00019F0812F817001C08695882309F415C1EC
:1030E000902F929596959770990F990F802F8F70CA
:1030F000882E912CA12CB12C092E04C0880C991C6F
:10310000AA1CBB1C0A94D2F704FF12C04FE050E087
:1031100060E070E004C0440F551F661F771F9A954A
:10312000D2F7DB01CA0180959095A095B09503C0B8
:1031300080E090E0DC0116951695412F43704230F7
:10314000D9F068F50091290310912A0320912B03EF
:1031500030912C03413059F088299929AA29BB299B
:10316000BC01CD0160237123822393231EC0802ADA
:10317000912AA22AB32A13C088299929AA29BB29EE
:103180000091290310912A0320912B0330912C03E5
:10319000BC01CD01602771278227932706C0BC019F
:1031A000CD01682979298A299B290E942423ADC051
:1031B0001F70DD2039F0812F0E946C23802F0E9428
:1031C0001826A3C0802F0E940D26812F0E942E2337
:1031D0009CC0802F32EF931609F440C0391538F0A7
:1031E00090EF991661F0E1EF9E1699F170C0F3EF40
:1031F0009F16D9F124EF921609F44EC068C0DD2065
:1032000019F134E03A1508F47CC01F7181E090E0B8
:10321000A0E0B0E0AC01BD0104C0440F551F661F23
:10322000771F1A95D2F78091290390912A03A091D4
:103230002B03B0912C038A019B01082719272A2709
:103240003B27C901B80125C025E02A1508F459C05B
:10325000DCCFDD2029F0812F8F712CC0DD20D9F348
:10326000812F8F710E942E234CC0DD2079F01F71B9
:1032700081E090E0A0E0B0E0BC01CD0104C0660FA9
:10328000771F881F991F1A95D2F703C060E070E07E
:10329000CB010E94242335C0DD2079F01F71812FDE
:1032A0000E946C2338E0139FC00111248360809337
:1032B0009A03812F0E946C2324C081E00E94532333
:1032C00081E08A15F0F482E00E9453231AC0DD20C9
:1032D00039F0AA2009F4BFCF802F0E94612611C0C7
:1032E000AA2009F4BDCF893349F49FEFE7EEF3E05C
:1032F0009150E040F040E1F700C00000802F0E94B4
:10330000222688EF8B0D843010F40E94D205CC2049
:1033100009F4A5C080919A0380FDA1C0F701128233
:103320008595859585950E946C23C7010E94CD13D4
:1033300080919A0385958595859529960FB6F89481
:10334000DEBF0FBECDBFDF91CF911F910F91FF90D8
:10335000EF90DF90CF90BF90AF909F908F907F9035
:103360006F905F900C942E2301318FE5180709F0C0
:103370007BCB82E045CB89E212CDEB58FF4F0C941A
:10338000BA298091FD0280FF20C08E7F8093FD02CC
:103390006091FD027091FE028091FF029091000306
:1033A0000E94CC070E94EC068091DF02816080932E
:1033B000DF021FEF20E732E0115020403040E1F7FC
:1033C00000C000000E94F3061FCB81608093FD02C5
:1033D00061E0869536C049E259E062E379E02CC0AD
:1033E00042E359E069E279E027C045EB58E06EEB33
:1033F00078E022C04EEB58E065EB78E01DC04DE967
:1034000058E069EA78E018C049EA58E06DE978E0E8
:1034100013C045E858E061E978E00EC041E958E0A2
:1034200065E878E009C047EC58E068ED78E004C052
:1034300048ED58E067EC78E00E94E606E5CA61E0F6
:1034400081E00E94E908E0CA65E082E005C068E02A
:1034500086E002C062E189E00E943C09D5CA299653
:103460000FB6F894DEBF0FBECDBFDF91CF911F9195
:103470000F91FF90EF90DF90CF90BF90AF909F9013
:103480008F907F906F905F9008950F931F9380911E
:10349000290390912A03A0912B03B0912C038C0156
:1034A0009D010670112722273327BC01CD0106306C
:1034B00011052105310511F4686001C0677F1F9176
:1034C0000F910C9424231F93CF93DF93CDB7DEB7D6
:1034D000AA970FB6F894DEBF0FBECDBFE0E2F3E0CF
:1034E0008091F100819343E0E832F407C9F78091BD
:1034F0002103833009F462C030F4813071F08230EE
:1035000009F49CC0B3C08A3009F488C08B3009F438
:103510006DC0893009F0AAC020C080912003813A93
:1035200009F0A4C08091E800877F8093E800809133
:10353000240390912503892B21F468E085E193E031
:1035400003C060E080E090E070E00E942727809157
:10355000E8008B778093E80089C080912003813256
:1035600009F084C08091240390912503009719F0FD
:10357000029709F07BC08091E800877F8093E80084
:103580008091E80082FD05C0809128038111F8CF69
:103590006DC02091F3008091F20090E0922B029791
:1035A00029F48091F1008B7F813021F48091F1002A
:1035B000809314038091E8008B7754C0809120039E
:1035C000813A09F053C08091240390912503892BFF
:1035D00009F04CC08091E800877F8093E8008091DB
:1035E000E80080FFFCCF8091410137C0809120032B
:1035F0008132E1F58091240390912503892BB1F567
:103600008091E800877F8093E8000E94D326809114
:103610002203809341010E94022628C0809120034A
:10362000813221F58091E800877F8093E8000E9435
:10363000D326809123038093130318C08091200325
:10364000813AA1F48091E800877F8093E80080911F
:10365000E80080FFFCCF809113038093F1008091FC
:10366000E8008E778093E8000E94D3268091E800DE
:1036700083FFE9C18091200390912103492F50E0FD
:103680004A30510508F0DFC1FA01E757FF4F0C94AB
:10369000BA29803821F0823809F0D5C108C080915C
:1036A0001D0390911E03992389F082600FC08091C1
:1036B00024038F70873008F0C6C18093E9008091A1
:1036C000EB0085FB882780F91092E9009091E800D3
:1036D000977F9093E8008093F1001092F1007CC1F5
:1036E000282F2D7F09F0AFC1882319F0823061F0B7
:1036F000AAC180912203813009F0A5C1933009F05D
:1037000080E080931E032EC08091220381112AC085
:10371000809124038F702FEF280F263008F093C17B
:103720008093E9002091EB0020FF1CC0933021F42E
:103730008091EB00806214C09091EB0090619093B7
:10374000EB0021E030E0A90102C0440F551F8A952B
:10375000E2F74093EA001092EA008091EB00886063
:103760008093EB001092E9008091E800877F8093BE
:10377000E8000E94D32667C1811165C11091220320
:103780001F778091E3008078812B8093E300809104
:10379000E800877F8093E8000E94D3268091E800AC
:1037A00080FFFCCF8091E30080688093E3001111DB
:1037B00002C082E001C083E08093280344C18058A6
:1037C000823008F040C120912203309123032C3D28
:1037D00053E0350779F583E08A838AE289834FB71E
:1037E000F894DE01139620E03EE051E2E32FF0E092
:1037F00050935700E49120FF03C0E295EF703F5FC4
:10380000EF708E2F90E0EA3010F0C79601C0C0969E
:103810008D939D932F5F243149F74FBF8091E8002E
:10382000877F8093E8006AE270E0CE0101960E94F3
:103830002727C0C08091240390912503432F55274B
:1038400043305105B1F068F44130510509F40AC123
:103850004230510509F0F7C08BE590E0E1E0F7E078
:1038600057C04132510589F14232510509F43CC03B
:10387000EAC0C901992781309105B9F070F0823012
:103880009105D9F0039709F0DEC0EEE6F7E0E49188
:103890008E2F90E0EEE6F7E038C0E4E9F7E0E4913F
:1038A0008E2F90E0E4E9F7E030C0E0E8F7E0E49143
:1038B0008E2F90E0E0E8F7E028C0E4E7F7E0E4913D
:1038C0008E2F90E0E4E7F7E020C08330910508F008
:1038D000BAC0880F991FFC01E158FE4F0190F0819A
:1038E000E02D89E090E014C08330910508F0ABC072
:1038F000FC01EE0FFF1FE758FE4F0190F081E02D15
:10390000DC01AA58BE4F8C9190E0009709F49BC04F
:103910002091E800277F2093E80020912603309132
:1039200027032817390708F4C90140E0009789F1F7
:1039300020912803222309F43DC02530D9F120919C
:10394000E80023FD37C02091E80022FD2FC0209120
:10395000E80020FFEBCF4091F3002091F20030E02F
:10396000342B009759F02830310540F444914093AE
:10397000F100319601972F5F3F4FF3CF41E02830A0
:10398000310509F040E02091E8002E772093E8000F
:10399000CDCF4111CDCF0AC080912803882351F0AB
:1039A000853041F08091E80083FD04C08091E800FB
:1039B00082FFF2CF8091E8008B778093E80043C0CC
:1039C000803809F040C08091E800877F8093E8004C
:1039D00080911F038093F1008091E8008E77C7CE1D
:1039E000811131C08091220390912303992702977E
:1039F00054F58091E800877F8093E80010912203BE
:103A000010931F030E94D326111106C08091E3007A
:103A100087FD02C081E001C084E08093280342E07A
:103A200061EC81E00E94F22642E261EC84E00E94B7
:103A3000F22642E261EC82E00E94F22642E260EC71
:103A400083E00E94F2268091E80083FF10C08091FD
:103A5000E800877F8093E8008091EB00806280938C
:103A6000EB0005C082E190E0ECE5F7E051CFAA96CB
:103A70000FB6F894DEBF0FBECDBFDF91CF911F917F
:103A800008951F920F920FB60F9211242F933F9318
:103A90004F935F936F937F938F939F93AF93BF9356
:103AA000CF93DF93EF93FF93C091E900CF708091A4
:103AB000EC00D82FD17080FDD0E81092E900809101
:103AC000F000877F8093F00078940E94631A109230
:103AD000E9008091F00088608093F000CD2BCF70DA
:103AE000C093E900FF91EF91DF91CF91BF91AF912A
:103AF0009F918F917F916F915F914F913F912F9106
:103B00000F900FBE0F901F901895E8EDF0E08081A8
:103B10008E7F80831092E2001092DA001092E10012
:103B2000A0EEB0E08C9181608C9380818F77808350
:103B300019BCA7EDB0E08C918E7F8C9380818F7E35
:103B40008083109212030895CF92DF92EF92FF923A
:103B50000F931F93CF93DF93C8EDD0E088818F7EC2
:103B60008883E7EDF0E080818160808384E082BF1C
:103B700081E08093120388818E7F888302EE10E0BB
:103B8000F80110821092DA0081EEC82ED12CF601D5
:103B9000108288818F778883888180688883888174
:103BA0008F7D888319BC1092280310921F031092F6
:103BB0001E0310921D0390EEE92EF12CF701808177
:103BC0008B7F808388818160888342E060E080E031
:103BD0000E94F226F60180818E7F8083F801808129
:103BE00081608083808188608083F70180818E7FFF
:103BF0008083888180618883DF91CF911F910F91AD
:103C0000FF90EF90DF90CF9008951F920F920FB624
:103C10000F9211242F933F934F935F936F937F9352
:103C20008F939F93AF93BF93EF93FF938091E100A6
:103C300082FF09C08091E20082FF05C08091E1000F
:103C40008B7F8093E1008091DA0080FF2AC0809111
:103C5000D80080FF26C08091DA008E7F8093DA0042
:103C60008091D90080FF18C080E189BD82E189BDC3
:103C700009B400FEFDCF81E08093280380911203F8
:103C800081110FC00E94851D0E94A41D8091E20039
:103C900084608093E20005C019BC10922803109242
:103CA00012038091E10080FF17C08091E20080FF45
:103CB00013C08091E2008E7F8093E2008091E20049
:103CC00080618093E2008091D80080628093D80068
:103CD00019BC85E0809328038091E10084FF32C005
:103CE0008091E20084FF2EC080E189BD82E189BD20
:103CF00009B400FEFDCF8091D8008F7D8093D8005D
:103D00008091E1008F7E8093E1008091E2008F7EC0
:103D10008093E2008091E20081608093E2008091D4
:103D20001F03882311F084E007C08091E30087FD22
:103D300002C081E001C083E0809328030E94022634
:103D40000E94D2058091E10083FF27C08091E200AC
:103D500083FF23C08091E100877F8093E10082E0B0
:103D60008093280310921F038091E1008E7F80933F
:103D7000E1008091E2008E7F8093E2008091E2007A
:103D800080618093E20042E060E080E00E94F226E1
:103D90008091F00088608093F000FF91EF91BF91D7
:103DA000AF919F918F917F916F915F914F913F91D3
:103DB0002F910F900FBE0F901F9018952091E40047
:103DC0003091E50095E64091EC00842F817040FF32
:103DD00023C08091E80080FD1DC0809128038823C6
:103DE00099F0853099F08091EB0085FD11C04091EC
:103DF000E4005091E5002417350729F3915011F0A4
:103E00009A01E1CF84E0089582E0089583E0089567
:103E100081E0089580E008954091E80042FFDDCF01
:103E20000895EF92FF920F931F93CF93DF937C013E
:103E30008B010E94DE1E811119C0E70101151105D9
:103E4000A1F08091E80085FD0AC08091E8008E779E
:103E50008093E8000E94DE1E882381F307C08991C9
:103E60008093F10001501109E9CF80E0DF91CF91FB
:103E70001F910F91FF90EF900895CF932091280309
:103E80002430F9F4C091E900CF703091EC00232F79
:103E9000217030FD20E8C22B22E02093E900209120
:103EA000E80020FF0BC040E050E060E270E00E94BC
:103EB000111F8091E8008E778093E800CF70C09347
:103EC000E900CF910895809114030895CF93DF9373
:103ED00000D01F92CDB7DEB790912803943011F532
:103EE00089837B836A839093E9008FEF9091E80048
:103EF000815095FD06C095ED9A95F1F7000081116E
:103F0000F5CF8091E80085FF0DC040E050E063E010
:103F100070E0CE0101960E94111F8091E8008E771B
:103F20008093E8000F900F900F90DF91CF9108954C
:103F3000BC0184E00C94661FBC0183E00C94661FF6
:103F400024E02093E9002FEF3091E800215035FD67
:103F500006C035ED3A95F1F700002111F5CF20911B
:103F6000E80025FF0BC040E050E066E070E00E94F2
:103F7000111F8091E8008E778093E8000895CF9319
:103F8000DF9321E02093E9002FEF3091E8002150EA
:103F900035FD06C035ED3A95F1F700002111F5CF5A
:103FA0002091E80025FF14C0EC0140E050E068E0FB
:103FB00070E00E94111F8091E8008E778093E800E6
:103FC00088E0FE01A5E1B3E001900D928A95E1F74A
:103FD000DF91CF910895803F39F48091EE0287FF01
:103FE0006AC01092EE0267C0813F29F48091EE0210
:103FF0001816BCF360C09091ED02823F29F497FF40
:104000005AC01092ED0257C0833F19F41916CCF331
:1040100052C09091EF02893F31F419160CF04BC059
:104020001092EF0248C08A3F19F497FF44C0F8CFBE
:104030008B3F39F48091F00287FF3DC01092F0026F
:104040003AC08C3F29F48091F0021816BCF333C0BB
:10405000843F21F48091EC028E7F17C0853F21F4CC
:104060008091EC028D7F11C0863F21F48091EC029B
:104070008B7F0BC0873F21F48091EC02877F05C0C6
:10408000883F31F48091EC028F7E8093EC0213C064
:104090008D3F21F48091A3038E7F0BC08E3F21F4CE
:1040A0008091A3038D7F05C08F3F29F48091A303E6
:1040B0008B7F8093A3038091ED02811106C08091D4
:1040C000EE02811102C01092E8028091EF0281118C
:1040D00006C08091F002811102C01092E50208959D
:1040E0008091A30380FD16C081FD16C082FD18C01B
:1040F0008091E502882391F0883290F428E0829F35
:10410000C001112468E270E00E94A629862F672B67
:1041100029F007C082E0089584E0089581E00895C1
:1041200088E008958091A30380FD14C081FD14C030
:1041300082FD16C08091E802882381F0843180F4EA
:1041400022E3829FC001112464E170E00E94A6294D
:10415000862F08958CE0089589E1089585E00895FB
:1041600082E30895803F21F40E949220819504C04B
:10417000813F29F40E9492208093EE020895823FAD
:1041800021F40E949220819504C0833F29F40E946B
:1041900092208093ED020895893F19F40E947020C7
:1041A00005C08A3F31F40E94702081958093EF0210
:1041B00008958B3F21F40E947020819504C08C3FAC
:1041C00029F40E9470208093F0020895843F21F426
:1041D0008091EC02816017C0853F21F48091EC0250
:1041E000826011C0863F21F48091EC0284600BC094
:1041F000873F21F48091EC02886005C0883F31F44C
:104200008091EC0280618093EC0208958D3F21F44F
:104210008091A30381600BC08E3F21F48091A303A2
:10422000826005C08F3F29F48091A303846080934E
:10423000A303089587E797E7909301088093000808
:104240009AE088E10FB6F894A895809360000FBEBD
:1042500090936000FFCF78941F920F920FB60F9249
:1042600011248F939F93AF93BF9380910C039091F0
:104270000D03A0910E03B0910F030196A11DB11D76
:1042800080930C0390930D03A0930E03B0930F0340
:10429000BF91AF919F918F910F900FBE0F901F9084
:1042A00018959C014FB7F89480910C0390910D03E1
:1042B000A0910E03B0910F034FBF821B930B089583
:1042C0002FB7F89480910C0390910D03A0910E03E9
:1042D000B0910F032FBF08950E9460212091ED023D
:1042E000211104C02091EE02222321F09093EA02D2
:1042F0008093E9022091EF02211104C02091F00285
:10430000222321F09093E7028093E602E091D1020C
:10431000F091D202309749F082E08093EB02048062
:10432000F581E02D8BEE92E0099408951F920F9293
:104330000FB60F9211248F939F93AF93BF938091E9
:10434000D302811113C080910C0390910D03A091B1
:104350000E03B0910F034196A11DB11D80930C0374
:1043600090930D03A0930E03B0930F03BF91AF91F1
:104370009F918F910F900FBE0F901F9018959C01E9
:10438000FC0132969FEF80E04191461789F09F3FF4
:1043900019F4411101C0982F8F5F8630A9F79F3F14
:1043A00039F0F901E90FF11D97FDFA95628308953F
:1043B0000895CF9384E090E00E944A29C82F81E2BB
:1043C00090E00E944A292C2F30E0A901582BCA0105
:1043D000CF9108956CEE7EEF80E090E00E947C2902
:1043E00060E082E090E00E945E2960E083E090E07F
:1043F0000E945E2910929F031092A0031092A103C5
:104400001092A20360E084E090E00E945E2960E0E8
:1044100081E290E00E945E2960E085E090E00E94E9
:104420005E2960E086E090E00E945E296FEF87E001
:1044300090E00E945E2940E050E0BA0188E090E000
:104440000E94702960E08DE090E00E945E2940E0CB
:1044500050E0BA0188E190E00E94702960E087E1B5
:1044600090E00E945E2940E050E0BA018CE190E0CB
:104470000E94702960E080E290E00E945E2940E0A6
:1044800050E0BA018FE090E00E94702940E050E0D7
:10449000BA0183E190E00C94702980919E03811110
:1044A00010929E03089590919D0380919C03892B07
:1044B00020919B03982F922B90932D0380919E0324
:1044C000882389F0892B80932D03EFE2F3E097E0B6
:1044D00080E0915029F021912223D9F38F5FF9CF09
:1044E00081110E944D22E091D102F091D2023097C9
:1044F00031F00280F381E02D8DE293E0099408957C
:10450000BF92CF92DF92EF92FF920F931F93CF93C0
:10451000DF938C01C0902903D0902A03E0902B03F5
:10452000F0902C0380919F039091A003A091A10390
:10453000B091A203C82AD92AEA2AFB2ACFE1D0E007
:10454000D701C6010C2E04C0B695A79597958795FF
:104550000A94D2F780FD04C0219790F7B12C07C0D0
:10456000BC2EB8018C2F0E9483090197A9F38B2DD3
:10457000DF91CF911F910F91FF90EF90DF90CF903F
:10458000BF900895CF93DF93EC010E948022BE017B
:104590000E948309DF91CF91089527E0929F800DBB
:1045A0001124682F669566956695982F977085E01B
:1045B000689FB001112440E050E080E0FB01E40F6F
:1045C000F51FE359FC4F208130E0092E02C03695DB
:1045D00027950A94E2F721703327042E01C0220F99
:1045E0000A94EAF7822B4F5F5F4F4530510531F750
:1045F000089527E0929F800D1124E82FE695E69517
:10460000E695877051E001C0550F8A95EAF785E07D
:10461000E89FF0011124E359FC4F20E030E070E006
:104620004081CB01022E02C0969587950A94E2F74D
:104630008170819584278523842781932F5F3F4F45
:104640002530310569F708956093290370932A0393
:1046500080932B0390932C030C94E5250F931F93C9
:1046600041E050E060E070E004C0440F551F661F59
:10467000771F8A95D2F740955095609570958091F7
:10468000290390912A03A0912B03B0912C038A0156
:104690009B01082319232A233B23C901B8011F9139
:1046A0000F910C94242320919A0380958223809368
:1046B0009A03982F977079F430E0482F082E000C59
:1046C000550B2417350739F08595859585950E94FA
:1046D0002E2310929A0308950F931F9341E050E008
:1046E00060E070E004C0440F551F661F771F8A9575
:1046F000D2F78091290390912A03A0912B03B091C6
:104700002C038A019B01082B192B2A2B3B2BC90157
:10471000B8011F910F910C94242360939F03709311
:10472000A0038093A1039093A2030C94E5258091AC
:104730006C0390913B03891719F08F5F8770FBCF53
:1047400008950F931F93CF93DF9380913A0382953F
:104750008F7009F05DC080913703882309F458C039
:1047600080916C0310913B03609135037091360387
:10477000C0913803D091390391E06F3F09F090E088
:10478000292F06E0811709F443C0209721F07F3FCD
:1047900021F030E003C031E001C0322F90E030FD65
:1047A00034C0089FF001099FF00D1124DF01A45CC3
:1047B000BC4F11963C911197371327C03C9136138B
:1047C00024C012963C91129731111FC013964D913F
:1047D0005C9114974C1B5D0B483C5105B0F48091E3
:1047E0003A038F70806180933A03EF5BFC4F8081C6
:1047F0008F708061808385E393E00E94CD13DF9109
:10480000CF911F910F910C94972301968770BACF87
:10481000DF91CF911F910F9108950E94C222292FFD
:104820002F70E92FE295EF704E2F50E0FA0132978A
:10483000EE30F105B8F4ED56FF4F0C94BA29803FE5
:1048400099F018F4883E70F40FC0843F59F40CC0FE
:10485000883E50F0813F31F407C0822F86958695BF
:104860008695089580E0089581E008959F92AF9223
:10487000BF92CF92DF92EF92FF920F931F93CF934D
:10488000DF93CDB7DEB761970FB6F894DEBF0FBEEA
:10489000CDBF8C0185E0F801DE011D9601900D92DF
:1048A0008A95E1F7F80190818181E28030913503AA
:1048B00060913603409138035091390341155105F9
:1048C00031F06F3F31F421E03F3F19F403C021E0A4
:1048D00001C020E0F22FF1709F2E20FD23C1F801CE
:1048E000C380D48025E3A22E23E0B22EF0903703BC
:1048F000F601E41BF50BFF2009F4CEC020913A032A
:10490000E83CF10508F099C0422F407F09F051C002
:10491000681311C039130FC0FE2CE1100CC02F70AA
:10492000206120933A03C5010E94CD1380913A0380
:10493000F801858337C1CD2831F08F3F31F421E074
:104940009F3F19F403C021E001C020E020FD03C017
:1049500021E02E2502C020E030E0F22FF170FF2E82
:1049600020FF1DC020916C0340913B0356E02417AB
:1049700009F4F6C030E0529FF001539FF00D11246E
:10498000E45CFC4F6181861306C06081961303C00E
:104990006281E61204C02F5F3F4F2770E8CFFE2CE4
:1049A000EE2009F4FFC080913A03816080933A03BE
:1049B00050C0681307C0391305C0E11003C0F801E7
:1049C00025838DC09D878E878D859E850E940D24B1
:1049D000882369F1EE2059F120913A03822F8295C4
:1049E0008F7090E0029774F08091350390913603B8
:1049F00098878F831986DB86CA862C87CE01079617
:104A00000E94CD1386E0F801A5E3B3E001900D927A
:104A10008A95E1F70E94A1230DC06817E1F09D87F8
:104A20008E878D859E850E940D2481111EC0C80130
:104A30000E94CD13FF24F394B5C0422F407F69F745
:104A400085E393E00E94CD1386E0F50111928A95EB
:104A5000E9F7F12CA7C03913E2CFE110E0CFF8015C
:104A60002583C8010E94CD1357C0EE2001F3209189
:104A70003A03822F82958F7090E002971CF280910A
:104A80003503909136039A8389831B82DD82CC8221
:104A90002E83CE010196B4CFE83CF105E8F5FE2C5B
:104AA000EE2029F2681327C0391325C020913A035C
:104AB00020FD18C0822F82958F70482F50E041153D
:104AC000510581F0F80125834F30510541F08F5F8A
:104AD000982F9295907F822F8F70892B8583C801A4
:104AE0000E94CD1386E0F801A5E3B3E001900D929A
:104AF0008A95E1F757C09D878E878D859E850E9498
:104B00000D2481117FCF80913A03816080933A0315
:104B1000C8010E94CD1346C086E0F50111928A9526
:104B2000E9F740C0EE2009F482CF9D878E878D85FE
:104B30009E850E940D24F82E882309F478CF86E004
:104B4000F801A5E3B3E001900D928A95E1F7809119
:104B50003503909136030E94C2220E94A12322C0F5
:104B60009D878E878D859E850E94C222292F229542
:104B70002F70223028F49F7039F0811105C00BC0CE
:104B8000243028F49F7049F4805E883020F0C801FA
:104B90000E94CD139F2CF92C05C0F8019581907FC0
:104BA00099F7F9CF8F2D61960FB6F894DEBF0FBE3F
:104BB000CDBFDF91CF911F910F91FF90EF90DF90CC
:104BC000CF90BF90AF909F90089510929C03109249
:104BD0009B030E945322EBEEF2E086E0DF011D9280
:104BE0008A95E9F71092E8021092E5021092A30369
:104BF0000E946C2180E090E00E94BC0580E090E083
:104C00000C94A60510929D0386E0EFE2F3E0DF012D
:104C10001D928A95E9F70C94E525882341F080954B
:104C200090919D03892380939D030C9453220895B2
:104C3000882339F090919D03892B80939D030C94D8
:104C4000532208958823E1F19CEF980F913A60F484
:104C5000EDE2F3E09281891301C01282319643E0C4
:104C6000E333F407B9F714C090E2980F983090F44A
:104C7000877021E030E0A90102C0440F551F8A95DA
:104C8000E2F7CA01809590919D03892380939D034B
:104C90000C9453229BE5980F933020F480E090E031
:104CA0000C94BC0598E5980F973120F480E090E0D3
:104CB0000C94A605803F20F00E94EB1F0C946C2101
:104CC0000895CF93882309F459C0C82F8CEF8C0F17
:104CD000813AF8F4EFE2F3E085E393E02191C21723
:104CE00021F08E179F07D1F70EC0EDE2F3E083E3CA
:104CF00093E02281C21301C0128231968E179F0762
:104D0000C1F70E9453226C2F8DE293E00E94BF21D5
:104D100010C080E28C0F883078F4C77081E090E09A
:104D200001C0880FCA95EAF790919D03892B809363
:104D30009D03CF910C945322EBE5EC0FE33040F44C
:104D4000F0E0EB57FE4F808190E0CF910C94BC05D2
:104D5000E8E5EC0FE73150F4F0E0EE0FFF1FE85705
:104D6000FE4F80819181CF910C94A605C03F30F019
:104D70008C2F0E94B220CF910C946C21CF9108957A
:104D8000CF93C82F0E946126C93349F42FEF87EED5
:104D900093E0215080409040E1F700C000008C2F4C
:104DA000CF910C9422268091200387FF11C080911F
:104DB000E80082FD05C0809128038111F8CF11C061
:104DC0008091E8008B770BC080912803882349F0FD
:104DD0008091E80080FFF8CF8091E8008E77809383
:104DE000E8000895982F973068F59093E900981798
:104DF00039F07091EC002091ED005091F00003C06B
:104E0000242F762F50E021FD02C09F5FECCF309120
:104E1000EB003E7F3093EB003091ED003D7F30930F
:104E2000ED003091EB0031603093EB007093EC00BB
:104E30002093ED005093F0002091EE0027FDE5CF88
:104E400080E008958F708093E90081E008952091BB
:104E50002603309127032617370748F0611571059F
:104E600039F42091E8002E772093E80001C0B901C1
:104E7000FC0120E06115710579F1809128038823F8
:104E8000F1F18530F1F18091E80083FD3CC0809123
:104E9000E80082FD2EC08091E80080FFEBCF2091DA
:104EA000F3008091F20090E0922B6115710551F0B2
:104EB0008830910538F421912093F10061507109F7
:104EC0000196F3CF21E0089709F020E08091E800F7
:104ED0008E778093E800CECF2111CFCF0AC080918A
:104EE0002803882361F0853061F08091E80083FD1C
:104EF0000AC08091E80082FFF2CF80E0089582E04E
:104F0000089583E0089581E008958EE14A9B02C0F0
:104F10008150E1F74A9BFECF08955A9880E28A9526
:104F2000F1F75A9A0895FC012AE02A95F1F790E0EA
:104F300020E080E031E0261779F040E14A95F1F772
:104F4000880F4A9B02C08160932700C0000040E1A7
:104F50004A95F1F72F5FEFCF20E12A95F1F729B1BC
:104F600000C0000030E13A95F1F722FB222720F93A
:104F700092272081920F90830895EF92FF920F93D2
:104F80001F93CF93DF931F92CDB7DEB719828C01A9
:104F90007C01E60EF11C0E151F0559F00E948527B5
:104FA00068E0CE0101960E949327F80181938F015A
:104FB000F2CF81E09981911180E00F90DF91CF9144
:104FC0001F910F91FF90EF9008959093A603809307
:104FD000A5036093A403529A5A9A08959093A60346
:104FE0008093A5036093A40352985A9AEA9AE9E63B
:104FF000F0E080818F7C80830895615091E001C052
:10500000990F6A95EAF720E031E0992361F0492F82
:10501000482319F05A9A232701C05A9840E24A952A
:10502000F1F79695F2CF222311F05A9A01C05A98BF
:1050300080E28A95F1F75A980895FF920F931F9393
:10504000CF93DF93EC018C01060F111DC017D10720
:1050500041F0F9900E948D2768E08F2D0E94FD2776
:10506000F5CFDF91CF911F910F91FF9008951F927F
:105070000F920FB60F9211240F931F932F933F930C
:105080004F935F936F937F938F939F93AF93BF9350
:10509000EF93FF93CF93DF931F92CDB7DEB71982C3
:1050A0000E94852767E0CE0101960E949327382F42
:1050B000369536953695932F96959570232F2570B6
:1050C000920F292F2370969596958770920F8913CA
:1050D00048C08981811145C08091A403831708F4D9
:1050E00040C080E18A95F1F75A9A529AA2E0AA95B7
:1050F000F1F700C00091A5031091A603B8E03B9F13
:10510000000D111D11245A98F8016581662321F0C4
:10511000868197810E941D280E948D27F0E1FA95D3
:10512000F1F75A9852985A9A80E18A95F1F7D80186
:1051300012966C911297662369F013968D919C914B
:1051400014970E94BD27D801ED91FC91811105C0F3
:1051500082E004C0D801ED91FC9188E080830E9438
:1051600085270F90DF91CF91FF91EF91BF91AF9184
:105170009F918F917F916F915F914F913F912F916F
:105180001F910F910F900FBE0F901F9018950F93C6
:105190001F93CF93DF932091A40330E028173907A2
:1051A0000CF471C09C0193E0220F331F9A95E1F734
:1051B000C091A503D091A603C20FD31FF894529AB1
:1051C0005A9845E04A95F1F70000982F969595700A
:1051D0008570890F982F937086958695890F890120
:1051E000082B0E948D2784E08A95F1F700C067E0C4
:1051F000802F0E94FD2740E14A95F1F752985A9A74
:105200004A9902C000C0FCCF87E090E04A9B0EC0E4
:10521000019751F4529A5A9AE881F98181E080838A
:10522000789481E090E031C000C0F0CF6D816623BA
:1052300081F08E819F810E94BD2781110AC0529A00
:105240005A9AE881F98182E08083789482E090E044
:105250001CC00E94852780E28A95F1F75A98529ADD
:1052600040E14A95F1F76A81662321F08B819C81A8
:105270000E941D280E948D27E881F9811082789470
:1052800080E090E002C084E090E0DF91CF911F9138
:105290000F910895F999FECF92BD81BDF89A992793
:1052A00080B50895A6E1B0E044E050E00C94842974
:1052B000A8E1B0E042E050E00C948429262FF9994F
:1052C000FECF92BD81BDF89A019700B4021639F065
:1052D0001FBA20BD0FB6F894FA9AF99A0FBE089536
:1052E0000396272F0E945F290E945E29252F0E9486
:1052F0005F29242F0C945F290196272F0E945F2994
:105300000C945E29DC01CB01FC01F999FECF06C0AB
:10531000F2BDE1BDF89A319600B40D924150504073
:10532000B8F70895AA1BBB1B51E107C0AA1FBB1FFA
:10533000A617B70710F0A61BB70B881F991F5A9521
:10534000A9F780959095BC01CD01089597FB072E94
:1053500016F4009407D077FD09D00E94922907FC2B
:1053600005D03EF4909581959F4F08957095619575
:105370007F4F0895EE0FFF1F0590F491E02D0994E3
:105380006927962769277827872778270895FC01BA
:105390004150504030F001900616D1F73197CF01BF
:0C53A0000895882799270895F894FFCFFE
:1053AC0006040000000603000000060200000006D0
:1053BC000100000001090A0B0C0D0E0F1011120058
:1053CC0050005050C00200C00206BA02B90208B127
:1053DC0002000000013666631FBF1FA01F9C1F98B0
:1053EC001F01000102020202060606090909090949
:1053FC000909090909C6343332350000000000944C
:10540C00F4F5F6F7319700FF0100010000FFFF00F3
:10541C0000010001FF00402281C1069F061E0613F9
:10542C00072C074C07818283E200E900EA00B500F3
:10543C00B600B700CD008301CC008A019201940123
:10544C002102230224022502260227022A02B3008B
:06545C00B4006F007000B7
:00000001FF
