:100000000C94B0060C94F7060C94F7060C94A02EF2
:100010000C94F7060C94F7060C94F7060C94F7066C
:100020000C94F7060C94F7060C942D230C9469227B
:100030000C94CA260C94F7060C94F7060C94F70659
:100040000C94F7060C94F7060C94F7060C94F7063C
:100050000C94F7060C9453260C94F7060C94F706B0
:100060000C94F7060C94F7060C94F7060C94F7061C
:100070000C94F7060C94F7060C94F7060C94F7060C
:100080000C94F7060C94F7060C94F7060C94F706FC
:100090000C94F7060C94F7060C94F7060C94F706EC
:1000A0000C94F7060C94F7060C94F7067E0D810D60
:1000B0009D0DAA0DB10DD10DD40D080E250EC30E48
:1000C000CD0E300E320E360E5A0E7B0E7E0E810E87
:1000D000A40E9A1B9A1BD41BD41B271C431CD51D92
:1000E000D51D4E1C2C1D3D1D3D1D151E3F1E441EC5
:1000F000491E4E1E531E581E5D1E621E671E6C1E3C
:10010000731E781E7B1E58195819581958197E1ECF
:100110005819712098204B2298204B22E420072167
:100120004B2208221822A329A329B629B629AC29D3
:10013000B629B629B629A329A329B129B629B629F2
:10014000B12900DA02818FD9F1DB40A4A62EAF00DD
:10015000A0C000A1C800AED580A81FD300408D1458
:100160002000783C1E1E140A05004C454400005532
:100170006E646566003474680033726400326E64C5
:1001800000317374004C41594552000080818283D4
:100190008485868788898A8B8C8D8E8F90919293A7
:1001A00094A0A1A2A3A4A5A6A7A8A9AAABACADAEF2
:1001B000AFB0B1B2B3B4C0C1C2C3C4C5C6C7C8C969
:1001C000CACBCCCDCECFD0D1D2D3D40000AE00019B
:1001D0000101010101010101020202020202020207
:1001E00002030303030303030304040404040404D9
:1001F000050505050506060606060707070707089D
:10020000080808090909090A0A0A0B0B0B0C0C0C4F
:100210000D0D0D0E0E0E0F0F0F10101111111212E9
:1002200013131414151516161717181819191A1A66
:100230001B1B1C1D1D1E1E1F2020212222232424C7
:10024000252626272829292A2B2C2D2D2E2F303103
:100250003232333435363738393A3B3C3D3E3F4015
:100260004142434445464748494A4C4D4E4F505100
:100270005354555658595A5B5D5E5F6162646566BA
:1002800068696B6C6D6F7072737577787A7B7D7E41
:100290008082838587888A8C8E8F91939596989A91
:1002A0009C9EA0A2A3A5A7A9ABADAFB1B3B5B7BAA9
:1002B000BCBEC0C2C4C6C9CBCDCFD1D4D6D8DBDD7D
:1002C000DFE2E4E7E9EBEEF0F3F5F8FAFDFFFFAA71
:1002D0007F55402223252628292A2C2D2F303233E2
:1002E0003536383A3B3D3E4042434547494A4C4EFD
:1002F0005051535557595A5C5E6062646668696B29
:100300006D6F71737577797B7D7F81838587898A2E
:100310008C8E90929496989A9C9E9FA1A3A5A7A834
:10032000AAACAEAFB1B3B4B6B8B9BBBCBEBFC1C264
:10033000C3C5C6C7C9CACBCCCDCED0D1D2D2D3D4F7
:10034000D5D6D7D7D8D9D9DADADBDBDBDCDCDCDC15
:10035000DCDDDDDDDDDCDCDCDCDCDBDBDBDADAD9E3
:10036000D9D8D7D7D6D5D4D3D2D2D1D0CECDCCCB65
:10037000CAC9C7C6C5C3C2C1BFBEBCBBB9B8B6B483
:10038000B3B1AFAEACAAA8A7A5A3A19F9E9C9A9813
:10039000969492908E8C8A89878583817F7D7B79E4
:1003A000777573716F6D6B6968666462605E5C5AC5
:1003B0005957555351504E4C4A4947454342403E88
:1003C0003D3B3A3836353332302F2D2C2A2928261A
:1003D00025232229001E001F0020002100220023C7
:1003E000002B0014001A000800150017000000E0A0
:1003F0000004001600070009000A000000E1001DCB
:10040000001B000600190005000000E0000151E299
:10041000002C002C0012500000240025002600278C
:10042000002D002E0031001C0018000C00120013DB
:10043000002F0030000B000D000E000F00330034C1
:1004400000280011001000360037003800E50001D8
:100450005112502C002C00E600E70035002A000164
:10046000003A003B003C003D003E003F00390001E7
:1004700000C25CC55CC75CC95C000001000100C330
:100480005CC65CC85CCA5C000001000100010001A0
:100490000001000100000001000100010001000155
:1004A00000010000004000410042004300440045BC
:1004B00000490001000100460047004800520001C9
:1004C00000010001004A004B0050004F00010001F4
:1004D0000001004D004E005100010001000100012B
:1004E000000100010001004C00010029001E001F56
:1004F0000020002100220023002B0014001A000815
:1005000000150017000000E00004001600070009B5
:10051000000A000000E1001D001B00060019000594
:10052000000000E0000151E2002C002C00135000FC
:100530000024002500260027002D002E0031001C7D
:100540000018000C00120013002F0030000B000DEB
:10055000000E000F00330034002800110010003698
:100560000037003800E500015113502C002C00E644
:1005700000E70035002A0029001E001F002000218E
:1005800000220023002B0014001A00080015001799
:10059000000000E00004001600070009000A000047
:1005A00000E1001D001B000600190005000000E02E
:1005B000000151E2002C002C001050000024002506
:1005C00000260027002D002E0031001C0018000C12
:1005D00000120013002F0030000B000D000E000F62
:1005E00000330034002800110010003600370038B6
:1005F00000E500015110502C002C00E600E700350A
:10060000002A0000AF000000000000000000000011
:100610000000000000000000007E0F00D4FFFFFF7C
:10062000C70000007800000000000000002A2B280E
:1006300000000000000000000000000000000000BA
:1006400029000000002C1E342021222434262725D6
:100650002E362D3738271E1F20212223242526330E
:1006600033362E37381F0405060708090A0B0C0D10
:100670000E0F101112131415161718191A1B1C1D22
:100680002F3130232D350405060708090A0B0C0D00
:100690000E0F101112131415161718191A1B1C1D02
:1006A0002F3130354C05010902A10185020901A154
:1006B0000005091901290515002501950575018118
:1006C0000295017503810105010930093115812564
:1006D0007F95027508810609381581257F9501757A
:1006E000088106050C0A38021581257F95017508D9
:1006F0008106C0C005010980A101850319012AB73F
:1007000000150126B700950175108100C0050C0980
:1007100001A101850419012AA002150126A0029554
:100720000175108100C00660FF0961A10109621511
:100730000026FF009520750881020963150026FF39
:1007400000952075089102C005010906A101050761
:1007500019E029E715002501950875018102950129
:10076000750881010507190029FF150026FF00956E
:10077000067508810005081901290595057501917F
:1007800002950175039101C009025B00030100A0FD
:10079000FA0904000001030101000921110100010F
:1007A0002240000705810308000A09040100020332
:1007B0000000000921110100012222000705820327
:1007C00020000107050303200001090402000103C2
:1007D00000000009211101000122810007058403A6
:1007E00020000A12011001000000083839343602D6
:1007F00000010203010403300000000A03520065F7
:100800000036003400000012036B007500730068AE
:100810000069006D00610038000000040309040055
:1008200000000000003E5B4F5B3E003E6B4F6B3EA6
:10083000001C3E7C3E1C00183C7E3C18001C577D72
:10084000571C001C5E7F5E1C0000183C180000FF57
:10085000E7C3E7FF00001824180000FFE7DBE7FF0D
:100860000030483A060E00262979292600407F05E7
:10087000050700407F05253F005A3CE73C5A007FB2
:100880003E1C1C0800081C1C3E7F0014227F221402
:10089000005F5F005F5F0006097F017F00006689DF
:1008A000956A0060606060600094A2FFA2940008F6
:1008B000047E04080010207E20100008082A1C086E
:1008C00000081C2A0808001E10101010000C1E0C36
:1008D0001E0C0030383E383000060E3E0E0600007A
:1008E000000000000000005F00000000070007009B
:1008F00000147F147F1400242A7F2A120023130877
:1009000064620036495620500000080703000000CA
:100910001C224100000041221C00002A1C7F1C2ACE
:100920000008083E08080000807030000008080831
:100930000808000000606000002010080402003E6B
:100940005149453E0000427F4000007249494946F6
:10095000002141494D33001814127F1000274545EE
:100960004539003C4A494931004121110907003607
:100970004949493600464949291E00000014000033
:100980000000403400000000081422410014141438
:100990001414000041221408000201590906003E07
:1009A000415D594E007C1211127C007F4949493645
:1009B000003E41414122007F4141413E007F494983
:1009C0004941007F09090901003E41415173007FFF
:1009D0000808087F0000417F4100002040413F019E
:1009E000007F08142241007F40404040007F021CED
:1009F000027F007F0408107F003E4141413E007F9E
:100A000009090906003E4151215E007F0919294666
:100A10000026494949320003017F0103003F40405D
:100A2000403F001F2040201F003F4038403F0063F0
:100A300014081463000304780403006159494D430A
:100A400000007F41414100020408102000004141A4
:100A5000417F000402010204004040404040000089
:100A600003070800002054547840007F284444388D
:100A700000384444442800384444287F0038545403
:100A800054180000087E09020018A4A49C78007F76
:100A9000080404780000447D4000002040403D00F0
:100AA000007F102844000000417F4000007C047853
:100AB0000478007C0804047800384444443800FC7E
:100AC000182424180018242418FC007C08040408A6
:100AD0000048545454240004043F4424003C404043
:100AE000207C001C2040201C003C4030403C004446
:100AF00028102844004C9090907C004464544C444E
:100B00000000083641000000007700000000413678
:100B10000800000201020402003C2623263C00FFDC
:100B2000FFFFFFFFFFFFFFFFFFFFFFFFFFFFFFFFD5
:100B3000FFFFFFFFFFFFFFFFFFFFFFFFFFFFFFFFC5
:100B4000FFFFFFFFFFFFFFFFFFFFFFFFFFFFFFFFB5
:100B5000FFFFFFFFFFFFFFFFFFFFFFFFFFFFFFFFA5
:100B6000FFFFFFFFFFFFFFFFFFFFFFFFFFFFFFFF95
:100B7000FFFFFFFFFFFFFFFFFFFFFFFFFFFFFFFF85
:100B8000FFFFFFFFFFFFFFFFFFFFFFFFFFFFFFFF75
:100B9000FFFFFFFFFFFFFFFFFFFFFFFFFFE0F0F0A2
:100BA000F0E0ECEEF7F37020007C7C7C7E007E7E33
:100BB0007E7F7F7F000080C0E07E5B4F5BFEC000D9
:100BC00000C000DCD7DEDEDED7DC00C000000000A5
:100BD000000000000000000000000000000000FF16
:100BE000FFFFFFFFFFFFFFFFFFFFFFFFFFFFFFFF15
:100BF000FFFFFFFFFFFFFFFFFFFFFFFFFFFFFFFF05
:100C0000FFFFFFFFFFFFFFFFFFFFFFFFFFFFFFFFF4
:100C1000FFFFFFFFFFFFFFFFFFFFFFFFFFFFFFFFE4
:100C2000FFFFFFFFFFFFFFFFFFFFFFFFFFFFFFFFD4
:100C3000FFFFFFFFFFFFFFFFFFFFFFFFFFFFFFFFC4
:100C4000FFFFFFFFFFFFFFFFFFFFFFFFFFFFFFFFB4
:100C5000FFFFFFFFFFFFFFFFFFFFFFFFFF0F1F3F34
:100C60007F7F7F7F7F3F1E0C001F1F1F3F003F3F86
:100C70003F7F7F7F00307B7F7830202030787F3B44
:100C80000003000F7F0F0F0F7F0F00030000000015
:100C9000000000000000000000000000000000FF55
:100CA000FFFFFFFFFFFFFFFFFFFFFFFFFFFFFFFF54
:100CB000FFFFFFFFFFFFFFFFFFFFFFFFFFFFFFFF44
:100CC000FFFFFFFFFFFFFFFFFFFFFFFFFFFFFFFF34
:100CD000FFFFFFFFFFFFFFFFFFFFFFFFFFFFFFFF24
:100CE000FFFFFFFFFFFFFFFFFFFFFFFFFFFFFFFF14
:100CF000FFFFFFFFFFFFFFFFFFFFFFFFFFFFFFFF04
:100D0000FFFFFFFFFFFFFFFFFFFFFFFFFFFFFFFFF3
:100D1000FFFFFFFFFFFFFFFFFFFFFFFFFF000000E0
:100D200000000000000000000000000000000000C3
:100D300000000000000000000000000000000000B3
:100D400000000000000000000000000000000000A3
:100D50000000000000000000000000000000000093
:100D600011241FBECFEFDAE0DEBFCDBF04B603FE15
:100D700027C080910A0690910B06A0910C06B091B5
:100D80000D068730904BA740B04BD1F410920A0665
:100D900010920B0610920C0610920D0614BE84B72A
:100DA000877F84BF0FB6F894A89580916000886112
:100DB00080936000109260000FBEE0E0F8E30995B8
:100DC00026E0AEECB1E001C01D92AA30B207E1F717
:100DD00011E0A0E0B1E0E2EBF6E602C005900D9272
:100DE000AE3CB107D9F70E94F9060C9457330C9426
:100DF0000000CF93DF93CDB7DEB7AE970FB6F89470
:100E0000DEBF0FBECDBF84B7877F84BF0FB6F89417
:100E1000A8958091600088618093600010926000C6
:100E20000FBE90E080E80FB6F89480936100909335
:100E300061000FBE85B7806885BF85B7806885BFB4
:100E40000E94AD220E94CC228091E20084608093B7
:100E5000E200789480917C038823A1F01091E9004E
:100E60001F709091EC00892F817090FD80E8182B05
:100E70001092E9008091E80083FD0E948B1F1F7093
:100E80001093E90082E084BD93E095BD9AEF97BD91
:100E900080936E002198299A259A2D9805E00A954D
:100EA000F1F7000083B18695817025982D9A10EA9C
:100EB0001A95F1F78093150180911501882321F08F
:100EC0001092000188E203C088E2809300018093C1
:100ED00001010E94CF13882331F062E070E085E0C9
:100EE00091E00E944E2E809115018091150188237A
:100EF00011F090E001C095E09093E90185E0891B35
:100F00008093E801A1E5B1E041E050E08D91E82F48
:100F1000E295EF70F0E021A18F70BA0102C0660F78
:100F2000771F8A95E2F7CB01962F9095922391A394
:100F300092A1892B82A371E0A635B70739F7ABE5FB
:100F4000B1E042E651E061E070E08D91E82FE2957A
:100F5000EF70F0E021A18F708B0102C0000F111F14
:100F60008A95E2F7C801902F9095922391A392A1C0
:100F7000892B82A34A175B0741F7EEEDF1E0AFE55D
:100F8000B2E011921D9211E0E83EF107D1F70E9404
:100F9000A1168FE39CE90197F1F700C000000E94C1
:100FA000A11680915F0280FF0AC080E00E948E112E
:100FB0006FEF7FEF80E090E00E94EE2FFAC680E0B6
:100FC00090E00E94CA2F8C3E9E4F11F00E941E2777
:100FD0000E94CF13811106C062E070E085E091E0CD
:100FE0000E94572E82E290E00E94BC2F813281F451
:100FF00083E290E00E94BC2F893051F484E290E0BB
:101000000E94BC2F91E0833209F090E0892F01C04B
:1010100080E080FFF5C60E94CF13882311F083E0A3
:1010200001C080E080933A0280FD02C080E801C0E8
:1010300080E2809381030E94092D6DE070E085E5D8
:1010400091E00E94621F892B09F043C080913A020F
:1010500063E070E081FD3AC082E591E00E94621F8A
:10106000892BB9F56DE070E082E491E00E94621F87
:10107000892B79F50E948826DC01CB01805A9541A5
:10108000AF4FBF4F80933C0290933D02A0933E022E
:10109000B0933F02E4E8F3E080E092E0DF018C01EE
:1010A0001D9201501040E1F7F0938B05E0938A0503
:1010B0008FEF9FEF909383038093820381E080936F
:1010C00041028093400210923B0203C08FE491E002
:1010D000C5CF80E090E00E94CA2F8C3E9E4F11F059
:1010E0000E941E2782E090E00E94BC2F80934F0256
:1010F0000E940D279093EB018093EA0183E090E03A
:101100000E94BC2F682F70E080E090E00E941129BF
:101110008091EC0181113BC080E090E00E94CA2FD9
:101120008C3E9E4F21F00E941E270E94B71388E03C
:1011300090E00E94C42F60935A0270935B028093E8
:101140005C0290935D028091FC0183608093FC01BE
:101150006E7F71F40E94B71388E090E00E94C42F64
:1011600060935A0270935B0280935C0290935D02DD
:101170000E9480120E94B21180915A0280FF04C026
:1011800060E086950E943A1681E08093EC018091A0
:101190001501811106C086E38093170186E68093CE
:1011A000160120911701A22FA295AF70B0E0919681
:1011B0003C9191972F7081E090E0AC01022E01C02C
:1011C000440F0A94EAF7542F5095352391963C9397
:1011D000919792963C919297432B92964C9392972B
:1011E00040911601E42FE295EF70F0E031A14F70CD
:1011F000042E01C0880F0A94EAF7982F9095932344
:1012000091A392A1892B82A390968C9190E002C029
:10121000959587952A95E2F7817020A130E002C06C
:10122000359527954A95E2F720FF02C092E001C06C
:1012300090E0892B809301029091150181E098271D
:1012400090930002891B8093ED018FE191E09093D0
:10125000EF018093EE01BE016F5F7F4F7B01CE01F6
:101260000D969CA78BA722242394312C80917C037C
:10127000853009F03AC080917C03843021F11092CE
:10128000F00120E488E190E00FB6F894A8958093EF
:1012900060000FBE2093600083B7817F846083BFAE
:1012A00083B7816083BF7894889583B78E7F83BF2F
:1012B0000FB6F894A89580916000886180936000D3
:1012C000109260000FBE80917203882309F4CECF84
:1012D0000E94A11689E692E0EFE5F2E0219121114A
:1012E00070C58E179F07D1F7C1CF0E94A116B82EE7
:1012F0000E94CF138823A1F1E0E5F2E0AFE5B2E070
:1013000000E010E0302F2D919191922721F180E0A3
:10131000DD24D3944D2D4923D1F089A33AA32D2167
:1013200081E009F480E08BA30E9494268160782FED
:101330009DA38CA349A15AA16BA18DA10E94F10F7D
:10134000F801E05BFD4F8081D826D08219C08F5F05
:10135000DD0C8730F9F60F5F1F4F0A30110591F64B
:101360008FEF8EA38FA318A60E9494268160782FFA
:101370009AA789A74EA15FA168A58AA50E94F10F2F
:101380008091FB01882309F47DC08091FA01E091EE
:101390005A02E695E81BE093F601823059F4F0E03A
:1013A000EB59FE4FE4910E2F10E0ADE4CA2EA2E1FE
:1013B000DA2E13C0863059F4F0E0EE59FE4FE49176
:1013C0000E2F10E0FDE3CF2EF2E1DF2E06C000ED80
:1013D00017E0E7E1CE2EEFE0DE2E8091F7018823C3
:1013E00089F01092F7010E9494269801209530957B
:1013F000820F931F9093F5018093F4011092F901ED
:101400001092F8018091F4019091F5010E947926E3
:1014100080179107B8F18091F3018823B1F0109201
:10142000F3018091F1019091F2010E9479268033BD
:10143000954758F00E9494269093F2018093F10111
:101440008091FC0188608093FC018090F80190906D
:10145000F901E091F401F091F5010E0F1F1F1093B7
:10146000F5010093F40184EF91E0F6010995809174
:10147000F8019091F901892B29F4892819F081E06C
:101480008093F30180910102E82FEE0FEE0F80911F
:101490001701A82FA295AF70B0E090962C9130E084
:1014A0008F7002C0359527958A95E2F72170332712
:1014B00080911601A82FA295AF70B0E090964C9144
:1014C00050E08F7002C0559547958A95E2F7CA01A2
:1014D0008170992740FF02C082E090E0822B932B1D
:1014E0008E2B80930102109100028F70E82FF0E0A4
:1014F000EE59FE4F90818091FF01890F8093FF018B
:1015000084306CF0E12F012E000CFF0BE350FE4FF6
:1015100080818F5F808360E0812F0E947B158091A6
:10152000FF018D3F6CF4E12F012E000CFF0BE35007
:10153000FE4F80818150808361E0812F0E947B1566
:101540008091FF01837887FF03C081508C6F8F5F8C
:101550008093FF0180914102882309F49CC104E833
:1015600013E010938B0500938A050E94CF13882304
:1015700009F48EC08BE891E00E943F1F85E891E05E
:101580000E943F1F60917D0370917E0380917F03D5
:10159000909180030E948127813059F038F0823089
:1015A00069F0833071F485E791E005C081E891E04E
:1015B00002C08DE791E00E943F1F07C089E791E0DC
:1015C000FACF8FE691E00E94191F8EE691E00E940B
:1015D0003F1F8AE691E00E943F1F89E691E00E944A
:1015E0003F1F0E9478121F928F9325E331E03F93B3
:1015F0002F931F9216E01F9364E172E07F936F9325
:101600000E945F3084E192E00E94271F80915B027C
:101610001F928F93ACE3B1E0BF93AF931F921F93E0
:101620002EE032E03F932F930E945F308EE092E0F5
:101630000E94271F80915C021F928F9363E471E0E8
:101640007F936F931F921F93A8E0B2E0BF93AF9375
:101650000E945F3088E092E00E94271F80915D0227
:101660001F928F938AE491E09F938F931F921F9311
:1016700082E092E09F938F930E945F300FB6F894C0
:10168000DEBF0FBECDBF82E092E00E94271F04C0E4
:101690008CE891E00E94191F20918203309183030E
:1016A0002115310509F4D7C080913B028111D3C0C7
:1016B000482E512C6101082E02C0CC0CDD1C0A946E
:1016C000E2F7A60142235323452B11F48F5FF0CF9D
:1016D00090913A02920175E0220F331F7A95E1F75B
:1016E00090FD12C08295880F807680931A01220F98
:1016F000232F221F330B319520931D01815E809390
:101700001B0110921E0112C055E0369527955A957F
:10171000E1F7220F220F220F20931A0110921D01D0
:10172000295F20931B0183E080931E0124E630E0B3
:1017300047E050E068E171E088E70E94962D892B30
:1017400009F089C080913A0280FD23C0C20145E0C2
:10175000880F991F4A95E1F7AC014C575C4F04E69E
:1017600010E020E230E060E488E70E94BD2D892B84
:1017700009F071C00E94C510C094D094809182037A
:1017800090918303C822D922D0928303C09282030E
:1017900062C080E2AAE1B2E01D928A95E9F735E0E5
:1017A000440C551C3A95E1F7E6E7F1E0FEA7EDA7FA
:1017B00062E771E0ADA5BEA58D91BEA7ADA7FB0107
:1017C0009191BF01A201490F511D4C575C4F90E010
:1017D000865E9D4FFC0127E0922E9F01281B390B4E
:1017E000722C01C0770C2A95EAF78A01812CD80166
:1017F000AD908D01A720292D28192770622E022E69
:10180000000C330BBA2D01C0BB0F6A94EAF76B2EA4
:101810003195219531092770332701C0A6942A9567
:10182000EAF76A28A0806A286082839428E08212FE
:10183000DECF9A9431963FEF9312CFCF8DA59EA520
:101840008A57914009F0B6CF04E610E020E230E07C
:101850004AE152E088CF809140028823E1F00E9463
:10186000882600913C0210913D0220913E02309169
:101870003F02DC01CB01801B910BA20BB30BB7FD28
:101880000AC062E070E08CEC91E00E94621F892B3C
:1018900011F410924002B1100E94C51086E0E8E4F5
:1018A000F2E0D70101900D928A95E1F7C0904A02CB
:1018B000D0904B0200914C0210914D0210924A02BE
:1018C00010924B0210924C0210924D02C11003C0B4
:1018D000DD2009F451C080914602909147020E9498
:1018E00079269C0190914502992309F496C22333ED
:1018F000310508F441C09F3F19F09F5F9093450266
:10190000CC2061F00E94BA251C1414F491E001C0AF
:101910009FEF899F802D112480934A02DD2061F082
:101920000E94BA251D1414F491E001C09FEF899F15
:10193000802D112480934B0230914A023323E1F031
:1019400020914B022223C1F045EB3403C001112446
:10195000992319F090934A0203C081E080934A02D0
:1019600065EB2603C0011124992319F090934B02D3
:1019700003C081E080934B02011103C0112309F4DD
:1019800051C080914302909144020E9479269C01AB
:1019900090914202992309F445C22536310508F495
:1019A00041C09F3F19F09F5F90934202002361F076
:1019B0000E949825101614F491E001C09FEF899FB2
:1019C000802D112480934C02112361F00E949825F0
:1019D000111614F491E001C09FEF899F802D11240E
:1019E00080934D0230914C023323E1F020914D025F
:1019F0002223C1F075EB3703C0011124992319F09C
:101A000090934C0203C081E080934C0235EB23039A
:101A1000C0011124992319F090934D0203C081E075
:101A200080934D0280914A0281110BC080914B023C
:101A3000811107C080914C02811103C080914D0239
:101A400081110E94A026CB82DC820D831E8386E05A
:101A5000F701A8E4B2E001900D928A95E1F70E94A7
:101A6000B91090914E02891721F00E94B91080930D
:101A70004E0280917C03843009F0F8CB83E08093A0
:101A8000E9008091E80082FFF1CB8091E80085FFBA
:101A90001FC00E940624811119C000E210E06701F6
:101AA00008C08091F100D6018D936D01015011099C
:101AB00069F08091E80085FDF4CF8091E8008B7794
:101AC0008093E8000E940624882399F391E001C0E6
:101AD00090E08091E8008B778093E800992309F4E7
:101AE000C5CBE9818E2F90E0FC013197E331F10500
:101AF00008F061C1EA5AFF4F0C9438301A8289E02D
:101B00009FC08A81823009F472C1833051F08130E4
:101B100009F051C10E9488269B838C837D836E834C
:101B20004CC1FE013396AFE5B2E08D9181930BA5D8
:101B30001CA5E017F107C9F740C18A81823009F07E
:101B40003AC16B817C818D819E810E943E3085E20D
:101B500090E024C04C816B818A810E945B119D833F
:101B60004DC1CD80DE80DC24CD24DC248C810B8132
:101B70009A812EE0029F800111243CE8939F000D82
:101B8000111D1124080F111D080F111D6D2DC80105
:101B900086960E94D02F6C2DC80187960E94D02F68
:101BA0000CC10E94271109C18A818138B1F050F41B
:101BB000803809F002C120E04B8160915C02809185
:101BC0005B0223C08238E9F0833809F0F6C020E0D8
:101BD00040915D026C818B8118C060E08B810E9416
:101BE0003A168B81811103C00E946112E6C0809178
:101BF0005A02816080935A0260E086950E943A16EC
:101C0000DCC08B8180935E02D8C00E94AC12D5C02C
:101C10008A81813899F030F4803809F0CEC0809103
:101C20005D020EC0823871F0833809F0C6C0809121
:101C30005B028B8380915C028C83BFC00E94781210
:101C40008B83BBC080915E02FBCF60915A02709182
:101C50005B0280915C0290915D020E949A12ADC07D
:101C600080E14DC081E08A838AEAEACF0A811B8144
:101C7000102701271027AC80B12C6701C8018A5AB0
:101C80009D4F96012E193F092A153B0508F095C076
:101C90000A3A41E0140730F40E94BC2FD601149692
:101CA0008C9302C0F60114820F5F1F4FFFEFCF1A13
:101CB000DF0AE4CF0A811B81102701271027AC809F
:101CC000B12C6701C8018A5A9D4F96012E193F0910
:101CD0002A153B0508F071C00A3A21E0120728F4E2
:101CE000D60114966C910E94D02F0F5F1F4FBFEF4B
:101CF000CB1ADB0AE7CF0E9417115FC084E08A830A
:101D00005CC00A811B81102701271027AC80B12CF1
:101D10006701C801869696012E193F092A153B05D1
:101D200008F04BC00033E2E01E0730F40E94BC2FE5
:101D3000D60114968C9302C0F60114820F5F1F4FD8
:101D4000FFEFCF1ADF0AE5CF0A811B811027012799
:101D50001027AC80B12C6701C801869696012E1918
:101D60003F092A153B0548F5003322E0120728F405
:101D7000D60114966C910E94D02F0F5F1F4FBFEFBA
:101D8000CB1ADB0AE9CF80E00E948E116FEF7FEF64
:101D900080E090E00E94EE2F10C0C7010E946524F1
:101DA000EFEFF1EE04E0E150F0400040E1F700C059
:101DB00000000E9442268FEF8983C7010E9465249C
:101DC00055CA80E189BD82E189BD09B400FEFDCF1D
:101DD0008091D8008F7D8093D8008091E000826050
:101DE0008093E0008091E00081FDFCCF3FCA85E256
:101DF00090E00E94BC2F1B821C821D828E83DDCF4F
:101E000060E085E290E00E94D02F0E9427110E949E
:101E1000171181E00E948E11FEC82D32314008F06A
:101E20006CCDAACD2D32314008F0BDCDFBCD08954B
:101E3000AF92BF92CF92DF92EF92FF920F931F93D8
:101E4000CF93DF93E82EF62EE901E42FF0E0611145
:101E500006C0E253FE4FE4914E2F2E2F71C0062F85
:101E600010E0E253FE4F4491F42FC42ED12C26E013
:101E7000829FC00111242FEF30E0B9010E94103081
:101E80005BEA5603C001579F900D11248E0D911DE2
:101E90008E0D911D582F550F580FD901A01BB10B56
:101EA000AC9DC001AD9D900DBC9D900D1124E92FFE
:101EB000F59ED0011124AB2FBB277901EA1AFB0A4A
:101EC000EC9CD001ED9CB00DFC9CB00D112459018F
:101ED000A51AB108A09E7001A19EF00CB09EF00C56
:101EE0001124EF2CFF242E193F092C9D80012D9DDC
:101EF000100D3C9D100D1124212F6230710591F0C1
:101F000048F461157105E1F061307105B9F4242FD1
:101F10004B2F16C06430710569F040F066307105D2
:101F200079F00CC0242F492FE12F0AC0492FEF2F41
:101F30002B2F06C0292FE42F412F02C0292FEB2F72
:101F400049832883EA83DF91CF911F910F91FF90FE
:101F5000EF90DF90CF90BF90AF9008959091EA01FD
:101F600092FF0DC0282F2871283019F4877F8460D4
:101F700006C0282F2471243011F48B7F886093FFD2
:101F80000DC0282F2871283119F4877E846106C07E
:101F9000282F2471243111F48B7E88612091EB016C
:101FA00020FF0DC0382F3871383019F4877F8160D9
:101FB00006C0382F3171313011F48E7F886021FFD7
:101FC0000DC0282F2871283119F4877E816106C041
:101FD000282F2171213111F48E7E886194FD877E36
:101FE00008951F93CF93DF93CDB7DEB767970FB6F2
:101FF000F894DEBF0FBECDBF4B8B5C8B6D8B7E8BA1
:102000008F8B86E09E01235F3F4FD901E82F1D9201
:10201000EA95E9F795E0FE017396D90101900D92DA
:102020009A95E1F7F901DE01179601900D928A95D4
:10203000E1F7CE0107960E94BA2981113EC086E0E1
:10204000FE013796DE01119601900D928A95E1F717
:10205000FF81E8856A857B856115710531F0EF3F69
:1020600031F481E0FF3F19F403C081E001C080E05A
:1020700080FD23C020919A0530E0C9010196877048
:1020800099274091CB0550E08417950779F1F983A2
:10209000EA837D836C8396E0929FD001939FB00D7D
:1020A0001124A556BA4FFE01319601900D929A95D2
:1020B000E1F780939A050E941B2916E08091CB05D9
:1020C00090919A058917F9F0189FC001112485563F
:1020D0009A4F0E94BA298823B1F08091CB0590E0F5
:1020E0000196877099278093CB05E8CF0E94862BB5
:1020F00010929A051092CB05E4E9F5E086E0DF0145
:102100001D928A95E9F767960FB6F894DEBF0FBE69
:10211000CDBFDF91CF911F9108952091620330913F
:1021200063032817390771F0909363038093620368
:10213000E091EE01F091EF01309721F00084F185FC
:10214000E02D0994089520916003309161032817D0
:10215000390771F09093610380936003E091EE0181
:10216000F091EF01309721F00680F781E02D09947E
:102170000895E091EE01F091EF01309721F0019088
:10218000F081E02D099480E008950E948826DC010A
:10219000CB01805A9541AF4FBF4F80933C02909343
:1021A0003D02A0933E02B0933F0280914002811114
:1021B0000BC062E070E083E096E00E94621F892B12
:1021C00019F481E080934002809140020895CF93FA
:1021D000E82F20918A0530918B0524583340409197
:1021E0008103642F70E0C9010E941030481B842FC6
:1021F000EE2351F066E00E940430C82FC150A8F0D1
:1022000080E20E94991EFACFA901480F511D411585
:10221000524018F080E020E030E0280F311D2C57AC
:102220003C4F30938B0520938A05CF910895CF932F
:10223000DF93C6E5D2E060E0CE010E94D02F219668
:10224000C11584E0D807B9F7DF91CF910895CF92F7
:10225000DF92EF92FF920F931F93CF93DF93C0E033
:10226000D0E08E0104571F4F6E018EE0C80ED11CC6
:10227000FE01ED52FC4FE590F4906F2DCE01869655
:102280000E94D02F6E2DCE0187960E94D02F2296CD
:10229000CC15DD0569F70C171D0731F7E801003390
:1022A0001240F9F6DF91CF911F910F91FF90EF90BF
:1022B000DF90CF9008950F931F93CF93DF93C42F98
:1022C000D0E0CC0FDD1F2EE0629FC00DD11D112488
:1022D0003CE8839FC00DD11D1124CE0186960E943B
:1022E000BC2F082F10E0102F0027CE0187960E94E8
:1022F000BC2F9801282BC901DF91CF911F910F911D
:102300000895462F843038F47A3028F4673018F472
:10231000672F0C945B1180E090E00895CF93C82F55
:10232000811102C06FEF01C061E282E290E00E9481
:10233000D02FC11102C06FEF01C069E083E290E0CD
:102340000E94D02FC11102C06FEF01C063E284E28E
:1023500090E0CF910C94D02F882311F0FA0101C0A6
:10236000FB010994EAEFF1E01182828184608283AB
:1023700008953091010180915A0280FF16C0E091CA
:10238000000163E0E69FF0011124E259FD4F539AEA
:102390008BB1877F9BB198602FB7F894AF0163E052
:1023A000369F400D511D112414C08091020190915F
:1023B0000301891720F7E82FF0E0AF01440F551F04
:1023C000E40FF51FE259FD4F1182108212828F5FD8
:1023D000F0CFE417F50789F0319168E09BB9000070
:1023E00000C037FF8BB9330F000000C000C000C031
:1023F0008BB900C06A9591F7ECCF2FBF8FE594E0C1
:102400000197F1F700C00000089590915A0290FFE3
:1024100016C09091020120910301921770F4E92FE8
:10242000F0E0DF01AA0FBB1FEA0FFB1FE259FD4FCF
:102430008183608342839F5FF0CF0C94B91108952C
:10244000CF93DF9300D01F92CDB7DEB790915A02A1
:1024500090FF0DC0413708F040E79E012F5F3F4FCE
:102460000E94180F4B8169818A810E9405120F908A
:102470000F900F90DF91CF910895CF93DF93EC01F0
:10248000EAE5F2E0438162818C810E9420128C8116
:102490008F5F8C83DF91CF910895CF93DF93EC0111
:1024A000EC81F0E0ED52FD4F4491EAE5F2E062810B
:1024B00081810E9420128C818F5F8C83DF91CF916C
:1024C0000895EAE5F2E080818E7F80830E94B21158
:1024D000EAEFF1E08281816082832FEF80E792E072
:1024E000215080409040E1F700C000000C94B911E9
:1024F00080915A0280FF02C08695089580E0089579
:1025000080915A02282F269530E02115310519F4C3
:102510008170826005C02331310524F081708462AE
:1025200080935A0280915D02813718F080E7809392
:102530005D020895CF92DF92EF92FF926B017C01D2
:102540000E948012B701A60188E090E0FF90EF9012
:10255000DF90CF900C94E22FAF92BF92CF92DF9298
:10256000EF92FF920F931F93CF93DF9300D01F92B0
:10257000CDB7DEB7082FF62E142FE22E80915A0227
:1025800080FF83C0E82FE695AE2FB0E0A658BE4F7F
:102590009C919093FA018E7F823081F4413708F04C
:1025A00040E79E012F5F3F4F6F2D802F0E94180F35
:1025B0004B8169818A810E94051244C0923019F4CE
:1025C00010915D023FC0963019F400915B023AC051
:1025D0009930C1F5E9508E2F8170D82EE695F0E044
:1025E000E253FD4FA590B490C12CBB24609104012F
:1025F000C61630F52C2D30E0A29EC001A39E900D92
:10260000B29E900D112470E00E941030802FD110E6
:1026100002C0860F01C0861B90910201290F311D57
:10262000A901440F551F240F351F22593D4F412F3B
:10263000113708F040E76F2D0E94180FC394D6CFD2
:102640000E94B91180915B02081308C080915C025E
:10265000F81204C080915D02181729F08091FC01E6
:1026600082608093FC0100935B02F0925C02109305
:102670005D02EE2051F060915A0270915B028091F0
:102680005C0290915D020E949A120F900F900F9041
:10269000DF91CF911F910F91FF90EF90DF90CF903E
:1026A000BF90AF900895EAE5F2E0438121E1421B3B
:1026B00008F440E021E0628181810C94AC12EAE5EB
:1026C000F2E0438121E1420F08F44FEF21E0628103
:1026D00081810C94AC12EAE5F2E0628121E1621B97
:1026E00008F460E021E0438181810C94AC12EAE5BA
:1026F000F2E0628121E1620F08F46FEF21E0438193
:1027000081810C94AC12EAE5F2E0818121E0438101
:10271000628188500C94AC12EAE5F2E0818121E0FC
:1027200043816281885F0C94AC1280915E028823A1
:1027300019F0815080935E0260915A0270915B02A1
:1027400080915C0290915D020C949A1280915E02DD
:10275000833018F48F5F80935E0260915A0270910B
:102760005B0280915C0290915D020C949A12EAE502
:10277000F2E083E0808311828FEF828380E783839E
:102780001482AAEFB1E012968C9112978360129690
:102790008C9360817181828193810C949A128091D3
:1027A0006D02811112C08091D80080618093D800A1
:1027B0008AE18A95F1F700C08091D90080FD02C0BE
:1027C00082E001C081E080936D0281E090916D0212
:1027D000913009F080E00895CF93DF930E9481113A
:1027E000EC018238910559F1A0F48133910509F487
:1027F00073C040F48932910509F467C08A9709F4DF
:1028000072C084C08533910509F458C0C997B9F0E6
:102810007DC0833E910571F138F4803E9105B1F0A1
:10282000823E910511F172C0863E9105B9F1873E55
:102830009105C9F1843E910509F068C024C08091DA
:10284000EA0180FD5DC081FD5BC060C08091EA014E
:1028500080FD50C08091EB0180FF49C18091EA0169
:1028600084FD43C1C3EED0E042C18091EA0182FF02
:102870003EC1F4CF8091EA0182FD3FC08091EB011F
:1028800080FD3EC0EBCF8091EB0181FF30C1809194
:10289000EA0184FD2AC1C7EED0E029C18091EA0196
:1028A00083FF25C1F4CF8091EA0183FD2CC0809184
:1028B000EB0181FFECCFC4EED0E019C18091EA01B9
:1028C00085FF15C1C9E2D0E012C18091EA0185FF00
:1028D0000EC1C5E3D0E00BC18091EA0186FF07C1BC
:1028E000CAE2D0E004C18091EA0186FF00C1C1E3E1
:1028F000D0E0FDC0C9E3D0E0FAC0C2EED0E0F7C03E
:10290000C0EED0E0F4C0C6EED0E0F1C0C11581E564
:10291000D80708F066C0C11520E5D207E0F0CE0167
:1029200074E0969587957A95E1F783709C2F937064
:1029300021E030E002C0220F331F9A95E2F73C6895
:10294000382BCF70C695C69540E2C49FE001112494
:10295000C22BD32BCCC0C83ED10560F5C03ED105FB
:1029600008F0C5C0C83AD105B0F4C53AD10540F069
:10297000C55AD0E0C456DE4FC881D0E0D064B7C09D
:10298000C130D10509F4B3C008F4AFC0C430D105DB
:1029900008F4ABC0ACC0CF3BD10508F0A6C0C85A04
:1029A000D0E0CC0FDD1FC156DE4F0990D881C02D7D
:1029B000D4649DC0C11540E2D40758F4C11581E02C
:1029C000D80708F094C0C03FD10508F48EC0D06588
:1029D0008EC0C11520E4D20708F487C0DF70D06A2A
:1029E00086C0C11545E5D40708F042C0C11584E58D
:1029F000D80728F0DC2FCC27C46FD06A78C0C11567
:102A000023E5D207B0F0CE018370992721E030E0B2
:102A100002C0220F331F8A95E2F78C2F8695869588
:102A200040E2849FC0011124E901C82BD92BDA6848
:102A30005EC0C11542E5D40728F4DC2FCC27C16F56
:102A4000D06A55C0CE018370992721E030E002C0E2
:102A5000220F331F8A95E2F78C2F8695869540E2E8
:102A6000849FC0011124E901C82BD92BDC683FC029
:102A7000C11589E5D807B8F4C11528E5D20728F0B3
:102A8000DC2FCC27C06FD06A32C0C11546E5D40711
:102A900060F58C2F0E94AE0F8F71C82FD0E0DC2F15
:102AA000CC27D06224C0C1158AE5D80780F48C2FCA
:102AB0008F700E94AE0F94E0D695C7959A95E1F776
:102AC000CF70D0E0DC2FCC27D069C82B10C0CE014E
:102AD00090568115904248F48D2F8F710E94AE0F51
:102AE000DD27D0628F71D82B02C0C0E0D0E0CE01CC
:102AF000DF91CF910895262F811114C060917D033D
:102B000070917E0380917F0390918003211105C015
:102B10000E94812746E061E01AC00E94812746E0BA
:102B200062E015C08130B9F460917D0370917E033D
:102B300080917F0390918003211105C00E9481271D
:102B400046E063E004C00E94812746E064E00E9402
:102B50005B110C94442C08950F931F93CF93DF9334
:102B6000C42FD22FFC0182818823C9F040936403D3
:102B70000E94942690935F0380935E0380E28C0F03
:102B8000883008F057C0C77081E001C0880FCA952F
:102B9000EAF7DF91CF911F910F910C949C2B8091BC
:102BA0006403481330C080915E0390915F030E94DC
:102BB0007926883C910538F510E21D0FCD17B9F044
:102BC00080E28C0F883040F4C77081E001C0880F2C
:102BD000CA95EAF70E94912B183028F581E09D2FC5
:102BE000977001C0880F9A95EAF70E949C2B802F5E
:102BF0000E94442C1830F0F4D77081E001C0880F97
:102C0000DA95EAF70AC080E28C0F883098F4C77032
:102C100081E001C0880FCA95EAF7DF91CF911F913B
:102C20000F910C94912B802FDF91CF911F910F91D9
:102C30000C94442CDF91CF911F910F9108956091D6
:102C40005A02669570E04BE050E089E291E00E9404
:102C50004530892B19F481E08093FB010E94942672
:102C60009093F5018093F4018091FC01846080933E
:102C7000FC01089590915A0290FF3BC09170811120
:102C800002C0926006C0833110F0946202C0880FC7
:102C9000982B90935A028091FC0181608093FC01F3
:102CA000662351F060915A0270915B0280915C0240
:102CB00090915D020E949A1260915A02669570E0AE
:102CC0004BE050E089E291E00E944530892B19F0F9
:102CD0000E94B21102C00E941F1681E08093F7018A
:102CE00020E040915D0260915C0280915B020C9457
:102CF000AC12089580915A028695815009F482E1C0
:102D000061E00C943A1680915A0286958F5F833168
:102D100008F081E061E00C943A16CF93DF93C82F5E
:102D2000D62F0E9478128C1730F08D1720F4DF9187
:102D3000CF910C94831661E08C2FDF91CF910C948E
:102D40003A166F927F928F929F92AF92BF92CF92DC
:102D5000DF92EF92FF920F931F93CF93DF9361E582
:102D600071E00EED11E023EEE22E21E0F22E3801AB
:102D7000C0E0AA24A394B12CDB018D91BD01E82F02
:102D8000E295EF70F0E021A18F70A50102C0440F21
:102D9000551F8A95E2F7CA01242B21A322A1942E64
:102DA0009094292122A350EA5A95F1F79BE5C92E68
:102DB00091E0D92E20E030E0D0E0D6018D906D0179
:102DC000482D42954F7050E0DA0190964C9150E0BA
:102DD000B82DBF7002C055954795BA95E2F740FDF2
:102DE00007C04A2D022E01C0440F0A94EAF701C021
:102DF00040E0D42B2F5F3F4F27303105F1F691A1F2
:102E0000992291A292A1892B82A3F3018081D817E4
:102E100019F0D08381E001C080E0C82BFFEF6F1A6A
:102E20007F0AE614F70409F0A7CFD090E901CC237C
:102E300049F081E080936B020E94942690936A028D
:102E40008093690280916B028823A9F080916902C6
:102E500090916A020E947926069768F0ED2DF0E0C5
:102E6000E15AFD4FD8018D918D018193EA16FB0641
:102E7000C9F710926B020E94CF13882309F463C034
:102E80001091E8018091FC018823E9F085E0EAE5F2
:102E9000F2E0AEECB1E001900D928A95E1F78091FD
:102EA000FA019091FB01A091FC018093D3019093D2
:102EB000D401A093D50181E090E00E94302F892BAE
:102EC00011F41092FC0180E090E00E94302F892BD9
:102ED00009F094C0E12FF0E0E15AFD4F80E090E06E
:102EE000DC01A952BE4F2C912193019685309105AA
:102EF000B9F7D091ED018D2F90E0FC01E350FE4F2A
:102F00007F011091DC018081181B012F101654F4F1
:102F10000150D7018C918F5F8C9360E08D2F0E94C0
:102F20007B15F4CF812F17FD80E0181B112309F4C6
:102F300062C01F5FF70180818150808361E08D2F27
:102F40000E947B15F3CFE091E9010E2F10E08091F4
:102F5000D6018830C9F58091D50180FF12C08091DB
:102F6000CE0180FF0CC080915A02816080935A028A
:102F70008091CE0160E086950E943A1602C00E94C0
:102F800061128091D50181FF09C020E04091D101FB
:102F90006091D0018091CF010E94AC128091D50147
:102FA00082FF09C08091D401882319F00E941F1666
:102FB00002C00E94B2118091D50183FF03C081E05D
:102FC0008093F7011092D601F801E15AFD4F80E09D
:102FD00090E02191DC01A952BE4F2C9301968530DF
:102FE0009105B9F7E0910002F0E0E350FE4F8081D7
:102FF0008093DC0116C010926C0213C080916C02A9
:103000008F5F80936C02863060F0E091E801F0E021
:10301000E15AFD4F80E090E01192019685309105D4
:10302000D9F78C2FDF91CF911F910F91FF90EF90E7
:10303000DF90CF90BF90AF909F908F907F906F90D8
:1030400008955F926F927F928F929F92AF92BF92FC
:10305000CF92DF92EF92FF920F931F93CF93DF9364
:10306000CDB7DEB729970FB6F894DEBF0FBECDBF40
:10307000FC018081918123813481232B31F09F3F9A
:1030800031F491E08F3F19F403C091E001C090E06A
:1030900090FD39C67F0185E0DE01119601900D9209
:1030A0008A95E1F7F701228189819A81222349F0EB
:1030B0000E940428182F682F89819A810E947D28F8
:1030C00003C00E945128182F69817A81812F0E94A4
:1030D00081118C01F7019281992309F4DFC09801D5
:1030E00022513F452031310508F004C18FEF93E0B4
:1030F0000E94BC2F8111DCC0025136E5832E32E0E4
:10310000932E002379F08114F4E09F0609F4D0C0D7
:10311000C4010E94BC2F811101C001501FEF811A10
:10312000910AEFCF1E821F82188619866624639447
:103130002AE0522E84010F5F1F4FC4010E94BC2F52
:103140008E831F82882309F4B3C09FEF980F9330BA
:1031500060F48F836E8222E0820E911CC8010E946F
:10316000BC2F8887811102C0A3C048018E010A5F6D
:103170001F4FF80120812223E9F2213009F04CC0D1
:103180008181813049F46801F2E0CF0ED11CF80151
:1031900082810E94442C0AC0823051F46801F2E01E
:1031A000CF0ED11CF80182810E94E52B860173C0ED
:1031B000833049F46801F2E0CF0ED11CF80182811E
:1031C0000E94A62BF3CF843019F00F5F1F4F63C00E
:1031D000F80122810E5F1F4F80E090E030E0205325
:1031E00031092A30310568F4589EA001599E500DCE
:1031F0001124C901840F951F0F5F1F4FF801208113
:10320000EDCF009709F447C0EFE9FFE03197F1F700
:1032100000C000000197F5CFE22FF0E0EB5DF94F21
:103220007490822F86958695869590E0FC01EB5EE2
:10323000F94FA4902770B12C022E02C0B594A79428
:103240000A94E2F7F1E0AF22BB24FC01EB5FF94FF7
:10325000C490D12C02C0D594C7942A95E2F721E0FE
:10326000C222DD24A114B10419F081EE0E94E52BE5
:10327000C114D10419F086EE0E94E52B872D0E941F
:10328000442CCD2819F086EE0E94A62BAB2819F00D
:1032900081EE0E94A62B0F5F1F4F6BCF00313FE5E1
:1032A000130709F0B5C481E00E94B2280E94441FB0
:1032B0008091F905877009F426C5F701828188237A
:1032C00009F421C582E029960FB6F894DEBF0FBE3F
:1032D000CDBFDF91CF911F910F91FF90EF90DF90C5
:1032E000CF90BF90AF909F908F907F906F905F90A6
:1032F0000C94D7280031FFE51F0711F481E005C0C9
:1033000001312FE5120721F482E00E94F028CECF90
:10331000033FFCE51F0749F406E221EE40EE63EFB0
:103320007CE5C7010E94AC15C3CF043F2CE5120712
:1033300008F04AC1083D3CE5130731F407E225EEE9
:1033400045EE68ED7CE5EDCF093D8CE5180731F4DD
:1033500008E221E045EE69ED7CE5E3CF073DECE5D1
:103360001E0731F406E221EE41EE67ED7CE5D9CF90
:10337000992309F45EC11092640302303CE51307FF
:1033800008F441C106318CE5180738F098012A5F2E
:103390003C452930310508F036C10E940D27909335
:1033A000EB018093EA0100319CE5190709F4C3C0E1
:1033B00008F041C00830FCE51F0709F49AC0F0F49A
:1033C00004303CE5130709F487C068F402309CE53B
:1033D000190709F477C003301C4509F0E5C0809156
:1033E000EA01826076C00630FCE51F0709F46EC072
:1033F00008F07BC08091EA0188606BC00C303CE52E
:10340000130709F485C068F40A309CE5190709F42C
:1034100074C008F079C00E94862B8091EA01806810
:1034200058C00E30FCE51F0709F476C008F07FC0D5
:103430008091EA018BC00B3F3CE5130709F44FC0B4
:1034400018F503319CE5190709F47DC078F40131C2
:10345000FCE51F0709F473C002311C4509F0A4C044
:103460000E94862B8091EA018F7733C005313CE5BD
:10347000130709F472C008F486C00A3F1C4509F01E
:1034800093C08091EB013EC00F3FECE51E0709F4AD
:103490005FC058F40D3F2CE5120709F444C008F44E
:1034A0003FC08091EB0182602DC001308DE518078F
:1034B00009F475C008F45DC002301D4509F074C000
:1034C00060E06EC08091EA01816003C08091EA01F2
:1034D00080618093EA0168C08091EA0111C0809107
:1034E000EB0182608093EB015FC08091EA01806212
:1034F000F0CF8091EA018064ECCF8091EA0188608E
:103500008460E7CF8160EECF8091EA018E7FE1CFCA
:103510008091EA018D7FDDCF8091EA01877FD9CF4D
:103520008091EB0118C08091EB018D7FDBCF809102
:10353000EA018F7ECECF8091EA018F7DCACF809144
:10354000EA018F7BC6CF8091EA01877F8B7FC1CF55
:103550008091EB018D7F8E7FC5CF8091EA0182FB48
:10356000222720F991E0922790FB82F990FB83F9C2
:10357000B0CF8091EB01982F909591708E7F892B21
:1035800090FB81F9AFCF0E94862B8091EA0187FBE7
:10359000222720F991E0922790FB87F99ACF61E0EA
:1035A0008EE090E00E94D02F6091EA011091EB0133
:1035B00084E090E00E94D02F612F81E290E00E9491
:1035C000D02F0E94862B74CE053FFCE51F0731F4F7
:1035D00006E221EE42EE65EF7CE5A3CE053F2CE549
:1035E000120730F407E225EE44EE64EF7CE599CE55
:1035F000063F3CE5130709F0BBCE07E225EE46EE99
:1036000066EF7CE58ECE06318CE5180751F580918A
:10361000FC058A7A91E009F490E090936503882391
:1036200011F065E301C069E28CE895E00E94F326A1
:1036300015C00631ECE51E0759F580916503882316
:1036400009F4EDC285E3ECE8F5E09281891301C04D
:103650001282319605E0E239F007B9F70E94D727C8
:1036600027CE01158CE5180731F00E3D1C45D1F42D
:103670000E941E271DCE0E94862BFFEF04E31CE054
:10368000F15000401040E1F700C000000E944226C7
:103690008091FC058272F801E25CFC45E431F105A1
:1036A00008F4BFC2F70100811181992349F0C801D4
:1036B0000E940428D82E682FC8010E947D2804C0CB
:1036C000C8010E945128D82EB8018D2D0E94EC13FC
:1036D0008C01982EF701A580A2949FE0A922D280A8
:1036E000D1101092FB058091F905877099F0DD20CB
:1036F00089F0812F807F803421F080E2800F883034
:1037000048F082E00E94D7288091F9058770CC2488
:10371000C3948111C12CB12EB2948FE0B8228B2DAD
:1037200090E08C30910508F040C2FC01E759FF4F52
:103730000C943830812F807F1F70882311F01295F0
:10374000107FDD20B9F0112309F41AC280E2800F46
:10375000883010F0911006C08091FC05182B109352
:10376000FC0505C08091FB05182B1093FB050E94FA
:10377000D72706C2802F0E94A62B112309F415C259
:10378000005E1095083010F0911006C08091FC0585
:1037900018231093FC0505C08091FB051823109396
:1037A000FB050E94D72701C2812F807F1F708032C6
:1037B00011F01295107F992021F0F1E09F16E1F0B1
:1037C0002AC0DD2081F08091FD05AA2051F001E0A2
:1037D000A01207C0182B181709F4E7C11093FD05B4
:1037E000E4C1812B10C0AA2021F021E0A21609F427
:1037F000DCC10E94D12727C0DD2041F035E03A1519
:1038000008F4D3C1812F0E949C2BCFC184E08A157C
:1038100008F4CBC118C0DD2049F0AA2099F3F701C4
:10382000858180FFADC18F708583ECCFAA2059F0D0
:10383000093309F0B7C1FFEF17EE23E0F150104054
:103840002040E1F7ADC1812F0E94912BAEC1812FA5
:1038500086958695837019F0813059F0A6C1DD20D8
:1038600019F0C801937002C080E090E00E94A3109C
:10387000A2C1DD2019F0C801937002C080E090E081
:103880000E948D1098C1802FDD2019F00E94DA254A
:1038900002C00E9413250E94A0268DC1812F837033
:1038A00009F069C0D11085C1902F929596959770B7
:1038B000990F990F802F8F70882E912CA12CB12CED
:1038C000092E04C0880C991CAA1CBB1C0A94D2F7B0
:1038D00004FF12C04FE050E060E070E004C0440F0D
:1038E000551F661F771F9A95D2F7DB01CA01809595
:1038F0009095A095B09503C080E090E0DC0116950E
:103900001695412F4370423019F1C8F40091FE051D
:103910001091FF052091000630910106413059F0C9
:1039200088299929AA29BB29BC01CD0160237123CB
:10393000822393230AC0802A912AA22AB32ABC0197
:10394000CD01682979298A299B290E94112931C131
:1039500088299929AA29BB290091FE051091FF0504
:103960002091000630910106BC01CD01602771272E
:1039700082279327EACFDD2019F0812F817001C0C3
:103980008695882309F415C1902F92959695977086
:10399000990F990F802F8F70882E912CA12CB12C0C
:1039A000092E04C0880C991CAA1CBB1C0A94D2F7CF
:1039B00004FF12C04FE050E060E070E004C0440F2C
:1039C000551F661F771F9A95D2F7DB01CA018095B4
:1039D0009095A095B09503C080E090E0DC0116952D
:1039E0001695412F43704230D9F068F500917D0360
:1039F00010917E0320917F0330918003413059F074
:103A000088299929AA29BB29BC01CD0160237123EA
:103A1000822393231EC0802A912AA22AB32A13C08C
:103A200088299929AA29BB2900917D0310917E0339
:103A300020917F0330918003BC01CD016027712765
:103A40008227932706C0BC01CD01682979298A29DC
:103A50009B290E94A828ADC01F70DD2039F0812F5E
:103A60000E94F028802F0E949C2BA3C0802F0E94D0
:103A7000912B812F0E94B2289CC0802F32EF931689
:103A800009F440C0391538F090EF991661F0E1EF74
:103A90009E1699F170C0F3EF9F16D9F124EF92169C
:103AA00009F44EC068C0DD2019F134E03A1508F47D
:103AB0007CC01F7181E090E0A0E0B0E0AC01BD01EE
:103AC00004C0440F551F661F771F1A95D2F78091C7
:103AD0007D0390917E03A0917F03B09180038A01C2
:103AE0009B01082719272A273B27C901B80125C0B0
:103AF00025E02A1508F459C0DCCFDD2029F0812FFC
:103B00008F712CC0DD20D9F3812F8F710E94B228D4
:103B10004CC0DD2079F01F7181E090E0A0E0B0E0C2
:103B2000BC01CD0104C0660F771F881F991F1A952D
:103B3000D2F703C060E070E0CB010E94A82835C036
:103B4000DD2079F01F71812F0E94F02838E0139F4B
:103B5000C001112483608093F905812F0E94F02811
:103B600024C081E00E94D72881E08A15F0F482E029
:103B70000E94D7281AC0DD2039F0AA2009F4BFCF4F
:103B8000802F0E94E52B11C0AA2009F4BDCF8933F4
:103B900049F49FEFE7EEF3E09150E040F040E1F7A9
:103BA00000C00000802F0E94A62B88EF8B0D843070
:103BB00010F40E94B910CC2009F4A5C08091F90539
:103BC00080FDA1C0F70112828595859585950E949B
:103BD000F028C7010E9421188091F90585958595E7
:103BE000859529960FB6F894DEBF0FBECDBFDF9145
:103BF000CF911F910F91FF90EF90DF90CF90BF90EA
:103C0000AF909F908F907F906F905F900C94B228B0
:103C100001318FE5180709F07BCB82E045CB89E2C3
:103C200012CDEB58FF4F0C94383080915A0280FF30
:103C300020C08E7F80935A0260915A0270915B027D
:103C400080915C0290915D020E949A120E94B211D2
:103C50008091FC0181608093FC011FEF20E732E03E
:103C6000115020403040E1F700C000000E94B9111F
:103C70001FCB816080935A0261E0869536C04AE787
:103C800056E163E876E12CC043E856E16AE776E165
:103C900027C043E853E16CE873E122C04CE853E1EC
:103CA00063E873E11DC04BE653E167E773E118C0B9
:103CB00047E753E16BE673E113C043E553E16FE57A
:103CC00073E10EC04FE553E163E573E109C045E9D7
:103CD00053E166EA73E104C046EA53E165E973E142
:103CE0000E94AC11E5CA61E081E00E943A16E0CA88
:103CF00065E082E005C068E086E002C062E189E03C
:103D00000E948D16D5CA29960FB6F894DEBF0FBE55
:103D1000CDBFDF91CF911F910F91FF90EF90DF907A
:103D2000CF90BF90AF909F908F907F906F905F905B
:103D30000895CF93DF938A3011F481E003C08D3072
:103D400029F480E0DF91CF910C94E710682F8091E7
:103D50008A0590918B0526E0FC01A4E8B5E001906E
:103D60000D922A95E1F7603E30F026E0FC011192B9
:103D70002A95E9F70AC0F6E06F9FB0011124615E51
:103D8000774F46E050E00E94B32FC0918A05D09152
:103D90008B0546E050E0BE0184E895E00E94523079
:103DA000892B49F19E0124583340A90185E056959D
:103DB00047958A95E1F781E090E0BC0102C0660F6B
:103DC000771F4A95E2F74091820350918303462B77
:103DD000572B2A5F3F4F65E0369527956A95E1F7A7
:103DE00002C0880F991F2A95E2F7842B952B909398
:103DF0008303809382039E012E57334040918103B9
:103E0000642F70E0C9010E941030481B463010F446
:103E1000240F311D211582E0380710F020E030E03A
:103E20002C573C4F30938B0520938A05DF91CF911F
:103E30000895CF93DF93EC01FE018491882321F054
:103E40000E94991E2196F8CFDF91CF9108950F938C
:103E50001F93CF93DF93EC01FC0101900020E9F761
:103E60008F0101501109C017D10720F489910E94D8
:103E7000991EF9CFDF91CF911F910F9108950E9464
:103E8000191F81E00C94E7100F931F9380917D031D
:103E900090917E03A0917F03B09180038C019D01DE
:103EA0000670112722273327BC01CD0106301105EA
:103EB0002105310511F4686001C0677F1F910F91E2
:103EC0000C94A828EF92FF920F931F93CF93DF9348
:103ED000EC017B0164E670E088E70E940F2D8C0105
:103EE000EC0EFD1ECE15DF0561F017FD0AC0FE01C8
:103EF000849164E670E00E94662D8C012196892BE6
:103F000089F30E94EA2DC801DF91CF911F910F9193
:103F1000FF90EF9008951F93CF93DF93CDB7DEB757
:103F2000AA970FB6F894DEBF0FBECDBFE4E7F3E06B
:103F30008091F100819343E0EC37F407C9F7809159
:103F40007503833009F462C030F4813071F082303F
:103F500009F49CC0B3C08A3009F488C08B3009F4DE
:103F60006DC0893009F0AAC020C080917403813AE5
:103F700009F0A4C08091E800877F8093E8008091D9
:103F8000780390917903892B21F468E089E693E026
:103F900003C060E080E090E070E00E94AB2C809174
:103FA000E8008B778093E80089C0809174038132A8
:103FB00009F084C08091780390917903009719F0FB
:103FC000029709F07BC08091E800877F8093E8002A
:103FD0008091E80082FD05C080917C038111F8CFBB
:103FE0006DC02091F3008091F20090E0922B029737
:103FF00029F48091F1008B7F813021F48091F100D0
:10400000809368038091E8008B7754C0809174039B
:10401000813A09F053C08091780390917903892BFC
:1040200009F04CC08091E800877F8093E800809180
:10403000E80080FFFCCF8091340137C08091740389
:104040008132E1F58091780390917903892BB1F564
:104050008091E800877F8093E8000E94572C809130
:104060007603809334010E94862B28C080917403CC
:10407000813221F58091E800877F8093E8000E94DB
:10408000572C809177038093670318C08091740345
:10409000813AA1F48091E800877F8093E8008091C5
:1040A000E80080FFFCCF809167038093F10080914E
:1040B000E8008E778093E8000E94572C8091E800FA
:1040C00083FFE9C18091740390917503492F50E0FB
:1040D0004A30510508F0DFC1FA01E757FF4F0C9451
:1040E0003830803821F0823809F0D5C108C080917D
:1040F000710390917203992389F082600FC08091BF
:1041000078038F70873008F0C6C18093E9008091F2
:10411000EB0085FB882780F91092E9009091E80078
:10412000977F9093E8008093F1001092F1007CC19A
:10413000282F2D7F09F0AFC1882319F0823061F05C
:10414000AAC180917603813009F0A5C1933009F0AE
:1041500080E0809372032EC08091760381112AC083
:10416000809178038F702FEF280F263008F093C1CD
:104170008093E9002091EB0020FF1CC0933021F4D4
:104180008091EB00806214C09091EB00906190935D
:10419000EB0021E030E0A90102C0440F551F8A95D1
:1041A000E2F74093EA001092EA008091EB00886009
:1041B0008093EB001092E9008091E800877F809364
:1041C000E8000E94572C67C1811165C110917603E8
:1041D0001F778091E3008078812B8093E3008091AA
:1041E000E800877F8093E8000E94572C8091E800C8
:1041F00080FFFCCF8091E30080688093E300111181
:1042000002C082E001C083E080937C0344C18058F7
:10421000823008F040C120917603309177032C3D25
:1042200053E0350779F583E08A838AE289834FB7C3
:10423000F894DE01139620E03EE051E2E32FF0E037
:1042400050935700E49120FF03C0E295EF703F5F69
:10425000EF708E2F90E0EA3010F0C79601C0C09644
:104260008D939D932F5F243149F74FBF8091E800D4
:10427000877F8093E8006AE270E0CE0101960E9499
:10428000AB2CC0C08091780390917903432F5527C0
:1042900043305105B1F068F44130510509F40AC1C9
:1042A0004230510509F0F7C08BE590E0E8E8F7E00F
:1042B00057C04132510589F14232510509F43CC0E1
:1042C000EAC0C901992781309105B9F070F08230B8
:1042D0009105D9F0039709F0DEC0E5EFF7E0E4912E
:1042E0008E2F90E0E5EFF7E038C0EBE1F8E0E491E5
:1042F0008E2F90E0EBE1F8E030C0E7E0F8E0E491E9
:104300008E2F90E0E7E0F8E028C0EBEFF7E0E491D3
:104310008E2F90E0EBEFF7E020C08330910508F09E
:10432000BAC0880F991FFC01EA56FE4F0190F08138
:10433000E02D89E090E014C08330910508F0ABC017
:10434000FC01EE0FFF1FE057FE4F0190F081E02DC2
:10435000DC01A357BE4F8C9190E0009709F49BC0FD
:104360002091E800277F2093E80020917A03309184
:104370007B032817390708F4C90140E0009789F149
:1043800020917C03222309F43DC02530D9F12091EE
:10439000E80023FD37C02091E80022FD2FC02091C6
:1043A000E80020FFEBCF4091F3002091F20030E0D5
:1043B000342B009759F02830310540F44491409354
:1043C000F100319601972F5F3F4FF3CF41E0283046
:1043D000310509F040E02091E8002E772093E800B5
:1043E000CDCF4111CDCF0AC080917C03882351F0FD
:1043F000853041F08091E80083FD04C08091E800A1
:1044000082FFF2CF8091E8008B778093E80043C071
:10441000803809F040C08091E800877F8093E800F1
:10442000809173038093F1008091E8008E77C7CE6E
:10443000811131C08091760390917703992702977B
:1044400054F58091E800877F8093E800109176030F
:10445000109373030E94572C111106C08091E30042
:1044600087FD02C081E001C084E080937C0342E0CC
:1044700061EC81E00E94762C42E261EC84E00E94D3
:10448000762C42E261EC82E00E94762C42E260EC03
:1044900083E00E94762C8091E80083FF10C0809119
:1044A000E800877F8093E8008091EB008062809332
:1044B000EB0005C082E190E0E3EEF7E051CFAA9671
:1044C0000FB6F894DEBF0FBECDBFDF91CF911F9125
:1044D00008951F920F920FB60F9211242F933F93BE
:1044E0004F935F936F937F938F939F93AF93BF93FC
:1044F000CF93DF93EF93FF93C091E900CF7080914A
:10450000EC00D82FD17080FDD0E81092E9008091A6
:10451000F000877F8093F00078940E948B1F1092A8
:10452000E9008091F00088608093F000CD2BCF707F
:10453000C093E900FF91EF91DF91CF91BF91AF91CF
:104540009F918F917F916F915F914F913F912F91AB
:104550000F900FBE0F901F901895E8EDF0E080814E
:104560008E7F80831092E2001092DA001092E100B8
:10457000A0EEB0E08C9181608C9380818F778083F6
:1045800019BCA7EDB0E08C918E7F8C9380818F7EDB
:104590008083109266030895CF92DF92EF92FF928C
:1045A0000F931F93CF93DF93C8EDD0E088818F7E68
:1045B0008883E7EDF0E080818160808384E082BFC2
:1045C00081E08093660388818E7F888302EE10E00D
:1045D000F80110821092DA0081EEC82ED12CF6017B
:1045E000108288818F77888388818068888388811A
:1045F0008F7D888319BC10927C03109273031092F4
:1046000072031092710390EEE92EF12CF701808174
:104610008B7F808388818160888342E060E080E0D6
:104620000E94762CF60180818E7F8083F801808144
:1046300081608083808188608083F70180818E7FA4
:104640008083888180618883DF91CF911F910F9152
:10465000FF90EF90DF90CF9008951F920F920FB6CA
:104660000F9211242F933F934F935F936F937F93F8
:104670008F939F93AF93BF93EF93FF938091E1004C
:1046800082FF09C08091E20082FF05C08091E100B5
:104690008B7F8093E1008091DA0080FF2AC08091B7
:1046A000D80080FF26C08091DA008E7F8093DA00E8
:1046B0008091D90080FF18C080E189BD82E189BD69
:1046C00009B400FEFDCF81E080937C0380916603F6
:1046D00081110FC00E94AD220E94CC228091E20085
:1046E00084608093E20005C019BC10927C03109294
:1046F00066038091E10080FF17C08091E20080FF97
:1047000013C08091E2008E7F8093E2008091E200EE
:1047100080618093E2008091D80080628093D8000D
:1047200019BC85E080937C038091E10084FF32C056
:104730008091E20084FF2EC080E189BD82E189BDC5
:1047400009B400FEFDCF8091D8008F7D8093D80002
:104750008091E1008F7E8093E1008091E2008F7E66
:104760008093E2008091E20081608093E20080917A
:104770007303882311F084E007C08091E30087FD74
:1047800002C081E001C083E080937C030E94862BFD
:104790000E94B9108091E10083FF27C08091E20060
:1047A00083FF23C08091E100877F8093E10082E056
:1047B00080937C03109273038091E1008E7F80933D
:1047C000E1008091E2008E7F8093E2008091E20020
:1047D00080618093E20042E060E080E00E94762CFD
:1047E0008091F00088608093F000FF91EF91BF917D
:1047F000AF919F918F917F916F915F914F913F9179
:104800002F910F900FBE0F901F9018952091E400EC
:104810003091E50095E64091EC00842F817040FFD7
:1048200023C08091E80080FD1DC080917C03882317
:1048300099F0853099F08091EB0085FD11C0409191
:10484000E4005091E5002417350729F3915011F049
:104850009A01E1CF84E0089582E0089583E008950D
:1048600081E0089580E008954091E80042FFDDCFA7
:104870000895EF92FF920F931F93CF93DF937C01E4
:104880008B010E940624811119C0E7010115110551
:10489000A1F08091E80085FD0AC08091E8008E7744
:1048A0008093E8000E940624882381F307C0899141
:1048B0008093F10001501109E9CF80E0DF91CF91A1
:1048C0001F910F91FF90EF900895CF9320917C035B
:1048D0002430F9F4C091E900CF703091EC00232F1F
:1048E000217030FD20E8C22B22E02093E9002091C6
:1048F000E80020FF0BC040E050E060E270E00E9462
:1049000039248091E8008E778093E800CF70C093BF
:10491000E900CF910895809168030895CF93DF93C4
:1049200000D01F92CDB7DEB790917C03943011F583
:1049300089837B836A839093E9008FEF9091E800ED
:10494000815095FD06C095ED9A95F1F70000811113
:10495000F5CF8091E80085FF0DC040E050E063E0B6
:1049600070E0CE0101960E9439248091E8008E7794
:104970008093E8000F900F900F90DF91CF910895F2
:10498000BC0184E00C948E24BC0183E00C948E2442
:1049900024E02093E9002FEF3091E800215035FD0D
:1049A00006C035ED3A95F1F700002111F5CF2091C1
:1049B000E80025FF0BC040E050E066E070E00E9498
:1049C00039248091E8008E778093E8000895CF9392
:1049D000DF9321E02093E9002FEF3091E800215090
:1049E00035FD06C035ED3A95F1F700002111F5CF00
:1049F0002091E80025FF14C0EC0140E050E068E0A1
:104A000070E00E9439248091E8008E778093E8005E
:104A100088E0FE01A9E6B3E001900D928A95E1F7E6
:104A2000DF91CF910895803F39F480914B0287FF49
:104A30006AC010924B0267C0813F29F480914B02FB
:104A40001816BCF360C090914A02823F29F497FF88
:104A50005AC010924A0257C0833F19F41916CCF37A
:104A600052C090914C02893F31F419160CF04BC0A2
:104A700010924C0248C08A3F19F497FF44C0F8CF07
:104A80008B3F39F480914D0287FF3DC010924D025B
:104A90003AC08C3F29F480914D021816BCF333C004
:104AA000843F21F4809149028E7F17C0853F21F415
:104AB000809149028D7F11C0863F21F48091490287
:104AC0008B7F0BC0873F21F480914902877F05C00F
:104AD000883F31F4809149028F7E8093490213C050
:104AE0008D3F21F4809106068E7F0BC08E3F21F40E
:104AF000809106068D7F05C08F3F29F480910606C0
:104B00008B7F8093060680914A02811106C08091B6
:104B10004B02811102C01092450280914C0281111A
:104B200006C080914D02811102C010924202089588
:104B30008091060680FD16C081FD16C082FD18C05A
:104B400080914202882391F0883290F428E0829F7D
:104B5000C001112468E270E00E942430862F672B88
:104B600029F007C082E0089584E0089581E0089567
:104B700088E008958091060680FD14C081FD14C070
:104B800082FD16C080914502882381F0843180F433
:104B900022E3829FC001112464E170E00E9424306E
:104BA000862F08958CE0089589E1089585E00895A1
:104BB00082E30895803F21F40E94BA25819504C0C4
:104BC000813F29F40E94BA2580934B020895823FC9
:104BD00021F40E94BA25819504C0833F29F40E94E4
:104BE000BA2580934A020895893F19F40E949825B6
:104BF00005C08A3F31F40E949825819580934C022C
:104C000008958B3F21F40E949825819504C08C3F24
:104C100029F40E94982580934D020895843F21F441
:104C200080914902816017C0853F21F4809149023B
:104C3000826011C0863F21F48091490284600BC0DC
:104C4000873F21F480914902886005C0883F31F494
:104C50008091490280618093490208958D3F21F43B
:104C60008091060681600BC08E3F21F4809106067C
:104C7000826005C08F3F29F480910606846080938E
:104C80000606089587E797E7909301088093000848
:104C90009AE088E10FB6F894A895809360000FBE63
:104CA00090936000FFCF78941F920F920FB60F92EF
:104CB00011248F939F93AF93BF938091020690919D
:104CC0000306A0910406B09105060196A11DB11D31
:104CD0008093020690930306A0930406B093050602
:104CE000BF91AF919F918F910F900FBE0F901F902A
:104CF00018959C014FB7F894809102069091030695
:104D0000A0910406B09105064FBF821B930B089536
:104D10002FB7F89460910206709103068091040603
:104D2000909105062FBF08952FB7F8948091020641
:104D300090910306A0910406B09105062FBF089537
:104D40000E94942620914A02211104C020914B0216
:104D5000222321F0909347028093460220914C0237
:104D6000211104C020914D02222321F0909344028E
:104D700080934302E091EE01F091EF01309749F00A
:104D800082E0809348020480F581E02D88E492E07F
:104D9000099408951F920F920FB60F9211248F93CA
:104DA0009F93AF93BF938091F001811113C08091C5
:104DB000020690910306A0910406B0910506419663
:104DC000A11DB11D8093020690930306A0930406D3
:104DD000B0930506BF91AF919F918F910F900FBE39
:104DE0000F901F9018959C01FC0132969FEF80E078
:104DF0004191461789F09F3F19F4411101C0982F46
:104E00008F5F8630A9F79F3F39F0F901E90FF11D57
:104E100097FDFA95628308950895CF9384E090E01A
:104E20000E94BC2FC82F81E290E00E94BC2F2C2F43
:104E300030E0A901582BCA01CF9108956CEE7EEFA6
:104E400080E090E00E94EE2F60E082E090E00E941F
:104E5000D02F60E083E090E00E94D02F1092FE05FA
:104E60001092FF05109200061092010660E084E0A7
:104E700090E00E94D02F60E081E290E00E94D02F6D
:104E800060E085E090E00E94D02F60E086E090E056
:104E90000E94D02F6FEF87E090E00E94D02F40E07B
:104EA00050E0BA0188E090E00E94E22F60E08DE0DF
:104EB00090E00E94D02F40E050E0BA0188E190E0FD
:104EC0000E94E22F60E087E190E00E94D02F40E056
:104ED00050E0BA018CE190E00E94E22F60E080E2B5
:104EE00090E00E94D02F40E050E0BA018FE090E0C7
:104EF0000E94E22F40E050E0BA0183E190E00C9480
:104F0000E22FCF92DF92EF92FF926C01EE24FF240A
:104F1000C114D104E104F10421F0C701B60120E17C
:104F200001C020E0C72ED82EE92EFF24C114D104E1
:104F3000E104F10419F0285FC701B6016B017C019F
:104F400054E0F694E794D794C7945A95D1F7C114D6
:104F5000D104E104F10419F02C5FC701B6016B0123
:104F60007C0142E0F694E794D794C7944A95D1F730
:104F7000C114D104E104F10419F02E5FC701B60198
:104F8000DC01CB01B695A79597958795892B8A2B40
:104F90008B2B09F02F5F822FFF90EF90DF90CF9047
:104FA00008958091FD0581111092FD05089590915D
:104FB000FC058091FB05892B2091FA05982F922BF7
:104FC00090938C058091FD05882389F0892B80932F
:104FD0008C05EEE8F5E097E080E0915029F0219112
:104FE0002223D9F38F5FF9CF81110E94D127E0915D
:104FF000EE01F091EF01309731F00280F381E02D66
:105000008CE895E009940895BF92CF92DF92EF92D9
:10501000FF920F931F93CF93DF938C01C0907D037A
:10502000D0907E03E0907F03F09080038091FE0596
:105030009091FF05A0910006B0910106C82AD92AD7
:10504000EA2AFB2ACFE1D0E0D701C6010C2E04C02A
:10505000B695A795979587950A94D2F780FD04C0D9
:10506000219790F7B12C07C0BC2EB8018C2F0E945D
:10507000EC130197A9F38B2DDF91CF911F910F9125
:10508000FF90EF90DF90CF90BF900895CF93DF9384
:10509000EC010E940428BE010E94EC13DF91CF9125
:1050A000089527E0929F800D1124682F66956695DC
:1050B0006695982F977085E0689FB001112440E0B5
:1050C00050E080E0FB01E40FF51FE453FA4F20812C
:1050D00030E0092E02C0369527950A94E2F7217038
:1050E0003327042E01C0220F0A94EAF7822B4F5F68
:1050F0005F4F4530510531F7089527E0929F800DAD
:105100001124E82FE695E695E695877051E001C0F9
:10511000550F8A95EAF785E0E89FF0011124E453E2
:10512000FA4F20E030E070E04081CB01022E02C057
:10513000969587950A94E2F7817081958427852357
:10514000842781932F5F3F4F2530310569F70895FC
:1051500060937D0370937E0380937F03909380031D
:105160000C94692B0F931F9341E050E060E070E0D6
:1051700004C0440F551F661F771F8A95D2F74095CC
:1051800050956095709580917D0390917E03A091DC
:105190007F03B09180038A019B01082319232A23EE
:1051A0003B23C901B8011F910F910C94A8282091AD
:1051B000F905809582238093F905982F977079F4EB
:1051C00030E0482F082E000C550B2417350739F016
:1051D0008595859585950E94B2281092F9050895C8
:1051E0000F931F9341E050E060E070E004C0440F73
:1051F000551F661F771F8A95D2F780917D03909186
:105200007E03A0917F03B09180038A019B01082B4C
:10521000192B2A2B3B2BC901B8011F910F910C941C
:10522000A8286093FE057093FF0580930006909375
:1052300001060C94692B8091CB0590919A058917F2
:1052400019F08F5F8770FBCF08950F931F93CF9353
:10525000DF938091990582958F7009F05DC08091F0
:105260009605882309F458C08091CB0510919A05C2
:105270006091940570919505C0919705D09198051E
:1052800091E06F3F09F090E0292F06E0811709F4C3
:1052900043C0209721F07F3F21F030E003C031E090
:1052A00001C0322F90E030FD34C0089FF001099F0B
:1052B000F00D1124DF01A556BA4F11963C911197BC
:1052C000371327C03C91361324C012963C91129795
:1052D00031111FC013964D915C9114974C1B5D0BBF
:1052E000483C5105B0F4809199058F70806180939E
:1052F0009905E056FA4F80818F708061808384E940
:1053000095E00E942118DF91CF911F910F910C948D
:105310001B2901968770BACFDF91CF911F910F9112
:1053200008950E944628292F2F70E92FE295EF70EB
:105330004E2F50E0FA013297EE30F105B8F4ED56F9
:10534000FF4F0C943830803F99F018F4883E70F489
:105350000FC0843F59F40CC0883E50F0813F31F4B7
:1053600007C0822F869586958695089580E00895DA
:1053700081E008959F92AF92BF92CF92DF92EF9219
:10538000FF920F931F93CF93DF93CDB7DEB7619753
:105390000FB6F894DEBF0FBECDBF8C0185E0F801DB
:1053A000DE011D9601900D928A95E1F7F80190813A
:1053B0008181E28030919405609195054091970537
:1053C000509198054115510531F06F3F31F421E0BE
:1053D0003F3F19F403C021E001C020E0F22FF1703B
:1053E0009F2E20FD23C1F801C380D48024E9A22E82
:1053F00025E0B22EF0909605F601E41BF50BFF2098
:1054000009F4CEC020919905E83CF10508F099C057
:10541000422F407F09F051C0681311C039130FC0EB
:10542000FE2CE1100CC02F70206120939905C5015E
:105430000E94211880919905F801858337C1CD28F4
:1054400031F08F3F31F421E09F3F19F403C021E098
:1054500001C020E020FD03C021E02E2502C020E095
:1054600030E0F22FF170FF2E20FF1DC02091CB0500
:1054700040919A0556E0241709F4F6C030E0529F97
:10548000F001539FF00D1124E556FA4F6181861308
:1054900006C06081961303C06281E61204C02F5FCC
:1054A0003F4F2770E8CFFE2CEE2009F4FFC080911B
:1054B000990581608093990550C0681307C039131E
:1054C00005C0E11003C0F80125838DC09D878E873C
:1054D0008D859E850E949129882369F1EE2059F1DE
:1054E00020919905822F82958F7090E0029774F039
:1054F000809194059091950598878F831986DB8616
:10550000CA862C87CE0107960E94211886E0F801F2
:10551000A4E9B5E001900D928A95E1F70E94252952
:105520000DC06817E1F09D878E878D859E850E944E
:10553000912981111EC0C8010E942118FF24F394F3
:10554000B5C0422F407F69F784E995E00E94211899
:1055500086E0F50111928A95E9F7F12CA7C039137D
:10556000E2CFE110E0CFF8012583C8010E942118A5
:1055700057C0EE2001F320919905822F82958F70FC
:1055800090E002971CF280919405909195059A8382
:1055900089831B82DD82CC822E83CE010196B4CF1B
:1055A000E83CF105E8F5FE2CEE2029F2681327C04F
:1055B000391325C02091990520FD18C0822F8295AE
:1055C0008F70482F50E04115510581F0F801258377
:1055D0004F30510541F08F5F982F9295907F822F29
:1055E0008F70892B8583C8010E94211886E0F801FD
:1055F000A4E9B5E001900D928A95E1F757C09D8727
:105600008E878D859E850E94912981117FCF809103
:105610009905816080939905C8010E94211846C0B0
:1056200086E0F50111928A95E9F740C0EE2009F471
:1056300082CF9D878E878D859E850E949129F82E29
:10564000882309F478CF86E0F801A4E9B5E0019059
:105650000D928A95E1F780919405909195050E94AD
:1056600046280E94252922C09D878E878D859E858C
:105670000E944628292F22952F70223028F49F70EF
:1056800039F0811105C00BC0243028F49F7049F413
:10569000805E883020F0C8010E9421189F2CF92CD0
:1056A00005C0F8019581907F99F7F9CF8F2D61960C
:1056B0000FB6F894DEBF0FBECDBFDF91CF911F9123
:1056C0000F91FF90EF90DF90CF90BF90AF909F90A1
:1056D00008951092FB051092FA050E94D727E8E47E
:1056E000F2E086E0DF011D928A95E9F7109245020B
:1056F00010924202109206060E94A02680E090E0DE
:105700000E94A31080E090E00C948D101092FC0594
:1057100086E0EEE8F5E0DF011D928A95E9F70C944A
:10572000692B882341F080959091FC058923809313
:10573000FC050C94D7270895882339F09091FC0537
:10574000892B8093FC050C94D72708958823E1F1D9
:105750009CEF980F913A60F4ECE8F5E092818913A0
:1057600001C01282319645E0E239F407B9F714C05E
:1057700090E2980F983090F4877021E030E0A90112
:1057800002C0440F551F8A95E2F7CA018095909197
:10579000FC0589238093FC050C94D7279BE5980F83
:1057A000933020F480E090E00C94A31098E5980FDB
:1057B000973120F480E090E00C948D10803F20F031
:1057C0000E9413250C94A0260895CF93882309F4F2
:1057D00059C0C82F8CEF8C0F813AF8F4EEE8F5E051
:1057E00084E995E02191C21721F08E179F07D1F728
:1057F0000EC0ECE8F5E082E995E02281C21301C019
:10580000128231968E179F07C1F70E94D7276C2FFF
:105810008CE895E00E94F32610C080E28C0F88305F
:1058200078F4C77081E090E001C0880FCA95EAF76C
:105830009091FC05892B8093FC05CF910C94D72780
:10584000EBE5EC0FE33040F4F0E0E456FE4F8081EE
:1058500090E0CF910C94A310E8E5EC0FE73150F401
:10586000F0E0EE0FFF1FE156FE4F80819181CF9156
:105870000C948D10C03F30F08C2F0E94DA25CF9110
:105880000C94A026CF910895CF93C82F0E94E52BAA
:10589000C93349F42FEF87EE93E0215080409040C8
:1058A000E1F700C000008C2FCF910C94A62B8091C3
:1058B000740387FF11C08091E80082FD05C08091CC
:1058C0007C038111F8CF11C08091E8008B770BC069
:1058D00080917C03882349F08091E80080FFF8CF15
:1058E0008091E8008E778093E8000895982F973094
:1058F00068F59093E900981739F07091EC002091C9
:10590000ED005091F00003C0242F762F50E021FDD0
:1059100002C09F5FECCF3091EB003E7F3093EB00F5
:105920003091ED003D7F3093ED003091EB00316020
:105930003093EB007093EC002093ED005093F00057
:105940002091EE0027FDE5CF80E008958F708093D1
:10595000E90081E0089520917A0330917B032617B6
:10596000370748F06115710539F42091E8002E776A
:105970002093E80001C0B901FC0120E06115710528
:1059800079F180917C038823F1F18530F1F18091E8
:10599000E80083FD3CC08091E80082FD2EC080912C
:1059A000E80080FFEBCF2091F3008091F20090E0BF
:1059B000922B6115710551F08830910538F42191D1
:1059C0002093F100615071090196F3CF21E008970F
:1059D00009F020E08091E8008E778093E800CECF38
:1059E0002111CFCF0AC080917C03882361F08530DC
:1059F00061F08091E80083FD0AC08091E80082FF99
:105A0000F2CF80E0089582E0089583E0089581E078
:105A100008951092B9008CE08093B8000895EF9239
:105A2000FF920F931F93CF93DF93182FEB011092E8
:105A3000BC0084EA8093BC000E9494267C01809183
:105A4000BC0087FD0EC0CF3F8FEFD807C1F30E9487
:105A500094268E199F098C179D0788F38EEF9FEF70
:105A60002EC08091B900887F883041F08091B900C4
:105A7000887F803119F08FEF9FEF21C01093BB001A
:105A800084E88093BC000E9494268C018091BC0025
:105A900087FD0CC0CF3F8FEFD807C1F30E9494263B
:105AA000801B910B8C179D0788F3D8CF8091B9008C
:105AB000887F883111F08034F1F680E090E0DF914A
:105AC000CF911F910F91FF90EF9008950F931F9327
:105AD000CF93DF93EB018093BB0084E88093BC00FD
