:100000000C94A5030C94EC030C94EC030C940916CB
:100010000C94EC030C94EC030C94EC030C94EC03A4
:100020000C94EC030C94EC030C9488280C945A293F
:100030000C94F1220C94EC030C94EC030C94EC0360
:100040000C94EC030C94EC030C94EC030C94EC0374
:100050000C94EC030C944A230C94EC030C94EC03E6
:100060000C94EC030C94EC030C94EC030C94EC0354
:100070000C94EC030C94EC030C94EC030C94EC0344
:100080000C94EC030C94EC030C94EC030C94EC0334
:100090000C94EC030C94EC030C94EC030C94EC0324
:1000A0000C94EC030C94EC030C94EC03890E8C0E72
:1000B000910E980E9D0EA20EA70EAC0EB10EB60EAE
:1000C000BB0EC00EC40EC70ECE0ECE0ECE0ECE0E82
:1000D000CA0ECE0E0A110D112D113E1146115111ED
:1000E000541157115A11A011A3115D11601165111E
:1000F00072117F118211861193112D192D195F191B
:100100005F19AC19D31AD31AD31ACA19631A741AFD
:10011000741A6F1B6F1B811B811B781B811B811B3A
:10012000811B6F1B6F1B7D1B811B811B7D1BC729C7
:10013000EE29E62AEE29E62A3A2A5D2AE62AB42A98
:10014000C32A29001E001F002000210022002300D6
:100150002B0014001A000800150017000000E00032
:1001600004001600070009000A000000E1001D005D
:100170001B000600190005000000E0000151E2002C
:100180002C002C001250000024002500260027001F
:100190002D002E0031001C0018000C00120013006E
:1001A0002F0030000B000D000E000F003300340054
:1001B000280011001000360037003800E50001511A
:1001C00012502C002C00E600E70035002A00010048
:1001D0003A003B003C003D003E003F00390001007A
:1001E000C25CC55CC75CC95C000001000100C35C67
:1001F000C65CC85CCA5C000001000100010001008F
:1002000001000100000001000100010001000100E7
:10021000010000004000410042004300440045004E
:10022000490001000100460047004800520001005B
:10023000010001004A004B0050004F000100010086
:1002400001004D004E0051000100010001000100BD
:100250000100010001004C00010029001E001F00E8
:1002600020002100220023002B0014001A000800A7
:10027000150017000000E000040016000700090048
:100280000A000000E1001D001B0006001900050027
:100290000000E0000151E2002C002C00135000008F
:1002A00024002500260027002D002E0031001C0010
:1002B00018000C00120013002F0030000B000D007E
:1002C0000E000F003300340028001100100036002B
:1002D00037003800E500270013502C002C00E60002
:1002E000E70035002A0029001E001F002000210021
:1002F000220023002B0014001A000800150017002C
:100300000000E00004001600070009000A000000D9
:10031000E1001D001B000600190005000000E000C0
:100320000151E2002C002C00105000002400250098
:10033000260027002D002E0031001C0018000C00A4
:10034000120013002F0030000B000D000E000F00F4
:100350003300340028001100100036003700380048
:10036000E500270010502C002C00E600E7003500C7
:100370002A0000000000000000002A2B28000000D6
:100380000000000000000000000000000029000044
:1003900000002C1E3420212224342627252E362D21
:1003A0003738271E1F202122232425263333362EBB
:1003B00037381F0405060708090A0B0C0D0E0F102D
:1003C0001112131415161718191A1B1C1D2F313072
:1003D000232D350405060708090A0B0C0D0E0F1016
:1003E0001112131415161718191A1B1C1D2F313052
:1003F000354C00000000000000000000000000007C
:100400000000000000007E0F00D4FFFFFFC70000C7
:100410000078783C1E1E140A052223252628292A46
:100420002C2D2F3032333536383A3B3D3E40424357
:100430004547494A4C4E5051535557595A5C5E6096
:1004400062646668696B6D6F71737577797B7D7FA8
:1004500081838587898A8C8E90929496989A9C9EA7
:100460009FA1A3A5A7A8AAACAEAFB1B3B4B6B8B9C3
:10047000BBBCBEBFC1C2C3C5C6C7C9CACBCCCDCE2B
:10048000D0D1D2D2D3D4D5D6D7D7D8D9D9DADADB0E
:10049000DBDBDCDCDCDCDCDDDDDDDDDCDCDCDCDC9A
:1004A000DBDBDBDADAD9D9D8D7D7D6D5D4D3D2D2D9
:1004B000D1D0CECDCCCBCAC9C7C6C5C3C2C1BFBEC1
:1004C000BCBBB9B8B6B4B3B1AFAEACAAA8A7A5A32C
:1004D000A19F9E9C9A98969492908E8C8A898785EB
:1004E00083817F7D7B79777573716F6D6B696866CA
:1004F0006462605E5C5A5957555351504E4C4A499C
:1005000047454342403E3D3B3A3836353332302F43
:100510002D2C2A292826252322FFAA7F55400001B9
:1005200001010101010101010202020202020202B3
:100530000203030303030303030404040404040485
:100540000505050505060606060607070707070849
:10055000080808090909090A0A0A0B0B0B0C0C0CFC
:100560000D0D0D0E0E0E0F0F0F1010111111121296
:1005700013131414151516161717181819191A1A13
:100580001B1B1C1D1D1E1E1F202021222223242474
:10059000252626272829292A2B2C2D2D2E2F3031B0
:1005A0003232333435363738393A3B3C3D3E3F40C2
:1005B0004142434445464748494A4C4D4E4F5051AD
:1005C0005354555658595A5B5D5E5F616264656667
:1005D00068696B6C6D6F7072737577787A7B7D7EEE
:1005E0008082838587888A8C8E8F91939596989A3E
:1005F0009C9EA0A2A3A5A7A9ABADAFB1B3B5B7BA56
:10060000BCBEC0C2C4C6C9CBCDCFD1D4D6D8DBDD29
:10061000DFE2E4E7E9EBEEF0F3F5F8FAFDFF0403BF
:10062000300000000A03720065003600340000004C
:1006300012036B0075007300680069006D006100B3
:10064000380000000403090409025B00030100A054
:10065000FA09040000010301010009211101000150
:100660002240000705810308000A09040100020373
:100670000000000921110100012222000705820368
:100680002000010705030320000109040200010303
:100690000000000921110100012232000705840336
:1006A00020000A1201100100000008383934360118
:1006B00000010203010660FF0961A1010962150042
:1006C00026FF009520750881020963150026FF00AA
:1006D000952075089102C005010980A101850319C3
:1006E000012AB700150126B700950175108100C0D9
:1006F000050C0901A101850419012AA00215012692
:10070000A002950175108100C005010906A101052F
:100710000719E029E7150025019508750181029563
:1007200001750881010507190029FF150026FF0042
:1007300095067508810005081901290595057501BB
:100740009102950175039101C00011241FBECFEFE6
:10075000DAE0DEBFCDBF04B603FE27C080918C0374
:1007600090918D03A0918E03B0918F038730904BB1
:10077000A740B04BD1F410928C0310928D031092CD
:100780008E0310928F0314BE84B7877F84BF0FB689
:10079000F894A89580916000886180936000109221
:1007A00060000FBEE0E0F8E3099511E0A0E0B1E0E1
:1007B000E4E2F7E502C005900D92A63DB107D9F736
:1007C00023E0A6EDB1E001C01D92AC38B207E1F71D
:1007D0000E943E250C94902B0C940000CF93C62FC2
:1007E000882311F08130E9F460917C0270917D02E0
:1007F00080917E0290917F020E945021813049F0C9
:1008000010F0843070F4C11102C08AEF07C089EF84
:1008100005C0C11102C081E501C082E5CF910C94F1
:10082000D218CF91089581E0089581E008950C9445
:10083000150408950C9419041F93CF93DF9300D0EF
:1008400000D01F92CDB7DEB749835A836B833091B6
:10085000160289819A81311114C0662359F022232E
:1008600049F00E942B20182F682F89819A810E94BD
:10087000D41F03C00E94FF1F182F69817A81812F26
:1008800004C00E942B2069817A810F900F900F90F5
:100890000F900F90DF91CF911F910C948412FC0167
:1008A000262F408151816281738184810C941C04C4
:1008B000CF93DF93EC0160E00E944F04BE01DF9113
:1008C000CF910C941A04FF920F931F93CF93DF9351
:1008D000E82FF0E0EE58FC4FF490C82FC695C6956F
:1008E000C695D0E0FE01EE5FFB4F0491877010E0EB
:1008F000082E02C0159507950A94E2F7017011279A
:10090000FE01EE50FC4FC491D0E002C0D595C795D2
:100910008A95E2F7C170DD270115110519F081EE06
:100920000E945818209719F086EE0E9458188F2DB3
:100930000E94D218CD2B19F086EE0E94A618012B2A
:1009400041F081EEDF91CF911F910F91FF900C94B8
:10095000A618DF91CF911F910F91FF900895EF920C
:10096000FF920F931F93CF93DF93EC01162F0AE0B2
:100970008881882309F455C0813009F043C08981FA
:10098000813041F47E0182E0E80EF11C8A810E94F0
:10099000D21809C0823049F47E01E2E0EE0EF11C6B
:1009A0008A810E945818E7012FC0833041F47E01EC
:1009B000F2E0EF0EF11C8A810E94A618F4CF843079
:1009C00011F0219621C02A81229680E090E030E04B
:1009D000205331092A30310558F4089FA001099F9E
:1009E000500D1124C901840F951F21962881EFCF46
:1009F000009751F0EFE9FFE03197F1F700C00000F8
:100A00000197F6CF0E9463042196812F882309F471
:100A1000AFCFEFE9FFE03197F1F700C00000815060
:100A2000F5CFDF91CF911F910F91FF90EF90089537
:100A300060E00C94AF048F929F92AF92BF92CF92DE
:100A4000DF92EF92FF920F931F936B017C0181E085
:100A500090E0A0E0B0E04C015D0104C0880C991C5E
:100A6000AA1CBB1C4A95D2F7AC01BD0104C0440FBF
:100A7000551F661F771F2A95D2F7482959296A29D9
:100A80007B2904C0880F991FAA1FBB1F0A95D2F7A4
:100A90008A019B010C211D212E213F214017510766
:100AA0006207730739F4BC01CD016C297D298E29B9
:100AB0009F290AC080959095A095B095BC01CD0165
:100AC0006C217D218E219F211F910F91FF90EF902E
:100AD000DF90CF90BF90AF909F908F9008950F932D
:100AE000382F262F60917C0270917D0280917E02CA
:100AF00090917F02042F432F0E941B050F910C94AD
:100B0000101F0E9483230E94A621811102C00E940F
:100B100046220C94D0070C94CC0708950C948D05B4
:100B200081E008950C949005CF93C82F0E948E0504
:100B30008C2F0E949205CF91089508950E945D1B0D
:100B40000E949D052FEF84E39CE02150804090405F
:100B5000E1F700C000000C9470230F931F93CF9314
:100B6000DF93EC0161E00E944F048C01BE010E9402
:100B700062108823A9F1BE01C8010E9417048823CE
:100B800079F1BE01C8010E94BA13882349F1BE0160
:100B9000C8010E94FB13882319F1BE01C8010E94FD
:100BA00026158823E9F0BE01C8010E94720E882331
:100BB000B9F08A81882369F001158CE5180731F0B6
:100BC0000E3D1C4531F40E9446220AC00E949E053B
:100BD00007C0CE01DF91CF911F910F910C941304A8
:100BE00080E0DF91CF911F910F910895CF93DF9314
:100BF0000E9484120E94E706EC0181159245F0F5EF
:100C0000C11581E5D80708F0A9C0C83ED10528F56F
:100C1000C03ED10508F0D7C0C83AD10578F4C53A2E
:100C2000D10508F074C0C130D10509F4CCC008F476
:100C3000C8C0C430D10508F0C6C0C3C0CF3BD10581
:100C400008F0BFC0C85AD0E0CC0FDD1FC05DDE4F3A
:100C50000990D881C02DD464B6C0C11590E5D907DC
:100C600008F060C0C11520E4D20708F058C0CE01DA
:100C70009A9581159F4108F4A6C0A3C0C11586E5C9
:100C8000D80718F5C11595E5D90708F080C0C1153A
:100C900024E5D20708F076C09E01237033278C2FFD
:100CA00086958695C115D34508F05DC0C1E0D0E0BA
:100CB00002C0CC0FDD1F2A95E2F720E2829FC0011F
:100CC0001124C82BD92BDC687EC0C1152AE5D207B8
:100CD00078F4C11589E5D80708F063C0C11598E517
:100CE000D90708F46EC0DC2FCC27C06FD06A6BC068
:100CF000CE0190568115904208F063C08D2F8F7100
:100D00000E947B07DD27D0628F71D82B5CC0C55A4B
:100D1000D0E0C25ADE4FC881D0E0D06454C0DF704A
:100D2000D06A51C0CE0174E0969587957A95E1F727
:100D300083709C2F937021E030E002C0220F331F9C
:100D40009A95E2F73C68382BCF70C695C69580E23D
:100D5000C89FE0011124C22BD32B35C0DC2FCC2738
:100D6000C16FD06A30C0C1E0D0E002C0CC0FDD1F3F
:100D70002A95E2F720E2829FC0011124C82BD92BCB
:100D8000DA6821C0DC2FCC27C46FD06A1CC08C2F3E
:100D90000E947B078F71C82FD0E0DC2FCC27D06258
:100DA00012C08C2F8F700E947B0794E0D695C79558
:100DB0009A95E1F7CF70D0E0DC2FCC27D069C82B13
:100DC00002C0C0E0D0E0CE01DF91CF91089582381B
:100DD000910569F1B0F48133910509F46DC048F4CF
:100DE0008932910509F463C08A32910509F469C01A
:100DF00008958533910509F455C089339105B9F0FB
:100E00000895833E910569F138F4803E9105B1F073
:100E1000823E910509F10895863E9105A9F1873E2C
:100E20009105B9F1843E910509F064C023C0209179
:100E30007D0320FD4FC021FD4DC0089580917D03AD
:100E400080FD44C080917E0380FF44C080917D037B
:100E500084FD42C083EE4DC080917D0382FF38C087
:100E6000F5CF80917D0382FD33C080917E0380FDAC
:100E700031C0ECCF80917E0381FF32C080917D0331
:100E800084FD2AC087EE35C080917D0383FF26C094
:100E9000F5CF80917D0383FD21C080917E0381FD8C
:100EA0001FC0ECCF80917D0385FD1CC01DC08091CB
:100EB0007D0385FD19C016C080917D0386FD16C097
:100EC00017C080917D0386FD13C010C089E311C057
:100ED00082EE0FC080EE0DC080E00BC086EE09C030
:100EE00084EE07C089E205C085E303C08AE201C041
:100EF00081E390E0089590917D0392FF0DC0282F2B
:100F00002871283019F4877F846006C0282F247147
:100F1000243011F48B7F886093FF0DC0282F287137
:100F2000283119F4877E846106C0282F247124316A
:100F300011F48B7E886120917E0320FF0DC0382F35
:100F40003871383019F4877F816006C0382F3171CD
:100F5000313011F48E7F886021FF0DC0282F287159
:100F6000283119F4877E816106C0282F2171213133
:100F700011F48E7E886194FD877E0895E82FF0E05D
:100F8000E855FD4F80810895089580EA8A95F1F72C
:100F9000089508950C94C9070C94CA070C94C907C6
:100FA0000C94CE070895CF93DF930E94430980915C
:100FB000000180910001811102C095E001C090E024
:100FC0009093B30285E0891B8093B202A8E6B1E05A
:100FD0004DE651E061E070E08D91E82FE295EF7011
:100FE000F0E021A18F70EB0102C0CC0FDD1F8A95CC
:100FF000E2F7CE019C2F9095922391A392A1892B89
:1010000082A34A175B0741F7A1E6B1E048E651E049
:1010100061E070E08D91E82FE295EF70F0E021A1A2
:101020008F70EB0102C0CC0FDD1F8A95E2F7CE0175
:101030009C2F9095922391A392A1892B82A34A176A
:101040005B0741F7EEE9F2E0A8EAB2E088EA92E055
:1010500011921D928E179F07D9F785E00E94ED0827
:101060000E948105DF91CF910C9458090E942409B8
:10107000882309F18091B20290E088559D4F0E942B
:101080008809811114C08091D6018F5F8093D601A9
:10109000863078F0E091B202F0E0E855FD4F80E054
:1010A00090E01192019685309105D9F702C0109217
:1010B000D6010C948B058091B30290E088559D4F2A
:1010C0000E94AB090C94D2076F927F928F929F92ED
:1010D000AF92BF92CF92DF92EF92FF920F931F9346
:1010E000CF93DF9388E6882E81E0982E0EE912E0F8
:1010F00093EAA92E92E0B92E712CCC24C394D12C62
:10110000F40181914F01C82FC295CF70D0E099A111
:101110008F70760101C0EE0C8A95EAF7892F8E292F
:1011200089A38AA16E2C609486218AA30E94C50798
:10113000E1E6F1E040E050E020E03191A32FA295FC
:10114000AF70B0E090968C9190E03F7002C09595A2
:1011500087953A95E2F780FD07C08C2D042E01C0DB
:10116000880F0A94EAF701C080E0282B4F5F5F4F99
:101170004730510511F789A1682269A28AA1E82A9E
:10118000EAA2F8018081281719F0208381E001C0CC
:1011900080E0782A0F5F1F4FA016B10609F0B0CF8C
:1011A0006091B30270E068557D4F272D45E08EE9D0
:1011B00092E00E94EE080E943608872DDF91CF91C1
:1011C0001F910F91FF90EF90DF90CF90BF90AF9065
:1011D0009F908F907F906F9008950895FF920F9346
:1011E0001F93CF93DF938C01F62ED72FC42F22238A
:1011F00049F081E08093D9010E9423239093D80184
:101200008093D7018091D9018823C1F08091D701C3
:101210009091D8010E943B23069780F0EF2DFD2F7F
:10122000D8014C2F50E0CD01801B910B84179507FE
:101230001CF48D918193F7CF1092D901DF91CF915A
:101240001F910F91FF9008958091DA01811112C0D2
:101250008091D80080618093D8008AE18A95F1F767
:1012600000C08091D90080FD02C082E001C081E011
:101270008093DA0181E09091DA01913009F080E009
:1012800008950C9424090E944109809300018091E3
:101290000001882319F06EE180E002C062E28EE175
:1012A0000E94500A0E94240981110C945F0908953C
:1012B0000E942409811102C00C946509089562E01E
:1012C00070E081E091E00C94B71562E070E081E09D
:1012D00091E00C94C0150E947B0C882361F083EE92
:1012E00091E00E94810C81E090E00E949916892B88
:1012F00011F40C947E0C08958091E201883039F449
:1013000060E083EE91E00E94610D1092E201089589
:10131000CF93DF93D82FC92F0E946B0980E090E014
:101320000E949916892B99F4ED2FFC2F80E090E014
:10133000DC01A452BE4F2C9121930196853091057A
:10134000B9F781EE91E00E94D20F81E001C080E008
:10135000DF91CF910895CF93DF93D82FC92F0E94AB
:101360007C09ED2FFC2F80E090E02191DC01A4525C
:10137000BE4F2C93019685309105B9F781EE91E02F
:10138000DF91CF910C94C90FEF92FF920F931F93AF
:10139000CF93DF93F62E472FE82FF0E0711106C0B0
:1013A000E25EFA4F6491762F862F72C0272F30E0CD
:1013B000E25EFA4FE4910E2F10E056E0659FC00107
:1013C0001124CFEFD0E0BE010E941A2B5BEA560336
:1013D000C001579F900D11248F0D911D8F0D911DF0
:1013E000982F990F890F7E01E21AF30AE09ED0012F
:1013F000E19EB00DF09EB00D1124489FA001112474
:10140000452F55277E01E41AF50AE09EA001E19ED2
:10141000500DF09E500D11247E01E81AF108E29E55
:10142000C001E39E900DF29E900D1124892F992703
:10143000C81BD90BC09FC001C19F900DD09F900DBC
:1014400011246230710591F048F461157105E1F0E5
:1014500061307105A9F48B2F752F19C064307105A7
:1014600061F038F06630710579F00AC0892F7B2F62
:101470000EC08E2F7B2FE52F0AC08E2F792F02C032
:10148000852F7E2FEB2F03C08B2F7E2FE92F6E2F02
:10149000DF91CF911F910F91FF90EF9008950895E4
:1014A000E1E1F1E0808361830895CF93DF93762FAC
:1014B000E901682F842F0E94C409798368838A8395
:1014C000DF91CF910895413508F040E50C94550A1D
:1014D0008091B402282F269530E02115310519F4AA
:1014E0008170826005C02331310524F081708462EF
:1014F0008093B4028091B702813518F080E5809323
:10150000B702089588E090E00C94502BCF92DF92C0
:10151000EF92FF926B017C010E94680AB701A6015D
:1015200088E090E0FF90EF90DF90CF900C946E2BCE
:101530006091B4027091B5028091B6029091B702A9
:101540000C94860AE4EBF2E083E0808311828FEF53
:10155000828380E583831482A5EFB1E012968C919B
:101560001297836012968C9360817181828193813E
:101570000C94860A8091B40280FF02C0869508957B
:1015800080E008958091B802833018F48F5F8093D3
:10159000B8026091B4027091B5028091B602909148
:1015A000B7020C94860A8091B802882319F0815002
:1015B0008093B8026091B4027091B5028091B60236
:1015C0009091B7020C94860A8091B8020895809396
:1015D000B802662351F06091B4027091B502809117
:1015E000B6029091B7020C94860A089560E00C94BC
:1015F000E70A8091B50208958091B602089580911E
:10160000B702089570E00C94D30E6091120180919E
:10161000B40280FF0AC08091110123E0829FC001C3
:10162000112487549D4F0C94020B809113019091CB
:101630001401891780F7E82FF0E09F01220F331F74
:10164000E20FF31FE754FD4F1182108212828F5F69
:10165000F0CF9091B40290FF16C0909113012091A9
:101660001401921770F4E92FF0E0DF01AA0FBB1FFD
:10167000EA0FFB1FE754FD4F8183608342839F5F26
:10168000F0CF0C94050B0895CF93DF9300D01F92F9
:10169000CDB7DEB79091B40290FF0AC09E012F5FD4
:1016A0003F4F0E94630A4B8169818A810E94290B06
:1016B0000F900F900F90DF91CF910895CF93DF930C
:1016C000EC01EC81F0E0E75EFB4F4491E4EBF2E0EB
:1016D000628181810E94440B8C818F5F8C83DF91BA
:1016E000CF910895CF93DF93EC01E4EBF2E04381D7
:1016F00062818C810E94440B8C818F5F8C83DF918F
:10170000CF910895AF92BF92CF92DF92EF92FF9266
:101710000F931F93CF93DF9300D01F92CDB7DEB707
:10172000182FF62E042FE22E8091B40280FF7CC089
:10173000E82FE695AE2FB0E0AE58BE4F9C91909347
:10174000F5018E7F823061F49E012F5F3F4F812F24
:101750000E94630A4B8169818A810E94290B41C0E2
:10176000923019F40091B7023CC0963019F41091F0
:10177000B50237C09930A9F5E9508E2F8170D82E67
:10178000E695F0E0E75EFA4FA590B490C12CBB243B
:1017900060911501C61618F52C2D30E0A29EC001EF
:1017A000A39E900DB29E900D112470E00E941A2B02
:1017B000812FD11002C0860F01C0861B90911301AA
:1017C000290F311DA901440F551F240F351F275420
:1017D0003D4F402F6F2D0E94630AC394D9CF0E94C2
:1017E000050B8091B502181308C08091B602F8125B
:1017F00004C08091B702081729F08091F701826038
:101800008093F7011093B502F092B6020093B702ED
:10181000EE2051F06091B4027091B5028091B60251
:101820009091B7020E94860A0F900F900F90DF915F
:10183000CF911F910F91FF90EF90DF90CF90BF90CD
:10184000AF900895E4EBF2E09181282F438162810B
:1018500088E0890F0C94820B81E00C94220CE4EB5D
:10186000F2E09181282F4381628188EF890F0C94E7
:10187000820B81E00C942F0CE4EBF2E0628121E119
:10188000620F08F46FEF282F438181810C94820B43
:1018900081E00C943C0CE4EBF2E0628121E1621BFC
:1018A00008F460E0282F438181810C94820B81E051
:1018B0000C944B0CE4EBF2E0438121E1420F08F47D
:1018C0004FEF282F628181810C94820B81E00C9470
:1018D0005A0CE4EBF2E0438121E1421B08F440E0C2
:1018E000282F628181810C94820B81E00C94690C19
:1018F00020E00C94820B8091F70108951092F7017B
:10190000089525E0E4EBF2E0DC0101900D922A95C8
:10191000E1F72091F5013091F6014091F701FC01CA
:1019200025833683478308956091B402669570E0FD
:101930004BE050E086E191E00E943B2B892B19F4AB
:1019400081E08093F6010E9423239093EF0180931E
:10195000EE018091F70184608093F7010895E5EF2F
:10196000F1E0118282818460828308959091B402B3
:1019700090FF3AC09170811102C0926006C083311D
:1019800010F0946202C0880F982B9093B40280915B
:10199000F70181608093F701662351F06091B402F2
:1019A0007091B5028091B6029091B7020E94860AAA
:1019B0006091B402669570E04BE050E086E191E002
:1019C0000E943B2B892B19F00E94AF0C02C00E9491
:1019D000940C81E08093F1014091B7026091B602CE
:1019E0008091B5020C94780C0895682F9091B40200
:1019F000969581E0890F833108F081E00C94B60C54
:101A000081E00C94F50C682F9091B40296958FEFBD
:101A1000890F09F482E10C94B60C81E00C94030D5B
:101A200061E00C94B60CE4EBF2E08081816080838D
:101A300086950C94100D60E00C94B60CE4EBF2E08B
:101A400080818160808386950C941B0DE4EBF2E02D
:101A500080818E7F808360817181828193810E94E9
:101A6000860A0E94AF0CE5EFF1E0828181608283FB
:101A70002FEF80E792E0215080409040E1F700C0D6
:101A800000000C94050B8091B40280FD0C94260D8F
:101A90000C94130DE4EBF2E080818E7F80830E9432
:101AA000AF0CE5EFF1E08281816082832FEF80E768
:101AB00092E0215080409040E1F700C000000C947B
:101AC000050B1F93CF93DF93EC01162F8F8180FFBF
:101AD0000FC0888180FF0AC08091B402816080932A
:101AE000B402888186950E94B60C02C00E944A0DFD
:101AF0008F8181FF06C0212F4B816A8189810E94DD
:101B0000820B8F8182FF08C08E81882319F00E948A
:101B1000940C02C00E94AF0C8F8183FF03C081E050
:101B20008093F101DF91CF911F9108958091F4018D
:101B3000811133C00E94A621811104C00E94462257
:101B40000E94A20A0E94820A6093B4027093B502B6
:101B50008093B6029093B7028091F70183608093DF
:101B6000F7016E7F61F40E94A20A0E94820A6093CC
:101B7000B4027093B5028093B6029093B7020E94AC
:101B8000680A0E94AF0C8091B40280FF03C0869562
:101B90000E941B0D81E08093F4010895EF92FF9263
:101BA0000F931F93CF93DF938091F601882309F45D
:101BB00077C08091F501E091B402E695E81BE093CF
:101BC000F001823049F4F0E0EB5EFB4FE491CE2F60
:101BD000D0E00EE51BE00FC0863049F4F0E0EE5E89
:101BE000FB4FE491CE2FD0E002E71BE004C0C0ED34
:101BF000D7E00FE41AE08091F101882389F0109278
:101C0000F1010E9423239E0120953095820F931F9E
:101C10009093EF018093EE011092F3011092F20184
:101C20008091EE019091EF010E943B238C179D075C
:101C3000B8F18091ED018823B1F01092ED0180910F
:101C4000EB019091EC010E943B238033954758F0C3
:101C50000E9423239093EC018093EB018091F70184
:101C600088608093F701E090F201F090F301E09139
:101C7000EE01F091EF01CE0FDF1FD093EF01C09383
:101C8000EE018EEE91E0F80109958091F2019091BC
:101C9000F301892B29F4EF2819F081E08093ED01FD
:101CA000DF91CF911F910F91FF90EF9008958823BE
:101CB00011F0FA0101C0FB010994CF93DF93C82F03
:101CC000D62F0E94BA0A8C1740F00E94BA0A8D17CC
:101CD00020F4DF91CF910C94000D8C2FDF91CF91E8
:101CE0000C94100D1F93CF93DF93FB011281111100
:101CF00055C0EC010E94AC208272FE01E25CFC4502
:101D0000E431F10520F4EA5AFF4F0C942E2B11E038
:101D100045C00E94430D42C04DE05DE060E07DE0C3
:101D200004C040E05DE06DE07DE00E94570E36C0EB
:101D300049E35CE06CE27CE0F8CF4CE25CE069E314
:101D40007CE0F3CF47E55CE068E47CE0EECF48E47C
:101D50005CE067E57CE0E9CF45E75CE066E67CE0D7
:101D6000E4CF46E65CE065E77CE0DFCF43ED5AE098
:101D700062EC7AE0DACF42EC5AE063ED7AE0D5CF5C
:101D800081E00E94100D0AC065E082E005C068E0B5
:101D900086E002C062E189E00E945D0E812FDF9142
:101DA000CF911F910895539A2BB1277F3BB1386093
:101DB0004FB7F894FC01CB01880F991F680F791F6A
:101DC0006E0F7F1FE617F70789F0819198E03BB906
:101DD000000000C087FF2BB9880F000000C000C0C2
:101DE00000C02BB900C09A9591F7ECCF4FBF8FE59B
:101DF00094E00197F1F700C0000008950C94EE0301
:101E000080910001882309F447C020912201A22F6C
:101E1000A295AF70B0E091963C9191972F7081E0C0
:101E200090E0AC01022E01C0440F0A94EAF7542F4F
:101E30005095352391963C93919792963C91929729
:101E4000432B92964C93929740912101E42FE29577
:101E5000EF70F0E031A14F70042E01C0880F0A949A
:101E6000EAF7982F9095932391A392A1892B82A3AF
:101E700090968C9190E002C0959587952A95E2F70F
:101E8000817020A130E002C0359527954A95E2F790
:101E900020FD09C090E008C086E38093220186E619
:101EA00080932101B2CF92E0892B8093FD01909124
:101EB000000181E098279093F901891B8093F80134
:101EC0000895CF93E091FD015E2F550F550F20919E
:101ED0002201E22FE295EF70F0E080A190E02F70F8
:101EE00002C0959587952A95E2F7817099274091D0
:101EF0002101E42FE295EF70F0E020A130E04F7077
:101F000002C0359527954A95E2F7F901E170FF2760
:101F100020FF02C0E2E0F0E0E82BF92BE52BE09394
:101F2000FD01C091F901EF70F0E0EB57FE4F908199
:101F30008091FC01890F8093FC0184306CF0EC2FC0
:101F40000C2E000CFF0BE650FE4F80818F5F8083CC
:101F500060E08C2F0E94FE0E8091FC018D3F6CF49E
:101F6000EC2F0C2E000CFF0BE650FE4F80818150B1
:101F7000808361E08C2F0E94FE0E8091FC018378AB
:101F800087FF03C081508C6F8F5F8093FC01CF91DE
:101F90000895E091F901F0E0E650FE4F2081FC0148
:101FA00020830895FF920F931F93CF93DF93D091D7
:101FB000F8010D2F10E006501E4FFC01C081F80102
:101FC0008081C81BFC2E1F1454F4FA94F801808100
:101FD0008F5F808360E08D2F0E94FE0EF4CF8C2FE8
:101FE000C7FD80E0C81BCC2351F0CF5FF801808192
:101FF0008150808361E08D2F0E94FE0EF4CFDF912F
:10200000CF911F910F91FF90089582E290E00E947E
:10201000482B803281F483E290E00E94482B883084
:1020200051F484E290E00E94482B91E0853209F05F
:1020300090E0892F01C080E081700895CF93C82F70
:10204000811102C06FEF01C060E282E290E00E9465
:102050005C2BC11102C06FEF01C068E083E290E029
:102060000E945C2BC11102C06FEF01C065E284E2E7
:1020700090E0CF910C945C2B80E00E941E100C9499
:10208000A021089585E290E00E94482B682F70E01F
:1020900080E090E0089585E290E00C945C2B0E9433
:1020A00041100E94051081110CC060E070E0CB016E
:1020B0000E944B100E94FF110E94DE1281E00C94DE
:1020C0001E100895CF93FB01C281CC23E9F09C013F
:1020D00022513F452031310520F482510E94EE12F9
:1020E0000CC08031FFE59F0751F481E00E94361F4C
:1020F00043E062E081E00E946F05C0E018C08131DA
:102100009F45A9F482E0F2CF8031EFE59E0711F4FC
:1021100081E004C081319F4549F482E00E94571F4D
:1021200043E062E081E00E946F0501C0C1E08C2FB6
:10213000CF9108952FEFFC0120830895CF93DF9373
:10214000EC018881813889F028F48038A1F40E945C
:10215000FF0A10C0823861F0833869F40E94F90ADE
:1021600089830E94FC0A8A8306C00E94BA0A02C0C0
:102170000E94E40A8983DF91CF910895CF93DF9382
:10218000EC0188818138B1F058F4803851F5D9815B
:102190000E94FC0AC82F0E94F90A4D2F6C2F1DC007
:1021A0008238B1F08338E9F40E94FF0A482F6A812F
:1021B000898113C089810E941B0D8981811104C00E
:1021C000DF91CF910C944A0DDF91CF910C941E0DAD
:1021D0008981DF91CF910C94F60ADF91CF910C9415
:1021E000780CDF91CF910895EF92FF920F931F9398
:1021F000CF93DF93EC01162F0196E8814E2F50E02C
:10220000FA013197E331F10508F0ACC0E659FF4F10
:102210000C942E2B198289E056C08981823039F0C6
:10222000833061F0813029F50E942F2302C00E9483
:1022300042109A838B837C836D8396C07E0122E05B
:10224000E20EF11C00E0802F0E94BE07F70181938F
:102250007F010F5F0A30B9F787C08981823049F466
:102260006A817B818C819D810E94342B0E944B105E
:102270007BC0612FCE010E949A1076C04B816A818B
:1022800089810E94D1119C838D836EC02C813D81F8
:102290003227232732274B816A8189810E94EA11E4
:1022A00063C00E94FF1160C00E94BE105DC00E940A
:1022B0009E105AC00E94980A57C00E94911224C0D2
:1022C0000E94931299838A834FC06B8170E0898149
:1022D0009A81AE014C5F5F4F9827892798270E940B
:1022E000961242C06B8170E089819A81AE014C5F89
:1022F0005F4F9827892798270E94BB1235C00E94FC
:10230000DE1232C00E94BE1189832EC06B8170E044
:1023100089819A81AE014C5F5F4F98278927982762
:102320000E943E1221C06B8170E089819A81AE01CA
:102330004C5F5F4F9827892798270E94621214C02C
:102340000E943C1011C0CE010E942E24FFEF21EE0E
:1023500084E0F15020408040E1F700C000000E947E
:10236000702302C08FEF8883612FCE01DF91CF9160
:102370001F910F91FF90EF900C942E2484E008950C
:1023800050E0440F551F2EE0629F400D511D112457
:102390009A016CE8869F200D311D1124C901869693
:1023A00008950F931F93CF93DF930E94C0118C0168
:1023B0000E94482BC82FD0E0DC2FCC27C801019603
:1023C0000E94482B9E01282BC901DF91CF911F91BC
:1023D0000F9108950F931F93CF93DF93122F032F25
:1023E0000E94C011EC01602F0E945C2B612FCE0176
:1023F0000196DF91CF911F910F910C945C2BAF92BE
:10240000BF92CF92DF92EF92FF920F931F93CF93E1
:10241000DF93A12CE12CF12CB12C00E010E0C0E006
:10242000D0E06701C00ED11EFE01EE0FFF1FEC0DC4
:10243000FD1DEE5BFE4F259134914C2F6B2D8A2DA7
:102440000E94EA112196C730D10571F7025F1F4F34
:10245000B3948AE0B812E3CF8CE8E80EF11CA394A1
:1024600084E0A812D9CFDF91CF911F910F91FF90F7
:10247000EF90DF90CF90BF90AF900895EF92FF92D2
:102480000F931F93CF93DF93EA017A01E60EF71EB5
:102490008C01C8018696CE15DF0569F0003322E075
:1024A000120720F40E94482B888301C018822196CD
:1024B0000F5F1F4FEECFDF91CF911F910F91FF90D4
:1024C000EF900895EF92FF920F931F93CF93DF93B6
:1024D000EA017A01E60EF71E8C01C8018696CE1538
:1024E000DF0559F0003322E0120718F468810E94DA
:1024F0005C2B21960F5F1F4FF0CFDF91CF911F9183
:102500000F91FF90EF900895462F843038F47A3081
:1025100028F4673018F4672F0C94D11180E090E014
:10252000089580E108958AEA91E00895EF92FF927C
:102530000F931F93CF93DF93EA017A01E60EF71E04
:102540008C01C8018A5A9D4FCE15DF0569F00A3A01
:1025500021E0120720F40E94482B888301C01882D2
:1025600021960F5F1F4FEDCFDF91CF911F910F91FC
:10257000FF90EF900895EF92FF920F931F93CF93E8
:10258000DF93EA017A01E60EF71E8C01C8018A5A30
:102590009D4FCE15DF0559F00A3A21E0120718F4D5
:1025A00068810E945C2B21960F5F1F4FEFCFDF9158
:1025B000CF911F910F91FF90EF900895CF93DF93EC
:1025C000C6E5D2E060E0CE010E945C2B2196C115E9
:1025D00084E0D807B9F7DF91CF910895DF92EF92A9
:1025E000FF920F931F93CF93DF9300D000D0CDB70E
:1025F000DEB7F82E8FE08F15E8F18FEF93E00E94A1
:10260000482B811137C006E512E0FF2069F0011563
:1026100084E0180779F1C8010E94482B811101C09C
:10262000FA940F5F1F4FF1CF19821A821B821C820E
:10263000DD24D39478018FEFE81AF80AC8010E94CC
:10264000482B89831A828823A9F09FEF980F933033
:1026500058F48A83D9820E5F1F4FC7010E94482B0E
:102660008B83882339F07801CE0101960E941805EA
:102670008701E0CF0F900F900F900F90DF91CF91D7
:102680001F910F91FF90EF90DF9008950F931F938C
:10269000CF93DF93C62FD42F122FFC018281882382
:1026A000C9F0609300020E9423239093FF0180935E
:1026B000FE0180E28C0F883008F057C0C77081E0BF
:1026C00001C0880FCA95EAF7DF91CF911F910F9152
:1026D0000C94E51880910002681330C08091FE01CF
:1026E0009091FF010E943B23883C910538F500E260
:1026F0000D0FCD17B9F080E28C0F883040F4C77011
:1027000081E001C0880FCA95EAF70E94EC180830F2
:1027100028F581E09D2F977001C0880F9A95EAF700
:102720000E94E518812F0E94D2180830F0F4D7706B
:1027300081E001C0880FDA95EAF70AC080E28C0FC9
:10274000883098F4C77081E001C0880FCA95EAF715
:10275000DF91CF911F910F910C94EC18812FDF9195
:10276000CF911F910F910C94D218DF91CF911F91AF
:102770000F9108959C01CB01233F4CE53407F9F0FC
:1027800078F4283DFCE53F07B9F0293D4CE53407D6
:1027900011F1273D3C4531F526E241EE61EE1EC0C8
:1027A000253FFCE53F0799F070F0263F3C45D1F40A
:1027B00027E245EE66EE12C027E245EE0EC026E2A5
:1027C00041EE60EE0BC027E245EE64EE07C026E264
:1027D00041EE62EE03C028E241E065EE0E9446133E
:1027E00080E00895FC018281882319F01092000294
:1027F000089581E00895CF93DF93EC01FB0182817E
:10280000882309F41FC1C230FCE5DF0708F41BC1AF
:10281000C6319CE5D90738F09E012A5F3C45293036
:10282000310508F010C10E94B92190937E03809376
:102830007D03C031ECE5DE0709F4C3C008F041C0F8
:10284000C8308CE5D80709F49AC0F0F4C430ECE540
:10285000DE0709F487C068F4C2308CE5D80709F4B4
:1028600077C0C330DC4509F0E3C080917D0382600E
:1028700076C0C630ECE5DE0709F46EC008F07BC018
:1028800080917D0388606BC0CC308CE5D80709F45B
:1028900085C068F4CA30ECE5DE0709F474C008F0BE
:1028A00079C00E945D1B80917D03806858C0CE3046
:1028B0008CE5D80709F476C008F07FC080917D03CD
:1028C0008BC0CB3FECE5DE0709F44FC018F5C331F0
:1028D0008CE5D80709F47DC078F4C131ECE5DE075A
:1028E00009F473C0C231DC4509F0A2C00E945D1B2F
:1028F00080917D038F7733C0C5318CE5D80709F40B
:1029000072C008F486C0CA3FDC4509F091C08091CE
:102910007E033EC0CF3FFCE5DF0709F45FC058F4FB
:10292000CD3F9CE5D90709F444C008F43FC080912D
:102930007E0382602DC0C130FDE5DF0709F475C05C
:1029400008F45DC0C230DD4509F072C080E06EC0A1
:1029500080917D03816003C080917D0380618093BD
:102960007D0366C080917D0311C080917E038260EB
:1029700080937E035DC080917D038062F0CF809163
:102980007D038064ECCF80917D0388608460E7CF15
:102990008160EECF80917D038E7FE1CF80917D03BA
:1029A0008D7FDDCF80917D03877FD9CF80917E039E
:1029B00018C080917E038D7FDBCF80917D038F7E59
:1029C000CECF80917D038F7DCACF80917D038F7B99
:1029D000C6CF80917D03877F8B7FC1CF80917E039F
:1029E0008D7F8E7FC5CF80917D0382FB222720F9CA
:1029F00091E0922790FB82F990FB83F9B0CF809110
:102A00007E03982F909591708E7F892B90FB81F992
:102A1000AFCF0E945D1B80917D0387FB222720F9A9
:102A200091E0922790FB87F99ACF81E00E9448229B
:102A300080917D0390917E030E94CA210E945D1BBC
:102A400080E001C081E0DF91CF910895CF93DF93C3
:102A500086319C4541F5EB010E94AC20982F8A817C
:102A60002091230130912401882379F09A7A81E022
:102A700009F480E080930102911102C069E201C073
:102A800065E3C9010E948F220AC080910102811171
:102A900002C069E201C065E3C9010E9491220E945F
:102AA000ED2080E001C081E0DF91CF9108958EE1BB
:102AB0004A9B02C08150E1F74A9BFECF08955A9885
:102AC00080E28A95F1F75A9A0895FC012AE02A9546
:102AD000F1F790E020E080E031E0261779F040E166
:102AE0004A95F1F7880F4A9B02C08160932700C086
:102AF000000040E14A95F1F72F5FEFCF20E12A95E2
:102B0000F1F729B100C0000030E13A95F1F722FB5E
:102B1000222720F992272081920F90830895EF9227
:102B2000FF920F931F93CF93DF931F92CDB7DEB722
:102B300019828C017C01E60EF11C0E151F0559F05F
:102B40000E94571568E0CE0101960E946515F801B4
:102B500081938F01F2CF81E09981911180E00F90F4
:102B6000DF91CF911F910F91FF90EF900895909377
:102B700004028093030260930202529A5A9A0895C3
:102B800090930402809303026093020252985A9A2F
:102B9000EA9AE9E6F0E080818F7C808308956150B5
:102BA00091E001C0990F6A95EAF720E031E099239E
:102BB00061F0492F482319F05A9A232701C05A98E7
:102BC00040E24A95F1F79695F2CF222311F05A9AF6
:102BD00001C05A9880E28A95F1F75A980895FF92B9
:102BE0000F931F93CF93DF93EC018C01060F111D00
:102BF000C017D10741F0F9900E945F1568E08F2D52
:102C00000E94CF15F5CFDF91CF911F910F91FF90CB
:102C100008951F920F920FB60F9211240F931F93D6
:102C20002F933F934F935F936F937F938F939F93D4
:102C3000AF93BF93EF93FF93CF93DF931F92CDB7E3
:102C4000DEB719820E94571567E0CE0101960E94F7
:102C50006515382F369536953695932F9695957040
:102C6000232F2570920F292F2370969596958770A4
:102C7000920F891348C08981811145C08091020259
:102C8000831708F440C080E18A95F1F75A9A529A66
:102C9000A2E0AA95F1F700C000910302109104028E
:102CA000B8E03B9F000D111D11245A98F801658171
:102CB000662321F0868197810E94EF150E945F159F
:102CC000F0E1FA95F1F75A9852985A9A80E18A956C
:102CD000F1F7D80112966C911297662369F013965A
:102CE0008D919C9114970E948F15D801ED91FC91C4
:102CF000811105C082E004C0D801ED91FC9188E00B
:102D000080830E9457150F90DF91CF91FF91EF9133
:102D1000BF91AF919F918F917F916F915F914F91F3
:102D20003F912F911F910F910F900FBE0F901F9009
:102D300018950F931F93CF93DF932091020230E0F9
:102D4000281739070CF471C09C0193E0220F331F40
:102D50009A95E1F7C0910302D0910402C20FD31FEC
:102D6000F894529A5A9845E04A95F1F70000982F46
:102D7000969595708570890F982F93708695869596
:102D8000890F8901082B0E945F1584E08A95F1F76D
:102D900000C067E0802F0E94CF1540E14A95F1F70F
:102DA00052985A9A4A9902C000C0FCCF87E090E03E
:102DB0004A9B0EC0019751F4529A5A9AE881F981C0
:102DC00081E08083789481E090E031C000C0F0CF52
:102DD0006D81662381F08E819F810E948F15811104
:102DE0000AC0529A5A9AE881F98182E080837894E5
:102DF00082E090E01CC00E94571580E28A95F1F7AE
:102E00005A98529A40E14A95F1F76A81662321F077
:102E10008B819C810E94EF150E945F15E881F981EA
:102E20001082789480E090E002C084E090E0DF912E
:102E3000CF911F910F91089590930A0280930902F8
:102E40000895E0910902F0910A02309721F0019073
:102E5000F081E02D099480E00895E0910902F0915D
:102E60000A02309721F00280F381E02D0994089541
:102E700020910702309108022817390771F09093CA
:102E8000080280930702E0910902F0910A0230974C
:102E900021F00680F781E02D099408952091050224
:102EA000309106022817390771F09093060280933B
:102EB0000502E0910902F0910A02309721F00084A6
:102EC000F185E02D0994089585B7806885BF85B7A1
:102ED000806885BF089508950C946B170C946C1747
:102EE0000C946B170C946B170E9464170E94701758
:102EF0000C946E170C9424090E941A230E94D30785
:102F00000E944F100E9497230E94960D0E94000F6E
:102F10000C947217AF92BF92CF92DF92EF92FF9212
:102F20000F931F93CF93DF93CDB7DEB72A970FB6DA
:102F3000F894DEBF0FBECDBF0E9464080E947A17CE
:102F4000811111C08FEF89838A831B820E94232302
:102F50008160782F9D838C8349815A816B818D811B
:102F60000E94241840C08CE0A82E82E0B82E00E019
:102F700010E0C02E802F0E94BE07E82EF501D190F0
:102F80005F01D82631F40F5F1F4F0A30110589F712
:102F9000D9CF8091910281FD0E94C40780E0FF2477
:102FA000F3949D2D9F21D1F08E83CF82EF2081E07D
:102FB00009F480E088870E9423238160782F9A8714
:102FC00089874E815F8168858A850E942418F8016F
:102FD000E45FFD4F8081F826F08205C08F5FFF0C13
:102FE0008730F9F6D0CF0E94CE0D0E94610F0E946B
:102FF000211790910B028917B1F00E94211780933D
:103000000B022A960FB6F894DEBF0FBECDBFDF913C
:10301000CF911F910F91FF90EF90DF90CF90BF90D5
:10302000AF900C9494052A960FB6F894DEBF0FBEAD
:10303000CDBFDF91CF911F910F91FF90EF90DF9067
:10304000CF90BF90AF900895CF93DF93CDB7DEB709
:103050002B970FB6F894DEBF0FBECDBF4F835887B6
:1030600069877A878B87DE01119686E0FD011192D0
:103070008A95E9F785E0FE01379601900D928A95D1
:10308000E1F749815A816B817C818D819E810E940B
:10309000161E2B960FB6F894DEBF0FBECDBFDF9184
:1030A000CF910895FC01808191810E946D20089547
:1030B000CF93882309F448C0C82F8CEF8C0F813A36
:1030C000D0F46C2F80912301909124010E94592209
:1030D000882349F06C2F80912301909124010E9454
:1030E00091220E94ED206C2F809123019091240168
:1030F0000E948F220CC080E28C0F883058F4C77079
:1031000081E001C0880FCA95EAF70E94AF20CF91F5
:103110000C94ED20EBE5EC0FE33040F4F0E0ED53E0
:10312000FE4F808190E0CF910C943817C85AC73178
:1031300058F4EC2FF0E0EE0FFF1FEB56FE4F8081AE
:103140009181CF910C944E17CF910895882349F126
:10315000682F8CEF860F813A38F48091230190918B
:1031600024010E9491220CC080E2860F883050F426
:10317000677081E001C0880F6A95EAF70E94B52068
:103180000C94ED208BE5860F833020F480E090E0F6
:103190000C943817685A673120F480E090E00C9462
:1031A0004E170895CF93C82F0E945818C93349F479
:1031B0002FEF87EE93E0215080409040E1F700C070
:1031C00000008C2FCF910C94A618882321F00E9428
:1031D000AF200C94ED200895882321F00E94B520A3
:1031E0000C94ED200895CF92DF92EF92FF920F930F
:1031F0001F93CF93DF937C01D62FC72FFC0105814E
:1032000002950F70128111110E94CC200E94A520FE
:10321000882399F0112389F08C2F807F803421F04E
:1032200080E28D0F883048F082E00E9437210E94B2
:10323000A52091E0D82ED92601C0D12CCC2EC29445
:103240008FE0C8228C2D90E08C30910508F0ABC146
:10325000FC01E358FF4F0C942E2B8C2F807FCF70F6
:10326000882311F0C295C07F112399F0CC2309F473
:1032700086C180E28D0F883010F0D11104C08C2FF0
:103280000E94AF2003C08C2F0E94BF200E94ED201F
:1032900076C18D2F0E94A618CC2309F484C180E248
:1032A0008D0F883010F0D11104C08C2F0E94B520F2
:1032B00003C08C2F0E94C5200E94ED2074C18C2F6A
:1032C000807FCF70803211F0C295C07FDD2319F06E
:1032D000D130C9F022C0112371F0002341F0013038
:1032E00031F40E94D2208C2B0E94DA205CC10E9413
:1032F000D2208C2B1DC0002319F0013009F453C1DA
:103300000E94E32025C0112321F0063008F04BC1B4
:103310000EC0053008F047C11BC0112361F0002327
:1033200031F0F701858180FF2AC18F7085838C2F52
:103330000E94E51838C1002359F0D93309F030C193
:10334000FFEF07EE13E0F15000401040E1F726C117
:103350008C2F0E94EC1827C18C2F86958695837040
:1033600019F0813061F01FC1112321F08D2F9C2FA6
:10337000937002C080E090E00E9438171CC11123B6
:1033800021F08D2F9C2F937002C080E090E00E946E
:103390004E1711C18C2F837009F047C0111107C15E
:1033A0002D2F229526952770220F220F6D2F6F70DB
:1033B000862F90E0A0E0B0E0022E04C0880F991F95
:1033C000AA1FBB1F0A94D2F7D4FF10C04FE050E0F1
:1033D00060E070E004C0440F551F661F771F2A95F8
:1033E000D2F7409550956095709503C040E050E04D
:1033F000BA01C695C695C3708A019B01082B192B8B
:103400002A2B3B2BC901B801C23049F058F4C13016
:1034100019F00E94EA1ECBC00E94D81EC8C00E94AC
:10342000FC1EC5C00E94D61EC2C0112319F08C2FED
:10343000817001C08695882309F4B9C02D2F22958B
:1034400026952770220F220F6D2F6F70862F90E028
:10345000A0E0B0E0022E04C0880F991FAA1FBB1F76
:103460000A94D2F7D4FF10C04FE050E060E070E063
:1034700004C0440F551F661F771F2A95D2F7409549
:1034800050956095709503C040E050E0BA01C69534
:10349000C695C3708A019B01082B192B2A2B3B2B45
:1034A000C901B801C23049F058F4C13019F00E9486
:1034B000AF1F7DC00E949D1F7AC00E94C11F77C0B0
:1034C0000E94101F74C0CF70112339F08C2F0E94FE
:1034D000361F8D2F0E94E5186AC08D2F0E94EC18B0
:1034E0008C2F0E94571F63C0D23F01F128F4D03FB8
:1034F00041F0D13FA1F03FC0D33FF9F0D43F39F1C3
:103500003AC0112341F0053008F04DC08C2F8F7167
:103510000E947C1F48C0063008F045C0F7CF112339
:1035200039F08C2F8F710E94361F3DC01123C9F3D3
:103530008C2F8F710E94571F36C0112329F08C2FBA
:103540008F710E94211F2FC00E941C1F2CC01123AD
:1035500049F0CF718C2F0E94361F63E08C2F0E94A0
:10356000222121C081E00E9437210230E0F082E078
:103570000E94372118C0112331F0002391F28D2FC2
:103580000E94581810C0002399F2D93349F41FEF54
:1035900027EE33E0115020403040E1F700C000003A
:1035A0008D2F0E94A61888EF8C0D843020F40E9485
:1035B00021170E949405DD20C9F00E94A12080FD02
:1035C00015C0F70112820E949B200E94361FC7017E
:1035D0000E94171B0E949B20DF91CF911F910F919A
:1035E000FF90EF90DF90CF900C94571FDF91CF9119
:1035F0001F910F91FF90EF90DF90CF9008950F9360
:103600001F93CF93DF93EC01688179818A810E94B7
:1036100078208C010E94D31F0E94C41EB801CE01E5
:103620000E94F318DF91CF911F910F910895CF93CE
:10363000DF93EC01988189812B813C81232B31F030
:103640008F3F31F481E09F3F19F403C081E001C056
:1036500080E080FD19C0CE010E94AD0581110CC033
:103660000E94A520882381F08A81882369F082E066
:10367000DF91CF910C943721CE010E94FF1ACE0129
:10368000DF91CF910C945804DF91CF9108950E945F
:10369000CC200E94CF200E94ED2080E090E00E948C
:1036A000381780E090E00C944E17809123019091A0
:1036B00024010E9493220C94471B0E94BC200C946E
:1036C000551BE92FE295EF704E2F50E0FA0132972B
:1036D000EE30F105B0F4E757FF4F0C942E2B803FEE
:1036E00091F018F4883E68F40EC0843F51F40BC08A
:1036F000883E48F0813F29F406C093FB882780F973
:10370000089580E0089581E008950E946D200E9450
:10371000611B0895CF93DF9300D000D01F92CDB7E7
:10372000DEB70F900F900F900F900F90DF91CF9119
:103730000895CF93DF9300D000D000D0CDB7DEB78F
:1037400026960FB6F894DEBF0FBECDBFDF91CF91A6
:1037500008951F93CF93DF93C091170216E08091D5
:103760001802C81799F0D0E01C9FF0011D9FF00DC2
:103770001124E75EFD4F4081518162817381848114
:1037800095810E94991B2196C770E9CFDF91CF9157
:103790001F9108954091490250914A0260914B0255
:1037A00070914C0280914D0290914E020C94991BA5
:1037B0000F931F93CF93DF9380914E0282958F706A
:1037C00009F05DC080914B02882309F458C08091B4
:1037D0001702109118026091490270914A02C0913B
:1037E0004C02D0914D0291E06F3F09F090E0292FFB
:1037F00006E0811709F443C0209721F07F3F21F0B4
:1038000030E003C031E001C0322F90E030FD34C021
:10381000089FF001099FF00D1124DF01A75EBD4F45
:1038200011963C911197371327C03C91361324C051
:1038300012963C91129731111FC013964D915C91D5
:1038400014974C1B5D0B483C5105B0F480914E021F
:103850008F70806180934E02E25EFD4F80818F7099
:103860008061808389E492E00E94171BDF91CF91F1
:103870001F910F910C94A91B01968770BACFDF910D
:10388000CF911F910F9108959F92AF92BF92CF92C7
:10389000DF92EF92FF920F931F93CF93DF93CDB7F9
:1038A000DEB761970FB6F894DEBF0FBECDBF8C01B7
:1038B00085E0F801DE011D9601900D928A95E1F7F1
:1038C000F80140815181E2809091490260914A0261
:1038D00020914C0230914D022115310531F06F3F9E
:1038E00031F481E09F3F19F403C081E001C080E022
:1038F000F82FF1709F2E80FD46C1F801A380B4809F
:1039000089E4C82E82E0D82EF0904B02F501E21B2C
:10391000F30BFF2009F4DFC080914E02E83CF10573
:1039200008F09BC0282F207F09F052C0561313C007
:10393000491311C0FE2CE1100EC08F70806180937E
:103940004E020E94CA1BC6010E94171B80914E02A4
:10395000F801858358C1AB2831F05F3F31F481E035
:103960004F3F19F403C081E001C080E080FD03C037
:1039700081E08E2502C080E090E0F82FF170FF2EEC
:1039800080FF1CC0809117022091180236E0821738
:1039900009F417C190E0389FF001399FF00D112410
:1039A000E75EFD4F6181561306C06081461303C078
:1039B0006281E61203C001968770E9CFFE2CEE20EB
:1039C00009F421C180914E02816080934E025AC059
:1039D000561306C0491304C0E11002C0F8019FC08D
:1039E0004D875E878D859E850E94851B882379F192
:1039F000EE2069F120914E02822F82958F7090E027
:103A0000029774F08091490290914A0298878F83BF
:103A10001986BB86AA862C87CE0107960E94171BA3
:103A200086E0F801A9E4B2E001900D928A95E1F7F1
:103A30000E94D81B0E94CA1B0DC0561729F14D8742
:103A40005E878D859E850E94851B81112CC0C801D3
:103A50000E94171BFF24F394D6C0282F207F69F7FC
:103A60007A2DB98AA88A6E2D89890E948A1B89E4D9
:103A700092E00E94171B86E0F60111928A95E9F701
:103A80000E94CA1BF12CBFC04913D9CFE110D7CF78
:103A9000F8018583C8010E94171B86E0F601119288
:103AA0008A95E9F7B0C0EE2091F220914E02822F64
:103AB00082958F7090E002970CF4B2CF809149020A
:103AC00090914A029A8389831B82BD82AC822E83A5
:103AD000CE010196A3CFE83CF10508F047C0FE2CCB
:103AE000EE2009F4B4CF561330C049132EC02091F4
:103AF0004E0220FD21C0822F82958F70482F50E00A
:103B000041155105C9F0F80125834F30510541F0A9
:103B10008F5F982F9295907F822F8F70892B85834E
:103B2000C8010E94171B86E0F801A9E4B2E00190E9
:103B30000D928A95E1F742C086E0F801A9E4B2E06F
:103B400001900D928A95E1F75EC04D875E878D8565
:103B50009E850E94851B811163CF80914E028160FA
:103B600080934E02C8010E94171B4DC07A2DB98A5E
:103B7000A88A6E2D89890E948A1B86E0F60111921F
:103B80008A95E9F71BC0EE2009F461CF4D875E8767
:103B90008D859E850E94851BF82E882309F457CFBA
:103BA00086E0F801A9E4B2E001900D928A95E1F770
:103BB00089E492E00E9452180E94D81B0E94CA1BFE
:103BC00022C04D875E878D859E850E946D20292F9E
:103BD00022952F70223028F49F7039F0811105C092
:103BE0000BC0243028F49F7049F4805E883020F0A8
:103BF000C8010E94171B9F2CF92C05C0F801958164
:103C0000907F99F7F9CF8F2D61960FB6F894DEBFAC
:103C10000FBECDBFDF91CF911F910F91FF90EF901D
:103C2000DF90CF90BF90AF909F9008951F93CF9358
:103C3000DF93CDB7DEB72C970FB6F894DEBF0FBE7B
:103C4000CDBF4F83588769877A878B879C87CE0142
:103C500007960E94441C8823D1F09F8188852A857D
:103C60003B85232B31F08F3F31F481E09F3F19F4E6
:103C700003C081E001C080E080FD47C04F815885CE
:103C800069857A858B859C850E94991B3EC086E05C
:103C9000FE013796DE01119601900D928A95E1F7AB
:103CA000FF81E8856A857B856115710531F0EF3FFD
:103CB00031F481E0FF3F19F403C081E001C080E0EE
:103CC00080FD23C02091180230E0C9010196877061
:103CD00099274091170250E084179507F1F1F98375
:103CE000EA837D836C8396E0929FD001939FB00D11
:103CF0001124A75EBD4FFE01319601900D929A9559
:103D0000E1F7809318020E94A91B16E08091170228
:103D100090911802891771F1189FC0011124875ED4
:103D20009D4F0E94441C882329F1E09117021E9F99
:103D3000F0011124E75EFD4F408151816281738162
:103D4000848195810E94991B8091170290E00196D1
:103D50008770992780931702D9CF0E945D1B10921C
:103D6000180210921702E9E4F2E086E0DF011D92EA
:103D70008A95E9F72C960FB6F894DEBF0FBECDBF3B
:103D8000DF91CF911F910895089508950C94C51E59
:103D90000C94C61E0E94C81E60938002709381021C
:103DA00080938202909383020C94471B0C94CA1E4A
:103DB0000F931F9300918002109181022091820243
:103DC00030918302602B712B822B932B1F910F91CB
:103DD0000C94CA1E0F931F930091800210918102D0
:103DE00020918202309183026023712382239323E6
:103DF0001F910F910C94CA1E0F931F930091800284
:103E000010918102209182023091830260277127F4
:103E1000822793271F910F910C94CA1E0C94C51EE4
:103E20000E940E1F60937C0270937D0280937E023D
:103E300090937F020C94471B60E070E0CB010C94E0
:103E4000101F0F931F9341E050E060E070E08A0183
:103E50009B0104C0000F111F221F331F8A95D2F748
:103E6000C901B8011F910F910C94101F0F931F935C
:103E700041E050E060E070E004C0440F551F661F51
:103E8000771F8A95D2F780917C0290917D02A09154
:103E90007E02B0917F028A019B01082B192B2A2BED
:103EA0003B2BC901B8011F910F910C94101F0F9368
:103EB0001F9341E050E060E070E004C0440F551FE4
:103EC000661F771F8A95D2F740955095609570953B
:103ED00080917C0290917D02A0917E02B0917F0240
:103EE0008A019B01082319232A233B23C901B80116
:103EF0001F910F910C94101F0F931F9341E050E0FE
:103F000060E070E004C0440F551F661F771F8A955C
:103F1000D2F780917C0290917D02A0917E02B091B7
:103F20007F028A019B01082719272A273B27C901FD
:103F3000B8011F910F910C94101F0F931F930091C4
:103F40007C0210917D0220917E0230917F02602BD5
:103F5000712B822B932B1F910F910C94101F0F9399
:103F60001F9300917C0210917D0220917E0230917E
:103F70007F0260237123822393231F910F910C945E
:103F8000101F0F931F9300917C0210917D022091CE
:103F90007E0230917F0260277127822793271F912D
:103FA0000F910C94101F089527E0929F800D11240B
:103FB000E82FE695E695E695877051E001C0550F2C
:103FC0008A95EAF785E0E89FF0011124E15BFD4F57
:103FD00020E030E070E04081CB01022E02C09695D7
:103FE00087950A94E2F78170819584278523842739
:103FF00081932F5F3F4F2530310569F7089527E002
:10400000929F800D1124682F669566956695982F6E
:10401000977085E0689FB001112440E050E080E097
:10402000FB01E40FF51FE15BFD4F208130E0092E1D
:1040300002C0369527950A94E2F721703327042EA3
:1040400001C0220F0A94EAF7822B4F5F5F4F453081
:10405000510531F70895BF92CF92DF92EF92FF9210
:104060000F931F93CF93DF938C01C0907C02D0906D
:104070007D02E0907E02F0907F028091800290911C
:104080008102A0918202B0918302C82AD92AEA2A29
:10409000FB2ACFE1D0E0D701C6010C2E04C0B695B3
:1040A000A795979587950A94D2F780FD04C021972C
:1040B00090F7B12C07C0BC2EB8018C2F0E94F605DA
:1040C0000197A9F38B2DDF91CF911F910F91FF9055
:1040D000EF90DF90CF90BF900895CF93DF93EC01E6
:1040E0000E942B20BE010E94F605DF91CF9108951A
:1040F0001F93CF93DF93EB0190911602992321F048
:10410000CB010E946D2013C0882349F0CB010E948F
:104110002B20182F682FCE010E94D41F04C0CB0182
:104120000E94FF1F182FBE01812F0E94F605DF910C
:10413000CF911F91089580918402859585958595ED
:1041400008958091840287700895909184029770F9
:1041500081E009F480E008958091900208959091A3
:104160009002892B809390020895809590919002FF
:10417000892380939002089510929002089590915F
:104180008F02892B80938F020895809590918F02E2
:10419000892380938F02089510928F0208951092C0
:1041A0008E02089580918502089508950C94D5207B
:1041B0000C94D62090918502981721F08093850267
:1041C0000C94D820089580918502882329F01092BC
:1041D000850280E00C94D8200895E0912301F091AD
:1041E0002401809190028083E0912301F0912401C9
:1041F000908180918F02892B8083E0912301F0913F
:104200002401908180918E02892B80838091850288
:10421000882381F0E0912301F09124019081892B82
:10422000808380912301909124010E944D2281116D
:104230000E94E32080912301909124010C942D177A
:104240000C94D52098E0899F90011124262B20936F
:1042500084020E94361F80918402859585958595FC
:104260000C9420211092840280E00C942021209153
:1042700084028095822380938402982F977079F42A
:1042800030E0482F082E000C550B2417350739F065
:104290008595859585950E94571F0C943221089528
:1042A000CF92DF92EF92FF926C01EE24FF24C114B3
:1042B000D104E104F10421F0C701B60120E101C0FD
:1042C00020E0C72ED82EE92EFF24C114D104E1042A
:1042D000F10419F0285FC701B6016B017C0154E0BD
:1042E000F694E794D794C7945A95D1F7C114D104A2
:1042F000E104F10419F02C5FC701B6016B017C01E8
:1043000042E0F694E794D794C7944A95D1F7C11444
:10431000D104E104F10419F02E5FC701B601DC01FC
:10432000CB01B695A79597958795892B8A2B8B2BD3
:1043300009F02F5F822FFF90EF90DF90CF900895CC
:104340006FEF7FEF80E090E00C947A2B80E090E0BC
:104350000E94562B21E08C3E9E4F09F020E0822FD8
:10436000089582E090E00C94482B83E090E00C9458
:10437000482BCF9384E090E00E94482BC82F81E225
:1043800090E00E94482B2C2F30E0A901582BCA0145
:10439000CF910895CF93C92F682F84E090E00E94B9
:1043A0005C2B6C2F81E290E0CF910C945C2BAB01E5
:1043B000BC018FE090E00C946E2BAB01BC0183E15B
:1043C00090E00C946E2B60E070E0CB010C94DD214A
:1043D00060E070E0CB010E94D7210C94E3216CEEE9
:1043E0007EEF80E090E00E947A2B60E082E090E037
:1043F0000E945C2B60E083E090E00E945C2B1092B6
:10440000800210928102109282021092830260E078
:1044100084E090E00E945C2B60E081E290E00E94EA
:104420005C2B60E085E090E00E945C2B60E086E021
:1044300090E00E945C2B6FEF87E090E00E945C2B85
:1044400040E050E0BA0188E090E00E946E2B60E00E
:104450008DE090E00E945C2B40E050E0BA0188E1E2
:1044600090E00E946E2B60E087E190E00E945C2B60
:1044700040E050E0BA018CE190E00E946E2B60E0D9
:1044800080E290E00E945C2B0C94E8210C94EF21D8
:10449000682F8EE090E00C945C2BFC01329697E044
:1044A00080E0915029F021912223D9F38F5FF9CF39
:1044B0000895662349F0FC0132960896219162170F
:1044C00029F0E817F907D1F780E0089581E0089511
:1044D0009C01FC0132969FEF80E04191461789F0E4
:1044E0009F3F19F4411101C0982F8F5F8630A9F7C3
:1044F0009F3F39F0F901E90FF11D97FDFA956283AD
:10450000089508959C012A5F3F4FFC0142814613A4
:1045100001C01282019682179307B9F708950C948F
:1045200068220C948222029626E0FC0111922A95C0
:10453000E9F7089508950C949A220C949A22CF9347
:104540000E949D220E9464080E949B22C0E08C2F42
:104550000E94BE07811104C0CF5FCA30C1F701C0FD
:1045600081E0CF9108950C949A220C94B3220E947A
:10457000B52280918303843049F11092920220E4A5
:1045800088E190E00FB6F894A895809360000FBE84
:104590002093600080E00E9494050E94B52283B7BA
:1045A000817F846083BF83B7816083BF789488955F
:1045B00083B78E7F83BF0FB6F894A8958091600073
:1045C000886180936000109260000FBE08950C9483
:1045D0009A220E945D1B0E9421170E9494050C9450
:1045E000E7221F920F920FB60F9211248F939F9381
:1045F000AF93BF9380919202811113C08091790390
:1046000090917A03A0917B03B0917C034196A11D08
:10461000B11D8093790390937A03A0937B03B093A9
:104620007C03BF91AF919F918F910F900FBE0F9020
:104630001F90189582E084BD93E095BD9AEF97BDD9
:1046400080936E0008952FB7F8948091790390912C
:104650007A03A0917B03B0917C032FBF08952FB7FD
:10466000F8946091790370917A0380917B03909123
:104670007C032FBF08959C014FB7F8948091790374
:1046800090917A03A0917B03B0917C034FBF821B72
:10469000930B089578941F920F920FB60F921124E6
:1046A0008F939F93AF93BF938091790390917A03F7
:1046B000A0917B03B0917C030196A11DB11D809355
:1046C000790390937A03A0937B03B0937C03BF910B
:1046D000AF919F918F910F900FBE0F901F901895E3
:1046E00087E797E790930108809300089AE088E1B4
:1046F0000FB6F894A895809360000FBE9093600069
:10470000FFCF0C943C100E9464088FE39CE9019752
:10471000F1F700C000000E94640880E00E94BE071C
:1047200080FF04C00E9481230C94702308950E948E
:10473000A621811102C00E9446220E94B1218093CD
:1047400091020E94B92190937E0380937D030E9481
:10475000B521682F70E080E090E00C94D61E809127
:104760009B0208950895CF93DF9300D01F92CDB799
:10477000DEB790918303943011F589837B836A833C
:104780009093E9008FEF9091E800815095FD06C06D
:1047900095ED9A95F1F700008111F5CF8091E80031
:1047A00085FF0DC040E050E063E070E0CE0101966F
:1047B0000E9431268091E8008E778093E8000F9068
:1047C0000F900F90DF91CF910895CF93DF93EC017D
:1047D0000E941426823011F0843031F4BE0184E04E
:1047E000DF91CF910C94B323DF91CF910895BC0159
:1047F00083E00C94B323CF93DF93EC010E94142643
:10480000823011F0843039F581E08093E9008FEF38
:104810009091E800815095FD06C095ED9A95F1F7CD
:1048200000008111F5CF8091E80085FF14C040E0C1
:1048300050E068E070E0CE010E9431268091E800EF
:104840008E778093E80088E0FE01A3E9B2E0019052
:104850000D928A95E1F7DF91CF910895CF93603261
:1048600019F5209183032430F9F4C091E900CF7049
:104870003091EC00232F217030FD20E8C22B22E084
:104880002093E9002091E80020FF0BC040E050E0B9
:1048900060E270E00E9431268091E8008E7780937C
:1048A000E800CF70C093E900CF9108958091820312
:1048B000811109C00E940D280E946A288091E2009F
:1048C00084608093E2000895109282030895089511
:1048D00008950C94E92242E061EC81E00E94862771
:1048E00042E261EC84E00E94862742E261EC82E0D1
:1048F0000E94862742E260EC83E00C948627809138
:104900008503833009F462C030F4813071F0823065
:1049100009F49BC008958A3009F487C08B3009F4EC
:104920006DC0893009F0A9C020C080918403813A0C
:1049300009F0A3C08091E800877F8093E800809110
:10494000880390918903892B21F468E083E992E040
:1049500003C060E080E090E070E00E94C726809194
:10496000E8008B778093E80008958091840381327A
:1049700009F083C08091880390918903009719F012
:10498000029709F07AC08091E800877F8093E80061
:104990008091E80082FD05C0809183038111F8CFEA
:1049A0006CC02091F3008091F20090E0922B02976E
:1049B00029F48091F1008B7F813021F48091F10006
:1049C00080939B028091E8008B7753C08091840391
:1049D000813A09F052C08091880390918903892B14
:1049E00009F04BC08091E800877F8093E8008091B8
:1049F000E80080FFFCCF80912F0136C080918403B6
:104A00008132D9F58091880390918903892BA9F58A
:104A10008091E800877F8093E8000E94BB27809107
:104A2000860380932F010C945D1B80918403813257
:104A300021F58091E800877F8093E8000E94BB27E2
:104A40008091870380939C02089580918403813A2A
:104A5000A1F48091E800877F8093E8008091E800CE
:104A600080FFFCCF80919C028093F1008091E80050
:104A70008E778093E8000C94BB2708951F93CF9303
:104A8000DF93CDB7DEB7A0970FB6F894DEBF0FBEA9
:104A9000CDBF84B7877F84BF0FB6F894A895809167
:104AA0006000886180936000109260000FBE90E00B
:104AB00080E80FB6F89480936100909361000FBE78
:104AC0000E9474170E940D280E946A288091E200BB
:104AD00084608093E20078940E94FF2A0E947C17F1
:104AE00085E291E00E941C1713E0809183038530DA
:104AF00069F40E94B722809181038823B1F30E9458
:104B00009F22882391F30E941B26EFCF0E948A17D1
:104B100080918303843049F71093E9008091E80085
:104B200082FFE3CF8091E80085FF0AC040E050E0BB
:104B300060E270E0CE0101960E947C2691E001C007
:104B400090E08091E8008B778093E800992369F2E8
:104B500060E2CE0101960E94F410C7CF0C94B025FC
:104B6000292F332723303105C9F060F42130310576
:104B700081F02230310509F047C08BE590E028E450
:104B800036E046C02132310511F12232310561F1A2
:104B90003BC082E190E023EA36E03AC099278130B9
:104BA000910561F040F08230910559F0039761F56D
:104BB000EEE1F6E008C0E4E4F6E005C0E0E3F6E08C
:104BC00002C0E4E2F6E0849190E09F0121C06330EE
:104BD0007105D0F4660F771FFB01E153FE4F208172
:104BE000318189E090E014C06330710568F4FB0105
:104BF000EE0FFF1FE753FE4F20813181FB01EA5387
:104C0000FE4F808190E004C080E090E020E030E042
:104C1000FA0131832083089580918303843011F059
:104C200081E0089582E0089580919D02811102C083
:104C30000C940C26089580E189BD82E189BD09B4F8
:104C400000FEFDCF8091D8008F7D8093D8008091A9
:104C5000E00082608093E0008091E00081FDFCCF65
:104C60000895CF92DF92EF92FF920F931F93CF930D
:104C7000DF93EC018B017A010E94DA27811133C0A6
:104C8000E114F10439F0F70180819181081B190BBF
:104C9000C80FD91FC12CD12C0115110519F1809114
:104CA000E80085FD16C08091E8008E778093E800CB
:104CB000E114F10449F0F70180819181C80ED91EF9
:104CC000D182C08285E00FC00E94DA27882321F3B9
:104CD0000AC089918093F10001501109FFEFCF1AAA
:104CE000DF0ADACF80E0DF91CF911F910F91FF9023
:104CF000EF90DF90CF900895CF92DF92EF92FF92E6
:104D00000F931F93CF93DF93EC018B017A010E94E5
:104D1000DA27811133C0E114F10439F0F701808101
:104D20009181081B190BC80FD91FC12CD12C01155B
:104D3000110519F18091E80085FD16C08091E80009
:104D40008B778093E800E114F10449F0F70180814A
:104D50009181C80ED91ED182C08285E00FC00E9409
:104D6000DA27882321F30AC08091F100899301504A
:104D70001109FFEFCF1ADF0ADACF80E0DF91CF9180
:104D80001F910F91FF90EF90DF90CF9008952091A9
:104D90008A0330918B032617370748F06115710598
:104DA00039F42091E8002E772093E80001C0B90182
:104DB000FC0120E06115710579F18091830388235E
:104DC000F1F18530F1F18091E80083FD3CC08091E4
:104DD000E80082FD2EC08091E80080FFEBCF20919B
:104DE000F3008091F20090E0922B6115710551F073
:104DF0008830910538F421912093F10061507109B8
:104E00000196F3CF21E0089709F020E08091E800B7
:104E10008E778093E800CECF2111CFCF0AC080914A
:104E20008303882361F0853061F08091E80083FD81
:104E30000AC08091E80082FFF2CF80E0089582E00E
:104E4000089583E0089581E0089520918A033091C8
:104E50008B032617370748F06115710539F4209147
:104E6000E8002E772093E80001C0B901FC0120E0A2
:104E70006115710591F180918303882309F440C085
:104E8000853009F43FC08091E80083FD3DC08091EA
:104E9000E80082FD2FC08091E80080FFE9CF2091DB
:104EA000F3008091F20090E0922B6115710559F0AA
:104EB0008830910540F424912093F100319661509F
:104EC00071090196F2CF21E0089709F020E0809166
:104ED000E8008E778093E800CBCF2111CCCF0AC0B9
:104EE00080918303882361F0853061F08091E80030
:104EF00083FD0AC08091E80082FFF2CF80E0089530
:104F000082E0089583E0089581E00895982F973016
:104F100068F59093E900981739F07091EC002091B2
:104F2000ED005091F00003C0242F762F50E021FDBA
:104F300002C09F5FECCF3091EB003E7F3093EB00DF
:104F40003091ED003D7F3093ED003091EB0031600A
:104F50003093EB007093EC002093ED005093F00041
:104F60002091EE0027FDE5CF80E008958F708093BB
:104F7000E90081E008958091840387FF11C080914A
:104F8000E80082FD05C0809183038111F8CF11C034
:104F90008091E8008B770BC080918303882349F0D0
:104FA0008091E80080FFF8CF8091E8008E778093B1
:104FB000E80008952091E4003091E50095E64091E5
:104FC000EC00842F817040FF23C08091E80080FDB9
:104FD0001DC080918303882399F0853099F08091DA
:104FE000EB0085FD11C04091E4005091E5002417CD
:104FF000350729F3915011F09A01E1CF84E008952B
:1050000082E0089583E0089581E0089580E00895A6
:105010004091E80042FFDDCF08950E947B280E9466
:105020008328E0EEF0E0808181608083E8EDF0E0AD
:1050300080818F77808319BCA7EDB0E08C918E7F43
:105040008C9380818F7E80831092820308950F93CA
:105050001F93CF93DF930E947B280E948328C8ED83
:10506000D0E088818F778883888180688883888171
:105070008F7D888319BC1092830310927F03109256
:1050800081031092800300EE10E0F80180818B7F95
:10509000808388818160888342E060E080E00E94B4
:1050A0008627E1EEF0E080818E7F8083E2EEF0E003
:1050B000808181608083808188608083F801808125
:1050C0008E7F8083888180618883DF91CF911F915B
:1050D0000F910895E8EDF0E080818F7E8083E7ED09
:1050E000F0E080818160808384E082BF81E08093F2
:1050F00082030C942728E8EDF0E080818E7F808386
:105100001092E20008951092DA001092E1000895E2
:105110001F920F920FB60F9211242F933F934F932C
:105120005F936F937F938F939F93AF93BF93EF930F
:10513000FF938091E10082FF0BC08091E20082FF2B
:1051400007C08091E1008B7F8093E1000E94FE2ADE
:105150008091DA0080FF1FC08091D80080FF1BC0C3
:105160008091DA008E7F8093DA008091D90080FFF1
:105170000DC080E189BD82E189BD09B400FEFDCF8B
:1051800081E0809383030E94562405C019BC1092CD
:1051900083030E9464248091E10080FF19C0809104
:1051A000E20080FF15C08091E2008E7F8093E200D4
:1051B0008091E20080618093E2008091D80080625B
:1051C0008093D80019BC85E0809383030E946824F3
:1051D0008091E10084FF30C08091E20084FF2CC008
:1051E00080E189BD82E189BD09B400FEFDCF8091D7
:1051F000D8008F7D8093D8008091E1008F7E8093CE
:10520000E1008091E2008F7E8093E2008091E200D5
:1052100081608093E20080917F03882311F084E015
:1052200007C08091E30087FD02C081E001C083E0F8
:10523000809383030E9469248091E10083FF29C049
:105240008091E20083FF25C08091E100877F8093F9
:10525000E10082E08093830310927F038091E1005C
:105260008E7F8093E1008091E2008E7F8093E20048
:105270008091E20080618093E20042E060E080E0A3
:105280000E9486278091F00088608093F0000E9441
:105290006724FF91EF91BF91AF919F918F917F9183
:1052A0006F915F914F913F912F910F900FBE0F9093
:1052B0001F9018951F920F920FB60F9211242F93E3
:1052C0003F934F935F936F937F938F939F93AF938E
:1052D000BF93CF93DF93EF93FF93C091E900CF701B
:1052E0008091EC00D82FD17080FDD0E81092E900B9
:1052F0008091F000877F8093F00078940E949E292F
:105300001092E9008091F00088608093F000CD2B2E
:10531000CF70C093E900FF91EF91DF91CF91BF91E2
:10532000AF919F918F917F916F915F914F913F913D
:105330002F910F900FBE0F901F9018951F93CF9332
:10534000DF93CDB7DEB7AA970FB6F894DEBF0FBED6
:10535000CDBFE4E8F3E08091F100819323E0EC38E5
:10536000F207C9F70E947F248091E80083FF2EC1D5
:105370008091840390918503492F50E04A30510574
:1053800008F024C1FA01E956FF4F0C942E2B803807
:1053900021F0823809F01AC108C0809180039091F1
:1053A0008103992389F082600FC0809188038F70F8
:1053B000873008F00BC18093E9008091EB0085FBFA
:1053C000882780F91092E9009091E800977F9093E8
:1053D000E8008093F1001092F100D1C0282F2D7FBA
:1053E00009F0F4C0882319F0823061F0EFC0809199
:1053F0008603813009F0EAC0933009F080E08093A1
:1054000081032EC08091860381112AC08091880378
:105410008F702FEF280F263008F0D8C08093E90056
:105420002091EB0020FF1CC0933021F48091EB0011
:10543000806214C09091EB0090619093EB0021E0AA
:1054400030E0A90102C0440F551F8A95E2F740934E
:10545000EA001092EA008091EB0088608093EB00F4
:105460001092E9008091E800877F8093E8000E9415
:10547000BB27ACC08111AAC0109186031F77809111
:10548000E3008078812B8093E3008091E800877FA0
:105490008093E8000E94BB278091E80080FFFCCF4A
:1054A0008091E30080688093E300111102C082E0E4
:1054B00001C083E08093830389C08058823008F064
:1054C00085C080918603909187038C3D53E09507BA
:1054D00079F583E08A838AE289834FB7F894DE0105
:1054E000139620E03EE051E2E32FF0E050935700A6
:1054F000E49120FF03C0E295EF703F5FEF708E2FC5
:1055000090E0EA3010F0C79601C0C0968D939D934D
:105510002F5F243149F74FBF8091E800877F809348
:10552000E8006AE270E0CE0101960E94C72616C02C
:105530006091880370918903AE014F5F5F4F0E94B5
:10554000AE25BC01892B09F441C09091E800977FFA
:105550009093E80089819A810E9425278091E80034
:105560008B778093E80032C0803881F58091E80025
:10557000877F8093E80080917F038093F100809182
:10558000E8008E7772CF811121C0809186039091BF
:10559000870399270297D4F48091E800877F80934E
:1055A000E8008091860380937F030E94BB2780914F
:1055B0007F03811106C08091E30087FD02C081E076
:1055C00001C084E0809383030E946B248091E800F3
:1055D00083FF0AC08091E800877F8093E800809174
:1055E000EB0080628093EB00AA960FB6F894DEBFC2
:1055F0000FBECDBFDF91CF911F9108950895CF9336
:10560000809183038823A1F0C091E900CF7090912D
:10561000EC00892F817090FD80E8C82B1092E90082
:105620008091E80083FD0E949E29CF70C093E9001D
:10563000CF910895AA1BBB1B51E107C0AA1FBB1F36
:10564000A617B70710F0A61BB70B881F991F5A950E
:10565000A9F780959095BC01CD010895EE0FFF1F2D
:105660000590F491E02D09946927962769277827FA
:10567000872778270895FC014150504030F0019071
:105680000616D1F73197CF010895882799270895F5
:10569000F999FECF92BD81BDF89A992780B50895FA
:1056A000A6E1B0E044E050E00C94822BA8E1B0E029
:1056B00042E050E00C94822B262FF999FECF92BD48
:1056C00081BDF89A019700B4021639F01FBA20BDC7
:1056D0000FB6F894FA9AF99A0FBE08950396272FF9
:1056E0000E945D2B0E945C2B252F0E945D2B242F96
:1056F0000C945D2B0196272F0E945D2B0C945C2B44
:10570000DC01CB01FC01F999FECF06C0F2BDE1BD81
:10571000F89A319600B40D9241505040B8F7089570
:04572000F894FFCF2B
:1057240001DB0100DC0106DC01E20108E301000009
:1057340000004000404001090A0B0C0D0E0F10112F
:105744001236668602AF23FB23B223F723E5230137
:10575400E200E900EA00B500B600B700CD0083011D
:10576400CC008A0192019401210223022402250221
:10577400260227022A02B300B4006F00700081825F
:105784008394F4F5F6F73197C634333235000000CC
:1057940000000001020202020606060909090909BD
:1057A400090909090900FF0100010000FFFF0000C9
:1057B400010001FF00E200E900EA00B500B600B70D
:1057C40000CD008301CC008A0192019401210223BF
:1057D4000224022502260227022A02B300B4006F23
:1057E4000070008182834022320907B506D7065A29
:0657F40006730693060097
:00000001FF
