:100000000C94CC030C9413040C9413040C948E27BE
:100010000C9413040C9413040C9413040C94130404
:100020000C9413040C9413040C940C1D0C94481C95
:100030000C949D200C9413040C9413040C9413043E
:100040000C9413040C9413040C9413040C941304D4
:100050000C9413040C9432200C9413040C94130489
:100060000C9413040C9413040C9413040C941304B4
:100070000C9413040C9413040C9413040C941304A4
:100080000C9413040C9413040C9413040C94130494
:100090000C9413040C9413040C9413040C94130484
:1000A0000C9413040C9413040C941304361139119A
:1000B0005A1167116E118E119111C511E71181123C
:1000C0008B12F211F511F8111B123B123E12411264
:1000D00063124D164D1687168716DA16F61688180F
:1000E00088180117DF17F017F017C818F218F7185B
:1000F000FC18011906190B19101915191A191F19CD
:1001000026192B192E190B140B140B140B1431195F
:100110000B14501A771A2A1C771A2A1CC31AE61ACB
:100120002A1CE71BF71B76237623892389237F2349
:10013000892389238923762376238423892389238A
:1001400084230001010101010101010102020202F7
:100150000202020202030303030303030304040471
:10016000040404040505050505060606060607073A
:1001700007070708080808090909090A0A0A0B0BF2
:100180000B0C0C0C0D0D0D0E0E0E0F0F0F10101191
:100190001111121213131414151516161717181817
:1001A00019191A1A1B1B1C1D1D1E1E1F202021227F
:1001B00022232424252626272829292A2B2C2D2DC5
:1001C0002E2F30313232333435363738393A3B3CE2
:1001D0003D3E3F404142434445464748494A4C4DD5
:1001E0004E4F50515354555658595A5B5D5E5F619E
:1001F0006264656668696B6C6D6F70727375777831
:100200007A7B7D7E8082838587888A8C8E8F91938E
:100210009596989A9C9EA0A2A3A5A7A9ABADAFB1B5
:10022000B3B5B7BABCBEC0C2C4C6C9CBCDCFD1D49A
:10023000D6D8DBDDDFE2E4E7E9EBEEF0F3F5F8FA40
:10024000FDFFFFAA7F55402223252628292A2C2D91
:100250002F3032333536383A3B3D3E4042434547F6
:10026000494A4C4E5051535557595A5C5E6062642E
:100270006668696B6D6F71737577797B7D7F81833C
:100280008587898A8C8E90929496989A9C9E9FA13D
:10029000A3A5A7A8AAACAEAFB1B3B4B6B8B9BBBC5E
:1002A000BEBFC1C2C3C5C6C7C9CACBCCCDCED0D1D3
:1002B000D2D2D3D4D5D6D7D7D8D9D9DADADBDBDBCB
:1002C000DCDCDCDCDCDDDDDDDDDCDCDCDCDCDBDB6C
:1002D000DBDADAD9D9D8D7D7D6D5D4D3D2D2D1D0C0
:1002E000CECDCCCBCAC9C7C6C5C3C2C1BFBEBCBBBD
:1002F000B9B8B6B4B3B1AFAEACAAA8A7A5A3A19F35
:100300009E9C9A98969492908E8C8A8987858381F8
:100310007F7D7B79777573716F6D6B6968666462D9
:10032000605E5C5A5957555351504E4C4A494745A7
:100330004342403E3D3B3A3836353332302F2D2C48
:100340002A29282625232229001E001F00200021FB
:1003500000220023002B0014001A000800150017CB
:10036000000000E00004001600070009000A000079
:1003700000E1001D001B000600190005000000E060
:10038000000151E2002C002C001250000024002536
:1003900000260027002D002E0031001C0018000C44
:1003A00000120013002F0030000B000D000E000F94
:1003B00000330034002800110010003600370038E8
:1003C00000E500015112502C002C00E600E700353A
:1003D000002A0001003A003B003C003D003E003F87
:1003E0000039000100C25CC55CC75CC95C0000014B
:1003F000000100C35CC65CC85CCA5C00000100016F
:1004000000010001000100010000000100010001E5
:1004100000010001000100000040004100420043D3
:100420000044004500490001000100460047004823
:100430000052000100010001004A004B0050004F33
:10044000000100010001004D004E005100010001BB
:1004500000010001000100010001004C0001002921
:10046000001E001F0020002100220023002B00148A
:10047000001A000800150017000000E00004001634
:1004800000070009000A000000E1001D001B000633
:1004900000190005000000E0000151E2002C002CD2
:1004A000001350000024002500260027002D002EF8
:1004B0000031001C0018000C00120013002F003047
:1004C000000B000D000E000F003300340028001157
:1004D000001000360037003800E500015113502CA1
:1004E000002C00E600E70035002A0029001E001F4E
:1004F0000020002100220023002B0014001A000815
:1005000000150017000000E00004001600070009B5
:10051000000A000000E1001D001B00060019000594
:10052000000000E0000151E2002C002C00105000FF
:100530000024002500260027002D002E0031001C7D
:100540000018000C00120013002F0030000B000DEB
:10055000000E000F00330034002800110010003698
:100560000037003800E500015110502C002C00E647
:1005700000E70035002A00783C1E1E140A05000022
:10058000000000000000000000000000000000006B
:1005900000007E0F00D4FFFFFFC7000000780000BE
:1005A0000000000000002A2B2800000000000000CE
:1005B00000000000000000000029000000002C1EC8
:1005C0003420212224342627252E362D3738271E85
:1005D0001F202122232425263333362E37381F04AB
:1005E00005060708090A0B0C0D0E0F101112131443
:1005F00015161718191A1B1C1D2F3130232D350401
:1006000005060708090A0B0C0D0E0F101112131422
:1006100015161718191A1B1C1D2F3130354C0501E2
:100620000902A10185020901A10005091901290595
:10063000150025019505750181029501750381015C
:100640000501093009311581257F9502750881065C
:1006500009381581257F950175088106050C0A3832
:10066000021581257F950175088106C0C005010925
:1006700080A101850319012AB700150126B700954D
:100680000175108100C0050C0901A1018504190143
:100690002AA002150126A002950175108100C0064E
:1006A00060FF0961A1010962150026FF0095207510
:1006B0000881020963150026FF0095207508910244
:1006C000C005010906A101050719E029E715002564
:1006D00001950875018102950175088101050719C9
:1006E0000029FF150026FF00950675088100050802
:1006F000190129059505750191029501750391016F
:10070000C009025B00030100A0FA09040000010314
:1007100001010009211101000122400007058103A8
:1007200008000A0904010002030000000921110168
:1007300000012222000705820320000107050303B0
:100740002000010904020001030000000921110139
:1007500000012281000705840320000A1201100114
:100760000000000838393436020001020301040396
:10077000300000000A0372006500360034000000FB
:1007800012036B0075007300680069006D00610062
:10079000380000000403090411241FBECFEFDAE083
:1007A000DEBFCDBF04B603FE27C0809193039091B6
:1007B0009403A0919503B09196038730904BA74086
:1007C000B04BD1F4109293031092940310929503BE
:1007D0001092960314BE84B7877F84BF0FB6F89437
:1007E000A8958091600088618093600010926000FD
:1007F0000FBEE0E0F8E3099523E0A2EAB1E001C012
:100800001D92A339B207E1F711E0A0E0B1E0EAE5FB
:10081000F2E502C005900D92A23AB107D9F70E9405
:10082000B70C0C942B290C9400000895AF92BF9242
:10083000CF92DF92EF92FF920F931F93CF93DF93AC
:10084000E82EF62EE901E42FF0E0611106C0EE5B20
:10085000FE4FE4914E2F2E2F71C0062F10E0EE5B5D
:10086000FE4F4491F42FC42ED12C26E0829FC0016C
:1008700011242FEF30E0B9010E94E9285BEA56030A
:10088000C001579F900D11248E0D911D8E0D911D4D
:10089000582F550F580FD901A01BB10BAC9DC001AB
:1008A000AD9D900DBC9D900D1124E92FF59ED001BA
:1008B0001124AB2FBB277901EA1AFB0AEC9CD0016B
:1008C000ED9CB00DFC9CB00D11245901A51AB10886
:1008D000A09E7001A19EF00CB09EF00C1124EF2C94
:1008E000FF242E193F092C9D80012D9D100D3C9D4C
:1008F000100D1124212F6230710591F048F461151B
:100900007105E1F061307105B9F4242F4B2F16C049
:100910006430710569F040F06630710579F00CC003
:10092000242F492FE12F0AC0492FEF2F2B2F06C06C
:10093000292FE42F412F02C0292FEB2F4983288331
:10094000EA83DF91CF911F910F91FF90EF90DF909D
:10095000CF90BF90AF9008959091B90292FF0DC0D3
:10096000282F2871283019F4877F846006C0282F2B
:100970002471243011F48B7F886093FF0DC0282FE1
:100980002871283119F4877E846106C0282F2471CC
:10099000243111F48B7E88612091BA0220FF0DC0B2
:1009A000382F3871383019F4877F816006C0382FAE
:1009B0003171313011F48E7F886021FF0DC0282FF6
:1009C0002871283119F4877E816106C0282F217192
:1009D000213111F48E7E886194FD877E08956091A7
:1009E000E902669570E04BE050E080E091E00E9403
:1009F0001E29892B19F481E08093CA020E94672086
:100A00009093C4028093C3028091CB028460809350
:100A1000CB0208951F93CF93DF93CDB7DEB76797CF
:100A20000FB6F894DEBF0FBECDBF4B8B5C8B6D8BCA
:100A30007E8B8F8B86E09E01235F3F4FD901E82F8D
:100A40001D92EA95E9F795E0FE017396D9010190B0
:100A50000D929A95E1F7F901DE01179601900D923A
:100A60008A95E1F7CE0107960E948D2381113EC041
:100A700086E0FE013796DE01119601900D928A956F
:100A8000E1F7FF81E8856A857B856115710531F0A5
:100A9000EF3F31F481E0FF3F19F403C081E001C072
:100AA00080E080FD23C02091270330E0C90101963A
:100AB000877099274091580350E08417950779F182
:100AC000F983EA837D836C8396E0929FD001939FA4
:100AD000B00D1124A85DBC4FFE01319601900D921E
:100AE0009A95E1F7809327030E94EE2216E0809109
:100AF0005803909127038917F9F0189FC00111241A
:100B0000885D9C4F0E948D238823B1F0809158030B
:100B100090E001968770992780935803E8CF0E9450
:100B200059251092270310925803E1E2F3E086E082
:100B3000DF011D928A95E9F767960FB6F894DEBF3C
:100B40000FBECDBFDF91CF911F91089520919B02E1
:100B500030919C022817390771F090939C02809382
:100B60009B02E091BD02F091BE02309721F000841B
:100B7000F185E02D099408952091990230919A020F
:100B80002817390771F090939A0280939902E091A7
:100B9000BD02F091BE02309721F00680F781E02D72
:100BA00009940895E091BD02F091BE02309721F0C2
:100BB0000190F081E02D099480E008950F931F9338
:100BC000CF93DF93C42FD22FFC0182818823C9F0F9
:100BD0004093FC020E9467209093980280939702B2
:100BE00080E28C0F883008F057C0C77081E001C0E8
:100BF000880FCA95EAF7DF91CF911F910F910C945E
:100C00006F258091FC02481330C08091970290912B
:100C100098020E945820883C910538F510E21D0F7B
:100C2000CD17B9F080E28C0F883040F4C77081E0B6
:100C300001C0880FCA95EAF70E946425183028F58C
:100C400081E09D2F977001C0880F9A95EAF70E9466
:100C50006F25802F0E9417261830F0F4D77081E09E
:100C600001C0880FDA95EAF70AC080E28C0F88305D
:100C700098F4C77081E001C0880FCA95EAF7DF9148
:100C8000CF911F910F910C946425802FDF91CF910C
:100C90001F910F910C941726DF91CF911F910F9107
:100CA0000895CF93DF93C6E5D2E060E0CE010E94C5
:100CB000B5282196C11584E0D807B9F7DF91CF9107
:100CC0000895CF92DF92EF92FF920F931F93CF93ED
:100CD000DF93C0E0D0E08E0104571F4F6E018EE01D
:100CE000C80ED11CFE01E95BFC4FE590F4906F2D1E
:100CF000CE0186960E94B5286E2DCE0187960E9461
:100D0000B5282296CC15DD0569F70C171D0731F7BC
:100D1000E80100331240F9F6DF91CF911F910F9156
:100D2000FF90EF90DF90CF9008950F931F93CF9394
:100D3000DF93C42FD0E0CC0FDD1F2EE0629FC00DEB
:100D4000D11D11243CE8839FC00DD11D1124CE017B
:100D500086960E94A128082F10E0102F0027CE01B0
:100D600087960E94A1289801282BC901DF91CF9175
:100D70001F910F910895462F843038F47A3028F46B
:100D8000673018F4672F0C94950680E090E0089582
:100D9000CF93C82F811102C06FEF01C061E282E2E0
:100DA00090E00E94B528C11102C06FEF01C067E05A
:100DB00083E290E00E94B528C11102C06FEF01C02C
:100DC00063E284E290E0CF910C94B528882311F07F
:100DD000FA0101C0FB010994E9ECF2E01182828181
:100DE00084608283089530910C018091E90280FF34
:100DF00016C0E0910B0163E0E69FF0011124E95574
:100E0000FE4F539A8BB1877F9BB198602FB7F894B0
:100E1000AF0163E0369F400D511D112414C0809135
:100E20000D0190910E01891720F7E82FF0E0AF0136
:100E3000440F551FE40FF51FE955FE4F1182108234
:100E400012828F5FF0CFE417F50789F0319168E0E7
:100E50009BB9000000C037FF8BB9330F000000C002
:100E600000C000C08BB900C06A9591F7ECCF2FBFCE
:100E70008FE594E00197F1F700C00000089590918C
:100E8000E90290FF16C090910D0120910E0192177A
:100E900070F4E92FF0E0DF01AA0FBB1FEA0FFB1F80
:100EA000E955FE4F8183608342839F5FF0CF0C94AE
:100EB000F3060895CF93DF9300D01F92CDB7DEB72E
:100EC0009091E90290FF0DC0413708F040E79E0184
:100ED0002F5F3F4F0E9416044B8169818A810E94D7
:100EE0003F070F900F900F90DF91CF910895CF9310
:100EF000DF93EC01E9EEF2E0438162818C810E9494
:100F00005A078C818F5F8C83DF91CF910895CF93A7
:100F1000DF93EC01EC81F0E0E95BFD4F4491E9EEF9
:100F2000F2E0628181810E945A078C818F5F8C83FD
:100F3000DF91CF910895E9EEF2E080818E7F80838A
:100F40000E94EC06E9ECF2E08281816082832FEF5F
:100F500080E792E0215080409040E1F700C000001F
:100F60000C94F3068091E902282F269530E0211594
:100F7000310519F48170826005C02331310524F0F8
:100F8000817084628093E9028091EC02813718F0CD
:100F900080E78093EC020895CF92DF92EF92FF9268
:100FA0006B017C010E94B207B701A60188E090E0C6
:100FB000FF90EF90DF90CF900C94C728AF92BF9234
:100FC000CF92DF92EF92FF920F931F93CF93DF9315
:100FD00000D01F92CDB7DEB7082FF62E142FE22EC9
:100FE0008091E90280FF83C0E82FE695AE2FB0E044
:100FF000A25DBE4F9C919093C9028E7F823081F496
:10100000413708F040E79E012F5F3F4F6F2D802F43
:101010000E9416044B8169818A810E943F0744C067
:10102000923019F41091EC023FC0963019F40091FF
:10103000EA023AC09930C1F5E9508E2F8170D82E5E
:10104000E695F0E0EE5BFD4FA590B490C12CBB247B
:1010500060910F01C61630F52C2D30E0A29EC00124
:10106000A39E900DB29E900D112470E00E94E9287D
:10107000802FD11002C0860F01C0861B90910D01F8
:10108000290F311DA901440F551F240F351F295564
:101090003E4F412F113708F040E76F2D0E94160494
:1010A000C394D6CF0E94F3068091EA02081308C0C9
:1010B0008091EB02F81204C08091EC02181729F01D
:1010C0008091CB0282608093CB020093EA02F0927F
:1010D000EB021093EC02EE2051F06091E902709166
:1010E000EA028091EB029091EC020E94CC070F90F3
:1010F0000F900F90DF91CF911F910F91FF90EF9084
:10110000DF90CF90BF90AF900895E9EEF2E0438179
:1011100021E1421B08F440E021E0628181810C94CE
:10112000DE07E9EEF2E0438121E1420F08F44FEFE0
:1011300021E0628181810C94DE07E9EEF2E06281B8
:1011400021E1621B08F460E021E0438181810C947D
:10115000DE07E9EEF2E0628121E1620F08F46FEF51
:1011600021E0438181810C94DE07E9EEF2E0818188
:1011700021E04381628188500C94DE07E9EEF2E0C1
:10118000818121E043816281885F0C94DE07809138
:10119000ED02882319F081508093ED026091E902FD
:1011A0007091EA028091EB029091EC020C94CC07D2
:1011B0008091ED02833018F48F5F8093ED0260918F
:1011C000E9027091EA028091EB029091EC020C949A
:1011D000CC079091E90290FF3BC09170811102C051
:1011E000926006C0833110F0946202C0880F982B81
:1011F0009093E9028091CB0281608093CB026623B9
:1012000051F06091E9027091EA028091EB029091B5
:10121000EC020E94CC076091E902669570E04BE019
:1012200050E080E091E00E941E29892B19F00E9475
:10123000EC0602C00E94EF0481E08093C60220E029
:101240004091EC026091EB028091EA020C94DE077F
:1012500008958091E9028695815009F482E161E068
:101260000C94E9088091E90286958F5F833108F03C
:1012700081E061E00C94E9089091E90290FF04C0DC
:101280009695981740F003C0811105C090E096171D
:1012900010F40C94320961E00C94E908E9EEF2E0F4
:1012A00083E0808311828FEF828380E783831482BF
:1012B000A9ECB2E012968C911297836012968C93EF
:1012C00060817181828193810C94CC078091A60109
:1012D000811112C08091D80080618093D8008AE18A
:1012E0008A95F1F700C08091D90080FD02C082E0AC
:1012F00001C081E08093A60181E09091A601913028
:1013000009F080E00895CF93DF930E94BB06EC01C3
:101310008238910559F1A0F48133910509F473C025
:1013200040F48932910509F467C08A9709F472C0C4
:1013300084C08533910509F458C0C997B9F07DC0C0
:10134000833E910571F138F4803E9105B1F0823E03
:10135000910511F172C0863E9105B9F1873E910564
:10136000C9F1843E910509F068C024C08091B9029A
:1013700080FD5DC081FD5BC060C08091B90280FDD1
:1013800050C08091BA0280FF49C18091B90284FDAA
:1013900043C1C3EED0E042C18091B90282FF3EC199
:1013A000F4CF8091B90282FD3FC08091BA0280FDE6
:1013B0003EC0EBCF8091BA0281FF30C18091B9026B
:1013C00084FD2AC1C7EED0E029C18091B90283FF14
:1013D00025C1F4CF8091B90283FD2CC08091BA025F
:1013E00081FFECCFC4EED0E019C18091B90285FF36
:1013F00015C1C9E2D0E012C18091B90285FF0EC1CA
:10140000C5E3D0E00BC18091B90286FF07C1CAE2F3
:10141000D0E004C18091B90286FF00C1C1E3D0E0F1
:10142000FDC0C9E3D0E0FAC0C2EED0E0F7C0C0EE24
:10143000D0E0F4C0C6EED0E0F1C0C11581E5D80718
:1014400008F066C0C11520E5D207E0F0CE0174E0D7
:10145000969587957A95E1F783709C2F937021E09C
:1014600030E002C0220F331F9A95E2F73C68382B18
:10147000CF70C695C69540E2C49FE0011124C22BEF
:10148000D32BCCC0C83ED10560F5C03ED10508F0D5
:10149000C5C0C83AD105B0F4C53AD10540F0C55A27
:1014A000D0E0CF58DE4FC881D0E0D064B7C0C130A3
:1014B000D10509F4B3C008F4AFC0C430D10508F4B5
:1014C000ABC0ACC0CF3BD10508F0A6C0C85AD0E035
:1014D000CC0FDD1FCC58DE4F0990D881C02DD464CD
:1014E0009DC0C11540E2D40758F4C11581E0D8076A
:1014F00008F094C0C03FD10508F48EC0D0658EC0FE
:10150000C11520E4D20708F487C0DF70D06A86C016
:10151000C11545E5D40708F042C0C11584E5D807D8
:1015200028F0DC2FCC27C46FD06A78C0C11523E522
:10153000D207B0F0CE018370992721E030E002C0DD
:10154000220F331F8A95E2F78C2F8695869540E20D
:10155000849FC0011124E901C82BD92BDA685EC031
:10156000C11542E5D40728F4DC2FCC27C16FD06A1F
:1015700055C0CE018370992721E030E002C0220FD0
:10158000331F8A95E2F78C2F8695869540E2849FDB
:10159000C0011124E901C82BD92BDC683FC0C1155B
:1015A00089E5D807B8F4C11528E5D20728F0DC2F63
:1015B000CC27C06FD06A32C0C11546E5D40760F5AC
:1015C0008C2F0E94AC048F71C82FD0E0DC2FCC2769
:1015D000D06224C0C1158AE5D80780F48C2F8F70A3
:1015E0000E94AC0494E0D695C7959A95E1F7CF7028
:1015F000D0E0DC2FCC27D069C82B10C0CE0190568C
:101600008115904248F48D2F8F710E94AC04DD2724
:10161000D0628F71D82B02C0C0E0D0E0CE01DF9144
:10162000CF910895CF93C62F882311F08130E9F42C
:101630006091150370911603809117039091180320
:101640000E945421813049F010F0843070F4C111AF
:1016500002C08AEF07C089EF05C0C11102C081E551
:1016600001C082E5CF910C941726CF9108956F9217
:101670007F928F929F92AF92BF92CF92DF92EF9222
:10168000FF920F931F93CF93DF9361E471E00DEA14
:1016900012E022EBE22E22E0F22E3801C0E0AA2472
:1016A000A394B12CDB018D91BD01E82FE295EF7081
:1016B000F0E021A18F70A50102C0440F551F8A954B
:1016C000E2F7CA01242B21A322A1942E9094292170
:1016D00022A350EA5A95F1F79BE4C92E91E0D92E46
:1016E00020E030E0D0E0D6018D906D01482D42958C
:1016F0004F7050E0DA0190964C9150E0B82DBF70D9
:1017000002C055954795BA95E2F740FD07C04A2DAE
:10171000022E01C0440F0A94EAF701C040E0D42B26
:101720002F5F3F4F27303105F1F691A1992291A209
:1017300092A1892B82A3F3018081D81719F0D0835D
:1017400081E001C080E0C82BFFEF6F1A7F0AE6142A
:10175000F70409F0A7CFD090B802CC2349F081E07C
:101760008093A4010E9467209093A3018093A2011B
:101770008091A4018823A9F08091A2019091A301F6
:101780000E945820069768F0ED2DF0E0E251FD4FE1
:10179000D8018D918D018193EA16FB06C9F710924D
:1017A000A4010E946609882309F463C01091B7025E
:1017B0008091CB028823E9F085E0E9EEF2E0ADE923
:1017C000B2E001900D928A95E1F78091C902909163
:1017D000CA02A091CB028093A2029093A302A0938D
:1017E000A40281E090E00E941E28892B11F410923F
:1017F000CB0280E090E00E941E28892B09F094C063
:10180000E12FF0E0E251FD4F80E090E0DC01AA55CD
:10181000BD4F2C912193019685309105B9F7D09158
:10182000BC028D2F90E0FC01E453FD4F7F0110912D
:10183000AB028081181B012F101654F40150D70100
:101840008C918F5F8C9360E08D2F0E94120BF4CFF0
:10185000812F17FD80E0181B112309F462C01F5F60
:10186000F70180818150808361E08D2F0E94120BEF
:10187000F3CFE091B8020E2F10E08091A5028830DE
:10188000C9F58091A40280FF12C080919D0280FF63
:101890000CC08091E90281608093E90280919D02F1
:1018A00060E086950E94E90802C00E949B07809133
:1018B000A40281FF09C020E04091A00260919F0234
:1018C00080919E020E94DE078091A40282FF09C0DF
:1018D0008091A302882319F00E94EF0402C00E94A5
:1018E000EC068091A40283FF03C081E08093C602CE
:1018F0001092A502F801E251FD4F80E090E02191A5
:10190000DC01AA55BD4F2C93019685309105B9F79E
:10191000E091CF02F0E0E453FD4F80818093AB0271
:1019200016C01092A50113C08091A5018F5F80930E
:10193000A501863060F0E091B702F0E0E251FD4F82
:1019400080E090E01192019685309105D9F78C2FB7
:10195000DF91CF911F910F91FF90EF90DF90CF908B
:10196000BF90AF909F908F907F906F900895CF938E
:10197000DF93CDB7DEB7AA970FB6F894DEBF0FBEE0
:10198000CDBF84B7877F84BF0FB6F894A8958091A8
:101990006000886180936000109260000FBE90E04C
:1019A00080E80FB6F89480936100909361000FBEB9
:1019B00085B7806885BF85B7806885BF0E948C1C0D
:1019C0000E94AB1C8091E20084608093E2007894D6
:1019D000809114038823A1F01091E9001F70909169
:1019E000EC00892F817090FD80E8182B1092E9009F
:1019F0008091E80083FD0E946A191F701093E9002E
:101A000082E084BD93E095BD9AEF97BD80936E0010
:101A10002198299A259A2D9825E02A95F1F700001A
:101A200083B18695817025982D9A30EA3A95F1F721
:101A30008093200180912001882321F010920B01D6
:101A400088E203C088E280930B0180930C010E941E
:101A50006609882331F062E070E080E191E00E9445
:101A60003C278091200180912001882311F090E093
:101A700001C095E09093B80285E0891B8093B7027E
:101A8000A1E4B1E041E050E08D91E82FE295EF70E4
:101A9000F0E021A18F70BA0102C0660F771F8A950E
:101AA000E2F7CB01962F9095922391A392A1892BD7
:101AB00082A371E0A634B70739F7ABE4B1E041E0A7
:101AC00050E08D91E82FE295EF70F0E021A18F704A
:101AD000BA0102C0660F771F8A95E2F7CB01962FF5
:101AE0009095922391A392A1892B82A371E0A235B4
:101AF000B70739F7EDEAF2E0AEEEB2E011921D92CF
:101B000082E0E73BF807D1F70E94370BEFE3FCE9EF
:101B10003197F1F700C000000E94370B8091EE0270
:101B200080FF0AC080E00E94C8066FEF7FEF80E070
:101B300090E00E94D328FBC480E090E00E94AF2890
:101B40008C3E9E4F11F00E94F1200E946609811187
:101B500006C062E070E080E191E00E94452782E2E9
:101B600090E00E94A128813281F483E290E00E94FB
:101B7000A128873051F484E290E00E94A12891E0EE
:101B8000833209F090E0892F01C080E080FFF5C426
:101B900080E090E00E94AF288C3E9E4F11F00E94A2
:101BA000F12082E090E00E94A1288093DE020E9452
:101BB000E0209093BA028093B90283E090E00E9403
:101BC000A128682F70E080E090E00E94E4228091DC
:101BD000BB0281113BC080E090E00E94AF288C3EA8
:101BE0009E4F21F00E94F1200E944E0988E090E073
:101BF0000E94A9286093E9027093EA028093EB02A5
:101C00009093EC028091CB0283608093CB026E7F35
:101C100071F40E944E0988E090E00E94A928609328
:101C2000E9027093EA028093EB029093EC020E9427
:101C3000B2070E94EC068091E90280FF04C060E0D8
:101C400086950E94E90881E08093BB028091200183
:101C5000811106C086E38093220186E680932101EC
:101C600020912201A22FA295AF70B0E091963C91F5
:101C700091972F7081E090E0AC01022E01C0440FDB
:101C80000A94EAF7542F5095352391963C939197F7
:101C900092963C919297432B92964C9392974091B7
:101CA0002101E42FE295EF70F0E031A14F70042E96
:101CB00001C0880F0A94EAF7982F9095932391A377
:101CC00092A1892B82A390968C9190E002C0959569
:101CD00087952A95E2F7817020A130E002C0359502
:101CE00027954A95E2F720FF02C092E001C090E0FC
:101CF000892B8093D0029091200181E098279093C6
:101D0000CF02891B8093BC0283E291E09093BE02D4
:101D10008093BD02BE016F5F7F4F7B01CC24CA94CC
:101D2000DD24D3941E017DE0270E311C38EF432EB5
:101D300032E0532E48E1642E712C809114038530DB
:101D400009F036C080911403843011F11092BF0263
:101D500080E40FB6F894A895609260000FBE80935F
:101D6000600083B7817F846083BF83B7816083BF56
:101D70007894889583B78E7F83BF0FB6F894A89523
:101D800080916000886180936000109260000FBEB7
:101D900080910A03882309F4D0CF0E94370BEEEE1E
:101DA000F2E081918111CAC34E165F06D1F7C5CF0B
:101DB0000E94370B0E9466098823A1F1AFEDB2E0C3
:101DC000EEEEF2E000E010E0302F21919D9192279D
:101DD00021F180E0BB24B3944B2D4923D1F089A39A
:101DE0003AA32B2181E009F480E08BA30E946720B5
:101DF0008160782F9DA38CA349A15AA16BA18DA1CD
:101E00000E940A05F801E152FD4F8081B826B08298
:101E100018C08F5FBB0C8730F9F60F5F1F4F0A3079
:101E2000110591F6CEA2CFA218A60E94672081606C
:101E3000782F9AA789A74EA15FA168A58AA50E94BD
:101E40000A058091CA02882309F47CC08091C902E6
:101E5000E091E902E695E81BE093C502823059F46F
:101E6000F0E0E658FA4FE4910E2F10E027E8A22E9A
:101E700027E0B22E13C0863059F4F0E0E958FA4F4B
:101E8000E4910E2F10E097E7A92E97E0B92E06C037
:101E900000ED17E085E1A82E84E0B82E8091C602FF
:101EA000882389F01092C6020E946720980120952D
:101EB0003095820F931F9093C4028093C3021092B7
:101EC000C8021092C7028091C3029091C4020E947E
:101ED000582080179107B0F18091C2028823B1F099
:101EE0001092C2028091C0029091C1020E945820BB
:101EF0008033954758F00E9467209093C1028093E9
:101F0000C0028091CB0288608093CB028090C70290
:101F10009090C802E091C302F091C4020E0F1F1FFF
:101F20001093C4020093C30283EC92E0F50109957B
:101F30008091C7029091C802892B21F4892811F061
:101F4000D092C2028091D002E82FEE0FEE0F809166
:101F50002201A82FA295AF70B0E090962C9130E0AE
:101F60008F7002C0359527958A95E2F72170332747
:101F700080912101A82FA295AF70B0E090964C916E
:101F800050E08F7002C0559547958A95E2F7CA01D7
:101F90008170992740FF02C082E090E0822B932B52
:101FA0008E2B8093D0021091CF028F70E82FF0E03B
:101FB000EE5AFE4F90818091CE02890F8093CE021F
:101FC00084306CF0E12F012E000CFF0BE453FD4F29
:101FD00080818F5F808360E0812F0E94120B80914F
:101FE000CE028D3F6CF4E12F012E000CFF0BE45369
:101FF000FD4F80818150808361E0812F0E94120B10
:102000008091CE02837887FF03C081508C6F8F5FF1
:102010008093CE0286E0E7EDF2E0D70101900D92C9
:102020008A95E1F7A090D902B090DA020091DB0224
:102030001091DC021092D9021092DA021092DB02A7
:102040001092DC02A11003C0BB2009F44FC08091A4
:10205000D5029091D6020E9458209C019091D40202
:10206000992309F497C22333310508F43FC09F3FF9
:1020700019F09F5F9093D402AA2061F00E94991FEB
:102080001A1414F491E001C09FEF899F802D112450
:102090008093D902BB2061F00E94991F1B1414F495
:1020A00091E001C09FEF899F802D11248093DA0277
:1020B0003091D9023323D1F02091DA022223B1F0FA
:1020C00045EB3403C0011124992319F09093D902F0
:1020D00002C0D092D90265EB2603C00111249923D6
:1020E00019F09093DA0202C0D092DA02011103C013
:1020F000112309F44FC08091D2029091D3020E9423
:1021000058209C019091D102992309F448C22536A8
:10211000310508F43FC09F3F19F09F5F9093D102B3
:10212000002361F00E94771F101614F491E001C0A3
:102130009FEF899F802D11248093DB02112361F092
:102140000E94771F111614F491E001C09FEF899F40
:10215000802D11248093DC023091DB023323D1F0F7
:102160002091DC022223B1F075EB3703C00111246A
:10217000992319F09093DB0202C0D092DB0235EB79
:102180002303C0011124992319F09093DC0202C0AB
:10219000D092DC028091D90281110BC08091DA02C9
:1021A000811107C08091DB02811103C08091DC02A4
:1021B00081110E947320AB82BC820D831E8386E056
:1021C000F701A7EDB2E001900D928A95E1F70E9428
:1021D000D2059091DD02891721F00E94D2058093EB
:1021E000DD0280911403843009F0A7CD43E04093D1
:1021F000E9008091E80082FFA0CD8091E80085FF92
:102200001FC00E94E51D811119C000E210E05701B6
:1022100008C08091F100F50181935F01015011091F
:1022200069F08091E80085FDF4CF8091E8008B771C
:102230008093E8000E94E51D882399F391E001C096
:1022400090E08091E8008B778093E800992309F46F
:1022500074CDE9818E2F90E0FC013197E331F105D7
:1022600008F067C1EA5AFF4F0C9411291A8289E0DD
:10227000A7C08A81823009F477C1833089F0813028
:1022800009F057C12FB7F8948091F8029091F902A4
:10229000A091FA02B091FB022FBFBB83AC831CC09C
:1022A000FE013396AEEEB2E08D918193E215F30517
:1022B000D9F740C18A81823009F03BC16B817C81B2
:1022C0008D819E810E94172985E290E024C04C8177
:1022D0006B818A810E9495069D834DC1AD80BE8031
:1022E000BA24AB24BA248C810B819A81FEE00F9F23
:1022F000800111242CE8929F000D111D1124080F5C
:10230000111D080F111D6B2DC80186960E94B5285E
:102310006A2DC80187960E94B5280CC10E946106EB
:1023200009C18A818138B1F050F4803809F002C1C6
:1023300020E04B816091EB028091EA0223C0823859
:10234000E9F0833809F0F6C020E04091EC026C819E
:102350008B8118C060E08B810E94E9088B8181111C
:1023600003C00E949B07E6C08091E90281608093D0
:10237000E90260E086950E94E908DCC08B818093C9
:10238000ED02D8C00E94DE07D5C08A81813899F05D
:1023900030F4803809F0CEC08091EC0211C0823850
:1023A00099F0833809F0C6C08091EA028B8380914E
:1023B000EB028C83BFC08091E90280FF03C0869549
:1023C0008B83B8C080E0FCCF8091ED02F9CF6091A3
:1023D000E9027091EA028091EB029091EC020E9476
:1023E000CC07A8C080E18A83A5C0DA828AEAE8CF58
:1023F0000A811B811027012710278C80912C5701FF
:10240000C8018A5A9D4F95012E193F092815390593
:1024100008F090C00A3A31E0130728F40E94A1287E
:10242000F501848302C0F50114820F5F1F4FFFEF97
:10243000AF1ABF0AE5CF0A811B8110270127102799
:102440008C80912C5701C8018A5A9D4F95012E19F5
:102450003F092815390508F06DC00A3A21E0120736
:1024600020F4F50164810E94B5280F5F1F4FFFEF34
:10247000AF1ABF0AE8CF0E9451065CC024E02A834D
:1024800059C00A811B811027012710278C80912CAD
:102490005701C801869695012E193F09281539055F
:1024A00008F048C0003332E0130728F40E94A12846
:1024B000F501848302C0F50114820F5F1F4FFFEF07
:1024C000AF1ABF0AE6CF0A811B8110270127102708
:1024D0008C80912C5701C801869695012E193F09D1
:1024E0002815390538F5003322E0120720F4F501EC
:1024F00064810E94B5280F5F1F4FFFEFAF1ABF0A1C
:10250000EACF80E00E94C8066FEF7FEF80E090E0A6
:102510000E94D3280FC0C7010E94441E2FEF31EE46
:1025200044E0215030404040E1F700C000000E94EC
:102530002120C982C7010E94441EFFCB80E189BDD2
:1025400082E189BD09B400FEFDCF8091D8008F7D66
:102550008093D8008091E00082608093E0008091B9
:10256000E00081FDFCCFE9CB85E290E00E94A1284C
:102570001B821C821D828E83DDCF60E085E290E0AD
:102580000E94B5280E9461060E94510681E00E94C7
:10259000C806FECA2D32314008F06BCDA7CD2D32D2
:1025A000314008F0BACDF6CD5F926F927F928F9254
:1025B0009F92AF92BF92CF92DF92EF92FF920F93D2
:1025C0001F93CF93DF93CDB7DEB729970FB6F8945B
:1025D000DEBF0FBECDBFFC0180819181238134819C
:1025E000232B31F09F3F31F491E08F3F19F403C06A
:1025F00091E001C090E090FD39C67F0185E0DE01E9
:10260000119601900D928A95E1F7F7012281898157
:102610009A81222349F00E94D721182F682F89819F
:102620009A810E94502203C00E942422182F69819F
:102630007A81812F0E94BB068C01F7019281992338
:1026400009F4DFC0980122513F452031310508F0DF
:1026500004C18FEF93E00E94A1288111DCC00251D8
:1026600036E5832E32E0932E002379F08114F4E0D6
:102670009F0609F4D0C0C4010E94A128811101C0A5
:1026800001501FEF811A910AEFCF1E821F82188618
:102690001986662463942AE0522E84010F5F1F4F2F
:1026A000C4010E94A1288E831F82882309F4B3C02D
:1026B0009FEF980F933060F48F836E8222E0820E3A
:1026C000911CC8010E94A1288887811102C0A3C063
:1026D00048018E010A5F1F4FF80120812223E9F291
:1026E000213009F04CC08181813049F46801F2E069
:1026F000CF0ED11CF80182810E9417260AC08230B9
:1027000051F46801F2E0CF0ED11CF80182810E94E1
:10271000B825860173C0833049F46801F2E0CF0E1A
:10272000D11CF80182810E947925F3CF843019F001
:102730000F5F1F4F63C0F80122810E5F1F4F80E0C3
:1027400090E030E0205331092A30310568F4589E7A
:10275000A001599E500D1124C901840F951F0F5FD0
:102760001F4FF8012081EDCF009709F447C0EFE932
:10277000FFE03197F1F700C000000197F5CFE22F9D
:10278000F0E0E256FA4F7490822F869586958695F2
:1027900090E0FC01E257FA4FA4902770B12C022E72
:1027A00002C0B594A7940A94E2F7F1E0AF22BB24EB
:1027B000FC01E258FA4FC490D12C02C0D594C794C2
:1027C0002A95E2F721E0C222DD24A114B10419F018
:1027D00081EE0E94B825C114D10419F086EE0E9442
:1027E000B825872D0E941726CD2819F086EE0E9465
:1027F0007925AB2819F081EE0E9479250F5F1F4FD4
:102800006BCF00313FE5130709F0B5C481E00E94AA
:1028100085220E944C1980918603877009F426C591
:10282000F7018281882309F421C582E029960FB639
:10283000F894DEBF0FBECDBFDF91CF911F910F91F6
:10284000FF90EF90DF90CF90BF90AF909F908F90D0
:102850007F906F905F900C94AA220031FFE51F07D4
:1028600011F481E005C001312FE5120721F482E067
:102870000E94C322CECF033FFCE51F0749F406E2C6
:1028800021EE40EE63EF7CE5C7010E94DE05C3CF79
:10289000043F2CE5120708F04AC1083D3CE5130748
:1028A00031F407E225EE45EE68ED7CE5EDCF093D1C
:1028B0008CE5180731F408E221E045EE69ED7CE58E
:1028C000E3CF073DECE51E0731F406E221EE41EED1
:1028D00067ED7CE5D9CF992309F45EC11092FC0223
:1028E00002303CE5130708F441C106318CE51807B6
:1028F00038F098012A5F3C452930310508F036C18F
:102900000E94E0209093BA028093B90200319CE5C6
:10291000190709F4C3C008F041C00830FCE51F07DF
:1029200009F49AC0F0F404303CE5130709F487C0B9
:1029300068F402309CE5190709F477C003301C45A0
:1029400009F0E5C08091B902826076C00630FCE5EE
:102950001F0709F46EC008F07BC08091B90288603F
:102960006BC00C303CE5130709F485C068F40A30ED
:102970009CE5190709F474C008F079C00E94592534
:102980008091B902806858C00E30FCE51F0709F439
:1029900076C008F07FC08091B9028BC00B3F3CE548
:1029A000130709F44FC018F503319CE5190709F422
:1029B0007DC078F40131FCE51F0709F473C00231D2
:1029C0001C4509F0A4C00E9459258091B9028F7757
:1029D00033C005313CE5130709F472C008F486C022
:1029E0000A3F1C4509F093C08091BA023EC00F3FD8
:1029F000ECE51E0709F45FC058F40D3F2CE5120703
:102A000009F444C008F43FC08091BA0282602DC02E
:102A100001308DE5180709F475C008F45DC0023077
:102A20001D4509F074C060E06EC08091B9028160FC
:102A300003C08091B90280618093B90268C080911F
:102A4000B90211C08091BA0282608093BA025FC05D
:102A50008091B9028062F0CF8091B9028064ECCF9E
:102A60008091B90288608460E7CF8160EECF809169
:102A7000B9028E7FE1CF8091B9028D7FDDCF809149
:102A8000B902877FD9CF8091BA0218C08091BA026B
:102A90008D7FDBCF8091B9028F7ECECF8091B9023E
:102AA0008F7DCACF8091B9028F7BC6CF8091B9024A
:102AB000877F8B7FC1CF8091BA028D7F8E7FC5CFFC
:102AC0008091B90282FB222720F991E0922790FBA6
:102AD00082F990FB83F9B0CF8091BA02982F90953C
:102AE00091708E7F892B90FB81F9AFCF0E94592581
:102AF0008091B90287FB222720F991E0922790FB71
:102B000087F99ACF61E08EE090E00E94B52860914D
:102B1000B9021091BA0284E090E00E94B528612FBA
:102B200081E290E00E94B5280E94592574CE053FAD
:102B3000FCE51F0731F406E221EE42EE65EF7CE58D
:102B4000A3CE053F2CE5120730F407E225EE44EE54
:102B500064EF7CE599CE063F3CE5130709F0BBCE58
:102B600007E225EE46EE66EF7CE58ECE06318CE57B
:102B7000180751F5809189038A7A91E009F490E071
:102B80009093FD02882311F065E301C069E289E1B9
:102B900093E00E94C62015C00631ECE51E0759F5EA
:102BA0008091FD02882309F4EDC285E3E9E1F3E0B9
:102BB0009281891301C01282319603E0EF31F00750
:102BC000B9F70E94AA2127CE01158CE5180731F02C
:102BD0000E3D1C45D1F40E94F1201DCE0E945925C6
:102BE000FFEF04E31CE0F15000401040E1F700C0AB
:102BF00000000E942120809189038272F801E25C2A
:102C0000FC45E431F10508F4BFC2F70100811181F0
:102C1000992349F0C8010E94D721D82E682FC801F6
:102C20000E94502204C0C8010E942422D82EB8015C
:102C30008D2D0E9483098C01982EF701A580A29406
:102C40009FE0A922D280D110109288038091860340
:102C5000877099F0DD2089F0812F807F803421F00A
:102C600080E2800F883048F082E00E94AA228091A2
:102C700086038770CC24C3948111C12CB12EB294E9
:102C80008FE0B8228B2D90E08C30910508F040C287
:102C9000FC01E759FF4F0C941129812F807F1F7091
:102CA000882311F01295107FDD20B9F0112309F46B
:102CB0001AC280E2800F883010F0911006C0809117
:102CC0008903182B1093890305C080918803182B62
:102CD000109388030E94AA2106C2802F0E947925A2
:102CE000112309F415C2005E1095083010F0911000
:102CF00006C08091890318231093890305C0809131
:102D000088031823109388030E94AA2101C2812FEF
:102D1000807F1F70803211F01295107F992021F072
:102D2000F1E09F16E1F02AC0DD2081F080918A0356
:102D3000AA2051F001E0A01207C0182B181709F4BF
:102D4000E7C110938A03E4C1812B10C0AA2021F0AF
:102D500021E0A21609F4DCC10E94A42127C0DD20D5
:102D600041F035E03A1508F4D3C1812F0E946F2558
:102D7000CFC184E08A1508F4CBC118C0DD2049F02A
:102D8000AA2099F3F701858180FFADC18F708583FB
:102D9000ECCFAA2059F0093309F0B7C1FFEF17EEC5
:102DA00023E0F15010402040E1F7ADC1812F0E9497
:102DB0006425AEC1812F86958695837019F0813088
:102DC00059F0A6C1DD2019F0C801937002C080E05F
:102DD00090E00E94BC05A2C1DD2019F0C8019370EB
:102DE00002C080E090E00E94A60598C1802FDD20FF
:102DF00019F00E94B91F02C00E94F21E0E947320A7
:102E00008DC1812F837009F069C0D11085C1902FC9
:102E1000929596959770990F990F802F8F70882EA5
:102E2000912CA12CB12C092E04C0880C991CAA1C31
:102E3000BB1C0A94D2F704FF12C04FE050E060E0E0
:102E400070E004C0440F551F661F771F9A95D2F794
:102E5000DB01CA0180959095A095B09503C080E0F4
:102E600090E0DC0116951695412F4370423019F120
:102E7000C8F400918B0310918C0320918D03309145
:102E80008E03413059F088299929AA29BB29BC0110
:102E9000CD0160237123822393230AC0802A912AC3
:102EA000A22AB32ABC01CD01682979298A299B2944
:102EB0000E94E42231C188299929AA29BB290091BD
:102EC0008B0310918C0320918D0330918E03BC01F4
:102ED000CD016027712782279327EACFDD2019F0E3
:102EE000812F817001C08695882309F415C1902F28
:102EF000929596959770990F990F802F8F70882EC5
:102F0000912CA12CB12C092E04C0880C991CAA1C50
:102F1000BB1C0A94D2F704FF12C04FE050E060E0FF
:102F200070E004C0440F551F661F771F9A95D2F7B3
:102F3000DB01CA0180959095A095B09503C080E013
:102F400090E0DC0116951695412F43704230D9F080
:102F500068F5009115031091160320911703309125
:102F60001803413059F088299929AA29BB29BC01A5
:102F7000CD0160237123822393231EC0802A912ACE
:102F8000A22AB32A13C088299929AA29BB2900910A
:102F90001503109116032091170330911803BC01FB
:102FA000CD01602771278227932706C0BC01CD0180
:102FB000682979298A299B290E947B22ADC01F702C
:102FC000DD2039F0812F0E94C322802F0E946F25BF
:102FD000A3C0802F0E946425812F0E9485229CC05F
:102FE000802F32EF931609F440C0391538F090EF76
:102FF000991661F0E1EF9E1699F170C0F3EF9F16FC
:10300000D9F124EF921609F44EC068C0DD2019F101
:1030100034E03A1508F47CC01F7181E090E0A0E034
:10302000B0E0AC01BD0104C0440F551F661F771FFF
:103030001A95D2F78091150390911603A09117036A
:10304000B09118038A019B01082719272A273B27DB
:10305000C901B80125C025E02A1508F459C0DCCF04
:10306000DD2029F0812F8F712CC0DD20D9F3812F35
:103070008F710E9485224CC0DD2079F01F7181E0A4
:1030800090E0A0E0B0E0BC01CD0104C0660F771F66
:10309000881F991F1A95D2F703C060E070E0CB013A
:1030A0000E947B2235C0DD2079F01F71812F0E94A4
:1030B000C32238E0139FC0011124836080938603EC
:1030C000812F0E94C32224C081E00E94AA2281E0B5
:1030D0008A15F0F482E00E94AA221AC0DD2039F09D
:1030E000AA2009F4BFCF802F0E94B82511C0AA20C2
:1030F00009F4BDCF893349F49FEFE7EEF3E0915037
:10310000E040F040E1F700C00000802F0E947925E8
:1031100088EF8B0D843010F40E94D205CC2009F486
:10312000A5C08091860380FDA1C0F701128285951C
:10313000859585950E94C322C7010E94D412809173
:10314000860385958595859529960FB6F894DEBFFB
:103150000FBECDBFDF91CF911F910F91FF90EF90E8
:10316000DF90CF90BF90AF909F908F907F906F90A7
:103170005F900C94852201318FE5180709F07BCB15
:1031800082E045CB89E212CDEB58FF4F0C94112918
:103190008091E90280FF20C08E7F8093E9026091D8
:1031A000E9027091EA028091EB029091EC020E9498
:1031B000CC070E94EC068091CB0281608093CB0209
:1031C0001FEF20E732E0115020403040E1F700C00F
:1031D00000000E94F3061FCB81608093E90261E04A
:1031E000869536C049E259E062E379E02CC042E3BB
:1031F00059E069E279E027C045EB58E06EEB78E0F2
:1032000022C04EEB58E065EB78E01DC04DE958E078
:1032100069EA78E018C049EA58E06DE978E013C03F
:1032200045E858E061E978E00EC041E958E065E81A
:1032300078E009C047EC58E068ED78E004C048ED5C
:1032400058E067EC78E00E94E606E5CA61E081E0BC
:103250000E94E908E0CA65E082E005C068E086E017
:1032600002C062E189E00E943C09D5CA29960FB6E6
:10327000F894DEBF0FBECDBFDF91CF911F910F91AC
:10328000FF90EF90DF90CF90BF90AF909F908F9086
:103290007F906F905F9008950F931F938091150317
:1032A00090911603A0911703B09118038C019D0112
:1032B0000670112722273327BC01CD0106301105E6
:1032C0002105310511F4686001C0677F1F910F91DE
:1032D0000C947B221F93CF93DF93CDB7DEB7AA97D1
:1032E0000FB6F894DEBF0FBECDBFECE0F3E08091E7
:1032F000F100819343E0E431F407C9F780910D03B5
:10330000833009F462C030F4813071F0823009F406
:103310009CC0B3C08A3009F488C08B3009F46DC0FA
:10332000893009F0AAC020C080910C03813A09F0CD
:10333000A4C08091E800877F8093E800809110030B
:1033400090911103892B21F468E081E093E003C0A0
:1033500060E080E090E070E00E947E268091E800CE
:103360008B778093E80089C080910C03813209F04B
:1033700084C08091100390911103009719F0029777
:1033800009F07BC08091E800877F8093E8008091FE
:10339000E80082FD05C0809114038111F8CF6DC053
:1033A0002091F3008091F20090E0922B029729F493
:1033B0008091F1008B7F813021F48091F100809326
:1033C00000038091E8008B7754C080910C03813A10
:1033D00009F053C08091100390911103892B09F0DB
:1033E0004CC08091E800877F8093E8008091E800DE
:1033F00080FFFCCF80912D0137C080910C0381327A
:10340000E1F58091100390911103892BB1F5809122
:10341000E800877F8093E8000E942A2680910E03AF
:1034200080932D010E94592528C080910C03813280
:1034300021F58091E800877F8093E8000E942A268A
:1034400080910F038093FF0218C080910C03813A92
:10345000A1F48091E800877F8093E8008091E800E4
:1034600080FFFCCF8091FF028093F1008091E80003
:103470008E778093E8000E942A268091E80083FFDF
:10348000E9C180910C0390910D03492F50E04A301F
:10349000510508F0DFC1FA01E757FF4F0C941129DD
:1034A000803821F0823809F0D5C108C08091090325
:1034B00090910A03992389F082600FC080911003D4
:1034C0008F70873008F0C6C18093E9008091EB00CF
:1034D00085FB882780F91092E9009091E800977F9A
:1034E0009093E8008093F1001092F1007CC1282FA6
:1034F0002D7F09F0AFC1882319F0823061F0AAC195
:1035000080910E03813009F0A5C1933009F080E06D
:1035100080930A032EC080910E0381112AC08091EE
:1035200010038F702FEF280F263008F093C180937F
:10353000E9002091EB0020FF1CC0933021F4809122
:10354000EB00806214C09091EB0090619093EB00CF
:1035500021E030E0A90102C0440F551F8A95E2F72F
:103560004093EA001092EA008091EB00886080931B
:10357000EB001092E9008091E800877F8093E800DB
:103580000E942A2667C1811165C110910E031F7721
:103590008091E3008078812B8093E3008091E800A4
:1035A000877F8093E8000E942A268091E80080FFB0
:1035B000FCCF8091E30080688093E300111102C08A
:1035C00082E001C083E08093140344C180588230BC
:1035D00008F040C120910E0330910F032C3D53E0C1
:1035E000350779F583E08A838AE289834FB7F894B7
:1035F000DE01139620E03EE051E2E32FF0E050932D
:103600005700E49120FF03C0E295EF703F5FEF7039
:103610008E2F90E0EA3010F0C79601C0C0968D93CF
:103620009D932F5F243149F74FBF8091E800877F3A
:103630008093E8006AE270E0CE0101960E947E2647
:10364000C0C08091100390911103432F5527433040
:103650005105B1F068F44130510509F40AC1423016
:10366000510509F0F7C08BE590E0E1E0F7E057C0C5
:103670004132510589F14232510509F43CC0EAC09A
:10368000C901992781309105B9F070F08230910518
:10369000D9F0039709F0DEC0EEE6F7E0E4918E2F53
:1036A00090E0EEE6F7E038C0E4E9F7E0E4918E2F31
:1036B00090E0E4E9F7E030C0E0E8F7E0E4918E2F35
:1036C00090E0E0E8F7E028C0E4E7F7E0E4918E2F2F
:1036D00090E0E4E7F7E020C08330910508F0BAC03D
:1036E000880F991FFC01E559FE4F0190F081E02DF4
:1036F00089E090E014C08330910508F0ABC0FC0174
:10370000EE0FFF1FEB59FE4F0190F081E02DDC0121
:10371000AE59BE4F8C9190E0009709F49BC0209168
:10372000E800277F2093E8002091120330911303D3
:103730002817390708F4C90140E0009789F1209162
:103740001403222309F43DC02530D9F12091E8006B
:1037500023FD37C02091E80022FD2FC02091E80012
:1037600020FFEBCF4091F3002091F20030E0342BAA
:10377000009759F02830310540F444914093F1000E
:10378000319601972F5F3F4FF3CF41E0283031054D
:1037900009F040E02091E8002E772093E800CDCF9B
:1037A0004111CDCF0AC080911403882351F0853098
:1037B00041F08091E80083FD04C08091E80082FF21
:1037C000F2CF8091E8008B778093E80043C0803887
:1037D00009F040C08091E800877F8093E8008091E5
:1037E0000B038093F1008091E8008E77C7CE8111A2
:1037F00031C080910E0390910F039927029754F5E1
:103800008091E800877F8093E80010910E03109369
:103810000B030E942A26111106C08091E30087FD48
:1038200002C081E001C084E08093140342E061ECB7
:1038300081E00E94492642E261EC84E00E94492630
:1038400042E261EC82E00E94492642E260EC83E0C1
:103850000E9449268091E80083FF10C08091E80013
:10386000877F8093E8008091EB0080628093EB007B
:1038700005C082E190E0ECE5F7E051CFAA960FB6E3
:10388000F894DEBF0FBECDBFDF91CF911F91089599
:103890001F920F920FB60F9211242F933F934F93C5
:1038A0005F936F937F938F939F93AF93BF93CF93C8
:1038B000DF93EF93FF93C091E900CF708091EC000C
:1038C000D82FD17080FDD0E81092E9008091F000EF
:1038D000877F8093F00078940E946A191092E90023
:1038E0008091F00088608093F000CD2BCF70C09362
:1038F000E900FF91EF91DF91CF91BF91AF919F913F
:103900008F917F916F915F914F913F912F910F9088
:103910000FBE0F901F901895E8EDF0E080818E7F2C
:1039200080831092E2001092DA001092E100A0EE83
:10393000B0E08C9181608C9380818F77808319BCFB
:10394000A7EDB0E08C918E7F8C9380818F7E8083F9
:103950001092FE020895CF92DF92EF92FF920F93A2
:103960001F93CF93DF93C8EDD0E088818F7E88834B
:10397000E7EDF0E080818160808384E082BF81E0B8
:103980008093FE0288818E7F888302EE10E0F8012A
:1039900010821092DA0081EEC82ED12CF60110822E
:1039A00088818F77888388818068888388818F7DEC
:1039B000888319BC1092140310920B0310920A030F
:1039C0001092090390EEE92EF12CF70180818B7F94
:1039D000808388818160888342E060E080E00E948B
:1039E0004926F60180818E7F8083F8018081816085
:1039F0008083808188608083F70180818E7F8083CF
:103A0000888180618883DF91CF911F910F91FF9012
:103A1000EF90DF90CF9008951F920F920FB60F9204
:103A200011242F933F934F935F936F937F938F93C3
:103A30009F93AF93BF93EF93FF938091E10082FF39
:103A400009C08091E20082FF05C08091E1008B7F78
:103A50008093E1008091DA0080FF2AC08091D80035
:103A600080FF26C08091DA008E7F8093DA008091FB
:103A7000D90080FF18C080E189BD82E189BD09B409
:103A800000FEFDCF81E0809314038091FE0281113E
:103A90000FC00E948C1C0E94AB1C8091E2008460CD
:103AA0008093E20005C019BC109214031092FE022C
:103AB0008091E10080FF17C08091E20080FF13C079
:103AC0008091E2008E7F8093E2008091E20080612D
:103AD0008093E2008091D80080628093D80019BC66
:103AE00085E0809314038091E10084FF32C08091CF
:103AF000E20084FF2EC080E189BD82E189BD09B466
:103B000000FEFDCF8091D8008F7D8093D8008091FA
:103B1000E1008F7E8093E1008091E2008F7E8093B0
:103B2000E2008091E20081608093E20080910B03CB
:103B3000882311F084E007C08091E30087FD02C074
:103B400081E001C083E0809314030E9459250E9404
:103B5000D2058091E10083FF27C08091E20083FFBE
:103B600023C08091E100877F8093E10082E0809311
:103B7000140310920B038091E1008E7F8093E1008B
:103B80008091E2008E7F8093E2008091E20080616C
:103B90008093E20042E060E080E00E94492680914C
:103BA000F00088608093F000FF91EF91BF91AF919A
:103BB0009F918F917F916F915F914F913F912F9145
:103BC0000F900FBE0F901F9018952091E400309138
:103BD000E50095E64091EC00842F817040FF23C002
:103BE0008091E80080FD1DC080911403882399F026
:103BF000853099F08091EB0085FD11C04091E40083
:103C00005091E5002417350729F3915011F09A01DE
:103C1000E1CF84E0089582E0089583E0089581E093
:103C2000089580E008954091E80042FFDDCF0895B7
:103C3000EF92FF920F931F93CF93DF937C018B0141
:103C40000E94E51D811119C0E70101151105A1F0C0
:103C50008091E80085FD0AC08091E8008E7780930E
:103C6000E8000E94E51D882381F307C089918093B5
:103C7000F10001501109E9CF80E0DF91CF911F9150
:103C80000F91FF90EF900895CF932091140324306B
:103C9000F9F4C091E900CF703091EC00232F21702E
:103CA00030FD20E8C22B22E02093E9002091E800BB
:103CB00020FF0BC040E050E060E270E00E94181E60
:103CC0008091E8008E778093E800CF70C093E90080
:103CD000CF910895809100030895CF93DF9300D092
:103CE0001F92CDB7DEB790911403943011F58983FC
:103CF0007B836A839093E9008FEF9091E800815075
:103D000095FD06C095ED9A95F1F700008111F5CF6C
:103D10008091E80085FF0DC040E050E063E070E076
:103D2000CE0101960E94181E8091E8008E77809344
:103D3000E8000F900F900F90DF91CF910895BC0194
:103D400084E00C946D1EBC0183E00C946D1E24E095
:103D50002093E9002FEF3091E800215035FD06C097
:103D600035ED3A95F1F700002111F5CF2091E800EB
:103D700025FF0BC040E050E066E070E00E94181E96
:103D80008091E8008E778093E8000895CF93DF93C9
:103D900021E02093E9002FEF3091E800215035FD1C
:103DA00006C035ED3A95F1F700002111F5CF2091CD
:103DB000E80025FF14C0EC0140E050E068E070E04E
:103DC0000E94181E8091E8008E778093E80088E0BA
:103DD000FE01A1E0B3E001900D928A95E1F7DF9139
:103DE000CF910895803F39F48091DA0287FF6AC04D
:103DF0001092DA0267C0813F29F48091DA02181626
:103E0000BCF360C09091D902823F29F497FF5AC059
:103E10001092D90257C0833F19F41916CCF352C03F
:103E20009091DB02893F31F419160CF04BC01092CF
:103E3000DB0248C08A3F19F497FF44C0F8CF8B3F9C
:103E400039F48091DC0287FF3DC01092DC023AC059
:103E50008C3F29F48091DC021816BCF333C0843FF8
:103E600021F48091D8028E7F17C0853F21F4809184
:103E7000D8028D7F11C0863F21F48091D8028B7FBC
:103E80000BC0873F21F48091D802877F05C0883F0F
:103E900031F48091D8028F7E8093D80213C08D3F79
:103EA00021F480918F038E7F0BC08E3F21F480918F
:103EB0008F038D7F05C08F3F29F480918F038B7F07
:103EC00080938F038091D902811106C08091DA021C
:103ED000811102C01092D4028091DB02811106C0D0
:103EE0008091DC02811102C01092D102089580916C
:103EF0008F0380FD16C081FD16C082FD18C0809121
:103F0000D102882391F0883290F428E0829FC0018A
:103F1000112468E270E00E94FD28862F672B29F0AB
:103F200007C082E0089584E0089581E0089588E064
:103F3000089580918F0380FD14C081FD14C082FD1F
:103F400016C08091D402882381F0843180F422E36A
:103F5000829FC001112464E170E00E94FD28862F39
:103F600008958CE0089589E1089585E0089582E33D
:103F70000895803F21F40E94991F819504C0813FDC
:103F800029F40E94991F8093DA020895823F21F458
:103F90000E94991F819504C0833F29F40E94991FB4
:103FA0008093D9020895893F19F40E94771F05C0B4
:103FB0008A3F31F40E94771F81958093DB02089538
:103FC0008B3F21F40E94771F819504C08C3F29F418
:103FD0000E94771F8093DC020895843F21F4809132
:103FE000D802816017C0853F21F48091D802826099
:103FF00011C0863F21F48091D80284600BC0873FB6
:1040000021F48091D802886005C0883F31F4809106
:10401000D80280618093D80208958D3F21F4809169
:104020008F0381600BC08E3F21F480918F038260EB
:1040300005C08F3F29F480918F03846080938F03A4
:10404000089587E797E790930108809300089AE026
:1040500088E10FB6F894A895809360000FBE909306
:104060006000FFCF78941F920F920FB60F92112429
:104070008F939F93AF93BF938091F8029091F90231
:10408000A091FA02B091FB020196A11DB11D80938F
:10409000F8029093F902A093FA02B093FB02BF9149
:1040A000AF919F918F910F900FBE0F901F90189519
:1040B0009C014FB7F8948091F8029091F902A09179
:1040C000FA02B091FB024FBF821B930B08952FB7EA
:1040D000F8948091F8029091F902A091FA02B091BF
:1040E000FB022FBF08950E9467202091D902211161
:1040F00004C02091DA02222321F09093D60280930B
:10410000D5022091DB02211104C02091DC02222380
:1041100021F09093D3028093D202E091BD02F091FE
:10412000BE02309749F082E08093D7020480F58187
:10413000E02D87ED92E0099408951F920F920FB63B
:104140000F9211248F939F93AF93BF938091BF02DF
:10415000811113C08091F8029091F902A091FA02A6
:10416000B091FB024196A11DB11D8093F80290937E
:10417000F902A093FA02B093FB02BF91AF919F9115
:104180008F910F900FBE0F901F9018959C01FC010E
:1041900032969FEF80E04191461789F09F3F19F4D6
:1041A000411101C0982F8F5F8630A9F79F3F39F0EA
:1041B000F901E90FF11D97FDFA95628308950895BD
:1041C000CF9384E090E00E94A128C82F81E290E084
:1041D0000E94A1282C2F30E0A901582BCA01CF91B1
:1041E00008956CEE7EEF80E090E00E94D32860E0BE
:1041F00082E090E00E94B52860E083E090E00E94B9
:10420000B52810928B0310928C0310928D0310929C
:104210008E0360E084E090E00E94B52860E081E2D7
:1042200090E00E94B52860E085E090E00E94B5280B
:1042300060E086E090E00E94B5286FEF87E090E0B4
:104240000E94B52840E050E0BA0188E090E00E946A
:10425000C72860E08DE090E00E94B52840E050E083
:10426000BA0188E190E00E94C72860E087E190E011
:104270000E94B52840E050E0BA018CE190E00E9435
:10428000C72860E080E290E00E94B52840E050E05E
:10429000BA018FE090E00E94C72840E050E0BA01E8
:1042A00083E190E00C94C728CF92DF92EF92FF92C7
:1042B0006C01EE24FF24C114D104E104F10421F0C7
:1042C000C701B60120E101C020E0C72ED82EE92E9B
:1042D000FF24C114D104E104F10419F0285FC701DF
:1042E000B6016B017C0154E0F694E794D794C7942F
:1042F0005A95D1F7C114D104E104F10419F02C5FEF
:10430000C701B6016B017C0142E0F694E794D794B3
:10431000C7944A95D1F7C114D104E104F10419F00E
:104320002E5FC701B601DC01CB01B695A795979525
:104330008795892B8A2B8B2B09F02F5F822FFF907B
:10434000EF90DF90CF90089580918A0381111092B1
:104350008A0308959091890380918803892B209185
:104360008703982F922B9093190380918A038823B7
:1043700089F0892B80931903EBE1F3E097E080E06B
:10438000915029F021912223D9F38F5FF9CF811128
:104390000E94A421E091BD02F091BE02309731F05D
:1043A0000280F381E02D89E193E009940895BF92A2
:1043B000CF92DF92EF92FF920F931F93CF93DF93F1
:1043C0008C01C0901503D0901603E0901703F09075
:1043D000180380918B0390918C03A0918D03B09171
:1043E0008E03C82AD92AEA2AFB2ACFE1D0E0D701D6
:1043F000C6010C2E04C0B695A795979587950A948B
:10440000D2F780FD04C0219790F7B12C07C0BC2ED5
:10441000B8018C2F0E9483090197A9F38B2DDF919E
:10442000CF911F910F91FF90EF90DF90CF90BF90B1
:104430000895CF93DF93EC010E94D721BE010E9423
:104440008309DF91CF91089527E0929F800D112479
:10445000682F669566956695982F977085E0689F9A
:10446000B001112440E050E080E0FB01E40FF51FB3
:10447000E75AFC4F208130E0092E02C0369527957F
:104480000A94E2F721703327042E01C0220F0A9408
:10449000EAF7822B4F5F5F4F4530510531F70895A2
:1044A00027E0929F800D1124E82FE695E695E6958A
:1044B000877051E001C0550F8A95EAF785E0E89FC3
:1044C000F0011124E75AFC4F20E030E070E0408119
:1044D000CB01022E02C0969587950A94E2F781706F
:1044E000819584278523842781932F5F3F4F253033
:1044F000310569F70895609315037093160380934F
:104500001703909318030C943C250F931F9341E0DD
:1045100050E060E070E004C0440F551F661F771F35
:104520008A95D2F7409550956095709580911503C6
:1045300090911603A0911703B09118038A019B0173
:10454000082319232A233B23C901B8011F910F9186
:104550000C947B222091860380958223809386038E
:10456000982F977079F430E0482F082E000C550BE7
:104570002417350739F08595859585950E94852204
:104580001092860308950F931F9341E050E060E07E
:1045900070E004C0440F551F661F771F8A95D2F73D
:1045A0008091150390911603A0911703B091180301
:1045B0008A019B01082B192B2A2B3B2BC901B8011F
:1045C0001F910F910C947B2260938B0370938C034B
:1045D00080938D0390938E030C943C258091580317
:1045E00090912703891719F08F5F8770FBCF08958B
:1045F0000F931F93CF93DF938091260382958F7043
:1046000009F05DC080912303882309F458C080918C
:104610005803109127036091210370912203C091E8
:104620002403D091250391E06F3F09F090E0292FFA
:1046300006E0811709F443C0209721F07F3F21F065
:1046400030E003C031E001C0322F90E030FD34C0D3
:10465000089FF001099FF00D1124DF01A85DBC4FF8
:1046600011963C911197371327C03C91361324C003
:1046700012963C91129731111FC013964D915C9187
:1046800014974C1B5D0B483C5105B0F480912603F8
:104690008F70806180932603E35DFC4F80818F7073
:1046A0008061808381E293E00E94D412DF91CF91F8
:1046B0001F910F910C94EE2201968770BACFDF9173
:1046C000CF911F910F9108950E941922292F2F70C9
:1046D000E92FE295EF704E2F50E0FA013297EE305D
:1046E000F105B8F4ED56FF4F0C941129803F99F075
:1046F00018F4883E70F40FC0843F59F40CC0883E13
:1047000050F0813F31F407C0822F869586958695BB
:10471000089580E0089581E008959F92AF92BF923E
:10472000CF92DF92EF92FF920F931F93CF93DF937D
:10473000CDB7DEB761970FB6F894DEBF0FBECDBF21
:104740008C0185E0F801DE011D9601900D928A959D
:10475000E1F7F80190818181E2803091210360913D
:10476000220340912403509125034115510531F056
:104770006F3F31F421E03F3F19F403C021E001C055
:1047800020E0F22FF1709F2E20FD23C1F801C3809D
:10479000D48021E2A22E23E0B22EF0902303F60172
:1047A000E41BF50BFF2009F4CEC020912603E83C62
:1047B000F10508F099C0422F407F09F051C06813FD
:1047C00011C039130FC0FE2CE1100CC02F702061F6
:1047D00020932603C5010E94D41280912603F8017C
:1047E000858337C1CD2831F08F3F31F421E09F3FE1
:1047F00019F403C021E001C020E020FD03C021E046
:104800002E2502C020E030E0F22FF170FF2E20FFB5
:104810001DC0209158034091270356E0241709F446
:10482000F6C030E0529FF001539FF00D1124E85D77
:10483000FC4F6181861306C06081961303C06281BC
:10484000E61204C02F5F3F4F2770E8CFFE2CEE200A
:1048500009F4FFC08091260381608093260350C035
:10486000681307C0391305C0E11003C0F8012583A0
:104870008DC09D878E878D859E850E9464238823A9
:1048800069F1EE2059F120912603822F82958F70D5
:1048900090E0029774F08091210390912203988711
:1048A0008F831986DB86CA862C87CE0107960E94E5
:1048B000D41286E0F801A1E2B3E001900D928A954E
:1048C000E1F70E94F8220DC06817E1F09D878E87FE
:1048D0008D859E850E94642381111EC0C8010E949F
:1048E000D412FF24F394B5C0422F407F69F781E2D0
:1048F00093E00E94D41286E0F50111928A95E9F7BF
:10490000F12CA7C03913E2CFE110E0CFF8012583E5
:10491000C8010E94D41257C0EE2001F32091260353
:10492000822F82958F7090E002971CF28091210374
:10493000909122039A8389831B82DD82CC822E830D
:10494000CE010196B4CFE83CF105E8F5FE2CEE204F
:1049500029F2681327C0391325C02091260320FDB2
:1049600018C0822F82958F70482F50E04115510555
:1049700081F0F80125834F30510541F08F5F982F6A
:104980009295907F822F8F70892B8583C8010E941A
:10499000D41286E0F801A1E2B3E001900D928A956D
:1049A000E1F757C09D878E878D859E850E94642381
:1049B00081117FCF80912603816080932603C801F7
:1049C0000E94D41246C086E0F50111928A95E9F75B
:1049D00040C0EE2009F482CF9D878E878D859E850D
:1049E0000E946423F82E882309F478CF86E0F8012A
:1049F000A1E2B3E001900D928A95E1F78091210345
:104A0000909122030E9419220E94F82222C09D87C1
:104A10008E878D859E850E941922292F22952F70C1
:104A2000223028F49F7039F0811105C00BC024306A
:104A300028F49F7049F4805E883020F0C8010E94FD
:104A4000D4129F2CF92C05C0F8019581907F99F71D
:104A5000F9CF8F2D61960FB6F894DEBF0FBECDBF94
:104A6000DF91CF911F910F91FF90EF90DF90CF904A
:104A7000BF90AF909F900895109288031092870383
:104A80000E94AA21E7EDF2E086E0DF011D928A95FF
:104A9000E9F71092D4021092D10210928F030E9473
:104AA000732080E090E00E94BC0580E090E00C94D0
:104AB000A6051092890386E0EBE1F3E0DF011D9289
:104AC0008A95E9F70C943C25882341F080959091D4
:104AD00089038923809389030C94AA21089588234C
:104AE00039F090918903892B809389030C94AA2132
:104AF00008958823E1F19CEF980F913A60F4E9E181
:104B0000F3E09281891301C01282319643E0EF31C4
:104B1000F407B9F714C090E2980F983090F48770BA
:104B200021E030E0A90102C0440F551F8A95E2F749
:104B3000CA018095909189038923809389030C94FD
:104B4000AA219BE5980F933020F480E090E00C942C
:104B5000BC0598E5980F973120F480E090E00C9424
:104B6000A605803F20F00E94F21E0C947320089549
:104B7000CF93882309F459C0C82F8CEF8C0F813A4A
:104B8000F8F4EBE1F3E081E293E02191C21721F028
:104B90008E179F07D1F70EC0E9E1F3E08FE193E0B4
:104BA0002281C21301C0128231968E179F07C1F76E
:104BB0000E94AA216C2F89E193E00E94C62010C0B8
:104BC00080E28C0F883078F4C77081E090E001C0FB
:104BD000880FCA95EAF790918903892B80938903FE
:104BE000CF910C94AA21EBE5EC0FE33040F4F0E018
:104BF000EF58FE4F808190E0CF910C94BC05E8E522
:104C0000EC0FE73150F4F0E0EE0FFF1FEC58FE4FD1
:104C100080819181CF910C94A605C03F30F08C2FFC
:104C20000E94B91FCF910C947320CF910895CF9318
:104C3000C82F0E94B825C93349F42FEF87EE93E0BF
:104C4000215080409040E1F700C000008C2FCF91B0
:104C50000C94792580910C0387FF11C08091E800A6
:104C600082FD05C0809114038111F8CF11C080919D
:104C7000E8008B770BC080911403882349F0809162
:104C8000E80080FFF8CF8091E8008E778093E800FD
:104C90000895982F973068F59093E900981739F0A8
:104CA0007091EC002091ED005091F00003C0242F92
:104CB000762F50E021FD02C09F5FECCF3091EB00DA
:104CC0003E7F3093EB003091ED003D7F3093ED005F
:104CD0003091EB0031603093EB007093EC00209347
:104CE000ED005093F0002091EE0027FDE5CF80E02D
:104CF00008958F708093E90081E008952091120358
:104D0000309113032617370748F06115710539F400
:104D10002091E8002E772093E80001C0B901FC0142
:104D200020E06115710579F1809114038823F1F178
:104D30008530F1F18091E80083FD3CC08091E8006E
:104D400082FD2EC08091E80080FFEBCF2091F30020
:104D50008091F20090E0922B6115710551F088303E
:104D6000910538F421912093F10061507109019669
:104D7000F3CF21E0089709F020E08091E8008E77DA
:104D80008093E800CECF2111CFCF0AC080911403C9
:104D9000882361F0853061F08091E80083FD0AC0CE
:104DA0008091E80082FFF2CF80E0089582E00895CC
:104DB00083E0089581E008958EE14A9B02C081500E
:104DC000E1F74A9BFECF08955A9880E28A95F1F761
:104DD0005A9A0895FC012AE02A95F1F790E020E024
:104DE00080E031E0261779F040E14A95F1F7880F2D
:104DF0004A9B02C08160932700C0000040E14A95B1
:104E0000F1F72F5FEFCF20E12A95F1F729B100C02C
:104E1000000030E13A95F1F722FB222720F9922792
:104E20002081920F90830895EF92FF920F931F932A
:104E3000CF93DF931F92CDB7DEB719828C017C012F
:104E4000E60EF11C0E151F0559F00E94DC2668E0E5
:104E5000CE0101960E94EA26F80181938F01F2CFDC
:104E600081E09981911180E00F90DF91CF911F91A6
:104E70000F91FF90EF900895909392038093910388
:104E800060939003529A5A9A089590939203809354
:104E900091036093900352985A9AEA9AE9E6F0E0F7
:104EA00080818F7C80830895615091E001C0990FCB
:104EB0006A95EAF720E031E0992361F0492F482311
:104EC00019F05A9A232701C05A9840E24A95F1F7FF
:104ED0009695F2CF222311F05A9A01C05A9880E297
:104EE0008A95F1F75A980895FF920F931F93CF93E5
:104EF000DF93EC018C01060F111DC017D10741F0A3
:104F0000F9900E94E42668E08F2D0E945427F5CF87
:104F1000DF91CF911F910F91FF9008951F920F92F3
:104F20000FB60F9211240F931F932F933F934F931C
:104F30005F936F937F938F939F93AF93BF93EF9301
:104F4000FF93CF93DF931F92CDB7DEB719820E94F4
:104F5000DC2667E0CE0101960E94EA26382F3695BE
:104F600036953695932F96959570232F2570920F31
:104F7000292F2370969596958770920F891348C0B4
:104F80008981811145C080919003831708F440C046
:104F900080E18A95F1F75A9A529AA2E0AA95F1F720
:104FA00000C00091910310919203B8E03B9F000D67
:104FB000111D11245A98F8016581662321F086811C
:104FC00097810E9474270E94E426F0E1FA95F1F798
:104FD0005A9852985A9A80E18A95F1F7D801129618
:104FE0006C911297662369F013968D919C9114979A
:104FF0000E941427D801ED91FC91811105C082E037
:1050000004C0D801ED91FC9188E080830E94DC26E9
:105010000F90DF91CF91FF91EF91BF91AF919F9151
:105020008F917F916F915F914F913F912F911F9140
:105030000F910F900FBE0F901F9018950F931F9315
:10504000CF93DF932091900330E0281739070CF4B9
:1050500071C09C0193E0220F331F9A95E1F7C09134
:105060009103D0919203C20FD31FF894529A5A9889
:1050700045E04A95F1F70000982F96959570857058
:10508000890F982F937086958695890F8901082B33
:105090000E94E42684E08A95F1F700C067E0802F43
:1050A0000E94542740E14A95F1F752985A9A4A993A
:1050B00002C000C0FCCF87E090E04A9B0EC0019781
:1050C00051F4529A5A9AE881F98181E08083789468
:1050D00081E090E031C000C0F0CF6D81662381F0A7
:1050E0008E819F810E94142781110AC0529A5A9A78
:1050F000E881F98182E08083789482E090E01CC0AE
:105100000E94DC2680E28A95F1F75A98529A40E193
:105110004A95F1F76A81662321F08B819C810E9478
:1051200074270E94E426E881F9811082789480E057
:1051300090E002C084E090E0DF91CF911F910F9149
:105140000895F999FECF92BD81BDF89A992780B54F
:105150000895A6E1B0E044E050E00C94DB28A8E11B
:10516000B0E042E050E00C94DB28262FF999FECF06
:1051700092BD81BDF89A019700B4021639F01FBAAA
:1051800020BD0FB6F894FA9AF99A0FBE08950396C7
:10519000272F0E94B6280E94B528252F0E94B628E6
:1051A000242F0C94B6280196272F0E94B6280C9421
:1051B000B528DC01CB01FC01F999FECF06C0F2BD98
:1051C000E1BDF89A319600B40D9241505040B8F7C5
:1051D0000895AA1BBB1B51E107C0AA1FBB1FA6173E
:1051E000B70710F0A61BB70B881F991F5A95A9F790
:1051F00080959095BC01CD01089597FB072E16F47C
:10520000009407D077FD09D00E94E92807FC05D05B
:105210003EF4909581959F4F0895709561957F4FCD
:105220000895EE0FFF1F0590F491E02D0994692772
:10523000962769277827872778270895FC0141500A
:10524000504030F001900616D1F73197CF01089504
:0A525000882799270895F894FFCFEE
:10525A0001090A0B0C0D0E0F1011120050005050CC
:10526A00AC0200AC0206A602A502089D02000000DC
:10527A000136666A1EC61EA71EA31E9F1E010001D6
:10528A0002020202060606090909090909090909A9
:10529A0009C634333235000000000094F4F5F6F7FD
:1052AA00319700FF0100010000FFFF00000100012B
:1052BA00FF00402281C1069F061E0613072C074CD9
:1052CA0007818283E200E900EA00B500B600B70070
:1052DA00CD008301CC008A019201940121022302AC
:1052EA0024022502260227022A02B300B4006F0014
:0252FA00700042
:00000001FF
